{
  "_format": "hh3-artifact-1",
  "contractName": "OfferFactory",
  "sourceName": "evm/protocol/OfferFactory.sol",
  "abi": [
    {
      "inputs": [
        {
          "internalType": "address",
          "name": "target",
          "type": "address"
        }
      ],
      "name": "AddressEmptyCode",
      "type": "error"
    },
    {
      "inputs": [
        {
          "internalType": "address",
          "name": "implementation",
          "type": "address"
        }
      ],
      "name": "ERC1967InvalidImplementation",
      "type": "error"
    },
    {
      "inputs": [],
      "name": "ERC1967NonPayable",
      "type": "error"
    },
    {
      "inputs": [],
      "name": "FailedCall",
      "type": "error"
    },
    {
      "inputs": [],
      "name": "InvalidInitialization",
      "type": "error"
    },
    {
      "inputs": [],
      "name": "NotInitializing",
      "type": "error"
    },
    {
      "inputs": [
        {
          "internalType": "address",
          "name": "owner",
          "type": "address"
        }
      ],
      "name": "OwnableInvalidOwner",
      "type": "error"
    },
    {
      "inputs": [
        {
          "internalType": "address",
          "name": "account",
          "type": "address"
        }
      ],
      "name": "OwnableUnauthorizedAccount",
      "type": "error"
    },
    {
      "inputs": [],
      "name": "UUPSUnauthorizedCallContext",
      "type": "error"
    },
    {
      "inputs": [
        {
          "internalType": "bytes32",
          "name": "slot",
          "type": "bytes32"
        }
      ],
      "name": "UUPSUnsupportedProxiableUUID",
      "type": "error"
    },
    {
      "anonymous": false,
      "inputs": [
        {
          "indexed": false,
          "internalType": "uint64",
          "name": "version",
          "type": "uint64"
        }
      ],
      "name": "Initialized",
      "type": "event"
    },
    {
      "anonymous": false,
      "inputs": [
        {
          "indexed": true,
          "internalType": "address",
          "name": "previousOwner",
          "type": "address"
        },
        {
          "indexed": true,
          "internalType": "address",
          "name": "newOwner",
          "type": "address"
        }
      ],
      "name": "OwnershipTransferred",
      "type": "event"
    },
    {
      "anonymous": false,
      "inputs": [
        {
          "indexed": true,
          "internalType": "address",
          "name": "implementation",
          "type": "address"
        }
      ],
      "name": "Upgraded",
      "type": "event"
    },
    {
      "inputs": [],
      "name": "UPGRADE_INTERFACE_VERSION",
      "outputs": [
        {
          "internalType": "string",
          "name": "",
          "type": "string"
        }
      ],
      "stateMutability": "view",
      "type": "function"
    },
    {
      "inputs": [
        {
          "internalType": "bool",
          "name": "isSell_",
          "type": "bool"
        },
        {
          "internalType": "string",
          "name": "token_",
          "type": "string"
        },
        {
          "internalType": "string",
          "name": "fiat_",
          "type": "string"
        },
        {
          "internalType": "string",
          "name": "method_",
          "type": "string"
        },
        {
          "internalType": "uint16",
          "name": "rate_",
          "type": "uint16"
        },
        {
          "components": [
            {
              "internalType": "uint32",
              "name": "min",
              "type": "uint32"
            },
            {
              "internalType": "uint32",
              "name": "max",
              "type": "uint32"
            }
          ],
          "internalType": "struct Offer.Limits",
          "name": "limits_",
          "type": "tuple"
        },
        {
          "internalType": "string",
          "name": "terms_",
          "type": "string"
        }
      ],
      "name": "create",
      "outputs": [],
      "stateMutability": "nonpayable",
      "type": "function"
    },
    {
      "inputs": [
        {
          "internalType": "address",
          "name": "market_",
          "type": "address"
        }
      ],
      "name": "initialize",
      "outputs": [],
      "stateMutability": "nonpayable",
      "type": "function"
    },
    {
      "inputs": [],
      "name": "market",
      "outputs": [
        {
          "internalType": "contract Market",
          "name": "",
          "type": "address"
        }
      ],
      "stateMutability": "view",
      "type": "function"
    },
    {
      "inputs": [],
      "name": "owner",
      "outputs": [
        {
          "internalType": "address",
          "name": "",
          "type": "address"
        }
      ],
      "stateMutability": "view",
      "type": "function"
    },
    {
      "inputs": [],
      "name": "proxiableUUID",
      "outputs": [
        {
          "internalType": "bytes32",
          "name": "",
          "type": "bytes32"
        }
      ],
      "stateMutability": "view",
      "type": "function"
    },
    {
      "inputs": [],
      "name": "renounceOwnership",
      "outputs": [],
      "stateMutability": "nonpayable",
      "type": "function"
    },
    {
      "inputs": [
        {
          "internalType": "address",
          "name": "newOwner",
          "type": "address"
        }
      ],
      "name": "transferOwnership",
      "outputs": [],
      "stateMutability": "nonpayable",
      "type": "function"
    },
    {
      "inputs": [
        {
          "internalType": "address",
          "name": "newImplementation",
          "type": "address"
        },
        {
          "internalType": "bytes",
          "name": "data",
          "type": "bytes"
        }
      ],
      "name": "upgradeToAndCall",
      "outputs": [],
      "stateMutability": "payable",
      "type": "function"
    }
  ],
  "bytecode": "0x60a0806040523460295730608052611d6c908161002e823960805181818161081001526108b30152f35b5f80fdfe60806040526004361015610011575f80fd5b5f803560e01c80634f1ef2861461086457806352d1902d146107fe578063715018a61461079757806380f55605146107705780638a5616e31461029a5780638da5cb5b14610265578063ad3cb1cc14610218578063c4d66de8146100ac5763f2fde38b1461007d575f80fd5b346100a95760203660031901126100a9576100a6610099610a6a565b6100a1610bc3565b610b52565b80f35b80fd5b50346100a95760203660031901126100a9576100c6610a6a565b5f80516020611d17833981519152549060ff8260401c16159167ffffffffffffffff811680159081610210575b6001149081610206575b1590816101fd575b506101ee5767ffffffffffffffff1981166001175f80516020611d1783398151915255826101c2575b50610137610bf6565b61013f610bf6565b61014833610b52565b82546001600160a01b0319166001600160a01b039190911617825561016a5780f35b68ff0000000000000000195f80516020611d1783398151915254165f80516020611d17833981519152557fc7f505b2f371ae2175ee4913f4499e1f2633a7b5936321eed1cdaeb6115181d2602060405160018152a180f35b68ffffffffffffffffff191668010000000000000001175f80516020611d17833981519152555f61012e565b63f92ee8a960e01b8452600484fd5b9050155f610105565b303b1591506100fd565b8491506100f3565b50346100a957806003193601126100a9575061026160405161023b604082610a9c565b60058152640352e302e360dc1b6020820152604051918291602083526020830190610b2e565b0390f35b50346100a957806003193601126100a9575f80516020611cd7833981519152546040516001600160a01b039091168152602090f35b50346105b5576101003660031901126105b5576004358015158091036105b55760243567ffffffffffffffff81116105b5576102da903690600401610b10565b9060443567ffffffffffffffff81116105b5576102fb903690600401610b10565b9060643567ffffffffffffffff81116105b55761031c903690600401610b10565b916084359061ffff82168092036105b55760403660a31901126105b5576040519461034686610a80565b60a43563ffffffff811681036105b557865260c4359163ffffffff831683036105b5576020870192835260e43567ffffffffffffffff81116105b557610390903690600401610b10565b9284156107455763ffffffff88511663ffffffff82511611156107175760018060a01b035f5416604051631e879a6d60e11b815260406004820152602081806103f16103df604483018a610b2e565b82810360031901602484015288610b2e565b0381855afa80156105aa576106e8575b5063ffffffff895116604051906320e1220560e11b825260048201526080602482015260208160406104366084830188610b2e565b631554d11560e21b84848303926003198401604487015260048152015261271060648401520181855afa80156105aa575f906106b5575b601491501115610682576040516319b26d3760e11b815260206004820152905f908290818061049f602482018e610b2e565b03915afa80156105aa576105cd575b506040519761105790818a01948a861067ffffffffffffffff8711176105b9578a9961051663ffffffff96610508610524946105469d8f988b99610c809039338c5260208c015261012060408c01526101208b0190610b2e565b9089820360608b0152610b2e565b908782036080890152610b2e565b9660a0860152511660c0840152511660e0820152610100818403910152610b2e565b03905ff080156105aa575f546001600160a01b031690813b156105b55760405163a553269b60e01b81526001600160a01b039091166004820152905f908290602490829084905af180156105aa5761059c575080f35b6105a891505f90610a9c565b005b6040513d5f823e3d90fd5b5f80fd5b634e487b7160e01b5f52604160045260245ffd5b3d805f833e6105dc8183610a9c565b8101906020818303126105b55780519067ffffffffffffffff82116105b55701906040828203126105b5576040519161061483610a80565b805167ffffffffffffffff81116105b55781019180601f840112156105b557825161063e81610abe565b9161064c6040519384610a9c565b818352602082860101116105b5576020815f92828097018386015e830101528352015160048110156105b55760208201526104ae565b60405162461bcd60e51b815260206004820152600b60248201526a6d696e20746f6f206c6f7760a81b6044820152606490fd5b506020813d6020116106e0575b816106cf60209383610a9c565b810103126105b5576014905161046d565b3d91506106c2565b6020813d60201161070f575b8161070160209383610a9c565b810103126105b55751610401565b3d91506106f4565b60405162461bcd60e51b81526020600482015260066024820152650dad2dcdac2f60d31b6044820152606490fd5b606460405162461bcd60e51b81526020600482015260046024820152637261746560e01b6044820152fd5b346105b5575f3660031901126105b5575f546040516001600160a01b039091168152602090f35b346105b5575f3660031901126105b5576107af610bc3565b5f80516020611cd783398151915280546001600160a01b031981169091555f906001600160a01b03167f8be0079c531659141344cd1fd0a4f28419497f9722a3daafe3b4186f6b6457e08280a3005b346105b5575f3660031901126105b5577f00000000000000000000000000000000000000000000000000000000000000006001600160a01b031630036108555760206040515f80516020611cf78339815191528152f35b63703e46dd60e11b5f5260045ffd5b60403660031901126105b557610878610a6a565b60243567ffffffffffffffff81116105b557366023820112156105b5576108a9903690602481600401359101610ada565b6001600160a01b037f000000000000000000000000000000000000000000000000000000000000000016308114908115610a48575b50610855576108eb610bc3565b6040516352d1902d60e01b81526001600160a01b0383169290602081600481875afa5f9181610a14575b5061092d5783634c9c8ce360e01b5f5260045260245ffd5b805f80516020611cf7833981519152859203610a025750813b156109f0575f80516020611cf783398151915280546001600160a01b031916821790557fbc7cd75a20ee27fd9adebab32041f755214dbc6bffa90cc0225b39da2e5c2d3b5f80a28151156109d8575f808360206105a895519101845af43d156109d0573d916109b483610abe565b926109c26040519485610a9c565b83523d5f602085013e610c21565b606091610c21565b5050346109e157005b63b398979f60e01b5f5260045ffd5b634c9c8ce360e01b5f5260045260245ffd5b632a87526960e21b5f5260045260245ffd5b9091506020813d602011610a40575b81610a3060209383610a9c565b810103126105b557519085610915565b3d9150610a23565b5f80516020611cf7833981519152546001600160a01b031614159050836108de565b600435906001600160a01b03821682036105b557565b6040810190811067ffffffffffffffff8211176105b957604052565b90601f8019910116810190811067ffffffffffffffff8211176105b957604052565b67ffffffffffffffff81116105b957601f01601f191660200190565b929192610ae682610abe565b91610af46040519384610a9c565b8294818452818301116105b5578281602093845f960137010152565b9080601f830112156105b557816020610b2b93359101610ada565b90565b805180835260209291819084018484015e5f828201840152601f01601f1916010190565b6001600160a01b03168015610bb0575f80516020611cd783398151915280546001600160a01b0319811683179091556001600160a01b03167f8be0079c531659141344cd1fd0a4f28419497f9722a3daafe3b4186f6b6457e05f80a3565b631e4fbdf760e01b5f525f60045260245ffd5b5f80516020611cd7833981519152546001600160a01b03163303610be357565b63118cdaa760e01b5f523360045260245ffd5b60ff5f80516020611d178339815191525460401c1615610c1257565b631afcd79f60e31b5f5260045ffd5b90610c455750805115610c3657602081519101fd5b63d6bda27560e01b5f5260045ffd5b81511580610c76575b610c56575090565b639996b31560e01b5f9081526001600160a01b0391909116600452602490fd5b50803b15610c4e56fe6080604052346106d15761105780380380610019816106d5565b92833981018181039161012083126106d15780516001600160a01b03811693908490036106d15760208201518015158091036106d15760408301516001600160401b0381116106d1578461006e9185016106fa565b60608401516001600160401b0381116106d1578561008d9186016106fa565b60808501519091906001600160401b0381116106d157866100af9187016106fa565b9260a08601519461ffff86168096036106d15760409060bf1901126106d15760408051969087016001600160401b03811188821017610407576040526100f760c0820161074b565b875261010560e0820161074b565b602088019081526101008201519098906001600160401b0381116106d15761012d92016106fa565b5f80546001600160a81b03191690991760a09290921b60ff60a01b16919091179097558051906001600160401b0382116104075760015490600182811c921680156106c7575b60208310146103e95781601f849311610659575b50602090601f83116001146105f3575f926105e8575b50508160011b915f199060031b1c1916176001555b8051906001600160401b0382116104075760025490600182811c921680156105de575b60208310146103e95781601f849311610570575b50602090601f831160011461050a575f926104ff575b50508160011b915f199060031b1c1916176002555b8051906001600160401b03821161040757600354600181811c911680156104f5575b60208210146103e957601f8111610492575b50602090601f83116001146104265763ffffffff949392915f918361041b575b50508160011b915f199060031b1c1916176003555b61ffff196004541617600455511667ffffffff00000000600554925160201b169160018060401b0319161717600555805160018060401b03811161040757600654600181811c911680156103fd575b60208210146103e957601f8111610386575b50602091601f8211600114610326579181925f9261031b575b50508160011b915f199060031b1c1916176006555b6040516108fa908161075d8239f35b015190505f806102f7565b601f1982169260065f52805f20915f5b85811061036e57508360019510610356575b505050811b0160065561030c565b01515f1960f88460031b161c191690555f8080610348565b91926020600181928685015181550194019201610336565b60065f527ff652222313e28459528d920b65115c16c04f3efc82aaedc97be59f3f377c0d3f601f830160051c810191602084106103df575b601f0160051c01905b8181106103d457506102de565b5f81556001016103c7565b90915081906103be565b634e487b7160e01b5f52602260045260245ffd5b90607f16906102cc565b634e487b7160e01b5f52604160045260245ffd5b015190505f80610268565b90601f1983169160035f52815f20925f5b81811061047a575091600193918563ffffffff9897969410610462575b505050811b0160035561027d565b01515f1960f88460031b161c191690555f8080610454565b92936020600181928786015181550195019301610437565b60035f527fc2575a0e9e593c00f959f8c92f12db2869c3395a3b0502d05e2516446f71f85b601f840160051c810191602085106104eb575b601f0160051c01905b8181106104e05750610248565b5f81556001016104d3565b90915081906104ca565b90607f1690610236565b015190505f806101ff565b60025f9081528281209350601f198516905b8181106105585750908460019594939210610540575b505050811b01600255610214565b01515f1960f88460031b161c191690555f8080610532565b9293602060018192878601518155019501930161051c565b60025f529091507f405787fa12a823e0f2b7631cc41b3ba8828b3321ca811111fa75cd3aa3bb5ace601f840160051c810191602085106105d4575b90601f859493920160051c01905b8181106105c657506101e9565b5f81558493506001016105b9565b90915081906105ab565b91607f16916101d5565b015190505f8061019d565b60015f9081528281209350601f198516905b8181106106415750908460019594939210610629575b505050811b016001556101b2565b01515f1960f88460031b161c191690555f808061061b565b92936020600181928786015181550195019301610605565b60015f529091507fb10e2d527612073b26eecdfd717e6a320cf44b4afac2b0732d9fcbe2b7fa0cf6601f840160051c810191602085106106bd575b90601f859493920160051c01905b8181106106af5750610187565b5f81558493506001016106a2565b9091508190610694565b91607f1691610173565b5f80fd5b6040519190601f01601f191682016001600160401b0381118382101761040757604052565b81601f820112156106d1578051906001600160401b03821161040757610729601f8301601f19166020016106d5565b92828452602083830101116106d157815f9260208093018386015e8301015290565b519063ffffffff821682036106d15756fe6080806040526004361015610012575f80fd5b5f3560e01c9081630c570c86146107b7575080632c383a9f146107125780632c4e722e146106f15780636c5a7d1e1461069a57806378f86afc146104c4578063860aefcf146104975780638da5cb5b14610470578063a50edca0146103cb578063bed315f814610343578063c7502c481461023d578063d5025625146101ab578063ee070805146101895763fc0c546a146100ab575f80fd5b34610185575f366003190112610185576040515f6001546100cb816107d8565b80845290600181169081156101615750600114610103575b6100ff836100f381850382610810565b60405191829182610832565b0390f35b60015f9081527fb10e2d527612073b26eecdfd717e6a320cf44b4afac2b0732d9fcbe2b7fa0cf6939250905b808210610147575090915081016020016100f36100e3565b91926001816020925483858801015201910190929161012f565b60ff191660208086019190915291151560051b840190910191506100f390506100e3565b5f80fd5b34610185575f36600319011261018557602060ff600754166040519015158152f35b34610185575f366003190112610185576040515f6006546101cb816107d8565b808452906001811690811561016157506001146101f2576100ff836100f381850382610810565b60065f9081525f805160206108a5833981519152939250905b808210610223575090915081016020016100f36100e3565b91926001816020925483858801015201910190929161020b565b34610185576040366003190112610185576040516040810181811067ffffffffffffffff82111761032f5760405260043563ffffffff811681036101855781526024359063ffffffff8216820361018557602081019182525f546102ad9033906001600160a01b0316811461085c565b63ffffffff81511663ffffffff83511611156103015763ffffffff90511667ffffffff00000000600554925160201b169167ffffffffffffffff191617176005555f805160206108858339815191525f80a1005b60405162461bcd60e51b81526020600482015260066024820152656c696d69747360d01b6044820152606490fd5b634e487b7160e01b5f52604160045260245ffd5b346101855760203660031901126101855760043561ffff8116809103610185575f5461037b9033906001600160a01b0316811461085c565b80156103a05761ffff1960045416176004555f805160206108858339815191525f80a1005b606460405162461bcd60e51b81526020600482015260046024820152637261746560e01b6044820152fd5b34610185575f366003190112610185576040515f6002546103eb816107d8565b80845290600181169081156101615750600114610412576100ff836100f381850382610810565b60025f9081527f405787fa12a823e0f2b7631cc41b3ba8828b3321ca811111fa75cd3aa3bb5ace939250905b808210610456575090915081016020016100f36100e3565b91926001816020925483858801015201910190929161043e565b34610185575f366003190112610185575f546040516001600160a01b039091168152602090f35b34610185575f36600319011261018557604060055463ffffffff825191818116835260201c166020820152f35b346101855760203660031901126101855760043567ffffffffffffffff8111610185573660238201121561018557806004013567ffffffffffffffff811161032f576040519161051e601f8301601f191660200184610810565b818352366024838301011161018557815f9260246020930183860137830101525f546105569033906001600160a01b0316811461085c565b805167ffffffffffffffff811161032f576105726006546107d8565b601f8111610632575b50602091601f82116001146105c7579181925f926105bc575b50508160011b915f199060031b1c1916176006555b5f805160206108858339815191525f80a1005b015190508280610594565b601f1982169260065f525f805160206108a5833981519152915f5b85811061061a57508360019510610602575b505050811b016006556105a9565b01515f1960f88460031b161c191690558280806105f4565b919260206001819286850151815501940192016105e2565b60065f52601f820160051c5f805160206108a5833981519152019060208310610685575b601f0160051c5f805160206108a583398151915201905b81811061067a575061057b565b5f815560010161066d565b5f805160206108a58339815191529150610656565b3461018557602036600319011261018557600435801515809103610185575f546106d09033906001600160a01b0316811461085c565b60ff8019600754169116176007555f805160206108858339815191525f80a1005b34610185575f36600319011261018557602061ffff60045416604051908152f35b34610185575f366003190112610185576040515f600354610732816107d8565b80845290600181169081156101615750600114610759576100ff836100f381850382610810565b60035f9081527fc2575a0e9e593c00f959f8c92f12db2869c3395a3b0502d05e2516446f71f85b939250905b80821061079d575090915081016020016100f36100e3565b919260018160209254838588010152019101909291610785565b34610185575f3660031901126101855760209060ff5f5460a01c1615158152f35b90600182811c92168015610806575b60208310146107f257565b634e487b7160e01b5f52602260045260245ffd5b91607f16916107e7565b90601f8019910116810190811067ffffffffffffffff82111761032f57604052565b602060409281835280519182918282860152018484015e5f828201840152601f01601f1916010190565b156108645750565b6332b2baa360e01b5f9081526001600160a01b0391909116600452602490fdfe4c720dcd587fe71ce2ffe44bdc46bd4c550e30dcd9967b1af0a41c95f45aeae4f652222313e28459528d920b65115c16c04f3efc82aaedc97be59f3f377c0d3fa264697066735822122073f05917c866468dc0dbe7c5939ca3debd42e18a29ce45e8856ef4dd60a2e7a464736f6c634300081a00339016d09d72d40fdae2fd8ceac6b6234c7706214fd39c1cd1e609a0528c199300360894a13ba1a3210667c828492db98dca3e2076cc3735a920a3ca505d382bbcf0c57e16840df040f15088dc2f81fe391c3923bec73e23a9662efc9c229c6a00a264697066735822122091667288e5e636f043fdce47988922236d1133876058a625ac291e0e331f2f4b64736f6c634300081a0033",
  "linkReferences": {},
  "deployedLinkReferences": {},
  "immutableReferences": {
    "847": [
      {
        "length": 32,
        "start": 2064
      },
      {
        "length": 32,
        "start": 2227
      }
    ]
  },
  "inputSourceName": "project/evm/protocol/OfferFactory.sol",
  "buildInfoId": "solc-0_8_26-7fb96dc4d6ad55c28d032b65c9558ca60a213082"
}