{
  "_format": "hh-sol-artifact-1",
  "contractName": "Market",
  "sourceName": "evm/protocol/Market.sol",
  "abi": [
    {
      "inputs": [
        {
          "internalType": "address",
          "name": "target",
          "type": "address"
        }
      ],
      "name": "AddressEmptyCode",
      "type": "error"
    },
    {
      "inputs": [
        {
          "internalType": "address",
          "name": "implementation",
          "type": "address"
        }
      ],
      "name": "ERC1967InvalidImplementation",
      "type": "error"
    },
    {
      "inputs": [],
      "name": "ERC1967NonPayable",
      "type": "error"
    },
    {
      "inputs": [],
      "name": "FailedCall",
      "type": "error"
    },
    {
      "inputs": [
        {
          "internalType": "string",
          "name": "fiat",
          "type": "string"
        }
      ],
      "name": "InvalidFiat",
      "type": "error"
    },
    {
      "inputs": [],
      "name": "InvalidInitialization",
      "type": "error"
    },
    {
      "inputs": [
        {
          "internalType": "string",
          "name": "method",
          "type": "string"
        }
      ],
      "name": "InvalidMethod",
      "type": "error"
    },
    {
      "inputs": [
        {
          "internalType": "string",
          "name": "token",
          "type": "string"
        }
      ],
      "name": "InvalidToken",
      "type": "error"
    },
    {
      "inputs": [],
      "name": "NotInitializing",
      "type": "error"
    },
    {
      "inputs": [
        {
          "internalType": "address",
          "name": "owner",
          "type": "address"
        }
      ],
      "name": "OwnableInvalidOwner",
      "type": "error"
    },
    {
      "inputs": [
        {
          "internalType": "address",
          "name": "account",
          "type": "address"
        }
      ],
      "name": "OwnableUnauthorizedAccount",
      "type": "error"
    },
    {
      "inputs": [
        {
          "internalType": "address",
          "name": "token",
          "type": "address"
        }
      ],
      "name": "SafeERC20FailedOperation",
      "type": "error"
    },
    {
      "inputs": [],
      "name": "UUPSUnauthorizedCallContext",
      "type": "error"
    },
    {
      "inputs": [
        {
          "internalType": "bytes32",
          "name": "slot",
          "type": "bytes32"
        }
      ],
      "name": "UUPSUnsupportedProxiableUUID",
      "type": "error"
    },
    {
      "inputs": [
        {
          "internalType": "address",
          "name": "account",
          "type": "address"
        }
      ],
      "name": "UnauthorizedAccount",
      "type": "error"
    },
    {
      "anonymous": false,
      "inputs": [
        {
          "indexed": true,
          "internalType": "address",
          "name": "offerOwner",
          "type": "address"
        },
        {
          "indexed": true,
          "internalType": "address",
          "name": "taker",
          "type": "address"
        },
        {
          "indexed": true,
          "internalType": "address",
          "name": "offer",
          "type": "address"
        },
        {
          "indexed": false,
          "internalType": "address",
          "name": "deal",
          "type": "address"
        }
      ],
      "name": "DealCreated",
      "type": "event"
    },
    {
      "anonymous": false,
      "inputs": [
        {
          "indexed": false,
          "internalType": "uint64",
          "name": "version",
          "type": "uint64"
        }
      ],
      "name": "Initialized",
      "type": "event"
    },
    {
      "anonymous": false,
      "inputs": [
        {
          "indexed": true,
          "internalType": "address",
          "name": "owner",
          "type": "address"
        },
        {
          "indexed": true,
          "internalType": "string",
          "name": "token",
          "type": "string"
        },
        {
          "indexed": true,
          "internalType": "string",
          "name": "fiat",
          "type": "string"
        },
        {
          "indexed": false,
          "internalType": "contract Offer",
          "name": "offer",
          "type": "address"
        }
      ],
      "name": "OfferCreated",
      "type": "event"
    },
    {
      "anonymous": false,
      "inputs": [
        {
          "indexed": true,
          "internalType": "address",
          "name": "previousOwner",
          "type": "address"
        },
        {
          "indexed": true,
          "internalType": "address",
          "name": "newOwner",
          "type": "address"
        }
      ],
      "name": "OwnershipTransferred",
      "type": "event"
    },
    {
      "anonymous": false,
      "inputs": [
        {
          "indexed": true,
          "internalType": "address",
          "name": "implementation",
          "type": "address"
        }
      ],
      "name": "Upgraded",
      "type": "event"
    },
    {
      "inputs": [],
      "name": "UPGRADE_INTERFACE_VERSION",
      "outputs": [
        {
          "internalType": "string",
          "name": "",
          "type": "string"
        }
      ],
      "stateMutability": "view",
      "type": "function"
    },
    {
      "inputs": [
        {
          "internalType": "contract Deal",
          "name": "deal",
          "type": "address"
        }
      ],
      "name": "addDeal",
      "outputs": [],
      "stateMutability": "nonpayable",
      "type": "function"
    },
    {
      "inputs": [
        {
          "components": [
            {
              "internalType": "string",
              "name": "symbol",
              "type": "string"
            },
            {
              "internalType": "contract IChainlink",
              "name": "toUSD",
              "type": "address"
            }
          ],
          "internalType": "struct Fiats.Fiat[]",
          "name": "fiats_",
          "type": "tuple[]"
        }
      ],
      "name": "addFiats",
      "outputs": [],
      "stateMutability": "nonpayable",
      "type": "function"
    },
    {
      "inputs": [
        {
          "components": [
            {
              "internalType": "string",
              "name": "name",
              "type": "string"
            },
            {
              "internalType": "enum Methods.Group",
              "name": "group",
              "type": "uint8"
            }
          ],
          "internalType": "struct Methods.Method[]",
          "name": "new_",
          "type": "tuple[]"
        }
      ],
      "name": "addMethods",
      "outputs": [],
      "stateMutability": "nonpayable",
      "type": "function"
    },
    {
      "inputs": [
        {
          "internalType": "contract Offer",
          "name": "offer",
          "type": "address"
        }
      ],
      "name": "addOffer",
      "outputs": [],
      "stateMutability": "nonpayable",
      "type": "function"
    },
    {
      "inputs": [
        {
          "internalType": "address[]",
          "name": "tokens_",
          "type": "address[]"
        },
        {
          "internalType": "uint16",
          "name": "uniswapPoolFee",
          "type": "uint16"
        }
      ],
      "name": "addTokens",
      "outputs": [],
      "stateMutability": "nonpayable",
      "type": "function"
    },
    {
      "inputs": [
        {
          "internalType": "uint256",
          "name": "amount_",
          "type": "uint256"
        },
        {
          "internalType": "string",
          "name": "fromFiat_",
          "type": "string"
        },
        {
          "internalType": "string",
          "name": "toToken_",
          "type": "string"
        },
        {
          "internalType": "uint256",
          "name": "denominator",
          "type": "uint256"
        }
      ],
      "name": "convert",
      "outputs": [
        {
          "internalType": "uint256",
          "name": "amount",
          "type": "uint256"
        }
      ],
      "stateMutability": "view",
      "type": "function"
    },
    {
      "inputs": [],
      "name": "dealFactory",
      "outputs": [
        {
          "internalType": "contract DealFactory",
          "name": "",
          "type": "address"
        }
      ],
      "stateMutability": "view",
      "type": "function"
    },
    {
      "inputs": [
        {
          "internalType": "string",
          "name": "symbol_",
          "type": "string"
        }
      ],
      "name": "fiat",
      "outputs": [
        {
          "components": [
            {
              "internalType": "string",
              "name": "symbol",
              "type": "string"
            },
            {
              "internalType": "contract IChainlink",
              "name": "toUSD",
              "type": "address"
            }
          ],
          "internalType": "struct Fiats.Fiat",
          "name": "",
          "type": "tuple"
        }
      ],
      "stateMutability": "view",
      "type": "function"
    },
    {
      "inputs": [],
      "name": "fundDeal",
      "outputs": [],
      "stateMutability": "nonpayable",
      "type": "function"
    },
    {
      "inputs": [],
      "name": "getFiats",
      "outputs": [
        {
          "internalType": "bytes32[]",
          "name": "",
          "type": "bytes32[]"
        }
      ],
      "stateMutability": "view",
      "type": "function"
    },
    {
      "inputs": [],
      "name": "getMethods",
      "outputs": [
        {
          "components": [
            {
              "internalType": "string",
              "name": "name",
              "type": "string"
            },
            {
              "internalType": "enum Methods.Group",
              "name": "group",
              "type": "uint8"
            }
          ],
          "internalType": "struct Methods.Method[]",
          "name": "",
          "type": "tuple[]"
        }
      ],
      "stateMutability": "view",
      "type": "function"
    },
    {
      "inputs": [
        {
          "internalType": "bool",
          "name": "isSell_",
          "type": "bool"
        },
        {
          "internalType": "string",
          "name": "token_",
          "type": "string"
        },
        {
          "internalType": "string",
          "name": "fiat_",
          "type": "string"
        },
        {
          "internalType": "string",
          "name": "method_",
          "type": "string"
        }
      ],
      "name": "getOffers",
      "outputs": [
        {
          "internalType": "address[]",
          "name": "",
          "type": "address[]"
        }
      ],
      "stateMutability": "view",
      "type": "function"
    },
    {
      "inputs": [
        {
          "internalType": "string",
          "name": "token_",
          "type": "string"
        },
        {
          "internalType": "string",
          "name": "fiat_",
          "type": "string"
        }
      ],
      "name": "getPrice",
      "outputs": [
        {
          "internalType": "uint256",
          "name": "price",
          "type": "uint256"
        }
      ],
      "stateMutability": "view",
      "type": "function"
    },
    {
      "inputs": [],
      "name": "getTokens",
      "outputs": [
        {
          "components": [
            {
              "internalType": "contract IERC20Metadata",
              "name": "api",
              "type": "address"
            },
            {
              "internalType": "string",
              "name": "symbol",
              "type": "string"
            },
            {
              "internalType": "string",
              "name": "name",
              "type": "string"
            },
            {
              "internalType": "uint8",
              "name": "decimals",
              "type": "uint8"
            },
            {
              "internalType": "uint16",
              "name": "uniswapPoolFee",
              "type": "uint16"
            }
          ],
          "internalType": "struct Tokens.Token[]",
          "name": "",
          "type": "tuple[]"
        }
      ],
      "stateMutability": "view",
      "type": "function"
    },
    {
      "inputs": [
        {
          "internalType": "address",
          "name": "offer_",
          "type": "address"
        }
      ],
      "name": "hasOffer",
      "outputs": [
        {
          "internalType": "bool",
          "name": "",
          "type": "bool"
        }
      ],
      "stateMutability": "view",
      "type": "function"
    },
    {
      "inputs": [
        {
          "internalType": "address",
          "name": "offerFactory_",
          "type": "address"
        },
        {
          "internalType": "address",
          "name": "dealFactory_",
          "type": "address"
        },
        {
          "internalType": "address",
          "name": "repToken_",
          "type": "address"
        },
        {
          "internalType": "address",
          "name": "uniswap_",
          "type": "address"
        }
      ],
      "name": "initialize",
      "outputs": [],
      "stateMutability": "nonpayable",
      "type": "function"
    },
    {
      "inputs": [],
      "name": "mediator",
      "outputs": [
        {
          "internalType": "address",
          "name": "",
          "type": "address"
        }
      ],
      "stateMutability": "view",
      "type": "function"
    },
    {
      "inputs": [
        {
          "internalType": "string",
          "name": "symbol_",
          "type": "string"
        }
      ],
      "name": "method",
      "outputs": [
        {
          "components": [
            {
              "internalType": "string",
              "name": "name",
              "type": "string"
            },
            {
              "internalType": "enum Methods.Group",
              "name": "group",
              "type": "uint8"
            }
          ],
          "internalType": "struct Methods.Method",
          "name": "",
          "type": "tuple"
        }
      ],
      "stateMutability": "view",
      "type": "function"
    },
    {
      "inputs": [],
      "name": "offerFactory",
      "outputs": [
        {
          "internalType": "contract OfferFactory",
          "name": "",
          "type": "address"
        }
      ],
      "stateMutability": "view",
      "type": "function"
    },
    {
      "inputs": [],
      "name": "owner",
      "outputs": [
        {
          "internalType": "address",
          "name": "",
          "type": "address"
        }
      ],
      "stateMutability": "view",
      "type": "function"
    },
    {
      "inputs": [],
      "name": "proxiableUUID",
      "outputs": [
        {
          "internalType": "bytes32",
          "name": "",
          "type": "bytes32"
        }
      ],
      "stateMutability": "view",
      "type": "function"
    },
    {
      "inputs": [
        {
          "internalType": "string[]",
          "name": "fiat_",
          "type": "string[]"
        }
      ],
      "name": "removeFiats",
      "outputs": [],
      "stateMutability": "nonpayable",
      "type": "function"
    },
    {
      "inputs": [
        {
          "internalType": "string[]",
          "name": "names_",
          "type": "string[]"
        }
      ],
      "name": "removeMethods",
      "outputs": [],
      "stateMutability": "nonpayable",
      "type": "function"
    },
    {
      "inputs": [
        {
          "internalType": "string[]",
          "name": "token_",
          "type": "string[]"
        }
      ],
      "name": "removeTokens",
      "outputs": [],
      "stateMutability": "nonpayable",
      "type": "function"
    },
    {
      "inputs": [],
      "name": "renounceOwnership",
      "outputs": [],
      "stateMutability": "nonpayable",
      "type": "function"
    },
    {
      "inputs": [],
      "name": "repToken",
      "outputs": [
        {
          "internalType": "contract RepToken",
          "name": "",
          "type": "address"
        }
      ],
      "stateMutability": "view",
      "type": "function"
    },
    {
      "inputs": [
        {
          "internalType": "address",
          "name": "dealFactory_",
          "type": "address"
        }
      ],
      "name": "setDealFactory",
      "outputs": [],
      "stateMutability": "nonpayable",
      "type": "function"
    },
    {
      "inputs": [
        {
          "internalType": "address",
          "name": "mediator_",
          "type": "address"
        }
      ],
      "name": "setMediator",
      "outputs": [],
      "stateMutability": "nonpayable",
      "type": "function"
    },
    {
      "inputs": [
        {
          "internalType": "address",
          "name": "offerFactory_",
          "type": "address"
        }
      ],
      "name": "setOfferFactory",
      "outputs": [],
      "stateMutability": "nonpayable",
      "type": "function"
    },
    {
      "inputs": [
        {
          "internalType": "string",
          "name": "symbol_",
          "type": "string"
        }
      ],
      "name": "token",
      "outputs": [
        {
          "components": [
            {
              "internalType": "contract IERC20Metadata",
              "name": "api",
              "type": "address"
            },
            {
              "internalType": "string",
              "name": "symbol",
              "type": "string"
            },
            {
              "internalType": "string",
              "name": "name",
              "type": "string"
            },
            {
              "internalType": "uint8",
              "name": "decimals",
              "type": "uint8"
            },
            {
              "internalType": "uint16",
              "name": "uniswapPoolFee",
              "type": "uint16"
            }
          ],
          "internalType": "struct Tokens.Token",
          "name": "",
          "type": "tuple"
        }
      ],
      "stateMutability": "view",
      "type": "function"
    },
    {
      "inputs": [
        {
          "internalType": "address",
          "name": "newOwner",
          "type": "address"
        }
      ],
      "name": "transferOwnership",
      "outputs": [],
      "stateMutability": "nonpayable",
      "type": "function"
    },
    {
      "inputs": [
        {
          "internalType": "address",
          "name": "newImplementation",
          "type": "address"
        },
        {
          "internalType": "bytes",
          "name": "data",
          "type": "bytes"
        }
      ],
      "name": "upgradeToAndCall",
      "outputs": [],
      "stateMutability": "payable",
      "type": "function"
    }
  ],
  "bytecode": "0x60a0806040523460295730608052613a49908161002f82396080518181816117b9015261185e0152f35b600080fdfe6080604052600436101561001257600080fd5b6000803560e01c806313c44c611461222f5780631e7f300f146121ef57806323596d1f1461204757806329034a5c1461201e5780632c3d6c7e14611e465780633364da6e14611d585780633d0f34da14611cfb57806341c2440a14611c9057806349e3ec5e14611c505780634bc5722814611a325780634f1ef2861461180e57806352d1902d146117a65780636aeb4594146116225780636d0501f6146115f9578063715018a61461158f5780638da5cb5b1461155957806392fd22b914611530578063946ad0e8146114e057806399b72fd8146114a55780639b610c2114611465578063a553269b14611109578063aa6ca80814610f91578063ad3cb1cc14610f44578063c300db4714610eaf578063c5034dd014610e19578063c5f2b41414610a9b578063d248dcba146106b6578063dc2ac0ce14610600578063ec4e89561461055f578063ecd7cf7814610536578063f2fde38b14610509578063f8c8765e146103085763fecc7aa41461018857600080fd5b34610305576080366003190112610305576004358015158103610301576024356001600160401b0381116102fd576101c49036906004016124b9565b91906044356001600160401b0381116102f9576101e59036906004016124b9565b90936064356001600160401b0381116102f5576102069036906004016124b9565b9390946000146102cb579161023b95916020610235948260405193849283378101600b815203019020916134bc565b916134bc565b604051908160208254918281520190819285526020852090855b8181106102b5575050508261026b910383612348565b604051928392602084019060208552518091526040840192915b818110610293575050500390f35b82516001600160a01b0316845285945060209384019390920191600101610285565b8254845260209093019260019283019201610255565b916102f095916020610235948260405193849283378101600c815203019020916134bc565b61023b565b8680fd5b8480fd5b8280fd5b5080fd5b80fd5b5034610305576080366003190112610305576103226122e6565b6024356001600160a01b038116908190036102fd576044356001600160a01b03811690819003610505576064356001600160a01b03811692908390036102f9576000805160206139f4833981519152549360ff8560401c1615946001600160401b038116801590816104fd575b60011490816104f3575b1590816104ea575b506104db5767ffffffffffffffff1981166001176000805160206139f483398151915255856104ae575b506103d46134d5565b6103dc6134d5565b6103e533613037565b336001600160601b0360a01b601454161760145560018060a01b03166001600160601b0360a01b60115416176011556001600160601b0360a01b60105416176010556001600160601b0360a01b60125416176012556001600160601b0360a01b60135416176013556104545780f35b68ff0000000000000000196000805160206139f483398151915254166000805160206139f4833981519152557fc7f505b2f371ae2175ee4913f4499e1f2633a7b5936321eed1cdaeb6115181d2602060405160018152a180f35b68ffffffffffffffffff191668010000000000000001176000805160206139f483398151915255386103cb565b63f92ee8a960e01b8752600487fd5b905015386103a1565b303b159150610399565b87915061038f565b8380fd5b5034610305576020366003190112610305576105336105266122e6565b61052e6130ad565b613037565b80f35b50346103055780600319360112610305576011546040516001600160a01b039091168152602090f35b503461030557602036600319011261030557600435906001600160401b038211610305576105ec6105a461059636600486016123bb565b61059e612592565b5061327a565b604051906105b1826122fc565b6105ba81612e93565b8252600101546001600160a01b03166020808301918252604080518281529351918401529192839260608401906123fc565b90516001600160a01b031660408301520390f35b503461030557806003193601126103055760405180602060035491828152018091600385527fc2575a0e9e593c00f959f8c92f12db2869c3395a3b0502d05e2516446f71f85b90855b8181106106a0575050508261065f910383612348565b604051928392602084019060208552518091526040840192915b818110610687575050500390f35b8251845285945060209384019390920191600101610679565b8254845260209093019260019283019201610649565b5034610305576040366003190112610305576004356001600160401b038111610301576106e79036906004016122b1565b906024359061ffff8216809203610505576107006130ad565b835b8360ff82161015610a9757611fe0600582901b168201356001600160a01b03811690819003610a93576040516395d89b4160e01b8152908682600481845afa918215610a88578792610a6c575b50610759826130e3565b90610763826138ad565b506040516306fdde0360e01b81528881600481855afa908115610a61578991610a3f575b5060405163313ce56760e01b815293602085600481865afa948515610a34578a956109f3575b50604051926107bb8461232d565b83526020808401918252604080850193845260ff9690961660608501908152608085018a8152958c526002909152948a20925183546001600160a01b0319166001600160a01b03919091161783555180516001840191906001600160401b0381116109df576108348161082e8554612e59565b8561316c565b60208c601f831160011461097c579061086293836108ee575b50508160011b916000199060031b1c19161790565b90555b51805160028301916001600160401b038211610968576108898261082e8554612e59565b6020908b601f84116001146108f957836003946108e99a9998979460ff97946108c694926108ee5750508160011b916000199060031b1c19161790565b90555b0192511662ffff008354925160081b169162ffffff19161717905561256b565b610702565b01519050388061084d565b50838c52818c209190601f1984168d5b8181106109505750936108e9999897969360ff96936001938360039810610938575b505050811b0190556108c9565b015160001983881b60f8161c1916905538808061092b565b92936020600181928786015181550195019301610909565b634e487b7160e01b8b52604160045260248bfd5b9192601f198416858452828420935b8181106109c757509084600195949392106109ae575b505050811b019055610865565b015160001960f88460031b161c191690553880806109a1565b9293602060018192878601518155019501930161098b565b634e487b7160e01b8c52604160045260248cfd5b9094506020813d8211610a2c575b81610a0e60209383612348565b81010312610a28575160ff81168103610a285793386107ad565b8980fd5b3d9150610a01565b6040513d8c823e3d90fd5b610a5b91503d808b833e610a538183612348565b810190612fa1565b38610787565b6040513d8b823e3d90fd5b610a819192503d8089833e610a538183612348565b903861074f565b6040513d89823e3d90fd5b8580fd5b8480f35b5034610305578060031936011261030557338152600e602052610ac5604082205415153390612de4565b60405163c19d93fb60e01b8152602081600481335afa908115610c94578291610dde575b506008811015610dca57600103610d96576040516360146f8360e11b8152602081600481335afa908115610c94578291610d77575b50604051637e062a3560e11b81526001600160a01b0391909116908281600481855afa908115610cce578391610d5d575b506001600160a01b0390610b6290612f37565b51169060405163062b864360e11b8152602081600481855afa908115610d52578491610d23575b5015610cd957602060049160405192838092638da5cb5b60e01b82525afa908115610cce578391610c9f575b505b60405163eec7faa160e01b8152908390602083600481335afa8015610c94578290610c61575b6020935060405190848201926323b872dd60e01b845260018060a01b03166024830152336044830152606482015260648152610c1a608482612348565b519082855af115610c545781513d610c4b5750803b155b610c39575080f35b635274afe760e01b8252600452602490fd5b60011415610c31565b50604051903d90823e3d90fd5b506020833d602011610c8c575b81610c7b60209383612348565b810103126103015760209251610bdd565b3d9150610c6e565b6040513d84823e3d90fd5b610cc1915060203d602011610cc7575b610cb98183612348565b810190612e0d565b38610bb5565b503d610caf565b6040513d85823e3d90fd5b50604051633c159b0160e11b8152602081600481335afa908115610cce578391610d04575b50610bb7565b610d1d915060203d602011610cc757610cb98183612348565b38610cfe565b610d45915060203d602011610d4b575b610d3d8183612348565b81019061301f565b38610b89565b503d610d33565b6040513d86823e3d90fd5b610d7191503d8085833e610a538183612348565b38610b4f565b610d90915060203d602011610cc757610cb98183612348565b38610b1e565b60405162461bcd60e51b815260206004820152600c60248201526b1b9bdd081858d8d95c1d195960a21b6044820152606490fd5b634e487b7160e01b82526021600452602482fd5b90506020813d602011610e11575b81610df960209383612348565b81010312610301575160088110156103015738610ae9565b3d9150610dec565b5034610305576020366003190112610305576004356001600160401b03811161030157610e4a9036906004016122b1565b90610e536130ad565b825b60ff81169083821015610a9757610e82610e7d610e76610eaa948787612518565b3691612384565b6130e3565b610e8b8161369f565b508552600560205284600160408220610ea38161311d565b015561256b565b610e55565b5034610305576020366003190112610305576004356001600160401b03811161030157610ee09036906004016122b1565b90610ee96130ad565b825b60ff81169083821015610a9757610f0c610e7d610e76610f3f948787612518565b610f15816135eb565b508552600260205284600360408220828155610f336001820161311d565b610ea36002820161311d565b610eeb565b503461030557806003193601126103055750610f8d604051610f67604082612348565b60058152640352e302e360dc1b60208201526040519182916020835260208301906123fc565b0390f35b50346103055780600319360112610305578054610fad81613232565b90610fbb6040519283612348565b808252610fca601f1991613232565b01825b8181106110f2575050815490825b815181101561108b578281101561107757600190848052806020862001548560031b1c855260026020526040852061ffff60036040519261101b8461232d565b858060a01b038154168452611031868201612e93565b602085015261104260028201612e93565b6040850152015460ff8116606084015260081c1660808201526110658285613266565b526110708184613266565b5001610fdb565b634e487b7160e01b84526032600452602484fd5b81846040519182916020830160208452825180915260408401602060408360051b870101940192905b8282106110c357505050500390f35b919360019193955060206110e28192603f198a82030186528851612461565b96019201920185949391926110b4565b6020906110fd612e2c565b82828601015201610fcd565b5034610305576020366003190112610305576004356001600160a01b03811690819003610301576011546111499033906001600160a01b03168114612de4565b61115281613858565b1561143757604051637e062a3560e11b81528281600481855afa908115610cce57839161141d575b5060405163052876e560e51b8152908382600481865afa918215610d52578492611401575b50604051632c383a9f60e01b8152918483600481875afa9283156113465785936113e5575b5060405163062b864360e11b815291602083600481885afa80156113da57859387916113bb575b501561138e579261123661123c92611236866112308760236112186112126112419c613470565b87613496565b6040519062414e5960e81b8252600382015220613902565b50613470565b90613496565b613902565b505b604051638da5cb5b60e01b815290602082600481845afa918215610cce57839261136d575b50604051637e062a3560e11b8152908382600481845afa918215610d52578492611351575b5060405163052876e560e51b8152918483600481855afa9283156113465785936112fd575b5060206112e86112e27f82ae0d3670d19cfeac878346ea2a629534d5670adada464dbf5427fdcd4f94d993612fff565b94612fff565b604051938452946001600160a01b031692a480f35b7f82ae0d3670d19cfeac878346ea2a629534d5670adada464dbf5427fdcd4f94d99193506112e86112e261133c6020933d808b833e610a538183612348565b95935050506112b2565b6040513d87823e3d90fd5b6113669192503d8086833e610a538183612348565b903861128d565b61138791925060203d602011610cc757610cb98183612348565b9038611268565b9261123661123c92611236866113af8760236112186112126113b59c61344a565b5061344a565b50611243565b6113d4915060203d602011610d4b57610d3d8183612348565b386111eb565b6040513d88823e3d90fd5b6113fa9193503d8087833e610a538183612348565b91386111c4565b6114169192503d8086833e610a538183612348565b903861119f565b61143191503d8085833e610a538183612348565b3861117a565b60405162461bcd60e51b815260206004820152600660248201526565786973747360d01b6044820152606490fd5b50346103055760203660031901126103055761147f6122e6565b6114876130ad565b60018060a01b03166001600160601b0360a01b601154161760115580f35b5034610305576020366003190112610305576020906040906001600160a01b036114cd6122e6565b168152600a835220541515604051908152f35b503461030557602036600319011261030557600435906001600160401b03821161030557610f8d61151c61151736600486016123bb565b612f37565b604051918291602083526020830190612461565b50346103055780600319360112610305576010546040516001600160a01b039091168152602090f35b50346103055780600319360112610305576000805160206139b4833981519152546040516001600160a01b039091168152602090f35b50346103055780600319360112610305576115a86130ad565b6000805160206139b483398151915280546001600160a01b0319811690915581906001600160a01b03167f8be0079c531659141344cd1fd0a4f28419497f9722a3daafe3b4186f6b6457e08280a380f35b50346103055780600319360112610305576014546040516001600160a01b039091168152602090f35b503461030557806003193601126103055760065461163f81613232565b9061164d6040519283612348565b808252601f1961165c82613232565b01835b81811061178f575050600654835b8281106116db5783856040519182916020830160208452825180915260408401602060408360051b870101940192905b8282106116ac57505050500390f35b919360019193955060206116cb8192603f198a82030186528851612421565b960192019201859493919261169d565b8181101561177b577ff652222313e28459528d920b65115c16c04f3efc82aaedc97be59f3f377c0d3f810154600386901b1c85526008602052604080862090519060ff9060019061172b846122fc565b61173481612e93565b84520154166004811015611767576020820152600191906117558287613266565b526117608186613266565b500161166d565b634e487b7160e01b87526021600452602487fd5b634e487b7160e01b85526032600452602485fd5b60209061179a612592565b8282870101520161165f565b50346103055780600319360112610305577f00000000000000000000000000000000000000000000000000000000000000006001600160a01b031630036117ff5760206040516000805160206139d48339815191528152f35b63703e46dd60e11b8152600490fd5b506040366003190112610305576118236122e6565b906024356001600160401b038111610301573660238201121561030157611854903690602481600401359101612384565b6001600160a01b037f000000000000000000000000000000000000000000000000000000000000000016308114908115611a0f575b50611a00576118966130ad565b6040516352d1902d60e01b8152926001600160a01b0381169190602085600481865afa809585966119cc575b506118db57634c9c8ce360e01b84526004839052602484fd5b9091846000805160206139d483398151915281036119ba5750813b156119a8576000805160206139d483398151915280546001600160a01b031916821790557fbc7cd75a20ee27fd9adebab32041f755214dbc6bffa90cc0225b39da2e5c2d3b8480a2815183901561198e578083602061198295519101845af43d15611986573d9161196683612369565b926119746040519485612348565b83523d85602085013e613952565b5080f35b606091613952565b505050346119995780f35b63b398979f60e01b8152600490fd5b634c9c8ce360e01b8452600452602483fd5b632a87526960e21b8552600452602484fd5b9095506020813d6020116119f8575b816119e860209383612348565b810103126102f9575194386118c2565b3d91506119db565b63703e46dd60e11b8252600482fd5b6000805160206139d4833981519152546001600160a01b03161415905038611889565b5034610305576020366003190112610305576004356001600160a01b038116919082900361030557601054611a739033906001600160a01b03168114612de4565b6040516360146f8360e11b8152602081600481865afa908115610c94578291611c31575b506001600160a01b031691611aab81613803565b50828252600f6020526040822092835493600160401b851015611c1d5784611ad99160018697018155613432565b81546001600160a01b0360039290921b91821b19169084901b179055604051638da5cb5b60e01b8152602081600481855afa908115610d52578491611bfe575b50604051633c159b0160e11b8152602081600481875afa908115611346578591611bdf575b506040518481526001600160a01b0391821692909116907f9e3ad268d37e8f67f13b2f7520dd416a4803c19e866fc335b606f6b401af6b4a90602090a46012546001600160a01b031690813b15611bdb578291604483926040519586938492632f2ff15d60e01b8452684445414c5f524f4c4560b81b600485015260248401525af18015610c5457611bcd5780f35b611bd691612348565b388180f35b5050fd5b611bf8915060203d602011610cc757610cb98183612348565b38611b3e565b611c17915060203d602011610cc757610cb98183612348565b38611b19565b634e487b7160e01b84526041600452602484fd5b611c4a915060203d602011610cc757610cb98183612348565b38611a97565b503461030557602036600319011261030557611c6a6122e6565b611c726130ad565b60018060a01b03166001600160601b0360a01b601454161760145580f35b5034610305576080366003190112610305576024356001600160401b03811161030157611cc19036906004016123bb565b90604435906001600160401b038211610305576020611cf384611ce736600487016123bb565b60643591600435612d6b565b604051908152f35b5034610305576040366003190112610305576004356001600160401b03811161030157611d2c9036906004016123bb565b90602435906001600160401b038211610305576020611cf384611d5236600487016123bb565b90612606565b5034610305576020366003190112610305576004356001600160401b03811161030157611d899036906004016123bb565b611d91612592565b50611d9a612592565b50611da4816130e3565b908183526007602052604083205415611e1d5750815260086020526040812060ff600160405192611dd4846122fc565b611ddd81612e93565b84520154166004811015611e0957610f8d92506020820152604051918291602083526020830190612421565b634e487b7160e01b83526021600452602483fd5b6040516321f7174960e11b815260206004820152908190611e429060248301906123fc565b0390fd5b5034610305576020366003190112610305576004356001600160401b03811161030157611e779036906004016122b1565b611e829291926130ad565b81925b60ff84168281101561201a57611e9c908383612549565b9360408536031261050557604051611eb3816122fc565b85356001600160401b038111610a9357611ed2602091369089016123bb565b808352960135956001600160a01b0387168703610a9357611ef990602083019788526130e3565b611f02816137ae565b50855260056020526040852090519586516001600160401b03811161200657611f2f8161082e8554612e59565b6020601f8211600114611f9c578160019392611f67928a9b611f94999a9b926108ee5750508160011b916000199060031b1c19161790565b83555b818060a01b0390511691019060018060a01b03166001600160601b0360a01b82541617905561256b565b929190611e85565b83885280882090601f198316895b818110611fee5750918391611f9498999a9b60019695879510611fd5575b505050811b018355611f6a565b015160001960f88460031b161c19169055388080611fc8565b9192602060018192868f015181550194019201611faa565b634e487b7160e01b87526041600452602487fd5b8380f35b50346103055780600319360112610305576012546040516001600160a01b039091168152602090f35b5034610305576020366003190112610305576004356001600160401b038111610301576120789036906004016122b1565b6120806130ad565b825b81811061208d578380f35b612098818385612549565b906120a382806124e6565b903590602081106121dd575b506120b981613753565b6120c9575b506001915001612082565b85526008602052604085206120de83806124e6565b906001600160401b0382116121c9576120fb8261082e8554612e59565b8790601f831160011461216057826001936020959361212f938c926121555750508160011b916000199060031b1c19161790565b81555b01920135916004831015610a935760019260ff80198354169116179055386120be565b01359050388061084d565b8389526020892091601f1984168a5b8181106121b157509260019491928593836020989610612197575b505050811b018155612132565b0135600019600384901b60f8161c1916905538808061218a565b9193602060018192878701358155019501920161216f565b634e487b7160e01b88526041600452602488fd5b6000199060200360031b1b16386120af565b5034610305576020366003190112610305576122096122e6565b6122116130ad565b60018060a01b03166001600160601b0360a01b601054161760105580f35b5034610305576020366003190112610305576004356001600160401b038111610301576122609036906004016122b1565b6122686130ad565b825b818110612275578380f35b80612289610e7d610e766001948688612518565b61229281613503565b50855260086020528482604082206122a98161311d565b01550161226a565b9181601f840112156122e1578235916001600160401b0383116122e1576020808501948460051b0101116122e157565b600080fd5b600435906001600160a01b03821682036122e157565b604081019081106001600160401b0382111761231757604052565b634e487b7160e01b600052604160045260246000fd5b60a081019081106001600160401b0382111761231757604052565b90601f801991011681019081106001600160401b0382111761231757604052565b6001600160401b03811161231757601f01601f191660200190565b92919261239082612369565b9161239e6040519384612348565b8294818452818301116122e1578281602093846000960137010152565b9080601f830112156122e1578160206123d693359101612384565b90565b60005b8381106123ec5750506000910152565b81810151838201526020016123dc565b90602091612415815180928185528580860191016123d9565b601f01601f1916010190565b90602061243783516040845260408401906123fc565b92015190600482101561244b576020015290565b634e487b7160e01b600052602160045260246000fd5b9060018060a01b038251168152608061ffff816124a2612490602087015160a0602088015260a08701906123fc565b604087015186820360408801526123fc565b9460ff606082015116606086015201511691015290565b9181601f840112156122e1578235916001600160401b0383116122e157602083818601950101116122e157565b903590601e19813603018212156122e157018035906001600160401b0382116122e1576020019181360383136122e157565b908210156125335761252f9160051b8101906124e6565b9091565b634e487b7160e01b600052603260045260246000fd5b91908110156125335760051b81013590603e19813603018212156122e1570190565b60ff1660ff811461257c5760010190565b634e487b7160e01b600052601160045260246000fd5b6040519061259f826122fc565b6000602083606081520152565b604051906125bb604083612348565b60048252631554d11560e21b6020830152565b604051906125dd604083612348565b60038252621554d160ea1b6020830152565b519069ffffffffffffffffffff821682036122e157565b91909161261a6126146125ac565b826131b1565b612d6057612627906131de565b60135481546001600160a01b0390811692918116916020916064906003906126556126506125ac565b6131de565b5416920154946040519485938492630b4c774160e11b84526004840152602483015261ffff8760081c1660448301525afa90811561299757600091612d41575b50604051906126a5606083612348565b600282526020820191604036843761012c6126bf82613249565b5260006126cb82613256565b5260405163883bdbfd60e01b8152602060048201529051602482018190529092839160448301919060005b818110612d22575060009492849003928492506001600160a01b031690505afa90811561299757600091612c0a575b5061273c61273282613256565b5160060b91613249565b5160060b9003667fffffffffffff198112667fffffffffffff82131761257c5761012c9060060b0560020b60008112600014612c045780600003905b620d89e88211612bdb576001821615612bc9576001600160881b036ffffcb933bd6fad37aa2d162d1a5940015b169160028116612bad575b60048116612b91575b60088116612b75575b60108116612b59575b60208116612b3d575b60408116612b21575b60808116612b05575b6101008116612ae9575b6102008116612acd575b6104008116612ab1575b6108008116612a95575b6110008116612a79575b6120008116612a5d575b6140008116612a41575b6180008116612a25575b620100008116612a09575b6202000081166129ee575b6204000081166129d3575b62080000166129ba575b6000126129ab575b63ffffffff81166129a3576000905b60201c60ff91909116016001600160a01b031680800291908015818404909114171561257c5760ff1690604d821161257c576128b791600a0a906132ce565b915b6128c46126146125ce565b156128cc5750565b909160049160a0906001600160a01b03906001906128e99061327a565b01541660405193848092633fabe5a360e21b82525afa91821561299757600092612948575b506305f5e1008102908082046305f5e100149015171561257c578115612932570490565b634e487b7160e01b600052601260045260246000fd5b90915060a0813d60a01161298f575b8161296460a09383612348565b810103126122e157612975816125ef565b506129876080602083015192016125ef565b50903861290e565b3d9150612957565b6040513d6000823e3d90fd5b600190612878565b80156129325760001904612869565b6b048a170391f7dc42444e8fa290910260801c90612861565b6d2216e584f5fa1ea926041bedfe9890920260801c91612857565b916e5d6af8dedb81196699c329225ee6040260801c9161284c565b916f09aa508b5b7a84e1c677de54f3e99bc90260801c91612841565b916f31be135f97d08fd981231505542fcfa60260801c91612836565b916f70d869a156d2a1b890bb3df62baf32f70260801c9161282c565b916fa9f746462d870fdf8a65dc1f90e061e50260801c91612822565b916fd097f3bdfd2022b8845ad8f792aa58250260801c91612818565b916fe7159475a2c29b7443b29c7fa6e889d90260801c9161280e565b916ff3392b0822b70005940c7a398e4b70f30260801c91612804565b916ff987a7253ac413176f2b074cf7815e540260801c916127fa565b916ffcbe86c7900a88aedcffc83b479aa3a40260801c916127f0565b916ffe5dee046a99a2a811c461f1969c30530260801c916127e6565b916fff2ea16466c96a3843ec78b326b9753a0260801c916127dd565b916fff973b41fa98c081472e6896dfb254c00260801c916127d4565b916fffcb9843d60f6159c9db58835c9266440260801c916127cb565b916fffe5caca7e10e4e61c3624eaa0941cd00260801c916127c2565b916ffff2e50f5f656932ef12357cf3c7fdcc0260801c916127b9565b916ffff97272373d413259a46990580e213a0260801c916127b0565b6001600160881b03600160801b6127a5565b60405162461bcd60e51b81526020600482015260016024820152601560fa1b6044820152606490fd5b80612778565b903d8082843e612c1a8184612348565b82016040838203126103015782516001600160401b0381116102fd5783019281601f850112156102fd578351612c4f81613232565b94612c5d6040519687612348565b81865260208087019260051b82010190848211610a9357602001915b818310612d08575050506020810151906001600160401b03821161050557019181601f8401121561030557825192602080612cb386613232565b612cc06040519182612348565b868152019460051b82010192831161030157602001925b828410612ce8575050505038612725565b83516001600160a01b03811681036102fd57815260209384019301612cd7565b82518060060b81036102f557815260209283019201612c79565b825163ffffffff168452869450602093840193909201916001016126f6565b612d5a915060203d602011610cc757610cb98183612348565b38612695565b50620f4240916128b9565b929192612d7f612d796125ce565b836131b1565b80612dcd575b612dc15760ff6003612d96866131de565b01541690604d821161257c57612db2612dbc936123d696612606565b91600a0a906133aa565b61331d565b90506123d6925061331d565b50612ddf612dd96125ac565b856131b1565b612d85565b15612dec5750565b6332b2baa360e01b60009081526001600160a01b0391909116600452602490fd5b908160209103126122e157516001600160a01b03811681036122e15790565b60405190612e398261232d565b600060808382815260606020820152606060408201528260608201520152565b90600182811c92168015612e89575b6020831014612e7357565b634e487b7160e01b600052602260045260246000fd5b91607f1691612e68565b9060405191826000825492612ea784612e59565b8084529360018116908115612f155750600114612ece575b50612ecc92500383612348565b565b90506000929192526020600020906000915b818310612ef9575050906020612ecc9282010138612ebf565b6020919350806001915483858901015201910190918492612ee0565b905060209250612ecc94915060ff191682840152151560051b82010138612ebf565b612f4990612f43612e2c565b506131de565b61ffff600360405192612f5b8461232d565b80546001600160a01b03168452612f7460018201612e93565b6020850152612f8560028201612e93565b6040850152015460ff8116606084015260081c16608082015290565b6020818303126122e1578051906001600160401b0382116122e1570181601f820112156122e1578051612fd381612369565b92612fe16040519485612348565b818452602082840101116122e1576123d691602080850191016123d9565b613017906020604051928284809451938492016123d9565b810103902090565b908160209103126122e1575180151581036122e15790565b6001600160a01b03168015613097576000805160206139b483398151915280546001600160a01b0319811683179091556001600160a01b03167f8be0079c531659141344cd1fd0a4f28419497f9722a3daafe3b4186f6b6457e0600080a3565b631e4fbdf760e01b600052600060045260246000fd5b6000805160206139b4833981519152546001600160a01b031633036130ce57565b63118cdaa760e01b6000523360045260246000fd5b6020815191015190602081106130f7575090565b6000199060200360031b1b1690565b818110613111575050565b60008155600101613106565b6131278154612e59565b9081613131575050565b81601f60009311600114613143575055565b8183526020832061315f91601f0160051c810190600101613106565b8082528160208120915555565b9190601f811161317b57505050565b612ecc926000526020600020906020601f840160051c830193106131a7575b601f0160051c0190613106565b909150819061319a565b90815181519081811493846131c8575b5050505090565b60209293945082012092012014388080806131c1565b6131e7816130e3565b908160005260016020526040600020541561320d57506000526002602052604060002090565b6040516367e8093f60e11b815260206004820152908190611e429060248301906123fc565b6001600160401b0381116123175760051b60200190565b8051156125335760200190565b8051600110156125335760400190565b80518210156125335760209160051b010190565b613283816130e3565b90816000526004602052604060002054156132a957506000526005602052604060002090565b604051632f4e647b60e11b815260206004820152908190611e429060248301906123fc565b60009190600019828209918082029384808510940393808503941461331357600160c01b8410156103055750600160c01b910990828211900360401b910360c01c1790565b5050505060c01c90565b60001961271082099161271082029182808510940393808503941461339d57838211156122e157612710829109818060000316809204600281600302188082026002030280820260020302808202600203028082026002030280820260020302809102600203029360018380600003040190848311900302920304170290565b50809250156122e1570490565b91600019828409928281029283808610950394808603951461342457848311156122e157829109818060000316809204600281600302188082026002030280820260020302808202600203028082026002030280820260020302809102600203029360018380600003040190848311900302920304170290565b5050809250156122e1570490565b80548210156125335760005260206000200190600090565b60206134639181604051938285809451938492016123d9565b8101600c81520301902090565b60206134899181604051938285809451938492016123d9565b8101600b81520301902090565b6020906134b09282604051948386809551938492016123d9565b82019081520301902090565b6020919283604051948593843782019081520301902090565b60ff6000805160206139f48339815191525460401c16156134f257565b631afcd79f60e31b60005260046000fd5b60008181526007602052604090205480156135e457600019810181811161257c5760065460001981019190821161257c57818103613593575b505050600654801561357d5760001901613557816006613432565b8154906000199060031b1b19169055600655600052600760205260006040812055600190565b634e487b7160e01b600052603160045260246000fd5b6135cc6135a46135b5936006613432565b90549060031b1c9283926006613432565b819391549060031b91821b91600019901b19161790565b9055600052600760205260406000205538808061353c565b5050600090565b60008181526001602052604090205480156135e457600019810181811161257c5760005460001981019190821161257c57818103613665575b505050600054801561357d576000190161363f816000613432565b8154906000199060031b1b19169055600055600052600160205260006040812055600190565b6136876136766135b5936000613432565b90549060031b1c9283926000613432565b90556000526001602052604060002055388080613624565b60008181526004602052604090205480156135e457600019810181811161257c5760035460001981019190821161257c57818103613719575b505050600354801561357d57600019016136f3816003613432565b8154906000199060031b1b19169055600355600052600460205260006040812055600190565b61373b61372a6135b5936003613432565b90549060031b1c9283926003613432565b905560005260046020526040600020553880806136d8565b806000526007602052604060002054156000146137a857600654600160401b8110156123175761378f6135b58260018594016006556006613432565b9055600654906000526007602052604060002055600190565b50600090565b806000526004602052604060002054156000146137a857600354600160401b811015612317576137ea6135b58260018594016003556003613432565b9055600354906000526004602052604060002055600190565b80600052600e602052604060002054156000146137a857600d54600160401b8110156123175761383f6135b5826001859401600d55600d613432565b9055600d5490600052600e602052604060002055600190565b80600052600a602052604060002054156000146137a857600954600160401b811015612317576138946135b58260018594016009556009613432565b905560095490600052600a602052604060002055600190565b806000526001602052604060002054156000146137a857600054600160401b811015612317576138e96135b58260018594016000556000613432565b9055600054906000526001602052604060002055600190565b60008281526001820160205260409020546135e457805490600160401b821015612317578261393b6135b5846001809601855584613432565b905580549260005201602052604060002055600190565b90613978575080511561396757602081519101fd5b63d6bda27560e01b60005260046000fd5b815115806139aa575b613989575090565b639996b31560e01b60009081526001600160a01b0391909116600452602490fd5b50803b1561398156fe9016d09d72d40fdae2fd8ceac6b6234c7706214fd39c1cd1e609a0528c199300360894a13ba1a3210667c828492db98dca3e2076cc3735a920a3ca505d382bbcf0c57e16840df040f15088dc2f81fe391c3923bec73e23a9662efc9c229c6a00a2646970667358221220426020ab58e4ad32844cf46d01608a2004fad5b45677485553d7114877ee1a3e64736f6c634300081a0033",
  "linkReferences": {},
  "deployedLinkReferences": {}
}