{
  "_format": "hh3-artifact-1",
  "contractName": "Offer",
  "sourceName": "evm/protocol/Offer.sol",
  "abi": [
    {
      "inputs": [
        {
          "internalType": "address",
          "name": "owner_",
          "type": "address"
        },
        {
          "internalType": "bool",
          "name": "isSell_",
          "type": "bool"
        },
        {
          "internalType": "string",
          "name": "token_",
          "type": "string"
        },
        {
          "internalType": "string",
          "name": "fiat_",
          "type": "string"
        },
        {
          "internalType": "string",
          "name": "method_",
          "type": "string"
        },
        {
          "internalType": "uint16",
          "name": "rate_",
          "type": "uint16"
        },
        {
          "components": [
            {
              "internalType": "uint32",
              "name": "min",
              "type": "uint32"
            },
            {
              "internalType": "uint32",
              "name": "max",
              "type": "uint32"
            }
          ],
          "internalType": "struct Offer.Limits",
          "name": "limits_",
          "type": "tuple"
        },
        {
          "internalType": "string",
          "name": "terms_",
          "type": "string"
        }
      ],
      "stateMutability": "nonpayable",
      "type": "constructor"
    },
    {
      "inputs": [
        {
          "internalType": "address",
          "name": "account",
          "type": "address"
        }
      ],
      "name": "UnauthorizedAccount",
      "type": "error"
    },
    {
      "anonymous": false,
      "inputs": [],
      "name": "OfferUpdated",
      "type": "event"
    },
    {
      "inputs": [],
      "name": "disabled",
      "outputs": [
        {
          "internalType": "bool",
          "name": "",
          "type": "bool"
        }
      ],
      "stateMutability": "view",
      "type": "function"
    },
    {
      "inputs": [],
      "name": "fiat",
      "outputs": [
        {
          "internalType": "string",
          "name": "",
          "type": "string"
        }
      ],
      "stateMutability": "view",
      "type": "function"
    },
    {
      "inputs": [],
      "name": "isSell",
      "outputs": [
        {
          "internalType": "bool",
          "name": "",
          "type": "bool"
        }
      ],
      "stateMutability": "view",
      "type": "function"
    },
    {
      "inputs": [],
      "name": "limits",
      "outputs": [
        {
          "internalType": "uint32",
          "name": "min",
          "type": "uint32"
        },
        {
          "internalType": "uint32",
          "name": "max",
          "type": "uint32"
        }
      ],
      "stateMutability": "view",
      "type": "function"
    },
    {
      "inputs": [],
      "name": "method",
      "outputs": [
        {
          "internalType": "string",
          "name": "",
          "type": "string"
        }
      ],
      "stateMutability": "view",
      "type": "function"
    },
    {
      "inputs": [],
      "name": "owner",
      "outputs": [
        {
          "internalType": "address",
          "name": "",
          "type": "address"
        }
      ],
      "stateMutability": "view",
      "type": "function"
    },
    {
      "inputs": [],
      "name": "rate",
      "outputs": [
        {
          "internalType": "uint16",
          "name": "",
          "type": "uint16"
        }
      ],
      "stateMutability": "view",
      "type": "function"
    },
    {
      "inputs": [
        {
          "internalType": "bool",
          "name": "disabled_",
          "type": "bool"
        }
      ],
      "name": "setDisabled",
      "outputs": [],
      "stateMutability": "nonpayable",
      "type": "function"
    },
    {
      "inputs": [
        {
          "components": [
            {
              "internalType": "uint32",
              "name": "min",
              "type": "uint32"
            },
            {
              "internalType": "uint32",
              "name": "max",
              "type": "uint32"
            }
          ],
          "internalType": "struct Offer.Limits",
          "name": "limits_",
          "type": "tuple"
        }
      ],
      "name": "setLimits",
      "outputs": [],
      "stateMutability": "nonpayable",
      "type": "function"
    },
    {
      "inputs": [
        {
          "internalType": "uint16",
          "name": "rate_",
          "type": "uint16"
        }
      ],
      "name": "setRate",
      "outputs": [],
      "stateMutability": "nonpayable",
      "type": "function"
    },
    {
      "inputs": [
        {
          "internalType": "string",
          "name": "terms_",
          "type": "string"
        }
      ],
      "name": "setTerms",
      "outputs": [],
      "stateMutability": "nonpayable",
      "type": "function"
    },
    {
      "inputs": [],
      "name": "terms",
      "outputs": [
        {
          "internalType": "string",
          "name": "",
          "type": "string"
        }
      ],
      "stateMutability": "view",
      "type": "function"
    },
    {
      "inputs": [],
      "name": "token",
      "outputs": [
        {
          "internalType": "string",
          "name": "",
          "type": "string"
        }
      ],
      "stateMutability": "view",
      "type": "function"
    }
  ],
  "bytecode": "0x6080604052346106d1576110fc80380380610019816106d5565b92833981018181039161012083126106d15780516001600160a01b03811693908490036106d15760208201518015158091036106d15760408301516001600160401b0381116106d1578461006e9185016106fa565b60608401516001600160401b0381116106d1578561008d9186016106fa565b60808501519091906001600160401b0381116106d157866100af9187016106fa565b9260a08601519461ffff86168096036106d15760409060bf1901126106d15760408051969087016001600160401b03811188821017610407576040526100f760c0820161074b565b875261010560e0820161074b565b602088019081526101008201519098906001600160401b0381116106d15761012d92016106fa565b5f80546001600160a81b03191690991760a09290921b60ff60a01b16919091179097558051906001600160401b0382116104075760015490600182811c921680156106c7575b60208310146103e95781601f849311610659575b50602090601f83116001146105f3575f926105e8575b50508160011b915f199060031b1c1916176001555b8051906001600160401b0382116104075760025490600182811c921680156105de575b60208310146103e95781601f849311610570575b50602090601f831160011461050a575f926104ff575b50508160011b915f199060031b1c1916176002555b8051906001600160401b03821161040757600354600181811c911680156104f5575b60208210146103e957601f8111610492575b50602090601f83116001146104265763ffffffff949392915f918361041b575b50508160011b915f199060031b1c1916176003555b61ffff196004541617600455511667ffffffff00000000600554925160201b169160018060401b0319161717600555805160018060401b03811161040757600654600181811c911680156103fd575b60208210146103e957601f8111610386575b50602091601f8211600114610326579181925f9261031b575b50508160011b915f199060031b1c1916176006555b60405161099f908161075d8239f35b015190505f806102f7565b601f1982169260065f52805f20915f5b85811061036e57508360019510610356575b505050811b0160065561030c565b01515f1960f88460031b161c191690555f8080610348565b91926020600181928685015181550194019201610336565b60065f527ff652222313e28459528d920b65115c16c04f3efc82aaedc97be59f3f377c0d3f601f830160051c810191602084106103df575b601f0160051c01905b8181106103d457506102de565b5f81556001016103c7565b90915081906103be565b634e487b7160e01b5f52602260045260245ffd5b90607f16906102cc565b634e487b7160e01b5f52604160045260245ffd5b015190505f80610268565b90601f1983169160035f52815f20925f5b81811061047a575091600193918563ffffffff9897969410610462575b505050811b0160035561027d565b01515f1960f88460031b161c191690555f8080610454565b92936020600181928786015181550195019301610437565b60035f527fc2575a0e9e593c00f959f8c92f12db2869c3395a3b0502d05e2516446f71f85b601f840160051c810191602085106104eb575b601f0160051c01905b8181106104e05750610248565b5f81556001016104d3565b90915081906104ca565b90607f1690610236565b015190505f806101ff565b60025f9081528281209350601f198516905b8181106105585750908460019594939210610540575b505050811b01600255610214565b01515f1960f88460031b161c191690555f8080610532565b9293602060018192878601518155019501930161051c565b60025f529091507f405787fa12a823e0f2b7631cc41b3ba8828b3321ca811111fa75cd3aa3bb5ace601f840160051c810191602085106105d4575b90601f859493920160051c01905b8181106105c657506101e9565b5f81558493506001016105b9565b90915081906105ab565b91607f16916101d5565b015190505f8061019d565b60015f9081528281209350601f198516905b8181106106415750908460019594939210610629575b505050811b016001556101b2565b01515f1960f88460031b161c191690555f808061061b565b92936020600181928786015181550195019301610605565b60015f529091507fb10e2d527612073b26eecdfd717e6a320cf44b4afac2b0732d9fcbe2b7fa0cf6601f840160051c810191602085106106bd575b90601f859493920160051c01905b8181106106af5750610187565b5f81558493506001016106a2565b9091508190610694565b91607f1691610173565b5f80fd5b6040519190601f01601f191682016001600160401b0381118382101761040757604052565b81601f820112156106d1578051906001600160401b03821161040757610729601f8301601f19166020016106d5565b92828452602083830101116106d157815f9260208093018386015e8301015290565b519063ffffffff821682036106d15756fe6080806040526004361015610012575f80fd5b5f3560e01c9081630c570c8614610887575080632c383a9f146107e25780632c4e722e146107c15780636c5a7d1e1461075957806378f86afc14610526578063860aefcf146104f95780638da5cb5b146104d4578063a50edca01461042f578063bed315f81461037d578063c7502c4814610250578063d5025625146101ab578063ee070805146101895763fc0c546a146100ab575f80fd5b34610185575f366003190112610185576040515f6001546100cb816108a8565b80845290600181169081156101615750600114610103575b6100ff836100f3818503826108e0565b60405191829182610902565b0390f35b60015f9081527fb10e2d527612073b26eecdfd717e6a320cf44b4afac2b0732d9fcbe2b7fa0cf6939250905b808210610147575090915081016020016100f36100e3565b91926001816020925483858801015201910190929161012f565b60ff191660208086019190915291151560051b840190910191506100f390506100e3565b5f80fd5b34610185575f36600319011261018557602060ff600754166040519015158152f35b34610185575f366003190112610185576040515f6006546101cb816108a8565b808452906001811690811561016157506001146101f2576100ff836100f3818503826108e0565b60065f9081527ff652222313e28459528d920b65115c16c04f3efc82aaedc97be59f3f377c0d3f939250905b808210610236575090915081016020016100f36100e3565b91926001816020925483858801015201910190929161021e565b34610185576040366003190112610185576040516040810181811067ffffffffffffffff8211176103695760405260043563ffffffff811681036101855781526024359063ffffffff8216820361018557602081019182526102be336001600160a01b035f5416331461092c565b63ffffffff81511663ffffffff83511611156103255763ffffffff90511667ffffffff00000000600554925160201b169167ffffffffffffffff191617176005557f4c720dcd587fe71ce2ffe44bdc46bd4c550e30dcd9967b1af0a41c95f45aeae45f80a1005b606460405162461bcd60e51b815260206004820152600660248201527f6c696d69747300000000000000000000000000000000000000000000000000006044820152fd5b634e487b7160e01b5f52604160045260245ffd5b346101855760203660031901126101855760043561ffff8116809103610185576103b3336001600160a01b035f5416331461092c565b80156103eb5761ffff1960045416176004557f4c720dcd587fe71ce2ffe44bdc46bd4c550e30dcd9967b1af0a41c95f45aeae45f80a1005b606460405162461bcd60e51b815260206004820152600460248201527f72617465000000000000000000000000000000000000000000000000000000006044820152fd5b34610185575f366003190112610185576040515f60025461044f816108a8565b80845290600181169081156101615750600114610476576100ff836100f3818503826108e0565b60025f9081527f405787fa12a823e0f2b7631cc41b3ba8828b3321ca811111fa75cd3aa3bb5ace939250905b8082106104ba575090915081016020016100f36100e3565b9192600181602092548385880101520191019092916104a2565b34610185575f3660031901126101855760206001600160a01b035f5416604051908152f35b34610185575f36600319011261018557604060055463ffffffff825191818116835260201c166020820152f35b346101855760203660031901126101855760043567ffffffffffffffff8111610185573660238201121561018557806004013567ffffffffffffffff81116103695760405191610580601f8301601f1916602001846108e0565b818352366024838301011161018557815f9260246020930183860137830101526105b6336001600160a01b035f5416331461092c565b805167ffffffffffffffff8111610369576105d26006546108a8565b601f81116106b8575b50602091601f821160011461063a579181925f9261062f575b50508160011b915f199060031b1c1916176006555b7f4c720dcd587fe71ce2ffe44bdc46bd4c550e30dcd9967b1af0a41c95f45aeae45f80a1005b0151905082806105f4565b601f1982169260065f527ff652222313e28459528d920b65115c16c04f3efc82aaedc97be59f3f377c0d3f915f5b8581106106a057508360019510610688575b505050811b01600655610609565b01515f1960f88460031b161c1916905582808061067a565b91926020600181928685015181550194019201610668565b60065f52601f820160051c7ff652222313e28459528d920b65115c16c04f3efc82aaedc97be59f3f377c0d3f019060208310610731575b601f0160051c7ff652222313e28459528d920b65115c16c04f3efc82aaedc97be59f3f377c0d3f01905b81811061072657506105db565b5f8155600101610719565b7ff652222313e28459528d920b65115c16c04f3efc82aaedc97be59f3f377c0d3f91506106ef565b34610185576020366003190112610185576004358015158091036101855761078d336001600160a01b035f5416331461092c565b60ff8019600754169116176007557f4c720dcd587fe71ce2ffe44bdc46bd4c550e30dcd9967b1af0a41c95f45aeae45f80a1005b34610185575f36600319011261018557602061ffff60045416604051908152f35b34610185575f366003190112610185576040515f600354610802816108a8565b80845290600181169081156101615750600114610829576100ff836100f3818503826108e0565b60035f9081527fc2575a0e9e593c00f959f8c92f12db2869c3395a3b0502d05e2516446f71f85b939250905b80821061086d575090915081016020016100f36100e3565b919260018160209254838588010152019101909291610855565b34610185575f3660031901126101855760209060ff5f5460a01c1615158152f35b90600182811c921680156108d6575b60208310146108c257565b634e487b7160e01b5f52602260045260245ffd5b91607f16916108b7565b90601f8019910116810190811067ffffffffffffffff82111761036957604052565b602060409281835280519182918282860152018484015e5f828201840152601f01601f1916010190565b156109345750565b6001600160a01b03907f32b2baa3000000000000000000000000000000000000000000000000000000005f521660045260245ffdfea2646970667358221220be6155de36062ec6a233ddf823a70cfc53a3d30228d0073031ed8169eaea074764736f6c634300081a0033",
  "linkReferences": {},
  "deployedLinkReferences": {},
  "immutableReferences": {},
  "inputSourceName": "project/evm/protocol/Offer.sol",
  "buildInfoId": "solc-0_8_26-66865f1fc3a66844c8eb720c1aaa93d424caba8c"
}