{
  "_format": "hh3-artifact-1",
  "contractName": "Offer",
  "sourceName": "evm/protocol/Offer.sol",
  "abi": [
    {
      "inputs": [
        {
          "internalType": "address",
          "name": "owner_",
          "type": "address"
        },
        {
          "internalType": "bool",
          "name": "isSell_",
          "type": "bool"
        },
        {
          "internalType": "string",
          "name": "token_",
          "type": "string"
        },
        {
          "internalType": "string",
          "name": "fiat_",
          "type": "string"
        },
        {
          "internalType": "string",
          "name": "method_",
          "type": "string"
        },
        {
          "internalType": "uint16",
          "name": "rate_",
          "type": "uint16"
        },
        {
          "components": [
            {
              "internalType": "uint32",
              "name": "min",
              "type": "uint32"
            },
            {
              "internalType": "uint32",
              "name": "max",
              "type": "uint32"
            }
          ],
          "internalType": "struct Offer.Limits",
          "name": "limits_",
          "type": "tuple"
        },
        {
          "internalType": "string",
          "name": "terms_",
          "type": "string"
        }
      ],
      "stateMutability": "nonpayable",
      "type": "constructor"
    },
    {
      "inputs": [
        {
          "internalType": "address",
          "name": "account",
          "type": "address"
        }
      ],
      "name": "UnauthorizedAccount",
      "type": "error"
    },
    {
      "anonymous": false,
      "inputs": [],
      "name": "OfferUpdated",
      "type": "event"
    },
    {
      "inputs": [],
      "name": "disabled",
      "outputs": [
        {
          "internalType": "bool",
          "name": "",
          "type": "bool"
        }
      ],
      "stateMutability": "view",
      "type": "function"
    },
    {
      "inputs": [],
      "name": "fiat",
      "outputs": [
        {
          "internalType": "string",
          "name": "",
          "type": "string"
        }
      ],
      "stateMutability": "view",
      "type": "function"
    },
    {
      "inputs": [],
      "name": "isSell",
      "outputs": [
        {
          "internalType": "bool",
          "name": "",
          "type": "bool"
        }
      ],
      "stateMutability": "view",
      "type": "function"
    },
    {
      "inputs": [],
      "name": "limits",
      "outputs": [
        {
          "internalType": "uint32",
          "name": "min",
          "type": "uint32"
        },
        {
          "internalType": "uint32",
          "name": "max",
          "type": "uint32"
        }
      ],
      "stateMutability": "view",
      "type": "function"
    },
    {
      "inputs": [],
      "name": "method",
      "outputs": [
        {
          "internalType": "string",
          "name": "",
          "type": "string"
        }
      ],
      "stateMutability": "view",
      "type": "function"
    },
    {
      "inputs": [],
      "name": "owner",
      "outputs": [
        {
          "internalType": "address",
          "name": "",
          "type": "address"
        }
      ],
      "stateMutability": "view",
      "type": "function"
    },
    {
      "inputs": [],
      "name": "rate",
      "outputs": [
        {
          "internalType": "uint16",
          "name": "",
          "type": "uint16"
        }
      ],
      "stateMutability": "view",
      "type": "function"
    },
    {
      "inputs": [
        {
          "internalType": "bool",
          "name": "disabled_",
          "type": "bool"
        }
      ],
      "name": "setDisabled",
      "outputs": [],
      "stateMutability": "nonpayable",
      "type": "function"
    },
    {
      "inputs": [
        {
          "components": [
            {
              "internalType": "uint32",
              "name": "min",
              "type": "uint32"
            },
            {
              "internalType": "uint32",
              "name": "max",
              "type": "uint32"
            }
          ],
          "internalType": "struct Offer.Limits",
          "name": "limits_",
          "type": "tuple"
        }
      ],
      "name": "setLimits",
      "outputs": [],
      "stateMutability": "nonpayable",
      "type": "function"
    },
    {
      "inputs": [
        {
          "internalType": "uint16",
          "name": "rate_",
          "type": "uint16"
        }
      ],
      "name": "setRate",
      "outputs": [],
      "stateMutability": "nonpayable",
      "type": "function"
    },
    {
      "inputs": [
        {
          "internalType": "string",
          "name": "terms_",
          "type": "string"
        }
      ],
      "name": "setTerms",
      "outputs": [],
      "stateMutability": "nonpayable",
      "type": "function"
    },
    {
      "inputs": [],
      "name": "terms",
      "outputs": [
        {
          "internalType": "string",
          "name": "",
          "type": "string"
        }
      ],
      "stateMutability": "view",
      "type": "function"
    },
    {
      "inputs": [],
      "name": "token",
      "outputs": [
        {
          "internalType": "string",
          "name": "",
          "type": "string"
        }
      ],
      "stateMutability": "view",
      "type": "function"
    }
  ],
  "bytecode": "0x6080604052346106d15761105780380380610019816106d5565b92833981018181039161012083126106d15780516001600160a01b03811693908490036106d15760208201518015158091036106d15760408301516001600160401b0381116106d1578461006e9185016106fa565b60608401516001600160401b0381116106d1578561008d9186016106fa565b60808501519091906001600160401b0381116106d157866100af9187016106fa565b9260a08601519461ffff86168096036106d15760409060bf1901126106d15760408051969087016001600160401b03811188821017610407576040526100f760c0820161074b565b875261010560e0820161074b565b602088019081526101008201519098906001600160401b0381116106d15761012d92016106fa565b5f80546001600160a81b03191690991760a09290921b60ff60a01b16919091179097558051906001600160401b0382116104075760015490600182811c921680156106c7575b60208310146103e95781601f849311610659575b50602090601f83116001146105f3575f926105e8575b50508160011b915f199060031b1c1916176001555b8051906001600160401b0382116104075760025490600182811c921680156105de575b60208310146103e95781601f849311610570575b50602090601f831160011461050a575f926104ff575b50508160011b915f199060031b1c1916176002555b8051906001600160401b03821161040757600354600181811c911680156104f5575b60208210146103e957601f8111610492575b50602090601f83116001146104265763ffffffff949392915f918361041b575b50508160011b915f199060031b1c1916176003555b61ffff196004541617600455511667ffffffff00000000600554925160201b169160018060401b0319161717600555805160018060401b03811161040757600654600181811c911680156103fd575b60208210146103e957601f8111610386575b50602091601f8211600114610326579181925f9261031b575b50508160011b915f199060031b1c1916176006555b6040516108fa908161075d8239f35b015190505f806102f7565b601f1982169260065f52805f20915f5b85811061036e57508360019510610356575b505050811b0160065561030c565b01515f1960f88460031b161c191690555f8080610348565b91926020600181928685015181550194019201610336565b60065f527ff652222313e28459528d920b65115c16c04f3efc82aaedc97be59f3f377c0d3f601f830160051c810191602084106103df575b601f0160051c01905b8181106103d457506102de565b5f81556001016103c7565b90915081906103be565b634e487b7160e01b5f52602260045260245ffd5b90607f16906102cc565b634e487b7160e01b5f52604160045260245ffd5b015190505f80610268565b90601f1983169160035f52815f20925f5b81811061047a575091600193918563ffffffff9897969410610462575b505050811b0160035561027d565b01515f1960f88460031b161c191690555f8080610454565b92936020600181928786015181550195019301610437565b60035f527fc2575a0e9e593c00f959f8c92f12db2869c3395a3b0502d05e2516446f71f85b601f840160051c810191602085106104eb575b601f0160051c01905b8181106104e05750610248565b5f81556001016104d3565b90915081906104ca565b90607f1690610236565b015190505f806101ff565b60025f9081528281209350601f198516905b8181106105585750908460019594939210610540575b505050811b01600255610214565b01515f1960f88460031b161c191690555f8080610532565b9293602060018192878601518155019501930161051c565b60025f529091507f405787fa12a823e0f2b7631cc41b3ba8828b3321ca811111fa75cd3aa3bb5ace601f840160051c810191602085106105d4575b90601f859493920160051c01905b8181106105c657506101e9565b5f81558493506001016105b9565b90915081906105ab565b91607f16916101d5565b015190505f8061019d565b60015f9081528281209350601f198516905b8181106106415750908460019594939210610629575b505050811b016001556101b2565b01515f1960f88460031b161c191690555f808061061b565b92936020600181928786015181550195019301610605565b60015f529091507fb10e2d527612073b26eecdfd717e6a320cf44b4afac2b0732d9fcbe2b7fa0cf6601f840160051c810191602085106106bd575b90601f859493920160051c01905b8181106106af5750610187565b5f81558493506001016106a2565b9091508190610694565b91607f1691610173565b5f80fd5b6040519190601f01601f191682016001600160401b0381118382101761040757604052565b81601f820112156106d1578051906001600160401b03821161040757610729601f8301601f19166020016106d5565b92828452602083830101116106d157815f9260208093018386015e8301015290565b519063ffffffff821682036106d15756fe6080806040526004361015610012575f80fd5b5f3560e01c9081630c570c86146107b7575080632c383a9f146107125780632c4e722e146106f15780636c5a7d1e1461069a57806378f86afc146104c4578063860aefcf146104975780638da5cb5b14610470578063a50edca0146103cb578063bed315f814610343578063c7502c481461023d578063d5025625146101ab578063ee070805146101895763fc0c546a146100ab575f80fd5b34610185575f366003190112610185576040515f6001546100cb816107d8565b80845290600181169081156101615750600114610103575b6100ff836100f381850382610810565b60405191829182610832565b0390f35b60015f9081527fb10e2d527612073b26eecdfd717e6a320cf44b4afac2b0732d9fcbe2b7fa0cf6939250905b808210610147575090915081016020016100f36100e3565b91926001816020925483858801015201910190929161012f565b60ff191660208086019190915291151560051b840190910191506100f390506100e3565b5f80fd5b34610185575f36600319011261018557602060ff600754166040519015158152f35b34610185575f366003190112610185576040515f6006546101cb816107d8565b808452906001811690811561016157506001146101f2576100ff836100f381850382610810565b60065f9081525f805160206108a5833981519152939250905b808210610223575090915081016020016100f36100e3565b91926001816020925483858801015201910190929161020b565b34610185576040366003190112610185576040516040810181811067ffffffffffffffff82111761032f5760405260043563ffffffff811681036101855781526024359063ffffffff8216820361018557602081019182525f546102ad9033906001600160a01b0316811461085c565b63ffffffff81511663ffffffff83511611156103015763ffffffff90511667ffffffff00000000600554925160201b169167ffffffffffffffff191617176005555f805160206108858339815191525f80a1005b60405162461bcd60e51b81526020600482015260066024820152656c696d69747360d01b6044820152606490fd5b634e487b7160e01b5f52604160045260245ffd5b346101855760203660031901126101855760043561ffff8116809103610185575f5461037b9033906001600160a01b0316811461085c565b80156103a05761ffff1960045416176004555f805160206108858339815191525f80a1005b606460405162461bcd60e51b81526020600482015260046024820152637261746560e01b6044820152fd5b34610185575f366003190112610185576040515f6002546103eb816107d8565b80845290600181169081156101615750600114610412576100ff836100f381850382610810565b60025f9081527f405787fa12a823e0f2b7631cc41b3ba8828b3321ca811111fa75cd3aa3bb5ace939250905b808210610456575090915081016020016100f36100e3565b91926001816020925483858801015201910190929161043e565b34610185575f366003190112610185575f546040516001600160a01b039091168152602090f35b34610185575f36600319011261018557604060055463ffffffff825191818116835260201c166020820152f35b346101855760203660031901126101855760043567ffffffffffffffff8111610185573660238201121561018557806004013567ffffffffffffffff811161032f576040519161051e601f8301601f191660200184610810565b818352366024838301011161018557815f9260246020930183860137830101525f546105569033906001600160a01b0316811461085c565b805167ffffffffffffffff811161032f576105726006546107d8565b601f8111610632575b50602091601f82116001146105c7579181925f926105bc575b50508160011b915f199060031b1c1916176006555b5f805160206108858339815191525f80a1005b015190508280610594565b601f1982169260065f525f805160206108a5833981519152915f5b85811061061a57508360019510610602575b505050811b016006556105a9565b01515f1960f88460031b161c191690558280806105f4565b919260206001819286850151815501940192016105e2565b60065f52601f820160051c5f805160206108a5833981519152019060208310610685575b601f0160051c5f805160206108a583398151915201905b81811061067a575061057b565b5f815560010161066d565b5f805160206108a58339815191529150610656565b3461018557602036600319011261018557600435801515809103610185575f546106d09033906001600160a01b0316811461085c565b60ff8019600754169116176007555f805160206108858339815191525f80a1005b34610185575f36600319011261018557602061ffff60045416604051908152f35b34610185575f366003190112610185576040515f600354610732816107d8565b80845290600181169081156101615750600114610759576100ff836100f381850382610810565b60035f9081527fc2575a0e9e593c00f959f8c92f12db2869c3395a3b0502d05e2516446f71f85b939250905b80821061079d575090915081016020016100f36100e3565b919260018160209254838588010152019101909291610785565b34610185575f3660031901126101855760209060ff5f5460a01c1615158152f35b90600182811c92168015610806575b60208310146107f257565b634e487b7160e01b5f52602260045260245ffd5b91607f16916107e7565b90601f8019910116810190811067ffffffffffffffff82111761032f57604052565b602060409281835280519182918282860152018484015e5f828201840152601f01601f1916010190565b156108645750565b6332b2baa360e01b5f9081526001600160a01b0391909116600452602490fdfe4c720dcd587fe71ce2ffe44bdc46bd4c550e30dcd9967b1af0a41c95f45aeae4f652222313e28459528d920b65115c16c04f3efc82aaedc97be59f3f377c0d3fa264697066735822122073f05917c866468dc0dbe7c5939ca3debd42e18a29ce45e8856ef4dd60a2e7a464736f6c634300081a0033",
  "linkReferences": {},
  "deployedLinkReferences": {},
  "immutableReferences": {},
  "inputSourceName": "project/evm/protocol/Offer.sol",
  "buildInfoId": "solc-0_8_26-1737df5eb94312cf2458bb21908a35a4528ad07d"
}