{
  "_format": "hh3-artifact-1",
  "contractName": "AddressWhitelist",
  "sourceName": "@uma/core/contracts/common/implementation/AddressWhitelist.sol",
  "abi": [
    {
      "anonymous": false,
      "inputs": [
        {
          "indexed": true,
          "internalType": "address",
          "name": "addedAddress",
          "type": "address"
        }
      ],
      "name": "AddedToWhitelist",
      "type": "event"
    },
    {
      "anonymous": false,
      "inputs": [
        {
          "indexed": true,
          "internalType": "address",
          "name": "previousOwner",
          "type": "address"
        },
        {
          "indexed": true,
          "internalType": "address",
          "name": "newOwner",
          "type": "address"
        }
      ],
      "name": "OwnershipTransferred",
      "type": "event"
    },
    {
      "anonymous": false,
      "inputs": [
        {
          "indexed": true,
          "internalType": "address",
          "name": "removedAddress",
          "type": "address"
        }
      ],
      "name": "RemovedFromWhitelist",
      "type": "event"
    },
    {
      "inputs": [
        {
          "internalType": "address",
          "name": "newElement",
          "type": "address"
        }
      ],
      "name": "addToWhitelist",
      "outputs": [],
      "stateMutability": "nonpayable",
      "type": "function"
    },
    {
      "inputs": [],
      "name": "getWhitelist",
      "outputs": [
        {
          "internalType": "address[]",
          "name": "activeWhitelist",
          "type": "address[]"
        }
      ],
      "stateMutability": "view",
      "type": "function"
    },
    {
      "inputs": [
        {
          "internalType": "address",
          "name": "elementToCheck",
          "type": "address"
        }
      ],
      "name": "isOnWhitelist",
      "outputs": [
        {
          "internalType": "bool",
          "name": "",
          "type": "bool"
        }
      ],
      "stateMutability": "view",
      "type": "function"
    },
    {
      "inputs": [],
      "name": "owner",
      "outputs": [
        {
          "internalType": "address",
          "name": "",
          "type": "address"
        }
      ],
      "stateMutability": "view",
      "type": "function"
    },
    {
      "inputs": [
        {
          "internalType": "address",
          "name": "elementToRemove",
          "type": "address"
        }
      ],
      "name": "removeFromWhitelist",
      "outputs": [],
      "stateMutability": "nonpayable",
      "type": "function"
    },
    {
      "inputs": [],
      "name": "renounceOwnership",
      "outputs": [],
      "stateMutability": "nonpayable",
      "type": "function"
    },
    {
      "inputs": [
        {
          "internalType": "address",
          "name": "newOwner",
          "type": "address"
        }
      ],
      "name": "transferOwnership",
      "outputs": [],
      "stateMutability": "nonpayable",
      "type": "function"
    },
    {
      "inputs": [
        {
          "internalType": "address",
          "name": "",
          "type": "address"
        }
      ],
      "name": "whitelist",
      "outputs": [
        {
          "internalType": "enum AddressWhitelist.Status",
          "name": "",
          "type": "uint8"
        }
      ],
      "stateMutability": "view",
      "type": "function"
    },
    {
      "inputs": [
        {
          "internalType": "uint256",
          "name": "",
          "type": "uint256"
        }
      ],
      "name": "whitelistIndices",
      "outputs": [
        {
          "internalType": "address",
          "name": "",
          "type": "address"
        }
      ],
      "stateMutability": "view",
      "type": "function"
    }
  ],
  "bytecode": "0x608080604052346060575f543360018060a01b0382167f8be0079c531659141344cd1fd0a4f28419497f9722a3daafe3b4186f6b6457e05f80a36001600160a81b0319163360ff60a01b191617600160a01b175f5561079f90816100658239f35b5f80fdfe60806040526004361015610011575f80fd5b5f3560e01c806337797c08146105625780633a3ab6721461050f578063715018a6146104ab5780638ab1d681146103f65780638da5cb5b146103d15780639b19251a1461038a578063d01f63f5146101c6578063e43252d71461016a5763f2fde38b1461007c575f80fd5b34610166576020366003190112610166576004356001600160a01b038116809103610166576100a9610712565b80156100fc576001600160a01b035f548273ffffffffffffffffffffffffffffffffffffffff198216175f55167f8be0079c531659141344cd1fd0a4f28419497f9722a3daafe3b4186f6b6457e05f80a3005b608460405162461bcd60e51b815260206004820152602660248201527f4f776e61626c653a206e6577206f776e657220697320746865207a65726f206160448201527f64647265737300000000000000000000000000000000000000000000000000006064820152fd5b5f80fd5b34610166576020366003190112610166576004356001600160a01b0381168103610166576101b29061019a6106bf565b60ff60a01b195f54165f556101ad610712565b6105f5565b5f805460ff60a01b1916600160a01b179055005b34610166575f366003190112610166576101de6106bf565b5f5f600254905b81811061033557506101f6826105dd565b60405192601f909101601f191683019067ffffffffffffffff82118483101761032157610228916040528084526105dd565b602083019190601f19013683375f905f5b81811061028d578385604051918291602083019060208452518091526040830191905f5b81811061026b575050500390f35b82516001600160a01b031684528594506020938401939092019160010161025d565b6001600160a01b0361029e826105a3565b90549060031b1c16805f52600160205260ff60405f205416600381101561030d576001146102d0575b50600101610239565b85939193518210156102f957816102f291602060019460051b890101526105bb565b92906102c7565b634e487b7160e01b5f52603260045260245ffd5b634e487b7160e01b5f52602160045260245ffd5b634e487b7160e01b5f52604160045260245ffd5b6001600160a01b03610346826105a3565b90549060031b1c165f52600160205260ff60405f205416600381101561030d57600114610376575b6001016101e5565b916103826001916105bb565b92905061036e565b34610166576020366003190112610166576004356001600160a01b038116809103610166575f52600160205260ff60405f205416604051600382101561030d576020918152f35b34610166575f3660031901126101665760206001600160a01b035f5416604051908152f35b34610166576020366003190112610166576004356001600160a01b038116809103610166576104236106bf565b60ff60a01b195f54165f55610436610712565b805f52600160205260ff60405f205416600381101561030d5760020361046a575f805460ff60a01b1916600160a01b179055005b805f52600160205260405f20600260ff198254161790557fcdd2e9b91a56913d370075169cefa1602ba36be5301664f752192bb1709df7575f80a2806101b2565b34610166575f366003190112610166576104c3610712565b5f6001600160a01b03815473ffffffffffffffffffffffffffffffffffffffff1981168355167f8be0079c531659141344cd1fd0a4f28419497f9722a3daafe3b4186f6b6457e08280a3005b34610166576020366003190112610166576004356001600160a01b0381168091036101665761053c6106bf565b5f52600160205260ff60405f205416600381101561030d57602090600160405191148152f35b3461016657602036600319011261016657600435600254811015610166576001600160a01b036105936020926105a3565b90549060031b1c16604051908152f35b6002548110156102f95760025f5260205f2001905f90565b5f1981146105c95760010190565b634e487b7160e01b5f52601160045260245ffd5b67ffffffffffffffff81116103215760051b60200190565b6001600160a01b0316805f52600160205260ff60405f205416600381101561030d576001146106bc57805f52600160205260ff60405f205416600381101561030d571561067a575b805f52600160205260405f20600160ff198254161790557fa850ae9193f515cbae8d35e8925bd2be26627fc91bce650b8652ed254e9cab035f80a2565b600254680100000000000000008110156103215780600161069e92016002556105a3565b81549060031b906001600160a01b0384831b921b191617905561063d565b50565b60ff5f5460a01c16156106ce57565b606460405162461bcd60e51b815260206004820152601f60248201527f5265656e7472616e637947756172643a207265656e7472616e742063616c6c006044820152fd5b6001600160a01b035f5416330361072557565b606460405162461bcd60e51b815260206004820152602060248201527f4f776e61626c653a2063616c6c6572206973206e6f7420746865206f776e65726044820152fdfea2646970667358221220686e9035eda48af40adbf6613af00bc9edc08f72c425e5e6ecba9ad006f3d3e364736f6c63430008220033",
  "linkReferences": {},
  "deployedLinkReferences": {},
  "immutableReferences": {},
  "inputSourceName": "npm/@uma/core@2.62.2/contracts/common/implementation/AddressWhitelist.sol",
  "buildInfoId": "solc-0_8_34-9b18d912704222a973669c8d455c0f6e109e3610"
}