{
  "_format": "hh3-artifact-1",
  "contractName": "PexfiToken",
  "sourceName": "evm/protocol/PexfiToken.sol",
  "abi": [
    {
      "inputs": [],
      "stateMutability": "nonpayable",
      "type": "constructor"
    },
    {
      "inputs": [],
      "name": "ECDSAInvalidSignature",
      "type": "error"
    },
    {
      "inputs": [
        {
          "internalType": "uint256",
          "name": "length",
          "type": "uint256"
        }
      ],
      "name": "ECDSAInvalidSignatureLength",
      "type": "error"
    },
    {
      "inputs": [
        {
          "internalType": "bytes32",
          "name": "s",
          "type": "bytes32"
        }
      ],
      "name": "ECDSAInvalidSignatureS",
      "type": "error"
    },
    {
      "inputs": [
        {
          "internalType": "address",
          "name": "spender",
          "type": "address"
        },
        {
          "internalType": "uint256",
          "name": "allowance",
          "type": "uint256"
        },
        {
          "internalType": "uint256",
          "name": "needed",
          "type": "uint256"
        }
      ],
      "name": "ERC20InsufficientAllowance",
      "type": "error"
    },
    {
      "inputs": [
        {
          "internalType": "address",
          "name": "sender",
          "type": "address"
        },
        {
          "internalType": "uint256",
          "name": "balance",
          "type": "uint256"
        },
        {
          "internalType": "uint256",
          "name": "needed",
          "type": "uint256"
        }
      ],
      "name": "ERC20InsufficientBalance",
      "type": "error"
    },
    {
      "inputs": [
        {
          "internalType": "address",
          "name": "approver",
          "type": "address"
        }
      ],
      "name": "ERC20InvalidApprover",
      "type": "error"
    },
    {
      "inputs": [
        {
          "internalType": "address",
          "name": "receiver",
          "type": "address"
        }
      ],
      "name": "ERC20InvalidReceiver",
      "type": "error"
    },
    {
      "inputs": [
        {
          "internalType": "address",
          "name": "sender",
          "type": "address"
        }
      ],
      "name": "ERC20InvalidSender",
      "type": "error"
    },
    {
      "inputs": [
        {
          "internalType": "address",
          "name": "spender",
          "type": "address"
        }
      ],
      "name": "ERC20InvalidSpender",
      "type": "error"
    },
    {
      "inputs": [
        {
          "internalType": "uint256",
          "name": "deadline",
          "type": "uint256"
        }
      ],
      "name": "ERC2612ExpiredSignature",
      "type": "error"
    },
    {
      "inputs": [
        {
          "internalType": "address",
          "name": "signer",
          "type": "address"
        },
        {
          "internalType": "address",
          "name": "owner",
          "type": "address"
        }
      ],
      "name": "ERC2612InvalidSigner",
      "type": "error"
    },
    {
      "inputs": [
        {
          "internalType": "address",
          "name": "account",
          "type": "address"
        },
        {
          "internalType": "uint256",
          "name": "currentNonce",
          "type": "uint256"
        }
      ],
      "name": "InvalidAccountNonce",
      "type": "error"
    },
    {
      "inputs": [],
      "name": "InvalidShortString",
      "type": "error"
    },
    {
      "inputs": [
        {
          "internalType": "string",
          "name": "str",
          "type": "string"
        }
      ],
      "name": "StringTooLong",
      "type": "error"
    },
    {
      "anonymous": false,
      "inputs": [
        {
          "indexed": true,
          "internalType": "address",
          "name": "owner",
          "type": "address"
        },
        {
          "indexed": true,
          "internalType": "address",
          "name": "spender",
          "type": "address"
        },
        {
          "indexed": false,
          "internalType": "uint256",
          "name": "value",
          "type": "uint256"
        }
      ],
      "name": "Approval",
      "type": "event"
    },
    {
      "anonymous": false,
      "inputs": [],
      "name": "EIP712DomainChanged",
      "type": "event"
    },
    {
      "anonymous": false,
      "inputs": [
        {
          "indexed": true,
          "internalType": "address",
          "name": "from",
          "type": "address"
        },
        {
          "indexed": true,
          "internalType": "address",
          "name": "to",
          "type": "address"
        },
        {
          "indexed": false,
          "internalType": "uint256",
          "name": "value",
          "type": "uint256"
        }
      ],
      "name": "Transfer",
      "type": "event"
    },
    {
      "inputs": [],
      "name": "DOMAIN_SEPARATOR",
      "outputs": [
        {
          "internalType": "bytes32",
          "name": "",
          "type": "bytes32"
        }
      ],
      "stateMutability": "view",
      "type": "function"
    },
    {
      "inputs": [
        {
          "internalType": "address",
          "name": "owner",
          "type": "address"
        },
        {
          "internalType": "address",
          "name": "spender",
          "type": "address"
        }
      ],
      "name": "allowance",
      "outputs": [
        {
          "internalType": "uint256",
          "name": "",
          "type": "uint256"
        }
      ],
      "stateMutability": "view",
      "type": "function"
    },
    {
      "inputs": [
        {
          "internalType": "address",
          "name": "spender",
          "type": "address"
        },
        {
          "internalType": "uint256",
          "name": "value",
          "type": "uint256"
        }
      ],
      "name": "approve",
      "outputs": [
        {
          "internalType": "bool",
          "name": "",
          "type": "bool"
        }
      ],
      "stateMutability": "nonpayable",
      "type": "function"
    },
    {
      "inputs": [
        {
          "internalType": "address",
          "name": "account",
          "type": "address"
        }
      ],
      "name": "balanceOf",
      "outputs": [
        {
          "internalType": "uint256",
          "name": "",
          "type": "uint256"
        }
      ],
      "stateMutability": "view",
      "type": "function"
    },
    {
      "inputs": [
        {
          "internalType": "uint256",
          "name": "value",
          "type": "uint256"
        }
      ],
      "name": "burn",
      "outputs": [],
      "stateMutability": "nonpayable",
      "type": "function"
    },
    {
      "inputs": [
        {
          "internalType": "address",
          "name": "account",
          "type": "address"
        },
        {
          "internalType": "uint256",
          "name": "value",
          "type": "uint256"
        }
      ],
      "name": "burnFrom",
      "outputs": [],
      "stateMutability": "nonpayable",
      "type": "function"
    },
    {
      "inputs": [],
      "name": "decimals",
      "outputs": [
        {
          "internalType": "uint8",
          "name": "",
          "type": "uint8"
        }
      ],
      "stateMutability": "view",
      "type": "function"
    },
    {
      "inputs": [],
      "name": "eip712Domain",
      "outputs": [
        {
          "internalType": "bytes1",
          "name": "fields",
          "type": "bytes1"
        },
        {
          "internalType": "string",
          "name": "name",
          "type": "string"
        },
        {
          "internalType": "string",
          "name": "version",
          "type": "string"
        },
        {
          "internalType": "uint256",
          "name": "chainId",
          "type": "uint256"
        },
        {
          "internalType": "address",
          "name": "verifyingContract",
          "type": "address"
        },
        {
          "internalType": "bytes32",
          "name": "salt",
          "type": "bytes32"
        },
        {
          "internalType": "uint256[]",
          "name": "extensions",
          "type": "uint256[]"
        }
      ],
      "stateMutability": "view",
      "type": "function"
    },
    {
      "inputs": [],
      "name": "name",
      "outputs": [
        {
          "internalType": "string",
          "name": "",
          "type": "string"
        }
      ],
      "stateMutability": "view",
      "type": "function"
    },
    {
      "inputs": [
        {
          "internalType": "address",
          "name": "owner",
          "type": "address"
        }
      ],
      "name": "nonces",
      "outputs": [
        {
          "internalType": "uint256",
          "name": "",
          "type": "uint256"
        }
      ],
      "stateMutability": "view",
      "type": "function"
    },
    {
      "inputs": [
        {
          "internalType": "address",
          "name": "owner",
          "type": "address"
        },
        {
          "internalType": "address",
          "name": "spender",
          "type": "address"
        },
        {
          "internalType": "uint256",
          "name": "value",
          "type": "uint256"
        },
        {
          "internalType": "uint256",
          "name": "deadline",
          "type": "uint256"
        },
        {
          "internalType": "uint8",
          "name": "v",
          "type": "uint8"
        },
        {
          "internalType": "bytes32",
          "name": "r",
          "type": "bytes32"
        },
        {
          "internalType": "bytes32",
          "name": "s",
          "type": "bytes32"
        }
      ],
      "name": "permit",
      "outputs": [],
      "stateMutability": "nonpayable",
      "type": "function"
    },
    {
      "inputs": [],
      "name": "symbol",
      "outputs": [
        {
          "internalType": "string",
          "name": "",
          "type": "string"
        }
      ],
      "stateMutability": "view",
      "type": "function"
    },
    {
      "inputs": [],
      "name": "totalSupply",
      "outputs": [
        {
          "internalType": "uint256",
          "name": "",
          "type": "uint256"
        }
      ],
      "stateMutability": "view",
      "type": "function"
    },
    {
      "inputs": [
        {
          "internalType": "address",
          "name": "to",
          "type": "address"
        },
        {
          "internalType": "uint256",
          "name": "value",
          "type": "uint256"
        }
      ],
      "name": "transfer",
      "outputs": [
        {
          "internalType": "bool",
          "name": "",
          "type": "bool"
        }
      ],
      "stateMutability": "nonpayable",
      "type": "function"
    },
    {
      "inputs": [
        {
          "internalType": "address",
          "name": "from",
          "type": "address"
        },
        {
          "internalType": "address",
          "name": "to",
          "type": "address"
        },
        {
          "internalType": "uint256",
          "name": "value",
          "type": "uint256"
        }
      ],
      "name": "transferFrom",
      "outputs": [
        {
          "internalType": "bool",
          "name": "",
          "type": "bool"
        }
      ],
      "stateMutability": "nonpayable",
      "type": "function"
    }
  ],
  "bytecode": "0x610160604052346104d6576040516100186040826104da565b60098152602081016805065786669205032560bc1b81526040519061003e6040836104da565b600982526805065786669205032560bc1b6020830152604051926100636040856104da565b6005845264504558464960d81b6020850152604051936100846040866104da565b60018552603160f81b60208601908152845190946001600160401b0382116103d15760035490600182811c921680156104cc575b60208310146103b35781601f849311610456575b50602090601f83116001146103f0575f926103e5575b50508160011b915f199060031b1c1916176003555b8051906001600160401b0382116103d15760045490600182811c921680156103c7575b60208310146103b35781601f84931161033d575b50602090601f83116001146102d7575f926102cc575b50508160011b915f199060031b1c1916176004555b610162816104fd565b6101205261016f84610690565b61014052519020918260e05251902080610100524660a0526040519060208201927f8b73c3c69bb8fe3d512ecc4cf759cc79239f7b179b0ffacaa9a75d522b39400f8452604083015260608201524660808201523060a082015260a081526101d860c0826104da565b5190206080523060c05233156102b95760025469d3c21bcecceda100000081018091116102a557600255335f525f60205260405f2069d3c21bcecceda1000000815401905560405169d3c21bcecceda100000081525f7fddf252ad1be2c89b69c2b068fc378daa952ba7f163c4a11628f55a4df523b3ef60203393a3604051610e5c90816107d5823960805181610a5d015260a05181610b1a015260c05181610a2e015260e05181610aac01526101005181610ad2015261012051816103ca015261014051816103f30152f35b634e487b7160e01b5f52601160045260245ffd5b63ec442f0560e01b5f525f60045260245ffd5b015190505f80610144565b60045f9081528281209350601f198516905b818110610325575090846001959493921061030d575b505050811b01600455610159565b01515f1960f88460031b161c191690555f80806102ff565b929360206001819287860151815501950193016102e9565b8281111561012e5760045f52909150601f830160051c7f8a35acfbc15ff81a39ae7d344fd709f28e8600b4aa8c65c6b64bfe7fe36bd19b602085106103ab575b849392601f0160051c82900391015f5b82811061039b57505061012e565b5f8183015585945060010161038d565b5f915061037d565b634e487b7160e01b5f52602260045260245ffd5b91607f169161011a565b634e487b7160e01b5f52604160045260245ffd5b015190505f806100e2565b60035f9081528281209350601f198516905b81811061043e5750908460019594939210610426575b505050811b016003556100f7565b01515f1960f88460031b161c191690555f8080610418565b92936020600181928786015181550195019301610402565b828111156100cc5760035f52909150601f830160051c7fc2575a0e9e593c00f959f8c92f12db2869c3395a3b0502d05e2516446f71f85b602085106104c4575b849392601f0160051c82900391015f5b8281106104b45750506100cc565b5f818301558594506001016104a6565b5f9150610496565b91607f16916100b8565b5f80fd5b601f909101601f19168101906001600160401b038211908210176103d157604052565b908151602081105f14610577575090601f815111610537576020815191015160208210610528571790565b5f198260200360031b1b161790565b604460209160405192839163305a27a960e01b83528160048401528051918291826024860152018484015e5f828201840152601f01601f19168101030190fd5b6001600160401b0381116103d157600554600181811c91168015610686575b60208210146103b357601f8111610647575b50602092601f82116001146105e657928192935f926105db575b50508160011b915f199060031b1c19161760055560ff90565b015190505f806105c2565b601f1982169360055f52805f20915f5b86811061062f5750836001959610610617575b505050811b0160055560ff90565b01515f1960f88460031b161c191690555f8080610609565b919260206001819286850151815501940192016105f6565b818111156105a85760055f5260205f20601f80840160051c809201920160051c03905f5b8281106106795750506105a8565b5f8282015560010161066b565b90607f1690610596565b908151602081105f146106bb575090601f815111610537576020815191015160208210610528571790565b6001600160401b0381116103d157600654600181811c911680156107ca575b60208210146103b357601f811161078b575b50602092601f821160011461072a57928192935f9261071f575b50508160011b915f199060031b1c19161760065560ff90565b015190505f80610706565b601f1982169360065f52805f20915f5b868110610773575083600195961061075b575b505050811b0160065560ff90565b01515f1960f88460031b161c191690555f808061074d565b9192602060018192868501518155019401920161073a565b818111156106ec5760065f5260205f20601f80840160051c809201920160051c03905f5b8281106107bd5750506106ec565b5f828201556001016107af565b90607f16906106da56fe6080806040526004361015610012575f80fd5b5f3560e01c90816306fdde031461063a57508063095ea7b31461061457806318160ddd146105f757806323b872dd146105bf578063313ce567146105a45780633644e5151461058257806342966c681461056557806370a082311461052e57806379cc6790146104fe5780637ecebe00146104c657806384b0196e146103b257806395d89b41146102d0578063a9059cbb1461029f578063d505accf146101195763dd62ed3e146100c1575f80fd5b34610115576040366003190112610115576100da610700565b6001600160a01b036100ea610716565b91165f5260016020526001600160a01b0360405f2091165f52602052602060405f2054604051908152f35b5f80fd5b346101155760e036600319011261011557610132610700565b61013a610716565b604435906064359260843560ff81168103610115578442116102735761022e6102256001600160a01b039283851697885f52600760205260405f20908154916001830190556040519060208201927f6e71edae12b1b97f4d1f60370fef10105fa2faae0126114a169c64845d6126c984528b6040840152878a1660608401528a608084015260a083015260c082015260c081526101d860e0826107e5565b5190206101e3610a24565b90604051917f190100000000000000000000000000000000000000000000000000000000000083526002830152602282015260c43591604260a4359220610cda565b90929192610d67565b1684810361024357506102419350610bc4565b005b84907f4b800e46000000000000000000000000000000000000000000000000000000005f5260045260245260445ffd5b847f62791302000000000000000000000000000000000000000000000000000000005f5260045260245ffd5b34610115576040366003190112610115576102c56102bb610700565b6024359033610935565b602060405160018152f35b34610115575f366003190112610115576040515f6004546102f08161072c565b808452906001811690811561038e5750600114610330575b61032c83610318818503826107e5565b6040519182916020835260208301906106dc565b0390f35b60045f9081527f8a35acfbc15ff81a39ae7d344fd709f28e8600b4aa8c65c6b64bfe7fe36bd19b939250905b80821061037457509091508101602001610318610308565b91926001816020925483858801015201910190929161035c565b60ff191660208086019190915291151560051b840190910191506103189050610308565b34610115575f3660031901126101155761046a6103ee7f0000000000000000000000000000000000000000000000000000000000000000610c27565b6104177f0000000000000000000000000000000000000000000000000000000000000000610ca3565b60206104786040519261042a83856107e5565b5f84525f3681376040519586957f0f00000000000000000000000000000000000000000000000000000000000000875260e08588015260e08701906106dc565b9085820360408701526106dc565b4660608501523060808501525f60a085015283810360c08501528180845192838152019301915f5b8281106104af57505050500390f35b8351855286955093810193928101926001016104a0565b34610115576020366003190112610115576001600160a01b036104e7610700565b165f526007602052602060405f2054604051908152f35b346101155760403660031901126101155761024161051a610700565b6024359061052982338361081b565b610b40565b34610115576020366003190112610115576001600160a01b0361054f610700565b165f525f602052602060405f2054604051908152f35b346101155760203660031901126101155761024160043533610b40565b34610115575f36600319011261011557602061059c610a24565b604051908152f35b34610115575f36600319011261011557602060405160128152f35b34610115576060366003190112610115576102c56105db610700565b6105e3610716565b604435916105f283338361081b565b610935565b34610115575f366003190112610115576020600254604051908152f35b34610115576040366003190112610115576102c5610630610700565b6024359033610bc4565b34610115575f366003190112610115575f6003546106578161072c565b808452906001811690811561038e575060011461067e5761032c83610318818503826107e5565b60035f9081527fc2575a0e9e593c00f959f8c92f12db2869c3395a3b0502d05e2516446f71f85b939250905b8082106106c257509091508101602001610318610308565b9192600181602092548385880101520191019092916106aa565b805180835260209291819084018484015e5f828201840152601f01601f1916010190565b600435906001600160a01b038216820361011557565b602435906001600160a01b038216820361011557565b90600182811c9216801561075a575b602083101461074657565b634e487b7160e01b5f52602260045260245ffd5b91607f169161073b565b5f92918154916107738361072c565b80835292600181169081156107c8575060011461078f57505050565b5f9081526020812093945091925b8383106107ae575060209250010190565b60018160209294939454838587010152019101919061079d565b915050602093945060ff929192191683830152151560051b010190565b90601f8019910116810190811067ffffffffffffffff82111761080757604052565b634e487b7160e01b5f52604160045260245ffd5b6001600160a01b03909291921691825f52600160205260405f206001600160a01b0382165f5260205260405f2054925f198410610859575b50505050565b8284106108f85780156108cc576001600160a01b038216156108a0575f5260016020526001600160a01b0360405f2091165f5260205260405f20910390555f808080610853565b7f94280d62000000000000000000000000000000000000000000000000000000005f525f60045260245ffd5b7fe602df05000000000000000000000000000000000000000000000000000000005f525f60045260245ffd5b506001600160a01b0383917ffb8f41b2000000000000000000000000000000000000000000000000000000005f521660045260245260445260645ffd5b6001600160a01b03169081156109f8576001600160a01b03169182156109cc57815f525f60205260405f20548181106109b357817fddf252ad1be2c89b69c2b068fc378daa952ba7f163c4a11628f55a4df523b3ef92602092855f525f84520360405f2055845f525f825260405f20818154019055604051908152a3565b8263391434e360e21b5f5260045260245260445260645ffd5b7fec442f05000000000000000000000000000000000000000000000000000000005f525f60045260245ffd5b7f96c6fd1e000000000000000000000000000000000000000000000000000000005f525f60045260245ffd5b6001600160a01b037f000000000000000000000000000000000000000000000000000000000000000016301480610b17575b15610a7f577f000000000000000000000000000000000000000000000000000000000000000090565b60405160208101907f8b73c3c69bb8fe3d512ecc4cf759cc79239f7b179b0ffacaa9a75d522b39400f82527f000000000000000000000000000000000000000000000000000000000000000060408201527f000000000000000000000000000000000000000000000000000000000000000060608201524660808201523060a082015260a08152610b1160c0826107e5565b51902090565b507f00000000000000000000000000000000000000000000000000000000000000004614610a56565b9091906001600160a01b031680156109f857805f525f60205260405f2054838110610baa576020845f94957fddf252ad1be2c89b69c2b068fc378daa952ba7f163c4a11628f55a4df523b3ef938587528684520360408620558060025403600255604051908152a3565b915063391434e360e21b5f5260045260245260445260645ffd5b6001600160a01b03169081156108cc576001600160a01b03169182156108a05760207f8c5be1e5ebec7d5bd14f71427d1e84f3dd0314c0f7b2291e5b200ac8c7c3b92591835f526001825260405f20855f5282528060405f2055604051908152a3565b60ff8114610c865760ff811690601f8211610c5e5760405191610c4b6040846107e5565b6020808452838101919036833783525290565b7fb3512b0c000000000000000000000000000000000000000000000000000000005f5260045ffd5b50604051610ca081610c99816005610764565b03826107e5565b90565b60ff8114610cc75760ff811690601f8211610c5e5760405191610c4b6040846107e5565b50604051610ca081610c99816006610764565b91907f7fffffffffffffffffffffffffffffff5d576e7357a4501ddfe92f46681b20a08411610d5c579160209360809260ff5f9560405194855216868401526040830152606082015282805260015afa15610d51575f516001600160a01b03811615610d4757905f905f90565b505f906001905f90565b6040513d5f823e3d90fd5b5050505f9160039190565b6004811015610e125780610d79575050565b60018103610da9577ff645eedf000000000000000000000000000000000000000000000000000000005f5260045ffd5b60028103610ddd57507ffce698f7000000000000000000000000000000000000000000000000000000005f5260045260245ffd5b600314610de75750565b7fd78bce0c000000000000000000000000000000000000000000000000000000005f5260045260245ffd5b634e487b7160e01b5f52602160045260245ffdfea264697066735822122077b455a4a4c99a5143fbc5e2f247fd53f7e02ab0a6cb431ffc193b36ae93bd8564736f6c63430008220033",
  "linkReferences": {},
  "deployedLinkReferences": {},
  "immutableReferences": {
    "4298": [
      {
        "length": 32,
        "start": 2653
      }
    ],
    "4300": [
      {
        "length": 32,
        "start": 2842
      }
    ],
    "4302": [
      {
        "length": 32,
        "start": 2606
      }
    ],
    "4304": [
      {
        "length": 32,
        "start": 2732
      }
    ],
    "4306": [
      {
        "length": 32,
        "start": 2770
      }
    ],
    "4309": [
      {
        "length": 32,
        "start": 970
      }
    ],
    "4312": [
      {
        "length": 32,
        "start": 1011
      }
    ]
  },
  "inputSourceName": "project/evm/protocol/PexfiToken.sol",
  "buildInfoId": "solc-0_8_34-0559373c263e1f27303304b8859514420a3d9598"
}