{
  "_format": "hh-sol-artifact-1",
  "contractName": "PriceFeed",
  "sourceName": "evm/protocol/PriceFeed.sol",
  "abi": [
    {
      "inputs": [
        {
          "internalType": "string",
          "name": "name_",
          "type": "string"
        }
      ],
      "stateMutability": "nonpayable",
      "type": "constructor"
    },
    {
      "inputs": [
        {
          "internalType": "address",
          "name": "owner",
          "type": "address"
        }
      ],
      "name": "OwnableInvalidOwner",
      "type": "error"
    },
    {
      "inputs": [
        {
          "internalType": "address",
          "name": "account",
          "type": "address"
        }
      ],
      "name": "OwnableUnauthorizedAccount",
      "type": "error"
    },
    {
      "anonymous": false,
      "inputs": [
        {
          "indexed": true,
          "internalType": "address",
          "name": "previousOwner",
          "type": "address"
        },
        {
          "indexed": true,
          "internalType": "address",
          "name": "newOwner",
          "type": "address"
        }
      ],
      "name": "OwnershipTransferred",
      "type": "event"
    },
    {
      "inputs": [],
      "name": "decimals",
      "outputs": [
        {
          "internalType": "uint8",
          "name": "",
          "type": "uint8"
        }
      ],
      "stateMutability": "view",
      "type": "function"
    },
    {
      "inputs": [],
      "name": "description",
      "outputs": [
        {
          "internalType": "string",
          "name": "",
          "type": "string"
        }
      ],
      "stateMutability": "view",
      "type": "function"
    },
    {
      "inputs": [],
      "name": "latestRoundData",
      "outputs": [
        {
          "internalType": "uint80",
          "name": "roundId",
          "type": "uint80"
        },
        {
          "internalType": "int256",
          "name": "answer",
          "type": "int256"
        },
        {
          "internalType": "uint256",
          "name": "startedAt",
          "type": "uint256"
        },
        {
          "internalType": "uint256",
          "name": "updatedAt",
          "type": "uint256"
        },
        {
          "internalType": "uint80",
          "name": "answeredInRound",
          "type": "uint80"
        }
      ],
      "stateMutability": "view",
      "type": "function"
    },
    {
      "inputs": [],
      "name": "latestTimestamp",
      "outputs": [
        {
          "internalType": "uint256",
          "name": "",
          "type": "uint256"
        }
      ],
      "stateMutability": "view",
      "type": "function"
    },
    {
      "inputs": [],
      "name": "owner",
      "outputs": [
        {
          "internalType": "address",
          "name": "",
          "type": "address"
        }
      ],
      "stateMutability": "view",
      "type": "function"
    },
    {
      "inputs": [],
      "name": "renounceOwnership",
      "outputs": [],
      "stateMutability": "nonpayable",
      "type": "function"
    },
    {
      "inputs": [
        {
          "internalType": "int256",
          "name": "rate",
          "type": "int256"
        }
      ],
      "name": "set",
      "outputs": [],
      "stateMutability": "nonpayable",
      "type": "function"
    },
    {
      "inputs": [
        {
          "internalType": "address",
          "name": "newOwner",
          "type": "address"
        }
      ],
      "name": "transferOwnership",
      "outputs": [],
      "stateMutability": "nonpayable",
      "type": "function"
    },
    {
      "inputs": [],
      "name": "version",
      "outputs": [
        {
          "internalType": "uint256",
          "name": "",
          "type": "uint256"
        }
      ],
      "stateMutability": "view",
      "type": "function"
    }
  ],
  "bytecode": "0x608080604052346102bc57610717803803809161001c82856102c1565b83398101906020818303126102bc578051906001600160401b0382116102bc57019080601f830112156102bc578151916001600160401b0383116102905760405192610072601f8201601f1916602001856102c1565b8084526020840192602082840101116102bc5782602061009293016102e4565b33156102a6576006602061012a926000549061010a6040519687933360018060a01b0382167f8be0079c531659141344cd1fd0a4f28419497f9722a3daafe3b4186f6b6457e0600080a36001600160a81b0319163360ff60a01b191617600160a31b17600055600160025551918290848601906102e4565b810165080bc81554d160d21b8382015203016019198101845201826102c1565b80516001600160401b03811161029057600154600181811c91168015610286575b602082101461027057601f811161020b575b50602091601f82116001146101a75791819260009261019c575b50508160011b916000199060031b1c1916176001555b60405161040f90816103088239f35b015190503880610177565b601f198216926001600052806000209160005b8581106101f3575083600195106101da575b505050811b0160015561018d565b015160001960f88460031b161c191690553880806101cc565b919260206001819286850151815501940192016101ba565b60016000527fb10e2d527612073b26eecdfd717e6a320cf44b4afac2b0732d9fcbe2b7fa0cf6601f830160051c81019160208410610266575b601f0160051c01905b81811061025a575061015d565b6000815560010161024d565b9091508190610244565b634e487b7160e01b600052602260045260246000fd5b90607f169061014b565b634e487b7160e01b600052604160045260246000fd5b631e4fbdf760e01b600052600060045260246000fd5b600080fd5b601f909101601f19168101906001600160401b0382119082101761029057604052565b60005b8381106102f75750506000910152565b81810151838201526020016102e756fe608080604052600436101561001357600080fd5b60003560e01c908163313ce5671461038f5750806354fd4d5014610371578063715018a6146103185780637284e416146101bb5780638205bf6a1461019d5780638da5cb5b14610174578063e5c19b2d1461014f578063f2fde38b146100c25763feaf968c1461008257600080fd5b346100bd5760003660031901126100bd5760a06004546003546040519160018352602083015260006040830152606082015260016080820152f35b600080fd5b346100bd5760203660031901126100bd576004356001600160a01b038116908190036100bd576100f06103b0565b801561013957600080546001600160a01b03198116831782556001600160a01b0316907f8be0079c531659141344cd1fd0a4f28419497f9722a3daafe3b4186f6b6457e09080a3005b631e4fbdf760e01b600052600060045260246000fd5b346100bd5760203660031901126100bd576101686103b0565b60048035905542600355005b346100bd5760003660031901126100bd576000546040516001600160a01b039091168152602090f35b346100bd5760003660031901126100bd576020600354604051908152f35b346100bd5760003660031901126100bd5760405160006001548060011c9060018116801561030e575b6020831081146102fa578285529081156102de5750600114610287575b50819003601f01601f191681019067ffffffffffffffff8211818310176102715781604052602082528181519182602083015260005b8381106102595750508160006040809484010152601f80199101168101030190f35b60208282018101516040878401015285935001610237565b634e487b7160e01b600052604160045260246000fd5b905060016000527fb10e2d527612073b26eecdfd717e6a320cf44b4afac2b0732d9fcbe2b7fa0cf66000905b8282106102c857506020915082010182610201565b60018160209254838588010152019101906102b3565b90506020925060ff191682840152151560051b82010182610201565b634e487b7160e01b84526022600452602484fd5b91607f16916101e4565b346100bd5760003660031901126100bd576103316103b0565b600080546001600160a01b0319811682556001600160a01b03167f8be0079c531659141344cd1fd0a4f28419497f9722a3daafe3b4186f6b6457e08280a3005b346100bd5760003660031901126100bd576020600254604051908152f35b346100bd5760003660031901126100bd5760209060ff60005460a01c168152f35b6000546001600160a01b031633036103c457565b63118cdaa760e01b6000523360045260246000fdfea2646970667358221220cd42a0412e5a49aa867e8d5dfd5c86e08ce804ddfb47a59dbf5d1fe65072a68b64736f6c634300081a0033",
  "linkReferences": {},
  "deployedLinkReferences": {}
}