{"project/evm/protocol/PriceFeed.sol":{"PriceFeed":{"abi":[{"inputs":[{"internalType":"string","name":"name_","type":"string"}],"stateMutability":"nonpayable","type":"constructor"},{"inputs":[{"internalType":"address","name":"owner","type":"address"}],"name":"OwnableInvalidOwner","type":"error"},{"inputs":[{"internalType":"address","name":"account","type":"address"}],"name":"OwnableUnauthorizedAccount","type":"error"},{"anonymous":false,"inputs":[{"indexed":true,"internalType":"address","name":"previousOwner","type":"address"},{"indexed":true,"internalType":"address","name":"newOwner","type":"address"}],"name":"OwnershipTransferred","type":"event"},{"inputs":[],"name":"decimals","outputs":[{"internalType":"uint8","name":"","type":"uint8"}],"stateMutability":"view","type":"function"},{"inputs":[],"name":"description","outputs":[{"internalType":"string","name":"","type":"string"}],"stateMutability":"view","type":"function"},{"inputs":[],"name":"latestRoundData","outputs":[{"internalType":"uint80","name":"roundId","type":"uint80"},{"internalType":"int256","name":"answer","type":"int256"},{"internalType":"uint256","name":"startedAt","type":"uint256"},{"internalType":"uint256","name":"updatedAt","type":"uint256"},{"internalType":"uint80","name":"answeredInRound","type":"uint80"}],"stateMutability":"view","type":"function"},{"inputs":[],"name":"latestTimestamp","outputs":[{"internalType":"uint256","name":"","type":"uint256"}],"stateMutability":"view","type":"function"},{"inputs":[],"name":"owner","outputs":[{"internalType":"address","name":"","type":"address"}],"stateMutability":"view","type":"function"},{"inputs":[],"name":"renounceOwnership","outputs":[],"stateMutability":"nonpayable","type":"function"},{"inputs":[{"internalType":"int256","name":"rate","type":"int256"}],"name":"set","outputs":[],"stateMutability":"nonpayable","type":"function"},{"inputs":[{"internalType":"address","name":"newOwner","type":"address"}],"name":"transferOwnership","outputs":[],"stateMutability":"nonpayable","type":"function"},{"inputs":[],"name":"version","outputs":[{"internalType":"uint256","name":"","type":"uint256"}],"stateMutability":"view","type":"function"}],"evm":{"bytecode":{"linkReferences":{},"object":"608080604052346102a2576106e7803803809161001c82856102a6565b83398101906020818303126102a2578051906001600160401b0382116102a257019080601f830112156102a25781516001600160401b03811161027b5760405192610071601f8301601f1916602001856102a6565b8184526020840192602083830101116102a257815f926020809301855e84010152331561028f576006602061011f925f54906040519586923360018060a01b0382167f8be0079c531659141344cd1fd0a4f28419497f9722a3daafe3b4186f6b6457e05f80a36001600160a81b0319163360ff60a01b191617600160a31b175f556001600255519081908385015e810165080bc81554d160d21b8382015203016019198101845201826102a6565b80516001600160401b03811161027b57600154600181811c91168015610271575b602082101461025d57601f81116101fa575b50602091601f821160011461019a579181925f9261018f575b50508160011b915f199060031b1c1916176001555b60405161041d90816102ca8239f35b015190505f8061016b565b601f1982169260015f52805f20915f5b8581106101e2575083600195106101ca575b505050811b01600155610180565b01515f1960f88460031b161c191690555f80806101bc565b919260206001819286850151815501940192016101aa565b60015f527fb10e2d527612073b26eecdfd717e6a320cf44b4afac2b0732d9fcbe2b7fa0cf6601f830160051c81019160208410610253575b601f0160051c01905b8181106102485750610152565b5f815560010161023b565b9091508190610232565b634e487b7160e01b5f52602260045260245ffd5b90607f1690610140565b634e487b7160e01b5f52604160045260245ffd5b631e4fbdf760e01b5f525f60045260245ffd5b5f80fd5b601f909101601f19168101906001600160401b0382119082101761027b5760405256fe6080806040526004361015610012575f80fd5b5f3560e01c908163313ce567146103895750806354fd4d501461036c578063715018a6146103085780637284e416146101cf5780638205bf6a146101b25780638da5cb5b1461018d578063e5c19b2d14610168578063f2fde38b146100bc5763feaf968c1461007f575f80fd5b346100b8575f3660031901126100b85760a0600454600354604051916001835260208301525f6040830152606082015260016080820152f35b5f80fd5b346100b85760203660031901126100b8576004356001600160a01b0381168091036100b8576100e96103a8565b801561013c576001600160a01b035f548273ffffffffffffffffffffffffffffffffffffffff198216175f55167f8be0079c531659141344cd1fd0a4f28419497f9722a3daafe3b4186f6b6457e05f80a3005b7f1e4fbdf7000000000000000000000000000000000000000000000000000000005f525f60045260245ffd5b346100b85760203660031901126100b8576101816103a8565b60048035905542600355005b346100b8575f3660031901126100b85760206001600160a01b035f5416604051908152f35b346100b8575f3660031901126100b8576020600354604051908152f35b346100b8575f3660031901126100b8576040515f600154908160011c600183169283156102fe575b6020821084146102ea5781855260208501939081156102d1575060011461027c575b50829003601f01601f191682019167ffffffffffffffff831181841017610268576040918391828452602083525180918160208501528484015e5f828201840152601f01601f19168101030190f35b634e487b7160e01b5f52604160045260245ffd5b905060015f527fb10e2d527612073b26eecdfd717e6a320cf44b4afac2b0732d9fcbe2b7fa0cf65f905b8282106102bb57506020915083010183610219565b60018160209254838589010152019101906102a6565b60ff1916845250151560051b8301602001905083610219565b634e487b7160e01b5f52602260045260245ffd5b90607f16906101f7565b346100b8575f3660031901126100b8576103206103a8565b5f6001600160a01b03815473ffffffffffffffffffffffffffffffffffffffff1981168355167f8be0079c531659141344cd1fd0a4f28419497f9722a3daafe3b4186f6b6457e08280a3005b346100b8575f3660031901126100b8576020600254604051908152f35b346100b8575f3660031901126100b85760209060ff5f5460a01c168152f35b6001600160a01b035f541633036103bb57565b7f118cdaa7000000000000000000000000000000000000000000000000000000005f523360045260245ffdfea264697066735822122079d920d01f3bd8bf4e84fb34a6f3c352903bf389befe82c0dd30cd5df9d1175b64736f6c634300081a0033","opcodes":"PUSH1 0x80 DUP1 PUSH1 0x40 MSTORE CALLVALUE PUSH2 0x2A2 JUMPI PUSH2 0x6E7 DUP1 CODESIZE SUB DUP1 SWAP2 PUSH2 0x1C DUP3 DUP6 PUSH2 0x2A6 JUMP JUMPDEST DUP4 CODECOPY DUP2 ADD SWAP1 PUSH1 0x20 DUP2 DUP4 SUB SLT PUSH2 0x2A2 JUMPI DUP1 MLOAD SWAP1 PUSH1 0x1 PUSH1 0x1 PUSH1 0x40 SHL SUB DUP3 GT PUSH2 0x2A2 JUMPI ADD SWAP1 DUP1 PUSH1 0x1F DUP4 ADD SLT ISZERO PUSH2 0x2A2 JUMPI DUP2 MLOAD PUSH1 0x1 PUSH1 0x1 PUSH1 0x40 SHL SUB DUP2 GT PUSH2 0x27B JUMPI PUSH1 0x40 MLOAD SWAP3 PUSH2 0x71 PUSH1 0x1F DUP4 ADD PUSH1 0x1F NOT AND PUSH1 0x20 ADD DUP6 PUSH2 0x2A6 JUMP JUMPDEST DUP2 DUP5 MSTORE PUSH1 0x20 DUP5 ADD SWAP3 PUSH1 0x20 DUP4 DUP4 ADD ADD GT PUSH2 0x2A2 JUMPI DUP2 PUSH0 SWAP3 PUSH1 0x20 DUP1 SWAP4 ADD DUP6 MCOPY DUP5 ADD ADD MSTORE CALLER ISZERO PUSH2 0x28F JUMPI PUSH1 0x6 PUSH1 0x20 PUSH2 0x11F SWAP3 PUSH0 SLOAD SWAP1 PUSH1 0x40 MLOAD SWAP6 DUP7 SWAP3 CALLER PUSH1 0x1 DUP1 PUSH1 0xA0 SHL SUB DUP3 AND PUSH32 0x8BE0079C531659141344CD1FD0A4F28419497F9722A3DAAFE3B4186F6B6457E0 PUSH0 DUP1 LOG3 PUSH1 0x1 PUSH1 0x1 PUSH1 0xA8 SHL SUB NOT AND CALLER PUSH1 0xFF PUSH1 0xA0 SHL NOT AND OR PUSH1 0x1 PUSH1 0xA3 SHL OR PUSH0 SSTORE PUSH1 0x1 PUSH1 0x2 SSTORE MLOAD SWAP1 DUP2 SWAP1 DUP4 DUP6 ADD MCOPY DUP2 ADD PUSH6 0x80BC81554D1 PUSH1 0xD2 SHL DUP4 DUP3 ADD MSTORE SUB ADD PUSH1 0x19 NOT DUP2 ADD DUP5 MSTORE ADD DUP3 PUSH2 0x2A6 JUMP JUMPDEST DUP1 MLOAD PUSH1 0x1 PUSH1 0x1 PUSH1 0x40 SHL SUB DUP2 GT PUSH2 0x27B JUMPI PUSH1 0x1 SLOAD PUSH1 0x1 DUP2 DUP2 SHR SWAP2 AND DUP1 ISZERO PUSH2 0x271 JUMPI JUMPDEST PUSH1 0x20 DUP3 LT EQ PUSH2 0x25D JUMPI PUSH1 0x1F DUP2 GT PUSH2 0x1FA JUMPI JUMPDEST POP PUSH1 0x20 SWAP2 PUSH1 0x1F DUP3 GT PUSH1 0x1 EQ PUSH2 0x19A JUMPI SWAP2 DUP2 SWAP3 PUSH0 SWAP3 PUSH2 0x18F JUMPI JUMPDEST POP POP DUP2 PUSH1 0x1 SHL SWAP2 PUSH0 NOT SWAP1 PUSH1 0x3 SHL SHR NOT AND OR PUSH1 0x1 SSTORE JUMPDEST PUSH1 0x40 MLOAD PUSH2 0x41D SWAP1 DUP2 PUSH2 0x2CA DUP3 CODECOPY RETURN JUMPDEST ADD MLOAD SWAP1 POP PUSH0 DUP1 PUSH2 0x16B JUMP JUMPDEST PUSH1 0x1F NOT DUP3 AND SWAP3 PUSH1 0x1 PUSH0 MSTORE DUP1 PUSH0 KECCAK256 SWAP2 PUSH0 JUMPDEST DUP6 DUP2 LT PUSH2 0x1E2 JUMPI POP DUP4 PUSH1 0x1 SWAP6 LT PUSH2 0x1CA JUMPI JUMPDEST POP POP POP DUP2 SHL ADD PUSH1 0x1 SSTORE PUSH2 0x180 JUMP JUMPDEST ADD MLOAD PUSH0 NOT PUSH1 0xF8 DUP5 PUSH1 0x3 SHL AND SHR NOT AND SWAP1 SSTORE PUSH0 DUP1 DUP1 PUSH2 0x1BC JUMP JUMPDEST SWAP2 SWAP3 PUSH1 0x20 PUSH1 0x1 DUP2 SWAP3 DUP7 DUP6 ADD MLOAD DUP2 SSTORE ADD SWAP5 ADD SWAP3 ADD PUSH2 0x1AA JUMP JUMPDEST PUSH1 0x1 PUSH0 MSTORE PUSH32 0xB10E2D527612073B26EECDFD717E6A320CF44B4AFAC2B0732D9FCBE2B7FA0CF6 PUSH1 0x1F DUP4 ADD PUSH1 0x5 SHR DUP2 ADD SWAP2 PUSH1 0x20 DUP5 LT PUSH2 0x253 JUMPI JUMPDEST PUSH1 0x1F ADD PUSH1 0x5 SHR ADD SWAP1 JUMPDEST DUP2 DUP2 LT PUSH2 0x248 JUMPI POP PUSH2 0x152 JUMP JUMPDEST PUSH0 DUP2 SSTORE PUSH1 0x1 ADD PUSH2 0x23B JUMP JUMPDEST SWAP1 SWAP2 POP DUP2 SWAP1 PUSH2 0x232 JUMP JUMPDEST PUSH4 0x4E487B71 PUSH1 0xE0 SHL PUSH0 MSTORE PUSH1 0x22 PUSH1 0x4 MSTORE PUSH1 0x24 PUSH0 REVERT JUMPDEST SWAP1 PUSH1 0x7F AND SWAP1 PUSH2 0x140 JUMP JUMPDEST PUSH4 0x4E487B71 PUSH1 0xE0 SHL PUSH0 MSTORE PUSH1 0x41 PUSH1 0x4 MSTORE PUSH1 0x24 PUSH0 REVERT JUMPDEST PUSH4 0x1E4FBDF7 PUSH1 0xE0 SHL PUSH0 MSTORE PUSH0 PUSH1 0x4 MSTORE PUSH1 0x24 PUSH0 REVERT JUMPDEST PUSH0 DUP1 REVERT JUMPDEST PUSH1 0x1F SWAP1 SWAP2 ADD PUSH1 0x1F NOT AND DUP2 ADD SWAP1 PUSH1 0x1 PUSH1 0x1 PUSH1 0x40 SHL SUB DUP3 GT SWAP1 DUP3 LT OR PUSH2 0x27B JUMPI PUSH1 0x40 MSTORE JUMP INVALID PUSH1 0x80 DUP1 PUSH1 0x40 MSTORE PUSH1 0x4 CALLDATASIZE LT ISZERO PUSH2 0x12 JUMPI PUSH0 DUP1 REVERT JUMPDEST PUSH0 CALLDATALOAD PUSH1 0xE0 SHR SWAP1 DUP2 PUSH4 0x313CE567 EQ PUSH2 0x389 JUMPI POP DUP1 PUSH4 0x54FD4D50 EQ PUSH2 0x36C JUMPI DUP1 PUSH4 0x715018A6 EQ PUSH2 0x308 JUMPI DUP1 PUSH4 0x7284E416 EQ PUSH2 0x1CF JUMPI DUP1 PUSH4 0x8205BF6A EQ PUSH2 0x1B2 JUMPI DUP1 PUSH4 0x8DA5CB5B EQ PUSH2 0x18D JUMPI DUP1 PUSH4 0xE5C19B2D EQ PUSH2 0x168 JUMPI DUP1 PUSH4 0xF2FDE38B EQ PUSH2 0xBC JUMPI PUSH4 0xFEAF968C EQ PUSH2 0x7F JUMPI PUSH0 DUP1 REVERT JUMPDEST CALLVALUE PUSH2 0xB8 JUMPI PUSH0 CALLDATASIZE PUSH1 0x3 NOT ADD SLT PUSH2 0xB8 JUMPI PUSH1 0xA0 PUSH1 0x4 SLOAD PUSH1 0x3 SLOAD PUSH1 0x40 MLOAD SWAP2 PUSH1 0x1 DUP4 MSTORE PUSH1 0x20 DUP4 ADD MSTORE PUSH0 PUSH1 0x40 DUP4 ADD MSTORE PUSH1 0x60 DUP3 ADD MSTORE PUSH1 0x1 PUSH1 0x80 DUP3 ADD MSTORE RETURN JUMPDEST PUSH0 DUP1 REVERT JUMPDEST CALLVALUE PUSH2 0xB8 JUMPI PUSH1 0x20 CALLDATASIZE PUSH1 0x3 NOT ADD SLT PUSH2 0xB8 JUMPI PUSH1 0x4 CALLDATALOAD PUSH1 0x1 PUSH1 0x1 PUSH1 0xA0 SHL SUB DUP2 AND DUP1 SWAP2 SUB PUSH2 0xB8 JUMPI PUSH2 0xE9 PUSH2 0x3A8 JUMP JUMPDEST DUP1 ISZERO PUSH2 0x13C JUMPI PUSH1 0x1 PUSH1 0x1 PUSH1 0xA0 SHL SUB PUSH0 SLOAD DUP3 PUSH20 0xFFFFFFFFFFFFFFFFFFFFFFFFFFFFFFFFFFFFFFFF NOT DUP3 AND OR PUSH0 SSTORE AND PUSH32 0x8BE0079C531659141344CD1FD0A4F28419497F9722A3DAAFE3B4186F6B6457E0 PUSH0 DUP1 LOG3 STOP JUMPDEST PUSH32 0x1E4FBDF700000000000000000000000000000000000000000000000000000000 PUSH0 MSTORE PUSH0 PUSH1 0x4 MSTORE PUSH1 0x24 PUSH0 REVERT JUMPDEST CALLVALUE PUSH2 0xB8 JUMPI PUSH1 0x20 CALLDATASIZE PUSH1 0x3 NOT ADD SLT PUSH2 0xB8 JUMPI PUSH2 0x181 PUSH2 0x3A8 JUMP JUMPDEST PUSH1 0x4 DUP1 CALLDATALOAD SWAP1 SSTORE TIMESTAMP PUSH1 0x3 SSTORE STOP JUMPDEST CALLVALUE PUSH2 0xB8 JUMPI PUSH0 CALLDATASIZE PUSH1 0x3 NOT ADD SLT PUSH2 0xB8 JUMPI PUSH1 0x20 PUSH1 0x1 PUSH1 0x1 PUSH1 0xA0 SHL SUB PUSH0 SLOAD AND PUSH1 0x40 MLOAD SWAP1 DUP2 MSTORE RETURN JUMPDEST CALLVALUE PUSH2 0xB8 JUMPI PUSH0 CALLDATASIZE PUSH1 0x3 NOT ADD SLT PUSH2 0xB8 JUMPI PUSH1 0x20 PUSH1 0x3 SLOAD PUSH1 0x40 MLOAD SWAP1 DUP2 MSTORE RETURN JUMPDEST CALLVALUE PUSH2 0xB8 JUMPI PUSH0 CALLDATASIZE PUSH1 0x3 NOT ADD SLT PUSH2 0xB8 JUMPI PUSH1 0x40 MLOAD PUSH0 PUSH1 0x1 SLOAD SWAP1 DUP2 PUSH1 0x1 SHR PUSH1 0x1 DUP4 AND SWAP3 DUP4 ISZERO PUSH2 0x2FE JUMPI JUMPDEST PUSH1 0x20 DUP3 LT DUP5 EQ PUSH2 0x2EA JUMPI DUP2 DUP6 MSTORE PUSH1 0x20 DUP6 ADD SWAP4 SWAP1 DUP2 ISZERO PUSH2 0x2D1 JUMPI POP PUSH1 0x1 EQ PUSH2 0x27C JUMPI JUMPDEST POP DUP3 SWAP1 SUB PUSH1 0x1F ADD PUSH1 0x1F NOT AND DUP3 ADD SWAP2 PUSH8 0xFFFFFFFFFFFFFFFF DUP4 GT DUP2 DUP5 LT OR PUSH2 0x268 JUMPI PUSH1 0x40 SWAP2 DUP4 SWAP2 DUP3 DUP5 MSTORE PUSH1 0x20 DUP4 MSTORE MLOAD DUP1 SWAP2 DUP2 PUSH1 0x20 DUP6 ADD MSTORE DUP5 DUP5 ADD MCOPY PUSH0 DUP3 DUP3 ADD DUP5 ADD MSTORE PUSH1 0x1F ADD PUSH1 0x1F NOT AND DUP2 ADD SUB ADD SWAP1 RETURN JUMPDEST PUSH4 0x4E487B71 PUSH1 0xE0 SHL PUSH0 MSTORE PUSH1 0x41 PUSH1 0x4 MSTORE PUSH1 0x24 PUSH0 REVERT JUMPDEST SWAP1 POP PUSH1 0x1 PUSH0 MSTORE PUSH32 0xB10E2D527612073B26EECDFD717E6A320CF44B4AFAC2B0732D9FCBE2B7FA0CF6 PUSH0 SWAP1 JUMPDEST DUP3 DUP3 LT PUSH2 0x2BB JUMPI POP PUSH1 0x20 SWAP2 POP DUP4 ADD ADD DUP4 PUSH2 0x219 JUMP JUMPDEST PUSH1 0x1 DUP2 PUSH1 0x20 SWAP3 SLOAD DUP4 DUP6 DUP10 ADD ADD MSTORE ADD SWAP2 ADD SWAP1 PUSH2 0x2A6 JUMP JUMPDEST PUSH1 0xFF NOT AND DUP5 MSTORE POP ISZERO ISZERO PUSH1 0x5 SHL DUP4 ADD PUSH1 0x20 ADD SWAP1 POP DUP4 PUSH2 0x219 JUMP JUMPDEST PUSH4 0x4E487B71 PUSH1 0xE0 SHL PUSH0 MSTORE PUSH1 0x22 PUSH1 0x4 MSTORE PUSH1 0x24 PUSH0 REVERT JUMPDEST SWAP1 PUSH1 0x7F AND SWAP1 PUSH2 0x1F7 JUMP JUMPDEST CALLVALUE PUSH2 0xB8 JUMPI PUSH0 CALLDATASIZE PUSH1 0x3 NOT ADD SLT PUSH2 0xB8 JUMPI PUSH2 0x320 PUSH2 0x3A8 JUMP JUMPDEST PUSH0 PUSH1 0x1 PUSH1 0x1 PUSH1 0xA0 SHL SUB DUP2 SLOAD PUSH20 0xFFFFFFFFFFFFFFFFFFFFFFFFFFFFFFFFFFFFFFFF NOT DUP2 AND DUP4 SSTORE AND PUSH32 0x8BE0079C531659141344CD1FD0A4F28419497F9722A3DAAFE3B4186F6B6457E0 DUP3 DUP1 LOG3 STOP JUMPDEST CALLVALUE PUSH2 0xB8 JUMPI PUSH0 CALLDATASIZE PUSH1 0x3 NOT ADD SLT PUSH2 0xB8 JUMPI PUSH1 0x20 PUSH1 0x2 SLOAD PUSH1 0x40 MLOAD SWAP1 DUP2 MSTORE RETURN JUMPDEST CALLVALUE PUSH2 0xB8 JUMPI PUSH0 CALLDATASIZE PUSH1 0x3 NOT ADD SLT PUSH2 0xB8 JUMPI PUSH1 0x20 SWAP1 PUSH1 0xFF PUSH0 SLOAD PUSH1 0xA0 SHR AND DUP2 MSTORE RETURN JUMPDEST PUSH1 0x1 PUSH1 0x1 PUSH1 0xA0 SHL SUB PUSH0 SLOAD AND CALLER SUB PUSH2 0x3BB JUMPI JUMP JUMPDEST PUSH32 0x118CDAA700000000000000000000000000000000000000000000000000000000 PUSH0 MSTORE CALLER PUSH1 0x4 MSTORE PUSH1 0x24 PUSH0 REVERT INVALID LOG2 PUSH5 0x6970667358 0x22 SLT KECCAK256 PUSH26 0xD920D01F3BD8BF4E84FB34A6F3C352903BF389BEFE82C0DD30CD TSTORE 0xF9 0xD1 OR JUMPDEST PUSH5 0x736F6C6343 STOP ADDMOD BYTE STOP CALLER "},"methodIdentifiers":{"decimals()":"313ce567","description()":"7284e416","latestRoundData()":"feaf968c","latestTimestamp()":"8205bf6a","owner()":"8da5cb5b","renounceOwnership()":"715018a6","set(int256)":"e5c19b2d","transferOwnership(address)":"f2fde38b","version()":"54fd4d50"}}}}}