{"project/evm/protocol/mocks/MockERC20.sol":{"MockERC20":{"abi":[{"inputs":[{"internalType":"string","name":"$symbol","type":"string"},{"internalType":"uint8","name":"$decimals","type":"uint8"}],"stateMutability":"nonpayable","type":"constructor"},{"inputs":[{"internalType":"address","name":"spender","type":"address"},{"internalType":"uint256","name":"allowance","type":"uint256"},{"internalType":"uint256","name":"needed","type":"uint256"}],"name":"ERC20InsufficientAllowance","type":"error"},{"inputs":[{"internalType":"address","name":"sender","type":"address"},{"internalType":"uint256","name":"balance","type":"uint256"},{"internalType":"uint256","name":"needed","type":"uint256"}],"name":"ERC20InsufficientBalance","type":"error"},{"inputs":[{"internalType":"address","name":"approver","type":"address"}],"name":"ERC20InvalidApprover","type":"error"},{"inputs":[{"internalType":"address","name":"receiver","type":"address"}],"name":"ERC20InvalidReceiver","type":"error"},{"inputs":[{"internalType":"address","name":"sender","type":"address"}],"name":"ERC20InvalidSender","type":"error"},{"inputs":[{"internalType":"address","name":"spender","type":"address"}],"name":"ERC20InvalidSpender","type":"error"},{"anonymous":false,"inputs":[{"indexed":true,"internalType":"address","name":"owner","type":"address"},{"indexed":true,"internalType":"address","name":"spender","type":"address"},{"indexed":false,"internalType":"uint256","name":"value","type":"uint256"}],"name":"Approval","type":"event"},{"anonymous":false,"inputs":[{"indexed":true,"internalType":"address","name":"from","type":"address"},{"indexed":true,"internalType":"address","name":"to","type":"address"},{"indexed":false,"internalType":"uint256","name":"value","type":"uint256"}],"name":"Transfer","type":"event"},{"inputs":[{"internalType":"address","name":"owner","type":"address"},{"internalType":"address","name":"spender","type":"address"}],"name":"allowance","outputs":[{"internalType":"uint256","name":"","type":"uint256"}],"stateMutability":"view","type":"function"},{"inputs":[{"internalType":"address","name":"spender","type":"address"},{"internalType":"uint256","name":"value","type":"uint256"}],"name":"approve","outputs":[{"internalType":"bool","name":"","type":"bool"}],"stateMutability":"nonpayable","type":"function"},{"inputs":[{"internalType":"address","name":"account","type":"address"}],"name":"balanceOf","outputs":[{"internalType":"uint256","name":"","type":"uint256"}],"stateMutability":"view","type":"function"},{"inputs":[],"name":"decimals","outputs":[{"internalType":"uint8","name":"","type":"uint8"}],"stateMutability":"view","type":"function"},{"inputs":[{"internalType":"uint256","name":"amount","type":"uint256"}],"name":"giveme","outputs":[],"stateMutability":"nonpayable","type":"function"},{"inputs":[],"name":"name","outputs":[{"internalType":"string","name":"","type":"string"}],"stateMutability":"view","type":"function"},{"inputs":[],"name":"symbol","outputs":[{"internalType":"string","name":"","type":"string"}],"stateMutability":"view","type":"function"},{"inputs":[],"name":"totalSupply","outputs":[{"internalType":"uint256","name":"","type":"uint256"}],"stateMutability":"view","type":"function"},{"inputs":[{"internalType":"address","name":"to","type":"address"},{"internalType":"uint256","name":"value","type":"uint256"}],"name":"transfer","outputs":[{"internalType":"bool","name":"","type":"bool"}],"stateMutability":"nonpayable","type":"function"},{"inputs":[{"internalType":"address","name":"from","type":"address"},{"internalType":"address","name":"to","type":"address"},{"internalType":"uint256","name":"value","type":"uint256"}],"name":"transferFrom","outputs":[{"internalType":"bool","name":"","type":"bool"}],"stateMutability":"nonpayable","type":"function"}],"evm":{"bytecode":{"linkReferences":{},"object":"6080806040523461040c57610b69803803809161001c8285610410565b833981019060408183031261040c5780516001600160401b03811161040c57810182601f8201121561040c578051916001600160401b03831161031d5760405192610071601f8201601f191660200185610410565b80845260208401946020828501011161040c576020815f9282809601885e85010152015160ff811680910361040c576100d560246040518095634d6f636b60e01b6020830152855180918484015e81015f838201520301601f198101855284610410565b82516001600160401b03811161031d57600354600181811c91168015610402575b60208210146102ff57601f811161039f575b506020601f821160011461033c57819293945f92610331575b50508160011b915f199060031b1c1916176003555b81516001600160401b03811161031d57600454600181811c91168015610313575b60208210146102ff57601f811161029c575b50602092601f821160011461023b57928192935f92610230575b50508160011b915f199060031b1c1916176004555b60ff196005541617600555331561021d576002545f19810180911161020957600255335f525f60205260405f205f1981540190556040515f1981525f7fddf252ad1be2c89b69c2b068fc378daa952ba7f163c4a11628f55a4df523b3ef60203393a360405161073590816104348239f35b634e487b7160e01b5f52601160045260245ffd5b63ec442f0560e01b5f525f60045260245ffd5b015190505f80610183565b601f1982169360045f52805f20915f5b868110610284575083600195961061026c575b505050811b01600455610198565b01515f1960f88460031b161c191690555f808061025e565b9192602060018192868501518155019401920161024b565b60045f527f8a35acfbc15ff81a39ae7d344fd709f28e8600b4aa8c65c6b64bfe7fe36bd19b601f830160051c810191602084106102f5575b601f0160051c01905b8181106102ea5750610169565b5f81556001016102dd565b90915081906102d4565b634e487b7160e01b5f52602260045260245ffd5b90607f1690610157565b634e487b7160e01b5f52604160045260245ffd5b015190505f80610121565b601f1982169060035f52805f20915f5b8181106103875750958360019596971061036f575b505050811b01600355610136565b01515f1960f88460031b161c191690555f8080610361565b9192602060018192868b01518155019401920161034c565b60035f527fc2575a0e9e593c00f959f8c92f12db2869c3395a3b0502d05e2516446f71f85b601f830160051c810191602084106103f8575b601f0160051c01905b8181106103ed5750610108565b5f81556001016103e0565b90915081906103d7565b90607f16906100f6565b5f80fd5b601f909101601f19168101906001600160401b0382119082101761031d5760405256fe6080806040526004361015610012575f80fd5b5f3560e01c90816306fdde03146104fe57508063095ea7b31461047c57806318160ddd1461045f57806323b872dd1461032f578063313ce5671461030f5780635bd2485b1461026557806370a082311461022e57806395d89b4114610113578063a9059cbb146100e25763dd62ed3e1461008a575f80fd5b346100de5760403660031901126100de576100a36105f7565b6001600160a01b036100b361060d565b91165f5260016020526001600160a01b0360405f2091165f52602052602060405f2054604051908152f35b5f80fd5b346100de5760403660031901126100de576101086100fe6105f7565b6024359033610623565b602060405160018152f35b346100de575f3660031901126100de576040515f6004548060011c90600181168015610224575b602083108114610210578285529081156101f4575060011461019f575b50819003601f01601f191681019067ffffffffffffffff82118183101761018b57610187829182604052826105cd565b0390f35b634e487b7160e01b5f52604160045260245ffd5b905060045f527f8a35acfbc15ff81a39ae7d344fd709f28e8600b4aa8c65c6b64bfe7fe36bd19b5f905b8282106101de57506020915082010182610157565b60018160209254838588010152019101906101c9565b90506020925060ff191682840152151560051b82010182610157565b634e487b7160e01b5f52602260045260245ffd5b91607f169161013a565b346100de5760203660031901126100de576001600160a01b0361024f6105f7565b165f525f602052602060405f2054604051908152f35b346100de5760203660031901126100de5760043533156102e3576002548181018091116102cf57600255335f525f60205260405f208181540190556040519081525f7fddf252ad1be2c89b69c2b068fc378daa952ba7f163c4a11628f55a4df523b3ef60203393a3005b634e487b7160e01b5f52601160045260245ffd5b7fec442f05000000000000000000000000000000000000000000000000000000005f525f60045260245ffd5b346100de575f3660031901126100de57602060ff60055416604051908152f35b346100de5760603660031901126100de576103486105f7565b61035061060d565b604435906001600160a01b03831692835f52600160205260405f206001600160a01b0333165f5260205260405f20545f198110610393575b506101089350610623565b83811061042b5784156103ff5733156103d357610108945f52600160205260405f206001600160a01b0333165f526020528360405f209103905584610388565b7f94280d62000000000000000000000000000000000000000000000000000000005f525f60045260245ffd5b7fe602df05000000000000000000000000000000000000000000000000000000005f525f60045260245ffd5b83907ffb8f41b2000000000000000000000000000000000000000000000000000000005f523360045260245260445260645ffd5b346100de575f3660031901126100de576020600254604051908152f35b346100de5760403660031901126100de576104956105f7565b6024359033156103ff576001600160a01b03169081156103d357335f52600160205260405f20825f526020528060405f20556040519081527f8c5be1e5ebec7d5bd14f71427d1e84f3dd0314c0f7b2291e5b200ac8c7c3b92560203392a3602060405160018152f35b346100de575f3660031901126100de575f6003548060011c906001811680156105c3575b602083108114610210578285529081156101f4575060011461056e5750819003601f01601f191681019067ffffffffffffffff82118183101761018b57610187829182604052826105cd565b905060035f527fc2575a0e9e593c00f959f8c92f12db2869c3395a3b0502d05e2516446f71f85b5f905b8282106105ad57506020915082010182610157565b6001816020925483858801015201910190610598565b91607f1691610522565b602060409281835280519182918282860152018484015e5f828201840152601f01601f1916010190565b600435906001600160a01b03821682036100de57565b602435906001600160a01b03821682036100de57565b6001600160a01b03169081156106d3576001600160a01b03169182156102e357815f525f60205260405f20548181106106a157817fddf252ad1be2c89b69c2b068fc378daa952ba7f163c4a11628f55a4df523b3ef92602092855f525f84520360405f2055845f525f825260405f20818154019055604051908152a3565b827fe450d38c000000000000000000000000000000000000000000000000000000005f5260045260245260445260645ffd5b7f96c6fd1e000000000000000000000000000000000000000000000000000000005f525f60045260245ffdfea264697066735822122057b7c3dab471901697316b0cec3134b0528ce05258818edc2c542a78ca24e57d64736f6c634300081a0033","opcodes":"PUSH1 0x80 DUP1 PUSH1 0x40 MSTORE CALLVALUE PUSH2 0x40C JUMPI PUSH2 0xB69 DUP1 CODESIZE SUB DUP1 SWAP2 PUSH2 0x1C DUP3 DUP6 PUSH2 0x410 JUMP JUMPDEST DUP4 CODECOPY DUP2 ADD SWAP1 PUSH1 0x40 DUP2 DUP4 SUB SLT PUSH2 0x40C JUMPI DUP1 MLOAD PUSH1 0x1 PUSH1 0x1 PUSH1 0x40 SHL SUB DUP2 GT PUSH2 0x40C JUMPI DUP2 ADD DUP3 PUSH1 0x1F DUP3 ADD SLT ISZERO PUSH2 0x40C JUMPI DUP1 MLOAD SWAP2 PUSH1 0x1 PUSH1 0x1 PUSH1 0x40 SHL SUB DUP4 GT PUSH2 0x31D JUMPI PUSH1 0x40 MLOAD SWAP3 PUSH2 0x71 PUSH1 0x1F DUP3 ADD PUSH1 0x1F NOT AND PUSH1 0x20 ADD DUP6 PUSH2 0x410 JUMP JUMPDEST DUP1 DUP5 MSTORE PUSH1 0x20 DUP5 ADD SWAP5 PUSH1 0x20 DUP3 DUP6 ADD ADD GT PUSH2 0x40C JUMPI PUSH1 0x20 DUP2 PUSH0 SWAP3 DUP3 DUP1 SWAP7 ADD DUP9 MCOPY DUP6 ADD ADD MSTORE ADD MLOAD PUSH1 0xFF DUP2 AND DUP1 SWAP2 SUB PUSH2 0x40C JUMPI PUSH2 0xD5 PUSH1 0x24 PUSH1 0x40 MLOAD DUP1 SWAP6 PUSH4 0x4D6F636B PUSH1 0xE0 SHL PUSH1 0x20 DUP4 ADD MSTORE DUP6 MLOAD DUP1 SWAP2 DUP5 DUP5 ADD MCOPY DUP2 ADD PUSH0 DUP4 DUP3 ADD MSTORE SUB ADD PUSH1 0x1F NOT DUP2 ADD DUP6 MSTORE DUP5 PUSH2 0x410 JUMP JUMPDEST DUP3 MLOAD PUSH1 0x1 PUSH1 0x1 PUSH1 0x40 SHL SUB DUP2 GT PUSH2 0x31D JUMPI PUSH1 0x3 SLOAD PUSH1 0x1 DUP2 DUP2 SHR SWAP2 AND DUP1 ISZERO PUSH2 0x402 JUMPI JUMPDEST PUSH1 0x20 DUP3 LT EQ PUSH2 0x2FF JUMPI PUSH1 0x1F DUP2 GT PUSH2 0x39F JUMPI JUMPDEST POP PUSH1 0x20 PUSH1 0x1F DUP3 GT PUSH1 0x1 EQ PUSH2 0x33C JUMPI DUP2 SWAP3 SWAP4 SWAP5 PUSH0 SWAP3 PUSH2 0x331 JUMPI JUMPDEST POP POP DUP2 PUSH1 0x1 SHL SWAP2 PUSH0 NOT SWAP1 PUSH1 0x3 SHL SHR NOT AND OR PUSH1 0x3 SSTORE JUMPDEST DUP2 MLOAD PUSH1 0x1 PUSH1 0x1 PUSH1 0x40 SHL SUB DUP2 GT PUSH2 0x31D JUMPI PUSH1 0x4 SLOAD PUSH1 0x1 DUP2 DUP2 SHR SWAP2 AND DUP1 ISZERO PUSH2 0x313 JUMPI JUMPDEST PUSH1 0x20 DUP3 LT EQ PUSH2 0x2FF JUMPI PUSH1 0x1F DUP2 GT PUSH2 0x29C JUMPI JUMPDEST POP PUSH1 0x20 SWAP3 PUSH1 0x1F DUP3 GT PUSH1 0x1 EQ PUSH2 0x23B JUMPI SWAP3 DUP2 SWAP3 SWAP4 PUSH0 SWAP3 PUSH2 0x230 JUMPI JUMPDEST POP POP DUP2 PUSH1 0x1 SHL SWAP2 PUSH0 NOT SWAP1 PUSH1 0x3 SHL SHR NOT AND OR PUSH1 0x4 SSTORE JUMPDEST PUSH1 0xFF NOT PUSH1 0x5 SLOAD AND OR PUSH1 0x5 SSTORE CALLER ISZERO PUSH2 0x21D JUMPI PUSH1 0x2 SLOAD PUSH0 NOT DUP2 ADD DUP1 SWAP2 GT PUSH2 0x209 JUMPI PUSH1 0x2 SSTORE CALLER PUSH0 MSTORE PUSH0 PUSH1 0x20 MSTORE PUSH1 0x40 PUSH0 KECCAK256 PUSH0 NOT DUP2 SLOAD ADD SWAP1 SSTORE PUSH1 0x40 MLOAD PUSH0 NOT DUP2 MSTORE PUSH0 PUSH32 0xDDF252AD1BE2C89B69C2B068FC378DAA952BA7F163C4A11628F55A4DF523B3EF PUSH1 0x20 CALLER SWAP4 LOG3 PUSH1 0x40 MLOAD PUSH2 0x735 SWAP1 DUP2 PUSH2 0x434 DUP3 CODECOPY RETURN JUMPDEST PUSH4 0x4E487B71 PUSH1 0xE0 SHL PUSH0 MSTORE PUSH1 0x11 PUSH1 0x4 MSTORE PUSH1 0x24 PUSH0 REVERT JUMPDEST PUSH4 0xEC442F05 PUSH1 0xE0 SHL PUSH0 MSTORE PUSH0 PUSH1 0x4 MSTORE PUSH1 0x24 PUSH0 REVERT JUMPDEST ADD MLOAD SWAP1 POP PUSH0 DUP1 PUSH2 0x183 JUMP JUMPDEST PUSH1 0x1F NOT DUP3 AND SWAP4 PUSH1 0x4 PUSH0 MSTORE DUP1 PUSH0 KECCAK256 SWAP2 PUSH0 JUMPDEST DUP7 DUP2 LT PUSH2 0x284 JUMPI POP DUP4 PUSH1 0x1 SWAP6 SWAP7 LT PUSH2 0x26C JUMPI JUMPDEST POP POP POP DUP2 SHL ADD PUSH1 0x4 SSTORE PUSH2 0x198 JUMP JUMPDEST ADD MLOAD PUSH0 NOT PUSH1 0xF8 DUP5 PUSH1 0x3 SHL AND SHR NOT AND SWAP1 SSTORE PUSH0 DUP1 DUP1 PUSH2 0x25E JUMP JUMPDEST SWAP2 SWAP3 PUSH1 0x20 PUSH1 0x1 DUP2 SWAP3 DUP7 DUP6 ADD MLOAD DUP2 SSTORE ADD SWAP5 ADD SWAP3 ADD PUSH2 0x24B JUMP JUMPDEST PUSH1 0x4 PUSH0 MSTORE PUSH32 0x8A35ACFBC15FF81A39AE7D344FD709F28E8600B4AA8C65C6B64BFE7FE36BD19B PUSH1 0x1F DUP4 ADD PUSH1 0x5 SHR DUP2 ADD SWAP2 PUSH1 0x20 DUP5 LT PUSH2 0x2F5 JUMPI JUMPDEST PUSH1 0x1F ADD PUSH1 0x5 SHR ADD SWAP1 JUMPDEST DUP2 DUP2 LT PUSH2 0x2EA JUMPI POP PUSH2 0x169 JUMP JUMPDEST PUSH0 DUP2 SSTORE PUSH1 0x1 ADD PUSH2 0x2DD JUMP JUMPDEST SWAP1 SWAP2 POP DUP2 SWAP1 PUSH2 0x2D4 JUMP JUMPDEST PUSH4 0x4E487B71 PUSH1 0xE0 SHL PUSH0 MSTORE PUSH1 0x22 PUSH1 0x4 MSTORE PUSH1 0x24 PUSH0 REVERT JUMPDEST SWAP1 PUSH1 0x7F AND SWAP1 PUSH2 0x157 JUMP JUMPDEST PUSH4 0x4E487B71 PUSH1 0xE0 SHL PUSH0 MSTORE PUSH1 0x41 PUSH1 0x4 MSTORE PUSH1 0x24 PUSH0 REVERT JUMPDEST ADD MLOAD SWAP1 POP PUSH0 DUP1 PUSH2 0x121 JUMP JUMPDEST PUSH1 0x1F NOT DUP3 AND SWAP1 PUSH1 0x3 PUSH0 MSTORE DUP1 PUSH0 KECCAK256 SWAP2 PUSH0 JUMPDEST DUP2 DUP2 LT PUSH2 0x387 JUMPI POP SWAP6 DUP4 PUSH1 0x1 SWAP6 SWAP7 SWAP8 LT PUSH2 0x36F JUMPI JUMPDEST POP POP POP DUP2 SHL ADD PUSH1 0x3 SSTORE PUSH2 0x136 JUMP JUMPDEST ADD MLOAD PUSH0 NOT PUSH1 0xF8 DUP5 PUSH1 0x3 SHL AND SHR NOT AND SWAP1 SSTORE PUSH0 DUP1 DUP1 PUSH2 0x361 JUMP JUMPDEST SWAP2 SWAP3 PUSH1 0x20 PUSH1 0x1 DUP2 SWAP3 DUP7 DUP12 ADD MLOAD DUP2 SSTORE ADD SWAP5 ADD SWAP3 ADD PUSH2 0x34C JUMP JUMPDEST PUSH1 0x3 PUSH0 MSTORE PUSH32 0xC2575A0E9E593C00F959F8C92F12DB2869C3395A3B0502D05E2516446F71F85B PUSH1 0x1F DUP4 ADD PUSH1 0x5 SHR DUP2 ADD SWAP2 PUSH1 0x20 DUP5 LT PUSH2 0x3F8 JUMPI JUMPDEST PUSH1 0x1F ADD PUSH1 0x5 SHR ADD SWAP1 JUMPDEST DUP2 DUP2 LT PUSH2 0x3ED JUMPI POP PUSH2 0x108 JUMP JUMPDEST PUSH0 DUP2 SSTORE PUSH1 0x1 ADD PUSH2 0x3E0 JUMP JUMPDEST SWAP1 SWAP2 POP DUP2 SWAP1 PUSH2 0x3D7 JUMP JUMPDEST SWAP1 PUSH1 0x7F AND SWAP1 PUSH2 0xF6 JUMP JUMPDEST PUSH0 DUP1 REVERT JUMPDEST PUSH1 0x1F SWAP1 SWAP2 ADD PUSH1 0x1F NOT AND DUP2 ADD SWAP1 PUSH1 0x1 PUSH1 0x1 PUSH1 0x40 SHL SUB DUP3 GT SWAP1 DUP3 LT OR PUSH2 0x31D JUMPI PUSH1 0x40 MSTORE JUMP INVALID PUSH1 0x80 DUP1 PUSH1 0x40 MSTORE PUSH1 0x4 CALLDATASIZE LT ISZERO PUSH2 0x12 JUMPI PUSH0 DUP1 REVERT JUMPDEST PUSH0 CALLDATALOAD PUSH1 0xE0 SHR SWAP1 DUP2 PUSH4 0x6FDDE03 EQ PUSH2 0x4FE JUMPI POP DUP1 PUSH4 0x95EA7B3 EQ PUSH2 0x47C JUMPI DUP1 PUSH4 0x18160DDD EQ PUSH2 0x45F JUMPI DUP1 PUSH4 0x23B872DD EQ PUSH2 0x32F JUMPI DUP1 PUSH4 0x313CE567 EQ PUSH2 0x30F JUMPI DUP1 PUSH4 0x5BD2485B EQ PUSH2 0x265 JUMPI DUP1 PUSH4 0x70A08231 EQ PUSH2 0x22E JUMPI DUP1 PUSH4 0x95D89B41 EQ PUSH2 0x113 JUMPI DUP1 PUSH4 0xA9059CBB EQ PUSH2 0xE2 JUMPI PUSH4 0xDD62ED3E EQ PUSH2 0x8A JUMPI PUSH0 DUP1 REVERT JUMPDEST CALLVALUE PUSH2 0xDE JUMPI PUSH1 0x40 CALLDATASIZE PUSH1 0x3 NOT ADD SLT PUSH2 0xDE JUMPI PUSH2 0xA3 PUSH2 0x5F7 JUMP JUMPDEST PUSH1 0x1 PUSH1 0x1 PUSH1 0xA0 SHL SUB PUSH2 0xB3 PUSH2 0x60D JUMP JUMPDEST SWAP2 AND PUSH0 MSTORE PUSH1 0x1 PUSH1 0x20 MSTORE PUSH1 0x1 PUSH1 0x1 PUSH1 0xA0 SHL SUB PUSH1 0x40 PUSH0 KECCAK256 SWAP2 AND PUSH0 MSTORE PUSH1 0x20 MSTORE PUSH1 0x20 PUSH1 0x40 PUSH0 KECCAK256 SLOAD PUSH1 0x40 MLOAD SWAP1 DUP2 MSTORE RETURN JUMPDEST PUSH0 DUP1 REVERT JUMPDEST CALLVALUE PUSH2 0xDE JUMPI PUSH1 0x40 CALLDATASIZE PUSH1 0x3 NOT ADD SLT PUSH2 0xDE JUMPI PUSH2 0x108 PUSH2 0xFE PUSH2 0x5F7 JUMP JUMPDEST PUSH1 0x24 CALLDATALOAD SWAP1 CALLER PUSH2 0x623 JUMP JUMPDEST PUSH1 0x20 PUSH1 0x40 MLOAD PUSH1 0x1 DUP2 MSTORE RETURN JUMPDEST CALLVALUE PUSH2 0xDE JUMPI PUSH0 CALLDATASIZE PUSH1 0x3 NOT ADD SLT PUSH2 0xDE JUMPI PUSH1 0x40 MLOAD PUSH0 PUSH1 0x4 SLOAD DUP1 PUSH1 0x1 SHR SWAP1 PUSH1 0x1 DUP2 AND DUP1 ISZERO PUSH2 0x224 JUMPI JUMPDEST PUSH1 0x20 DUP4 LT DUP2 EQ PUSH2 0x210 JUMPI DUP3 DUP6 MSTORE SWAP1 DUP2 ISZERO PUSH2 0x1F4 JUMPI POP PUSH1 0x1 EQ PUSH2 0x19F JUMPI JUMPDEST POP DUP2 SWAP1 SUB PUSH1 0x1F ADD PUSH1 0x1F NOT AND DUP2 ADD SWAP1 PUSH8 0xFFFFFFFFFFFFFFFF DUP3 GT DUP2 DUP4 LT OR PUSH2 0x18B JUMPI PUSH2 0x187 DUP3 SWAP2 DUP3 PUSH1 0x40 MSTORE DUP3 PUSH2 0x5CD JUMP JUMPDEST SUB SWAP1 RETURN JUMPDEST PUSH4 0x4E487B71 PUSH1 0xE0 SHL PUSH0 MSTORE PUSH1 0x41 PUSH1 0x4 MSTORE PUSH1 0x24 PUSH0 REVERT JUMPDEST SWAP1 POP PUSH1 0x4 PUSH0 MSTORE PUSH32 0x8A35ACFBC15FF81A39AE7D344FD709F28E8600B4AA8C65C6B64BFE7FE36BD19B PUSH0 SWAP1 JUMPDEST DUP3 DUP3 LT PUSH2 0x1DE JUMPI POP PUSH1 0x20 SWAP2 POP DUP3 ADD ADD DUP3 PUSH2 0x157 JUMP JUMPDEST PUSH1 0x1 DUP2 PUSH1 0x20 SWAP3 SLOAD DUP4 DUP6 DUP9 ADD ADD MSTORE ADD SWAP2 ADD SWAP1 PUSH2 0x1C9 JUMP JUMPDEST SWAP1 POP PUSH1 0x20 SWAP3 POP PUSH1 0xFF NOT AND DUP3 DUP5 ADD MSTORE ISZERO ISZERO PUSH1 0x5 SHL DUP3 ADD ADD DUP3 PUSH2 0x157 JUMP JUMPDEST PUSH4 0x4E487B71 PUSH1 0xE0 SHL PUSH0 MSTORE PUSH1 0x22 PUSH1 0x4 MSTORE PUSH1 0x24 PUSH0 REVERT JUMPDEST SWAP2 PUSH1 0x7F AND SWAP2 PUSH2 0x13A JUMP JUMPDEST CALLVALUE PUSH2 0xDE JUMPI PUSH1 0x20 CALLDATASIZE PUSH1 0x3 NOT ADD SLT PUSH2 0xDE JUMPI PUSH1 0x1 PUSH1 0x1 PUSH1 0xA0 SHL SUB PUSH2 0x24F PUSH2 0x5F7 JUMP JUMPDEST AND PUSH0 MSTORE PUSH0 PUSH1 0x20 MSTORE PUSH1 0x20 PUSH1 0x40 PUSH0 KECCAK256 SLOAD PUSH1 0x40 MLOAD SWAP1 DUP2 MSTORE RETURN JUMPDEST CALLVALUE PUSH2 0xDE JUMPI PUSH1 0x20 CALLDATASIZE PUSH1 0x3 NOT ADD SLT PUSH2 0xDE JUMPI PUSH1 0x4 CALLDATALOAD CALLER ISZERO PUSH2 0x2E3 JUMPI PUSH1 0x2 SLOAD DUP2 DUP2 ADD DUP1 SWAP2 GT PUSH2 0x2CF JUMPI PUSH1 0x2 SSTORE CALLER PUSH0 MSTORE PUSH0 PUSH1 0x20 MSTORE PUSH1 0x40 PUSH0 KECCAK256 DUP2 DUP2 SLOAD ADD SWAP1 SSTORE PUSH1 0x40 MLOAD SWAP1 DUP2 MSTORE PUSH0 PUSH32 0xDDF252AD1BE2C89B69C2B068FC378DAA952BA7F163C4A11628F55A4DF523B3EF PUSH1 0x20 CALLER SWAP4 LOG3 STOP JUMPDEST PUSH4 0x4E487B71 PUSH1 0xE0 SHL PUSH0 MSTORE PUSH1 0x11 PUSH1 0x4 MSTORE PUSH1 0x24 PUSH0 REVERT JUMPDEST PUSH32 0xEC442F0500000000000000000000000000000000000000000000000000000000 PUSH0 MSTORE PUSH0 PUSH1 0x4 MSTORE PUSH1 0x24 PUSH0 REVERT JUMPDEST CALLVALUE PUSH2 0xDE JUMPI PUSH0 CALLDATASIZE PUSH1 0x3 NOT ADD SLT PUSH2 0xDE JUMPI PUSH1 0x20 PUSH1 0xFF PUSH1 0x5 SLOAD AND PUSH1 0x40 MLOAD SWAP1 DUP2 MSTORE RETURN JUMPDEST CALLVALUE PUSH2 0xDE JUMPI PUSH1 0x60 CALLDATASIZE PUSH1 0x3 NOT ADD SLT PUSH2 0xDE JUMPI PUSH2 0x348 PUSH2 0x5F7 JUMP JUMPDEST PUSH2 0x350 PUSH2 0x60D JUMP JUMPDEST PUSH1 0x44 CALLDATALOAD SWAP1 PUSH1 0x1 PUSH1 0x1 PUSH1 0xA0 SHL SUB DUP4 AND SWAP3 DUP4 PUSH0 MSTORE PUSH1 0x1 PUSH1 0x20 MSTORE PUSH1 0x40 PUSH0 KECCAK256 PUSH1 0x1 PUSH1 0x1 PUSH1 0xA0 SHL SUB CALLER AND PUSH0 MSTORE PUSH1 0x20 MSTORE PUSH1 0x40 PUSH0 KECCAK256 SLOAD PUSH0 NOT DUP2 LT PUSH2 0x393 JUMPI JUMPDEST POP PUSH2 0x108 SWAP4 POP PUSH2 0x623 JUMP JUMPDEST DUP4 DUP2 LT PUSH2 0x42B JUMPI DUP5 ISZERO PUSH2 0x3FF JUMPI CALLER ISZERO PUSH2 0x3D3 JUMPI PUSH2 0x108 SWAP5 PUSH0 MSTORE PUSH1 0x1 PUSH1 0x20 MSTORE PUSH1 0x40 PUSH0 KECCAK256 PUSH1 0x1 PUSH1 0x1 PUSH1 0xA0 SHL SUB CALLER AND PUSH0 MSTORE PUSH1 0x20 MSTORE DUP4 PUSH1 0x40 PUSH0 KECCAK256 SWAP2 SUB SWAP1 SSTORE DUP5 PUSH2 0x388 JUMP JUMPDEST PUSH32 0x94280D6200000000000000000000000000000000000000000000000000000000 PUSH0 MSTORE PUSH0 PUSH1 0x4 MSTORE PUSH1 0x24 PUSH0 REVERT JUMPDEST PUSH32 0xE602DF0500000000000000000000000000000000000000000000000000000000 PUSH0 MSTORE PUSH0 PUSH1 0x4 MSTORE PUSH1 0x24 PUSH0 REVERT JUMPDEST DUP4 SWAP1 PUSH32 0xFB8F41B200000000000000000000000000000000000000000000000000000000 PUSH0 MSTORE CALLER PUSH1 0x4 MSTORE PUSH1 0x24 MSTORE PUSH1 0x44 MSTORE PUSH1 0x64 PUSH0 REVERT JUMPDEST CALLVALUE PUSH2 0xDE JUMPI PUSH0 CALLDATASIZE PUSH1 0x3 NOT ADD SLT PUSH2 0xDE JUMPI PUSH1 0x20 PUSH1 0x2 SLOAD PUSH1 0x40 MLOAD SWAP1 DUP2 MSTORE RETURN JUMPDEST CALLVALUE PUSH2 0xDE JUMPI PUSH1 0x40 CALLDATASIZE PUSH1 0x3 NOT ADD SLT PUSH2 0xDE JUMPI PUSH2 0x495 PUSH2 0x5F7 JUMP JUMPDEST PUSH1 0x24 CALLDATALOAD SWAP1 CALLER ISZERO PUSH2 0x3FF JUMPI PUSH1 0x1 PUSH1 0x1 PUSH1 0xA0 SHL SUB AND SWAP1 DUP2 ISZERO PUSH2 0x3D3 JUMPI CALLER PUSH0 MSTORE PUSH1 0x1 PUSH1 0x20 MSTORE PUSH1 0x40 PUSH0 KECCAK256 DUP3 PUSH0 MSTORE PUSH1 0x20 MSTORE DUP1 PUSH1 0x40 PUSH0 KECCAK256 SSTORE PUSH1 0x40 MLOAD SWAP1 DUP2 MSTORE PUSH32 0x8C5BE1E5EBEC7D5BD14F71427D1E84F3DD0314C0F7B2291E5B200AC8C7C3B925 PUSH1 0x20 CALLER SWAP3 LOG3 PUSH1 0x20 PUSH1 0x40 MLOAD PUSH1 0x1 DUP2 MSTORE RETURN JUMPDEST CALLVALUE PUSH2 0xDE JUMPI PUSH0 CALLDATASIZE PUSH1 0x3 NOT ADD SLT PUSH2 0xDE JUMPI PUSH0 PUSH1 0x3 SLOAD DUP1 PUSH1 0x1 SHR SWAP1 PUSH1 0x1 DUP2 AND DUP1 ISZERO PUSH2 0x5C3 JUMPI JUMPDEST PUSH1 0x20 DUP4 LT DUP2 EQ PUSH2 0x210 JUMPI DUP3 DUP6 MSTORE SWAP1 DUP2 ISZERO PUSH2 0x1F4 JUMPI POP PUSH1 0x1 EQ PUSH2 0x56E JUMPI POP DUP2 SWAP1 SUB PUSH1 0x1F ADD PUSH1 0x1F NOT AND DUP2 ADD SWAP1 PUSH8 0xFFFFFFFFFFFFFFFF DUP3 GT DUP2 DUP4 LT OR PUSH2 0x18B JUMPI PUSH2 0x187 DUP3 SWAP2 DUP3 PUSH1 0x40 MSTORE DUP3 PUSH2 0x5CD JUMP JUMPDEST SWAP1 POP PUSH1 0x3 PUSH0 MSTORE PUSH32 0xC2575A0E9E593C00F959F8C92F12DB2869C3395A3B0502D05E2516446F71F85B PUSH0 SWAP1 JUMPDEST DUP3 DUP3 LT PUSH2 0x5AD JUMPI POP PUSH1 0x20 SWAP2 POP DUP3 ADD ADD DUP3 PUSH2 0x157 JUMP JUMPDEST PUSH1 0x1 DUP2 PUSH1 0x20 SWAP3 SLOAD DUP4 DUP6 DUP9 ADD ADD MSTORE ADD SWAP2 ADD SWAP1 PUSH2 0x598 JUMP JUMPDEST SWAP2 PUSH1 0x7F AND SWAP2 PUSH2 0x522 JUMP JUMPDEST PUSH1 0x20 PUSH1 0x40 SWAP3 DUP2 DUP4 MSTORE DUP1 MLOAD SWAP2 DUP3 SWAP2 DUP3 DUP3 DUP7 ADD MSTORE ADD DUP5 DUP5 ADD MCOPY PUSH0 DUP3 DUP3 ADD DUP5 ADD MSTORE PUSH1 0x1F ADD PUSH1 0x1F NOT AND ADD ADD SWAP1 JUMP JUMPDEST PUSH1 0x4 CALLDATALOAD SWAP1 PUSH1 0x1 PUSH1 0x1 PUSH1 0xA0 SHL SUB DUP3 AND DUP3 SUB PUSH2 0xDE JUMPI JUMP JUMPDEST PUSH1 0x24 CALLDATALOAD SWAP1 PUSH1 0x1 PUSH1 0x1 PUSH1 0xA0 SHL SUB DUP3 AND DUP3 SUB PUSH2 0xDE JUMPI JUMP JUMPDEST PUSH1 0x1 PUSH1 0x1 PUSH1 0xA0 SHL SUB AND SWAP1 DUP2 ISZERO PUSH2 0x6D3 JUMPI PUSH1 0x1 PUSH1 0x1 PUSH1 0xA0 SHL SUB AND SWAP2 DUP3 ISZERO PUSH2 0x2E3 JUMPI DUP2 PUSH0 MSTORE PUSH0 PUSH1 0x20 MSTORE PUSH1 0x40 PUSH0 KECCAK256 SLOAD DUP2 DUP2 LT PUSH2 0x6A1 JUMPI DUP2 PUSH32 0xDDF252AD1BE2C89B69C2B068FC378DAA952BA7F163C4A11628F55A4DF523B3EF SWAP3 PUSH1 0x20 SWAP3 DUP6 PUSH0 MSTORE PUSH0 DUP5 MSTORE SUB PUSH1 0x40 PUSH0 KECCAK256 SSTORE DUP5 PUSH0 MSTORE PUSH0 DUP3 MSTORE PUSH1 0x40 PUSH0 KECCAK256 DUP2 DUP2 SLOAD ADD SWAP1 SSTORE PUSH1 0x40 MLOAD SWAP1 DUP2 MSTORE LOG3 JUMP JUMPDEST DUP3 PUSH32 0xE450D38C00000000000000000000000000000000000000000000000000000000 PUSH0 MSTORE PUSH1 0x4 MSTORE PUSH1 0x24 MSTORE PUSH1 0x44 MSTORE PUSH1 0x64 PUSH0 REVERT JUMPDEST PUSH32 0x96C6FD1E00000000000000000000000000000000000000000000000000000000 PUSH0 MSTORE PUSH0 PUSH1 0x4 MSTORE PUSH1 0x24 PUSH0 REVERT INVALID LOG2 PUSH5 0x6970667358 0x22 SLT KECCAK256 JUMPI 0xB7 0xC3 0xDA 0xB4 PUSH18 0x901697316B0CEC3134B0528CE05258818EDC 0x2C SLOAD 0x2A PUSH25 0xCA24E57D64736F6C634300081A003300000000000000000000 "},"methodIdentifiers":{"allowance(address,address)":"dd62ed3e","approve(address,uint256)":"095ea7b3","balanceOf(address)":"70a08231","decimals()":"313ce567","giveme(uint256)":"5bd2485b","name()":"06fdde03","symbol()":"95d89b41","totalSupply()":"18160ddd","transfer(address,uint256)":"a9059cbb","transferFrom(address,address,uint256)":"23b872dd"}}}}}