{"project/evm/protocol/RepToken.sol":{"RepToken":{"abi":[{"inputs":[],"name":"AccessControlBadConfirmation","type":"error"},{"inputs":[{"internalType":"address","name":"account","type":"address"},{"internalType":"bytes32","name":"neededRole","type":"bytes32"}],"name":"AccessControlUnauthorizedAccount","type":"error"},{"inputs":[{"internalType":"address","name":"target","type":"address"}],"name":"AddressEmptyCode","type":"error"},{"inputs":[{"internalType":"address","name":"implementation","type":"address"}],"name":"ERC1967InvalidImplementation","type":"error"},{"inputs":[],"name":"ERC1967NonPayable","type":"error"},{"inputs":[{"internalType":"address","name":"sender","type":"address"},{"internalType":"uint256","name":"tokenId","type":"uint256"},{"internalType":"address","name":"owner","type":"address"}],"name":"ERC721IncorrectOwner","type":"error"},{"inputs":[{"internalType":"address","name":"operator","type":"address"},{"internalType":"uint256","name":"tokenId","type":"uint256"}],"name":"ERC721InsufficientApproval","type":"error"},{"inputs":[{"internalType":"address","name":"approver","type":"address"}],"name":"ERC721InvalidApprover","type":"error"},{"inputs":[{"internalType":"address","name":"operator","type":"address"}],"name":"ERC721InvalidOperator","type":"error"},{"inputs":[{"internalType":"address","name":"owner","type":"address"}],"name":"ERC721InvalidOwner","type":"error"},{"inputs":[{"internalType":"address","name":"receiver","type":"address"}],"name":"ERC721InvalidReceiver","type":"error"},{"inputs":[{"internalType":"address","name":"sender","type":"address"}],"name":"ERC721InvalidSender","type":"error"},{"inputs":[{"internalType":"uint256","name":"tokenId","type":"uint256"}],"name":"ERC721NonexistentToken","type":"error"},{"inputs":[],"name":"FailedCall","type":"error"},{"inputs":[],"name":"InvalidInitialization","type":"error"},{"inputs":[],"name":"NotInitializing","type":"error"},{"inputs":[],"name":"UUPSUnauthorizedCallContext","type":"error"},{"inputs":[{"internalType":"bytes32","name":"slot","type":"bytes32"}],"name":"UUPSUnsupportedProxiableUUID","type":"error"},{"anonymous":false,"inputs":[{"indexed":true,"internalType":"address","name":"owner","type":"address"},{"indexed":true,"internalType":"address","name":"approved","type":"address"},{"indexed":true,"internalType":"uint256","name":"tokenId","type":"uint256"}],"name":"Approval","type":"event"},{"anonymous":false,"inputs":[{"indexed":true,"internalType":"address","name":"owner","type":"address"},{"indexed":true,"internalType":"address","name":"operator","type":"address"},{"indexed":false,"internalType":"bool","name":"approved","type":"bool"}],"name":"ApprovalForAll","type":"event"},{"anonymous":false,"inputs":[{"indexed":false,"internalType":"uint64","name":"version","type":"uint64"}],"name":"Initialized","type":"event"},{"anonymous":false,"inputs":[{"indexed":true,"internalType":"bytes32","name":"role","type":"bytes32"},{"indexed":true,"internalType":"bytes32","name":"previousAdminRole","type":"bytes32"},{"indexed":true,"internalType":"bytes32","name":"newAdminRole","type":"bytes32"}],"name":"RoleAdminChanged","type":"event"},{"anonymous":false,"inputs":[{"indexed":true,"internalType":"bytes32","name":"role","type":"bytes32"},{"indexed":true,"internalType":"address","name":"account","type":"address"},{"indexed":true,"internalType":"address","name":"sender","type":"address"}],"name":"RoleGranted","type":"event"},{"anonymous":false,"inputs":[{"indexed":true,"internalType":"bytes32","name":"role","type":"bytes32"},{"indexed":true,"internalType":"address","name":"account","type":"address"},{"indexed":true,"internalType":"address","name":"sender","type":"address"}],"name":"RoleRevoked","type":"event"},{"anonymous":false,"inputs":[{"indexed":true,"internalType":"address","name":"from","type":"address"},{"indexed":true,"internalType":"address","name":"to","type":"address"},{"indexed":true,"internalType":"uint256","name":"tokenId","type":"uint256"}],"name":"Transfer","type":"event"},{"anonymous":false,"inputs":[{"indexed":true,"internalType":"address","name":"implementation","type":"address"}],"name":"Upgraded","type":"event"},{"inputs":[],"name":"DEFAULT_ADMIN_ROLE","outputs":[{"internalType":"bytes32","name":"","type":"bytes32"}],"stateMutability":"view","type":"function"},{"inputs":[],"name":"UPGRADE_INTERFACE_VERSION","outputs":[{"internalType":"string","name":"","type":"string"}],"stateMutability":"view","type":"function"},{"inputs":[{"internalType":"address","name":"to","type":"address"},{"internalType":"uint256","name":"tokenId","type":"uint256"}],"name":"approve","outputs":[],"stateMutability":"nonpayable","type":"function"},{"inputs":[{"internalType":"address","name":"owner","type":"address"}],"name":"balanceOf","outputs":[{"internalType":"uint256","name":"","type":"uint256"}],"stateMutability":"view","type":"function"},{"inputs":[{"internalType":"uint256","name":"tokenId","type":"uint256"}],"name":"burn","outputs":[],"stateMutability":"nonpayable","type":"function"},{"inputs":[{"internalType":"uint256","name":"tokenId","type":"uint256"}],"name":"getApproved","outputs":[{"internalType":"address","name":"","type":"address"}],"stateMutability":"view","type":"function"},{"inputs":[{"internalType":"bytes32","name":"role","type":"bytes32"}],"name":"getRoleAdmin","outputs":[{"internalType":"bytes32","name":"","type":"bytes32"}],"stateMutability":"view","type":"function"},{"inputs":[{"internalType":"bytes32","name":"role","type":"bytes32"},{"internalType":"address","name":"account","type":"address"}],"name":"grantRole","outputs":[],"stateMutability":"nonpayable","type":"function"},{"inputs":[{"internalType":"bytes32","name":"role","type":"bytes32"},{"internalType":"address","name":"account","type":"address"}],"name":"hasRole","outputs":[{"internalType":"bool","name":"","type":"bool"}],"stateMutability":"view","type":"function"},{"inputs":[],"name":"initialize","outputs":[],"stateMutability":"nonpayable","type":"function"},{"inputs":[{"internalType":"address","name":"owner","type":"address"},{"internalType":"address","name":"operator","type":"address"}],"name":"isApprovedForAll","outputs":[{"internalType":"bool","name":"","type":"bool"}],"stateMutability":"view","type":"function"},{"inputs":[{"internalType":"uint256","name":"tokenId_","type":"uint256"},{"internalType":"uint256","name":"_otherTokenId","type":"uint256"}],"name":"merge","outputs":[],"stateMutability":"nonpayable","type":"function"},{"inputs":[],"name":"name","outputs":[{"internalType":"string","name":"","type":"string"}],"stateMutability":"view","type":"function"},{"inputs":[{"internalType":"uint256","name":"tokenId","type":"uint256"}],"name":"ownerOf","outputs":[{"internalType":"address","name":"","type":"address"}],"stateMutability":"view","type":"function"},{"inputs":[{"internalType":"address","name":"owner","type":"address"}],"name":"ownerToTokenId","outputs":[{"internalType":"uint256","name":"","type":"uint256"}],"stateMutability":"view","type":"function"},{"inputs":[],"name":"proxiableUUID","outputs":[{"internalType":"bytes32","name":"","type":"bytes32"}],"stateMutability":"view","type":"function"},{"inputs":[],"name":"register","outputs":[{"internalType":"uint256","name":"tokenId","type":"uint256"}],"stateMutability":"nonpayable","type":"function"},{"inputs":[{"internalType":"bytes32","name":"role","type":"bytes32"},{"internalType":"address","name":"callerConfirmation","type":"address"}],"name":"renounceRole","outputs":[],"stateMutability":"nonpayable","type":"function"},{"inputs":[{"internalType":"bytes32","name":"role","type":"bytes32"},{"internalType":"address","name":"account","type":"address"}],"name":"revokeRole","outputs":[],"stateMutability":"nonpayable","type":"function"},{"inputs":[{"internalType":"address","name":"from","type":"address"},{"internalType":"address","name":"to","type":"address"},{"internalType":"uint256","name":"tokenId","type":"uint256"}],"name":"safeTransferFrom","outputs":[],"stateMutability":"nonpayable","type":"function"},{"inputs":[{"internalType":"address","name":"from","type":"address"},{"internalType":"address","name":"to","type":"address"},{"internalType":"uint256","name":"tokenId","type":"uint256"},{"internalType":"bytes","name":"data","type":"bytes"}],"name":"safeTransferFrom","outputs":[],"stateMutability":"nonpayable","type":"function"},{"inputs":[{"internalType":"address","name":"operator","type":"address"},{"internalType":"bool","name":"approved","type":"bool"}],"name":"setApprovalForAll","outputs":[],"stateMutability":"nonpayable","type":"function"},{"inputs":[{"internalType":"uint256","name":"","type":"uint256"}],"name":"stats","outputs":[{"internalType":"uint32","name":"createdAt","type":"uint32"},{"internalType":"uint32","name":"upvotes","type":"uint32"},{"internalType":"uint32","name":"downvotes","type":"uint32"},{"internalType":"uint64","name":"volumeUSD","type":"uint64"},{"internalType":"uint32","name":"dealsCompleted","type":"uint32"},{"internalType":"uint32","name":"dealsExpired","type":"uint32"},{"internalType":"uint32","name":"disputesLost","type":"uint32"},{"internalType":"uint32","name":"avgPaymentTime","type":"uint32"},{"internalType":"uint32","name":"avgReleaseTime","type":"uint32"}],"stateMutability":"view","type":"function"},{"inputs":[{"internalType":"uint256","name":"tokenId_","type":"uint256"},{"internalType":"uint32","name":"_dealTime","type":"uint32"}],"name":"statsAvgPaymentTime","outputs":[],"stateMutability":"nonpayable","type":"function"},{"inputs":[{"internalType":"uint256","name":"tokenId_","type":"uint256"},{"internalType":"uint32","name":"_dealTime","type":"uint32"}],"name":"statsAvgReleaseTime","outputs":[],"stateMutability":"nonpayable","type":"function"},{"inputs":[{"internalType":"uint256","name":"tokenId_","type":"uint256"}],"name":"statsDealCompleted","outputs":[],"stateMutability":"nonpayable","type":"function"},{"inputs":[{"internalType":"uint256","name":"tokenId_","type":"uint256"}],"name":"statsDealExpired","outputs":[],"stateMutability":"nonpayable","type":"function"},{"inputs":[{"internalType":"uint256","name":"tokenId_","type":"uint256"}],"name":"statsDisputeLost","outputs":[],"stateMutability":"nonpayable","type":"function"},{"inputs":[{"internalType":"uint256","name":"tokenId_","type":"uint256"},{"internalType":"uint64","name":"_volumeUSD","type":"uint64"}],"name":"statsVolumeUSD","outputs":[],"stateMutability":"nonpayable","type":"function"},{"inputs":[{"internalType":"uint256","name":"tokenId_","type":"uint256"},{"internalType":"bool","name":"up_","type":"bool"}],"name":"statsVote","outputs":[],"stateMutability":"nonpayable","type":"function"},{"inputs":[{"internalType":"bytes4","name":"interfaceId","type":"bytes4"}],"name":"supportsInterface","outputs":[{"internalType":"bool","name":"","type":"bool"}],"stateMutability":"view","type":"function"},{"inputs":[],"name":"symbol","outputs":[{"internalType":"string","name":"","type":"string"}],"stateMutability":"view","type":"function"},{"inputs":[{"internalType":"uint256","name":"tokenId","type":"uint256"}],"name":"tokenURI","outputs":[{"internalType":"string","name":"","type":"string"}],"stateMutability":"view","type":"function"},{"inputs":[{"internalType":"address","name":"from","type":"address"},{"internalType":"address","name":"to","type":"address"},{"internalType":"uint256","name":"tokenId","type":"uint256"}],"name":"transferFrom","outputs":[],"stateMutability":"nonpayable","type":"function"},{"inputs":[{"internalType":"address","name":"newImplementation","type":"address"},{"internalType":"bytes","name":"data","type":"bytes"}],"name":"upgradeToAndCall","outputs":[],"stateMutability":"payable","type":"function"}],"evm":{"bytecode":{"linkReferences":{},"object":"60a0806040523460295730608052612f6b908161002e823960805181818161152d01526115e30152f35b5f80fdfe6080806040526004361015610012575f80fd5b5f905f3560e01c90816301ffc9a71461218757508063030b15161461212357806306fdde0314612040578063081812fc14611fe6578063095ea7b314611e9d5780631a1f8c5e14611e285780631aa3a008146119fb57806323b872dd146119e4578063248a9ca3146119925780632f2ff15d1461193557806336568abe146118d857806342842e0e146118af57806342966c68146118925780634814f0351461185a5780634f1ef286146115a557806352d1902d146115135780636352211e146114e457806370a082311461144b5780637b0d6a85146113bc5780638129fc1c14610d0e57806391d1485414610ca557806395d89b4114610b895780639a2edc4914610ad6578063a217fddf14610abc578063a22cb465146109e8578063ad217ae514610957578063ad3cb1cc146108f8578063b1241ce51461089d578063b435702014610848578063b58db50f146107ed578063b88d4fde1461079c578063c87b56dd1461073f578063d1c2babb14610287578063d547741f146102205763e985e9c51461019f575f80fd5b3461021d57604036600319011261021d576101b8612284565b6001600160a01b036102026101cb61229a565b926001600160a01b03165f527f80bb2b638cc20bc4d0a60d66940f3ab4a00c1d7b313497ca82fb0b4ab007930560205260405f2090565b91165f52602052602060ff60405f2054166040519015158152f35b80fd5b503461021d57604036600319011261021d5761028360043561024061229a565b9061027e610279825f527f02dd7bc7dec4dceedda775e58dd541e08a116c6c53815c0bd028192f7b626800602052600160405f20015490565b6128e4565b612d60565b5080f35b503461021d57604036600319011261021d576024356004356001600160a01b036102b082612944565b1633036106fb576001600160a01b036102fa835f527f80bb2b638cc20bc4d0a60d66940f3ab4a00c1d7b313497ca82fb0b4ab00793046020526001600160a01b0360405f20541690565b1633036106b7578252816020526105386040832082845283602052637fffffff6105136001604087209361036761034563ffffffff875460201c1663ffffffff845460201c1661237d565b825467ffffffff00000000191660209190911b67ffffffff0000000016178255565b6103b261038863ffffffff875460401c1663ffffffff845460401c1661237d565b82546bffffffff0000000000000000191660409190911b6bffffffff000000000000000016178255565b6104156103db67ffffffffffffffff875460601c1667ffffffffffffffff845460601c166126dd565b825473ffffffffffffffff000000000000000000000000191660609190911b73ffffffffffffffff00000000000000000000000016178255565b61045661043663ffffffff875460a01c1663ffffffff845460a01c1661237d565b825463ffffffff60a01b191660a09190911b63ffffffff60a01b16178255565b61049761047763ffffffff875460c01c1663ffffffff845460c01c1661237d565b825463ffffffff60c01b191660c09190911b63ffffffff60c01b16178255565b6104cc6104ac865460e01c835460e01c61237d565b82546001600160e01b031660e09190911b6001600160e01b031916178255565b019263ffffffff836104ea600183885416940193838554169061237d565b60011c161663ffffffff1985541617845563ffffffff80855460201c16915460201c169061237d565b60011c1667ffffffff0000000082549160201b169067ffffffff000000001916179055565b610573815f527f80bb2b638cc20bc4d0a60d66940f3ab4a00c1d7b313497ca82fb0b4ab00793026020526001600160a01b0360405f20541690565b6001600160a01b03811690825f8315938415610633575b8282527f80bb2b638cc20bc4d0a60d66940f3ab4a00c1d7b313497ca82fb0b4ab0079302602052604082206001600160a01b031981541690557fddf252ad1be2c89b69c2b068fc378daa952ba7f163c4a11628f55a4df523b3ef8280a45061062157610610816001600160a01b0392845283602052836001604082208281550155612944565b168152600260205280604081205580f35b637e27328960e01b8252600452602490fd5b610671835f527f80bb2b638cc20bc4d0a60d66940f3ab4a00c1d7b313497ca82fb0b4ab007930460205260405f206001600160a01b03198154169055565b6106ab846001600160a01b03165f527f80bb2b638cc20bc4d0a60d66940f3ab4a00c1d7b313497ca82fb0b4ab007930360205260405f2090565b8219815401905561058a565b606460405162461bcd60e51b815260206004820152600760248201527f617070726f7665000000000000000000000000000000000000000000000000006044820152fd5b606460405162461bcd60e51b815260206004820152600560248201527f6f776e65720000000000000000000000000000000000000000000000000000006044820152fd5b346107985760203660031901126107985761075b600435612944565b505f60405161076b6020826122ea565b5261079460405161077d6020826122ea565b5f8152604051918291602083526020830190612260565b0390f35b5f80fd5b34610798576080366003190112610798576107b5612284565b6107bd61229a565b6064359167ffffffffffffffff8311610798576107e16107eb933690600401612328565b9160443591612716565b005b3461079857602036600319011261079857610806612889565b6004355f525f6020526107eb60405f2061082963ffffffff825460c01c166126ff565b63ffffffff60c01b1963ffffffff60c01b83549260c01b169116179055565b3461079857602036600319011261079857610861612889565b6004355f525f6020526107eb60405f2061087e815460e01c6126ff565b6001600160e01b036001600160e01b031983549260e01b169116179055565b34610798576020366003190112610798576108b6612889565b6004355f525f6020526107eb60405f206108d963ffffffff825460a01c166126ff565b63ffffffff60a01b1963ffffffff60a01b83549260a01b169116179055565b34610798575f366003190112610798576107946040516109196040826122ea565b600581527f352e302e300000000000000000000000000000000000000000000000000000006020820152604051918291602083526020830190612260565b34610798576020366003190112610798576004355f525f60205261012060405f2063ffffffff60018254920154604051928281168452828160201c166020850152828160401c16604085015267ffffffffffffffff8160601c166060850152828160a01c166080850152828160c01c1660a085015260e01c60c084015281811660e084015260201c16610100820152f35b3461079857604036600319011261079857610a01612284565b6001600160a01b03610a1161236e565b9116908115610a9057335f9081527f80bb2b638cc20bc4d0a60d66940f3ab4a00c1d7b313497ca82fb0b4ab007930560205260409020825f5260205260405f209015159060ff1981541660ff83161790556040519081527f17307eab39ab6107e8899845ad3d59bd9653f200f220920489ca2b5937696c3160203392a3005b507f5b08ba18000000000000000000000000000000000000000000000000000000005f5260045260245ffd5b34610798575f3660031901126107985760206040515f8152f35b3461079857604036600319011261079857600435610af261236e565b610afa612889565b15610b40575f525f6020526107eb60405f20610b1f63ffffffff825460201c166126ff565b67ffffffff0000000082549160201b169067ffffffff000000001916179055565b5f525f6020526107eb60405f20610b6063ffffffff825460401c166126ff565b6bffffffff000000000000000082549160401b16906bffffffff00000000000000001916179055565b34610798575f366003190112610798576040515f7f80bb2b638cc20bc4d0a60d66940f3ab4a00c1d7b313497ca82fb0b4ab007930154610bc881612397565b8084529060018116908115610c815750600114610c04575b61079483610bf0818503826122ea565b604051918291602083526020830190612260565b7f80bb2b638cc20bc4d0a60d66940f3ab4a00c1d7b313497ca82fb0b4ab00793015f9081527ff4bad0a69248f59680a4f2b3000328cec71a413447c96781cfe5996daa8c456e939250905b808210610c6757509091508101602001610bf0610be0565b919260018160209254838588010152019101909291610c4f565b60ff191660208086019190915291151560051b84019091019150610bf09050610be0565b3461079857604036600319011261079857610cbe61229a565b6004355f527f02dd7bc7dec4dceedda775e58dd541e08a116c6c53815c0bd028192f7b6268006020526001600160a01b0360405f2091165f52602052602060ff60405f2054166040519015158152f35b34610798575f366003190112610798577ff0c57e16840df040f15088dc2f81fe391c3923bec73e23a9662efc9c229c6a005460ff8160401c16159067ffffffffffffffff8116801590816113b4575b60011490816113aa575b1590816113a1575b506113795767ffffffffffffffff1981166001177ff0c57e16840df040f15088dc2f81fe391c3923bec73e23a9662efc9c229c6a00558161133a575b50604090815191610dbc81846122ea565b601083527f52657075746174696f6e20546f6b656e000000000000000000000000000000006020840152805191610df382846122ea565b600383527f52455000000000000000000000000000000000000000000000000000000000006020840152610e25612e52565b610e2d612e52565b835167ffffffffffffffff811161119c57610e687f80bb2b638cc20bc4d0a60d66940f3ab4a00c1d7b313497ca82fb0b4ab007930054612397565b601f811161127a575b50602094601f82116001146111bb579481929394955f926111b0575b50508160011b915f199060031b1c1916177f80bb2b638cc20bc4d0a60d66940f3ab4a00c1d7b313497ca82fb0b4ab0079300555b825167ffffffffffffffff811161119c57610efc7f80bb2b638cc20bc4d0a60d66940f3ab4a00c1d7b313497ca82fb0b4ab007930154612397565b601f811161111a575b506020601f821160011461107957819293945f9261106e575b50508160011b915f199060031b1c1916177f80bb2b638cc20bc4d0a60d66940f3ab4a00c1d7b313497ca82fb0b4ab0079301555b610f5b33612be4565b50684445414c5f524f4c4560b81b5f8181527f02dd7bc7dec4dceedda775e58dd541e08a116c6c53815c0bd028192f7b62680060205283812060010180547f4d41524b45545f524f4c4500000000000000000000000000000000000000000091829055945194909290917fbd79b86ffe0ab8e8776151514217cd7cacd52c909f66475c3af44e129f0b00ff9080a460018055610ff357005b60207fc7f505b2f371ae2175ee4913f4499e1f2633a7b5936321eed1cdaeb6115181d29168ff0000000000000000197ff0c57e16840df040f15088dc2f81fe391c3923bec73e23a9662efc9c229c6a0054167ff0c57e16840df040f15088dc2f81fe391c3923bec73e23a9662efc9c229c6a005560018152a1005b015190508480610f1e565b601f198216907f80bb2b638cc20bc4d0a60d66940f3ab4a00c1d7b313497ca82fb0b4ab00793015f52805f20915f5b818110611102575095836001959697106110ea575b505050811b017f80bb2b638cc20bc4d0a60d66940f3ab4a00c1d7b313497ca82fb0b4ab007930155610f52565b01515f1960f88460031b161c191690558480806110bd565b9192602060018192868b0151815501940192016110a8565b7f80bb2b638cc20bc4d0a60d66940f3ab4a00c1d7b313497ca82fb0b4ab00793015f527ff4bad0a69248f59680a4f2b3000328cec71a413447c96781cfe5996daa8c456e601f830160051c81019160208410611192575b601f0160051c01905b8181106111875750610f05565b5f815560010161117a565b9091508190611171565b634e487b7160e01b5f52604160045260245ffd5b015190508580610e8d565b601f198216957f80bb2b638cc20bc4d0a60d66940f3ab4a00c1d7b313497ca82fb0b4ab00793005f527f37c58c799b6609234b945e882912ee9ad34948a1dfaa20a97485e1a7752bbf81915f5b8881106112625750836001959697981061124a575b505050811b017f80bb2b638cc20bc4d0a60d66940f3ab4a00c1d7b313497ca82fb0b4ab007930055610ec1565b01515f1960f88460031b161c1916905585808061121d565b91926020600181928685015181550194019201611208565b7f80bb2b638cc20bc4d0a60d66940f3ab4a00c1d7b313497ca82fb0b4ab00793005f52601f820160051c7f37c58c799b6609234b945e882912ee9ad34948a1dfaa20a97485e1a7752bbf81019060208310611312575b601f0160051c7f37c58c799b6609234b945e882912ee9ad34948a1dfaa20a97485e1a7752bbf8101905b8181106113075750610e71565b5f81556001016112fa565b7f37c58c799b6609234b945e882912ee9ad34948a1dfaa20a97485e1a7752bbf8191506112d0565b68ffffffffffffffffff191668010000000000000001177ff0c57e16840df040f15088dc2f81fe391c3923bec73e23a9662efc9c229c6a005581610dab565b7ff92ee8a9000000000000000000000000000000000000000000000000000000005f5260045ffd5b90501583610d6f565b303b159150610d67565b839150610d5d565b346107985760403660031901126107985760243567ffffffffffffffff81168103610798576107eb906113ed612889565b6004355f525f60205261141260405f209167ffffffffffffffff835460601c166126dd565b73ffffffffffffffff0000000000000000000000001973ffffffffffffffff00000000000000000000000083549260601b169116179055565b3461079857602036600319011261079857611464612284565b6001600160a01b038116156114b8576114af6020916001600160a01b03165f527f80bb2b638cc20bc4d0a60d66940f3ab4a00c1d7b313497ca82fb0b4ab007930360205260405f2090565b54604051908152f35b7f89c62b64000000000000000000000000000000000000000000000000000000005f525f60045260245ffd5b34610798576020366003190112610798576020611502600435612944565b6001600160a01b0360405191168152f35b34610798575f366003190112610798576001600160a01b037f000000000000000000000000000000000000000000000000000000000000000016300361157d5760206040517f360894a13ba1a3210667c828492db98dca3e2076cc3735a920a3ca505d382bbc8152f35b7fe07c8dba000000000000000000000000000000000000000000000000000000005f5260045ffd5b6040366003190112610798576115b9612284565b60243567ffffffffffffffff8111610798576115d9903690600401612328565b6001600160a01b037f000000000000000000000000000000000000000000000000000000000000000016803014908115611825575b5061157d57335f9081527fb7db2dd08fcb62d0c9e08c51941cae53c267786a0b75803fb7960902fc8ef97d602052604090205460ff161561180e576001600160a01b038216916040517f52d1902d000000000000000000000000000000000000000000000000000000008152602081600481875afa5f91816117da575b506116a35783634c9c8ce360e01b5f5260045260245ffd5b807f360894a13ba1a3210667c828492db98dca3e2076cc3735a920a3ca505d382bbc8592036117af5750813b1561179d57806001600160a01b03197f360894a13ba1a3210667c828492db98dca3e2076cc3735a920a3ca505d382bbc5416177f360894a13ba1a3210667c828492db98dca3e2076cc3735a920a3ca505d382bbc557fbc7cd75a20ee27fd9adebab32041f755214dbc6bffa90cc0225b39da2e5c2d3b5f80a281511561176c575f808360206107eb95519101845af4611766612e23565b91612ea9565b50503461177557005b7fb398979f000000000000000000000000000000000000000000000000000000005f5260045ffd5b634c9c8ce360e01b5f5260045260245ffd5b7faa1d49a4000000000000000000000000000000000000000000000000000000005f5260045260245ffd5b9091506020813d602011611806575b816117f6602093836122ea565b810103126107985751908561168b565b3d91506117e9565b63e2517d3f60e01b5f52336004525f60245260445ffd5b90506001600160a01b037f360894a13ba1a3210667c828492db98dca3e2076cc3735a920a3ca505d382bbc541614158361160e565b34610798576020366003190112610798576001600160a01b0361187b612284565b165f526002602052602060405f2054604051908152f35b34610798576020366003190112610798576107eb336004356129a5565b34610798576107eb6118c0366122b0565b90604051926118d06020856122ea565b5f8452612716565b34610798576040366003190112610798576118f161229a565b336001600160a01b0382160361190d576107eb90600435612d60565b7f6697b232000000000000000000000000000000000000000000000000000000005f5260045ffd5b34610798576040366003190112610798576107eb60043561195461229a565b9061198d610279825f527f02dd7bc7dec4dceedda775e58dd541e08a116c6c53815c0bd028192f7b626800602052600160405f20015490565b612c93565b346107985760203660031901126107985760206119dc6004355f527f02dd7bc7dec4dceedda775e58dd541e08a116c6c53815c0bd028192f7b626800602052600160405f20015490565b604051908152f35b34610798576107eb6119f5366122b0565b916123cf565b34610798575f36600319011261079857335f52600260205260405f2054611de4576001543315611dd157611a60815f527f80bb2b638cc20bc4d0a60d66940f3ab4a00c1d7b313497ca82fb0b4ab00793026020526001600160a01b0360405f20541690565b6001600160a01b03811690828215159283611d4d575b335f9081527f80bb2b638cc20bc4d0a60d66940f3ab4a00c1d7b313497ca82fb0b4ab00793036020526040902060018154019055815f527f80bb2b638cc20bc4d0a60d66940f3ab4a00c1d7b313497ca82fb0b4ab007930260205260405f206001600160a01b0333166001600160a01b031982541617905533907fddf252ad1be2c89b69c2b068fc378daa952ba7f163c4a11628f55a4df523b3ef5f80a450611d2157805f525f60205263ffffffff60405f20541660405190610120820182811067ffffffffffffffff82111761119c5760409081529082525f6020808401828152848401838152606086018481526080870185815260a0880186815260c0890187815260e08a018881526101008b018981528c8a528989529990982099518a54965167ffffffffffffffff1990971663ffffffff909116179590961b67ffffffff0000000016949094178855949694915185546bffffffff0000000000000000191660409190911b6bffffffff00000000000000001617855551845473ffffffffffffffff000000000000000000000000191660609190911b73ffffffffffffffff0000000000000000000000001617845551835463ffffffff60a01b191660a09190911b63ffffffff60a01b1617835551825463ffffffff60c01b191660c09190911b63ffffffff60c01b161782555181546001600160e01b031660e09190911b6001600160e01b03191617815591516001929092018054915167ffffffffffffffff1990921663ffffffff9093169290921760209190911b67ffffffff0000000016179055805f525f60205260405f204263ffffffff1663ffffffff1663ffffffff19825416179055335f5260026020528060405f2055600154905f198214611d0d57600160209201600155604051908152f35b634e487b7160e01b5f52601160045260245ffd5b7f73c6ac6e000000000000000000000000000000000000000000000000000000005f525f60045260245ffd5b611d8b825f527f80bb2b638cc20bc4d0a60d66940f3ab4a00c1d7b313497ca82fb0b4ab007930460205260405f206001600160a01b03198154169055565b611dc5836001600160a01b03165f527f80bb2b638cc20bc4d0a60d66940f3ab4a00c1d7b313497ca82fb0b4ab007930360205260405f2090565b80545f19019055611a76565b633250574960e11b5f525f60045260245ffd5b606460405162461bcd60e51b815260206004820152600760248201527f616c7265616479000000000000000000000000000000000000000000000000006044820152fd5b34610798576107eb611e69637fffffff611e413661223d565b611e4c939193612889565b835f525f60205263ffffffff600160405f20015460201c1661237d565b60011c16905f525f602052600160405f20019067ffffffff0000000082549160201b169067ffffffff000000001916179055565b3461079857604036600319011261079857611eb6612284565b602435611ec281612944565b33151580611fd3575b80611f7b575b611f4f5781906001600160a01b0380851691167f8c5be1e5ebec7d5bd14f71427d1e84f3dd0314c0f7b2291e5b200ac8c7c3b9255f80a45f527f80bb2b638cc20bc4d0a60d66940f3ab4a00c1d7b313497ca82fb0b4ab00793046020526001600160a01b0360405f2091166001600160a01b03198254161790555f80f35b7fa9fbf51f000000000000000000000000000000000000000000000000000000005f523360045260245ffd5b50611fb6816001600160a01b03165f527f80bb2b638cc20bc4d0a60d66940f3ab4a00c1d7b313497ca82fb0b4ab007930560205260405f2090565b6001600160a01b0333165f5260205260ff60405f20541615611ed1565b50336001600160a01b0382161415611ecb565b3461079857602036600319011261079857602061150260043561200881612944565b505f527f80bb2b638cc20bc4d0a60d66940f3ab4a00c1d7b313497ca82fb0b4ab00793046020526001600160a01b0360405f20541690565b34610798575f366003190112610798576040515f7f80bb2b638cc20bc4d0a60d66940f3ab4a00c1d7b313497ca82fb0b4ab00793005461207f81612397565b8084529060018116908115610c8157506001146120a65761079483610bf0818503826122ea565b7f80bb2b638cc20bc4d0a60d66940f3ab4a00c1d7b313497ca82fb0b4ab00793005f9081527f37c58c799b6609234b945e882912ee9ad34948a1dfaa20a97485e1a7752bbf81939250905b80821061210957509091508101602001610bf0610be0565b9192600181602092548385880101520191019092916120f1565b346107985761215e637fffffff6121393661223d565b612144939193612889565b835f525f60205263ffffffff600160405f2001541661237d565b60011c16905f525f60205263ffffffff600160405f2001911663ffffffff198254161790555f80f35b3461079857602036600319011261079857600435906001600160e01b03198216808303610798576020927f80ac58cd000000000000000000000000000000000000000000000000000000008214918215612213575b508115612202575b81156121f2575b5015158152f35b6121fc915061282a565b836121eb565b905061220d8161282a565b906121e4565b7f5b5e139f00000000000000000000000000000000000000000000000000000000149150846121dc565b6040906003190112610798576004359060243563ffffffff811681036107985790565b805180835260209291819084018484015e5f828201840152601f01601f1916010190565b600435906001600160a01b038216820361079857565b602435906001600160a01b038216820361079857565b6060906003190112610798576004356001600160a01b038116810361079857906024356001600160a01b0381168103610798579060443590565b90601f8019910116810190811067ffffffffffffffff82111761119c57604052565b67ffffffffffffffff811161119c57601f01601f191660200190565b81601f820112156107985780359061233f8261230c565b9261234d60405194856122ea565b8284526020838301011161079857815f926020809301838601378301015290565b60243590811515820361079857565b9063ffffffff8091169116019063ffffffff8211611d0d57565b90600182811c921680156123c5575b60208310146123b157565b634e487b7160e01b5f52602260045260245ffd5b91607f16916123a6565b9190916001600160a01b038316908115611dd15761241e835f527f80bb2b638cc20bc4d0a60d66940f3ab4a00c1d7b313497ca82fb0b4ab00793026020526001600160a01b0360405f20541690565b8333151593846125d0575b6001600160a01b039450612475858416978861251b576001600160a01b03165f527f80bb2b638cc20bc4d0a60d66940f3ab4a00c1d7b313497ca82fb0b4ab007930360205260405f2090565b60018154019055815f527f80bb2b638cc20bc4d0a60d66940f3ab4a00c1d7b313497ca82fb0b4ab007930260205260405f20816001600160a01b0319825416179055867fddf252ad1be2c89b69c2b068fc378daa952ba7f163c4a11628f55a4df523b3ef5f80a450168083036124ea57505050565b7f64283d7b000000000000000000000000000000000000000000000000000000005f5260045260245260445260645ffd5b612559845f527f80bb2b638cc20bc4d0a60d66940f3ab4a00c1d7b313497ca82fb0b4ab007930460205260405f206001600160a01b03198154169055565b612593856001600160a01b03165f527f80bb2b638cc20bc4d0a60d66940f3ab4a00c1d7b313497ca82fb0b4ab007930360205260405f2090565b80545f190190556001600160a01b03165f527f80bb2b638cc20bc4d0a60d66940f3ab4a00c1d7b313497ca82fb0b4ab007930360205260405f2090565b91929380915090612621575b156125ea5790838392612429565b836001600160a01b03831661260b57637e27328960e01b5f5260045260245ffd5b63177e802f60e01b5f523360045260245260445ffd5b50336001600160a01b038316148015612686575b806125dc5750336001600160a01b0361267f865f527f80bb2b638cc20bc4d0a60d66940f3ab4a00c1d7b313497ca82fb0b4ab00793046020526001600160a01b0360405f20541690565b16146125dc565b506126c1826001600160a01b03165f527f80bb2b638cc20bc4d0a60d66940f3ab4a00c1d7b313497ca82fb0b4ab007930560205260405f2090565b6001600160a01b0333165f5260205260ff60405f205416612635565b9067ffffffffffffffff8091169116019067ffffffffffffffff8211611d0d57565b63ffffffff1663ffffffff8114611d0d5760010190565b906127228382846123cf565b803b61272f575b50505050565b6020916127756001600160a01b03809316956040519586948594630a85bd0160e11b86523360048701521660248501526044840152608060648401526084830190612260565b03815f865af15f91816127e5575b506127b15750612791612e23565b805190816127ac5782633250574960e11b5f5260045260245ffd5b602001fd5b6001600160e01b0319630a85bd0160e11b9116036127d357505f808080612729565b633250574960e11b5f5260045260245ffd5b9091506020813d602011612822575b81612801602093836122ea565b8101031261079857516001600160e01b03198116810361079857905f612783565b3d91506127f4565b6001600160e01b0319167f7965db0b000000000000000000000000000000000000000000000000000000008114908115612862575090565b7f01ffc9a70000000000000000000000000000000000000000000000000000000091501490565b335f9081527f016eb059e9c793735a2503f97f90d6deeb7a67739000c45e8a0feaf950573468602052604090205460ff16156128c157565b63e2517d3f60e01b5f5233600452684445414c5f524f4c4560b81b60245260445ffd5b805f527f02dd7bc7dec4dceedda775e58dd541e08a116c6c53815c0bd028192f7b62680060205260405f206001600160a01b0333165f5260205260ff60405f2054161561292e5750565b63e2517d3f60e01b5f523360045260245260445ffd5b61297f815f527f80bb2b638cc20bc4d0a60d66940f3ab4a00c1d7b313497ca82fb0b4ab00793026020526001600160a01b0360405f20541690565b906001600160a01b03821615612993575090565b637e27328960e01b5f5260045260245ffd5b6001600160a01b036129e8825f527f80bb2b638cc20bc4d0a60d66940f3ab4a00c1d7b313497ca82fb0b4ab00793026020526001600160a01b0360405f20541690565b921680151580612aea575b50505f6001600160a01b03831680612a66575b8282527f80bb2b638cc20bc4d0a60d66940f3ab4a00c1d7b313497ca82fb0b4ab0079302602052604082206001600160a01b031981541690557fddf252ad1be2c89b69c2b068fc378daa952ba7f163c4a11628f55a4df523b3ef8280a490565b612aa4835f527f80bb2b638cc20bc4d0a60d66940f3ab4a00c1d7b313497ca82fb0b4ab007930460205260405f206001600160a01b03198154169055565b612ade846001600160a01b03165f527f80bb2b638cc20bc4d0a60d66940f3ab4a00c1d7b313497ca82fb0b4ab007930360205260405f2090565b82198154019055612a06565b80612b31575b15612afb57806129f3565b6001600160a01b038316612b1c5750637e27328960e01b5f5260045260245ffd5b63177e802f60e01b5f5260045260245260445ffd5b50806001600160a01b038416148015612b96575b80612af05750806001600160a01b03612b8f845f527f80bb2b638cc20bc4d0a60d66940f3ab4a00c1d7b313497ca82fb0b4ab00793046020526001600160a01b0360405f20541690565b1614612af0565b50612bd1836001600160a01b03165f527f80bb2b638cc20bc4d0a60d66940f3ab4a00c1d7b313497ca82fb0b4ab007930560205260405f2090565b815f5260205260ff60405f205416612b45565b6001600160a01b0381165f9081527fb7db2dd08fcb62d0c9e08c51941cae53c267786a0b75803fb7960902fc8ef97d602052604090205460ff16612c8e576001600160a01b03165f8181527fb7db2dd08fcb62d0c9e08c51941cae53c267786a0b75803fb7960902fc8ef97d60205260408120805460ff191660011790553391907f2f8788117e7eff1d82e926ec794901d17c78024a50270940304540a733656f0d8180a4600190565b505f90565b805f527f02dd7bc7dec4dceedda775e58dd541e08a116c6c53815c0bd028192f7b62680060205260405f206001600160a01b0383165f5260205260ff60405f205416155f14612d5a57805f527f02dd7bc7dec4dceedda775e58dd541e08a116c6c53815c0bd028192f7b62680060205260405f206001600160a01b0383165f5260205260405f20600160ff198254161790556001600160a01b03339216907f2f8788117e7eff1d82e926ec794901d17c78024a50270940304540a733656f0d5f80a4600190565b50505f90565b805f527f02dd7bc7dec4dceedda775e58dd541e08a116c6c53815c0bd028192f7b62680060205260405f206001600160a01b0383165f5260205260ff60405f2054165f14612d5a57805f527f02dd7bc7dec4dceedda775e58dd541e08a116c6c53815c0bd028192f7b62680060205260405f206001600160a01b0383165f5260205260405f2060ff1981541690556001600160a01b03339216907ff6391f5c32d9c69d2a47ea670b442974b53935d1edc7fd64eb21e047a839171b5f80a4600190565b3d15612e4d573d90612e348261230c565b91612e4260405193846122ea565b82523d5f602084013e565b606090565b60ff7ff0c57e16840df040f15088dc2f81fe391c3923bec73e23a9662efc9c229c6a005460401c1615612e8157565b7fd7e6bcf8000000000000000000000000000000000000000000000000000000005f5260045ffd5b90612ee65750805115612ebe57602081519101fd5b7fd6bda275000000000000000000000000000000000000000000000000000000005f5260045ffd5b81511580612f2c575b612ef7575090565b6001600160a01b03907f9996b315000000000000000000000000000000000000000000000000000000005f521660045260245ffd5b50803b15612eef56fea2646970667358221220ab4af21cdf94805b92a4d20f1dea1673b99750c82eb608c9e0289889555e894f64736f6c634300081a0033","opcodes":"PUSH1 0xA0 DUP1 PUSH1 0x40 MSTORE CALLVALUE PUSH1 0x29 JUMPI ADDRESS PUSH1 0x80 MSTORE PUSH2 0x2F6B SWAP1 DUP2 PUSH2 0x2E DUP3 CODECOPY PUSH1 0x80 MLOAD DUP2 DUP2 DUP2 PUSH2 0x152D ADD MSTORE PUSH2 0x15E3 ADD MSTORE RETURN JUMPDEST PUSH0 DUP1 REVERT INVALID PUSH1 0x80 DUP1 PUSH1 0x40 MSTORE PUSH1 0x4 CALLDATASIZE LT ISZERO PUSH2 0x12 JUMPI PUSH0 DUP1 REVERT JUMPDEST PUSH0 SWAP1 PUSH0 CALLDATALOAD PUSH1 0xE0 SHR SWAP1 DUP2 PUSH4 0x1FFC9A7 EQ PUSH2 0x2187 JUMPI POP DUP1 PUSH4 0x30B1516 EQ PUSH2 0x2123 JUMPI DUP1 PUSH4 0x6FDDE03 EQ PUSH2 0x2040 JUMPI DUP1 PUSH4 0x81812FC EQ PUSH2 0x1FE6 JUMPI DUP1 PUSH4 0x95EA7B3 EQ PUSH2 0x1E9D JUMPI DUP1 PUSH4 0x1A1F8C5E EQ PUSH2 0x1E28 JUMPI DUP1 PUSH4 0x1AA3A008 EQ PUSH2 0x19FB JUMPI DUP1 PUSH4 0x23B872DD EQ PUSH2 0x19E4 JUMPI DUP1 PUSH4 0x248A9CA3 EQ PUSH2 0x1992 JUMPI DUP1 PUSH4 0x2F2FF15D EQ PUSH2 0x1935 JUMPI DUP1 PUSH4 0x36568ABE EQ PUSH2 0x18D8 JUMPI DUP1 PUSH4 0x42842E0E EQ PUSH2 0x18AF JUMPI DUP1 PUSH4 0x42966C68 EQ PUSH2 0x1892 JUMPI DUP1 PUSH4 0x4814F035 EQ PUSH2 0x185A JUMPI DUP1 PUSH4 0x4F1EF286 EQ PUSH2 0x15A5 JUMPI DUP1 PUSH4 0x52D1902D EQ PUSH2 0x1513 JUMPI DUP1 PUSH4 0x6352211E EQ PUSH2 0x14E4 JUMPI DUP1 PUSH4 0x70A08231 EQ PUSH2 0x144B JUMPI DUP1 PUSH4 0x7B0D6A85 EQ PUSH2 0x13BC JUMPI DUP1 PUSH4 0x8129FC1C EQ PUSH2 0xD0E JUMPI DUP1 PUSH4 0x91D14854 EQ PUSH2 0xCA5 JUMPI DUP1 PUSH4 0x95D89B41 EQ PUSH2 0xB89 JUMPI DUP1 PUSH4 0x9A2EDC49 EQ PUSH2 0xAD6 JUMPI DUP1 PUSH4 0xA217FDDF EQ PUSH2 0xABC JUMPI DUP1 PUSH4 0xA22CB465 EQ PUSH2 0x9E8 JUMPI DUP1 PUSH4 0xAD217AE5 EQ PUSH2 0x957 JUMPI DUP1 PUSH4 0xAD3CB1CC EQ PUSH2 0x8F8 JUMPI DUP1 PUSH4 0xB1241CE5 EQ PUSH2 0x89D JUMPI DUP1 PUSH4 0xB4357020 EQ PUSH2 0x848 JUMPI DUP1 PUSH4 0xB58DB50F EQ PUSH2 0x7ED JUMPI DUP1 PUSH4 0xB88D4FDE EQ PUSH2 0x79C JUMPI DUP1 PUSH4 0xC87B56DD EQ PUSH2 0x73F JUMPI DUP1 PUSH4 0xD1C2BABB EQ PUSH2 0x287 JUMPI DUP1 PUSH4 0xD547741F EQ PUSH2 0x220 JUMPI PUSH4 0xE985E9C5 EQ PUSH2 0x19F JUMPI PUSH0 DUP1 REVERT JUMPDEST CALLVALUE PUSH2 0x21D JUMPI PUSH1 0x40 CALLDATASIZE PUSH1 0x3 NOT ADD SLT PUSH2 0x21D JUMPI PUSH2 0x1B8 PUSH2 0x2284 JUMP JUMPDEST PUSH1 0x1 PUSH1 0x1 PUSH1 0xA0 SHL SUB PUSH2 0x202 PUSH2 0x1CB PUSH2 0x229A JUMP JUMPDEST SWAP3 PUSH1 0x1 PUSH1 0x1 PUSH1 0xA0 SHL SUB AND PUSH0 MSTORE PUSH32 0x80BB2B638CC20BC4D0A60D66940F3AB4A00C1D7B313497CA82FB0B4AB0079305 PUSH1 0x20 MSTORE PUSH1 0x40 PUSH0 KECCAK256 SWAP1 JUMP JUMPDEST SWAP2 AND PUSH0 MSTORE PUSH1 0x20 MSTORE PUSH1 0x20 PUSH1 0xFF PUSH1 0x40 PUSH0 KECCAK256 SLOAD AND PUSH1 0x40 MLOAD SWAP1 ISZERO ISZERO DUP2 MSTORE RETURN JUMPDEST DUP1 REVERT JUMPDEST POP CALLVALUE PUSH2 0x21D JUMPI PUSH1 0x40 CALLDATASIZE PUSH1 0x3 NOT ADD SLT PUSH2 0x21D JUMPI PUSH2 0x283 PUSH1 0x4 CALLDATALOAD PUSH2 0x240 PUSH2 0x229A JUMP JUMPDEST SWAP1 PUSH2 0x27E PUSH2 0x279 DUP3 PUSH0 MSTORE PUSH32 0x2DD7BC7DEC4DCEEDDA775E58DD541E08A116C6C53815C0BD028192F7B626800 PUSH1 0x20 MSTORE PUSH1 0x1 PUSH1 0x40 PUSH0 KECCAK256 ADD SLOAD SWAP1 JUMP JUMPDEST PUSH2 0x28E4 JUMP JUMPDEST PUSH2 0x2D60 JUMP JUMPDEST POP DUP1 RETURN JUMPDEST POP CALLVALUE PUSH2 0x21D JUMPI PUSH1 0x40 CALLDATASIZE PUSH1 0x3 NOT ADD SLT PUSH2 0x21D JUMPI PUSH1 0x24 CALLDATALOAD PUSH1 0x4 CALLDATALOAD PUSH1 0x1 PUSH1 0x1 PUSH1 0xA0 SHL SUB PUSH2 0x2B0 DUP3 PUSH2 0x2944 JUMP JUMPDEST AND CALLER SUB PUSH2 0x6FB JUMPI PUSH1 0x1 PUSH1 0x1 PUSH1 0xA0 SHL SUB PUSH2 0x2FA DUP4 PUSH0 MSTORE PUSH32 0x80BB2B638CC20BC4D0A60D66940F3AB4A00C1D7B313497CA82FB0B4AB0079304 PUSH1 0x20 MSTORE PUSH1 0x1 PUSH1 0x1 PUSH1 0xA0 SHL SUB PUSH1 0x40 PUSH0 KECCAK256 SLOAD AND SWAP1 JUMP JUMPDEST AND CALLER SUB PUSH2 0x6B7 JUMPI DUP3 MSTORE DUP2 PUSH1 0x20 MSTORE PUSH2 0x538 PUSH1 0x40 DUP4 KECCAK256 DUP3 DUP5 MSTORE DUP4 PUSH1 0x20 MSTORE PUSH4 0x7FFFFFFF PUSH2 0x513 PUSH1 0x1 PUSH1 0x40 DUP8 KECCAK256 SWAP4 PUSH2 0x367 PUSH2 0x345 PUSH4 0xFFFFFFFF DUP8 SLOAD PUSH1 0x20 SHR AND PUSH4 0xFFFFFFFF DUP5 SLOAD PUSH1 0x20 SHR AND PUSH2 0x237D JUMP JUMPDEST DUP3 SLOAD PUSH8 0xFFFFFFFF00000000 NOT AND PUSH1 0x20 SWAP2 SWAP1 SWAP2 SHL PUSH8 0xFFFFFFFF00000000 AND OR DUP3 SSTORE JUMP JUMPDEST PUSH2 0x3B2 PUSH2 0x388 PUSH4 0xFFFFFFFF DUP8 SLOAD PUSH1 0x40 SHR AND PUSH4 0xFFFFFFFF DUP5 SLOAD PUSH1 0x40 SHR AND PUSH2 0x237D JUMP JUMPDEST DUP3 SLOAD PUSH12 0xFFFFFFFF0000000000000000 NOT AND PUSH1 0x40 SWAP2 SWAP1 SWAP2 SHL PUSH12 0xFFFFFFFF0000000000000000 AND OR DUP3 SSTORE JUMP JUMPDEST PUSH2 0x415 PUSH2 0x3DB PUSH8 0xFFFFFFFFFFFFFFFF DUP8 SLOAD PUSH1 0x60 SHR AND PUSH8 0xFFFFFFFFFFFFFFFF DUP5 SLOAD PUSH1 0x60 SHR AND PUSH2 0x26DD JUMP JUMPDEST DUP3 SLOAD PUSH20 0xFFFFFFFFFFFFFFFF000000000000000000000000 NOT AND PUSH1 0x60 SWAP2 SWAP1 SWAP2 SHL PUSH20 0xFFFFFFFFFFFFFFFF000000000000000000000000 AND OR DUP3 SSTORE JUMP JUMPDEST PUSH2 0x456 PUSH2 0x436 PUSH4 0xFFFFFFFF DUP8 SLOAD PUSH1 0xA0 SHR AND PUSH4 0xFFFFFFFF DUP5 SLOAD PUSH1 0xA0 SHR AND PUSH2 0x237D JUMP JUMPDEST DUP3 SLOAD PUSH4 0xFFFFFFFF PUSH1 0xA0 SHL NOT AND PUSH1 0xA0 SWAP2 SWAP1 SWAP2 SHL PUSH4 0xFFFFFFFF PUSH1 0xA0 SHL AND OR DUP3 SSTORE JUMP JUMPDEST PUSH2 0x497 PUSH2 0x477 PUSH4 0xFFFFFFFF DUP8 SLOAD PUSH1 0xC0 SHR AND PUSH4 0xFFFFFFFF DUP5 SLOAD PUSH1 0xC0 SHR AND PUSH2 0x237D JUMP JUMPDEST DUP3 SLOAD PUSH4 0xFFFFFFFF PUSH1 0xC0 SHL NOT AND PUSH1 0xC0 SWAP2 SWAP1 SWAP2 SHL PUSH4 0xFFFFFFFF PUSH1 0xC0 SHL AND OR DUP3 SSTORE JUMP JUMPDEST PUSH2 0x4CC PUSH2 0x4AC DUP7 SLOAD PUSH1 0xE0 SHR DUP4 SLOAD PUSH1 0xE0 SHR PUSH2 0x237D JUMP JUMPDEST DUP3 SLOAD PUSH1 0x1 PUSH1 0x1 PUSH1 0xE0 SHL SUB AND PUSH1 0xE0 SWAP2 SWAP1 SWAP2 SHL PUSH1 0x1 PUSH1 0x1 PUSH1 0xE0 SHL SUB NOT AND OR DUP3 SSTORE JUMP JUMPDEST ADD SWAP3 PUSH4 0xFFFFFFFF DUP4 PUSH2 0x4EA PUSH1 0x1 DUP4 DUP9 SLOAD AND SWAP5 ADD SWAP4 DUP4 DUP6 SLOAD AND SWAP1 PUSH2 0x237D JUMP JUMPDEST PUSH1 0x1 SHR AND AND PUSH4 0xFFFFFFFF NOT DUP6 SLOAD AND OR DUP5 SSTORE PUSH4 0xFFFFFFFF DUP1 DUP6 SLOAD PUSH1 0x20 SHR AND SWAP2 SLOAD PUSH1 0x20 SHR AND SWAP1 PUSH2 0x237D JUMP JUMPDEST PUSH1 0x1 SHR AND PUSH8 0xFFFFFFFF00000000 DUP3 SLOAD SWAP2 PUSH1 0x20 SHL AND SWAP1 PUSH8 0xFFFFFFFF00000000 NOT AND OR SWAP1 SSTORE JUMP JUMPDEST PUSH2 0x573 DUP2 PUSH0 MSTORE PUSH32 0x80BB2B638CC20BC4D0A60D66940F3AB4A00C1D7B313497CA82FB0B4AB0079302 PUSH1 0x20 MSTORE PUSH1 0x1 PUSH1 0x1 PUSH1 0xA0 SHL SUB PUSH1 0x40 PUSH0 KECCAK256 SLOAD AND SWAP1 JUMP JUMPDEST PUSH1 0x1 PUSH1 0x1 PUSH1 0xA0 SHL SUB DUP2 AND SWAP1 DUP3 PUSH0 DUP4 ISZERO SWAP4 DUP5 ISZERO PUSH2 0x633 JUMPI JUMPDEST DUP3 DUP3 MSTORE PUSH32 0x80BB2B638CC20BC4D0A60D66940F3AB4A00C1D7B313497CA82FB0B4AB0079302 PUSH1 0x20 MSTORE PUSH1 0x40 DUP3 KECCAK256 PUSH1 0x1 PUSH1 0x1 PUSH1 0xA0 SHL SUB NOT DUP2 SLOAD AND SWAP1 SSTORE PUSH32 0xDDF252AD1BE2C89B69C2B068FC378DAA952BA7F163C4A11628F55A4DF523B3EF DUP3 DUP1 LOG4 POP PUSH2 0x621 JUMPI PUSH2 0x610 DUP2 PUSH1 0x1 PUSH1 0x1 PUSH1 0xA0 SHL SUB SWAP3 DUP5 MSTORE DUP4 PUSH1 0x20 MSTORE DUP4 PUSH1 0x1 PUSH1 0x40 DUP3 KECCAK256 DUP3 DUP2 SSTORE ADD SSTORE PUSH2 0x2944 JUMP JUMPDEST AND DUP2 MSTORE PUSH1 0x2 PUSH1 0x20 MSTORE DUP1 PUSH1 0x40 DUP2 KECCAK256 SSTORE DUP1 RETURN JUMPDEST PUSH4 0x7E273289 PUSH1 0xE0 SHL DUP3 MSTORE PUSH1 0x4 MSTORE PUSH1 0x24 SWAP1 REVERT JUMPDEST PUSH2 0x671 DUP4 PUSH0 MSTORE PUSH32 0x80BB2B638CC20BC4D0A60D66940F3AB4A00C1D7B313497CA82FB0B4AB0079304 PUSH1 0x20 MSTORE PUSH1 0x40 PUSH0 KECCAK256 PUSH1 0x1 PUSH1 0x1 PUSH1 0xA0 SHL SUB NOT DUP2 SLOAD AND SWAP1 SSTORE JUMP JUMPDEST PUSH2 0x6AB DUP5 PUSH1 0x1 PUSH1 0x1 PUSH1 0xA0 SHL SUB AND PUSH0 MSTORE PUSH32 0x80BB2B638CC20BC4D0A60D66940F3AB4A00C1D7B313497CA82FB0B4AB0079303 PUSH1 0x20 MSTORE PUSH1 0x40 PUSH0 KECCAK256 SWAP1 JUMP JUMPDEST DUP3 NOT DUP2 SLOAD ADD SWAP1 SSTORE PUSH2 0x58A JUMP JUMPDEST PUSH1 0x64 PUSH1 0x40 MLOAD PUSH3 0x461BCD PUSH1 0xE5 SHL DUP2 MSTORE PUSH1 0x20 PUSH1 0x4 DUP3 ADD MSTORE PUSH1 0x7 PUSH1 0x24 DUP3 ADD MSTORE PUSH32 0x617070726F766500000000000000000000000000000000000000000000000000 PUSH1 0x44 DUP3 ADD MSTORE REVERT JUMPDEST PUSH1 0x64 PUSH1 0x40 MLOAD PUSH3 0x461BCD PUSH1 0xE5 SHL DUP2 MSTORE PUSH1 0x20 PUSH1 0x4 DUP3 ADD MSTORE PUSH1 0x5 PUSH1 0x24 DUP3 ADD MSTORE PUSH32 0x6F776E6572000000000000000000000000000000000000000000000000000000 PUSH1 0x44 DUP3 ADD MSTORE REVERT JUMPDEST CALLVALUE PUSH2 0x798 JUMPI PUSH1 0x20 CALLDATASIZE PUSH1 0x3 NOT ADD SLT PUSH2 0x798 JUMPI PUSH2 0x75B PUSH1 0x4 CALLDATALOAD PUSH2 0x2944 JUMP JUMPDEST POP PUSH0 PUSH1 0x40 MLOAD PUSH2 0x76B PUSH1 0x20 DUP3 PUSH2 0x22EA JUMP JUMPDEST MSTORE PUSH2 0x794 PUSH1 0x40 MLOAD PUSH2 0x77D PUSH1 0x20 DUP3 PUSH2 0x22EA JUMP JUMPDEST PUSH0 DUP2 MSTORE PUSH1 0x40 MLOAD SWAP2 DUP3 SWAP2 PUSH1 0x20 DUP4 MSTORE PUSH1 0x20 DUP4 ADD SWAP1 PUSH2 0x2260 JUMP JUMPDEST SUB SWAP1 RETURN JUMPDEST PUSH0 DUP1 REVERT JUMPDEST CALLVALUE PUSH2 0x798 JUMPI PUSH1 0x80 CALLDATASIZE PUSH1 0x3 NOT ADD SLT PUSH2 0x798 JUMPI PUSH2 0x7B5 PUSH2 0x2284 JUMP JUMPDEST PUSH2 0x7BD PUSH2 0x229A JUMP JUMPDEST PUSH1 0x64 CALLDATALOAD SWAP2 PUSH8 0xFFFFFFFFFFFFFFFF DUP4 GT PUSH2 0x798 JUMPI PUSH2 0x7E1 PUSH2 0x7EB SWAP4 CALLDATASIZE SWAP1 PUSH1 0x4 ADD PUSH2 0x2328 JUMP JUMPDEST SWAP2 PUSH1 0x44 CALLDATALOAD SWAP2 PUSH2 0x2716 JUMP JUMPDEST STOP JUMPDEST CALLVALUE PUSH2 0x798 JUMPI PUSH1 0x20 CALLDATASIZE PUSH1 0x3 NOT ADD SLT PUSH2 0x798 JUMPI PUSH2 0x806 PUSH2 0x2889 JUMP JUMPDEST PUSH1 0x4 CALLDATALOAD PUSH0 MSTORE PUSH0 PUSH1 0x20 MSTORE PUSH2 0x7EB PUSH1 0x40 PUSH0 KECCAK256 PUSH2 0x829 PUSH4 0xFFFFFFFF DUP3 SLOAD PUSH1 0xC0 SHR AND PUSH2 0x26FF JUMP JUMPDEST PUSH4 0xFFFFFFFF PUSH1 0xC0 SHL NOT PUSH4 0xFFFFFFFF PUSH1 0xC0 SHL DUP4 SLOAD SWAP3 PUSH1 0xC0 SHL AND SWAP2 AND OR SWAP1 SSTORE JUMP JUMPDEST CALLVALUE PUSH2 0x798 JUMPI PUSH1 0x20 CALLDATASIZE PUSH1 0x3 NOT ADD SLT PUSH2 0x798 JUMPI PUSH2 0x861 PUSH2 0x2889 JUMP JUMPDEST PUSH1 0x4 CALLDATALOAD PUSH0 MSTORE PUSH0 PUSH1 0x20 MSTORE PUSH2 0x7EB PUSH1 0x40 PUSH0 KECCAK256 PUSH2 0x87E DUP2 SLOAD PUSH1 0xE0 SHR PUSH2 0x26FF JUMP JUMPDEST PUSH1 0x1 PUSH1 0x1 PUSH1 0xE0 SHL SUB PUSH1 0x1 PUSH1 0x1 PUSH1 0xE0 SHL SUB NOT DUP4 SLOAD SWAP3 PUSH1 0xE0 SHL AND SWAP2 AND OR SWAP1 SSTORE JUMP JUMPDEST CALLVALUE PUSH2 0x798 JUMPI PUSH1 0x20 CALLDATASIZE PUSH1 0x3 NOT ADD SLT PUSH2 0x798 JUMPI PUSH2 0x8B6 PUSH2 0x2889 JUMP JUMPDEST PUSH1 0x4 CALLDATALOAD PUSH0 MSTORE PUSH0 PUSH1 0x20 MSTORE PUSH2 0x7EB PUSH1 0x40 PUSH0 KECCAK256 PUSH2 0x8D9 PUSH4 0xFFFFFFFF DUP3 SLOAD PUSH1 0xA0 SHR AND PUSH2 0x26FF JUMP JUMPDEST PUSH4 0xFFFFFFFF PUSH1 0xA0 SHL NOT PUSH4 0xFFFFFFFF PUSH1 0xA0 SHL DUP4 SLOAD SWAP3 PUSH1 0xA0 SHL AND SWAP2 AND OR SWAP1 SSTORE JUMP JUMPDEST CALLVALUE PUSH2 0x798 JUMPI PUSH0 CALLDATASIZE PUSH1 0x3 NOT ADD SLT PUSH2 0x798 JUMPI PUSH2 0x794 PUSH1 0x40 MLOAD PUSH2 0x919 PUSH1 0x40 DUP3 PUSH2 0x22EA JUMP JUMPDEST PUSH1 0x5 DUP2 MSTORE PUSH32 0x352E302E30000000000000000000000000000000000000000000000000000000 PUSH1 0x20 DUP3 ADD MSTORE PUSH1 0x40 MLOAD SWAP2 DUP3 SWAP2 PUSH1 0x20 DUP4 MSTORE PUSH1 0x20 DUP4 ADD SWAP1 PUSH2 0x2260 JUMP JUMPDEST CALLVALUE PUSH2 0x798 JUMPI PUSH1 0x20 CALLDATASIZE PUSH1 0x3 NOT ADD SLT PUSH2 0x798 JUMPI PUSH1 0x4 CALLDATALOAD PUSH0 MSTORE PUSH0 PUSH1 0x20 MSTORE PUSH2 0x120 PUSH1 0x40 PUSH0 KECCAK256 PUSH4 0xFFFFFFFF PUSH1 0x1 DUP3 SLOAD SWAP3 ADD SLOAD PUSH1 0x40 MLOAD SWAP3 DUP3 DUP2 AND DUP5 MSTORE DUP3 DUP2 PUSH1 0x20 SHR AND PUSH1 0x20 DUP6 ADD MSTORE DUP3 DUP2 PUSH1 0x40 SHR AND PUSH1 0x40 DUP6 ADD MSTORE PUSH8 0xFFFFFFFFFFFFFFFF DUP2 PUSH1 0x60 SHR AND PUSH1 0x60 DUP6 ADD MSTORE DUP3 DUP2 PUSH1 0xA0 SHR AND PUSH1 0x80 DUP6 ADD MSTORE DUP3 DUP2 PUSH1 0xC0 SHR AND PUSH1 0xA0 DUP6 ADD MSTORE PUSH1 0xE0 SHR PUSH1 0xC0 DUP5 ADD MSTORE DUP2 DUP2 AND PUSH1 0xE0 DUP5 ADD MSTORE PUSH1 0x20 SHR AND PUSH2 0x100 DUP3 ADD MSTORE RETURN JUMPDEST CALLVALUE PUSH2 0x798 JUMPI PUSH1 0x40 CALLDATASIZE PUSH1 0x3 NOT ADD SLT PUSH2 0x798 JUMPI PUSH2 0xA01 PUSH2 0x2284 JUMP JUMPDEST PUSH1 0x1 PUSH1 0x1 PUSH1 0xA0 SHL SUB PUSH2 0xA11 PUSH2 0x236E JUMP JUMPDEST SWAP2 AND SWAP1 DUP2 ISZERO PUSH2 0xA90 JUMPI CALLER PUSH0 SWAP1 DUP2 MSTORE PUSH32 0x80BB2B638CC20BC4D0A60D66940F3AB4A00C1D7B313497CA82FB0B4AB0079305 PUSH1 0x20 MSTORE PUSH1 0x40 SWAP1 KECCAK256 DUP3 PUSH0 MSTORE PUSH1 0x20 MSTORE PUSH1 0x40 PUSH0 KECCAK256 SWAP1 ISZERO ISZERO SWAP1 PUSH1 0xFF NOT DUP2 SLOAD AND PUSH1 0xFF DUP4 AND OR SWAP1 SSTORE PUSH1 0x40 MLOAD SWAP1 DUP2 MSTORE PUSH32 0x17307EAB39AB6107E8899845AD3D59BD9653F200F220920489CA2B5937696C31 PUSH1 0x20 CALLER SWAP3 LOG3 STOP JUMPDEST POP PUSH32 0x5B08BA1800000000000000000000000000000000000000000000000000000000 PUSH0 MSTORE PUSH1 0x4 MSTORE PUSH1 0x24 PUSH0 REVERT JUMPDEST CALLVALUE PUSH2 0x798 JUMPI PUSH0 CALLDATASIZE PUSH1 0x3 NOT ADD SLT PUSH2 0x798 JUMPI PUSH1 0x20 PUSH1 0x40 MLOAD PUSH0 DUP2 MSTORE RETURN JUMPDEST CALLVALUE PUSH2 0x798 JUMPI PUSH1 0x40 CALLDATASIZE PUSH1 0x3 NOT ADD SLT PUSH2 0x798 JUMPI PUSH1 0x4 CALLDATALOAD PUSH2 0xAF2 PUSH2 0x236E JUMP JUMPDEST PUSH2 0xAFA PUSH2 0x2889 JUMP JUMPDEST ISZERO PUSH2 0xB40 JUMPI PUSH0 MSTORE PUSH0 PUSH1 0x20 MSTORE PUSH2 0x7EB PUSH1 0x40 PUSH0 KECCAK256 PUSH2 0xB1F PUSH4 0xFFFFFFFF DUP3 SLOAD PUSH1 0x20 SHR AND PUSH2 0x26FF JUMP JUMPDEST PUSH8 0xFFFFFFFF00000000 DUP3 SLOAD SWAP2 PUSH1 0x20 SHL AND SWAP1 PUSH8 0xFFFFFFFF00000000 NOT AND OR SWAP1 SSTORE JUMP JUMPDEST PUSH0 MSTORE PUSH0 PUSH1 0x20 MSTORE PUSH2 0x7EB PUSH1 0x40 PUSH0 KECCAK256 PUSH2 0xB60 PUSH4 0xFFFFFFFF DUP3 SLOAD PUSH1 0x40 SHR AND PUSH2 0x26FF JUMP JUMPDEST PUSH12 0xFFFFFFFF0000000000000000 DUP3 SLOAD SWAP2 PUSH1 0x40 SHL AND SWAP1 PUSH12 0xFFFFFFFF0000000000000000 NOT AND OR SWAP1 SSTORE JUMP JUMPDEST CALLVALUE PUSH2 0x798 JUMPI PUSH0 CALLDATASIZE PUSH1 0x3 NOT ADD SLT PUSH2 0x798 JUMPI PUSH1 0x40 MLOAD PUSH0 PUSH32 0x80BB2B638CC20BC4D0A60D66940F3AB4A00C1D7B313497CA82FB0B4AB0079301 SLOAD PUSH2 0xBC8 DUP2 PUSH2 0x2397 JUMP JUMPDEST DUP1 DUP5 MSTORE SWAP1 PUSH1 0x1 DUP2 AND SWAP1 DUP2 ISZERO PUSH2 0xC81 JUMPI POP PUSH1 0x1 EQ PUSH2 0xC04 JUMPI JUMPDEST PUSH2 0x794 DUP4 PUSH2 0xBF0 DUP2 DUP6 SUB DUP3 PUSH2 0x22EA JUMP JUMPDEST PUSH1 0x40 MLOAD SWAP2 DUP3 SWAP2 PUSH1 0x20 DUP4 MSTORE PUSH1 0x20 DUP4 ADD SWAP1 PUSH2 0x2260 JUMP JUMPDEST PUSH32 0x80BB2B638CC20BC4D0A60D66940F3AB4A00C1D7B313497CA82FB0B4AB0079301 PUSH0 SWAP1 DUP2 MSTORE PUSH32 0xF4BAD0A69248F59680A4F2B3000328CEC71A413447C96781CFE5996DAA8C456E SWAP4 SWAP3 POP SWAP1 JUMPDEST DUP1 DUP3 LT PUSH2 0xC67 JUMPI POP SWAP1 SWAP2 POP DUP2 ADD PUSH1 0x20 ADD PUSH2 0xBF0 PUSH2 0xBE0 JUMP JUMPDEST SWAP2 SWAP3 PUSH1 0x1 DUP2 PUSH1 0x20 SWAP3 SLOAD DUP4 DUP6 DUP9 ADD ADD MSTORE ADD SWAP2 ADD SWAP1 SWAP3 SWAP2 PUSH2 0xC4F JUMP JUMPDEST PUSH1 0xFF NOT AND PUSH1 0x20 DUP1 DUP7 ADD SWAP2 SWAP1 SWAP2 MSTORE SWAP2 ISZERO ISZERO PUSH1 0x5 SHL DUP5 ADD SWAP1 SWAP2 ADD SWAP2 POP PUSH2 0xBF0 SWAP1 POP PUSH2 0xBE0 JUMP JUMPDEST CALLVALUE PUSH2 0x798 JUMPI PUSH1 0x40 CALLDATASIZE PUSH1 0x3 NOT ADD SLT PUSH2 0x798 JUMPI PUSH2 0xCBE PUSH2 0x229A JUMP JUMPDEST PUSH1 0x4 CALLDATALOAD PUSH0 MSTORE PUSH32 0x2DD7BC7DEC4DCEEDDA775E58DD541E08A116C6C53815C0BD028192F7B626800 PUSH1 0x20 MSTORE PUSH1 0x1 PUSH1 0x1 PUSH1 0xA0 SHL SUB PUSH1 0x40 PUSH0 KECCAK256 SWAP2 AND PUSH0 MSTORE PUSH1 0x20 MSTORE PUSH1 0x20 PUSH1 0xFF PUSH1 0x40 PUSH0 KECCAK256 SLOAD AND PUSH1 0x40 MLOAD SWAP1 ISZERO ISZERO DUP2 MSTORE RETURN JUMPDEST CALLVALUE PUSH2 0x798 JUMPI PUSH0 CALLDATASIZE PUSH1 0x3 NOT ADD SLT PUSH2 0x798 JUMPI PUSH32 0xF0C57E16840DF040F15088DC2F81FE391C3923BEC73E23A9662EFC9C229C6A00 SLOAD PUSH1 0xFF DUP2 PUSH1 0x40 SHR AND ISZERO SWAP1 PUSH8 0xFFFFFFFFFFFFFFFF DUP2 AND DUP1 ISZERO SWAP1 DUP2 PUSH2 0x13B4 JUMPI JUMPDEST PUSH1 0x1 EQ SWAP1 DUP2 PUSH2 0x13AA JUMPI JUMPDEST ISZERO SWAP1 DUP2 PUSH2 0x13A1 JUMPI JUMPDEST POP PUSH2 0x1379 JUMPI PUSH8 0xFFFFFFFFFFFFFFFF NOT DUP2 AND PUSH1 0x1 OR PUSH32 0xF0C57E16840DF040F15088DC2F81FE391C3923BEC73E23A9662EFC9C229C6A00 SSTORE DUP2 PUSH2 0x133A JUMPI JUMPDEST POP PUSH1 0x40 SWAP1 DUP2 MLOAD SWAP2 PUSH2 0xDBC DUP2 DUP5 PUSH2 0x22EA JUMP JUMPDEST PUSH1 0x10 DUP4 MSTORE PUSH32 0x52657075746174696F6E20546F6B656E00000000000000000000000000000000 PUSH1 0x20 DUP5 ADD MSTORE DUP1 MLOAD SWAP2 PUSH2 0xDF3 DUP3 DUP5 PUSH2 0x22EA JUMP JUMPDEST PUSH1 0x3 DUP4 MSTORE PUSH32 0x5245500000000000000000000000000000000000000000000000000000000000 PUSH1 0x20 DUP5 ADD MSTORE PUSH2 0xE25 PUSH2 0x2E52 JUMP JUMPDEST PUSH2 0xE2D PUSH2 0x2E52 JUMP JUMPDEST DUP4 MLOAD PUSH8 0xFFFFFFFFFFFFFFFF DUP2 GT PUSH2 0x119C JUMPI PUSH2 0xE68 PUSH32 0x80BB2B638CC20BC4D0A60D66940F3AB4A00C1D7B313497CA82FB0B4AB0079300 SLOAD PUSH2 0x2397 JUMP JUMPDEST PUSH1 0x1F DUP2 GT PUSH2 0x127A JUMPI JUMPDEST POP PUSH1 0x20 SWAP5 PUSH1 0x1F DUP3 GT PUSH1 0x1 EQ PUSH2 0x11BB JUMPI SWAP5 DUP2 SWAP3 SWAP4 SWAP5 SWAP6 PUSH0 SWAP3 PUSH2 0x11B0 JUMPI JUMPDEST POP POP DUP2 PUSH1 0x1 SHL SWAP2 PUSH0 NOT SWAP1 PUSH1 0x3 SHL SHR NOT AND OR PUSH32 0x80BB2B638CC20BC4D0A60D66940F3AB4A00C1D7B313497CA82FB0B4AB0079300 SSTORE JUMPDEST DUP3 MLOAD PUSH8 0xFFFFFFFFFFFFFFFF DUP2 GT PUSH2 0x119C JUMPI PUSH2 0xEFC PUSH32 0x80BB2B638CC20BC4D0A60D66940F3AB4A00C1D7B313497CA82FB0B4AB0079301 SLOAD PUSH2 0x2397 JUMP JUMPDEST PUSH1 0x1F DUP2 GT PUSH2 0x111A JUMPI JUMPDEST POP PUSH1 0x20 PUSH1 0x1F DUP3 GT PUSH1 0x1 EQ PUSH2 0x1079 JUMPI DUP2 SWAP3 SWAP4 SWAP5 PUSH0 SWAP3 PUSH2 0x106E JUMPI JUMPDEST POP POP DUP2 PUSH1 0x1 SHL SWAP2 PUSH0 NOT SWAP1 PUSH1 0x3 SHL SHR NOT AND OR PUSH32 0x80BB2B638CC20BC4D0A60D66940F3AB4A00C1D7B313497CA82FB0B4AB0079301 SSTORE JUMPDEST PUSH2 0xF5B CALLER PUSH2 0x2BE4 JUMP JUMPDEST POP PUSH9 0x4445414C5F524F4C45 PUSH1 0xB8 SHL PUSH0 DUP2 DUP2 MSTORE PUSH32 0x2DD7BC7DEC4DCEEDDA775E58DD541E08A116C6C53815C0BD028192F7B626800 PUSH1 0x20 MSTORE DUP4 DUP2 KECCAK256 PUSH1 0x1 ADD DUP1 SLOAD PUSH32 0x4D41524B45545F524F4C45000000000000000000000000000000000000000000 SWAP2 DUP3 SWAP1 SSTORE SWAP5 MLOAD SWAP5 SWAP1 SWAP3 SWAP1 SWAP2 PUSH32 0xBD79B86FFE0AB8E8776151514217CD7CACD52C909F66475C3AF44E129F0B00FF SWAP1 DUP1 LOG4 PUSH1 0x1 DUP1 SSTORE PUSH2 0xFF3 JUMPI STOP JUMPDEST PUSH1 0x20 PUSH32 0xC7F505B2F371AE2175EE4913F4499E1F2633A7B5936321EED1CDAEB6115181D2 SWAP2 PUSH9 0xFF0000000000000000 NOT PUSH32 0xF0C57E16840DF040F15088DC2F81FE391C3923BEC73E23A9662EFC9C229C6A00 SLOAD AND PUSH32 0xF0C57E16840DF040F15088DC2F81FE391C3923BEC73E23A9662EFC9C229C6A00 SSTORE PUSH1 0x1 DUP2 MSTORE LOG1 STOP JUMPDEST ADD MLOAD SWAP1 POP DUP5 DUP1 PUSH2 0xF1E JUMP JUMPDEST PUSH1 0x1F NOT DUP3 AND SWAP1 PUSH32 0x80BB2B638CC20BC4D0A60D66940F3AB4A00C1D7B313497CA82FB0B4AB0079301 PUSH0 MSTORE DUP1 PUSH0 KECCAK256 SWAP2 PUSH0 JUMPDEST DUP2 DUP2 LT PUSH2 0x1102 JUMPI POP SWAP6 DUP4 PUSH1 0x1 SWAP6 SWAP7 SWAP8 LT PUSH2 0x10EA JUMPI JUMPDEST POP POP POP DUP2 SHL ADD PUSH32 0x80BB2B638CC20BC4D0A60D66940F3AB4A00C1D7B313497CA82FB0B4AB0079301 SSTORE PUSH2 0xF52 JUMP JUMPDEST ADD MLOAD PUSH0 NOT PUSH1 0xF8 DUP5 PUSH1 0x3 SHL AND SHR NOT AND SWAP1 SSTORE DUP5 DUP1 DUP1 PUSH2 0x10BD JUMP JUMPDEST SWAP2 SWAP3 PUSH1 0x20 PUSH1 0x1 DUP2 SWAP3 DUP7 DUP12 ADD MLOAD DUP2 SSTORE ADD SWAP5 ADD SWAP3 ADD PUSH2 0x10A8 JUMP JUMPDEST PUSH32 0x80BB2B638CC20BC4D0A60D66940F3AB4A00C1D7B313497CA82FB0B4AB0079301 PUSH0 MSTORE PUSH32 0xF4BAD0A69248F59680A4F2B3000328CEC71A413447C96781CFE5996DAA8C456E PUSH1 0x1F DUP4 ADD PUSH1 0x5 SHR DUP2 ADD SWAP2 PUSH1 0x20 DUP5 LT PUSH2 0x1192 JUMPI JUMPDEST PUSH1 0x1F ADD PUSH1 0x5 SHR ADD SWAP1 JUMPDEST DUP2 DUP2 LT PUSH2 0x1187 JUMPI POP PUSH2 0xF05 JUMP JUMPDEST PUSH0 DUP2 SSTORE PUSH1 0x1 ADD PUSH2 0x117A JUMP JUMPDEST SWAP1 SWAP2 POP DUP2 SWAP1 PUSH2 0x1171 JUMP JUMPDEST PUSH4 0x4E487B71 PUSH1 0xE0 SHL PUSH0 MSTORE PUSH1 0x41 PUSH1 0x4 MSTORE PUSH1 0x24 PUSH0 REVERT JUMPDEST ADD MLOAD SWAP1 POP DUP6 DUP1 PUSH2 0xE8D JUMP JUMPDEST PUSH1 0x1F NOT DUP3 AND SWAP6 PUSH32 0x80BB2B638CC20BC4D0A60D66940F3AB4A00C1D7B313497CA82FB0B4AB0079300 PUSH0 MSTORE PUSH32 0x37C58C799B6609234B945E882912EE9AD34948A1DFAA20A97485E1A7752BBF81 SWAP2 PUSH0 JUMPDEST DUP9 DUP2 LT PUSH2 0x1262 JUMPI POP DUP4 PUSH1 0x1 SWAP6 SWAP7 SWAP8 SWAP9 LT PUSH2 0x124A JUMPI JUMPDEST POP POP POP DUP2 SHL ADD PUSH32 0x80BB2B638CC20BC4D0A60D66940F3AB4A00C1D7B313497CA82FB0B4AB0079300 SSTORE PUSH2 0xEC1 JUMP JUMPDEST ADD MLOAD PUSH0 NOT PUSH1 0xF8 DUP5 PUSH1 0x3 SHL AND SHR NOT AND SWAP1 SSTORE DUP6 DUP1 DUP1 PUSH2 0x121D JUMP JUMPDEST SWAP2 SWAP3 PUSH1 0x20 PUSH1 0x1 DUP2 SWAP3 DUP7 DUP6 ADD MLOAD DUP2 SSTORE ADD SWAP5 ADD SWAP3 ADD PUSH2 0x1208 JUMP JUMPDEST PUSH32 0x80BB2B638CC20BC4D0A60D66940F3AB4A00C1D7B313497CA82FB0B4AB0079300 PUSH0 MSTORE PUSH1 0x1F DUP3 ADD PUSH1 0x5 SHR PUSH32 0x37C58C799B6609234B945E882912EE9AD34948A1DFAA20A97485E1A7752BBF81 ADD SWAP1 PUSH1 0x20 DUP4 LT PUSH2 0x1312 JUMPI JUMPDEST PUSH1 0x1F ADD PUSH1 0x5 SHR PUSH32 0x37C58C799B6609234B945E882912EE9AD34948A1DFAA20A97485E1A7752BBF81 ADD SWAP1 JUMPDEST DUP2 DUP2 LT PUSH2 0x1307 JUMPI POP PUSH2 0xE71 JUMP JUMPDEST PUSH0 DUP2 SSTORE PUSH1 0x1 ADD PUSH2 0x12FA JUMP JUMPDEST PUSH32 0x37C58C799B6609234B945E882912EE9AD34948A1DFAA20A97485E1A7752BBF81 SWAP2 POP PUSH2 0x12D0 JUMP JUMPDEST PUSH9 0xFFFFFFFFFFFFFFFFFF NOT AND PUSH9 0x10000000000000001 OR PUSH32 0xF0C57E16840DF040F15088DC2F81FE391C3923BEC73E23A9662EFC9C229C6A00 SSTORE DUP2 PUSH2 0xDAB JUMP JUMPDEST PUSH32 0xF92EE8A900000000000000000000000000000000000000000000000000000000 PUSH0 MSTORE PUSH1 0x4 PUSH0 REVERT JUMPDEST SWAP1 POP ISZERO DUP4 PUSH2 0xD6F JUMP JUMPDEST ADDRESS EXTCODESIZE ISZERO SWAP2 POP PUSH2 0xD67 JUMP JUMPDEST DUP4 SWAP2 POP PUSH2 0xD5D JUMP JUMPDEST CALLVALUE PUSH2 0x798 JUMPI PUSH1 0x40 CALLDATASIZE PUSH1 0x3 NOT ADD SLT PUSH2 0x798 JUMPI PUSH1 0x24 CALLDATALOAD PUSH8 0xFFFFFFFFFFFFFFFF DUP2 AND DUP2 SUB PUSH2 0x798 JUMPI PUSH2 0x7EB SWAP1 PUSH2 0x13ED PUSH2 0x2889 JUMP JUMPDEST PUSH1 0x4 CALLDATALOAD PUSH0 MSTORE PUSH0 PUSH1 0x20 MSTORE PUSH2 0x1412 PUSH1 0x40 PUSH0 KECCAK256 SWAP2 PUSH8 0xFFFFFFFFFFFFFFFF DUP4 SLOAD PUSH1 0x60 SHR AND PUSH2 0x26DD JUMP JUMPDEST PUSH20 0xFFFFFFFFFFFFFFFF000000000000000000000000 NOT PUSH20 0xFFFFFFFFFFFFFFFF000000000000000000000000 DUP4 SLOAD SWAP3 PUSH1 0x60 SHL AND SWAP2 AND OR SWAP1 SSTORE JUMP JUMPDEST CALLVALUE PUSH2 0x798 JUMPI PUSH1 0x20 CALLDATASIZE PUSH1 0x3 NOT ADD SLT PUSH2 0x798 JUMPI PUSH2 0x1464 PUSH2 0x2284 JUMP JUMPDEST PUSH1 0x1 PUSH1 0x1 PUSH1 0xA0 SHL SUB DUP2 AND ISZERO PUSH2 0x14B8 JUMPI PUSH2 0x14AF PUSH1 0x20 SWAP2 PUSH1 0x1 PUSH1 0x1 PUSH1 0xA0 SHL SUB AND PUSH0 MSTORE PUSH32 0x80BB2B638CC20BC4D0A60D66940F3AB4A00C1D7B313497CA82FB0B4AB0079303 PUSH1 0x20 MSTORE PUSH1 0x40 PUSH0 KECCAK256 SWAP1 JUMP JUMPDEST SLOAD PUSH1 0x40 MLOAD SWAP1 DUP2 MSTORE RETURN JUMPDEST PUSH32 0x89C62B6400000000000000000000000000000000000000000000000000000000 PUSH0 MSTORE PUSH0 PUSH1 0x4 MSTORE PUSH1 0x24 PUSH0 REVERT JUMPDEST CALLVALUE PUSH2 0x798 JUMPI PUSH1 0x20 CALLDATASIZE PUSH1 0x3 NOT ADD SLT PUSH2 0x798 JUMPI PUSH1 0x20 PUSH2 0x1502 PUSH1 0x4 CALLDATALOAD PUSH2 0x2944 JUMP JUMPDEST PUSH1 0x1 PUSH1 0x1 PUSH1 0xA0 SHL SUB PUSH1 0x40 MLOAD SWAP2 AND DUP2 MSTORE RETURN JUMPDEST CALLVALUE PUSH2 0x798 JUMPI PUSH0 CALLDATASIZE PUSH1 0x3 NOT ADD SLT PUSH2 0x798 JUMPI PUSH1 0x1 PUSH1 0x1 PUSH1 0xA0 SHL SUB PUSH32 0x0 AND ADDRESS SUB PUSH2 0x157D JUMPI PUSH1 0x20 PUSH1 0x40 MLOAD PUSH32 0x360894A13BA1A3210667C828492DB98DCA3E2076CC3735A920A3CA505D382BBC DUP2 MSTORE RETURN JUMPDEST PUSH32 0xE07C8DBA00000000000000000000000000000000000000000000000000000000 PUSH0 MSTORE PUSH1 0x4 PUSH0 REVERT JUMPDEST PUSH1 0x40 CALLDATASIZE PUSH1 0x3 NOT ADD SLT PUSH2 0x798 JUMPI PUSH2 0x15B9 PUSH2 0x2284 JUMP JUMPDEST PUSH1 0x24 CALLDATALOAD PUSH8 0xFFFFFFFFFFFFFFFF DUP2 GT PUSH2 0x798 JUMPI PUSH2 0x15D9 SWAP1 CALLDATASIZE SWAP1 PUSH1 0x4 ADD PUSH2 0x2328 JUMP JUMPDEST PUSH1 0x1 PUSH1 0x1 PUSH1 0xA0 SHL SUB PUSH32 0x0 AND DUP1 ADDRESS EQ SWAP1 DUP2 ISZERO PUSH2 0x1825 JUMPI JUMPDEST POP PUSH2 0x157D JUMPI CALLER PUSH0 SWAP1 DUP2 MSTORE PUSH32 0xB7DB2DD08FCB62D0C9E08C51941CAE53C267786A0B75803FB7960902FC8EF97D PUSH1 0x20 MSTORE PUSH1 0x40 SWAP1 KECCAK256 SLOAD PUSH1 0xFF AND ISZERO PUSH2 0x180E JUMPI PUSH1 0x1 PUSH1 0x1 PUSH1 0xA0 SHL SUB DUP3 AND SWAP2 PUSH1 0x40 MLOAD PUSH32 0x52D1902D00000000000000000000000000000000000000000000000000000000 DUP2 MSTORE PUSH1 0x20 DUP2 PUSH1 0x4 DUP2 DUP8 GAS STATICCALL PUSH0 SWAP2 DUP2 PUSH2 0x17DA JUMPI JUMPDEST POP PUSH2 0x16A3 JUMPI DUP4 PUSH4 0x4C9C8CE3 PUSH1 0xE0 SHL PUSH0 MSTORE PUSH1 0x4 MSTORE PUSH1 0x24 PUSH0 REVERT JUMPDEST DUP1 PUSH32 0x360894A13BA1A3210667C828492DB98DCA3E2076CC3735A920A3CA505D382BBC DUP6 SWAP3 SUB PUSH2 0x17AF JUMPI POP DUP2 EXTCODESIZE ISZERO PUSH2 0x179D JUMPI DUP1 PUSH1 0x1 PUSH1 0x1 PUSH1 0xA0 SHL SUB NOT PUSH32 0x360894A13BA1A3210667C828492DB98DCA3E2076CC3735A920A3CA505D382BBC SLOAD AND OR PUSH32 0x360894A13BA1A3210667C828492DB98DCA3E2076CC3735A920A3CA505D382BBC SSTORE PUSH32 0xBC7CD75A20EE27FD9ADEBAB32041F755214DBC6BFFA90CC0225B39DA2E5C2D3B PUSH0 DUP1 LOG2 DUP2 MLOAD ISZERO PUSH2 0x176C JUMPI PUSH0 DUP1 DUP4 PUSH1 0x20 PUSH2 0x7EB SWAP6 MLOAD SWAP2 ADD DUP5 GAS DELEGATECALL PUSH2 0x1766 PUSH2 0x2E23 JUMP JUMPDEST SWAP2 PUSH2 0x2EA9 JUMP JUMPDEST POP POP CALLVALUE PUSH2 0x1775 JUMPI STOP JUMPDEST PUSH32 0xB398979F00000000000000000000000000000000000000000000000000000000 PUSH0 MSTORE PUSH1 0x4 PUSH0 REVERT JUMPDEST PUSH4 0x4C9C8CE3 PUSH1 0xE0 SHL PUSH0 MSTORE PUSH1 0x4 MSTORE PUSH1 0x24 PUSH0 REVERT JUMPDEST PUSH32 0xAA1D49A400000000000000000000000000000000000000000000000000000000 PUSH0 MSTORE PUSH1 0x4 MSTORE PUSH1 0x24 PUSH0 REVERT JUMPDEST SWAP1 SWAP2 POP PUSH1 0x20 DUP2 RETURNDATASIZE PUSH1 0x20 GT PUSH2 0x1806 JUMPI JUMPDEST DUP2 PUSH2 0x17F6 PUSH1 0x20 SWAP4 DUP4 PUSH2 0x22EA JUMP JUMPDEST DUP2 ADD SUB SLT PUSH2 0x798 JUMPI MLOAD SWAP1 DUP6 PUSH2 0x168B JUMP JUMPDEST RETURNDATASIZE SWAP2 POP PUSH2 0x17E9 JUMP JUMPDEST PUSH4 0xE2517D3F PUSH1 0xE0 SHL PUSH0 MSTORE CALLER PUSH1 0x4 MSTORE PUSH0 PUSH1 0x24 MSTORE PUSH1 0x44 PUSH0 REVERT JUMPDEST SWAP1 POP PUSH1 0x1 PUSH1 0x1 PUSH1 0xA0 SHL SUB PUSH32 0x360894A13BA1A3210667C828492DB98DCA3E2076CC3735A920A3CA505D382BBC SLOAD AND EQ ISZERO DUP4 PUSH2 0x160E JUMP JUMPDEST CALLVALUE PUSH2 0x798 JUMPI PUSH1 0x20 CALLDATASIZE PUSH1 0x3 NOT ADD SLT PUSH2 0x798 JUMPI PUSH1 0x1 PUSH1 0x1 PUSH1 0xA0 SHL SUB PUSH2 0x187B PUSH2 0x2284 JUMP JUMPDEST AND PUSH0 MSTORE PUSH1 0x2 PUSH1 0x20 MSTORE PUSH1 0x20 PUSH1 0x40 PUSH0 KECCAK256 SLOAD PUSH1 0x40 MLOAD SWAP1 DUP2 MSTORE RETURN JUMPDEST CALLVALUE PUSH2 0x798 JUMPI PUSH1 0x20 CALLDATASIZE PUSH1 0x3 NOT ADD SLT PUSH2 0x798 JUMPI PUSH2 0x7EB CALLER PUSH1 0x4 CALLDATALOAD PUSH2 0x29A5 JUMP JUMPDEST CALLVALUE PUSH2 0x798 JUMPI PUSH2 0x7EB PUSH2 0x18C0 CALLDATASIZE PUSH2 0x22B0 JUMP JUMPDEST SWAP1 PUSH1 0x40 MLOAD SWAP3 PUSH2 0x18D0 PUSH1 0x20 DUP6 PUSH2 0x22EA JUMP JUMPDEST PUSH0 DUP5 MSTORE PUSH2 0x2716 JUMP JUMPDEST CALLVALUE PUSH2 0x798 JUMPI PUSH1 0x40 CALLDATASIZE PUSH1 0x3 NOT ADD SLT PUSH2 0x798 JUMPI PUSH2 0x18F1 PUSH2 0x229A JUMP JUMPDEST CALLER PUSH1 0x1 PUSH1 0x1 PUSH1 0xA0 SHL SUB DUP3 AND SUB PUSH2 0x190D JUMPI PUSH2 0x7EB SWAP1 PUSH1 0x4 CALLDATALOAD PUSH2 0x2D60 JUMP JUMPDEST PUSH32 0x6697B23200000000000000000000000000000000000000000000000000000000 PUSH0 MSTORE PUSH1 0x4 PUSH0 REVERT JUMPDEST CALLVALUE PUSH2 0x798 JUMPI PUSH1 0x40 CALLDATASIZE PUSH1 0x3 NOT ADD SLT PUSH2 0x798 JUMPI PUSH2 0x7EB PUSH1 0x4 CALLDATALOAD PUSH2 0x1954 PUSH2 0x229A JUMP JUMPDEST SWAP1 PUSH2 0x198D PUSH2 0x279 DUP3 PUSH0 MSTORE PUSH32 0x2DD7BC7DEC4DCEEDDA775E58DD541E08A116C6C53815C0BD028192F7B626800 PUSH1 0x20 MSTORE PUSH1 0x1 PUSH1 0x40 PUSH0 KECCAK256 ADD SLOAD SWAP1 JUMP JUMPDEST PUSH2 0x2C93 JUMP JUMPDEST CALLVALUE PUSH2 0x798 JUMPI PUSH1 0x20 CALLDATASIZE PUSH1 0x3 NOT ADD SLT PUSH2 0x798 JUMPI PUSH1 0x20 PUSH2 0x19DC PUSH1 0x4 CALLDATALOAD PUSH0 MSTORE PUSH32 0x2DD7BC7DEC4DCEEDDA775E58DD541E08A116C6C53815C0BD028192F7B626800 PUSH1 0x20 MSTORE PUSH1 0x1 PUSH1 0x40 PUSH0 KECCAK256 ADD SLOAD SWAP1 JUMP JUMPDEST PUSH1 0x40 MLOAD SWAP1 DUP2 MSTORE RETURN JUMPDEST CALLVALUE PUSH2 0x798 JUMPI PUSH2 0x7EB PUSH2 0x19F5 CALLDATASIZE PUSH2 0x22B0 JUMP JUMPDEST SWAP2 PUSH2 0x23CF JUMP JUMPDEST CALLVALUE PUSH2 0x798 JUMPI PUSH0 CALLDATASIZE PUSH1 0x3 NOT ADD SLT PUSH2 0x798 JUMPI CALLER PUSH0 MSTORE PUSH1 0x2 PUSH1 0x20 MSTORE PUSH1 0x40 PUSH0 KECCAK256 SLOAD PUSH2 0x1DE4 JUMPI PUSH1 0x1 SLOAD CALLER ISZERO PUSH2 0x1DD1 JUMPI PUSH2 0x1A60 DUP2 PUSH0 MSTORE PUSH32 0x80BB2B638CC20BC4D0A60D66940F3AB4A00C1D7B313497CA82FB0B4AB0079302 PUSH1 0x20 MSTORE PUSH1 0x1 PUSH1 0x1 PUSH1 0xA0 SHL SUB PUSH1 0x40 PUSH0 KECCAK256 SLOAD AND SWAP1 JUMP JUMPDEST PUSH1 0x1 PUSH1 0x1 PUSH1 0xA0 SHL SUB DUP2 AND SWAP1 DUP3 DUP3 ISZERO ISZERO SWAP3 DUP4 PUSH2 0x1D4D JUMPI JUMPDEST CALLER PUSH0 SWAP1 DUP2 MSTORE PUSH32 0x80BB2B638CC20BC4D0A60D66940F3AB4A00C1D7B313497CA82FB0B4AB0079303 PUSH1 0x20 MSTORE PUSH1 0x40 SWAP1 KECCAK256 PUSH1 0x1 DUP2 SLOAD ADD SWAP1 SSTORE DUP2 PUSH0 MSTORE PUSH32 0x80BB2B638CC20BC4D0A60D66940F3AB4A00C1D7B313497CA82FB0B4AB0079302 PUSH1 0x20 MSTORE PUSH1 0x40 PUSH0 KECCAK256 PUSH1 0x1 PUSH1 0x1 PUSH1 0xA0 SHL SUB CALLER AND PUSH1 0x1 PUSH1 0x1 PUSH1 0xA0 SHL SUB NOT DUP3 SLOAD AND OR SWAP1 SSTORE CALLER SWAP1 PUSH32 0xDDF252AD1BE2C89B69C2B068FC378DAA952BA7F163C4A11628F55A4DF523B3EF PUSH0 DUP1 LOG4 POP PUSH2 0x1D21 JUMPI DUP1 PUSH0 MSTORE PUSH0 PUSH1 0x20 MSTORE PUSH4 0xFFFFFFFF PUSH1 0x40 PUSH0 KECCAK256 SLOAD AND PUSH1 0x40 MLOAD SWAP1 PUSH2 0x120 DUP3 ADD DUP3 DUP2 LT PUSH8 0xFFFFFFFFFFFFFFFF DUP3 GT OR PUSH2 0x119C JUMPI PUSH1 0x40 SWAP1 DUP2 MSTORE SWAP1 DUP3 MSTORE PUSH0 PUSH1 0x20 DUP1 DUP5 ADD DUP3 DUP2 MSTORE DUP5 DUP5 ADD DUP4 DUP2 MSTORE PUSH1 0x60 DUP7 ADD DUP5 DUP2 MSTORE PUSH1 0x80 DUP8 ADD DUP6 DUP2 MSTORE PUSH1 0xA0 DUP9 ADD DUP7 DUP2 MSTORE PUSH1 0xC0 DUP10 ADD DUP8 DUP2 MSTORE PUSH1 0xE0 DUP11 ADD DUP9 DUP2 MSTORE PUSH2 0x100 DUP12 ADD DUP10 DUP2 MSTORE DUP13 DUP11 MSTORE DUP10 DUP10 MSTORE SWAP10 SWAP1 SWAP9 KECCAK256 SWAP10 MLOAD DUP11 SLOAD SWAP7 MLOAD PUSH8 0xFFFFFFFFFFFFFFFF NOT SWAP1 SWAP8 AND PUSH4 0xFFFFFFFF SWAP1 SWAP2 AND OR SWAP6 SWAP1 SWAP7 SHL PUSH8 0xFFFFFFFF00000000 AND SWAP5 SWAP1 SWAP5 OR DUP9 SSTORE SWAP5 SWAP7 SWAP5 SWAP2 MLOAD DUP6 SLOAD PUSH12 0xFFFFFFFF0000000000000000 NOT AND PUSH1 0x40 SWAP2 SWAP1 SWAP2 SHL PUSH12 0xFFFFFFFF0000000000000000 AND OR DUP6 SSTORE MLOAD DUP5 SLOAD PUSH20 0xFFFFFFFFFFFFFFFF000000000000000000000000 NOT AND PUSH1 0x60 SWAP2 SWAP1 SWAP2 SHL PUSH20 0xFFFFFFFFFFFFFFFF000000000000000000000000 AND OR DUP5 SSTORE MLOAD DUP4 SLOAD PUSH4 0xFFFFFFFF PUSH1 0xA0 SHL NOT AND PUSH1 0xA0 SWAP2 SWAP1 SWAP2 SHL PUSH4 0xFFFFFFFF PUSH1 0xA0 SHL AND OR DUP4 SSTORE MLOAD DUP3 SLOAD PUSH4 0xFFFFFFFF PUSH1 0xC0 SHL NOT AND PUSH1 0xC0 SWAP2 SWAP1 SWAP2 SHL PUSH4 0xFFFFFFFF PUSH1 0xC0 SHL AND OR DUP3 SSTORE MLOAD DUP2 SLOAD PUSH1 0x1 PUSH1 0x1 PUSH1 0xE0 SHL SUB AND PUSH1 0xE0 SWAP2 SWAP1 SWAP2 SHL PUSH1 0x1 PUSH1 0x1 PUSH1 0xE0 SHL SUB NOT AND OR DUP2 SSTORE SWAP2 MLOAD PUSH1 0x1 SWAP3 SWAP1 SWAP3 ADD DUP1 SLOAD SWAP2 MLOAD PUSH8 0xFFFFFFFFFFFFFFFF NOT SWAP1 SWAP3 AND PUSH4 0xFFFFFFFF SWAP1 SWAP4 AND SWAP3 SWAP1 SWAP3 OR PUSH1 0x20 SWAP2 SWAP1 SWAP2 SHL PUSH8 0xFFFFFFFF00000000 AND OR SWAP1 SSTORE DUP1 PUSH0 MSTORE PUSH0 PUSH1 0x20 MSTORE PUSH1 0x40 PUSH0 KECCAK256 TIMESTAMP PUSH4 0xFFFFFFFF AND PUSH4 0xFFFFFFFF AND PUSH4 0xFFFFFFFF NOT DUP3 SLOAD AND OR SWAP1 SSTORE CALLER PUSH0 MSTORE PUSH1 0x2 PUSH1 0x20 MSTORE DUP1 PUSH1 0x40 PUSH0 KECCAK256 SSTORE PUSH1 0x1 SLOAD SWAP1 PUSH0 NOT DUP3 EQ PUSH2 0x1D0D JUMPI PUSH1 0x1 PUSH1 0x20 SWAP3 ADD PUSH1 0x1 SSTORE PUSH1 0x40 MLOAD SWAP1 DUP2 MSTORE RETURN JUMPDEST PUSH4 0x4E487B71 PUSH1 0xE0 SHL PUSH0 MSTORE PUSH1 0x11 PUSH1 0x4 MSTORE PUSH1 0x24 PUSH0 REVERT JUMPDEST PUSH32 0x73C6AC6E00000000000000000000000000000000000000000000000000000000 PUSH0 MSTORE PUSH0 PUSH1 0x4 MSTORE PUSH1 0x24 PUSH0 REVERT JUMPDEST PUSH2 0x1D8B DUP3 PUSH0 MSTORE PUSH32 0x80BB2B638CC20BC4D0A60D66940F3AB4A00C1D7B313497CA82FB0B4AB0079304 PUSH1 0x20 MSTORE PUSH1 0x40 PUSH0 KECCAK256 PUSH1 0x1 PUSH1 0x1 PUSH1 0xA0 SHL SUB NOT DUP2 SLOAD AND SWAP1 SSTORE JUMP JUMPDEST PUSH2 0x1DC5 DUP4 PUSH1 0x1 PUSH1 0x1 PUSH1 0xA0 SHL SUB AND PUSH0 MSTORE PUSH32 0x80BB2B638CC20BC4D0A60D66940F3AB4A00C1D7B313497CA82FB0B4AB0079303 PUSH1 0x20 MSTORE PUSH1 0x40 PUSH0 KECCAK256 SWAP1 JUMP JUMPDEST DUP1 SLOAD PUSH0 NOT ADD SWAP1 SSTORE PUSH2 0x1A76 JUMP JUMPDEST PUSH4 0x32505749 PUSH1 0xE1 SHL PUSH0 MSTORE PUSH0 PUSH1 0x4 MSTORE PUSH1 0x24 PUSH0 REVERT JUMPDEST PUSH1 0x64 PUSH1 0x40 MLOAD PUSH3 0x461BCD PUSH1 0xE5 SHL DUP2 MSTORE PUSH1 0x20 PUSH1 0x4 DUP3 ADD MSTORE PUSH1 0x7 PUSH1 0x24 DUP3 ADD MSTORE PUSH32 0x616C726561647900000000000000000000000000000000000000000000000000 PUSH1 0x44 DUP3 ADD MSTORE REVERT JUMPDEST CALLVALUE PUSH2 0x798 JUMPI PUSH2 0x7EB PUSH2 0x1E69 PUSH4 0x7FFFFFFF PUSH2 0x1E41 CALLDATASIZE PUSH2 0x223D JUMP JUMPDEST PUSH2 0x1E4C SWAP4 SWAP2 SWAP4 PUSH2 0x2889 JUMP JUMPDEST DUP4 PUSH0 MSTORE PUSH0 PUSH1 0x20 MSTORE PUSH4 0xFFFFFFFF PUSH1 0x1 PUSH1 0x40 PUSH0 KECCAK256 ADD SLOAD PUSH1 0x20 SHR AND PUSH2 0x237D JUMP JUMPDEST PUSH1 0x1 SHR AND SWAP1 PUSH0 MSTORE PUSH0 PUSH1 0x20 MSTORE PUSH1 0x1 PUSH1 0x40 PUSH0 KECCAK256 ADD SWAP1 PUSH8 0xFFFFFFFF00000000 DUP3 SLOAD SWAP2 PUSH1 0x20 SHL AND SWAP1 PUSH8 0xFFFFFFFF00000000 NOT AND OR SWAP1 SSTORE JUMP JUMPDEST CALLVALUE PUSH2 0x798 JUMPI PUSH1 0x40 CALLDATASIZE PUSH1 0x3 NOT ADD SLT PUSH2 0x798 JUMPI PUSH2 0x1EB6 PUSH2 0x2284 JUMP JUMPDEST PUSH1 0x24 CALLDATALOAD PUSH2 0x1EC2 DUP2 PUSH2 0x2944 JUMP JUMPDEST CALLER ISZERO ISZERO DUP1 PUSH2 0x1FD3 JUMPI JUMPDEST DUP1 PUSH2 0x1F7B JUMPI JUMPDEST PUSH2 0x1F4F JUMPI DUP2 SWAP1 PUSH1 0x1 PUSH1 0x1 PUSH1 0xA0 SHL SUB DUP1 DUP6 AND SWAP2 AND PUSH32 0x8C5BE1E5EBEC7D5BD14F71427D1E84F3DD0314C0F7B2291E5B200AC8C7C3B925 PUSH0 DUP1 LOG4 PUSH0 MSTORE PUSH32 0x80BB2B638CC20BC4D0A60D66940F3AB4A00C1D7B313497CA82FB0B4AB0079304 PUSH1 0x20 MSTORE PUSH1 0x1 PUSH1 0x1 PUSH1 0xA0 SHL SUB PUSH1 0x40 PUSH0 KECCAK256 SWAP2 AND PUSH1 0x1 PUSH1 0x1 PUSH1 0xA0 SHL SUB NOT DUP3 SLOAD AND OR SWAP1 SSTORE PUSH0 DUP1 RETURN JUMPDEST PUSH32 0xA9FBF51F00000000000000000000000000000000000000000000000000000000 PUSH0 MSTORE CALLER PUSH1 0x4 MSTORE PUSH1 0x24 PUSH0 REVERT JUMPDEST POP PUSH2 0x1FB6 DUP2 PUSH1 0x1 PUSH1 0x1 PUSH1 0xA0 SHL SUB AND PUSH0 MSTORE PUSH32 0x80BB2B638CC20BC4D0A60D66940F3AB4A00C1D7B313497CA82FB0B4AB0079305 PUSH1 0x20 MSTORE PUSH1 0x40 PUSH0 KECCAK256 SWAP1 JUMP JUMPDEST PUSH1 0x1 PUSH1 0x1 PUSH1 0xA0 SHL SUB CALLER AND PUSH0 MSTORE PUSH1 0x20 MSTORE PUSH1 0xFF PUSH1 0x40 PUSH0 KECCAK256 SLOAD AND ISZERO PUSH2 0x1ED1 JUMP JUMPDEST POP CALLER PUSH1 0x1 PUSH1 0x1 PUSH1 0xA0 SHL SUB DUP3 AND EQ ISZERO PUSH2 0x1ECB JUMP JUMPDEST CALLVALUE PUSH2 0x798 JUMPI PUSH1 0x20 CALLDATASIZE PUSH1 0x3 NOT ADD SLT PUSH2 0x798 JUMPI PUSH1 0x20 PUSH2 0x1502 PUSH1 0x4 CALLDATALOAD PUSH2 0x2008 DUP2 PUSH2 0x2944 JUMP JUMPDEST POP PUSH0 MSTORE PUSH32 0x80BB2B638CC20BC4D0A60D66940F3AB4A00C1D7B313497CA82FB0B4AB0079304 PUSH1 0x20 MSTORE PUSH1 0x1 PUSH1 0x1 PUSH1 0xA0 SHL SUB PUSH1 0x40 PUSH0 KECCAK256 SLOAD AND SWAP1 JUMP JUMPDEST CALLVALUE PUSH2 0x798 JUMPI PUSH0 CALLDATASIZE PUSH1 0x3 NOT ADD SLT PUSH2 0x798 JUMPI PUSH1 0x40 MLOAD PUSH0 PUSH32 0x80BB2B638CC20BC4D0A60D66940F3AB4A00C1D7B313497CA82FB0B4AB0079300 SLOAD PUSH2 0x207F DUP2 PUSH2 0x2397 JUMP JUMPDEST DUP1 DUP5 MSTORE SWAP1 PUSH1 0x1 DUP2 AND SWAP1 DUP2 ISZERO PUSH2 0xC81 JUMPI POP PUSH1 0x1 EQ PUSH2 0x20A6 JUMPI PUSH2 0x794 DUP4 PUSH2 0xBF0 DUP2 DUP6 SUB DUP3 PUSH2 0x22EA JUMP JUMPDEST PUSH32 0x80BB2B638CC20BC4D0A60D66940F3AB4A00C1D7B313497CA82FB0B4AB0079300 PUSH0 SWAP1 DUP2 MSTORE PUSH32 0x37C58C799B6609234B945E882912EE9AD34948A1DFAA20A97485E1A7752BBF81 SWAP4 SWAP3 POP SWAP1 JUMPDEST DUP1 DUP3 LT PUSH2 0x2109 JUMPI POP SWAP1 SWAP2 POP DUP2 ADD PUSH1 0x20 ADD PUSH2 0xBF0 PUSH2 0xBE0 JUMP JUMPDEST SWAP2 SWAP3 PUSH1 0x1 DUP2 PUSH1 0x20 SWAP3 SLOAD DUP4 DUP6 DUP9 ADD ADD MSTORE ADD SWAP2 ADD SWAP1 SWAP3 SWAP2 PUSH2 0x20F1 JUMP JUMPDEST CALLVALUE PUSH2 0x798 JUMPI PUSH2 0x215E PUSH4 0x7FFFFFFF PUSH2 0x2139 CALLDATASIZE PUSH2 0x223D JUMP JUMPDEST PUSH2 0x2144 SWAP4 SWAP2 SWAP4 PUSH2 0x2889 JUMP JUMPDEST DUP4 PUSH0 MSTORE PUSH0 PUSH1 0x20 MSTORE PUSH4 0xFFFFFFFF PUSH1 0x1 PUSH1 0x40 PUSH0 KECCAK256 ADD SLOAD AND PUSH2 0x237D JUMP JUMPDEST PUSH1 0x1 SHR AND SWAP1 PUSH0 MSTORE PUSH0 PUSH1 0x20 MSTORE PUSH4 0xFFFFFFFF PUSH1 0x1 PUSH1 0x40 PUSH0 KECCAK256 ADD SWAP2 AND PUSH4 0xFFFFFFFF NOT DUP3 SLOAD AND OR SWAP1 SSTORE PUSH0 DUP1 RETURN JUMPDEST CALLVALUE PUSH2 0x798 JUMPI PUSH1 0x20 CALLDATASIZE PUSH1 0x3 NOT ADD SLT PUSH2 0x798 JUMPI PUSH1 0x4 CALLDATALOAD SWAP1 PUSH1 0x1 PUSH1 0x1 PUSH1 0xE0 SHL SUB NOT DUP3 AND DUP1 DUP4 SUB PUSH2 0x798 JUMPI PUSH1 0x20 SWAP3 PUSH32 0x80AC58CD00000000000000000000000000000000000000000000000000000000 DUP3 EQ SWAP2 DUP3 ISZERO PUSH2 0x2213 JUMPI JUMPDEST POP DUP2 ISZERO PUSH2 0x2202 JUMPI JUMPDEST DUP2 ISZERO PUSH2 0x21F2 JUMPI JUMPDEST POP ISZERO ISZERO DUP2 MSTORE RETURN JUMPDEST PUSH2 0x21FC SWAP2 POP PUSH2 0x282A JUMP JUMPDEST DUP4 PUSH2 0x21EB JUMP JUMPDEST SWAP1 POP PUSH2 0x220D DUP2 PUSH2 0x282A JUMP JUMPDEST SWAP1 PUSH2 0x21E4 JUMP JUMPDEST PUSH32 0x5B5E139F00000000000000000000000000000000000000000000000000000000 EQ SWAP2 POP DUP5 PUSH2 0x21DC JUMP JUMPDEST PUSH1 0x40 SWAP1 PUSH1 0x3 NOT ADD SLT PUSH2 0x798 JUMPI PUSH1 0x4 CALLDATALOAD SWAP1 PUSH1 0x24 CALLDATALOAD PUSH4 0xFFFFFFFF DUP2 AND DUP2 SUB PUSH2 0x798 JUMPI SWAP1 JUMP JUMPDEST DUP1 MLOAD DUP1 DUP4 MSTORE PUSH1 0x20 SWAP3 SWAP2 DUP2 SWAP1 DUP5 ADD DUP5 DUP5 ADD MCOPY PUSH0 DUP3 DUP3 ADD DUP5 ADD MSTORE PUSH1 0x1F ADD PUSH1 0x1F NOT AND ADD ADD SWAP1 JUMP JUMPDEST PUSH1 0x4 CALLDATALOAD SWAP1 PUSH1 0x1 PUSH1 0x1 PUSH1 0xA0 SHL SUB DUP3 AND DUP3 SUB PUSH2 0x798 JUMPI JUMP JUMPDEST PUSH1 0x24 CALLDATALOAD SWAP1 PUSH1 0x1 PUSH1 0x1 PUSH1 0xA0 SHL SUB DUP3 AND DUP3 SUB PUSH2 0x798 JUMPI JUMP JUMPDEST PUSH1 0x60 SWAP1 PUSH1 0x3 NOT ADD SLT PUSH2 0x798 JUMPI PUSH1 0x4 CALLDATALOAD PUSH1 0x1 PUSH1 0x1 PUSH1 0xA0 SHL SUB DUP2 AND DUP2 SUB PUSH2 0x798 JUMPI SWAP1 PUSH1 0x24 CALLDATALOAD PUSH1 0x1 PUSH1 0x1 PUSH1 0xA0 SHL SUB DUP2 AND DUP2 SUB PUSH2 0x798 JUMPI SWAP1 PUSH1 0x44 CALLDATALOAD SWAP1 JUMP JUMPDEST SWAP1 PUSH1 0x1F DUP1 NOT SWAP2 ADD AND DUP2 ADD SWAP1 DUP2 LT PUSH8 0xFFFFFFFFFFFFFFFF DUP3 GT OR PUSH2 0x119C JUMPI PUSH1 0x40 MSTORE JUMP JUMPDEST PUSH8 0xFFFFFFFFFFFFFFFF DUP2 GT PUSH2 0x119C JUMPI PUSH1 0x1F ADD PUSH1 0x1F NOT AND PUSH1 0x20 ADD SWAP1 JUMP JUMPDEST DUP2 PUSH1 0x1F DUP3 ADD SLT ISZERO PUSH2 0x798 JUMPI DUP1 CALLDATALOAD SWAP1 PUSH2 0x233F DUP3 PUSH2 0x230C JUMP JUMPDEST SWAP3 PUSH2 0x234D PUSH1 0x40 MLOAD SWAP5 DUP6 PUSH2 0x22EA JUMP JUMPDEST DUP3 DUP5 MSTORE PUSH1 0x20 DUP4 DUP4 ADD ADD GT PUSH2 0x798 JUMPI DUP2 PUSH0 SWAP3 PUSH1 0x20 DUP1 SWAP4 ADD DUP4 DUP7 ADD CALLDATACOPY DUP4 ADD ADD MSTORE SWAP1 JUMP JUMPDEST PUSH1 0x24 CALLDATALOAD SWAP1 DUP2 ISZERO ISZERO DUP3 SUB PUSH2 0x798 JUMPI JUMP JUMPDEST SWAP1 PUSH4 0xFFFFFFFF DUP1 SWAP2 AND SWAP2 AND ADD SWAP1 PUSH4 0xFFFFFFFF DUP3 GT PUSH2 0x1D0D JUMPI JUMP JUMPDEST SWAP1 PUSH1 0x1 DUP3 DUP2 SHR SWAP3 AND DUP1 ISZERO PUSH2 0x23C5 JUMPI JUMPDEST PUSH1 0x20 DUP4 LT EQ PUSH2 0x23B1 JUMPI JUMP JUMPDEST PUSH4 0x4E487B71 PUSH1 0xE0 SHL PUSH0 MSTORE PUSH1 0x22 PUSH1 0x4 MSTORE PUSH1 0x24 PUSH0 REVERT JUMPDEST SWAP2 PUSH1 0x7F AND SWAP2 PUSH2 0x23A6 JUMP JUMPDEST SWAP2 SWAP1 SWAP2 PUSH1 0x1 PUSH1 0x1 PUSH1 0xA0 SHL SUB DUP4 AND SWAP1 DUP2 ISZERO PUSH2 0x1DD1 JUMPI PUSH2 0x241E DUP4 PUSH0 MSTORE PUSH32 0x80BB2B638CC20BC4D0A60D66940F3AB4A00C1D7B313497CA82FB0B4AB0079302 PUSH1 0x20 MSTORE PUSH1 0x1 PUSH1 0x1 PUSH1 0xA0 SHL SUB PUSH1 0x40 PUSH0 KECCAK256 SLOAD AND SWAP1 JUMP JUMPDEST DUP4 CALLER ISZERO ISZERO SWAP4 DUP5 PUSH2 0x25D0 JUMPI JUMPDEST PUSH1 0x1 PUSH1 0x1 PUSH1 0xA0 SHL SUB SWAP5 POP PUSH2 0x2475 DUP6 DUP5 AND SWAP8 DUP9 PUSH2 0x251B JUMPI PUSH1 0x1 PUSH1 0x1 PUSH1 0xA0 SHL SUB AND PUSH0 MSTORE PUSH32 0x80BB2B638CC20BC4D0A60D66940F3AB4A00C1D7B313497CA82FB0B4AB0079303 PUSH1 0x20 MSTORE PUSH1 0x40 PUSH0 KECCAK256 SWAP1 JUMP JUMPDEST PUSH1 0x1 DUP2 SLOAD ADD SWAP1 SSTORE DUP2 PUSH0 MSTORE PUSH32 0x80BB2B638CC20BC4D0A60D66940F3AB4A00C1D7B313497CA82FB0B4AB0079302 PUSH1 0x20 MSTORE PUSH1 0x40 PUSH0 KECCAK256 DUP2 PUSH1 0x1 PUSH1 0x1 PUSH1 0xA0 SHL SUB NOT DUP3 SLOAD AND OR SWAP1 SSTORE DUP7 PUSH32 0xDDF252AD1BE2C89B69C2B068FC378DAA952BA7F163C4A11628F55A4DF523B3EF PUSH0 DUP1 LOG4 POP AND DUP1 DUP4 SUB PUSH2 0x24EA JUMPI POP POP POP JUMP JUMPDEST PUSH32 0x64283D7B00000000000000000000000000000000000000000000000000000000 PUSH0 MSTORE PUSH1 0x4 MSTORE PUSH1 0x24 MSTORE PUSH1 0x44 MSTORE PUSH1 0x64 PUSH0 REVERT JUMPDEST PUSH2 0x2559 DUP5 PUSH0 MSTORE PUSH32 0x80BB2B638CC20BC4D0A60D66940F3AB4A00C1D7B313497CA82FB0B4AB0079304 PUSH1 0x20 MSTORE PUSH1 0x40 PUSH0 KECCAK256 PUSH1 0x1 PUSH1 0x1 PUSH1 0xA0 SHL SUB NOT DUP2 SLOAD AND SWAP1 SSTORE JUMP JUMPDEST PUSH2 0x2593 DUP6 PUSH1 0x1 PUSH1 0x1 PUSH1 0xA0 SHL SUB AND PUSH0 MSTORE PUSH32 0x80BB2B638CC20BC4D0A60D66940F3AB4A00C1D7B313497CA82FB0B4AB0079303 PUSH1 0x20 MSTORE PUSH1 0x40 PUSH0 KECCAK256 SWAP1 JUMP JUMPDEST DUP1 SLOAD PUSH0 NOT ADD SWAP1 SSTORE PUSH1 0x1 PUSH1 0x1 PUSH1 0xA0 SHL SUB AND PUSH0 MSTORE PUSH32 0x80BB2B638CC20BC4D0A60D66940F3AB4A00C1D7B313497CA82FB0B4AB0079303 PUSH1 0x20 MSTORE PUSH1 0x40 PUSH0 KECCAK256 SWAP1 JUMP JUMPDEST SWAP2 SWAP3 SWAP4 DUP1 SWAP2 POP SWAP1 PUSH2 0x2621 JUMPI JUMPDEST ISZERO PUSH2 0x25EA JUMPI SWAP1 DUP4 DUP4 SWAP3 PUSH2 0x2429 JUMP JUMPDEST DUP4 PUSH1 0x1 PUSH1 0x1 PUSH1 0xA0 SHL SUB DUP4 AND PUSH2 0x260B JUMPI PUSH4 0x7E273289 PUSH1 0xE0 SHL PUSH0 MSTORE PUSH1 0x4 MSTORE PUSH1 0x24 PUSH0 REVERT JUMPDEST PUSH4 0x177E802F PUSH1 0xE0 SHL PUSH0 MSTORE CALLER PUSH1 0x4 MSTORE PUSH1 0x24 MSTORE PUSH1 0x44 PUSH0 REVERT JUMPDEST POP CALLER PUSH1 0x1 PUSH1 0x1 PUSH1 0xA0 SHL SUB DUP4 AND EQ DUP1 ISZERO PUSH2 0x2686 JUMPI JUMPDEST DUP1 PUSH2 0x25DC JUMPI POP CALLER PUSH1 0x1 PUSH1 0x1 PUSH1 0xA0 SHL SUB PUSH2 0x267F DUP7 PUSH0 MSTORE PUSH32 0x80BB2B638CC20BC4D0A60D66940F3AB4A00C1D7B313497CA82FB0B4AB0079304 PUSH1 0x20 MSTORE PUSH1 0x1 PUSH1 0x1 PUSH1 0xA0 SHL SUB PUSH1 0x40 PUSH0 KECCAK256 SLOAD AND SWAP1 JUMP JUMPDEST AND EQ PUSH2 0x25DC JUMP JUMPDEST POP PUSH2 0x26C1 DUP3 PUSH1 0x1 PUSH1 0x1 PUSH1 0xA0 SHL SUB AND PUSH0 MSTORE PUSH32 0x80BB2B638CC20BC4D0A60D66940F3AB4A00C1D7B313497CA82FB0B4AB0079305 PUSH1 0x20 MSTORE PUSH1 0x40 PUSH0 KECCAK256 SWAP1 JUMP JUMPDEST PUSH1 0x1 PUSH1 0x1 PUSH1 0xA0 SHL SUB CALLER AND PUSH0 MSTORE PUSH1 0x20 MSTORE PUSH1 0xFF PUSH1 0x40 PUSH0 KECCAK256 SLOAD AND PUSH2 0x2635 JUMP JUMPDEST SWAP1 PUSH8 0xFFFFFFFFFFFFFFFF DUP1 SWAP2 AND SWAP2 AND ADD SWAP1 PUSH8 0xFFFFFFFFFFFFFFFF DUP3 GT PUSH2 0x1D0D JUMPI JUMP JUMPDEST PUSH4 0xFFFFFFFF AND PUSH4 0xFFFFFFFF DUP2 EQ PUSH2 0x1D0D JUMPI PUSH1 0x1 ADD SWAP1 JUMP JUMPDEST SWAP1 PUSH2 0x2722 DUP4 DUP3 DUP5 PUSH2 0x23CF JUMP JUMPDEST DUP1 EXTCODESIZE PUSH2 0x272F JUMPI JUMPDEST POP POP POP POP JUMP JUMPDEST PUSH1 0x20 SWAP2 PUSH2 0x2775 PUSH1 0x1 PUSH1 0x1 PUSH1 0xA0 SHL SUB DUP1 SWAP4 AND SWAP6 PUSH1 0x40 MLOAD SWAP6 DUP7 SWAP5 DUP6 SWAP5 PUSH4 0xA85BD01 PUSH1 0xE1 SHL DUP7 MSTORE CALLER PUSH1 0x4 DUP8 ADD MSTORE AND PUSH1 0x24 DUP6 ADD MSTORE PUSH1 0x44 DUP5 ADD MSTORE PUSH1 0x80 PUSH1 0x64 DUP5 ADD MSTORE PUSH1 0x84 DUP4 ADD SWAP1 PUSH2 0x2260 JUMP JUMPDEST SUB DUP2 PUSH0 DUP7 GAS CALL PUSH0 SWAP2 DUP2 PUSH2 0x27E5 JUMPI JUMPDEST POP PUSH2 0x27B1 JUMPI POP PUSH2 0x2791 PUSH2 0x2E23 JUMP JUMPDEST DUP1 MLOAD SWAP1 DUP2 PUSH2 0x27AC JUMPI DUP3 PUSH4 0x32505749 PUSH1 0xE1 SHL PUSH0 MSTORE PUSH1 0x4 MSTORE PUSH1 0x24 PUSH0 REVERT JUMPDEST PUSH1 0x20 ADD REVERT JUMPDEST PUSH1 0x1 PUSH1 0x1 PUSH1 0xE0 SHL SUB NOT PUSH4 0xA85BD01 PUSH1 0xE1 SHL SWAP2 AND SUB PUSH2 0x27D3 JUMPI POP PUSH0 DUP1 DUP1 DUP1 PUSH2 0x2729 JUMP JUMPDEST PUSH4 0x32505749 PUSH1 0xE1 SHL PUSH0 MSTORE PUSH1 0x4 MSTORE PUSH1 0x24 PUSH0 REVERT JUMPDEST SWAP1 SWAP2 POP PUSH1 0x20 DUP2 RETURNDATASIZE PUSH1 0x20 GT PUSH2 0x2822 JUMPI JUMPDEST DUP2 PUSH2 0x2801 PUSH1 0x20 SWAP4 DUP4 PUSH2 0x22EA JUMP JUMPDEST DUP2 ADD SUB SLT PUSH2 0x798 JUMPI MLOAD PUSH1 0x1 PUSH1 0x1 PUSH1 0xE0 SHL SUB NOT DUP2 AND DUP2 SUB PUSH2 0x798 JUMPI SWAP1 PUSH0 PUSH2 0x2783 JUMP JUMPDEST RETURNDATASIZE SWAP2 POP PUSH2 0x27F4 JUMP JUMPDEST PUSH1 0x1 PUSH1 0x1 PUSH1 0xE0 SHL SUB NOT AND PUSH32 0x7965DB0B00000000000000000000000000000000000000000000000000000000 DUP2 EQ SWAP1 DUP2 ISZERO PUSH2 0x2862 JUMPI POP SWAP1 JUMP JUMPDEST PUSH32 0x1FFC9A700000000000000000000000000000000000000000000000000000000 SWAP2 POP EQ SWAP1 JUMP JUMPDEST CALLER PUSH0 SWAP1 DUP2 MSTORE PUSH32 0x16EB059E9C793735A2503F97F90D6DEEB7A67739000C45E8A0FEAF950573468 PUSH1 0x20 MSTORE PUSH1 0x40 SWAP1 KECCAK256 SLOAD PUSH1 0xFF AND ISZERO PUSH2 0x28C1 JUMPI JUMP JUMPDEST PUSH4 0xE2517D3F PUSH1 0xE0 SHL PUSH0 MSTORE CALLER PUSH1 0x4 MSTORE PUSH9 0x4445414C5F524F4C45 PUSH1 0xB8 SHL PUSH1 0x24 MSTORE PUSH1 0x44 PUSH0 REVERT JUMPDEST DUP1 PUSH0 MSTORE PUSH32 0x2DD7BC7DEC4DCEEDDA775E58DD541E08A116C6C53815C0BD028192F7B626800 PUSH1 0x20 MSTORE PUSH1 0x40 PUSH0 KECCAK256 PUSH1 0x1 PUSH1 0x1 PUSH1 0xA0 SHL SUB CALLER AND PUSH0 MSTORE PUSH1 0x20 MSTORE PUSH1 0xFF PUSH1 0x40 PUSH0 KECCAK256 SLOAD AND ISZERO PUSH2 0x292E JUMPI POP JUMP JUMPDEST PUSH4 0xE2517D3F PUSH1 0xE0 SHL PUSH0 MSTORE CALLER PUSH1 0x4 MSTORE PUSH1 0x24 MSTORE PUSH1 0x44 PUSH0 REVERT JUMPDEST PUSH2 0x297F DUP2 PUSH0 MSTORE PUSH32 0x80BB2B638CC20BC4D0A60D66940F3AB4A00C1D7B313497CA82FB0B4AB0079302 PUSH1 0x20 MSTORE PUSH1 0x1 PUSH1 0x1 PUSH1 0xA0 SHL SUB PUSH1 0x40 PUSH0 KECCAK256 SLOAD AND SWAP1 JUMP JUMPDEST SWAP1 PUSH1 0x1 PUSH1 0x1 PUSH1 0xA0 SHL SUB DUP3 AND ISZERO PUSH2 0x2993 JUMPI POP SWAP1 JUMP JUMPDEST PUSH4 0x7E273289 PUSH1 0xE0 SHL PUSH0 MSTORE PUSH1 0x4 MSTORE PUSH1 0x24 PUSH0 REVERT JUMPDEST PUSH1 0x1 PUSH1 0x1 PUSH1 0xA0 SHL SUB PUSH2 0x29E8 DUP3 PUSH0 MSTORE PUSH32 0x80BB2B638CC20BC4D0A60D66940F3AB4A00C1D7B313497CA82FB0B4AB0079302 PUSH1 0x20 MSTORE PUSH1 0x1 PUSH1 0x1 PUSH1 0xA0 SHL SUB PUSH1 0x40 PUSH0 KECCAK256 SLOAD AND SWAP1 JUMP JUMPDEST SWAP3 AND DUP1 ISZERO ISZERO DUP1 PUSH2 0x2AEA JUMPI JUMPDEST POP POP PUSH0 PUSH1 0x1 PUSH1 0x1 PUSH1 0xA0 SHL SUB DUP4 AND DUP1 PUSH2 0x2A66 JUMPI JUMPDEST DUP3 DUP3 MSTORE PUSH32 0x80BB2B638CC20BC4D0A60D66940F3AB4A00C1D7B313497CA82FB0B4AB0079302 PUSH1 0x20 MSTORE PUSH1 0x40 DUP3 KECCAK256 PUSH1 0x1 PUSH1 0x1 PUSH1 0xA0 SHL SUB NOT DUP2 SLOAD AND SWAP1 SSTORE PUSH32 0xDDF252AD1BE2C89B69C2B068FC378DAA952BA7F163C4A11628F55A4DF523B3EF DUP3 DUP1 LOG4 SWAP1 JUMP JUMPDEST PUSH2 0x2AA4 DUP4 PUSH0 MSTORE PUSH32 0x80BB2B638CC20BC4D0A60D66940F3AB4A00C1D7B313497CA82FB0B4AB0079304 PUSH1 0x20 MSTORE PUSH1 0x40 PUSH0 KECCAK256 PUSH1 0x1 PUSH1 0x1 PUSH1 0xA0 SHL SUB NOT DUP2 SLOAD AND SWAP1 SSTORE JUMP JUMPDEST PUSH2 0x2ADE DUP5 PUSH1 0x1 PUSH1 0x1 PUSH1 0xA0 SHL SUB AND PUSH0 MSTORE PUSH32 0x80BB2B638CC20BC4D0A60D66940F3AB4A00C1D7B313497CA82FB0B4AB0079303 PUSH1 0x20 MSTORE PUSH1 0x40 PUSH0 KECCAK256 SWAP1 JUMP JUMPDEST DUP3 NOT DUP2 SLOAD ADD SWAP1 SSTORE PUSH2 0x2A06 JUMP JUMPDEST DUP1 PUSH2 0x2B31 JUMPI JUMPDEST ISZERO PUSH2 0x2AFB JUMPI DUP1 PUSH2 0x29F3 JUMP JUMPDEST PUSH1 0x1 PUSH1 0x1 PUSH1 0xA0 SHL SUB DUP4 AND PUSH2 0x2B1C JUMPI POP PUSH4 0x7E273289 PUSH1 0xE0 SHL PUSH0 MSTORE PUSH1 0x4 MSTORE PUSH1 0x24 PUSH0 REVERT JUMPDEST PUSH4 0x177E802F PUSH1 0xE0 SHL PUSH0 MSTORE PUSH1 0x4 MSTORE PUSH1 0x24 MSTORE PUSH1 0x44 PUSH0 REVERT JUMPDEST POP DUP1 PUSH1 0x1 PUSH1 0x1 PUSH1 0xA0 SHL SUB DUP5 AND EQ DUP1 ISZERO PUSH2 0x2B96 JUMPI JUMPDEST DUP1 PUSH2 0x2AF0 JUMPI POP DUP1 PUSH1 0x1 PUSH1 0x1 PUSH1 0xA0 SHL SUB PUSH2 0x2B8F DUP5 PUSH0 MSTORE PUSH32 0x80BB2B638CC20BC4D0A60D66940F3AB4A00C1D7B313497CA82FB0B4AB0079304 PUSH1 0x20 MSTORE PUSH1 0x1 PUSH1 0x1 PUSH1 0xA0 SHL SUB PUSH1 0x40 PUSH0 KECCAK256 SLOAD AND SWAP1 JUMP JUMPDEST AND EQ PUSH2 0x2AF0 JUMP JUMPDEST POP PUSH2 0x2BD1 DUP4 PUSH1 0x1 PUSH1 0x1 PUSH1 0xA0 SHL SUB AND PUSH0 MSTORE PUSH32 0x80BB2B638CC20BC4D0A60D66940F3AB4A00C1D7B313497CA82FB0B4AB0079305 PUSH1 0x20 MSTORE PUSH1 0x40 PUSH0 KECCAK256 SWAP1 JUMP JUMPDEST DUP2 PUSH0 MSTORE PUSH1 0x20 MSTORE PUSH1 0xFF PUSH1 0x40 PUSH0 KECCAK256 SLOAD AND PUSH2 0x2B45 JUMP JUMPDEST PUSH1 0x1 PUSH1 0x1 PUSH1 0xA0 SHL SUB DUP2 AND PUSH0 SWAP1 DUP2 MSTORE PUSH32 0xB7DB2DD08FCB62D0C9E08C51941CAE53C267786A0B75803FB7960902FC8EF97D PUSH1 0x20 MSTORE PUSH1 0x40 SWAP1 KECCAK256 SLOAD PUSH1 0xFF AND PUSH2 0x2C8E JUMPI PUSH1 0x1 PUSH1 0x1 PUSH1 0xA0 SHL SUB AND PUSH0 DUP2 DUP2 MSTORE PUSH32 0xB7DB2DD08FCB62D0C9E08C51941CAE53C267786A0B75803FB7960902FC8EF97D PUSH1 0x20 MSTORE PUSH1 0x40 DUP2 KECCAK256 DUP1 SLOAD PUSH1 0xFF NOT AND PUSH1 0x1 OR SWAP1 SSTORE CALLER SWAP2 SWAP1 PUSH32 0x2F8788117E7EFF1D82E926EC794901D17C78024A50270940304540A733656F0D DUP2 DUP1 LOG4 PUSH1 0x1 SWAP1 JUMP JUMPDEST POP PUSH0 SWAP1 JUMP JUMPDEST DUP1 PUSH0 MSTORE PUSH32 0x2DD7BC7DEC4DCEEDDA775E58DD541E08A116C6C53815C0BD028192F7B626800 PUSH1 0x20 MSTORE PUSH1 0x40 PUSH0 KECCAK256 PUSH1 0x1 PUSH1 0x1 PUSH1 0xA0 SHL SUB DUP4 AND PUSH0 MSTORE PUSH1 0x20 MSTORE PUSH1 0xFF PUSH1 0x40 PUSH0 KECCAK256 SLOAD AND ISZERO PUSH0 EQ PUSH2 0x2D5A JUMPI DUP1 PUSH0 MSTORE PUSH32 0x2DD7BC7DEC4DCEEDDA775E58DD541E08A116C6C53815C0BD028192F7B626800 PUSH1 0x20 MSTORE PUSH1 0x40 PUSH0 KECCAK256 PUSH1 0x1 PUSH1 0x1 PUSH1 0xA0 SHL SUB DUP4 AND PUSH0 MSTORE PUSH1 0x20 MSTORE PUSH1 0x40 PUSH0 KECCAK256 PUSH1 0x1 PUSH1 0xFF NOT DUP3 SLOAD AND OR SWAP1 SSTORE PUSH1 0x1 PUSH1 0x1 PUSH1 0xA0 SHL SUB CALLER SWAP3 AND SWAP1 PUSH32 0x2F8788117E7EFF1D82E926EC794901D17C78024A50270940304540A733656F0D PUSH0 DUP1 LOG4 PUSH1 0x1 SWAP1 JUMP JUMPDEST POP POP PUSH0 SWAP1 JUMP JUMPDEST DUP1 PUSH0 MSTORE PUSH32 0x2DD7BC7DEC4DCEEDDA775E58DD541E08A116C6C53815C0BD028192F7B626800 PUSH1 0x20 MSTORE PUSH1 0x40 PUSH0 KECCAK256 PUSH1 0x1 PUSH1 0x1 PUSH1 0xA0 SHL SUB DUP4 AND PUSH0 MSTORE PUSH1 0x20 MSTORE PUSH1 0xFF PUSH1 0x40 PUSH0 KECCAK256 SLOAD AND PUSH0 EQ PUSH2 0x2D5A JUMPI DUP1 PUSH0 MSTORE PUSH32 0x2DD7BC7DEC4DCEEDDA775E58DD541E08A116C6C53815C0BD028192F7B626800 PUSH1 0x20 MSTORE PUSH1 0x40 PUSH0 KECCAK256 PUSH1 0x1 PUSH1 0x1 PUSH1 0xA0 SHL SUB DUP4 AND PUSH0 MSTORE PUSH1 0x20 MSTORE PUSH1 0x40 PUSH0 KECCAK256 PUSH1 0xFF NOT DUP2 SLOAD AND SWAP1 SSTORE PUSH1 0x1 PUSH1 0x1 PUSH1 0xA0 SHL SUB CALLER SWAP3 AND SWAP1 PUSH32 0xF6391F5C32D9C69D2A47EA670B442974B53935D1EDC7FD64EB21E047A839171B PUSH0 DUP1 LOG4 PUSH1 0x1 SWAP1 JUMP JUMPDEST RETURNDATASIZE ISZERO PUSH2 0x2E4D JUMPI RETURNDATASIZE SWAP1 PUSH2 0x2E34 DUP3 PUSH2 0x230C JUMP JUMPDEST SWAP2 PUSH2 0x2E42 PUSH1 0x40 MLOAD SWAP4 DUP5 PUSH2 0x22EA JUMP JUMPDEST DUP3 MSTORE RETURNDATASIZE PUSH0 PUSH1 0x20 DUP5 ADD RETURNDATACOPY JUMP JUMPDEST PUSH1 0x60 SWAP1 JUMP JUMPDEST PUSH1 0xFF PUSH32 0xF0C57E16840DF040F15088DC2F81FE391C3923BEC73E23A9662EFC9C229C6A00 SLOAD PUSH1 0x40 SHR AND ISZERO PUSH2 0x2E81 JUMPI JUMP JUMPDEST PUSH32 0xD7E6BCF800000000000000000000000000000000000000000000000000000000 PUSH0 MSTORE PUSH1 0x4 PUSH0 REVERT JUMPDEST SWAP1 PUSH2 0x2EE6 JUMPI POP DUP1 MLOAD ISZERO PUSH2 0x2EBE JUMPI PUSH1 0x20 DUP2 MLOAD SWAP2 ADD REVERT JUMPDEST PUSH32 0xD6BDA27500000000000000000000000000000000000000000000000000000000 PUSH0 MSTORE PUSH1 0x4 PUSH0 REVERT JUMPDEST DUP2 MLOAD ISZERO DUP1 PUSH2 0x2F2C JUMPI JUMPDEST PUSH2 0x2EF7 JUMPI POP SWAP1 JUMP JUMPDEST PUSH1 0x1 PUSH1 0x1 PUSH1 0xA0 SHL SUB SWAP1 PUSH32 0x9996B31500000000000000000000000000000000000000000000000000000000 PUSH0 MSTORE AND PUSH1 0x4 MSTORE PUSH1 0x24 PUSH0 REVERT JUMPDEST POP DUP1 EXTCODESIZE ISZERO PUSH2 0x2EEF JUMP INVALID LOG2 PUSH5 0x6970667358 0x22 SLT KECCAK256 0xAB BLOBBASEFEE CALLCODE SHR 0xDF SWAP5 DUP1 JUMPDEST SWAP3 LOG4 0xD2 0xF SAR 0xEA AND PUSH20 0xB99750C82EB608C9E0289889555E894F64736F6C PUSH4 0x4300081A STOP CALLER "},"methodIdentifiers":{"DEFAULT_ADMIN_ROLE()":"a217fddf","UPGRADE_INTERFACE_VERSION()":"ad3cb1cc","approve(address,uint256)":"095ea7b3","balanceOf(address)":"70a08231","burn(uint256)":"42966c68","getApproved(uint256)":"081812fc","getRoleAdmin(bytes32)":"248a9ca3","grantRole(bytes32,address)":"2f2ff15d","hasRole(bytes32,address)":"91d14854","initialize()":"8129fc1c","isApprovedForAll(address,address)":"e985e9c5","merge(uint256,uint256)":"d1c2babb","name()":"06fdde03","ownerOf(uint256)":"6352211e","ownerToTokenId(address)":"4814f035","proxiableUUID()":"52d1902d","register()":"1aa3a008","renounceRole(bytes32,address)":"36568abe","revokeRole(bytes32,address)":"d547741f","safeTransferFrom(address,address,uint256)":"42842e0e","safeTransferFrom(address,address,uint256,bytes)":"b88d4fde","setApprovalForAll(address,bool)":"a22cb465","stats(uint256)":"ad217ae5","statsAvgPaymentTime(uint256,uint32)":"030b1516","statsAvgReleaseTime(uint256,uint32)":"1a1f8c5e","statsDealCompleted(uint256)":"b1241ce5","statsDealExpired(uint256)":"b58db50f","statsDisputeLost(uint256)":"b4357020","statsVolumeUSD(uint256,uint64)":"7b0d6a85","statsVote(uint256,bool)":"9a2edc49","supportsInterface(bytes4)":"01ffc9a7","symbol()":"95d89b41","tokenURI(uint256)":"c87b56dd","transferFrom(address,address,uint256)":"23b872dd","upgradeToAndCall(address,bytes)":"4f1ef286"}}}}}