{
  "contracts/mocks/MockUniswapV3Factory.sol": {
    "MockUniswapV3Factory": {
      "abi": [
        {
          "inputs": [
            {
              "internalType": "address",
              "name": "tokenA",
              "type": "address"
            },
            {
              "internalType": "address",
              "name": "tokenB",
              "type": "address"
            },
            {
              "internalType": "uint24",
              "name": "fee",
              "type": "uint24"
            }
          ],
          "name": "getPool",
          "outputs": [
            {
              "internalType": "address",
              "name": "pool",
              "type": "address"
            }
          ],
          "stateMutability": "view",
          "type": "function"
        },
        {
          "inputs": [
            {
              "internalType": "address",
              "name": "tokenA",
              "type": "address"
            }
          ],
          "name": "pools",
          "outputs": [
            {
              "internalType": "address",
              "name": "pool",
              "type": "address"
            }
          ],
          "stateMutability": "view",
          "type": "function"
        },
        {
          "inputs": [
            {
              "internalType": "address",
              "name": "tokenA",
              "type": "address"
            },
            {
              "internalType": "address",
              "name": "pool",
              "type": "address"
            }
          ],
          "name": "setPool",
          "outputs": [],
          "stateMutability": "nonpayable",
          "type": "function"
        }
      ],
      "evm": {
        "bytecode": {
          "linkReferences": {},
          "object": "6080806040523460155761018b908161001b8239f35b600080fdfe608080604052600436101561001357600080fd5b60003560e01c9081631698ee82146100d6575080634e847fc7146100875763a4063dbc1461004057600080fd5b34610082576020366003190112610082576001600160a01b03610061610129565b166000526000602052602060018060a01b0360406000205416604051908152f35b600080fd5b34610082576040366003190112610082576100a0610129565b6100a861013f565b6001600160a01b03918216600090815260208190526040902080546001600160a01b03191691909216179055005b34610082576060366003190112610082576100ef610129565b906100f861013f565b5060443562ffffff811603610082576001600160a01b03918216600090815260208181526040909120549092168152f35b600435906001600160a01b038216820361008257565b602435906001600160a01b03821682036100825756fea264697066735822122047630ef44811ebb427849b4620e060eb0738ebd733cf7fe48532e3df5f119e7464736f6c634300081a0033",
          "opcodes": "PUSH1 0x80 DUP1 PUSH1 0x40 MSTORE CALLVALUE PUSH1 0x15 JUMPI PUSH2 0x18B SWAP1 DUP2 PUSH2 0x1B DUP3 CODECOPY RETURN JUMPDEST PUSH1 0x0 DUP1 REVERT INVALID PUSH1 0x80 DUP1 PUSH1 0x40 MSTORE PUSH1 0x4 CALLDATASIZE LT ISZERO PUSH2 0x13 JUMPI PUSH1 0x0 DUP1 REVERT JUMPDEST PUSH1 0x0 CALLDATALOAD PUSH1 0xE0 SHR SWAP1 DUP2 PUSH4 0x1698EE82 EQ PUSH2 0xD6 JUMPI POP DUP1 PUSH4 0x4E847FC7 EQ PUSH2 0x87 JUMPI PUSH4 0xA4063DBC EQ PUSH2 0x40 JUMPI PUSH1 0x0 DUP1 REVERT JUMPDEST CALLVALUE PUSH2 0x82 JUMPI PUSH1 0x20 CALLDATASIZE PUSH1 0x3 NOT ADD SLT PUSH2 0x82 JUMPI PUSH1 0x1 PUSH1 0x1 PUSH1 0xA0 SHL SUB PUSH2 0x61 PUSH2 0x129 JUMP JUMPDEST AND PUSH1 0x0 MSTORE PUSH1 0x0 PUSH1 0x20 MSTORE PUSH1 0x20 PUSH1 0x1 DUP1 PUSH1 0xA0 SHL SUB PUSH1 0x40 PUSH1 0x0 KECCAK256 SLOAD AND PUSH1 0x40 MLOAD SWAP1 DUP2 MSTORE RETURN JUMPDEST PUSH1 0x0 DUP1 REVERT JUMPDEST CALLVALUE PUSH2 0x82 JUMPI PUSH1 0x40 CALLDATASIZE PUSH1 0x3 NOT ADD SLT PUSH2 0x82 JUMPI PUSH2 0xA0 PUSH2 0x129 JUMP JUMPDEST PUSH2 0xA8 PUSH2 0x13F JUMP JUMPDEST PUSH1 0x1 PUSH1 0x1 PUSH1 0xA0 SHL SUB SWAP2 DUP3 AND PUSH1 0x0 SWAP1 DUP2 MSTORE PUSH1 0x20 DUP2 SWAP1 MSTORE PUSH1 0x40 SWAP1 KECCAK256 DUP1 SLOAD PUSH1 0x1 PUSH1 0x1 PUSH1 0xA0 SHL SUB NOT AND SWAP2 SWAP1 SWAP3 AND OR SWAP1 SSTORE STOP JUMPDEST CALLVALUE PUSH2 0x82 JUMPI PUSH1 0x60 CALLDATASIZE PUSH1 0x3 NOT ADD SLT PUSH2 0x82 JUMPI PUSH2 0xEF PUSH2 0x129 JUMP JUMPDEST SWAP1 PUSH2 0xF8 PUSH2 0x13F JUMP JUMPDEST POP PUSH1 0x44 CALLDATALOAD PUSH3 0xFFFFFF DUP2 AND SUB PUSH2 0x82 JUMPI PUSH1 0x1 PUSH1 0x1 PUSH1 0xA0 SHL SUB SWAP2 DUP3 AND PUSH1 0x0 SWAP1 DUP2 MSTORE PUSH1 0x20 DUP2 DUP2 MSTORE PUSH1 0x40 SWAP1 SWAP2 KECCAK256 SLOAD SWAP1 SWAP3 AND DUP2 MSTORE RETURN JUMPDEST PUSH1 0x4 CALLDATALOAD SWAP1 PUSH1 0x1 PUSH1 0x1 PUSH1 0xA0 SHL SUB DUP3 AND DUP3 SUB PUSH2 0x82 JUMPI JUMP JUMPDEST PUSH1 0x24 CALLDATALOAD SWAP1 PUSH1 0x1 PUSH1 0x1 PUSH1 0xA0 SHL SUB DUP3 AND DUP3 SUB PUSH2 0x82 JUMPI JUMP INVALID LOG2 PUSH5 0x6970667358 0x22 SLT KECCAK256 SELFBALANCE PUSH4 0xEF44811 0xEB 0xB4 0x27 DUP5 SWAP12 CHAINID KECCAK256 0xE0 PUSH1 0xEB SMOD CODESIZE 0xEB 0xD7 CALLER 0xCF PUSH32 0xE48532E3DF5F119E7464736F6C634300081A0033000000000000000000000000 "
        },
        "methodIdentifiers": {
          "getPool(address,address,uint24)": "1698ee82",
          "pools(address)": "a4063dbc",
          "setPool(address,address)": "4e847fc7"
        }
      },
      "storageLayout": {
        "storage": [
          {
            "astId": 137,
            "contract": "contracts/mocks/MockUniswapV3Factory.sol:MockUniswapV3Factory",
            "label": "pools",
            "offset": 0,
            "slot": "0",
            "type": "t_mapping(t_address,t_address)"
          }
        ],
        "types": {
          "t_address": {
            "encoding": "inplace",
            "label": "address",
            "numberOfBytes": "20"
          },
          "t_mapping(t_address,t_address)": {
            "encoding": "mapping",
            "key": "t_address",
            "label": "mapping(address => address)",
            "numberOfBytes": "32",
            "value": "t_address"
          }
        }
      }
    }
  }
}