{
  "contracts/mocks/MockUniswapV3Factory.sol": {
    "PoolBTC": {
      "abi": [
        {
          "inputs": [
            {
              "internalType": "uint32[]",
              "name": "secondsAgos",
              "type": "uint32[]"
            }
          ],
          "name": "observe",
          "outputs": [
            {
              "internalType": "int56[]",
              "name": "tickCumulatives",
              "type": "int56[]"
            },
            {
              "internalType": "uint160[]",
              "name": "secondsPerLiquidityCumulativeX128s",
              "type": "uint160[]"
            }
          ],
          "stateMutability": "view",
          "type": "function"
        }
      ],
      "evm": {
        "bytecode": {
          "linkReferences": {},
          "object": "6080806040523460155761023c908161001b8239f35b600080fdfe6080604052600436101561001257600080fd5b60003560e01c63883bdbfd1461002757600080fd5b346101925760203660031901126101925760043567ffffffffffffffff811161019257366023820112156101925780600401359067ffffffffffffffff821161019257602490369260051b01011161019257606061008481610197565b6002815290601f1981016020830181368237650838cfdf627a196100a7856101d3565b52650838ceb9a234196100b9856101f6565b526100c383610197565b6002815260208101923684377303cf27481a1877584745748f8f0f49a2343e45a56100ed826101d3565b527303cf27481a1877596c7a93e7009ad47da76a91da61010c826101f6565b52604051948594604086019160408752518092528501929060005b8181106101765750505060209084830382860152519182815201919060005b818110610154575050500390f35b82516001600160a01b0316845285945060209384019390920191600101610146565b825160060b855287965060209485019490920191600101610127565b600080fd5b6040519190601f01601f1916820167ffffffffffffffff8111838210176101bd57604052565b634e487b7160e01b600052604160045260246000fd5b8051156101e05760200190565b634e487b7160e01b600052603260045260246000fd5b8051600110156101e0576040019056fea2646970667358221220cdea06fa7b0631d29d11ada25ffe54b69c7d16912997e87ae9d1ff2a6f9c3d1364736f6c634300081a0033",
          "opcodes": "PUSH1 0x80 DUP1 PUSH1 0x40 MSTORE CALLVALUE PUSH1 0x15 JUMPI PUSH2 0x23C SWAP1 DUP2 PUSH2 0x1B DUP3 CODECOPY RETURN JUMPDEST PUSH1 0x0 DUP1 REVERT INVALID PUSH1 0x80 PUSH1 0x40 MSTORE PUSH1 0x4 CALLDATASIZE LT ISZERO PUSH2 0x12 JUMPI PUSH1 0x0 DUP1 REVERT JUMPDEST PUSH1 0x0 CALLDATALOAD PUSH1 0xE0 SHR PUSH4 0x883BDBFD EQ PUSH2 0x27 JUMPI PUSH1 0x0 DUP1 REVERT JUMPDEST CALLVALUE PUSH2 0x192 JUMPI PUSH1 0x20 CALLDATASIZE PUSH1 0x3 NOT ADD SLT PUSH2 0x192 JUMPI PUSH1 0x4 CALLDATALOAD PUSH8 0xFFFFFFFFFFFFFFFF DUP2 GT PUSH2 0x192 JUMPI CALLDATASIZE PUSH1 0x23 DUP3 ADD SLT ISZERO PUSH2 0x192 JUMPI DUP1 PUSH1 0x4 ADD CALLDATALOAD SWAP1 PUSH8 0xFFFFFFFFFFFFFFFF DUP3 GT PUSH2 0x192 JUMPI PUSH1 0x24 SWAP1 CALLDATASIZE SWAP3 PUSH1 0x5 SHL ADD ADD GT PUSH2 0x192 JUMPI PUSH1 0x60 PUSH2 0x84 DUP2 PUSH2 0x197 JUMP JUMPDEST PUSH1 0x2 DUP2 MSTORE SWAP1 PUSH1 0x1F NOT DUP2 ADD PUSH1 0x20 DUP4 ADD DUP2 CALLDATASIZE DUP3 CALLDATACOPY PUSH6 0x838CFDF627A NOT PUSH2 0xA7 DUP6 PUSH2 0x1D3 JUMP JUMPDEST MSTORE PUSH6 0x838CEB9A234 NOT PUSH2 0xB9 DUP6 PUSH2 0x1F6 JUMP JUMPDEST MSTORE PUSH2 0xC3 DUP4 PUSH2 0x197 JUMP JUMPDEST PUSH1 0x2 DUP2 MSTORE PUSH1 0x20 DUP2 ADD SWAP3 CALLDATASIZE DUP5 CALLDATACOPY PUSH20 0x3CF27481A1877584745748F8F0F49A2343E45A5 PUSH2 0xED DUP3 PUSH2 0x1D3 JUMP JUMPDEST MSTORE PUSH20 0x3CF27481A1877596C7A93E7009AD47DA76A91DA PUSH2 0x10C DUP3 PUSH2 0x1F6 JUMP JUMPDEST MSTORE PUSH1 0x40 MLOAD SWAP5 DUP6 SWAP5 PUSH1 0x40 DUP7 ADD SWAP2 PUSH1 0x40 DUP8 MSTORE MLOAD DUP1 SWAP3 MSTORE DUP6 ADD SWAP3 SWAP1 PUSH1 0x0 JUMPDEST DUP2 DUP2 LT PUSH2 0x176 JUMPI POP POP POP PUSH1 0x20 SWAP1 DUP5 DUP4 SUB DUP3 DUP7 ADD MSTORE MLOAD SWAP2 DUP3 DUP2 MSTORE ADD SWAP2 SWAP1 PUSH1 0x0 JUMPDEST DUP2 DUP2 LT PUSH2 0x154 JUMPI POP POP POP SUB SWAP1 RETURN JUMPDEST DUP3 MLOAD PUSH1 0x1 PUSH1 0x1 PUSH1 0xA0 SHL SUB AND DUP5 MSTORE DUP6 SWAP5 POP PUSH1 0x20 SWAP4 DUP5 ADD SWAP4 SWAP1 SWAP3 ADD SWAP2 PUSH1 0x1 ADD PUSH2 0x146 JUMP JUMPDEST DUP3 MLOAD PUSH1 0x6 SIGNEXTEND DUP6 MSTORE DUP8 SWAP7 POP PUSH1 0x20 SWAP5 DUP6 ADD SWAP5 SWAP1 SWAP3 ADD SWAP2 PUSH1 0x1 ADD PUSH2 0x127 JUMP JUMPDEST PUSH1 0x0 DUP1 REVERT JUMPDEST PUSH1 0x40 MLOAD SWAP2 SWAP1 PUSH1 0x1F ADD PUSH1 0x1F NOT AND DUP3 ADD PUSH8 0xFFFFFFFFFFFFFFFF DUP2 GT DUP4 DUP3 LT OR PUSH2 0x1BD JUMPI PUSH1 0x40 MSTORE JUMP JUMPDEST PUSH4 0x4E487B71 PUSH1 0xE0 SHL PUSH1 0x0 MSTORE PUSH1 0x41 PUSH1 0x4 MSTORE PUSH1 0x24 PUSH1 0x0 REVERT JUMPDEST DUP1 MLOAD ISZERO PUSH2 0x1E0 JUMPI PUSH1 0x20 ADD SWAP1 JUMP JUMPDEST PUSH4 0x4E487B71 PUSH1 0xE0 SHL PUSH1 0x0 MSTORE PUSH1 0x32 PUSH1 0x4 MSTORE PUSH1 0x24 PUSH1 0x0 REVERT JUMPDEST DUP1 MLOAD PUSH1 0x1 LT ISZERO PUSH2 0x1E0 JUMPI PUSH1 0x40 ADD SWAP1 JUMP INVALID LOG2 PUSH5 0x6970667358 0x22 SLT KECCAK256 0xCD 0xEA MOD STATICCALL PUSH28 0x631D29D11ADA25FFE54B69C7D16912997E87AE9D1FF2A6F9C3D1364 PUSH20 0x6F6C634300081A00330000000000000000000000 "
        },
        "methodIdentifiers": {
          "observe(uint32[])": "883bdbfd"
        }
      },
      "storageLayout": {
        "storage": [],
        "types": null
      }
    }
  }
}