{
  "contracts/mocks/MockUniswapV3Factory.sol": {
    "PoolETH": {
      "abi": [
        {
          "inputs": [
            {
              "internalType": "uint32[]",
              "name": "secondsAgos",
              "type": "uint32[]"
            }
          ],
          "name": "observe",
          "outputs": [
            {
              "internalType": "int56[]",
              "name": "tickCumulatives",
              "type": "int56[]"
            },
            {
              "internalType": "uint160[]",
              "name": "secondsPerLiquidityCumulativeX128s",
              "type": "uint160[]"
            }
          ],
          "stateMutability": "view",
          "type": "function"
        }
      ],
      "evm": {
        "bytecode": {
          "linkReferences": {},
          "object": "6080806040523460155761022e908161001b8239f35b600080fdfe6080604052600436101561001257600080fd5b60003560e01c63883bdbfd1461002757600080fd5b346101845760203660031901126101845760043567ffffffffffffffff811161018457366023820112156101845780600401359067ffffffffffffffff821161018457602490369260051b01011161018457606061008481610189565b6002815290601f1981016020830181368237651000b8e904d1196100a7856101c5565b52651000bc64af4d196100b9856101e8565b526100c383610189565b6002815260208101923684376c0571e46eb6f9cf3fd28a47fbe36100e6826101c5565b526c0571e46ebef0f3697f3f92a7296100fe826101e8565b52604051948594604086019160408752518092528501929060005b8181106101685750505060209084830382860152519182815201919060005b818110610146575050500390f35b82516001600160a01b0316845285945060209384019390920191600101610138565b825160060b855287965060209485019490920191600101610119565b600080fd5b6040519190601f01601f1916820167ffffffffffffffff8111838210176101af57604052565b634e487b7160e01b600052604160045260246000fd5b8051156101d25760200190565b634e487b7160e01b600052603260045260246000fd5b8051600110156101d2576040019056fea26469706673582212200898592d13e1e3300e8256c0ef9d3313e85ebd3ad8d5d7c736a16f9737f503fc64736f6c634300081a0033",
          "opcodes": "PUSH1 0x80 DUP1 PUSH1 0x40 MSTORE CALLVALUE PUSH1 0x15 JUMPI PUSH2 0x22E SWAP1 DUP2 PUSH2 0x1B DUP3 CODECOPY RETURN JUMPDEST PUSH1 0x0 DUP1 REVERT INVALID PUSH1 0x80 PUSH1 0x40 MSTORE PUSH1 0x4 CALLDATASIZE LT ISZERO PUSH2 0x12 JUMPI PUSH1 0x0 DUP1 REVERT JUMPDEST PUSH1 0x0 CALLDATALOAD PUSH1 0xE0 SHR PUSH4 0x883BDBFD EQ PUSH2 0x27 JUMPI PUSH1 0x0 DUP1 REVERT JUMPDEST CALLVALUE PUSH2 0x184 JUMPI PUSH1 0x20 CALLDATASIZE PUSH1 0x3 NOT ADD SLT PUSH2 0x184 JUMPI PUSH1 0x4 CALLDATALOAD PUSH8 0xFFFFFFFFFFFFFFFF DUP2 GT PUSH2 0x184 JUMPI CALLDATASIZE PUSH1 0x23 DUP3 ADD SLT ISZERO PUSH2 0x184 JUMPI DUP1 PUSH1 0x4 ADD CALLDATALOAD SWAP1 PUSH8 0xFFFFFFFFFFFFFFFF DUP3 GT PUSH2 0x184 JUMPI PUSH1 0x24 SWAP1 CALLDATASIZE SWAP3 PUSH1 0x5 SHL ADD ADD GT PUSH2 0x184 JUMPI PUSH1 0x60 PUSH2 0x84 DUP2 PUSH2 0x189 JUMP JUMPDEST PUSH1 0x2 DUP2 MSTORE SWAP1 PUSH1 0x1F NOT DUP2 ADD PUSH1 0x20 DUP4 ADD DUP2 CALLDATASIZE DUP3 CALLDATACOPY PUSH6 0x1000B8E904D1 NOT PUSH2 0xA7 DUP6 PUSH2 0x1C5 JUMP JUMPDEST MSTORE PUSH6 0x1000BC64AF4D NOT PUSH2 0xB9 DUP6 PUSH2 0x1E8 JUMP JUMPDEST MSTORE PUSH2 0xC3 DUP4 PUSH2 0x189 JUMP JUMPDEST PUSH1 0x2 DUP2 MSTORE PUSH1 0x20 DUP2 ADD SWAP3 CALLDATASIZE DUP5 CALLDATACOPY PUSH13 0x571E46EB6F9CF3FD28A47FBE3 PUSH2 0xE6 DUP3 PUSH2 0x1C5 JUMP JUMPDEST MSTORE PUSH13 0x571E46EBEF0F3697F3F92A729 PUSH2 0xFE DUP3 PUSH2 0x1E8 JUMP JUMPDEST MSTORE PUSH1 0x40 MLOAD SWAP5 DUP6 SWAP5 PUSH1 0x40 DUP7 ADD SWAP2 PUSH1 0x40 DUP8 MSTORE MLOAD DUP1 SWAP3 MSTORE DUP6 ADD SWAP3 SWAP1 PUSH1 0x0 JUMPDEST DUP2 DUP2 LT PUSH2 0x168 JUMPI POP POP POP PUSH1 0x20 SWAP1 DUP5 DUP4 SUB DUP3 DUP7 ADD MSTORE MLOAD SWAP2 DUP3 DUP2 MSTORE ADD SWAP2 SWAP1 PUSH1 0x0 JUMPDEST DUP2 DUP2 LT PUSH2 0x146 JUMPI POP POP POP SUB SWAP1 RETURN JUMPDEST DUP3 MLOAD PUSH1 0x1 PUSH1 0x1 PUSH1 0xA0 SHL SUB AND DUP5 MSTORE DUP6 SWAP5 POP PUSH1 0x20 SWAP4 DUP5 ADD SWAP4 SWAP1 SWAP3 ADD SWAP2 PUSH1 0x1 ADD PUSH2 0x138 JUMP JUMPDEST DUP3 MLOAD PUSH1 0x6 SIGNEXTEND DUP6 MSTORE DUP8 SWAP7 POP PUSH1 0x20 SWAP5 DUP6 ADD SWAP5 SWAP1 SWAP3 ADD SWAP2 PUSH1 0x1 ADD PUSH2 0x119 JUMP JUMPDEST PUSH1 0x0 DUP1 REVERT JUMPDEST PUSH1 0x40 MLOAD SWAP2 SWAP1 PUSH1 0x1F ADD PUSH1 0x1F NOT AND DUP3 ADD PUSH8 0xFFFFFFFFFFFFFFFF DUP2 GT DUP4 DUP3 LT OR PUSH2 0x1AF JUMPI PUSH1 0x40 MSTORE JUMP JUMPDEST PUSH4 0x4E487B71 PUSH1 0xE0 SHL PUSH1 0x0 MSTORE PUSH1 0x41 PUSH1 0x4 MSTORE PUSH1 0x24 PUSH1 0x0 REVERT JUMPDEST DUP1 MLOAD ISZERO PUSH2 0x1D2 JUMPI PUSH1 0x20 ADD SWAP1 JUMP JUMPDEST PUSH4 0x4E487B71 PUSH1 0xE0 SHL PUSH1 0x0 MSTORE PUSH1 0x32 PUSH1 0x4 MSTORE PUSH1 0x24 PUSH1 0x0 REVERT JUMPDEST DUP1 MLOAD PUSH1 0x1 LT ISZERO PUSH2 0x1D2 JUMPI PUSH1 0x40 ADD SWAP1 JUMP INVALID LOG2 PUSH5 0x6970667358 0x22 SLT KECCAK256 ADDMOD SWAP9 MSIZE 0x2D SGT 0xE1 0xE3 ADDRESS 0xE DUP3 JUMP 0xC0 0xEF SWAP14 CALLER SGT 0xE8 MCOPY 0xBD GASPRICE 0xD8 0xD5 0xD7 0xC7 CALLDATASIZE LOG1 PUSH16 0x9737F503FC64736F6C634300081A0033 "
        },
        "methodIdentifiers": {
          "observe(uint32[])": "883bdbfd"
        }
      },
      "storageLayout": {
        "storage": [],
        "types": null
      }
    }
  }
}