{
  "_format": "hh-sol-artifact-1",
  "contractName": "DealFactory",
  "sourceName": "evm/protocol/DealFactory.sol",
  "abi": [
    {
      "inputs": [
        {
          "internalType": "address",
          "name": "target",
          "type": "address"
        }
      ],
      "name": "AddressEmptyCode",
      "type": "error"
    },
    {
      "inputs": [
        {
          "internalType": "address",
          "name": "implementation",
          "type": "address"
        }
      ],
      "name": "ERC1967InvalidImplementation",
      "type": "error"
    },
    {
      "inputs": [],
      "name": "ERC1967NonPayable",
      "type": "error"
    },
    {
      "inputs": [],
      "name": "FailedCall",
      "type": "error"
    },
    {
      "inputs": [],
      "name": "InvalidInitialization",
      "type": "error"
    },
    {
      "inputs": [],
      "name": "NotInitializing",
      "type": "error"
    },
    {
      "inputs": [
        {
          "internalType": "address",
          "name": "owner",
          "type": "address"
        }
      ],
      "name": "OwnableInvalidOwner",
      "type": "error"
    },
    {
      "inputs": [
        {
          "internalType": "address",
          "name": "account",
          "type": "address"
        }
      ],
      "name": "OwnableUnauthorizedAccount",
      "type": "error"
    },
    {
      "inputs": [],
      "name": "UUPSUnauthorizedCallContext",
      "type": "error"
    },
    {
      "inputs": [
        {
          "internalType": "bytes32",
          "name": "slot",
          "type": "bytes32"
        }
      ],
      "name": "UUPSUnsupportedProxiableUUID",
      "type": "error"
    },
    {
      "inputs": [
        {
          "internalType": "address",
          "name": "account",
          "type": "address"
        }
      ],
      "name": "UnauthorizedAccount",
      "type": "error"
    },
    {
      "anonymous": false,
      "inputs": [
        {
          "indexed": false,
          "internalType": "uint64",
          "name": "version",
          "type": "uint64"
        }
      ],
      "name": "Initialized",
      "type": "event"
    },
    {
      "anonymous": false,
      "inputs": [
        {
          "indexed": true,
          "internalType": "address",
          "name": "previousOwner",
          "type": "address"
        },
        {
          "indexed": true,
          "internalType": "address",
          "name": "newOwner",
          "type": "address"
        }
      ],
      "name": "OwnershipTransferred",
      "type": "event"
    },
    {
      "anonymous": false,
      "inputs": [
        {
          "indexed": true,
          "internalType": "address",
          "name": "implementation",
          "type": "address"
        }
      ],
      "name": "Upgraded",
      "type": "event"
    },
    {
      "inputs": [],
      "name": "UPGRADE_INTERFACE_VERSION",
      "outputs": [
        {
          "internalType": "string",
          "name": "",
          "type": "string"
        }
      ],
      "stateMutability": "view",
      "type": "function"
    },
    {
      "inputs": [
        {
          "internalType": "address",
          "name": "offer_",
          "type": "address"
        },
        {
          "internalType": "uint256",
          "name": "fiatAmount_",
          "type": "uint256"
        },
        {
          "internalType": "string",
          "name": "paymentInstructions_",
          "type": "string"
        }
      ],
      "name": "create",
      "outputs": [],
      "stateMutability": "nonpayable",
      "type": "function"
    },
    {
      "inputs": [
        {
          "internalType": "address",
          "name": "market_",
          "type": "address"
        }
      ],
      "name": "initialize",
      "outputs": [],
      "stateMutability": "nonpayable",
      "type": "function"
    },
    {
      "inputs": [],
      "name": "market",
      "outputs": [
        {
          "internalType": "contract Market",
          "name": "",
          "type": "address"
        }
      ],
      "stateMutability": "view",
      "type": "function"
    },
    {
      "inputs": [],
      "name": "owner",
      "outputs": [
        {
          "internalType": "address",
          "name": "",
          "type": "address"
        }
      ],
      "stateMutability": "view",
      "type": "function"
    },
    {
      "inputs": [],
      "name": "proxiableUUID",
      "outputs": [
        {
          "internalType": "bytes32",
          "name": "",
          "type": "bytes32"
        }
      ],
      "stateMutability": "view",
      "type": "function"
    },
    {
      "inputs": [],
      "name": "renounceOwnership",
      "outputs": [],
      "stateMutability": "nonpayable",
      "type": "function"
    },
    {
      "inputs": [
        {
          "internalType": "address",
          "name": "newOwner",
          "type": "address"
        }
      ],
      "name": "transferOwnership",
      "outputs": [],
      "stateMutability": "nonpayable",
      "type": "function"
    },
    {
      "inputs": [
        {
          "internalType": "address",
          "name": "newImplementation",
          "type": "address"
        },
        {
          "internalType": "bytes",
          "name": "data",
          "type": "bytes"
        }
      ],
      "name": "upgradeToAndCall",
      "outputs": [],
      "stateMutability": "payable",
      "type": "function"
    }
  ],
  "bytecode": "0x60a0806040523460295730608052613e63908161002f82396080518181816107c9015261086f0152f35b600080fdfe6080604052600436101561001257600080fd5b6000803560e01c80634f1ef2861461081e57806352d1902d146107b657806369fc551a14610334578063715018a6146102ca57806380f55605146102a35780638da5cb5b1461026d578063ad3cb1cc14610220578063c4d66de8146100af5763f2fde38b1461008057600080fd5b346100ac5760203660031901126100ac576100a961009c610a47565b6100a4610c25565b610baf565b80f35b80fd5b50346100ac5760203660031901126100ac576100c9610a47565b600080516020613e0e833981519152549060ff8260401c16159167ffffffffffffffff811680159081610218575b600114908161020e575b159081610205575b506101f65767ffffffffffffffff198116600117600080516020613e0e83398151915255826101c9575b5061013c610c5b565b610144610c5b565b61014d33610baf565b82546001600160a01b0319166001600160a01b039190911617825561016f5780f35b68ff000000000000000019600080516020613e0e8339815191525416600080516020613e0e833981519152557fc7f505b2f371ae2175ee4913f4499e1f2633a7b5936321eed1cdaeb6115181d2602060405160018152a180f35b68ffffffffffffffffff19166801000000000000000117600080516020613e0e8339815191525538610133565b63f92ee8a960e01b8452600484fd5b90501538610109565b303b159150610101565b8491506100f7565b50346100ac57806003193601126100ac5750610269604051610243604082610a62565b60058152640352e302e360dc1b6020820152604051918291602083526020830190610b10565b0390f35b50346100ac57806003193601126100ac57600080516020613dce833981519152546040516001600160a01b039091168152602090f35b50346100ac57806003193601126100ac57546040516001600160a01b039091168152602090f35b50346100ac57806003193601126100ac576102e3610c25565b600080516020613dce83398151915280546001600160a01b0319811690915581906001600160a01b03167f8be0079c531659141344cd1fd0a4f28419497f9722a3daafe3b4186f6b6457e08280a380f35b50346100ac5760603660031901126100ac5761034e610a47565b906024359160443567ffffffffffffffff81116107b257366023820112156107b257610384903690602481600401359101610ab6565b8254604051631336e5fb60e31b81526001600160a01b0393841660048201819052929592939091169190602081602481865afa90811561060e578591610793575b501561076357604051638da5cb5b60e01b8152602081600481875afa90811561060e578591610721575b506001600160a01b0316331461070e5760405163ee07080560e01b8152602081600481875afa90811561060e5785916106df575b506106af5760405163052876e560e51b81528481600481875afa90811561060e578591610695575b50604051637e062a3560e11b8152908582600481885afa91821561068a578692610666575b50604051631627391760e11b8152602081600481895afa90811561065b578791610619575b506020916104cc9161ffff6104de60405196879586956320e1220560e11b87528a6004880152608060248801526084870190610b10565b85810360031901604487015290610b10565b911660648301520381865afa90811561060e5785916105d8575b50604051936130e3938486019486861067ffffffffffffffff8711176105c4579387989360c09388979361054f97610ceb8a3984526020840152336040840152606083015260808201528160a08201520190610b10565b039082f080156105b35781546001600160a01b031690813b156105c057604051630978ae4560e31b81526001600160a01b039091166004820152919081908390602490829084905af180156105b3576105a55780f35b6105ae91610a62565b388180f35b50604051903d90823e3d90fd5b5050fd5b634e487b7160e01b88526041600452602488fd5b90506020813d602011610606575b816105f360209383610a62565b810103126106025751386104f8565b8480fd5b3d91506105e6565b6040513d87823e3d90fd5b90506020813d602011610653575b8161063460209383610a62565b8101031261064f575161ffff8116810361064f576020610495565b8680fd5b3d9150610627565b6040513d89823e3d90fd5b6106839192503d8088833e61067b8183610a62565b810190610b4d565b9038610470565b6040513d88823e3d90fd5b6106a991503d8087833e61067b8183610a62565b3861044b565b60405162461bcd60e51b8152602060048201526008602482015267191a5cd8589b195960c21b6044820152606490fd5b610701915060203d602011610707575b6106f98183610a62565b810190610b35565b38610423565b503d6106ef565b6332b2baa360e01b845233600452602484fd5b90506020813d60201161075b575b8161073c60209383610a62565b8101031261060257516001600160a01b038116810361060257386103ef565b3d915061072f565b60405162461bcd60e51b815260206004820152600860248201526737379037b33332b960c11b6044820152606490fd5b6107ac915060203d602011610707576106f98183610a62565b386103c5565b8280fd5b50346100ac57806003193601126100ac577f00000000000000000000000000000000000000000000000000000000000000006001600160a01b0316300361080f576020604051600080516020613dee8339815191528152f35b63703e46dd60e11b8152600490fd5b5060403660031901126100ac57610833610a47565b9060243567ffffffffffffffff8111610a435736602382011215610a4357610865903690602481600401359101610ab6565b6001600160a01b037f000000000000000000000000000000000000000000000000000000000000000016308114908115610a20575b50610a11576108a7610c25565b6040516352d1902d60e01b8152926001600160a01b0381169190602085600481865afa809585966109dd575b506108ec57634c9c8ce360e01b84526004839052602484fd5b909184600080516020613dee83398151915281036109cb5750813b156109b957600080516020613dee83398151915280546001600160a01b031916821790557fbc7cd75a20ee27fd9adebab32041f755214dbc6bffa90cc0225b39da2e5c2d3b8480a2815183901561099f578083602061099395519101845af43d15610997573d9161097783610a9a565b926109856040519485610a62565b83523d85602085013e610c89565b5080f35b606091610c89565b505050346109aa5780f35b63b398979f60e01b8152600490fd5b634c9c8ce360e01b8452600452602483fd5b632a87526960e21b8552600452602484fd5b9095506020813d602011610a09575b816109f960209383610a62565b81010312610602575194386108d3565b3d91506109ec565b63703e46dd60e11b8252600482fd5b600080516020613dee833981519152546001600160a01b0316141590503861089a565b5080fd5b600435906001600160a01b0382168203610a5d57565b600080fd5b90601f8019910116810190811067ffffffffffffffff821117610a8457604052565b634e487b7160e01b600052604160045260246000fd5b67ffffffffffffffff8111610a8457601f01601f191660200190565b929192610ac282610a9a565b91610ad06040519384610a62565b829481845281830111610a5d578281602093846000960137010152565b60005b838110610b005750506000910152565b8181015183820152602001610af0565b90602091610b2981518092818552858086019101610aed565b601f01601f1916010190565b90816020910312610a5d57518015158103610a5d5790565b602081830312610a5d5780519067ffffffffffffffff8211610a5d570181601f82011215610a5d578051610b8081610a9a565b92610b8e6040519485610a62565b81845260208284010111610a5d57610bac9160208085019101610aed565b90565b6001600160a01b03168015610c0f57600080516020613dce83398151915280546001600160a01b0319811683179091556001600160a01b03167f8be0079c531659141344cd1fd0a4f28419497f9722a3daafe3b4186f6b6457e0600080a3565b631e4fbdf760e01b600052600060045260246000fd5b600080516020613dce833981519152546001600160a01b03163303610c4657565b63118cdaa760e01b6000523360045260246000fd5b60ff600080516020613e0e8339815191525460401c1615610c7857565b631afcd79f60e31b60005260046000fd5b90610caf5750805115610c9e57602081519101fd5b63d6bda27560e01b60005260046000fd5b81511580610ce1575b610cc0575090565b639996b31560e01b60009081526001600160a01b0391909116600452602490fd5b50803b15610cb856fe608080604052346105ba576130e3803803809161001c82856106d9565b833981019060c0818303126105ba57610034816106fc565b91610041602083016106fc565b9161004e604082016106fc565b9260608201519160808101519360a082015160018060401b0381116105ba576100779201610710565b6001805463ffffffff1916630e100384179055600980546001600160a81b03191660089790971b610100600160a81b031696909617909555600a80546001600160a01b03199081166001600160a01b0393841690811790925560048054909116928616928317815560405163062b864360e11b815292959291602091839182905afa90811561048057600091610696575b5060049190156106075761011b81610806565b50600a54604051638da5cb5b60e01b81529260209184919082906001600160a01b03165afa918215610480576000926105c7575b5061015b60049261077f565b505b600a54604051638da5cb5b60e01b81529260209184919082906001600160a01b03165afa91821561048057600092610581575b5061019d6101a392610886565b50610886565b5060035560055581516001600160401b03811161042257600654600181811c91168015610577575b602082101461040257601f8111610512575b50602092601f82116001146104ad57928192936000926104a2575b50508160011b916000199060031b1c1916176006555b61ffff60015416420180421161048c576007556212750042019081421161048c57600491600855600060018060a01b03600a54166040519384809263d502562560e01b82525afa91821561048057600092610438575b5081516001600160401b03811161042257600254600181811c91168015610418575b602082101461040257601f811161039d575b50602092601f8211600114610338579281929360009261032d575b50508160011b916000199060031b1c1916176002555b60ff600954166040516008821015610317577f483872b61d8baa4123ce48bdbfc11cc824c853d9848d59d558aa1530400749159260409282526020820152a160405161275b90816109088239f35b634e487b7160e01b600052602160045260246000fd5b0151905038806102b3565b601f198216936002600052806000209160005b868110610385575083600195961061036c575b505050811b016002556102c9565b015160001960f88460031b161c1916905538808061035e565b9192602060018192868501518155019401920161034b565b60026000527f405787fa12a823e0f2b7631cc41b3ba8828b3321ca811111fa75cd3aa3bb5ace601f830160051c810191602084106103f8575b601f0160051c01905b8181106103ec5750610298565b600081556001016103df565b90915081906103d6565b634e487b7160e01b600052602260045260246000fd5b90607f1690610286565b634e487b7160e01b600052604160045260246000fd5b3d8084833e61044781836106d9565b81019060208183031261047c578051906001600160401b0382116104785761047193945001610710565b9038610264565b8480fd5b8380fd5b6040513d6000823e3d90fd5b634e487b7160e01b600052601160045260246000fd5b0151905038806101f8565b601f198216936006600052806000209160005b8681106104fa57508360019596106104e1575b505050811b0160065561020e565b015160001960f88460031b161c191690553880806104d3565b919260206001819286850151815501940192016104c0565b60066000527ff652222313e28459528d920b65115c16c04f3efc82aaedc97be59f3f377c0d3f601f830160051c8101916020841061056d575b601f0160051c01905b81811061056157506101dd565b60008155600101610554565b909150819061054b565b90607f16906101cb565b91506020823d6020116105bf575b8161059c602093836106d9565b810103126105ba5761019d6105b36101a3936106fc565b9250610190565b600080fd5b3d915061058f565b91506020823d6020116105ff575b816105e2602093836106d9565b810103126105ba5761015b6105f86004936106fc565b925061014f565b3d91506105d5565b6106108161077f565b50600a54604051638da5cb5b60e01b81529260209184919082906001600160a01b03165afa91821561048057600092610656575b50610650600492610806565b5061015d565b91506020823d60201161068e575b81610671602093836106d9565b810103126105ba576106506106876004936106fc565b9250610644565b3d9150610664565b6020813d6020116106d1575b816106af602093836106d9565b810103126106cd57519081151582036106ca57506004610108565b80fd5b5080fd5b3d91506106a2565b601f909101601f19168101906001600160401b0382119082101761042257604052565b51906001600160a01b03821682036105ba57565b81601f820112156105ba578051906001600160401b0382116104225760405192610744601f8401601f1916602001856106d9565b828452602083830101116105ba5760005b82811061076a57505060206000918301015290565b80602080928401015182828701015201610755565b6001600160a01b03811660009081526000805160206130a3833981519152602052604090205460ff16610800576001600160a01b031660008181526000805160206130a383398151915260205260408120805460ff191660011790553391906529a2a62622a960d11b906000805160206130638339815191529080a4600190565b50600090565b6001600160a01b0381166000908152600080516020613083833981519152602052604090205460ff16610800576001600160a01b0316600081815260008051602061308383398151915260205260408120805460ff1916600117905533919064212aaca2a960d91b906000805160206130638339815191529080a4600190565b6001600160a01b03811660009081526000805160206130c3833981519152602052604090205460ff16610800576001600160a01b031660008181526000805160206130c383398151915260205260408120805460ff191660011790553391906526a2a6a122a960d11b906000805160206130638339815191529080a460019056fe608080604052600436101561001357600080fd5b600090813560e01c90816301ffc9a714611e775750806305c766d114611e01578063248a9ca314611dcb578063267a729c14611d245780632852b71c14611c2e578063295b4e1714611b7f5780632f2ff15d14611b4c57806336568abe14611b135780636255dc1a14611af757806363660a5c14611ad957806370ea2dcd14611395578063782b36021461136c57806385aa24521461134e57806386d1a69f14610cf657806391d1485414610cb8578063a217fddf14610c9c578063a3a68fda14610c04578063b60d428814610b27578063b8efac3d14610b09578063c028df0614610ae0578063c19d93fb14610ab8578063d5025625146109d5578063d547741f14610999578063de643c4a146108c1578063ea8a1af014610227578063eec7faa1146102095763f240f7c31461014a57600080fd5b346102065780600319360112610206576101626122c3565b60ff6009541660088110156101f2576001811080156101e8575b6101cf5750610189612058565b6009805460ff1916600417905560405160408160046000805160206127068339815191529352336020820152a180f35b634e487b7160e01b600052602160045260246000fd5b632aa0018f60e11b8252602491906101e690611ffd565bfd5b506003811161017c565b634e487b7160e01b82526021600452602482fd5b80fd5b50346102065780600319360112610206576020600354604051908152f35b50346102065780600319360112610206576102406122c3565b60095460ff81169060088210156108ad576006821161089757811580610883575b80610878575b610847578291600181108015610810575b80156107bd575b8015610791575b1561077b57600a54604051637e062a3560e11b81526001600160a01b039091169285908183600481885afa908115610436576102e7938392610757575b50604051808095819463128d5a1d60e31b8352602060048401526024830190611f8f565b039160081c6001600160a01b03165afa90811561074c57859161072a575b50516001600160a01b0316926107165760021461051f575b50506009549060ff82169160088310156101f257819215806104b9575b610371575b50506009805460ff1916600517905560405160408160056000805160206127068339815191529352336020820152a180f35b604051630a40d29760e21b8152906020908290600490829060081c6001600160a01b03165afa90811561043657829161048a575b50604051634814f03560e01b81523360048201526001600160a01b039190911690602081602481855afa90811561047f578391610445575b50806103ea575b5061033f565b813b1561044157829160248392604051948593849263b58db50f60e01b845260048401525af1801561043657610421575b806103e4565b8161042b91611f34565b61020657803861041b565b6040513d84823e3d90fd5b5050fd5b9250506020823d602011610477575b8161046160209383611f34565b8101031261047257829151386103dd565b600080fd5b3d9150610454565b6040513d85823e3d90fd5b6104ac915060203d6020116104b2575b6104a48183611f34565b810190612039565b386103a5565b503d61049a565b50600a54604051638da5cb5b60e01b815290602090829060049082906001600160a01b03165afa90811561047f578391610500575b506001600160a01b031633141561033a565b610519915060203d6020116104b2576104a48183611f34565b386104ee565b6004546529a2a62622a960d11b8452602084815260408086206001600160a01b0390931660009081529290915290205460ff16156105d857506004805460035460405163a9059cbb60e01b81526001600160a01b03909216928201929092526024810191909152906020908290604490829086905af18015610436576105a9575b505b388061031d565b6105ca9060203d6020116105d1575b6105c28183611f34565b8101906122ab565b50386105a0565b503d6105b8565b604051638da5cb5b60e01b8152602081600481855afa90811561070b5784916106ec575b506529a2a62622a960d11b845283602052604084209060018060a01b031660005260205260ff60406000205416610635575b50506105a2565b602060049160405192838092638da5cb5b60e01b82525afa801561047f576106999260209285926106cd575b5060035460405163a9059cbb60e01b81526001600160a01b039093166004840152602483015290928391908290869082906044820190565b03925af18015610436576106ae575b8061062e565b6106c69060203d6020116105d1576105c28183611f34565b50386106a8565b6106e5919250833d85116104b2576104a48183611f34565b9038610661565b610705915060203d6020116104b2576104a48183611f34565b386105fc565b6040513d86823e3d90fd5b634e487b7160e01b84526021600452602484fd5b61074691503d8087833e61073e8183611f34565b8101906121a2565b38610305565b6040513d87823e3d90fd5b6107749192503d8085833e61076c8183611f34565b81019061217c565b90386102c3565b836101e6602492632aa0018f60e11b8352611ffd565b506726a2a224a0aa27a960c11b845260208481526040808620336000908152925290205460ff16610286565b506529a2a62622a960d11b845260208481526040808620336000908152925290205460ff1683816107ef575b5061027f565b9050610716576003811080610805575b836107e9565b5060085442116107ff565b5064212aaca2a960d91b845260208481526040808620336000908152925290205460ff168015610278575083925060058110610278565b60405162461bcd60e51b8152602060048201526009602482015268746f6f206561726c7960b81b6044820152606490fd5b506007544210610267565b506004546001600160a01b03163314610261565b632aa0018f60e11b83526024836101e684611ffd565b634e487b7160e01b83526021600452602483fd5b5034610206578060031936011261020657600b54604051918281600c54926108e884611efa565b8084529360018116908115610977575060011461092a575b5061090d92500383611f34565b610926604051928260ff80869560081c16911684611fda565b0390f35b600c8152919290506000805160206126c68339815191525b81831061095b57505090602061090d9282010138610900565b6020919350806001915483858901015201910190918492610942565b90506020925061090d94915060ff191682840152151560051b82010138610900565b5034610206576109d16109ab36611fb4565b906109cc6109c782600052600060205260016040600020015490565b61237b565b612623565b5080f35b50346102065780600319360112610206576040519080600254906109f882611efa565b8085529160018116908115610a915750600114610a34575b61092684610a2081860382611f34565b604051918291602083526020830190611f8f565b600281527f405787fa12a823e0f2b7631cc41b3ba8828b3321ca811111fa75cd3aa3bb5ace939250905b808210610a7757509091508101602001610a2082610a10565b919260018160209254838588010152019101909291610a5e565b60ff191660208087019190915292151560051b85019092019250610a209150839050610a10565b5034610206578060031936011261020657602060ff60095416610ade604051809261200b565bf35b5034610206578060031936011261020657600a546040516001600160a01b039091168152602090f35b50346102065780600319360112610206576020600854604051908152f35b5034610206578060031936011261020657610b4061231f565b6009549060ff82169160088310156101f257600183108015610bfa575b610be357819060081c6001600160a01b0316803b15610be05781809160046040518094819363317cad0560e21b83525af1801561043657610bcb575b50506009805460ff1916600217905560405160408160026000805160206127068339815191529352336020820152a180f35b81610bd591611f34565b610206578082610b99565b50fd5b50632aa0018f60e11b81526024916101e690611ffd565b5060018311610b5d565b5034610206578060031936011261020657600d54604051918281600e5492610c2b84611efa565b80845293600181169081156109775750600114610c4f575061090d92500383611f34565b600e8152919290506000805160206126e68339815191525b818310610c8057505090602061090d9282010138610900565b6020919350806001915483858901015201910190918492610c67565b5034610206578060031936011261020657602090604051908152f35b5034610206576040610cc936611fb4565b9290815280602052209060018060a01b0316600052602052602060ff604060002054166040519015158152f35b5034610206578060031936011261020657610d0f61231f565b60095460ff811660088110156108ad57600281108015611344575b61132e5750600a54604051637e062a3560e11b81526001600160a01b039091169183908183600481875afa90811561043657610d8a9383926107575750604051808095819463128d5a1d60e31b8352602060048401526024830190611f8f565b039160081c6001600160a01b03165afa90811561047f578391611314575b505160045464212aaca2a960d91b8452602084815260408086206001600160a01b03938416600090815292529020549116919060ff16156111d95750610e3b602060018060a01b0360045416610e0d600354612710610e0682612272565b049061229e565b60405163a9059cbb60e01b81526001600160a01b039092166004830152602482015291829081906044820190565b038186865af1801561047f576111ba575b505b60095460405163368280fb60e11b8152906020908290600490829060081c6001600160a01b03165afa90811561047f57839161119b575b506040516370a0823160e01b815230600482015290602082602481865afa91821561070b578492611165575b5060405163a9059cbb60e01b81526001600160a01b0390911660048201526024810191909152906020908290818581604481015b03925af1801561043657611148575b506009805460ff1916600717905560405160408160076000805160206127068339815191529352336020820152a1600954604051630a40d29760e21b815282916020908290600490829060081c6001600160a01b03165afa908115610436578291611129575b50600a54604051638da5cb5b60e01b81526001600160a01b0392831692909160209183916004918391165afa90811561047f57839161110a575b50604051634814f03560e01b81526001600160a01b039091166004820152602081602481855afa90811561047f5783916110d5575b5080611089575b5060018060a01b036004541660405190634814f03560e01b82526004820152602081602481855afa90811561047f578391611054575b5080611010575050f35b813b1561044157829160248392604051948593849263b1241ce560e01b845260048401525af18015610436576110435750f35b8161104d91611f34565b6102065780f35b9250506020823d602011611081575b8161107060209383611f34565b810103126104725782915138611006565b3d9150611063565b813b15610441576040519063b1241ce560e01b82526004820152828160248183865af190811561047f5783916110c0575b50610fd0565b816110ca91611f34565b610be05781386110ba565b9250506020823d602011611102575b816110f160209383611f34565b810103126104725782915138610fc9565b3d91506110e4565b611123915060203d6020116104b2576104a48183611f34565b38610f94565b611142915060203d6020116104b2576104a48183611f34565b38610f5a565b6111609060203d6020116105d1576105c28183611f34565b610ef4565b91506020823d602011611193575b8161118060209383611f34565b8101031261047257905190610ee5610eb1565b3d9150611173565b6111b4915060203d6020116104b2576104a48183611f34565b38610e85565b6111d29060203d6020116105d1576105c28183611f34565b5038610e4c565b604051638da5cb5b60e01b8152602081600481855afa90811561070b5784916112f5575b5064212aaca2a960d91b8452602084815260408086206001600160a01b0390931660009081529290915290205460ff16156112c557602060049160405192838092638da5cb5b60e01b82525afa90811561047f576112729160209185916112a8575b50610e0d600354612710610e0682612272565b038186865af1801561047f57611289575b50610e4e565b6112a19060203d6020116105d1576105c28183611f34565b5038611283565b6112bf9150823d84116104b2576104a48183611f34565b3861125f565b60405162461bcd60e51b8152602060048201526008602482015267373790313abcb2b960c11b6044820152606490fd5b61130e915060203d6020116104b2576104a48183611f34565b386111fd565b61132891503d8085833e61073e8183611f34565b38610da8565b826101e6602492632aa0018f60e11b8352611ffd565b5060058111610d2a565b50346102065780600319360112610206576020600554604051908152f35b50346102065780600319360112610206576004546040516001600160a01b039091168152602090f35b503461020657604036600319011261020657600435801515908181036115cd5760243567ffffffffffffffff81116115c9576113d5903690600401611ecc565b9260095460ff81166008811015611ac557600681108015611abb575b611aa55750604051630a40d29760e21b815291906020908390600490829060081c6001600160a01b03165afa918215611a9a578692611a79575b50600a54604051638da5cb5b60e01b815290602090829060049082906001600160a01b03165afa908115611a6e578791611a4f575b50336001600160a01b03919091160361170d5760019061ff00600d549161148a60ff8416156120db565b60081b169061ffff19161717600d5567ffffffffffffffff84116116f95784906114b5600e54611efa565b601f8111611686575b508482601f8211600114611613578391611608575b508560011b906000198760031b1c191617600e555b60048054604051634814f03560e01b81526001600160a01b0391821692810192909252909116602082602481845afa91821561047f5783926115d1575b5081611572575b5050507f514f3189a205d863ff2592c318f6332fe754ed0f49672ec61ce3a48c3cc10dd69161156c60018060a01b03600454169460405193849384612111565b0390a280f35b803b156115cd57604051639a2edc4960e01b81526004810192909252841515602483015282908290604490829084905af18015610436576115b4575b8061152c565b816115be91611f34565b6115c95783386115ae565b8380fd5b8280fd5b925090506020823d602011611600575b816115ee60209383611f34565b81010312610472578591519038611525565b3d91506115e1565b9050830135386114d3565b600e84526000805160206126e6833981519152915086601f198116855b81811061166857501061164e575b5050600185811b01600e556114e8565b840135600019600388901b60f8161c19169055388061163e565b8784013585558a96506001909401936020938401938a935001611630565b9091600e9052601f850160051c6000805160206126e68339815191520190602086106116e3575b90601f8793920160051c6000805160206126e683398151915201905b8181106116d657506114be565b92835586926001016116c9565b6000805160206126e683398151915291506116ad565b634e487b7160e01b85526041600452602485fd5b600454939492936001600160a01b0316331461172c575b505050505080f35b60019061ff00600b549161174360ff8416156120db565b60081b169061ffff19161717600b5567ffffffffffffffff82116116f95761176c600c54611efa565b601f81116119e4575b508185601f8211600114611974578691611969575b508260011b906000198460031b1c191617600c555b600a54604051638da5cb5b60e01b81526001600160a01b0392831692879260209183916004918391165afa90811561043657829161194a575b50604051634814f03560e01b81526001600160a01b039091166004820152602081602481865afa908115610436578291611918575b50806118bb575b5050600a54604051638da5cb5b60e01b815293929150602090849060049082906001600160a01b03165afa90811561074c577f514f3189a205d863ff2592c318f6332fe754ed0f49672ec61ce3a48c3cc10dd6938692611896575b506118899060405193849360018060a01b03169684612111565b0390a23880808080611724565b6118899192506118b49060203d6020116104b2576104a48183611f34565b919061186f565b823b1561191457604051639a2edc4960e01b815260048101919091528515156024820152918290604490829084905af1801561074c576118fd575b8481611814565b9361190c816004949396611f34565b9390916118f6565b5080fd5b90506020813d602011611942575b8161193360209383611f34565b8101031261191457513861180d565b3d9150611926565b611963915060203d6020116104b2576104a48183611f34565b386117d8565b90508301353861178a565b600c87526000805160206126c6833981519152915083601f198116885b8181106119c95750106119af575b5050600182811b01600c5561179f565b840135600019600385901b60f8161c19169055388061199f565b87840135855560019094019360209384019387935001611991565b600c8652601f830160051c6000805160206126c6833981519152019060208410611a39575b601f0160051c6000805160206126c683398151915201905b818110611a2e5750611775565b868155600101611a21565b6000805160206126c68339815191529150611a09565b611a68915060203d6020116104b2576104a48183611f34565b38611460565b6040513d89823e3d90fd5b611a9391925060203d6020116104b2576104a48183611f34565b903861142b565b6040513d88823e3d90fd5b866101e6602492632aa0018f60e11b8352611ffd565b50600781116113f1565b634e487b7160e01b87526021600452602487fd5b50346102065780600319360112610206576020600754604051908152f35b5034610206578060031936011261020657611b10612058565b80f35b503461020657611b2236611fb4565b90336001600160a01b03831603611b3d57906109d191612623565b63334bd91960e11b8352600483fd5b5034610206576109d1611b5e36611fb4565b90611b7a6109c782600052600060205260016040600020015490565b6125aa565b503461020657806003193601126102065764212aaca2a960d91b81526020818152604080832033845290915281205460ff1615611c0f5760ff6009541660088110156101f257600181108015611c05575b6101cf57506009805460ff1916600317905560405160408160036000805160206127068339815191529352336020820152a180f35b5060028111611bd0565b63e2517d3f60e01b81523360045264212aaca2a960d91b602452604490fd5b503461020657806003193601126102065760ff6009541660088110156101f257806101cf5750600a54604051638da5cb5b60e01b815290602090829060049082906001600160a01b03165afa908115610436578291611d05575b506001600160a01b03163303611cf2576009805460ff1916600117905560405160408160016000805160206127068339815191529352336020820152a161ffff60015460101c164201804211611cde5760085580f35b634e487b7160e01b82526011600452602482fd5b6332b2baa360e01b815233600452602490fd5b611d1e915060203d6020116104b2576104a48183611f34565b38611c88565b5034610206578060031936011261020657604051908060065490611d4782611efa565b8085529160018116908115610a915750600114611d6e5761092684610a2081860382611f34565b600681527ff652222313e28459528d920b65115c16c04f3efc82aaedc97be59f3f377c0d3f939250905b808210611db157509091508101602001610a2082610a10565b919260018160209254838588010152019101909291611d98565b5034610206576020366003190112610206576020611df9600435600052600060205260016040600020015490565b604051908152f35b50346102065760203660031901126102065760043567ffffffffffffffff8111611914577f811f7cff0a3374ff67cccc3726035d34ba70410e0256818a891e4d6acc01d88e611e5761156c923690600401611ecc565b9290611e616122c3565b6040519182916020835233956020840191612018565b9050346119145760203660031901126119145760043563ffffffff60e01b81168091036115cd5760209250637965db0b60e01b8114908115611ebb575b5015158152f35b6301ffc9a760e01b14905038611eb4565b9181601f840112156104725782359167ffffffffffffffff8311610472576020838186019501011161047257565b90600182811c92168015611f2a575b6020831014611f1457565b634e487b7160e01b600052602260045260246000fd5b91607f1691611f09565b90601f8019910116810190811067ffffffffffffffff821117611f5657604052565b634e487b7160e01b600052604160045260246000fd5b60005b838110611f7f5750506000910152565b8181015183820152602001611f6f565b90602091611fa881518092818552858086019101611f6c565b601f01601f1916010190565b604090600319011261047257600435906024356001600160a01b03811681036104725790565b611ffa939260609215158252151560208201528160408201520190611f8f565b90565b60088110156101b957600452565b9060088210156101b95752565b908060209392818452848401376000828201840152601f01601f1916010190565b9081602091031261047257516001600160a01b03811681036104725790565b60095460405163368280fb60e11b8152906020908290600490829060081c6001600160a01b03165afa80156120cf576120ad916000916120b0575b5061209d816123b6565b506120a781612461565b50612505565b50565b6120c9915060203d6020116104b2576104a48183611f34565b38612093565b6040513d6000823e3d90fd5b156120e257565b60405162461bcd60e51b8152602060048201526007602482015266616c726561647960c81b6044820152606490fd5b604090611ffa9492151581528160208201520191612018565b81601f8201121561047257805167ffffffffffffffff8111611f56576040519261215e601f8301601f191660200185611f34565b8184526020828401011161047257611ffa9160208085019101611f6c565b9060208282031261047257815167ffffffffffffffff811161047257611ffa920161212a565b6020818303126104725780519067ffffffffffffffff8211610472570160a081830312610472576040519160a0830183811067ffffffffffffffff821117611f565760405281516001600160a01b0381168103610472578352602082015167ffffffffffffffff8111610472578161221b91840161212a565b602084015260408201519067ffffffffffffffff82116104725761224091830161212a565b604083015260608101519060ff82168203610472576080916060840152015161ffff8116810361047257608082015290565b9060648202918083046064149015171561228857565b634e487b7160e01b600052601160045260246000fd5b9190820391821161228857565b90816020910312610472575180151581036104725790565b3360009081527fa4b32b3ae8924550504810545e342d86b3b03f16ff631323d4ebf4cc3980a180602052604090205460ff16156122fc57565b63e2517d3f60e01b6000908152336004526526a2a6a122a960d11b602452604490fd5b3360009081527f30a69ec7383cb7b4a4c5e4a9c938fd074ffcfcee74e2af18cff2f0a7edffd63b602052604090205460ff161561235857565b63e2517d3f60e01b6000908152336004526529a2a62622a960d11b602452604490fd5b60008181526020818152604080832033845290915290205460ff161561239e5750565b63e2517d3f60e01b6000523360045260245260446000fd5b6001600160a01b03811660009081527fa4b32b3ae8924550504810545e342d86b3b03f16ff631323d4ebf4cc3980a180602052604090205460ff1661245b576001600160a01b031660008181527fa4b32b3ae8924550504810545e342d86b3b03f16ff631323d4ebf4cc3980a18060205260408120805460ff191660011790553391906526a2a6a122a960d11b906000805160206126a68339815191529080a4600190565b50600090565b6001600160a01b03811660009081527f155d7623c69dbdcfdc7fbb2a33b1709e0cfdc6d3993bb0b64c3cb8d589d74de0602052604090205460ff1661245b576001600160a01b031660008181527f155d7623c69dbdcfdc7fbb2a33b1709e0cfdc6d3993bb0b64c3cb8d589d74de060205260408120805460ff1916600117905533919064212aaca2a960d91b906000805160206126a68339815191529080a4600190565b6001600160a01b03811660009081527f30a69ec7383cb7b4a4c5e4a9c938fd074ffcfcee74e2af18cff2f0a7edffd63b602052604090205460ff1661245b576001600160a01b031660008181527f30a69ec7383cb7b4a4c5e4a9c938fd074ffcfcee74e2af18cff2f0a7edffd63b60205260408120805460ff191660011790553391906529a2a62622a960d11b906000805160206126a68339815191529080a4600190565b6000818152602081815260408083206001600160a01b038616845290915290205460ff1661261c576000818152602081815260408083206001600160a01b0395909516808452949091528120805460ff19166001179055339291906000805160206126a68339815191529080a4600190565b5050600090565b6000818152602081815260408083206001600160a01b038616845290915290205460ff161561261c576000818152602081815260408083206001600160a01b0395909516808452949091528120805460ff19169055339291907ff6391f5c32d9c69d2a47ea670b442974b53935d1edc7fd64eb21e047a839171b9080a460019056fe2f8788117e7eff1d82e926ec794901d17c78024a50270940304540a733656f0ddf6966c971051c3d54ec59162606531493a51404a002842f56009d7e5cf4a8c7bb7b4a454dc3493923482f07822329ed19e8244eff582cc204f8554c3620c3fd483872b61d8baa4123ce48bdbfc11cc824c853d9848d59d558aa153040074915a264697066735822122084b0276e5e18f57e313b0448b7b9d40cc175d04a95c4c97f18b8cd790723f4e964736f6c634300081a00332f8788117e7eff1d82e926ec794901d17c78024a50270940304540a733656f0d155d7623c69dbdcfdc7fbb2a33b1709e0cfdc6d3993bb0b64c3cb8d589d74de030a69ec7383cb7b4a4c5e4a9c938fd074ffcfcee74e2af18cff2f0a7edffd63ba4b32b3ae8924550504810545e342d86b3b03f16ff631323d4ebf4cc3980a1809016d09d72d40fdae2fd8ceac6b6234c7706214fd39c1cd1e609a0528c199300360894a13ba1a3210667c828492db98dca3e2076cc3735a920a3ca505d382bbcf0c57e16840df040f15088dc2f81fe391c3923bec73e23a9662efc9c229c6a00a2646970667358221220519b9b3c9b74cec72548eea9812fb774598d9189c22c367c9406593964d1e75164736f6c634300081a0033",
  "linkReferences": {},
  "deployedLinkReferences": {}
}