{
  "_format": "hh3-artifact-1",
  "contractName": "DealFactory",
  "sourceName": "evm/protocol/DealFactory.sol",
  "abi": [
    {
      "inputs": [
        {
          "internalType": "address",
          "name": "target",
          "type": "address"
        }
      ],
      "name": "AddressEmptyCode",
      "type": "error"
    },
    {
      "inputs": [
        {
          "internalType": "address",
          "name": "implementation",
          "type": "address"
        }
      ],
      "name": "ERC1967InvalidImplementation",
      "type": "error"
    },
    {
      "inputs": [],
      "name": "ERC1967NonPayable",
      "type": "error"
    },
    {
      "inputs": [],
      "name": "FailedCall",
      "type": "error"
    },
    {
      "inputs": [],
      "name": "InvalidInitialization",
      "type": "error"
    },
    {
      "inputs": [],
      "name": "NotInitializing",
      "type": "error"
    },
    {
      "inputs": [
        {
          "internalType": "address",
          "name": "owner",
          "type": "address"
        }
      ],
      "name": "OwnableInvalidOwner",
      "type": "error"
    },
    {
      "inputs": [
        {
          "internalType": "address",
          "name": "account",
          "type": "address"
        }
      ],
      "name": "OwnableUnauthorizedAccount",
      "type": "error"
    },
    {
      "inputs": [],
      "name": "UUPSUnauthorizedCallContext",
      "type": "error"
    },
    {
      "inputs": [
        {
          "internalType": "bytes32",
          "name": "slot",
          "type": "bytes32"
        }
      ],
      "name": "UUPSUnsupportedProxiableUUID",
      "type": "error"
    },
    {
      "inputs": [
        {
          "internalType": "address",
          "name": "account",
          "type": "address"
        }
      ],
      "name": "UnauthorizedAccount",
      "type": "error"
    },
    {
      "anonymous": false,
      "inputs": [
        {
          "indexed": false,
          "internalType": "uint64",
          "name": "version",
          "type": "uint64"
        }
      ],
      "name": "Initialized",
      "type": "event"
    },
    {
      "anonymous": false,
      "inputs": [
        {
          "indexed": true,
          "internalType": "address",
          "name": "previousOwner",
          "type": "address"
        },
        {
          "indexed": true,
          "internalType": "address",
          "name": "newOwner",
          "type": "address"
        }
      ],
      "name": "OwnershipTransferred",
      "type": "event"
    },
    {
      "anonymous": false,
      "inputs": [
        {
          "indexed": true,
          "internalType": "address",
          "name": "implementation",
          "type": "address"
        }
      ],
      "name": "Upgraded",
      "type": "event"
    },
    {
      "inputs": [],
      "name": "UPGRADE_INTERFACE_VERSION",
      "outputs": [
        {
          "internalType": "string",
          "name": "",
          "type": "string"
        }
      ],
      "stateMutability": "view",
      "type": "function"
    },
    {
      "inputs": [
        {
          "internalType": "address",
          "name": "offer_",
          "type": "address"
        },
        {
          "internalType": "uint256",
          "name": "fiatAmount_",
          "type": "uint256"
        },
        {
          "internalType": "string",
          "name": "paymentInstructions_",
          "type": "string"
        }
      ],
      "name": "create",
      "outputs": [],
      "stateMutability": "nonpayable",
      "type": "function"
    },
    {
      "inputs": [
        {
          "internalType": "address",
          "name": "market_",
          "type": "address"
        }
      ],
      "name": "initialize",
      "outputs": [],
      "stateMutability": "nonpayable",
      "type": "function"
    },
    {
      "inputs": [],
      "name": "market",
      "outputs": [
        {
          "internalType": "contract Market",
          "name": "",
          "type": "address"
        }
      ],
      "stateMutability": "view",
      "type": "function"
    },
    {
      "inputs": [],
      "name": "owner",
      "outputs": [
        {
          "internalType": "address",
          "name": "",
          "type": "address"
        }
      ],
      "stateMutability": "view",
      "type": "function"
    },
    {
      "inputs": [],
      "name": "proxiableUUID",
      "outputs": [
        {
          "internalType": "bytes32",
          "name": "",
          "type": "bytes32"
        }
      ],
      "stateMutability": "view",
      "type": "function"
    },
    {
      "inputs": [],
      "name": "renounceOwnership",
      "outputs": [],
      "stateMutability": "nonpayable",
      "type": "function"
    },
    {
      "inputs": [
        {
          "internalType": "address",
          "name": "newOwner",
          "type": "address"
        }
      ],
      "name": "transferOwnership",
      "outputs": [],
      "stateMutability": "nonpayable",
      "type": "function"
    },
    {
      "inputs": [
        {
          "internalType": "address",
          "name": "newImplementation",
          "type": "address"
        },
        {
          "internalType": "bytes",
          "name": "data",
          "type": "bytes"
        }
      ],
      "name": "upgradeToAndCall",
      "outputs": [],
      "stateMutability": "payable",
      "type": "function"
    }
  ],
  "bytecode": "0x60a0806040523460295730608052613ce3908161002e823960805181818161078b015261082e0152f35b5f80fdfe60806040526004361015610011575f80fd5b5f803560e01c80634f1ef286146107df57806352d1902d1461077957806369fc551a1461032a578063715018a6146102c157806380f556051461029a5780638da5cb5b14610265578063ad3cb1cc14610218578063c4d66de8146100ac5763f2fde38b1461007d575f80fd5b346100a95760203660031901126100a9576100a66100996109e5565b6100a1610b7f565b610b0e565b80f35b80fd5b50346100a95760203660031901126100a9576100c66109e5565b5f80516020613c8e833981519152549060ff8260401c16159167ffffffffffffffff811680159081610210575b6001149081610206575b1590816101fd575b506101ee5767ffffffffffffffff1981166001175f80516020613c8e83398151915255826101c2575b50610137610bb2565b61013f610bb2565b61014833610b0e565b82546001600160a01b0319166001600160a01b039190911617825561016a5780f35b68ff0000000000000000195f80516020613c8e83398151915254165f80516020613c8e833981519152557fc7f505b2f371ae2175ee4913f4499e1f2633a7b5936321eed1cdaeb6115181d2602060405160018152a180f35b68ffffffffffffffffff191668010000000000000001175f80516020613c8e833981519152555f61012e565b63f92ee8a960e01b8452600484fd5b9050155f610105565b303b1591506100fd565b8491506100f3565b50346100a957806003193601126100a9575061026160405161023b6040826109fb565b60058152640352e302e360dc1b6020820152604051918291602083526020830190610a6f565b0390f35b50346100a957806003193601126100a9575f80516020613c4e833981519152546040516001600160a01b039091168152602090f35b50346100a957806003193601126100a957546040516001600160a01b039091168152602090f35b50346100a957806003193601126100a9576102da610b7f565b5f80516020613c4e83398151915280546001600160a01b0319811690915581906001600160a01b03167f8be0079c531659141344cd1fd0a4f28419497f9722a3daafe3b4186f6b6457e08280a380f35b50346105ac5760603660031901126105ac576103446109e5565b6024359060443567ffffffffffffffff81116105ac57366023820112156105ac57610379903690602481600401359101610a39565b5f54604051631336e5fb60e31b81526001600160a01b0393841660048201819052939091169190602081602481865afa9081156105a1575f9161075a575b501561072a57604051638da5cb5b60e01b8152602081600481875afa9081156105a1575f916106e8575b506001600160a01b031633146106d55760405163ee07080560e01b8152602081600481875afa9081156105a1575f916106a6575b506106765760405163052876e560e51b8152935f85600481875afa9485156105a1575f9561065a575b50604051637e062a3560e11b8152945f86600481885afa9586156105a1575f96610636575b50604051631627391760e11b8152602081600481895afa9081156105a1575f916105f8575b506020916104bf9161ffff6104d16040519a8b9586956320e1220560e11b8752896004880152608060248801526084870190610a6f565b85810360031901604487015290610a6f565b911660648301520381865afa9485156105a1575f956105c4575b5060405194613012918287019187831067ffffffffffffffff8411176105b057879661053d9660c095610c3c8a3984526020840152336040840152606083015260808201528160a08201520190610a6f565b03905ff080156105a1575f546001600160a01b031690813b156105ac57604051630978ae4560e31b81526001600160a01b039091166004820152905f908290602490829084905af180156105a157610593575080f35b61059f91505f906109fb565b005b6040513d5f823e3d90fd5b5f80fd5b634e487b7160e01b5f52604160045260245ffd5b9094506020813d6020116105f0575b816105e0602093836109fb565b810103126105ac5751935f6104eb565b3d91506105d3565b90506020813d60201161062e575b81610613602093836109fb565b810103126105ac575161ffff811681036105ac576020610488565b3d9150610606565b6106539196503d805f833e61064b81836109fb565b810190610aab565b945f610463565b61066f9195503d805f833e61064b81836109fb565b935f61043e565b60405162461bcd60e51b8152602060048201526008602482015267191a5cd8589b195960c21b6044820152606490fd5b6106c8915060203d6020116106ce575b6106c081836109fb565b810190610a93565b5f610415565b503d6106b6565b6332b2baa360e01b5f523360045260245ffd5b90506020813d602011610722575b81610703602093836109fb565b810103126105ac57516001600160a01b03811681036105ac575f6103e1565b3d91506106f6565b60405162461bcd60e51b815260206004820152600860248201526737379037b33332b960c11b6044820152606490fd5b610773915060203d6020116106ce576106c081836109fb565b5f6103b7565b346105ac575f3660031901126105ac577f00000000000000000000000000000000000000000000000000000000000000006001600160a01b031630036107d05760206040515f80516020613c6e8339815191528152f35b63703e46dd60e11b5f5260045ffd5b60403660031901126105ac576107f36109e5565b60243567ffffffffffffffff81116105ac57366023820112156105ac57610824903690602481600401359101610a39565b6001600160a01b037f0000000000000000000000000000000000000000000000000000000000000000163081149081156109c3575b506107d057610866610b7f565b6040516352d1902d60e01b81526001600160a01b0383169290602081600481875afa5f918161098f575b506108a85783634c9c8ce360e01b5f5260045260245ffd5b805f80516020613c6e83398151915285920361097d5750813b1561096b575f80516020613c6e83398151915280546001600160a01b031916821790557fbc7cd75a20ee27fd9adebab32041f755214dbc6bffa90cc0225b39da2e5c2d3b5f80a2815115610953575f8083602061059f95519101845af43d1561094b573d9161092f83610a1d565b9261093d60405194856109fb565b83523d5f602085013e610bdd565b606091610bdd565b50503461095c57005b63b398979f60e01b5f5260045ffd5b634c9c8ce360e01b5f5260045260245ffd5b632a87526960e21b5f5260045260245ffd5b9091506020813d6020116109bb575b816109ab602093836109fb565b810103126105ac57519085610890565b3d915061099e565b5f80516020613c6e833981519152546001600160a01b03161415905083610859565b600435906001600160a01b03821682036105ac57565b90601f8019910116810190811067ffffffffffffffff8211176105b057604052565b67ffffffffffffffff81116105b057601f01601f191660200190565b929192610a4582610a1d565b91610a5360405193846109fb565b8294818452818301116105ac578281602093845f960137010152565b805180835260209291819084018484015e5f828201840152601f01601f1916010190565b908160209103126105ac575180151581036105ac5790565b6020818303126105ac5780519067ffffffffffffffff82116105ac570181601f820112156105ac57805190610adf82610a1d565b92610aed60405194856109fb565b828452602083830101116105ac57815f9260208093018386015e8301015290565b6001600160a01b03168015610b6c575f80516020613c4e83398151915280546001600160a01b0319811683179091556001600160a01b03167f8be0079c531659141344cd1fd0a4f28419497f9722a3daafe3b4186f6b6457e05f80a3565b631e4fbdf760e01b5f525f60045260245ffd5b5f80516020613c4e833981519152546001600160a01b03163303610b9f57565b63118cdaa760e01b5f523360045260245ffd5b60ff5f80516020613c8e8339815191525460401c1615610bce57565b631afcd79f60e31b5f5260045ffd5b90610c015750805115610bf257602081519101fd5b63d6bda27560e01b5f5260045ffd5b81511580610c32575b610c12575090565b639996b31560e01b5f9081526001600160a01b0391909116600452602490fd5b50803b15610c0a56fe6080806040523461045f57613012803803809161001c82856106a8565b8339810160c08282031261045f57610033826106cb565b91610040602082016106cb565b61004c604083016106cb565b9260608301519160808401519360a08101519260018060401b03841161045f5760049361007992016106df565b6001805463ffffffff1916630e100384179055600980546001600160a81b03191660089890981b610100600160a81b031697909717909655600a80546001600160a01b03199081166001600160a01b03938416908117909255835416918616918217835560405163062b864360e11b81529195919260209184919082905afa8015610463575f9061066a575b60049250156105dc57610117816107b5565b50600a54604051638da5cb5b60e01b81529260209184919082906001600160a01b03165afa918215610463575f9261059c575b50610156600492610734565b505b600a54604051638da5cb5b60e01b81529260209184919082906001600160a01b03165afa918215610463575f9261055b575b5061019761019d92610830565b50610830565b5060035560055581516001600160401b03811161040c57600654600181811c91168015610551575b60208210146103ee57601f81116104ee575b50602092601f821160011461048d57928192935f92610482575b50508160011b915f199060031b1c1916176006555b61ffff60015416420180421161046e576007556212750042019081421161046e576004916008555f60018060a01b03600a54166040519384809263d502562560e01b82525afa918215610463575f92610420575b5081516001600160401b03811161040c57600254600181811c91168015610402575b60208210146103ee57601f811161038b575b50602092601f821160011461032a57928192935f9261031f575b50508160011b915f199060031b1c1916176002555b60ff60095416604051600882101561030b577f483872b61d8baa4123ce48bdbfc11cc824c853d9848d59d558aa1530400749159260409282526020820152a16040516126e590816108ad8239f35b634e487b7160e01b5f52602160045260245ffd5b015190505f806102a8565b601f1982169360025f52805f20915f5b868110610373575083600195961061035b575b505050811b016002556102bd565b01515f1960f88460031b161c191690555f808061034d565b9192602060018192868501518155019401920161033a565b60025f527f405787fa12a823e0f2b7631cc41b3ba8828b3321ca811111fa75cd3aa3bb5ace601f830160051c810191602084106103e4575b601f0160051c01905b8181106103d9575061028e565b5f81556001016103cc565b90915081906103c3565b634e487b7160e01b5f52602260045260245ffd5b90607f169061027c565b634e487b7160e01b5f52604160045260245ffd5b9091503d805f833e61043281836106a8565b810160208282031261045f5781516001600160401b03811161045f5761045892016106df565b905f61025a565b5f80fd5b6040513d5f823e3d90fd5b634e487b7160e01b5f52601160045260245ffd5b015190505f806101f1565b601f1982169360065f52805f20915f5b8681106104d657508360019596106104be575b505050811b01600655610206565b01515f1960f88460031b161c191690555f80806104b0565b9192602060018192868501518155019401920161049d565b60065f527ff652222313e28459528d920b65115c16c04f3efc82aaedc97be59f3f377c0d3f601f830160051c81019160208410610547575b601f0160051c01905b81811061053c57506101d7565b5f815560010161052f565b9091508190610526565b90607f16906101c5565b91506020823d602011610594575b81610576602093836106a8565b8101031261045f5761019761058d61019d936106cb565b925061018a565b3d9150610569565b91506020823d6020116105d4575b816105b7602093836106a8565b8101031261045f576101566105cd6004936106cb565b925061014a565b3d91506105aa565b6105e581610734565b50600a54604051638da5cb5b60e01b81529260209184919082906001600160a01b03165afa918215610463575f9261062a575b506106246004926107b5565b50610158565b91506020823d602011610662575b81610645602093836106a8565b8101031261045f5761062461065b6004936106cb565b9250610618565b3d9150610638565b50906020813d6020116106a0575b81610685602093836106a8565b8101031261045f575190811515820361045f57600491610105565b3d9150610678565b601f909101601f19168101906001600160401b0382119082101761040c57604052565b51906001600160a01b038216820361045f57565b81601f8201121561045f578051906001600160401b03821161040c5760405192610713601f8401601f1916602001856106a8565b8284526020838301011161045f57815f9260208093018386015e8301015290565b6001600160a01b0381165f9081525f80516020612fd2833981519152602052604090205460ff166107b0576001600160a01b03165f8181525f80516020612fd283398151915260205260408120805460ff191660011790553391906529a2a62622a960d11b905f80516020612f928339815191529080a4600190565b505f90565b6001600160a01b0381165f9081525f80516020612fb2833981519152602052604090205460ff166107b0576001600160a01b03165f8181525f80516020612fb283398151915260205260408120805460ff1916600117905533919064212aaca2a960d91b905f80516020612f928339815191529080a4600190565b6001600160a01b0381165f9081525f80516020612ff2833981519152602052604090205460ff166107b0576001600160a01b03165f8181525f80516020612ff283398151915260205260408120805460ff191660011790553391906526a2a6a122a960d11b905f80516020612f928339815191529080a460019056fe6080806040526004361015610012575f80fd5b5f905f3560e01c90816301ffc9a714611e765750806305c766d114611dfc578063248a9ca314611dca578063267a729c14611d005780632852b71c14611c0e578063295b4e1714611b515780632f2ff15d14611b2257806336568abe14611aec5780636255dc1a14611ad257806363660a5c14611ab557806370ea2dcd1461137c578063782b36021461135357806385aa24521461133557806386d1a69f14610ce057806391d1485414610ca4578063a217fddf14610c88578063a3a68fda14610bf1578063b60d428814610b15578063b8efac3d14610af7578063c028df0614610ace578063c19d93fb14610aa6578063d5025625146109c3578063d547741f1461098a578063de643c4a146108b3578063ea8a1af014610221578063eec7faa1146102035763f240f7c314610147575f80fd5b3461020057806003193601126102005761015f612264565b60ff6009541660088110156101ec576001811080156101e2575b6101c95750610186612018565b6009805460ff1916600417905560405160408160045f805160206126908339815191529352336020820152a180f35b634e487b7160e01b5f52602160045260245ffd5b632aa0018f60e11b8252602491906101e090611fbe565bfd5b5060038111610179565b634e487b7160e01b82526021600452602482fd5b80fd5b50346102005780600319360112610200576020600354604051908152f35b503461020057806003193601126102005761023a612264565b60095460ff811690600882101561089f576006821161088957811580610875575b8061086a575b610839578291600181108015610803575b80156107b1575b8015610786575b1561077057600a54604051637e062a3560e11b81526001600160a01b039091169285908183600481885afa90811561042f576102e193839261074c575b50604051808095819463128d5a1d60e31b8352602060048401526024830190611f51565b039160081c6001600160a01b03165afa90811561074157859161071f575b50516001600160a01b03169261070b57600214610517575b50506009549060ff82169160088310156101ec57819215806104b1575b61036a575b50506009805460ff1916600517905560405160408160055f805160206126908339815191529352336020820152a180f35b604051630a40d29760e21b8152906020908290600490829060081c6001600160a01b03165afa90811561042f578291610482575b50604051634814f03560e01b81523360048201526001600160a01b039190911690602081602481855afa90811561047757839161043e575b50806103e3575b50610339565b813b1561043a57829160248392604051948593849263b58db50f60e01b845260048401525af1801561042f5761041a575b806103dd565b8161042491611f2f565b61020057805f610414565b6040513d84823e3d90fd5b5050fd5b9250506020823d60201161046f575b8161045a60209383611f2f565b8101031261046b578291515f6103d6565b5f80fd5b3d915061044d565b6040513d85823e3d90fd5b6104a4915060203d6020116104aa575b61049c8183611f2f565b810190611ff9565b5f61039e565b503d610492565b50600a54604051638da5cb5b60e01b815290602090829060049082906001600160a01b03165afa9081156104775783916104f8575b506001600160a01b0316331415610334565b610511915060203d6020116104aa5761049c8183611f2f565b5f6104e6565b6004546529a2a62622a960d11b8452602084815260408086206001600160a01b039093165f9081529290915290205460ff16156105cf57506004805460035460405163a9059cbb60e01b81526001600160a01b03909216928201929092526024810191909152906020908290604490829086905af1801561042f576105a0575b505b5f80610317565b6105c19060203d6020116105c8575b6105b98183611f2f565b81019061224c565b505f610597565b503d6105af565b604051638da5cb5b60e01b8152602081600481855afa9081156107005784916106e1575b506529a2a62622a960d11b845283602052604084209060018060a01b03165f5260205260ff60405f20541661062a575b5050610599565b602060049160405192838092638da5cb5b60e01b82525afa80156104775761068e9260209285926106c2575b5060035460405163a9059cbb60e01b81526001600160a01b039093166004840152602483015290928391908290869082906044820190565b03925af1801561042f576106a3575b80610623565b6106bb9060203d6020116105c8576105b98183611f2f565b505f61069d565b6106da919250833d85116104aa5761049c8183611f2f565b905f610656565b6106fa915060203d6020116104aa5761049c8183611f2f565b5f6105f3565b6040513d86823e3d90fd5b634e487b7160e01b84526021600452602484fd5b61073b91503d8087833e6107338183611f2f565b810190612159565b5f6102ff565b6040513d87823e3d90fd5b6107699192503d8085833e6107618183611f2f565b810190612133565b905f6102bd565b836101e0602492632aa0018f60e11b8352611fbe565b506726a2a224a0aa27a960c11b845260208481526040808620335f908152925290205460ff16610280565b506529a2a62622a960d11b845260208481526040808620335f908152925290205460ff1683816107e2575b50610279565b905061070b5760038110806107f8575b836107dc565b5060085442116107f2565b5064212aaca2a960d91b845260208481526040808620335f908152925290205460ff168015610272575083925060058110610272565b60405162461bcd60e51b8152602060048201526009602482015268746f6f206561726c7960b81b6044820152606490fd5b506007544210610261565b506004546001600160a01b0316331461025b565b632aa0018f60e11b83526024836101e084611fbe565b634e487b7160e01b83526021600452602483fd5b5034610200578060031936011261020057600b54604051918281600c54926108da84611ef7565b8084529360018116908115610968575060011461091c575b506108ff92500383611f2f565b610918604051928260ff80869560081c16911684611f9b565b0390f35b600c8152919290505f805160206126508339815191525b81831061094c5750509060206108ff928201015f6108f2565b6020919350806001915483858901015201910190918492610933565b9050602092506108ff94915060ff191682840152151560051b8201015f6108f2565b5034610200576109bf61099c36611f75565b906109ba6109b5825f525f602052600160405f20015490565b612318565b6125af565b5080f35b50346102005780600319360112610200576040519080600254906109e682611ef7565b8085529160018116908115610a7f5750600114610a22575b61091884610a0e81860382611f2f565b604051918291602083526020830190611f51565b600281527f405787fa12a823e0f2b7631cc41b3ba8828b3321ca811111fa75cd3aa3bb5ace939250905b808210610a6557509091508101602001610a0e826109fe565b919260018160209254838588010152019101909291610a4c565b60ff191660208087019190915292151560051b85019092019250610a0e91508390506109fe565b5034610200578060031936011261020057602060ff60095416610acc6040518092611fcc565bf35b5034610200578060031936011261020057600a546040516001600160a01b039091168152602090f35b50346102005780600319360112610200576020600854604051908152f35b5034610200578060031936011261020057610b2e6122be565b6009549060ff82169160088310156101ec57600183108015610be7575b610bd057819060081c6001600160a01b0316803b15610bcd5781809160046040518094819363317cad0560e21b83525af1801561042f57610bb8575b50506009805460ff1916600217905560405160408160025f805160206126908339815191529352336020820152a180f35b81610bc291611f2f565b610200578082610b87565b50fd5b50632aa0018f60e11b81526024916101e090611fbe565b5060018311610b4b565b5034610200578060031936011261020057600d54604051918281600e5492610c1884611ef7565b80845293600181169081156109685750600114610c3c57506108ff92500383611f2f565b600e8152919290505f805160206126708339815191525b818310610c6c5750509060206108ff928201015f6108f2565b6020919350806001915483858901015201910190918492610c53565b5034610200578060031936011261020057602090604051908152f35b5034610200576040610cb536611f75565b9290815280602052209060018060a01b03165f52602052602060ff60405f2054166040519015158152f35b5034610200578060031936011261020057610cf96122be565b60095460ff8116600881101561089f5760028110801561132b575b6113155750600a54604051637e062a3560e11b81526001600160a01b039091169183908183600481875afa90811561042f57610d7493839261074c5750604051808095819463128d5a1d60e31b8352602060048401526024830190611f51565b039160081c6001600160a01b03165afa9081156104775783916112fb575b505160045464212aaca2a960d91b8452602084815260408086206001600160a01b039384165f90815292529020549116919060ff16156111c15750610e24602060018060a01b0360045416610df6600354612710610def82612229565b049061223f565b60405163a9059cbb60e01b81526001600160a01b039092166004830152602482015291829081906044820190565b038186865af18015610477576111a2575b505b60095460405163368280fb60e11b8152906020908290600490829060081c6001600160a01b03165afa908115610477578391611183575b506040516370a0823160e01b815230600482015290602082602481865afa91821561070057849261114d575b5060405163a9059cbb60e01b81526001600160a01b0390911660048201526024810191909152906020908290818581604481015b03925af1801561042f57611130575b506009805460ff1916600717905560405160408160075f805160206126908339815191529352336020820152a1600954604051630a40d29760e21b815282916020908290600490829060081c6001600160a01b03165afa90811561042f578291611111575b50600a54604051638da5cb5b60e01b81526001600160a01b0392831692909160209183916004918391165afa9081156104775783916110f2575b50604051634814f03560e01b81526001600160a01b039091166004820152602081602481855afa9081156104775783916110bd575b5080611071575b5060018060a01b036004541660405190634814f03560e01b82526004820152602081602481855afa90811561047757839161103c575b5080610ff8575050f35b813b1561043a57829160248392604051948593849263b1241ce560e01b845260048401525af1801561042f5761102b5750f35b8161103591611f2f565b6102005780f35b9250506020823d602011611069575b8161105860209383611f2f565b8101031261046b578291515f610fee565b3d915061104b565b813b1561043a576040519063b1241ce560e01b82526004820152828160248183865af19081156104775783916110a8575b50610fb8565b816110b291611f2f565b610bcd57815f6110a2565b9250506020823d6020116110ea575b816110d960209383611f2f565b8101031261046b578291515f610fb1565b3d91506110cc565b61110b915060203d6020116104aa5761049c8183611f2f565b5f610f7c565b61112a915060203d6020116104aa5761049c8183611f2f565b5f610f42565b6111489060203d6020116105c8576105b98183611f2f565b610edd565b91506020823d60201161117b575b8161116860209383611f2f565b8101031261046b57905190610ece610e9a565b3d915061115b565b61119c915060203d6020116104aa5761049c8183611f2f565b5f610e6e565b6111ba9060203d6020116105c8576105b98183611f2f565b505f610e35565b604051638da5cb5b60e01b8152602081600481855afa9081156107005784916112dc575b5064212aaca2a960d91b8452602084815260408086206001600160a01b039093165f9081529290915290205460ff16156112ac57602060049160405192838092638da5cb5b60e01b82525afa9081156104775761125991602091859161128f575b50610df6600354612710610def82612229565b038186865af1801561047757611270575b50610e37565b6112889060203d6020116105c8576105b98183611f2f565b505f61126a565b6112a69150823d84116104aa5761049c8183611f2f565b5f611246565b60405162461bcd60e51b8152602060048201526008602482015267373790313abcb2b960c11b6044820152606490fd5b6112f5915060203d6020116104aa5761049c8183611f2f565b5f6111e5565b61130f91503d8085833e6107338183611f2f565b5f610d92565b826101e0602492632aa0018f60e11b8352611fbe565b5060058111610d14565b50346102005780600319360112610200576020600554604051908152f35b50346102005780600319360112610200576004546040516001600160a01b039091168152602090f35b503461046b57604036600319011261046b576004358015159081810361046b5760243567ffffffffffffffff811161046b576113bc903690600401611ec9565b9260095460ff811660088110156101b557600681108015611aab575b611a935750604051630a40d29760e21b815291906020908390600490829060081c6001600160a01b03165afa9182156118f6575f92611a72575b50600a54604051638da5cb5b60e01b815290602090829060049082906001600160a01b03165afa9081156118f6575f91611a53575b50336001600160a01b0391909116036116ee5760019061ff00600d549161147160ff84161561208e565b60081b169061ffff19161717600d5567ffffffffffffffff84116116da57849061149c600e54611ef7565b601f811161166a575b508482601f82116001146115f95783916115ee575b508560011b905f198760031b1c191617600e555b60048054604051634814f03560e01b81526001600160a01b0391821692810192909252909116602082602481845afa9182156104775783926115b7575b5081611558575b5050507f514f3189a205d863ff2592c318f6332fe754ed0f49672ec61ce3a48c3cc10dd69161155260018060a01b036004541694604051938493846120c4565b0390a280f35b803b156115b357604051639a2edc4960e01b81526004810192909252841515602483015282908290604490829084905af1801561042f5761159a575b80611512565b816115a491611f2f565b6115af57835f611594565b8380fd5b8280fd5b925090506020823d6020116115e6575b816115d460209383611f2f565b8101031261046b57859151905f61150b565b3d91506115c7565b90508301355f6114ba565b600e84525f80516020612670833981519152915086601f198116855b81811061164c575010611633575b5050600185811b01600e556114ce565b8401355f19600388901b60f8161c191690555f80611623565b8784013585558a96506001909401936020938401938a935001611615565b9091600e9052601f850160051c5f805160206126708339815191520190602086106116c5575b90601f8793920160051c5f8051602061267083398151915201905b8181106116b857506114a5565b92835586926001016116ab565b5f805160206126708339815191529150611690565b634e487b7160e01b85526041600452602485fd5b600454939492936001600160a01b0316331461170d575b505050505080f35b60019061ff00600b549161172460ff84161561208e565b60081b169061ffff19161717600b5567ffffffffffffffff8211611a3f5761174d600c54611ef7565b601f81116119d7575b505f9082601f8111600114611961576004925f91611956575b508360011b905f198560031b1c191617600c555b600a54604051638da5cb5b60e01b8152926001600160a01b03928316926020928592918391165afa9182156118f6575f92611935575b50604051634814f03560e01b81526001600160a01b039092166004830152602082602481845afa9182156118f6575f92611901575b508161189b575b5050600a54604051638da5cb5b60e01b8152929190602090849060049082906001600160a01b03165afa908115610741577f514f3189a205d863ff2592c318f6332fe754ed0f49672ec61ce3a48c3cc10dd6938692611876575b506118699060405193849360018060a01b031696846120c4565b0390a25f80808080611705565b6118699192506118949060203d6020116104aa5761049c8183611f2f565b919061184f565b803b1561046b57604051639a2edc4960e01b8152600481019290925284151560248301525f908290604490829084905af180156118f6576118dd575b806117f5565b6004929194505f6118ed91611f2f565b5f9390916118d7565b6040513d5f823e3d90fd5b9091506020813d60201161192d575b8161191d60209383611f2f565b8101031261046b5751905f6117ee565b3d9150611910565b61194f91925060203d6020116104aa5761049c8183611f2f565b905f6117b9565b90508401355f61176f565b50600c5f908152915f805160206126508339815191529084601f1981165b8086106119b95760049550106119a0575b5050600183811b01600c55611783565b8501355f19600386901b60f8161c191690555f80611990565b8783013584556020958601956001909401939092019186915061197f565b600c5f52601f830160051c5f80516020612650833981519152019060208410611a2a575b601f0160051c5f8051602061265083398151915201905b818110611a1f5750611756565b5f8155600101611a12565b5f8051602061265083398151915291506119fb565b634e487b7160e01b5f52604160045260245ffd5b611a6c915060203d6020116104aa5761049c8183611f2f565b5f611447565b611a8c91925060203d6020116104aa5761049c8183611f2f565b905f611412565b632aa0018f60e11b5f52611aa690611fbe565b60245ffd5b50600781116113d8565b3461046b575f36600319011261046b576020600754604051908152f35b3461046b575f36600319011261046b57611aea612018565b005b3461046b57611afa36611f75565b336001600160a01b03821603611b1357611aea916125af565b63334bd91960e11b5f5260045ffd5b3461046b57611aea611b3336611f75565b90611b4c6109b5825f525f602052600160405f20015490565b61253a565b3461046b575f36600319011261046b57335f9081527f155d7623c69dbdcfdc7fbb2a33b1709e0cfdc6d3993bb0b64c3cb8d589d74de0602052604090205460ff1615611bed5760ff6009541660088110156101b557600181108015611be3575b611a93576009805460ff1916600317905560405160408160035f805160206126908339815191529352336020820152a1005b5060028111611bb1565b63e2517d3f60e01b5f9081523360045264212aaca2a960d91b602452604490fd5b3461046b575f36600319011261046b5760ff6009541660088110156101b55780611a9357600a54604051638da5cb5b60e01b815290602090829060049082906001600160a01b03165afa9081156118f6575f91611ce1575b506001600160a01b03163303611cce576009805460ff1916600117905560405160408160015f805160206126908339815191529352336020820152a161ffff60015460101c164201804211611cba57600855005b634e487b7160e01b5f52601160045260245ffd5b6332b2baa360e01b5f523360045260245ffd5b611cfa915060203d6020116104aa5761049c8183611f2f565b81611c66565b3461046b575f36600319011261046b576040515f600654611d2081611ef7565b8084529060018116908115611da65750600114611d48575b61091883610a0e81850382611f2f565b60065f9081527ff652222313e28459528d920b65115c16c04f3efc82aaedc97be59f3f377c0d3f939250905b808210611d8c57509091508101602001610a0e611d38565b919260018160209254838588010152019101909291611d74565b60ff191660208086019190915291151560051b84019091019150610a0e9050611d38565b3461046b57602036600319011261046b576020611df46004355f525f602052600160405f20015490565b604051908152f35b3461046b57602036600319011261046b5760043567ffffffffffffffff811161046b577f811f7cff0a3374ff67cccc3726035d34ba70410e0256818a891e4d6acc01d88e611e51611e71923690600401611ec9565b9290611e5b612264565b6040519182916020835233956020840191611fd9565b0390a2005b3461046b57602036600319011261046b576004359063ffffffff60e01b821680920361046b57602091637965db0b60e01b8114908115611eb8575b5015158152f35b6301ffc9a760e01b14905083611eb1565b9181601f8401121561046b5782359167ffffffffffffffff831161046b576020838186019501011161046b57565b90600182811c92168015611f25575b6020831014611f1157565b634e487b7160e01b5f52602260045260245ffd5b91607f1691611f06565b90601f8019910116810190811067ffffffffffffffff821117611a3f57604052565b805180835260209291819084018484015e5f828201840152601f01601f1916010190565b604090600319011261046b57600435906024356001600160a01b038116810361046b5790565b611fbb939260609215158252151560208201528160408201520190611f51565b90565b60088110156101b557600452565b9060088210156101b55752565b908060209392818452848401375f828201840152601f01601f1916010190565b9081602091031261046b57516001600160a01b038116810361046b5790565b60095460405163368280fb60e11b8152906020908290600490829060081c6001600160a01b03165afa80156118f65761206c915f9161206f575b5061205c81612350565b50612066816123f7565b50612498565b50565b612088915060203d6020116104aa5761049c8183611f2f565b5f612052565b1561209557565b60405162461bcd60e51b8152602060048201526007602482015266616c726561647960c81b6044820152606490fd5b604090611fbb9492151581528160208201520191611fd9565b81601f8201121561046b5780519067ffffffffffffffff8211611a3f5760405192612112601f8401601f191660200185611f2f565b8284526020838301011161046b57815f9260208093018386015e8301015290565b9060208282031261046b57815167ffffffffffffffff811161046b57611fbb92016120dd565b60208183031261046b5780519067ffffffffffffffff821161046b570160a08183031261046b576040519160a0830183811067ffffffffffffffff821117611a3f5760405281516001600160a01b038116810361046b578352602082015167ffffffffffffffff811161046b57816121d29184016120dd565b602084015260408201519067ffffffffffffffff821161046b576121f79183016120dd565b604083015260608101519060ff8216820361046b576080916060840152015161ffff8116810361046b57608082015290565b90606482029180830460641490151715611cba57565b91908203918211611cba57565b9081602091031261046b5751801515810361046b5790565b335f9081527fa4b32b3ae8924550504810545e342d86b3b03f16ff631323d4ebf4cc3980a180602052604090205460ff161561229c57565b63e2517d3f60e01b5f908152336004526526a2a6a122a960d11b602452604490fd5b335f9081527f30a69ec7383cb7b4a4c5e4a9c938fd074ffcfcee74e2af18cff2f0a7edffd63b602052604090205460ff16156122f657565b63e2517d3f60e01b5f908152336004526529a2a62622a960d11b602452604490fd5b5f8181526020818152604080832033845290915290205460ff161561233a5750565b63e2517d3f60e01b5f523360045260245260445ffd5b6001600160a01b0381165f9081527fa4b32b3ae8924550504810545e342d86b3b03f16ff631323d4ebf4cc3980a180602052604090205460ff166123f2576001600160a01b03165f8181527fa4b32b3ae8924550504810545e342d86b3b03f16ff631323d4ebf4cc3980a18060205260408120805460ff191660011790553391906526a2a6a122a960d11b905f805160206126308339815191529080a4600190565b505f90565b6001600160a01b0381165f9081527f155d7623c69dbdcfdc7fbb2a33b1709e0cfdc6d3993bb0b64c3cb8d589d74de0602052604090205460ff166123f2576001600160a01b03165f8181527f155d7623c69dbdcfdc7fbb2a33b1709e0cfdc6d3993bb0b64c3cb8d589d74de060205260408120805460ff1916600117905533919064212aaca2a960d91b905f805160206126308339815191529080a4600190565b6001600160a01b0381165f9081527f30a69ec7383cb7b4a4c5e4a9c938fd074ffcfcee74e2af18cff2f0a7edffd63b602052604090205460ff166123f2576001600160a01b03165f8181527f30a69ec7383cb7b4a4c5e4a9c938fd074ffcfcee74e2af18cff2f0a7edffd63b60205260408120805460ff191660011790553391906529a2a62622a960d11b905f805160206126308339815191529080a4600190565b5f818152602081815260408083206001600160a01b038616845290915290205460ff166125a9575f818152602081815260408083206001600160a01b0395909516808452949091528120805460ff19166001179055339291905f805160206126308339815191529080a4600190565b50505f90565b5f818152602081815260408083206001600160a01b038616845290915290205460ff16156125a9575f818152602081815260408083206001600160a01b0395909516808452949091528120805460ff19169055339291907ff6391f5c32d9c69d2a47ea670b442974b53935d1edc7fd64eb21e047a839171b9080a460019056fe2f8788117e7eff1d82e926ec794901d17c78024a50270940304540a733656f0ddf6966c971051c3d54ec59162606531493a51404a002842f56009d7e5cf4a8c7bb7b4a454dc3493923482f07822329ed19e8244eff582cc204f8554c3620c3fd483872b61d8baa4123ce48bdbfc11cc824c853d9848d59d558aa153040074915a26469706673582212208969cf6ff877fc220adcbe3068978e453861a35d485742642685622cfb8703e764736f6c634300081a00332f8788117e7eff1d82e926ec794901d17c78024a50270940304540a733656f0d155d7623c69dbdcfdc7fbb2a33b1709e0cfdc6d3993bb0b64c3cb8d589d74de030a69ec7383cb7b4a4c5e4a9c938fd074ffcfcee74e2af18cff2f0a7edffd63ba4b32b3ae8924550504810545e342d86b3b03f16ff631323d4ebf4cc3980a1809016d09d72d40fdae2fd8ceac6b6234c7706214fd39c1cd1e609a0528c199300360894a13ba1a3210667c828492db98dca3e2076cc3735a920a3ca505d382bbcf0c57e16840df040f15088dc2f81fe391c3923bec73e23a9662efc9c229c6a00a2646970667358221220db1b4fc8bc5b9eab93f7999e83ffe891892751db7b975408549f03158751f84d64736f6c634300081a0033",
  "linkReferences": {},
  "deployedLinkReferences": {},
  "immutableReferences": {
    "3400": [
      {
        "length": 32,
        "start": 1931
      },
      {
        "length": 32,
        "start": 2094
      }
    ]
  },
  "inputSourceName": "project/evm/protocol/DealFactory.sol",
  "buildInfoId": "solc-0_8_26-1737df5eb94312cf2458bb21908a35a4528ad07d"
}