{
  "_format": "hh3-artifact-1",
  "contractName": "Market",
  "sourceName": "evm/protocol/Market.sol",
  "abi": [
    {
      "inputs": [
        {
          "internalType": "address",
          "name": "target",
          "type": "address"
        }
      ],
      "name": "AddressEmptyCode",
      "type": "error"
    },
    {
      "inputs": [
        {
          "internalType": "address",
          "name": "implementation",
          "type": "address"
        }
      ],
      "name": "ERC1967InvalidImplementation",
      "type": "error"
    },
    {
      "inputs": [],
      "name": "ERC1967NonPayable",
      "type": "error"
    },
    {
      "inputs": [],
      "name": "FailedCall",
      "type": "error"
    },
    {
      "inputs": [],
      "name": "FailedDeployment",
      "type": "error"
    },
    {
      "inputs": [
        {
          "internalType": "uint256",
          "name": "balance",
          "type": "uint256"
        },
        {
          "internalType": "uint256",
          "name": "needed",
          "type": "uint256"
        }
      ],
      "name": "InsufficientBalance",
      "type": "error"
    },
    {
      "inputs": [
        {
          "internalType": "bytes3",
          "name": "fiat",
          "type": "bytes3"
        }
      ],
      "name": "InvalidFiat",
      "type": "error"
    },
    {
      "inputs": [],
      "name": "InvalidInitialization",
      "type": "error"
    },
    {
      "inputs": [
        {
          "internalType": "bytes16",
          "name": "method",
          "type": "bytes16"
        }
      ],
      "name": "InvalidMethod",
      "type": "error"
    },
    {
      "inputs": [
        {
          "internalType": "bytes8",
          "name": "token",
          "type": "bytes8"
        }
      ],
      "name": "InvalidToken",
      "type": "error"
    },
    {
      "inputs": [],
      "name": "NotInitializing",
      "type": "error"
    },
    {
      "inputs": [
        {
          "internalType": "address",
          "name": "owner",
          "type": "address"
        }
      ],
      "name": "OwnableInvalidOwner",
      "type": "error"
    },
    {
      "inputs": [
        {
          "internalType": "address",
          "name": "account",
          "type": "address"
        }
      ],
      "name": "OwnableUnauthorizedAccount",
      "type": "error"
    },
    {
      "inputs": [
        {
          "internalType": "address",
          "name": "token",
          "type": "address"
        }
      ],
      "name": "SafeERC20FailedOperation",
      "type": "error"
    },
    {
      "inputs": [],
      "name": "UUPSUnauthorizedCallContext",
      "type": "error"
    },
    {
      "inputs": [
        {
          "internalType": "bytes32",
          "name": "slot",
          "type": "bytes32"
        }
      ],
      "name": "UUPSUnsupportedProxiableUUID",
      "type": "error"
    },
    {
      "inputs": [
        {
          "internalType": "address",
          "name": "account",
          "type": "address"
        }
      ],
      "name": "UnauthorizedAccount",
      "type": "error"
    },
    {
      "anonymous": false,
      "inputs": [
        {
          "indexed": true,
          "internalType": "address",
          "name": "offerOwner",
          "type": "address"
        },
        {
          "indexed": true,
          "internalType": "address",
          "name": "taker",
          "type": "address"
        },
        {
          "indexed": true,
          "internalType": "address",
          "name": "offer",
          "type": "address"
        },
        {
          "indexed": false,
          "internalType": "address",
          "name": "deal",
          "type": "address"
        },
        {
          "indexed": false,
          "internalType": "string",
          "name": "terms",
          "type": "string"
        },
        {
          "indexed": false,
          "internalType": "string",
          "name": "paymentInstructions",
          "type": "string"
        }
      ],
      "name": "DealCreated",
      "type": "event"
    },
    {
      "anonymous": false,
      "inputs": [
        {
          "indexed": false,
          "internalType": "uint64",
          "name": "version",
          "type": "uint64"
        }
      ],
      "name": "Initialized",
      "type": "event"
    },
    {
      "anonymous": false,
      "inputs": [
        {
          "indexed": true,
          "internalType": "address",
          "name": "owner",
          "type": "address"
        },
        {
          "indexed": true,
          "internalType": "bytes8",
          "name": "token",
          "type": "bytes8"
        },
        {
          "indexed": true,
          "internalType": "bytes3",
          "name": "fiat",
          "type": "bytes3"
        },
        {
          "indexed": false,
          "internalType": "contract Offer",
          "name": "offer",
          "type": "address"
        }
      ],
      "name": "OfferCreated",
      "type": "event"
    },
    {
      "anonymous": false,
      "inputs": [
        {
          "indexed": true,
          "internalType": "address",
          "name": "previousOwner",
          "type": "address"
        },
        {
          "indexed": true,
          "internalType": "address",
          "name": "newOwner",
          "type": "address"
        }
      ],
      "name": "OwnershipTransferred",
      "type": "event"
    },
    {
      "anonymous": false,
      "inputs": [
        {
          "indexed": true,
          "internalType": "address",
          "name": "implementation",
          "type": "address"
        }
      ],
      "name": "Upgraded",
      "type": "event"
    },
    {
      "inputs": [],
      "name": "UPGRADE_INTERFACE_VERSION",
      "outputs": [
        {
          "internalType": "string",
          "name": "",
          "type": "string"
        }
      ],
      "stateMutability": "view",
      "type": "function"
    },
    {
      "inputs": [
        {
          "internalType": "contract Deal",
          "name": "deal",
          "type": "address"
        },
        {
          "internalType": "string",
          "name": "terms",
          "type": "string"
        },
        {
          "internalType": "string",
          "name": "paymentInstructions",
          "type": "string"
        }
      ],
      "name": "addDeal",
      "outputs": [],
      "stateMutability": "nonpayable",
      "type": "function"
    },
    {
      "inputs": [
        {
          "components": [
            {
              "internalType": "bytes3",
              "name": "symbol",
              "type": "bytes3"
            },
            {
              "internalType": "contract IChainlink",
              "name": "toUSD",
              "type": "address"
            }
          ],
          "internalType": "struct Fiats.Fiat[]",
          "name": "fiats_",
          "type": "tuple[]"
        }
      ],
      "name": "addFiats",
      "outputs": [],
      "stateMutability": "nonpayable",
      "type": "function"
    },
    {
      "inputs": [
        {
          "internalType": "bytes16[]",
          "name": "names_",
          "type": "bytes16[]"
        },
        {
          "internalType": "enum Methods.Group[]",
          "name": "groups_",
          "type": "uint8[]"
        }
      ],
      "name": "addMethods",
      "outputs": [],
      "stateMutability": "nonpayable",
      "type": "function"
    },
    {
      "inputs": [
        {
          "internalType": "address[]",
          "name": "tokens_",
          "type": "address[]"
        },
        {
          "internalType": "uint16",
          "name": "uniswapPoolFee",
          "type": "uint16"
        }
      ],
      "name": "addTokens",
      "outputs": [],
      "stateMutability": "nonpayable",
      "type": "function"
    },
    {
      "inputs": [
        {
          "internalType": "uint256",
          "name": "amount_",
          "type": "uint256"
        },
        {
          "internalType": "bytes3",
          "name": "fromFiat_",
          "type": "bytes3"
        },
        {
          "internalType": "bytes8",
          "name": "toToken_",
          "type": "bytes8"
        },
        {
          "internalType": "uint256",
          "name": "denominator",
          "type": "uint256"
        }
      ],
      "name": "convert",
      "outputs": [
        {
          "internalType": "uint256",
          "name": "amount",
          "type": "uint256"
        }
      ],
      "stateMutability": "view",
      "type": "function"
    },
    {
      "inputs": [
        {
          "components": [
            {
              "internalType": "bool",
              "name": "isSell",
              "type": "bool"
            },
            {
              "internalType": "uint16",
              "name": "rate",
              "type": "uint16"
            },
            {
              "components": [
                {
                  "internalType": "uint32",
                  "name": "min",
                  "type": "uint32"
                },
                {
                  "internalType": "uint32",
                  "name": "max",
                  "type": "uint32"
                }
              ],
              "internalType": "struct Offer.Limits",
              "name": "limits",
              "type": "tuple"
            },
            {
              "internalType": "bytes8",
              "name": "token",
              "type": "bytes8"
            },
            {
              "internalType": "bytes3",
              "name": "fiat",
              "type": "bytes3"
            },
            {
              "internalType": "bytes16",
              "name": "method",
              "type": "bytes16"
            },
            {
              "internalType": "string",
              "name": "terms",
              "type": "string"
            }
          ],
          "internalType": "struct Offer.OfferParams",
          "name": "params",
          "type": "tuple"
        }
      ],
      "name": "createOffer",
      "outputs": [],
      "stateMutability": "nonpayable",
      "type": "function"
    },
    {
      "inputs": [],
      "name": "fee",
      "outputs": [
        {
          "internalType": "uint16",
          "name": "",
          "type": "uint16"
        }
      ],
      "stateMutability": "view",
      "type": "function"
    },
    {
      "inputs": [],
      "name": "feeCollector",
      "outputs": [
        {
          "internalType": "address",
          "name": "",
          "type": "address"
        }
      ],
      "stateMutability": "view",
      "type": "function"
    },
    {
      "inputs": [
        {
          "internalType": "bytes3",
          "name": "symbol_",
          "type": "bytes3"
        }
      ],
      "name": "fiat",
      "outputs": [
        {
          "internalType": "contract IChainlink",
          "name": "",
          "type": "address"
        }
      ],
      "stateMutability": "view",
      "type": "function"
    },
    {
      "inputs": [],
      "name": "finder",
      "outputs": [
        {
          "internalType": "contract FinderInterface",
          "name": "",
          "type": "address"
        }
      ],
      "stateMutability": "view",
      "type": "function"
    },
    {
      "inputs": [],
      "name": "fundDeal",
      "outputs": [],
      "stateMutability": "nonpayable",
      "type": "function"
    },
    {
      "inputs": [],
      "name": "getFiats",
      "outputs": [
        {
          "internalType": "bytes3[]",
          "name": "",
          "type": "bytes3[]"
        }
      ],
      "stateMutability": "view",
      "type": "function"
    },
    {
      "inputs": [],
      "name": "getMethods",
      "outputs": [
        {
          "internalType": "bytes16[]",
          "name": "",
          "type": "bytes16[]"
        }
      ],
      "stateMutability": "view",
      "type": "function"
    },
    {
      "inputs": [
        {
          "internalType": "bytes8",
          "name": "token_",
          "type": "bytes8"
        },
        {
          "internalType": "bytes3",
          "name": "fiat_",
          "type": "bytes3"
        }
      ],
      "name": "getPrice",
      "outputs": [
        {
          "internalType": "uint256",
          "name": "price",
          "type": "uint256"
        }
      ],
      "stateMutability": "view",
      "type": "function"
    },
    {
      "inputs": [],
      "name": "getTokens",
      "outputs": [
        {
          "internalType": "bytes8[]",
          "name": "",
          "type": "bytes8[]"
        }
      ],
      "stateMutability": "view",
      "type": "function"
    },
    {
      "inputs": [
        {
          "internalType": "address",
          "name": "offer_",
          "type": "address"
        }
      ],
      "name": "hasOffer",
      "outputs": [
        {
          "internalType": "bool",
          "name": "",
          "type": "bool"
        }
      ],
      "stateMutability": "view",
      "type": "function"
    },
    {
      "inputs": [
        {
          "internalType": "address",
          "name": "finder_",
          "type": "address"
        }
      ],
      "name": "initialize",
      "outputs": [],
      "stateMutability": "nonpayable",
      "type": "function"
    },
    {
      "inputs": [
        {
          "internalType": "bytes16",
          "name": "name_",
          "type": "bytes16"
        }
      ],
      "name": "method",
      "outputs": [
        {
          "components": [
            {
              "internalType": "bool",
              "name": "exists",
              "type": "bool"
            },
            {
              "internalType": "enum Methods.Group",
              "name": "group",
              "type": "uint8"
            }
          ],
          "internalType": "struct Methods.Method",
          "name": "",
          "type": "tuple"
        }
      ],
      "stateMutability": "view",
      "type": "function"
    },
    {
      "inputs": [],
      "name": "oracle",
      "outputs": [
        {
          "internalType": "address",
          "name": "",
          "type": "address"
        }
      ],
      "stateMutability": "view",
      "type": "function"
    },
    {
      "inputs": [],
      "name": "owner",
      "outputs": [
        {
          "internalType": "address",
          "name": "",
          "type": "address"
        }
      ],
      "stateMutability": "view",
      "type": "function"
    },
    {
      "inputs": [],
      "name": "profile",
      "outputs": [
        {
          "internalType": "contract Profile",
          "name": "",
          "type": "address"
        }
      ],
      "stateMutability": "view",
      "type": "function"
    },
    {
      "inputs": [],
      "name": "proxiableUUID",
      "outputs": [
        {
          "internalType": "bytes32",
          "name": "",
          "type": "bytes32"
        }
      ],
      "stateMutability": "view",
      "type": "function"
    },
    {
      "inputs": [
        {
          "internalType": "bytes3[]",
          "name": "fiat_",
          "type": "bytes3[]"
        }
      ],
      "name": "removeFiats",
      "outputs": [],
      "stateMutability": "nonpayable",
      "type": "function"
    },
    {
      "inputs": [
        {
          "internalType": "bytes16[]",
          "name": "names_",
          "type": "bytes16[]"
        }
      ],
      "name": "removeMethods",
      "outputs": [],
      "stateMutability": "nonpayable",
      "type": "function"
    },
    {
      "inputs": [
        {
          "internalType": "bytes8[]",
          "name": "token_",
          "type": "bytes8[]"
        }
      ],
      "name": "removeTokens",
      "outputs": [],
      "stateMutability": "nonpayable",
      "type": "function"
    },
    {
      "inputs": [],
      "name": "renounceOwnership",
      "outputs": [],
      "stateMutability": "nonpayable",
      "type": "function"
    },
    {
      "inputs": [
        {
          "internalType": "uint16",
          "name": "fee_",
          "type": "uint16"
        }
      ],
      "name": "setFee",
      "outputs": [],
      "stateMutability": "nonpayable",
      "type": "function"
    },
    {
      "inputs": [
        {
          "internalType": "bytes8",
          "name": "symbol_",
          "type": "bytes8"
        }
      ],
      "name": "token",
      "outputs": [
        {
          "components": [
            {
              "internalType": "contract IERC20Metadata",
              "name": "api",
              "type": "address"
            },
            {
              "internalType": "uint8",
              "name": "decimals",
              "type": "uint8"
            },
            {
              "internalType": "uint16",
              "name": "uniswapPoolFee",
              "type": "uint16"
            }
          ],
          "internalType": "struct Tokens.Token",
          "name": "",
          "type": "tuple"
        }
      ],
      "stateMutability": "view",
      "type": "function"
    },
    {
      "inputs": [
        {
          "internalType": "address",
          "name": "newOwner",
          "type": "address"
        }
      ],
      "name": "transferOwnership",
      "outputs": [],
      "stateMutability": "nonpayable",
      "type": "function"
    },
    {
      "inputs": [
        {
          "internalType": "address",
          "name": "newImplementation",
          "type": "address"
        },
        {
          "internalType": "bytes",
          "name": "data",
          "type": "bytes"
        }
      ],
      "name": "upgradeToAndCall",
      "outputs": [],
      "stateMutability": "payable",
      "type": "function"
    }
  ],
  "bytecode": "0x60a0604052306080523480156012575f5ffd5b50608051613d836100395f395f8181611b2401528181611b4d0152611c8c0152613d835ff3fe6080604052600436106101d0575f3560e01c8063a5ba2a5c116100fd578063ba05043511610092578063d248dcba11610062578063d248dcba146105a2578063dc2ac0ce146105c1578063ddca3f43146105e2578063f2fde38b14610616575f5ffd5b8063ba0504351461053c578063c415b95c1461055b578063c4d66de81461056f578063c5f2b4141461058e575f5ffd5b8063ad3cb1cc116100cd578063ad3cb1cc146104a2578063aeadbfa0146104df578063b6ce12cd146104fe578063b9a3c84c1461051d575f5ffd5b8063a5ba2a5c1461042f578063a86911601461044e578063aa6ca8081461046d578063ab60636c1461048e575f5ffd5b80636a5234da116101735780637dc0d1d0116101435780637dc0d1d0146103615780638da5cb5b1461038d5780638e005553146103c957806399b72fd8146103e8575f5ffd5b80636a5234da146102ee5780636aeb45941461030d578063715018a61461032e5780637c6cfa7c14610342575f5ffd5b8063398a929b116101ae578063398a929b146102495780634f1ef2861461027657806352d1902d14610289578063651c4c401461029d575f5ffd5b80630290ae46146101d4578063069e952514610209578063275659ca1461022a575b5f5ffd5b3480156101df575f5ffd5b506101f36101ee366004612f7c565b610635565b6040516102009190612fa9565b60405180910390f35b348015610214575f5ffd5b50610228610223366004613029565b610659565b005b348015610235575f5ffd5b506102286102443660046130b8565b6106aa565b348015610254575f5ffd5b50610268610263366004613178565b610902565b604051908152602001610200565b610228610284366004613227565b61099c565b348015610294575f5ffd5b506102686109bb565b3480156102a8575f5ffd5b506102bc6102b73660046132b3565b6109d6565b6040805182516001600160a01b0316815260208084015160ff16908201529181015161ffff1690820152606001610200565b3480156102f9575f5ffd5b506102286103083660046132ce565b610a38565b348015610318575f5ffd5b50610321610e66565b6040516102009190613305565b348015610339575f5ffd5b50610228610e77565b34801561034d575f5ffd5b5061022861035c366004613351565b610e8a565b34801561036c575f5ffd5b50610375610f05565b6040516001600160a01b039091168152602001610200565b348015610398575f5ffd5b507f9016d09d72d40fdae2fd8ceac6b6234c7706214fd39c1cd1e609a0528c199300546001600160a01b0316610375565b3480156103d4575f5ffd5b506102286103e33660046133cc565b610f79565b3480156103f3575f5ffd5b5061041f6104023660046133e5565b6001600160a01b03165f9081526006602052604090205460ff1690565b6040519015158152602001610200565b34801561043a575f5ffd5b50610228610449366004613400565b610fa3565b348015610459575f5ffd5b5061026861046836600461346f565b610fe8565b348015610478575f5ffd5b50610481611103565b60405161020091906134a6565b348015610499575f5ffd5b5061037561110e565b3480156104ad575f5ffd5b506104d2604051806040016040528060058152602001640352e302e360dc1b81525081565b60405161020091906134e7565b3480156104ea575f5ffd5b506103756104f936600461351c565b611148565b348015610509575f5ffd5b50610228610518366004613029565b611154565b348015610528575f5ffd5b50600854610375906001600160a01b031681565b348015610547575f5ffd5b50610228610556366004613029565b6111a0565b348015610566575f5ffd5b506103756111eb565b34801561057a575f5ffd5b506102286105893660046133e5565b61122a565b348015610599575f5ffd5b50610228611344565b3480156105ad575f5ffd5b506102286105bc366004613537565b6116a5565b3480156105cc575f5ffd5b506105d56116f1565b6040516102009190613586565b3480156105ed575f5ffd5b5060085461060390600160a01b900461ffff1681565b60405161ffff9091168152602001610200565b348015610621575f5ffd5b506102286106303660046133e5565b6116fd565b604080518082019091525f808252602082015261065360048361173a565b92915050565b610661611801565b5f5b818110156106a55761069d838383818110610680576106806135c7565b9050602002016020810190610695919061351c565b60029061185c565b600101610663565b505050565b335f8181526006602052604090205460ff166106ea576040516332b2baa360e01b81526001600160a01b0390911660048201526024015b60405180910390fd5b506001600160a01b0385165f818152600760209081526040808320805460ff1916600117905580516360146f8360e11b8152905192939263c028df06926004808401939192918290030181865afa158015610747573d5f5f3e3d5ffd5b505050506040513d601f19601f8201168201806040525081019061076b91906135db565b9050806001600160a01b0316866001600160a01b031663782b36026040518163ffffffff1660e01b8152600401602060405180830381865afa1580156107b3573d5f5f3e3d5ffd5b505050506040513d601f19601f820116820180604052508101906107d791906135db565b6001600160a01b0316826001600160a01b0316638da5cb5b6040518163ffffffff1660e01b8152600401602060405180830381865afa15801561081c573d5f5f3e3d5ffd5b505050506040513d601f19601f8201168201806040525081019061084091906135db565b6001600160a01b03167f36a85a14a6e9ba788600f1047a03ba4d03ec30453a5c3161d198876c00db37ed898989898960405161088095949392919061361e565b60405180910390a461089061110e565b604051632f2ff15d60e01b8152684445414c5f524f4c4560b81b60048201526001600160a01b0388811660248301529190911690632f2ff15d906044015f604051808303815f87803b1580156108e4575f5ffd5b505af11580156108f6573d5f5f3e3d5ffd5b50505050505050505050565b5f6001600160e81b03198416621554d160ea1b14801561093257506001600160c01b03198316635553444360e01b145b1561094b5761094485612710846119fe565b9050610994565b5f6109568185611aa9565b54600160a01b900460ff1690506109818661097283600a613758565b61097c8789610fe8565b6119fe565b915061099082612710856119fe565b9150505b949350505050565b6109a4611b19565b6109ad82611bbd565b6109b78282611bc5565b5050565b5f6109c4611c81565b505f516020613d2e5f395f51905f5290565b604080516060810182525f80825260208201819052918101919091526109fc5f83611aa9565b6040805160608101825291546001600160a01b0381168352600160a01b810460ff166020840152600160a81b900461ffff169082015292915050565b5f610a4960408301602084016133cc565b61ffff1611610a835760405162461bcd60e51b81526004016106e1906020808252600490820152637261746560e01b604082015260600190565b610a936080820160608301613776565b63ffffffff16610aa96060830160408401613776565b63ffffffff1610610ae55760405162461bcd60e51b81526020600482015260066024820152650dad2dcdac2f60d31b60448201526064016106e1565b610b08610af860a08301608084016132b3565b61046860c0840160a0850161351c565b506014610b44610b1e6060840160408501613776565b63ffffffff16610b3460c0850160a0860161351c565b635553444360e01b612710610902565b11610b7f5760405162461bcd60e51b815260206004820152600b60248201526a6d696e20746f6f206c6f7760a81b60448201526064016106e1565b610b926101ee60e0830160c08401612f7c565b506008546040516302abf57960e61b81527227b33332b924b6b83632b6b2b73a30ba34b7b760691b60048201525f916001600160a01b03169063aafd5e4090602401602060405180830381865afa158015610bef573d5f5f3e3d5ffd5b505050506040513d601f19601f82011682018060405250810190610c1391906135db565b90505f610c1f82611cca565b604051630109274360e21b81529091506001600160a01b038216906304249d0c90610c5090339087906004016137dd565b5f604051808303815f87803b158015610c67575f5ffd5b505af1158015610c79573d5f5f3e3d5ffd5b505050506001600160a01b0381165f9081526006602052604090205460ff1615610cce5760405162461bcd60e51b815260206004820152600660248201526565786973747360d01b60448201526064016106e1565b6001600160a01b0381165f81815260066020908152604091829020805460ff19166001179055815163052876e560e51b8152915163a50edca09260048082019392918290030181865afa158015610d27573d5f5f3e3d5ffd5b505050506040513d601f19601f82011682018060405250810190610d4b91906138c7565b6001600160e81b031916816001600160a01b031663fc0c546a6040518163ffffffff1660e01b8152600401602060405180830381865afa158015610d91573d5f5f3e3d5ffd5b505050506040513d601f19601f82011682018060405250810190610db591906138e2565b6001600160c01b031916826001600160a01b0316638da5cb5b6040518163ffffffff1660e01b8152600401602060405180830381865afa158015610dfb573d5f5f3e3d5ffd5b505050506040513d601f19601f82011682018060405250810190610e1f91906135db565b6040516001600160a01b03858116825291909116907f7a0cee81b22fc7df044634a6fe4304cef7f5a134e54495e3fe20e4b558f069399060200160405180910390a4505050565b6060610e726004611cd5565b905090565b610e7f611801565b610e885f611d5a565b565b610e92611801565b5f5b83811015610efe57610ef6858583818110610eb157610eb16135c7565b9050602002016020810190610ec69190612f7c565b848484818110610ed857610ed86135c7565b9050602002016020810190610eed91906138fd565b60049190611dca565b600101610e94565b5050505050565b6008546040516302abf57960e61b8152654f7261636c6560d01b60048201525f916001600160a01b03169063aafd5e40906024015b602060405180830381865afa158015610f55573d5f5f3e3d5ffd5b505050506040513d601f19601f82011682018060405250810190610e7291906135db565b610f81611801565b6008805461ffff909216600160a01b0261ffff60a01b19909216919091179055565b610fab611801565b5f5b818110156106a557610fe0838383818110610fca57610fca6135c7565b9050604002016002611eb890919063ffffffff16565b600101610fad565b5f6001600160c01b03198316635553444360e01b1461101a5761101361100e5f85611aa9565b611f9a565b9050611020565b50620f42405b6001600160e81b03198216621554d160ea1b14610653575f6110436002846121d6565b6001600160a01b031663feaf968c6040518163ffffffff1660e01b815260040160a060405180830381865afa15801561107e573d5f5f3e3d5ffd5b505050506040513d601f19601f820116820180604052508101906110a29190613934565b5050509150505f81136110ea5760405162461bcd60e51b815260206004820152601060248201526f626164206f7261636c6520707269636560801b60448201526064016106e1565b806110f9836305f5e100613982565b61099491906139ad565b6060610e725f61222e565b6008546040516302abf57960e61b81526650726f66696c6560c81b60048201525f916001600160a01b03169063aafd5e4090602401610f3a565b5f6106536002836121d6565b61115c611801565b5f5b818110156106a55761119883838381811061117b5761117b6135c7565b90506020020160208101906111909190612f7c565b6004906122b1565b60010161115e565b6111a8611801565b5f5b818110156106a5576111e38383838181106111c7576111c76135c7565b90506020020160208101906111dc91906132b3565b5f9061244e565b6001016111aa565b6008546040516302abf57960e61b81526b2332b2a1b7b63632b1ba37b960a11b60048201525f916001600160a01b03169063aafd5e4090602401610f3a565b5f6112336125f6565b805490915060ff600160401b82041615906001600160401b03165f811580156112595750825b90505f826001600160401b031660011480156112745750303b155b905081158015611282575080155b156112a05760405163f92ee8a960e01b815260040160405180910390fd5b845467ffffffffffffffff1916600117855583156112ca57845460ff60401b1916600160401b1785555b6112d33361261e565b60088054601960a21b6001600160b01b03199091166001600160a01b03891617179055831561133c57845460ff60401b19168555604051600181527fc7f505b2f371ae2175ee4913f4499e1f2633a7b5936321eed1cdaeb6115181d29060200160405180910390a15b505050505050565b335f8181526007602052604090205460ff1661137f576040516332b2baa360e01b81526001600160a01b0390911660048201526024016106e1565b50336001816001600160a01b031663c19d93fb6040518163ffffffff1660e01b8152600401602060405180830381865afa1580156113bf573d5f5f3e3d5ffd5b505050506040513d601f19601f820116820180604052508101906113e391906139c0565b60078111156113f4576113f4612f95565b146114305760405162461bcd60e51b815260206004820152600c60248201526b1b9bdd081858d8d95c1d195960a21b60448201526064016106e1565b5f816001600160a01b031663c028df066040518163ffffffff1660e01b8152600401602060405180830381865afa15801561146d573d5f5f3e3d5ffd5b505050506040513d601f19601f8201168201806040525081019061149191906135db565b90505f6114f7826001600160a01b031663fc0c546a6040518163ffffffff1660e01b8152600401602060405180830381865afa1580156114d3573d5f5f3e3d5ffd5b505050506040513d601f19601f820116820180604052508101906102b791906138e2565b5f015190505f826001600160a01b0316630c570c866040518163ffffffff1660e01b8152600401602060405180830381865afa158015611539573d5f5f3e3d5ffd5b505050506040513d601f19601f8201168201806040525081019061155d91906139de565b6115c657836001600160a01b031663782b36026040518163ffffffff1660e01b8152600401602060405180830381865afa15801561159d573d5f5f3e3d5ffd5b505050506040513d601f19601f820116820180604052508101906115c191906135db565b611626565b826001600160a01b0316638da5cb5b6040518163ffffffff1660e01b8152600401602060405180830381865afa158015611602573d5f5f3e3d5ffd5b505050506040513d601f19601f8201168201806040525081019061162691906135db565b905061169f8185866001600160a01b031663eec7faa16040518163ffffffff1660e01b8152600401602060405180830381865afa158015611669573d5f5f3e3d5ffd5b505050506040513d601f19601f8201168201806040525081019061168d91906139f9565b6001600160a01b03861692919061262f565b50505050565b6116ad611801565b5f5b8281101561169f576116e98484838181106116cc576116cc6135c7565b90506020020160208101906116e191906133e5565b5f9084612689565b6001016116af565b6060610e726002612862565b611705611801565b6001600160a01b03811661172e57604051631e4fbdf760e01b81525f60048201526024016106e1565b61173781611d5a565b50565b604080518082019091525f80825260208201526001600160801b031982165f908152600184016020526040902054829060ff1661179757604051631fabe27560e01b81526001600160801b031990911660048201526024016106e1565b506001600160801b031982165f9081526001840160209081526040918290208251808401909352805460ff8082161515855291928401916101009091041660038111156117e6576117e6612f95565b60038111156117f7576117f7612f95565b9052509392505050565b336118337f9016d09d72d40fdae2fd8ceac6b6234c7706214fd39c1cd1e609a0528c199300546001600160a01b031690565b6001600160a01b031614610e885760405163118cdaa760e01b81523360048201526024016106e1565b6001600160e81b031981165f90815260018301602052604090205481906001600160a01b03166118ac576040516310bc594560e01b81526001600160e81b031990911660048201526024016106e1565b5081545f5b818110156119d257826001600160e81b031916845f0182815481106118d8576118d86135c7565b905f5260205f2090600a91828204019190066003029054906101000a900460e81b6001600160e81b031916036119ca5783611914600184613a10565b81548110611924576119246135c7565b905f5260205f2090600a91828204019190066003029054906101000a900460e81b845f018281548110611959576119596135c7565b905f5260205f2090600a91828204019190066003026101000a81548162ffffff021916908360e81c0217905550835f0180548061199857611998613a23565b600190038181905f5260205f2090600a91828204019190066003026101000a81549062ffffff021916905590556119d2565b6001016118b1565b50506001600160e81b0319165f90815260019091016020526040902080546001600160a01b0319169055565b5f80805f19858709858702925082811083820303915050805f03611a32575f8411611a27575f5ffd5b508290049050611aa2565b808411611a3d575f5ffd5b5f848688095f868103871696879004966002600389028118808a02820302808a02820302808a02820302808a02820302808a02820302808a02909103029181900381900460010186841190950394909402919094039290920491909117919091029150505b9392505050565b6001600160c01b031981165f90815260018301602052604081205482906001600160a01b0316611af957604051630455cc8b60e11b81526001600160c01b031990911660048201526024016106e1565b50506001600160c01b0319165f9081526001919091016020526040902090565b306001600160a01b037f0000000000000000000000000000000000000000000000000000000000000000161480611b9f57507f00000000000000000000000000000000000000000000000000000000000000006001600160a01b0316611b935f516020613d2e5f395f51905f52546001600160a01b031690565b6001600160a01b031614155b15610e885760405163703e46dd60e11b815260040160405180910390fd5b611737611801565b816001600160a01b03166352d1902d6040518163ffffffff1660e01b8152600401602060405180830381865afa925050508015611c1f575060408051601f3d908101601f19168201909252611c1c918101906139f9565b60015b611c4757604051634c9c8ce360e01b81526001600160a01b03831660048201526024016106e1565b5f516020613d2e5f395f51905f528114611c7757604051632a87526960e21b8152600481018290526024016106e1565b6106a583836128e5565b306001600160a01b037f00000000000000000000000000000000000000000000000000000000000000001614610e885760405163703e46dd60e11b815260040160405180910390fd5b5f610653825f61293a565b6060815f01805480602002602001604051908101604052809291908181526020018280548015611d4e57602002820191905f5260205f20905f905b82829054906101000a900460801b6001600160801b03191681526020019060100190602082600f01049283019260010382029150808411611d105790505b50505050509050919050565b7f9016d09d72d40fdae2fd8ceac6b6234c7706214fd39c1cd1e609a0528c19930080546001600160a01b031981166001600160a01b03848116918217845560405192169182907f8be0079c531659141344cd1fd0a4f28419497f9722a3daafe3b4186f6b6457e0905f90a3505050565b6001600160801b031982165f90815260018401602052604090205460ff16611e2b578254600180820185555f85815260209020600283040180546001600160801b03929093166010026101000a91820219909216608085901c919091021790555b6040518060400160405280600115158152602001826003811115611e5157611e51612f95565b90526001600160801b031983165f90815260018501602090815260409091208251815490151560ff19821681178355928401519192839161ff001990911661ffff1990911617610100836003811115611eac57611eac612f95565b02179055505050505050565b5f6001830181611ecb602085018561351c565b6001600160e81b031916815260208101919091526040015f20546001600160a01b031603611f3d5781611f01602083018361351c565b81546001810183555f9283526020909220600a808404909101805462ffffff929094066003026101000a9182021990931660e89290921c021790555b611f4d60408201602083016133e5565b600183015f611f5f602085018561351c565b6001600160e81b031916815260208101919091526040015f2080546001600160a01b0319166001600160a01b03929092169190911790555050565b5f5f611fa46129ce565b83546001600160a01b0391821691631698ee829116611fca5f635553444360e01b611aa9565b54865460405160e085901b6001600160e01b03191681526001600160a01b039384166004820152929091166024830152600160a81b900461ffff166044820152606401602060405180830381865afa158015612028573d5f5f3e3d5ffd5b505050506040513d601f19601f8201168201806040525081019061204c91906135db565b6040805160028082526060820183529293505f92909160208301908036833701905050905061012c815f81518110612086576120866135c7565b602002602001019063ffffffff16908163ffffffff16815250505f816001815181106120b4576120b46135c7565b63ffffffff9092166020928302919091019091015260405163883bdbfd60e01b81525f906001600160a01b0384169063883bdbfd906120f7908590600401613a37565b5f60405180830381865afa158015612111573d5f5f3e3d5ffd5b505050506040513d5f823e601f3d908101601f191682016040526121389190810190613b04565b5090505f815f8151811061214e5761214e6135c7565b602002602001015182600181518110612169576121696135c7565b602002602001015161217b9190613bce565b90505f61219261218d61012c84613bfb565b612a08565b90506121cb6121aa6001600160a01b03831680613982565b88546121c190600160a01b900460ff16600a613c37565b600160c01b6119fe565b979650505050505050565b6001600160e81b031981165f9081526001830160205260408120546001600160a01b03168281612226576040516310bc594560e01b81526001600160e81b031990911660048201526024016106e1565b509392505050565b6060815f01805480602002602001604051908101604052809291908181526020018280548015611d4e57602002820191905f5260205f20905f905b82829054906101000a900460c01b6001600160c01b03191681526020019060080190602082600701049283019260010382029150808411612269575094979650505050505050565b6001600160801b031981165f908152600183016020526040902054819060ff166122fb57604051631fabe27560e01b81526001600160801b031990911660048201526024016106e1565b5081545f5b8181101561242757826001600160801b031916845f018281548110612327576123276135c7565b905f5260205f2090600291828204019190066010029054906101000a900460801b6001600160801b0319160361241f5783612363600184613a10565b81548110612373576123736135c7565b905f5260205f2090600291828204019190066010029054906101000a900460801b845f0182815481106123a8576123a86135c7565b905f5260205f2090600291828204019190066010026101000a8154816001600160801b03021916908360801c0217905550835f018054806123eb576123eb613a23565b5f8281526020902060025f199092019182040180546001600160801b03601060018516026101000a02191690559055612427565b600101612300565b50506001600160801b0319165f908152600190910160205260409020805461ffff19169055565b6001600160c01b031981165f90815260018301602052604090205481906001600160a01b031661249e57604051630455cc8b60e11b81526001600160c01b031990911660048201526024016106e1565b5081545f5b818110156125ca57826001600160c01b031916845f0182815481106124ca576124ca6135c7565b905f5260205f2090600491828204019190066008029054906101000a900460c01b6001600160c01b031916036125c25783612506600184613a10565b81548110612516576125166135c7565b905f5260205f2090600491828204019190066008029054906101000a900460c01b845f01828154811061254b5761254b6135c7565b905f5260205f2090600491828204019190066008026101000a8154816001600160401b03021916908360c01c0217905550835f0180548061258e5761258e613a23565b5f8281526020902060045f199092019182040180546001600160401b03600860038516026101000a021916905590556125ca565b6001016124a3565b50506001600160c01b0319165f90815260019091016020526040902080546001600160b81b0319169055565b5f807ff0c57e16840df040f15088dc2f81fe391c3923bec73e23a9662efc9c229c6a00610653565b612626612d36565b61173781612d5b565b604080516001600160a01b0385811660248301528416604482015260648082018490528251808303909101815260849091019091526020810180516001600160e01b03166323b872dd60e01b17905261169f908590612d63565b5f8290505f816001600160a01b03166395d89b416040518163ffffffff1660e01b81526004015f60405180830381865afa1580156126c9573d5f5f3e3d5ffd5b505050506040513d5f823e601f3d908101601f191682016040526126f09190810190613c45565b6126f990613cb9565b6001600160c01b031981165f9081526001870160205260409020549091506001600160a01b03166127645784546001810186555f86815260209020600482040180546001600160401b0360039093166008026101000a928302191660c084901c929092029190911790555b6040518060600160405280836001600160a01b03168152602001836001600160a01b031663313ce5676040518163ffffffff1660e01b8152600401602060405180830381865afa1580156127ba573d5f5f3e3d5ffd5b505050506040513d601f19601f820116820180604052508101906127de9190613cf7565b60ff908116825261ffff9586166020928301526001600160c01b03199093165f9081526001909701815260409687902082518154928401519390980151909516600160a81b0261ffff60a81b1992909316600160a01b026001600160a81b03199091166001600160a01b039097169690961795909517949094169390931790555050565b6060815f01805480602002602001604051908101604052809291908181526020018280548015611d4e57602002820191905f5260205f20905f905b82829054906101000a900460e81b6001600160e81b0319168152602001906003019060208260020104928301926001038202915080841161289d575094979650505050505050565b6128ee82612dcf565b6040516001600160a01b038316907fbc7cd75a20ee27fd9adebab32041f755214dbc6bffa90cc0225b39da2e5c2d3b905f90a2805115612932576106a58282612e32565b6109b7612ea4565b5f814710156129655760405163cf47918160e01b8152476004820152602481018390526044016106e1565b763d602d80600a3d3981f3363d3d373d3d3d363d730000008360601b60e81c175f526e5af43d82803e903d91602b57fd5bf38360781b176020526037600983f090506001600160a01b0381166106535760405163b06ebf3d60e01b815260040160405180910390fd5b6008546040516302abf57960e61b8152660556e69737761760cc1b60048201525f916001600160a01b03169063aafd5e4090602401610f3a565b5f5f5f8360020b12612a1d578260020b612a24565b8260020b5f035b9050620d89e8811115612a5d5760405162461bcd60e51b81526020600482015260016024820152601560fa1b60448201526064016106e1565b5f816001165f03612a7257600160801b612a84565b6ffffcb933bd6fad37aa2d162d1a5940015b70ffffffffffffffffffffffffffffffffff1690506002821615612ab8576ffff97272373d413259a46990580e213a0260801c5b6004821615612ad7576ffff2e50f5f656932ef12357cf3c7fdcc0260801c5b6008821615612af6576fffe5caca7e10e4e61c3624eaa0941cd00260801c5b6010821615612b15576fffcb9843d60f6159c9db58835c9266440260801c5b6020821615612b34576fff973b41fa98c081472e6896dfb254c00260801c5b6040821615612b53576fff2ea16466c96a3843ec78b326b9753a0260801c5b6080821615612b72576ffe5dee046a99a2a811c461f1969c30530260801c5b610100821615612b92576ffcbe86c7900a88aedcffc83b479aa3a40260801c5b610200821615612bb2576ff987a7253ac413176f2b074cf7815e540260801c5b610400821615612bd2576ff3392b0822b70005940c7a398e4b70f30260801c5b610800821615612bf2576fe7159475a2c29b7443b29c7fa6e889d90260801c5b611000821615612c12576fd097f3bdfd2022b8845ad8f792aa58250260801c5b612000821615612c32576fa9f746462d870fdf8a65dc1f90e061e50260801c5b614000821615612c52576f70d869a156d2a1b890bb3df62baf32f70260801c5b618000821615612c72576f31be135f97d08fd981231505542fcfa60260801c5b62010000821615612c93576f09aa508b5b7a84e1c677de54f3e99bc90260801c5b62020000821615612cb3576e5d6af8dedb81196699c329225ee6040260801c5b62040000821615612cd2576d2216e584f5fa1ea926041bedfe980260801c5b62080000821615612cef576b048a170391f7dc42444e8fa20260801c5b5f8460020b1315612d0e57805f1981612d0a57612d0a613999565b0490505b640100000000810615612d22576001612d24565b5f5b60ff16602082901c0192505050919050565b612d3e612ec3565b610e8857604051631afcd79f60e31b815260040160405180910390fd5b611705612d36565b5f5f60205f8451602086015f885af180612d82576040513d5f823e3d81fd5b50505f513d91508115612d99578060011415612da6565b6001600160a01b0384163b155b1561169f57604051635274afe760e01b81526001600160a01b03851660048201526024016106e1565b806001600160a01b03163b5f03612e0457604051634c9c8ce360e01b81526001600160a01b03821660048201526024016106e1565b5f516020613d2e5f395f51905f5280546001600160a01b0319166001600160a01b0392909216919091179055565b60605f5f846001600160a01b031684604051612e4e9190613d17565b5f60405180830381855af49150503d805f8114612e86576040519150601f19603f3d011682016040523d82523d5f602084013e612e8b565b606091505b5091509150612e9b858383612edc565b95945050505050565b3415610e885760405163b398979f60e01b815260040160405180910390fd5b5f612ecc6125f6565b54600160401b900460ff16919050565b606082612ef157612eec82612f38565b611aa2565b8151158015612f0857506001600160a01b0384163b155b15612f3157604051639996b31560e01b81526001600160a01b03851660048201526024016106e1565b5080611aa2565b805115612f4757805160208201fd5b60405163d6bda27560e01b815260040160405180910390fd5b80356001600160801b031981168114612f77575f5ffd5b919050565b5f60208284031215612f8c575f5ffd5b611aa282612f60565b634e487b7160e01b5f52602160045260245ffd5b8151151581526020820151604082019060048110612fd557634e487b7160e01b5f52602160045260245ffd5b8060208401525092915050565b5f5f83601f840112612ff2575f5ffd5b5081356001600160401b03811115613008575f5ffd5b6020830191508360208260051b8501011115613022575f5ffd5b9250929050565b5f5f6020838503121561303a575f5ffd5b82356001600160401b0381111561304f575f5ffd5b61305b85828601612fe2565b90969095509350505050565b6001600160a01b0381168114611737575f5ffd5b5f5f83601f84011261308b575f5ffd5b5081356001600160401b038111156130a1575f5ffd5b602083019150836020828501011115613022575f5ffd5b5f5f5f5f5f606086880312156130cc575f5ffd5b85356130d781613067565b945060208601356001600160401b038111156130f1575f5ffd5b6130fd8882890161307b565b90955093505060408601356001600160401b0381111561311b575f5ffd5b6131278882890161307b565b969995985093965092949392505050565b6001600160e81b031981168114611737575f5ffd5b8035612f7781613138565b6001600160c01b031981168114611737575f5ffd5b8035612f7781613158565b5f5f5f5f6080858703121561318b575f5ffd5b84359350602085013561319d81613138565b925060408501356131ad81613158565b9396929550929360600135925050565b634e487b7160e01b5f52604160045260245ffd5b604051601f8201601f191681016001600160401b03811182821017156131f9576131f96131bd565b604052919050565b5f6001600160401b03821115613219576132196131bd565b50601f01601f191660200190565b5f5f60408385031215613238575f5ffd5b823561324381613067565b915060208301356001600160401b0381111561325d575f5ffd5b8301601f8101851361326d575f5ffd5b803561328061327b82613201565b6131d1565b818152866020838501011115613294575f5ffd5b816020840160208301375f602083830101528093505050509250929050565b5f602082840312156132c3575f5ffd5b8135611aa281613158565b5f602082840312156132de575f5ffd5b81356001600160401b038111156132f3575f5ffd5b82016101008185031215611aa2575f5ffd5b602080825282518282018190525f918401906040840190835b818110156133465783516001600160801b03191683526020938401939092019160010161331e565b509095945050505050565b5f5f5f5f60408587031215613364575f5ffd5b84356001600160401b03811115613379575f5ffd5b61338587828801612fe2565b90955093505060208501356001600160401b038111156133a3575f5ffd5b6133af87828801612fe2565b95989497509550505050565b803561ffff81168114612f77575f5ffd5b5f602082840312156133dc575f5ffd5b611aa2826133bb565b5f602082840312156133f5575f5ffd5b8135611aa281613067565b5f5f60208385031215613411575f5ffd5b82356001600160401b03811115613426575f5ffd5b8301601f81018513613436575f5ffd5b80356001600160401b0381111561344b575f5ffd5b8560208260061b840101111561345f575f5ffd5b6020919091019590945092505050565b5f5f60408385031215613480575f5ffd5b823561348b81613158565b9150602083013561349b81613138565b809150509250929050565b602080825282518282018190525f918401906040840190835b818110156133465783516001600160c01b0319168352602093840193909201916001016134bf565b602081525f82518060208401528060208501604085015e5f604082850101526040601f19601f83011684010191505092915050565b5f6020828403121561352c575f5ffd5b8135611aa281613138565b5f5f5f60408486031215613549575f5ffd5b83356001600160401b0381111561355e575f5ffd5b61356a86828701612fe2565b909450925061357d9050602085016133bb565b90509250925092565b602080825282518282018190525f918401906040840190835b818110156133465783516001600160e81b03191683526020938401939092019160010161359f565b634e487b7160e01b5f52603260045260245ffd5b5f602082840312156135eb575f5ffd5b8151611aa281613067565b81835281816020850137505f828201602090810191909152601f909101601f19169091010190565b6001600160a01b03861681526060602082018190525f9061364290830186886135f6565b82810360408401526136558185876135f6565b98975050505050505050565b634e487b7160e01b5f52601160045260245ffd5b6001815b60018411156136b05780850481111561369457613694613661565b60018416156136a257908102905b60019390931c928002613679565b935093915050565b5f826136c657506001610653565b816136d257505f610653565b81600181146136e857600281146136f25761370e565b6001915050610653565b60ff84111561370357613703613661565b50506001821b610653565b5060208310610133831016604e8410600b8410161715613731575081810a610653565b61373d5f198484613675565b805f190482111561375057613750613661565b029392505050565b5f611aa283836136b8565b803563ffffffff81168114612f77575f5ffd5b5f60208284031215613786575f5ffd5b611aa282613763565b8015158114611737575f5ffd5b5f5f8335601e198436030181126137b1575f5ffd5b83016020810192503590506001600160401b038111156137cf575f5ffd5b803603821315613022575f5ffd5b6001600160a01b0383168152604060208201525f82356137fc8161378f565b1515604083015261ffff613812602085016133bb565b16606083015263ffffffff61382960408501613763565b16608083015263ffffffff61384060608501613763565b1660a08301526138526080840161316d565b6001600160c01b03191660c083015261386d60a0840161314d565b6001600160e81b03191660e083015261388860c08401612f60565b6001600160801b0319166101008301526138a560e084018461379c565b6101006101208501526138bd610140850182846135f6565b9695505050505050565b5f602082840312156138d7575f5ffd5b8151611aa281613138565b5f602082840312156138f2575f5ffd5b8151611aa281613158565b5f6020828403121561390d575f5ffd5b813560048110611aa2575f5ffd5b805169ffffffffffffffffffff81168114612f77575f5ffd5b5f5f5f5f5f60a08688031215613948575f5ffd5b6139518661391b565b602087015160408801516060890151929750909550935091506139766080870161391b565b90509295509295909350565b808202811582820484141761065357610653613661565b634e487b7160e01b5f52601260045260245ffd5b5f826139bb576139bb613999565b500490565b5f602082840312156139d0575f5ffd5b815160088110611aa2575f5ffd5b5f602082840312156139ee575f5ffd5b8151611aa28161378f565b5f60208284031215613a09575f5ffd5b5051919050565b8181038181111561065357610653613661565b634e487b7160e01b5f52603160045260245ffd5b602080825282518282018190525f918401906040840190835b8181101561334657835163ffffffff16835260209384019390920191600101613a50565b5f6001600160401b03821115613a8c57613a8c6131bd565b5060051b60200190565b5f82601f830112613aa5575f5ffd5b8151613ab361327b82613a74565b8082825260208201915060208360051b860101925085831115613ad4575f5ffd5b602085015b83811015613afa578051613aec81613067565b835260209283019201613ad9565b5095945050505050565b5f5f60408385031215613b15575f5ffd5b82516001600160401b03811115613b2a575f5ffd5b8301601f81018513613b3a575f5ffd5b8051613b4861327b82613a74565b8082825260208201915060208360051b850101925087831115613b69575f5ffd5b6020840193505b82841015613b995783518060060b8114613b88575f5ffd5b825260209384019390910190613b70565b8095505050505060208301516001600160401b03811115613bb8575f5ffd5b613bc485828601613a96565b9150509250929050565b600682810b9082900b03667fffffffffffff198112667fffffffffffff8213171561065357610653613661565b5f8160060b8360060b80613c1157613c11613999565b667fffffffffffff1982145f1982141615613c2e57613c2e613661565b90059392505050565b5f611aa260ff8416836136b8565b5f60208284031215613c55575f5ffd5b81516001600160401b03811115613c6a575f5ffd5b8201601f81018413613c7a575f5ffd5b8051613c8861327b82613201565b818152856020838501011115613c9c575f5ffd5b8160208401602083015e5f91810160200191909152949350505050565b805160208201516001600160c01b0319811691906008821015613cf0576001600160c01b0319600883900360031b81901b82161692505b5050919050565b5f60208284031215613d07575f5ffd5b815160ff81168114611aa2575f5ffd5b5f82518060208501845e5f92019182525091905056fe360894a13ba1a3210667c828492db98dca3e2076cc3735a920a3ca505d382bbca2646970667358221220988f746c06b5010d7374ac46bc89651b94299a0eb52cb7f62a3177335f41b1ab64736f6c63430008220033",
  "linkReferences": {},
  "deployedLinkReferences": {},
  "immutableReferences": {
    "847": [
      {
        "length": 32,
        "start": 6948
      },
      {
        "length": 32,
        "start": 6989
      },
      {
        "length": 32,
        "start": 7308
      }
    ]
  },
  "inputSourceName": "project/evm/protocol/Market.sol",
  "buildInfoId": "solc-0_8_34-31f429b7481dccfcdc199df80db9791a6b017047"
}