{
  "_format": "hh3-artifact-1",
  "contractName": "Market",
  "sourceName": "evm/protocol/Market.sol",
  "abi": [
    {
      "inputs": [
        {
          "internalType": "address",
          "name": "target",
          "type": "address"
        }
      ],
      "name": "AddressEmptyCode",
      "type": "error"
    },
    {
      "inputs": [
        {
          "internalType": "address",
          "name": "implementation",
          "type": "address"
        }
      ],
      "name": "ERC1967InvalidImplementation",
      "type": "error"
    },
    {
      "inputs": [],
      "name": "ERC1967NonPayable",
      "type": "error"
    },
    {
      "inputs": [],
      "name": "FailedCall",
      "type": "error"
    },
    {
      "inputs": [
        {
          "internalType": "bytes3",
          "name": "fiat",
          "type": "bytes3"
        }
      ],
      "name": "InvalidFiat",
      "type": "error"
    },
    {
      "inputs": [],
      "name": "InvalidInitialization",
      "type": "error"
    },
    {
      "inputs": [
        {
          "internalType": "bytes16",
          "name": "method",
          "type": "bytes16"
        }
      ],
      "name": "InvalidMethod",
      "type": "error"
    },
    {
      "inputs": [
        {
          "internalType": "bytes8",
          "name": "token",
          "type": "bytes8"
        }
      ],
      "name": "InvalidToken",
      "type": "error"
    },
    {
      "inputs": [],
      "name": "NotInitializing",
      "type": "error"
    },
    {
      "inputs": [
        {
          "internalType": "address",
          "name": "owner",
          "type": "address"
        }
      ],
      "name": "OwnableInvalidOwner",
      "type": "error"
    },
    {
      "inputs": [
        {
          "internalType": "address",
          "name": "account",
          "type": "address"
        }
      ],
      "name": "OwnableUnauthorizedAccount",
      "type": "error"
    },
    {
      "inputs": [
        {
          "internalType": "address",
          "name": "token",
          "type": "address"
        }
      ],
      "name": "SafeERC20FailedOperation",
      "type": "error"
    },
    {
      "inputs": [],
      "name": "UUPSUnauthorizedCallContext",
      "type": "error"
    },
    {
      "inputs": [
        {
          "internalType": "bytes32",
          "name": "slot",
          "type": "bytes32"
        }
      ],
      "name": "UUPSUnsupportedProxiableUUID",
      "type": "error"
    },
    {
      "inputs": [
        {
          "internalType": "address",
          "name": "account",
          "type": "address"
        }
      ],
      "name": "UnauthorizedAccount",
      "type": "error"
    },
    {
      "anonymous": false,
      "inputs": [
        {
          "indexed": true,
          "internalType": "address",
          "name": "offerOwner",
          "type": "address"
        },
        {
          "indexed": true,
          "internalType": "address",
          "name": "taker",
          "type": "address"
        },
        {
          "indexed": true,
          "internalType": "address",
          "name": "offer",
          "type": "address"
        },
        {
          "indexed": false,
          "internalType": "address",
          "name": "deal",
          "type": "address"
        },
        {
          "indexed": false,
          "internalType": "string",
          "name": "terms",
          "type": "string"
        },
        {
          "indexed": false,
          "internalType": "string",
          "name": "paymentInstructions",
          "type": "string"
        }
      ],
      "name": "DealCreated",
      "type": "event"
    },
    {
      "anonymous": false,
      "inputs": [
        {
          "indexed": false,
          "internalType": "uint64",
          "name": "version",
          "type": "uint64"
        }
      ],
      "name": "Initialized",
      "type": "event"
    },
    {
      "anonymous": false,
      "inputs": [
        {
          "indexed": true,
          "internalType": "address",
          "name": "owner",
          "type": "address"
        },
        {
          "indexed": true,
          "internalType": "bytes8",
          "name": "token",
          "type": "bytes8"
        },
        {
          "indexed": true,
          "internalType": "bytes3",
          "name": "fiat",
          "type": "bytes3"
        },
        {
          "indexed": false,
          "internalType": "contract Offer",
          "name": "offer",
          "type": "address"
        }
      ],
      "name": "OfferCreated",
      "type": "event"
    },
    {
      "anonymous": false,
      "inputs": [
        {
          "indexed": true,
          "internalType": "address",
          "name": "previousOwner",
          "type": "address"
        },
        {
          "indexed": true,
          "internalType": "address",
          "name": "newOwner",
          "type": "address"
        }
      ],
      "name": "OwnershipTransferred",
      "type": "event"
    },
    {
      "anonymous": false,
      "inputs": [
        {
          "indexed": true,
          "internalType": "address",
          "name": "implementation",
          "type": "address"
        }
      ],
      "name": "Upgraded",
      "type": "event"
    },
    {
      "inputs": [],
      "name": "UPGRADE_INTERFACE_VERSION",
      "outputs": [
        {
          "internalType": "string",
          "name": "",
          "type": "string"
        }
      ],
      "stateMutability": "view",
      "type": "function"
    },
    {
      "inputs": [
        {
          "internalType": "contract Deal",
          "name": "deal",
          "type": "address"
        },
        {
          "internalType": "string",
          "name": "terms",
          "type": "string"
        },
        {
          "internalType": "string",
          "name": "paymentInstructions",
          "type": "string"
        }
      ],
      "name": "addDeal",
      "outputs": [],
      "stateMutability": "nonpayable",
      "type": "function"
    },
    {
      "inputs": [
        {
          "components": [
            {
              "internalType": "bytes3",
              "name": "symbol",
              "type": "bytes3"
            },
            {
              "internalType": "contract IChainlink",
              "name": "toUSD",
              "type": "address"
            }
          ],
          "internalType": "struct Fiats.Fiat[]",
          "name": "fiats_",
          "type": "tuple[]"
        }
      ],
      "name": "addFiats",
      "outputs": [],
      "stateMutability": "nonpayable",
      "type": "function"
    },
    {
      "inputs": [
        {
          "internalType": "bytes16[]",
          "name": "names_",
          "type": "bytes16[]"
        },
        {
          "internalType": "enum Methods.Group[]",
          "name": "groups_",
          "type": "uint8[]"
        }
      ],
      "name": "addMethods",
      "outputs": [],
      "stateMutability": "nonpayable",
      "type": "function"
    },
    {
      "inputs": [
        {
          "internalType": "contract Offer",
          "name": "offer",
          "type": "address"
        }
      ],
      "name": "addOffer",
      "outputs": [],
      "stateMutability": "nonpayable",
      "type": "function"
    },
    {
      "inputs": [
        {
          "internalType": "address[]",
          "name": "tokens_",
          "type": "address[]"
        },
        {
          "internalType": "uint16",
          "name": "uniswapPoolFee",
          "type": "uint16"
        }
      ],
      "name": "addTokens",
      "outputs": [],
      "stateMutability": "nonpayable",
      "type": "function"
    },
    {
      "inputs": [
        {
          "internalType": "uint256",
          "name": "amount_",
          "type": "uint256"
        },
        {
          "internalType": "bytes3",
          "name": "fromFiat_",
          "type": "bytes3"
        },
        {
          "internalType": "bytes8",
          "name": "toToken_",
          "type": "bytes8"
        },
        {
          "internalType": "uint256",
          "name": "denominator",
          "type": "uint256"
        }
      ],
      "name": "convert",
      "outputs": [
        {
          "internalType": "uint256",
          "name": "amount",
          "type": "uint256"
        }
      ],
      "stateMutability": "view",
      "type": "function"
    },
    {
      "inputs": [],
      "name": "fee",
      "outputs": [
        {
          "internalType": "uint16",
          "name": "",
          "type": "uint16"
        }
      ],
      "stateMutability": "view",
      "type": "function"
    },
    {
      "inputs": [],
      "name": "feeCollector",
      "outputs": [
        {
          "internalType": "address",
          "name": "",
          "type": "address"
        }
      ],
      "stateMutability": "view",
      "type": "function"
    },
    {
      "inputs": [
        {
          "internalType": "bytes3",
          "name": "symbol_",
          "type": "bytes3"
        }
      ],
      "name": "fiat",
      "outputs": [
        {
          "internalType": "contract IChainlink",
          "name": "",
          "type": "address"
        }
      ],
      "stateMutability": "view",
      "type": "function"
    },
    {
      "inputs": [],
      "name": "finder",
      "outputs": [
        {
          "internalType": "contract FinderInterface",
          "name": "",
          "type": "address"
        }
      ],
      "stateMutability": "view",
      "type": "function"
    },
    {
      "inputs": [],
      "name": "fundDeal",
      "outputs": [],
      "stateMutability": "nonpayable",
      "type": "function"
    },
    {
      "inputs": [],
      "name": "getFiats",
      "outputs": [
        {
          "internalType": "bytes3[]",
          "name": "",
          "type": "bytes3[]"
        }
      ],
      "stateMutability": "view",
      "type": "function"
    },
    {
      "inputs": [],
      "name": "getMethods",
      "outputs": [
        {
          "internalType": "bytes16[]",
          "name": "",
          "type": "bytes16[]"
        }
      ],
      "stateMutability": "view",
      "type": "function"
    },
    {
      "inputs": [
        {
          "internalType": "bytes8",
          "name": "token_",
          "type": "bytes8"
        },
        {
          "internalType": "bytes3",
          "name": "fiat_",
          "type": "bytes3"
        }
      ],
      "name": "getPrice",
      "outputs": [
        {
          "internalType": "uint256",
          "name": "price",
          "type": "uint256"
        }
      ],
      "stateMutability": "view",
      "type": "function"
    },
    {
      "inputs": [],
      "name": "getTokens",
      "outputs": [
        {
          "internalType": "bytes8[]",
          "name": "",
          "type": "bytes8[]"
        }
      ],
      "stateMutability": "view",
      "type": "function"
    },
    {
      "inputs": [
        {
          "internalType": "address",
          "name": "offer_",
          "type": "address"
        }
      ],
      "name": "hasOffer",
      "outputs": [
        {
          "internalType": "bool",
          "name": "",
          "type": "bool"
        }
      ],
      "stateMutability": "view",
      "type": "function"
    },
    {
      "inputs": [
        {
          "internalType": "address",
          "name": "finder_",
          "type": "address"
        }
      ],
      "name": "initialize",
      "outputs": [],
      "stateMutability": "nonpayable",
      "type": "function"
    },
    {
      "inputs": [
        {
          "internalType": "bytes16",
          "name": "name_",
          "type": "bytes16"
        }
      ],
      "name": "method",
      "outputs": [
        {
          "components": [
            {
              "internalType": "bool",
              "name": "exists",
              "type": "bool"
            },
            {
              "internalType": "enum Methods.Group",
              "name": "group",
              "type": "uint8"
            }
          ],
          "internalType": "struct Methods.Method",
          "name": "",
          "type": "tuple"
        }
      ],
      "stateMutability": "view",
      "type": "function"
    },
    {
      "inputs": [],
      "name": "offerFactory",
      "outputs": [
        {
          "internalType": "contract OfferFactory",
          "name": "",
          "type": "address"
        }
      ],
      "stateMutability": "view",
      "type": "function"
    },
    {
      "inputs": [],
      "name": "oracle",
      "outputs": [
        {
          "internalType": "address",
          "name": "",
          "type": "address"
        }
      ],
      "stateMutability": "view",
      "type": "function"
    },
    {
      "inputs": [],
      "name": "owner",
      "outputs": [
        {
          "internalType": "address",
          "name": "",
          "type": "address"
        }
      ],
      "stateMutability": "view",
      "type": "function"
    },
    {
      "inputs": [],
      "name": "profile",
      "outputs": [
        {
          "internalType": "contract Profile",
          "name": "",
          "type": "address"
        }
      ],
      "stateMutability": "view",
      "type": "function"
    },
    {
      "inputs": [],
      "name": "proxiableUUID",
      "outputs": [
        {
          "internalType": "bytes32",
          "name": "",
          "type": "bytes32"
        }
      ],
      "stateMutability": "view",
      "type": "function"
    },
    {
      "inputs": [
        {
          "internalType": "bytes3[]",
          "name": "fiat_",
          "type": "bytes3[]"
        }
      ],
      "name": "removeFiats",
      "outputs": [],
      "stateMutability": "nonpayable",
      "type": "function"
    },
    {
      "inputs": [
        {
          "internalType": "bytes16[]",
          "name": "names_",
          "type": "bytes16[]"
        }
      ],
      "name": "removeMethods",
      "outputs": [],
      "stateMutability": "nonpayable",
      "type": "function"
    },
    {
      "inputs": [
        {
          "internalType": "bytes8[]",
          "name": "token_",
          "type": "bytes8[]"
        }
      ],
      "name": "removeTokens",
      "outputs": [],
      "stateMutability": "nonpayable",
      "type": "function"
    },
    {
      "inputs": [],
      "name": "renounceOwnership",
      "outputs": [],
      "stateMutability": "nonpayable",
      "type": "function"
    },
    {
      "inputs": [
        {
          "internalType": "uint16",
          "name": "fee_",
          "type": "uint16"
        }
      ],
      "name": "setFee",
      "outputs": [],
      "stateMutability": "nonpayable",
      "type": "function"
    },
    {
      "inputs": [
        {
          "internalType": "bytes8",
          "name": "symbol_",
          "type": "bytes8"
        }
      ],
      "name": "token",
      "outputs": [
        {
          "components": [
            {
              "internalType": "contract IERC20Metadata",
              "name": "api",
              "type": "address"
            },
            {
              "internalType": "uint8",
              "name": "decimals",
              "type": "uint8"
            },
            {
              "internalType": "uint16",
              "name": "uniswapPoolFee",
              "type": "uint16"
            }
          ],
          "internalType": "struct Tokens.Token",
          "name": "",
          "type": "tuple"
        }
      ],
      "stateMutability": "view",
      "type": "function"
    },
    {
      "inputs": [
        {
          "internalType": "address",
          "name": "newOwner",
          "type": "address"
        }
      ],
      "name": "transferOwnership",
      "outputs": [],
      "stateMutability": "nonpayable",
      "type": "function"
    },
    {
      "inputs": [
        {
          "internalType": "address",
          "name": "newImplementation",
          "type": "address"
        },
        {
          "internalType": "bytes",
          "name": "data",
          "type": "bytes"
        }
      ],
      "name": "upgradeToAndCall",
      "outputs": [],
      "stateMutability": "payable",
      "type": "function"
    }
  ],
  "bytecode": "0x60a0604052306080523480156012575f5ffd5b506080516139446100395f395f818161193a015281816119630152611aa201526139445ff3fe6080604052600436106101db575f3560e01c8063a8691160116100fd578063c415b95c11610092578063dc2ac0ce11610062578063dc2ac0ce146105cc578063ddca3f43146105ed578063ecd7cf7814610621578063f2fde38b14610635575f5ffd5b8063c415b95c14610566578063c4d66de81461057a578063c5f2b41414610599578063d248dcba146105ad575f5ffd5b8063aeadbfa0116100cd578063aeadbfa0146104ea578063b6ce12cd14610509578063b9a3c84c14610528578063ba05043514610547575f5ffd5b8063a869116014610459578063aa6ca80814610478578063ab60636c14610499578063ad3cb1cc146104ad575f5ffd5b8063715018a6116101735780638e005553116101435780638e005553146103b557806399b72fd8146103d4578063a553269b1461041b578063a5ba2a5c1461043a575f5ffd5b8063715018a61461031a5780637c6cfa7c1461032e5780637dc0d1d01461034d5780638da5cb5b14610379575f5ffd5b80634f1ef286116101ae5780634f1ef2861461028157806352d1902d14610294578063651c4c40146102a85780636aeb4594146102f9575f5ffd5b80630290ae46146101df578063069e952514610214578063275659ca14610235578063398a929b14610254575b5f5ffd5b3480156101ea575f5ffd5b506101fe6101f9366004612cd7565b610654565b60405161020b9190612d12565b60405180910390f35b34801561021f575f5ffd5b5061023361022e366004612d92565b610678565b005b348015610240575f5ffd5b5061023361024f366004612e21565b6106c9565b34801561025f575f5ffd5b5061027361026e366004612ecb565b610921565b60405190815260200161020b565b61023361028f366004612f7a565b6109bb565b34801561029f575f5ffd5b506102736109da565b3480156102b3575f5ffd5b506102c76102c2366004613006565b6109f5565b6040805182516001600160a01b0316815260208084015160ff16908201529181015161ffff169082015260600161020b565b348015610304575f5ffd5b5061030d610a57565b60405161020b9190613021565b348015610325575f5ffd5b50610233610a68565b348015610339575f5ffd5b5061023361034836600461306d565b610a7b565b348015610358575f5ffd5b50610361610af6565b6040516001600160a01b03909116815260200161020b565b348015610384575f5ffd5b507f9016d09d72d40fdae2fd8ceac6b6234c7706214fd39c1cd1e609a0528c199300546001600160a01b0316610361565b3480156103c0575f5ffd5b506102336103cf3660046130ed565b610b6a565b3480156103df575f5ffd5b5061040b6103ee366004613106565b6001600160a01b03165f9081526006602052604090205460ff1690565b604051901515815260200161020b565b348015610426575f5ffd5b50610233610435366004613106565b610b94565b348015610445575f5ffd5b50610233610454366004613121565b610dba565b348015610464575f5ffd5b50610273610473366004613190565b610dff565b348015610483575f5ffd5b5061048c610eda565b60405161020b91906131c7565b3480156104a4575f5ffd5b50610361610ee5565b3480156104b8575f5ffd5b506104dd604051806040016040528060058152602001640352e302e360dc1b81525081565b60405161020b9190613208565b3480156104f5575f5ffd5b5061036161050436600461323d565b610f1f565b348015610514575f5ffd5b50610233610523366004612d92565b610f2b565b348015610533575f5ffd5b50600854610361906001600160a01b031681565b348015610552575f5ffd5b50610233610561366004612d92565b610f77565b348015610571575f5ffd5b50610361610fc2565b348015610585575f5ffd5b50610233610594366004613106565b611001565b3480156105a4575f5ffd5b5061023361111b565b3480156105b8575f5ffd5b506102336105c7366004613258565b61147c565b3480156105d7575f5ffd5b506105e06114c8565b60405161020b91906132a7565b3480156105f8575f5ffd5b5060085461060e90600160a01b900461ffff1681565b60405161ffff909116815260200161020b565b34801561062c575f5ffd5b506103616114d4565b348015610640575f5ffd5b5061023361064f366004613106565b611513565b604080518082019091525f8082526020820152610672600483611550565b92915050565b610680611617565b5f5b818110156106c4576106bc83838381811061069f5761069f6132e8565b90506020020160208101906106b4919061323d565b600290611672565b600101610682565b505050565b335f8181526006602052604090205460ff16610709576040516332b2baa360e01b81526001600160a01b0390911660048201526024015b60405180910390fd5b506001600160a01b0385165f818152600760209081526040808320805460ff1916600117905580516360146f8360e11b8152905192939263c028df06926004808401939192918290030181865afa158015610766573d5f5f3e3d5ffd5b505050506040513d601f19601f8201168201806040525081019061078a91906132fc565b9050806001600160a01b0316866001600160a01b031663782b36026040518163ffffffff1660e01b8152600401602060405180830381865afa1580156107d2573d5f5f3e3d5ffd5b505050506040513d601f19601f820116820180604052508101906107f691906132fc565b6001600160a01b0316826001600160a01b0316638da5cb5b6040518163ffffffff1660e01b8152600401602060405180830381865afa15801561083b573d5f5f3e3d5ffd5b505050506040513d601f19601f8201168201806040525081019061085f91906132fc565b6001600160a01b03167f36a85a14a6e9ba788600f1047a03ba4d03ec30453a5c3161d198876c00db37ed898989898960405161089f95949392919061333f565b60405180910390a46108af610ee5565b604051632f2ff15d60e01b8152684445414c5f524f4c4560b81b60048201526001600160a01b0388811660248301529190911690632f2ff15d906044015f604051808303815f87803b158015610903575f5ffd5b505af1158015610915573d5f5f3e3d5ffd5b50505050505050505050565b5f6001600160e81b03198416621554d160ea1b14801561095157506001600160c01b03198316635553444360e01b145b1561096a576109638561271084611814565b90506109b3565b5f61097581856118bf565b54600160a01b900460ff1690506109a08661099183600a613479565b61099b8789610dff565b611814565b91506109af8261271085611814565b9150505b949350505050565b6109c361192f565b6109cc826119d3565b6109d682826119db565b5050565b5f6109e3611a97565b505f5160206138ef5f395f51905f5290565b604080516060810182525f8082526020820181905291810191909152610a1b5f836118bf565b6040805160608101825291546001600160a01b0381168352600160a01b810460ff166020840152600160a81b900461ffff169082015292915050565b6060610a636004611ae0565b905090565b610a70611617565b610a795f611b65565b565b610a83611617565b5f5b83811015610aef57610ae7858583818110610aa257610aa26132e8565b9050602002016020810190610ab79190612cd7565b848484818110610ac957610ac96132e8565b9050602002016020810190610ade9190613484565b60049190611bd5565b600101610a85565b5050505050565b6008546040516302abf57960e61b8152654f7261636c6560d01b60048201525f916001600160a01b03169063aafd5e40906024015b602060405180830381865afa158015610b46573d5f5f3e3d5ffd5b505050506040513d601f19601f82011682018060405250810190610a6391906132fc565b610b72611617565b6008805461ffff909216600160a01b0261ffff60a01b19909216919091179055565b610b9c6114d4565b33906001600160a01b03168114610bd2576040516332b2baa360e01b81526001600160a01b039091166004820152602401610700565b506001600160a01b0381165f9081526006602052604090205460ff1615610c245760405162461bcd60e51b815260206004820152600660248201526565786973747360d01b6044820152606401610700565b6001600160a01b0381165f81815260066020908152604091829020805460ff19166001179055815163052876e560e51b8152915163a50edca09260048082019392918290030181865afa158015610c7d573d5f5f3e3d5ffd5b505050506040513d601f19601f82011682018060405250810190610ca191906134a2565b6001600160e81b031916816001600160a01b031663fc0c546a6040518163ffffffff1660e01b8152600401602060405180830381865afa158015610ce7573d5f5f3e3d5ffd5b505050506040513d601f19601f82011682018060405250810190610d0b91906134bd565b6001600160c01b031916826001600160a01b0316638da5cb5b6040518163ffffffff1660e01b8152600401602060405180830381865afa158015610d51573d5f5f3e3d5ffd5b505050506040513d601f19601f82011682018060405250810190610d7591906132fc565b6040516001600160a01b03858116825291909116907f7a0cee81b22fc7df044634a6fe4304cef7f5a134e54495e3fe20e4b558f069399060200160405180910390a450565b610dc2611617565b5f5b818110156106c457610df7838383818110610de157610de16132e8565b9050604002016002611cc390919063ffffffff16565b600101610dc4565b5f6001600160c01b03198316635553444360e01b14610e3157610e2a610e255f856118bf565b611da5565b9050610e37565b50620f42405b6001600160e81b03198216621554d160ea1b14610672575f610e5a600284611fe1565b6001600160a01b031663feaf968c6040518163ffffffff1660e01b815260040160a060405180830381865afa158015610e95573d5f5f3e3d5ffd5b505050506040513d601f19601f82011682018060405250810190610eb991906134f1565b50505091505080826305f5e100610ed0919061353f565b6109b3919061356a565b6060610a635f612039565b6008546040516302abf57960e61b81526650726f66696c6560c81b60048201525f916001600160a01b03169063aafd5e4090602401610b2b565b5f610672600283611fe1565b610f33611617565b5f5b818110156106c457610f6f838383818110610f5257610f526132e8565b9050602002016020810190610f679190612cd7565b6004906120bc565b600101610f35565b610f7f611617565b5f5b818110156106c457610fba838383818110610f9e57610f9e6132e8565b9050602002016020810190610fb39190613006565b5f90612259565b600101610f81565b6008546040516302abf57960e61b81526b2332b2a1b7b63632b1ba37b960a11b60048201525f916001600160a01b03169063aafd5e4090602401610b2b565b5f61100a612401565b805490915060ff600160401b82041615906001600160401b03165f811580156110305750825b90505f826001600160401b0316600114801561104b5750303b155b905081158015611059575080155b156110775760405163f92ee8a960e01b815260040160405180910390fd5b845467ffffffffffffffff1916600117855583156110a157845460ff60401b1916600160401b1785555b6110aa33612429565b60088054601960a21b6001600160b01b03199091166001600160a01b03891617179055831561111357845460ff60401b19168555604051600181527fc7f505b2f371ae2175ee4913f4499e1f2633a7b5936321eed1cdaeb6115181d29060200160405180910390a15b505050505050565b335f8181526007602052604090205460ff16611156576040516332b2baa360e01b81526001600160a01b039091166004820152602401610700565b50336001816001600160a01b031663c19d93fb6040518163ffffffff1660e01b8152600401602060405180830381865afa158015611196573d5f5f3e3d5ffd5b505050506040513d601f19601f820116820180604052508101906111ba919061357d565b60078111156111cb576111cb612cfe565b146112075760405162461bcd60e51b815260206004820152600c60248201526b1b9bdd081858d8d95c1d195960a21b6044820152606401610700565b5f816001600160a01b031663c028df066040518163ffffffff1660e01b8152600401602060405180830381865afa158015611244573d5f5f3e3d5ffd5b505050506040513d601f19601f8201168201806040525081019061126891906132fc565b90505f6112ce826001600160a01b031663fc0c546a6040518163ffffffff1660e01b8152600401602060405180830381865afa1580156112aa573d5f5f3e3d5ffd5b505050506040513d601f19601f820116820180604052508101906102c291906134bd565b5f015190505f826001600160a01b0316630c570c866040518163ffffffff1660e01b8152600401602060405180830381865afa158015611310573d5f5f3e3d5ffd5b505050506040513d601f19601f82011682018060405250810190611334919061359b565b61139d57836001600160a01b031663782b36026040518163ffffffff1660e01b8152600401602060405180830381865afa158015611374573d5f5f3e3d5ffd5b505050506040513d601f19601f8201168201806040525081019061139891906132fc565b6113fd565b826001600160a01b0316638da5cb5b6040518163ffffffff1660e01b8152600401602060405180830381865afa1580156113d9573d5f5f3e3d5ffd5b505050506040513d601f19601f820116820180604052508101906113fd91906132fc565b90506114768185866001600160a01b031663eec7faa16040518163ffffffff1660e01b8152600401602060405180830381865afa158015611440573d5f5f3e3d5ffd5b505050506040513d601f19601f8201168201806040525081019061146491906135ba565b6001600160a01b03861692919061243a565b50505050565b611484611617565b5f5b82811015611476576114c08484838181106114a3576114a36132e8565b90506020020160208101906114b89190613106565b5f9084612494565b600101611486565b6060610a63600261266d565b6008546040516302abf57960e61b81526b4f66666572466163746f727960a01b60048201525f916001600160a01b03169063aafd5e4090602401610b2b565b61151b611617565b6001600160a01b03811661154457604051631e4fbdf760e01b81525f6004820152602401610700565b61154d81611b65565b50565b604080518082019091525f80825260208201526001600160801b031982165f908152600184016020526040902054829060ff166115ad57604051631fabe27560e01b81526001600160801b03199091166004820152602401610700565b506001600160801b031982165f9081526001840160209081526040918290208251808401909352805460ff8082161515855291928401916101009091041660038111156115fc576115fc612cfe565b600381111561160d5761160d612cfe565b9052509392505050565b336116497f9016d09d72d40fdae2fd8ceac6b6234c7706214fd39c1cd1e609a0528c199300546001600160a01b031690565b6001600160a01b031614610a795760405163118cdaa760e01b8152336004820152602401610700565b6001600160e81b031981165f90815260018301602052604090205481906001600160a01b03166116c2576040516310bc594560e01b81526001600160e81b03199091166004820152602401610700565b5081545f5b818110156117e857826001600160e81b031916845f0182815481106116ee576116ee6132e8565b905f5260205f2090600a91828204019190066003029054906101000a900460e81b6001600160e81b031916036117e0578361172a6001846135d1565b8154811061173a5761173a6132e8565b905f5260205f2090600a91828204019190066003029054906101000a900460e81b845f01828154811061176f5761176f6132e8565b905f5260205f2090600a91828204019190066003026101000a81548162ffffff021916908360e81c0217905550835f018054806117ae576117ae6135e4565b600190038181905f5260205f2090600a91828204019190066003026101000a81549062ffffff021916905590556117e8565b6001016116c7565b50506001600160e81b0319165f90815260019091016020526040902080546001600160a01b0319169055565b5f80805f19858709858702925082811083820303915050805f03611848575f841161183d575f5ffd5b5082900490506118b8565b808411611853575f5ffd5b5f848688095f868103871696879004966002600389028118808a02820302808a02820302808a02820302808a02820302808a02820302808a02909103029181900381900460010186841190950394909402919094039290920491909117919091029150505b9392505050565b6001600160c01b031981165f90815260018301602052604081205482906001600160a01b031661190f57604051630455cc8b60e11b81526001600160c01b03199091166004820152602401610700565b50506001600160c01b0319165f9081526001919091016020526040902090565b306001600160a01b037f00000000000000000000000000000000000000000000000000000000000000001614806119b557507f00000000000000000000000000000000000000000000000000000000000000006001600160a01b03166119a95f5160206138ef5f395f51905f52546001600160a01b031690565b6001600160a01b031614155b15610a795760405163703e46dd60e11b815260040160405180910390fd5b61154d611617565b816001600160a01b03166352d1902d6040518163ffffffff1660e01b8152600401602060405180830381865afa925050508015611a35575060408051601f3d908101601f19168201909252611a32918101906135ba565b60015b611a5d57604051634c9c8ce360e01b81526001600160a01b0383166004820152602401610700565b5f5160206138ef5f395f51905f528114611a8d57604051632a87526960e21b815260048101829052602401610700565b6106c483836126f0565b306001600160a01b037f00000000000000000000000000000000000000000000000000000000000000001614610a795760405163703e46dd60e11b815260040160405180910390fd5b6060815f01805480602002602001604051908101604052809291908181526020018280548015611b5957602002820191905f5260205f20905f905b82829054906101000a900460801b6001600160801b03191681526020019060100190602082600f01049283019260010382029150808411611b1b5790505b50505050509050919050565b7f9016d09d72d40fdae2fd8ceac6b6234c7706214fd39c1cd1e609a0528c19930080546001600160a01b031981166001600160a01b03848116918217845560405192169182907f8be0079c531659141344cd1fd0a4f28419497f9722a3daafe3b4186f6b6457e0905f90a3505050565b6001600160801b031982165f90815260018401602052604090205460ff16611c36578254600180820185555f85815260209020600283040180546001600160801b03929093166010026101000a91820219909216608085901c919091021790555b6040518060400160405280600115158152602001826003811115611c5c57611c5c612cfe565b90526001600160801b031983165f90815260018501602090815260409091208251815490151560ff19821681178355928401519192839161ff001990911661ffff1990911617610100836003811115611cb757611cb7612cfe565b02179055505050505050565b5f6001830181611cd6602085018561323d565b6001600160e81b031916815260208101919091526040015f20546001600160a01b031603611d485781611d0c602083018361323d565b81546001810183555f9283526020909220600a808404909101805462ffffff929094066003026101000a9182021990931660e89290921c021790555b611d586040820160208301613106565b600183015f611d6a602085018561323d565b6001600160e81b031916815260208101919091526040015f2080546001600160a01b0319166001600160a01b03929092169190911790555050565b5f5f611daf612745565b83546001600160a01b0391821691631698ee829116611dd55f635553444360e01b6118bf565b54865460405160e085901b6001600160e01b03191681526001600160a01b039384166004820152929091166024830152600160a81b900461ffff166044820152606401602060405180830381865afa158015611e33573d5f5f3e3d5ffd5b505050506040513d601f19601f82011682018060405250810190611e5791906132fc565b6040805160028082526060820183529293505f92909160208301908036833701905050905061012c815f81518110611e9157611e916132e8565b602002602001019063ffffffff16908163ffffffff16815250505f81600181518110611ebf57611ebf6132e8565b63ffffffff9092166020928302919091019091015260405163883bdbfd60e01b81525f906001600160a01b0384169063883bdbfd90611f029085906004016135f8565b5f60405180830381865afa158015611f1c573d5f5f3e3d5ffd5b505050506040513d5f823e601f3d908101601f19168201604052611f4391908101906136c5565b5090505f815f81518110611f5957611f596132e8565b602002602001015182600181518110611f7457611f746132e8565b6020026020010151611f86919061378f565b90505f611f9d611f9861012c846137bc565b61277f565b9050611fd6611fb56001600160a01b0383168061353f565b8854611fcc90600160a01b900460ff16600a6137f8565b600160c01b611814565b979650505050505050565b6001600160e81b031981165f9081526001830160205260408120546001600160a01b03168281612031576040516310bc594560e01b81526001600160e81b03199091166004820152602401610700565b509392505050565b6060815f01805480602002602001604051908101604052809291908181526020018280548015611b5957602002820191905f5260205f20905f905b82829054906101000a900460c01b6001600160c01b03191681526020019060080190602082600701049283019260010382029150808411612074575094979650505050505050565b6001600160801b031981165f908152600183016020526040902054819060ff1661210657604051631fabe27560e01b81526001600160801b03199091166004820152602401610700565b5081545f5b8181101561223257826001600160801b031916845f018281548110612132576121326132e8565b905f5260205f2090600291828204019190066010029054906101000a900460801b6001600160801b0319160361222a578361216e6001846135d1565b8154811061217e5761217e6132e8565b905f5260205f2090600291828204019190066010029054906101000a900460801b845f0182815481106121b3576121b36132e8565b905f5260205f2090600291828204019190066010026101000a8154816001600160801b03021916908360801c0217905550835f018054806121f6576121f66135e4565b5f8281526020902060025f199092019182040180546001600160801b03601060018516026101000a02191690559055612232565b60010161210b565b50506001600160801b0319165f908152600190910160205260409020805461ffff19169055565b6001600160c01b031981165f90815260018301602052604090205481906001600160a01b03166122a957604051630455cc8b60e11b81526001600160c01b03199091166004820152602401610700565b5081545f5b818110156123d557826001600160c01b031916845f0182815481106122d5576122d56132e8565b905f5260205f2090600491828204019190066008029054906101000a900460c01b6001600160c01b031916036123cd57836123116001846135d1565b81548110612321576123216132e8565b905f5260205f2090600491828204019190066008029054906101000a900460c01b845f018281548110612356576123566132e8565b905f5260205f2090600491828204019190066008026101000a8154816001600160401b03021916908360c01c0217905550835f01805480612399576123996135e4565b5f8281526020902060045f199092019182040180546001600160401b03600860038516026101000a021916905590556123d5565b6001016122ae565b50506001600160c01b0319165f90815260019091016020526040902080546001600160b81b0319169055565b5f807ff0c57e16840df040f15088dc2f81fe391c3923bec73e23a9662efc9c229c6a00610672565b612431612aad565b61154d81612ad2565b604080516001600160a01b0385811660248301528416604482015260648082018490528251808303909101815260849091019091526020810180516001600160e01b03166323b872dd60e01b179052611476908590612ada565b5f8290505f816001600160a01b03166395d89b416040518163ffffffff1660e01b81526004015f60405180830381865afa1580156124d4573d5f5f3e3d5ffd5b505050506040513d5f823e601f3d908101601f191682016040526124fb9190810190613806565b6125049061387a565b6001600160c01b031981165f9081526001870160205260409020549091506001600160a01b031661256f5784546001810186555f86815260209020600482040180546001600160401b0360039093166008026101000a928302191660c084901c929092029190911790555b6040518060600160405280836001600160a01b03168152602001836001600160a01b031663313ce5676040518163ffffffff1660e01b8152600401602060405180830381865afa1580156125c5573d5f5f3e3d5ffd5b505050506040513d601f19601f820116820180604052508101906125e991906138b8565b60ff908116825261ffff9586166020928301526001600160c01b03199093165f9081526001909701815260409687902082518154928401519390980151909516600160a81b0261ffff60a81b1992909316600160a01b026001600160a81b03199091166001600160a01b039097169690961795909517949094169390931790555050565b6060815f01805480602002602001604051908101604052809291908181526020018280548015611b5957602002820191905f5260205f20905f905b82829054906101000a900460e81b6001600160e81b031916815260200190600301906020826002010492830192600103820291508084116126a8575094979650505050505050565b6126f982612b46565b6040516001600160a01b038316907fbc7cd75a20ee27fd9adebab32041f755214dbc6bffa90cc0225b39da2e5c2d3b905f90a280511561273d576106c48282612ba9565b6109d6612c1b565b6008546040516302abf57960e61b8152660556e69737761760cc1b60048201525f916001600160a01b03169063aafd5e4090602401610b2b565b5f5f5f8360020b12612794578260020b61279b565b8260020b5f035b9050620d89e88111156127d45760405162461bcd60e51b81526020600482015260016024820152601560fa1b6044820152606401610700565b5f816001165f036127e957600160801b6127fb565b6ffffcb933bd6fad37aa2d162d1a5940015b70ffffffffffffffffffffffffffffffffff169050600282161561282f576ffff97272373d413259a46990580e213a0260801c5b600482161561284e576ffff2e50f5f656932ef12357cf3c7fdcc0260801c5b600882161561286d576fffe5caca7e10e4e61c3624eaa0941cd00260801c5b601082161561288c576fffcb9843d60f6159c9db58835c9266440260801c5b60208216156128ab576fff973b41fa98c081472e6896dfb254c00260801c5b60408216156128ca576fff2ea16466c96a3843ec78b326b9753a0260801c5b60808216156128e9576ffe5dee046a99a2a811c461f1969c30530260801c5b610100821615612909576ffcbe86c7900a88aedcffc83b479aa3a40260801c5b610200821615612929576ff987a7253ac413176f2b074cf7815e540260801c5b610400821615612949576ff3392b0822b70005940c7a398e4b70f30260801c5b610800821615612969576fe7159475a2c29b7443b29c7fa6e889d90260801c5b611000821615612989576fd097f3bdfd2022b8845ad8f792aa58250260801c5b6120008216156129a9576fa9f746462d870fdf8a65dc1f90e061e50260801c5b6140008216156129c9576f70d869a156d2a1b890bb3df62baf32f70260801c5b6180008216156129e9576f31be135f97d08fd981231505542fcfa60260801c5b62010000821615612a0a576f09aa508b5b7a84e1c677de54f3e99bc90260801c5b62020000821615612a2a576e5d6af8dedb81196699c329225ee6040260801c5b62040000821615612a49576d2216e584f5fa1ea926041bedfe980260801c5b62080000821615612a66576b048a170391f7dc42444e8fa20260801c5b5f8460020b1315612a8557805f1981612a8157612a81613556565b0490505b640100000000810615612a99576001612a9b565b5f5b60ff16602082901c0192505050919050565b612ab5612c3a565b610a7957604051631afcd79f60e31b815260040160405180910390fd5b61151b612aad565b5f5f60205f8451602086015f885af180612af9576040513d5f823e3d81fd5b50505f513d91508115612b10578060011415612b1d565b6001600160a01b0384163b155b1561147657604051635274afe760e01b81526001600160a01b0385166004820152602401610700565b806001600160a01b03163b5f03612b7b57604051634c9c8ce360e01b81526001600160a01b0382166004820152602401610700565b5f5160206138ef5f395f51905f5280546001600160a01b0319166001600160a01b0392909216919091179055565b60605f5f846001600160a01b031684604051612bc591906138d8565b5f60405180830381855af49150503d805f8114612bfd576040519150601f19603f3d011682016040523d82523d5f602084013e612c02565b606091505b5091509150612c12858383612c53565b95945050505050565b3415610a795760405163b398979f60e01b815260040160405180910390fd5b5f612c43612401565b54600160401b900460ff16919050565b606082612c6857612c6382612caf565b6118b8565b8151158015612c7f57506001600160a01b0384163b155b15612ca857604051639996b31560e01b81526001600160a01b0385166004820152602401610700565b50806118b8565b805115612cbe57805160208201fd5b60405163d6bda27560e01b815260040160405180910390fd5b5f60208284031215612ce7575f5ffd5b81356001600160801b0319811681146118b8575f5ffd5b634e487b7160e01b5f52602160045260245ffd5b8151151581526020820151604082019060048110612d3e57634e487b7160e01b5f52602160045260245ffd5b8060208401525092915050565b5f5f83601f840112612d5b575f5ffd5b5081356001600160401b03811115612d71575f5ffd5b6020830191508360208260051b8501011115612d8b575f5ffd5b9250929050565b5f5f60208385031215612da3575f5ffd5b82356001600160401b03811115612db8575f5ffd5b612dc485828601612d4b565b90969095509350505050565b6001600160a01b038116811461154d575f5ffd5b5f5f83601f840112612df4575f5ffd5b5081356001600160401b03811115612e0a575f5ffd5b602083019150836020828501011115612d8b575f5ffd5b5f5f5f5f5f60608688031215612e35575f5ffd5b8535612e4081612dd0565b945060208601356001600160401b03811115612e5a575f5ffd5b612e6688828901612de4565b90955093505060408601356001600160401b03811115612e84575f5ffd5b612e9088828901612de4565b969995985093965092949392505050565b6001600160e81b03198116811461154d575f5ffd5b6001600160c01b03198116811461154d575f5ffd5b5f5f5f5f60808587031215612ede575f5ffd5b843593506020850135612ef081612ea1565b92506040850135612f0081612eb6565b9396929550929360600135925050565b634e487b7160e01b5f52604160045260245ffd5b604051601f8201601f191681016001600160401b0381118282101715612f4c57612f4c612f10565b604052919050565b5f6001600160401b03821115612f6c57612f6c612f10565b50601f01601f191660200190565b5f5f60408385031215612f8b575f5ffd5b8235612f9681612dd0565b915060208301356001600160401b03811115612fb0575f5ffd5b8301601f81018513612fc0575f5ffd5b8035612fd3612fce82612f54565b612f24565b818152866020838501011115612fe7575f5ffd5b816020840160208301375f602083830101528093505050509250929050565b5f60208284031215613016575f5ffd5b81356118b881612eb6565b602080825282518282018190525f918401906040840190835b818110156130625783516001600160801b03191683526020938401939092019160010161303a565b509095945050505050565b5f5f5f5f60408587031215613080575f5ffd5b84356001600160401b03811115613095575f5ffd5b6130a187828801612d4b565b90955093505060208501356001600160401b038111156130bf575f5ffd5b6130cb87828801612d4b565b95989497509550505050565b803561ffff811681146130e8575f5ffd5b919050565b5f602082840312156130fd575f5ffd5b6118b8826130d7565b5f60208284031215613116575f5ffd5b81356118b881612dd0565b5f5f60208385031215613132575f5ffd5b82356001600160401b03811115613147575f5ffd5b8301601f81018513613157575f5ffd5b80356001600160401b0381111561316c575f5ffd5b8560208260061b8401011115613180575f5ffd5b6020919091019590945092505050565b5f5f604083850312156131a1575f5ffd5b82356131ac81612eb6565b915060208301356131bc81612ea1565b809150509250929050565b602080825282518282018190525f918401906040840190835b818110156130625783516001600160c01b0319168352602093840193909201916001016131e0565b602081525f82518060208401528060208501604085015e5f604082850101526040601f19601f83011684010191505092915050565b5f6020828403121561324d575f5ffd5b81356118b881612ea1565b5f5f5f6040848603121561326a575f5ffd5b83356001600160401b0381111561327f575f5ffd5b61328b86828701612d4b565b909450925061329e9050602085016130d7565b90509250925092565b602080825282518282018190525f918401906040840190835b818110156130625783516001600160e81b0319168352602093840193909201916001016132c0565b634e487b7160e01b5f52603260045260245ffd5b5f6020828403121561330c575f5ffd5b81516118b881612dd0565b81835281816020850137505f828201602090810191909152601f909101601f19169091010190565b6001600160a01b03861681526060602082018190525f906133639083018688613317565b8281036040840152613376818587613317565b98975050505050505050565b634e487b7160e01b5f52601160045260245ffd5b6001815b60018411156133d1578085048111156133b5576133b5613382565b60018416156133c357908102905b60019390931c92800261339a565b935093915050565b5f826133e757506001610672565b816133f357505f610672565b816001811461340957600281146134135761342f565b6001915050610672565b60ff84111561342457613424613382565b50506001821b610672565b5060208310610133831016604e8410600b8410161715613452575081810a610672565b61345e5f198484613396565b805f190482111561347157613471613382565b029392505050565b5f6118b883836133d9565b5f60208284031215613494575f5ffd5b8135600481106118b8575f5ffd5b5f602082840312156134b2575f5ffd5b81516118b881612ea1565b5f602082840312156134cd575f5ffd5b81516118b881612eb6565b805169ffffffffffffffffffff811681146130e8575f5ffd5b5f5f5f5f5f60a08688031215613505575f5ffd5b61350e866134d8565b60208701516040880151606089015192975090955093509150613533608087016134d8565b90509295509295909350565b808202811582820484141761067257610672613382565b634e487b7160e01b5f52601260045260245ffd5b5f8261357857613578613556565b500490565b5f6020828403121561358d575f5ffd5b8151600881106118b8575f5ffd5b5f602082840312156135ab575f5ffd5b815180151581146118b8575f5ffd5b5f602082840312156135ca575f5ffd5b5051919050565b8181038181111561067257610672613382565b634e487b7160e01b5f52603160045260245ffd5b602080825282518282018190525f918401906040840190835b8181101561306257835163ffffffff16835260209384019390920191600101613611565b5f6001600160401b0382111561364d5761364d612f10565b5060051b60200190565b5f82601f830112613666575f5ffd5b8151613674612fce82613635565b8082825260208201915060208360051b860101925085831115613695575f5ffd5b602085015b838110156136bb5780516136ad81612dd0565b83526020928301920161369a565b5095945050505050565b5f5f604083850312156136d6575f5ffd5b82516001600160401b038111156136eb575f5ffd5b8301601f810185136136fb575f5ffd5b8051613709612fce82613635565b8082825260208201915060208360051b85010192508783111561372a575f5ffd5b6020840193505b8284101561375a5783518060060b8114613749575f5ffd5b825260209384019390910190613731565b8095505050505060208301516001600160401b03811115613779575f5ffd5b61378585828601613657565b9150509250929050565b600682810b9082900b03667fffffffffffff198112667fffffffffffff8213171561067257610672613382565b5f8160060b8360060b806137d2576137d2613556565b667fffffffffffff1982145f19821416156137ef576137ef613382565b90059392505050565b5f6118b860ff8416836133d9565b5f60208284031215613816575f5ffd5b81516001600160401b0381111561382b575f5ffd5b8201601f8101841361383b575f5ffd5b8051613849612fce82612f54565b81815285602083850101111561385d575f5ffd5b8160208401602083015e5f91810160200191909152949350505050565b805160208201516001600160c01b03198116919060088210156138b1576001600160c01b0319600883900360031b81901b82161692505b5050919050565b5f602082840312156138c8575f5ffd5b815160ff811681146118b8575f5ffd5b5f82518060208501845e5f92019182525091905056fe360894a13ba1a3210667c828492db98dca3e2076cc3735a920a3ca505d382bbca264697066735822122024f59fa0c39efac78cba3860bfd1cb0442d4cbf95a68e8792f8ead7dbb70fd1364736f6c63430008220033",
  "linkReferences": {},
  "deployedLinkReferences": {},
  "immutableReferences": {
    "847": [
      {
        "length": 32,
        "start": 6458
      },
      {
        "length": 32,
        "start": 6499
      },
      {
        "length": 32,
        "start": 6818
      }
    ]
  },
  "inputSourceName": "project/evm/protocol/Market.sol",
  "buildInfoId": "solc-0_8_34-6fb074e83ef50d6d7a0b17d4fad0c63c7f702a41"
}