{
  "_format": "hh3-artifact-1",
  "contractName": "Offer",
  "sourceName": "evm/protocol/Offer.sol",
  "abi": [
    {
      "inputs": [],
      "stateMutability": "nonpayable",
      "type": "constructor"
    },
    {
      "inputs": [],
      "name": "FailedDeployment",
      "type": "error"
    },
    {
      "inputs": [
        {
          "internalType": "uint256",
          "name": "balance",
          "type": "uint256"
        },
        {
          "internalType": "uint256",
          "name": "needed",
          "type": "uint256"
        }
      ],
      "name": "InsufficientBalance",
      "type": "error"
    },
    {
      "inputs": [],
      "name": "InvalidInitialization",
      "type": "error"
    },
    {
      "inputs": [],
      "name": "NotInitializing",
      "type": "error"
    },
    {
      "inputs": [
        {
          "internalType": "address",
          "name": "account",
          "type": "address"
        }
      ],
      "name": "UnauthorizedAccount",
      "type": "error"
    },
    {
      "anonymous": false,
      "inputs": [
        {
          "indexed": false,
          "internalType": "uint64",
          "name": "version",
          "type": "uint64"
        }
      ],
      "name": "Initialized",
      "type": "event"
    },
    {
      "anonymous": false,
      "inputs": [],
      "name": "OfferUpdated",
      "type": "event"
    },
    {
      "inputs": [
        {
          "internalType": "contract Market",
          "name": "market",
          "type": "address"
        },
        {
          "components": [
            {
              "internalType": "uint256",
              "name": "fiatAmount",
              "type": "uint256"
            },
            {
              "internalType": "string",
              "name": "paymentInstructions",
              "type": "string"
            }
          ],
          "internalType": "struct Offer.CreateDealParams",
          "name": "params",
          "type": "tuple"
        }
      ],
      "name": "createDeal",
      "outputs": [],
      "stateMutability": "nonpayable",
      "type": "function"
    },
    {
      "inputs": [],
      "name": "disabled",
      "outputs": [
        {
          "internalType": "bool",
          "name": "",
          "type": "bool"
        }
      ],
      "stateMutability": "view",
      "type": "function"
    },
    {
      "inputs": [],
      "name": "fiat",
      "outputs": [
        {
          "internalType": "bytes3",
          "name": "",
          "type": "bytes3"
        }
      ],
      "stateMutability": "view",
      "type": "function"
    },
    {
      "inputs": [
        {
          "internalType": "address",
          "name": "owner_",
          "type": "address"
        },
        {
          "components": [
            {
              "internalType": "bool",
              "name": "isSell",
              "type": "bool"
            },
            {
              "internalType": "uint16",
              "name": "rate",
              "type": "uint16"
            },
            {
              "components": [
                {
                  "internalType": "uint32",
                  "name": "min",
                  "type": "uint32"
                },
                {
                  "internalType": "uint32",
                  "name": "max",
                  "type": "uint32"
                }
              ],
              "internalType": "struct Offer.Limits",
              "name": "limits",
              "type": "tuple"
            },
            {
              "internalType": "bytes8",
              "name": "token",
              "type": "bytes8"
            },
            {
              "internalType": "bytes3",
              "name": "fiat",
              "type": "bytes3"
            },
            {
              "internalType": "bytes16",
              "name": "method",
              "type": "bytes16"
            },
            {
              "internalType": "string",
              "name": "terms",
              "type": "string"
            }
          ],
          "internalType": "struct Offer.OfferParams",
          "name": "params",
          "type": "tuple"
        }
      ],
      "name": "initialize",
      "outputs": [],
      "stateMutability": "nonpayable",
      "type": "function"
    },
    {
      "inputs": [],
      "name": "isSell",
      "outputs": [
        {
          "internalType": "bool",
          "name": "",
          "type": "bool"
        }
      ],
      "stateMutability": "view",
      "type": "function"
    },
    {
      "inputs": [],
      "name": "limits",
      "outputs": [
        {
          "internalType": "uint32",
          "name": "min",
          "type": "uint32"
        },
        {
          "internalType": "uint32",
          "name": "max",
          "type": "uint32"
        }
      ],
      "stateMutability": "view",
      "type": "function"
    },
    {
      "inputs": [],
      "name": "method",
      "outputs": [
        {
          "internalType": "bytes16",
          "name": "",
          "type": "bytes16"
        }
      ],
      "stateMutability": "view",
      "type": "function"
    },
    {
      "inputs": [],
      "name": "owner",
      "outputs": [
        {
          "internalType": "address",
          "name": "",
          "type": "address"
        }
      ],
      "stateMutability": "view",
      "type": "function"
    },
    {
      "inputs": [],
      "name": "rate",
      "outputs": [
        {
          "internalType": "uint16",
          "name": "",
          "type": "uint16"
        }
      ],
      "stateMutability": "view",
      "type": "function"
    },
    {
      "inputs": [
        {
          "internalType": "bool",
          "name": "disabled_",
          "type": "bool"
        }
      ],
      "name": "setDisabled",
      "outputs": [],
      "stateMutability": "nonpayable",
      "type": "function"
    },
    {
      "inputs": [
        {
          "components": [
            {
              "internalType": "uint32",
              "name": "min",
              "type": "uint32"
            },
            {
              "internalType": "uint32",
              "name": "max",
              "type": "uint32"
            }
          ],
          "internalType": "struct Offer.Limits",
          "name": "limits_",
          "type": "tuple"
        }
      ],
      "name": "setLimits",
      "outputs": [],
      "stateMutability": "nonpayable",
      "type": "function"
    },
    {
      "inputs": [
        {
          "internalType": "uint16",
          "name": "rate_",
          "type": "uint16"
        }
      ],
      "name": "setRate",
      "outputs": [],
      "stateMutability": "nonpayable",
      "type": "function"
    },
    {
      "inputs": [
        {
          "internalType": "string",
          "name": "terms_",
          "type": "string"
        }
      ],
      "name": "setTerms",
      "outputs": [],
      "stateMutability": "nonpayable",
      "type": "function"
    },
    {
      "inputs": [],
      "name": "terms",
      "outputs": [
        {
          "internalType": "string",
          "name": "",
          "type": "string"
        }
      ],
      "stateMutability": "view",
      "type": "function"
    },
    {
      "inputs": [],
      "name": "token",
      "outputs": [
        {
          "internalType": "bytes8",
          "name": "",
          "type": "bytes8"
        }
      ],
      "stateMutability": "view",
      "type": "function"
    }
  ],
  "bytecode": "0x6080604052348015600e575f5ffd5b5060156019565b60c9565b7ff0c57e16840df040f15088dc2f81fe391c3923bec73e23a9662efc9c229c6a00805468010000000000000000900460ff161560685760405163f92ee8a960e01b815260040160405180910390fd5b80546001600160401b039081161460c65780546001600160401b0319166001600160401b0390811782556040519081527fc7f505b2f371ae2175ee4913f4499e1f2633a7b5936321eed1cdaeb6115181d29060200160405180910390a15b50565b611201806100d65f395ff3fe608060405234801561000f575f5ffd5b50600436106100f0575f3560e01c80638da5cb5b11610093578063d502562511610063578063d502562514610260578063ebfd5de514610275578063ee07080514610288578063fc0c546a1461029b575f5ffd5b80638da5cb5b146101e4578063a50edca01461020e578063bed315f81461023a578063c7502c481461024d575f5ffd5b80632c4e722e116100ce5780632c4e722e1461015e5780636c5a7d1e1461018557806378f86afc14610198578063860aefcf146101ab575f5ffd5b806304249d0c146100f45780630c570c86146101095780632c383a9f14610131575b5f5ffd5b610107610102366004610c2b565b6102c1565b005b5f5461011c90600160a01b900460ff1681565b60405190151581526020015b60405180910390f35b60015461014590600160401b900460801b81565b6040516001600160801b03199091168152602001610128565b5f5461017290600160a81b900461ffff1681565b60405161ffff9091168152602001610128565b610107610193366004610c8c565b6104ec565b6101076101a6366004610cae565b610557565b6002546101c79063ffffffff8082169164010000000090041682565b6040805163ffffffff938416815292909116602083015201610128565b5f546101f6906001600160a01b031681565b6040516001600160a01b039091168152602001610128565b5f5461022190600160b81b900460e81b81565b6040516001600160e81b03199091168152602001610128565b610107610248366004610d1c565b6105b7565b61010761025b366004610d53565b61065c565b61026861071b565b6040516101289190610d6d565b610107610283366004610da2565b6107a7565b5f5461011c90600160d01b900460ff1681565b6001546102a89060c01b81565b6040516001600160c01b03199091168152602001610128565b5f6102ca610b7a565b805490915060ff600160401b820416159067ffffffffffffffff165f811580156102f15750825b90505f8267ffffffffffffffff16600114801561030d5750303b155b90508115801561031b575080155b156103395760405163f92ee8a960e01b815260040160405180910390fd5b845467ffffffffffffffff19166001178555831561036357845460ff60401b1916600160401b1785555b5f80546001600160a01b0319166001600160a01b03891617905561038a6020870187610c8c565b5f8054911515600160a01b0260ff60a01b199092169190911790556103b560a0870160808801610def565b6001805467ffffffffffffffff191660c092831c1790556103db90870160a08801610e16565b5f805460e89290921c600160b81b0262ffffff60b81b1990921691909117905561040b60e0870160c08801610e3d565b6001805460809290921c600160401b0277ffffffffffffffffffffffffffffffff00000000000000001990921691909117905561044e6040870160208801610d1c565b5f805461ffff92909216600160a81b0261ffff60a81b1990921691909117905560408601600261047e8282610e75565b5061048e905060e0870187610ecb565b60039161049c919083610fb2565b5083156104e357845460ff60401b19168555604051600181527fc7f505b2f371ae2175ee4913f4499e1f2633a7b5936321eed1cdaeb6115181d29060200160405180910390a15b50505050505050565b5f5433906001600160a01b03168114610529576040516332b2baa360e01b81526001600160a01b0390911660048201526024015b60405180910390fd5b505f805460ff60d01b1916600160d01b831515021781556040515f5160206111ac5f395f51905f529190a150565b5f5433906001600160a01b0316811461058f576040516332b2baa360e01b81526001600160a01b039091166004820152602401610520565b50600361059d828483610fb2565b506040515f5160206111ac5f395f51905f52905f90a15050565b5f5433906001600160a01b031681146105ef576040516332b2baa360e01b81526001600160a01b039091166004820152602401610520565b505f8161ffff161161062c5760405162461bcd60e51b8152600401610520906020808252600490820152637261746560e01b604082015260600190565b5f805461ffff60a81b1916600160a81b61ffff8416021781556040515f5160206111ac5f395f51905f529190a150565b5f5433906001600160a01b03168114610694576040516332b2baa360e01b81526001600160a01b039091166004820152602401610520565b506106a5604082016020830161106d565b63ffffffff166106b8602083018361106d565b63ffffffff16106106f45760405162461bcd60e51b81526020600482015260066024820152656c696d69747360d01b6044820152606401610520565b8060026107018282610e75565b50506040515f5160206111ac5f395f51905f52905f90a150565b6003805461072890610f29565b80601f016020809104026020016040519081016040528092919081815260200182805461075490610f29565b801561079f5780601f106107765761010080835404028352916020019161079f565b820191905f5260205f20905b81548152906001019060200180831161078257829003601f168201915b505050505081565b5f5433906001600160a01b031681036107df576040516332b2baa360e01b81526001600160a01b039091166004820152602401610520565b505f54600160d01b900460ff16156108245760405162461bcd60e51b8152602060048201526008602482015267191a5cd8589b195960c21b6044820152606401610520565b604051631336e5fb60e31b81523060048201526001600160a01b038316906399b72fd890602401602060405180830381865afa158015610866573d5f5f3e3d5ffd5b505050506040513d601f19601f8201168201806040525081019061088a9190611088565b6108c75760405162461bcd60e51b815260206004820152600e60248201526d1b9bdd081c9959da5cdd195c995960921b6044820152606401610520565b5f805460015460405163398a929b60e01b8152843560048201526001600160e81b0319600160b81b840460e81b1660248201526001600160c01b031960c09290921b919091166044820152600160a81b90910461ffff1660648201526001600160a01b0384169063398a929b90608401602060405180830381865afa158015610952573d5f5f3e3d5ffd5b505050506040513d601f19601f8201168201806040525081019061097691906110a3565b90505f836001600160a01b031663b9a3c84c6040518163ffffffff1660e01b8152600401602060405180830381865afa1580156109b5573d5f5f3e3d5ffd5b505050506040513d601f19601f820116820180604052508101906109d991906110ba565b6040516302abf57960e61b8152712232b0b624b6b83632b6b2b73a30ba34b7b760711b60048201526001600160a01b03919091169063aafd5e4090602401602060405180830381865afa158015610a32573d5f5f3e3d5ffd5b505050506040513d601f19601f82011682018060405250810190610a5691906110ba565b90505f610a6282610ba4565b6040805160a0810182526001600160a01b038881168252306020830190815233838501908152606084018981528a3560808601908152955163a4e0976160e01b815294518416600486015291518316602485015251821660448401525160648301529151608482015291925082169063a4e097619060a4015f604051808303815f87803b158015610af1575f5ffd5b505af1158015610b03573d5f5f3e3d5ffd5b5050506001600160a01b038616905063275659ca826003610b276020890189610ecb565b6040518563ffffffff1660e01b8152600401610b4694939291906110fd565b5f604051808303815f87803b158015610b5d575f5ffd5b505af1158015610b6f573d5f5f3e3d5ffd5b505050505050505050565b5f807ff0c57e16840df040f15088dc2f81fe391c3923bec73e23a9662efc9c229c6a005b92915050565b5f610b9e828280763d602d80600a3d3981f3363d3d373d3d3d363d730000008360601b60e81c175f526e5af43d82803e903d91602b57fd5bf38360781b176020526037600983f090506001600160a01b038116610b9e5760405163b06ebf3d60e01b815260040160405180910390fd5b6001600160a01b0381168114610c28575f5ffd5b50565b5f5f60408385031215610c3c575f5ffd5b8235610c4781610c14565b9150602083013567ffffffffffffffff811115610c62575f5ffd5b83016101008186031215610c74575f5ffd5b809150509250929050565b8015158114610c28575f5ffd5b5f60208284031215610c9c575f5ffd5b8135610ca781610c7f565b9392505050565b5f5f60208385031215610cbf575f5ffd5b823567ffffffffffffffff811115610cd5575f5ffd5b8301601f81018513610ce5575f5ffd5b803567ffffffffffffffff811115610cfb575f5ffd5b856020828401011115610d0c575f5ffd5b6020919091019590945092505050565b5f60208284031215610d2c575f5ffd5b813561ffff81168114610ca7575f5ffd5b5f60408284031215610d4d575f5ffd5b50919050565b5f60408284031215610d63575f5ffd5b610ca78383610d3d565b602081525f82518060208401528060208501604085015e5f604082850101526040601f19601f83011684010191505092915050565b5f5f60408385031215610db3575f5ffd5b8235610dbe81610c14565b9150602083013567ffffffffffffffff811115610dd9575f5ffd5b610de585828601610d3d565b9150509250929050565b5f60208284031215610dff575f5ffd5b81356001600160c01b031981168114610ca7575f5ffd5b5f60208284031215610e26575f5ffd5b81356001600160e81b031981168114610ca7575f5ffd5b5f60208284031215610e4d575f5ffd5b81356001600160801b031981168114610ca7575f5ffd5b63ffffffff81168114610c28575f5ffd5b8135610e8081610e64565b63ffffffff8116905081548163ffffffff1982161783556020840135610ea581610e64565b67ffffffff000000008160201b168367ffffffffffffffff198416171784555050505050565b5f5f8335601e19843603018112610ee0575f5ffd5b83018035915067ffffffffffffffff821115610efa575f5ffd5b602001915036819003821315610f0e575f5ffd5b9250929050565b634e487b7160e01b5f52604160045260245ffd5b600181811c90821680610f3d57607f821691505b602082108103610d4d57634e487b7160e01b5f52602260045260245ffd5b601f821115610fad5782821115610fad57805f5260205f20601f840160051c6020851015610f8657505f5b90810190601f840160051c035f5b81811015610fa9575f83820155600101610f94565b5050505b505050565b67ffffffffffffffff831115610fca57610fca610f15565b610fde83610fd88354610f29565b83610f5b565b5f601f84116001811461100f575f8515610ff85750838201355b5f19600387901b1c1916600186901b178355611066565b5f83815260208120601f198716915b8281101561103e578685013582556020948501946001909201910161101e565b508682101561105a575f1960f88860031b161c19848701351681555b505060018560011b0183555b5050505050565b5f6020828403121561107d575f5ffd5b8135610ca781610e64565b5f60208284031215611098575f5ffd5b8151610ca781610c7f565b5f602082840312156110b3575f5ffd5b5051919050565b5f602082840312156110ca575f5ffd5b8151610ca781610c14565b81835281816020850137505f828201602090810191909152601f909101601f19169091010190565b6001600160a01b03851681526060602082015283545f90819061111f81610f29565b806060860152600182165f811461113d57600181146111595761118a565b60ff1983166080870152608082151560051b870101935061118a565b885f5260205f205f5b8381101561118157815488820160800152600190910190602001611162565b87016080019450505b50505082810360408401526111a08185876110d5565b97965050505050505056fe4c720dcd587fe71ce2ffe44bdc46bd4c550e30dcd9967b1af0a41c95f45aeae4a2646970667358221220b6a1646bdfc7b0dfd37741435f013eae7b5b3f49c2f8d3f1cab10c1c753d4e7964736f6c63430008220033",
  "linkReferences": {},
  "deployedLinkReferences": {},
  "immutableReferences": {},
  "inputSourceName": "project/evm/protocol/Offer.sol",
  "buildInfoId": "solc-0_8_34-f1bc46cf040a896500f0c42f4e7b89cae302a83e"
}