{
  "_format": "hh3-artifact-1",
  "contractName": "Market",
  "sourceName": "evm/protocol/Market.sol",
  "abi": [
    {
      "inputs": [
        {
          "internalType": "address",
          "name": "target",
          "type": "address"
        }
      ],
      "name": "AddressEmptyCode",
      "type": "error"
    },
    {
      "inputs": [
        {
          "internalType": "address",
          "name": "implementation",
          "type": "address"
        }
      ],
      "name": "ERC1967InvalidImplementation",
      "type": "error"
    },
    {
      "inputs": [],
      "name": "ERC1967NonPayable",
      "type": "error"
    },
    {
      "inputs": [],
      "name": "FailedCall",
      "type": "error"
    },
    {
      "inputs": [
        {
          "internalType": "string",
          "name": "fiat",
          "type": "string"
        }
      ],
      "name": "InvalidFiat",
      "type": "error"
    },
    {
      "inputs": [],
      "name": "InvalidInitialization",
      "type": "error"
    },
    {
      "inputs": [
        {
          "internalType": "string",
          "name": "method",
          "type": "string"
        }
      ],
      "name": "InvalidMethod",
      "type": "error"
    },
    {
      "inputs": [
        {
          "internalType": "string",
          "name": "token",
          "type": "string"
        }
      ],
      "name": "InvalidToken",
      "type": "error"
    },
    {
      "inputs": [],
      "name": "NotInitializing",
      "type": "error"
    },
    {
      "inputs": [
        {
          "internalType": "address",
          "name": "owner",
          "type": "address"
        }
      ],
      "name": "OwnableInvalidOwner",
      "type": "error"
    },
    {
      "inputs": [
        {
          "internalType": "address",
          "name": "account",
          "type": "address"
        }
      ],
      "name": "OwnableUnauthorizedAccount",
      "type": "error"
    },
    {
      "inputs": [
        {
          "internalType": "address",
          "name": "token",
          "type": "address"
        }
      ],
      "name": "SafeERC20FailedOperation",
      "type": "error"
    },
    {
      "inputs": [],
      "name": "UUPSUnauthorizedCallContext",
      "type": "error"
    },
    {
      "inputs": [
        {
          "internalType": "bytes32",
          "name": "slot",
          "type": "bytes32"
        }
      ],
      "name": "UUPSUnsupportedProxiableUUID",
      "type": "error"
    },
    {
      "inputs": [
        {
          "internalType": "address",
          "name": "account",
          "type": "address"
        }
      ],
      "name": "UnauthorizedAccount",
      "type": "error"
    },
    {
      "anonymous": false,
      "inputs": [
        {
          "indexed": true,
          "internalType": "address",
          "name": "offerOwner",
          "type": "address"
        },
        {
          "indexed": true,
          "internalType": "address",
          "name": "taker",
          "type": "address"
        },
        {
          "indexed": true,
          "internalType": "address",
          "name": "offer",
          "type": "address"
        },
        {
          "indexed": false,
          "internalType": "address",
          "name": "deal",
          "type": "address"
        }
      ],
      "name": "DealCreated",
      "type": "event"
    },
    {
      "anonymous": false,
      "inputs": [
        {
          "indexed": false,
          "internalType": "uint64",
          "name": "version",
          "type": "uint64"
        }
      ],
      "name": "Initialized",
      "type": "event"
    },
    {
      "anonymous": false,
      "inputs": [
        {
          "indexed": true,
          "internalType": "address",
          "name": "owner",
          "type": "address"
        },
        {
          "indexed": true,
          "internalType": "string",
          "name": "token",
          "type": "string"
        },
        {
          "indexed": true,
          "internalType": "string",
          "name": "fiat",
          "type": "string"
        },
        {
          "indexed": false,
          "internalType": "contract Offer",
          "name": "offer",
          "type": "address"
        }
      ],
      "name": "OfferCreated",
      "type": "event"
    },
    {
      "anonymous": false,
      "inputs": [
        {
          "indexed": true,
          "internalType": "address",
          "name": "previousOwner",
          "type": "address"
        },
        {
          "indexed": true,
          "internalType": "address",
          "name": "newOwner",
          "type": "address"
        }
      ],
      "name": "OwnershipTransferred",
      "type": "event"
    },
    {
      "anonymous": false,
      "inputs": [
        {
          "indexed": true,
          "internalType": "address",
          "name": "implementation",
          "type": "address"
        }
      ],
      "name": "Upgraded",
      "type": "event"
    },
    {
      "inputs": [],
      "name": "UPGRADE_INTERFACE_VERSION",
      "outputs": [
        {
          "internalType": "string",
          "name": "",
          "type": "string"
        }
      ],
      "stateMutability": "view",
      "type": "function"
    },
    {
      "inputs": [
        {
          "internalType": "contract Deal",
          "name": "deal",
          "type": "address"
        }
      ],
      "name": "addDeal",
      "outputs": [],
      "stateMutability": "nonpayable",
      "type": "function"
    },
    {
      "inputs": [
        {
          "components": [
            {
              "internalType": "string",
              "name": "symbol",
              "type": "string"
            },
            {
              "internalType": "contract IChainlink",
              "name": "toUSD",
              "type": "address"
            }
          ],
          "internalType": "struct Fiats.Fiat[]",
          "name": "fiats_",
          "type": "tuple[]"
        }
      ],
      "name": "addFiats",
      "outputs": [],
      "stateMutability": "nonpayable",
      "type": "function"
    },
    {
      "inputs": [
        {
          "components": [
            {
              "internalType": "string",
              "name": "name",
              "type": "string"
            },
            {
              "internalType": "enum Methods.Group",
              "name": "group",
              "type": "uint8"
            }
          ],
          "internalType": "struct Methods.Method[]",
          "name": "new_",
          "type": "tuple[]"
        }
      ],
      "name": "addMethods",
      "outputs": [],
      "stateMutability": "nonpayable",
      "type": "function"
    },
    {
      "inputs": [
        {
          "internalType": "contract Offer",
          "name": "offer",
          "type": "address"
        }
      ],
      "name": "addOffer",
      "outputs": [],
      "stateMutability": "nonpayable",
      "type": "function"
    },
    {
      "inputs": [
        {
          "internalType": "address[]",
          "name": "tokens_",
          "type": "address[]"
        },
        {
          "internalType": "uint16",
          "name": "uniswapPoolFee",
          "type": "uint16"
        }
      ],
      "name": "addTokens",
      "outputs": [],
      "stateMutability": "nonpayable",
      "type": "function"
    },
    {
      "inputs": [
        {
          "internalType": "uint256",
          "name": "amount_",
          "type": "uint256"
        },
        {
          "internalType": "string",
          "name": "fromFiat_",
          "type": "string"
        },
        {
          "internalType": "string",
          "name": "toToken_",
          "type": "string"
        },
        {
          "internalType": "uint256",
          "name": "denominator",
          "type": "uint256"
        }
      ],
      "name": "convert",
      "outputs": [
        {
          "internalType": "uint256",
          "name": "amount",
          "type": "uint256"
        }
      ],
      "stateMutability": "view",
      "type": "function"
    },
    {
      "inputs": [],
      "name": "dealFactory",
      "outputs": [
        {
          "internalType": "contract DealFactory",
          "name": "",
          "type": "address"
        }
      ],
      "stateMutability": "view",
      "type": "function"
    },
    {
      "inputs": [
        {
          "internalType": "string",
          "name": "symbol_",
          "type": "string"
        }
      ],
      "name": "fiat",
      "outputs": [
        {
          "components": [
            {
              "internalType": "string",
              "name": "symbol",
              "type": "string"
            },
            {
              "internalType": "contract IChainlink",
              "name": "toUSD",
              "type": "address"
            }
          ],
          "internalType": "struct Fiats.Fiat",
          "name": "",
          "type": "tuple"
        }
      ],
      "stateMutability": "view",
      "type": "function"
    },
    {
      "inputs": [],
      "name": "fundDeal",
      "outputs": [],
      "stateMutability": "nonpayable",
      "type": "function"
    },
    {
      "inputs": [],
      "name": "getFiats",
      "outputs": [
        {
          "internalType": "bytes32[]",
          "name": "",
          "type": "bytes32[]"
        }
      ],
      "stateMutability": "view",
      "type": "function"
    },
    {
      "inputs": [],
      "name": "getMethods",
      "outputs": [
        {
          "components": [
            {
              "internalType": "string",
              "name": "name",
              "type": "string"
            },
            {
              "internalType": "enum Methods.Group",
              "name": "group",
              "type": "uint8"
            }
          ],
          "internalType": "struct Methods.Method[]",
          "name": "",
          "type": "tuple[]"
        }
      ],
      "stateMutability": "view",
      "type": "function"
    },
    {
      "inputs": [
        {
          "internalType": "bool",
          "name": "isSell_",
          "type": "bool"
        },
        {
          "internalType": "string",
          "name": "token_",
          "type": "string"
        },
        {
          "internalType": "string",
          "name": "fiat_",
          "type": "string"
        },
        {
          "internalType": "string",
          "name": "method_",
          "type": "string"
        }
      ],
      "name": "getOffers",
      "outputs": [
        {
          "internalType": "address[]",
          "name": "",
          "type": "address[]"
        }
      ],
      "stateMutability": "view",
      "type": "function"
    },
    {
      "inputs": [
        {
          "internalType": "string",
          "name": "token_",
          "type": "string"
        },
        {
          "internalType": "string",
          "name": "fiat_",
          "type": "string"
        }
      ],
      "name": "getPrice",
      "outputs": [
        {
          "internalType": "uint256",
          "name": "price",
          "type": "uint256"
        }
      ],
      "stateMutability": "view",
      "type": "function"
    },
    {
      "inputs": [],
      "name": "getTokens",
      "outputs": [
        {
          "components": [
            {
              "internalType": "contract IERC20Metadata",
              "name": "api",
              "type": "address"
            },
            {
              "internalType": "string",
              "name": "symbol",
              "type": "string"
            },
            {
              "internalType": "string",
              "name": "name",
              "type": "string"
            },
            {
              "internalType": "uint8",
              "name": "decimals",
              "type": "uint8"
            },
            {
              "internalType": "uint16",
              "name": "uniswapPoolFee",
              "type": "uint16"
            }
          ],
          "internalType": "struct Tokens.Token[]",
          "name": "",
          "type": "tuple[]"
        }
      ],
      "stateMutability": "view",
      "type": "function"
    },
    {
      "inputs": [
        {
          "internalType": "address",
          "name": "offer_",
          "type": "address"
        }
      ],
      "name": "hasOffer",
      "outputs": [
        {
          "internalType": "bool",
          "name": "",
          "type": "bool"
        }
      ],
      "stateMutability": "view",
      "type": "function"
    },
    {
      "inputs": [
        {
          "internalType": "address",
          "name": "offerFactory_",
          "type": "address"
        },
        {
          "internalType": "address",
          "name": "dealFactory_",
          "type": "address"
        },
        {
          "internalType": "address",
          "name": "repToken_",
          "type": "address"
        },
        {
          "internalType": "address",
          "name": "uniswap_",
          "type": "address"
        }
      ],
      "name": "initialize",
      "outputs": [],
      "stateMutability": "nonpayable",
      "type": "function"
    },
    {
      "inputs": [],
      "name": "mediator",
      "outputs": [
        {
          "internalType": "address",
          "name": "",
          "type": "address"
        }
      ],
      "stateMutability": "view",
      "type": "function"
    },
    {
      "inputs": [
        {
          "internalType": "string",
          "name": "symbol_",
          "type": "string"
        }
      ],
      "name": "method",
      "outputs": [
        {
          "components": [
            {
              "internalType": "string",
              "name": "name",
              "type": "string"
            },
            {
              "internalType": "enum Methods.Group",
              "name": "group",
              "type": "uint8"
            }
          ],
          "internalType": "struct Methods.Method",
          "name": "",
          "type": "tuple"
        }
      ],
      "stateMutability": "view",
      "type": "function"
    },
    {
      "inputs": [],
      "name": "offerFactory",
      "outputs": [
        {
          "internalType": "contract OfferFactory",
          "name": "",
          "type": "address"
        }
      ],
      "stateMutability": "view",
      "type": "function"
    },
    {
      "inputs": [],
      "name": "owner",
      "outputs": [
        {
          "internalType": "address",
          "name": "",
          "type": "address"
        }
      ],
      "stateMutability": "view",
      "type": "function"
    },
    {
      "inputs": [],
      "name": "proxiableUUID",
      "outputs": [
        {
          "internalType": "bytes32",
          "name": "",
          "type": "bytes32"
        }
      ],
      "stateMutability": "view",
      "type": "function"
    },
    {
      "inputs": [
        {
          "internalType": "string[]",
          "name": "fiat_",
          "type": "string[]"
        }
      ],
      "name": "removeFiats",
      "outputs": [],
      "stateMutability": "nonpayable",
      "type": "function"
    },
    {
      "inputs": [
        {
          "internalType": "string[]",
          "name": "names_",
          "type": "string[]"
        }
      ],
      "name": "removeMethods",
      "outputs": [],
      "stateMutability": "nonpayable",
      "type": "function"
    },
    {
      "inputs": [
        {
          "internalType": "string[]",
          "name": "token_",
          "type": "string[]"
        }
      ],
      "name": "removeTokens",
      "outputs": [],
      "stateMutability": "nonpayable",
      "type": "function"
    },
    {
      "inputs": [],
      "name": "renounceOwnership",
      "outputs": [],
      "stateMutability": "nonpayable",
      "type": "function"
    },
    {
      "inputs": [],
      "name": "repToken",
      "outputs": [
        {
          "internalType": "contract RepToken",
          "name": "",
          "type": "address"
        }
      ],
      "stateMutability": "view",
      "type": "function"
    },
    {
      "inputs": [
        {
          "internalType": "address",
          "name": "dealFactory_",
          "type": "address"
        }
      ],
      "name": "setDealFactory",
      "outputs": [],
      "stateMutability": "nonpayable",
      "type": "function"
    },
    {
      "inputs": [
        {
          "internalType": "address",
          "name": "mediator_",
          "type": "address"
        }
      ],
      "name": "setMediator",
      "outputs": [],
      "stateMutability": "nonpayable",
      "type": "function"
    },
    {
      "inputs": [
        {
          "internalType": "address",
          "name": "offerFactory_",
          "type": "address"
        }
      ],
      "name": "setOfferFactory",
      "outputs": [],
      "stateMutability": "nonpayable",
      "type": "function"
    },
    {
      "inputs": [
        {
          "internalType": "string",
          "name": "symbol_",
          "type": "string"
        }
      ],
      "name": "token",
      "outputs": [
        {
          "components": [
            {
              "internalType": "contract IERC20Metadata",
              "name": "api",
              "type": "address"
            },
            {
              "internalType": "string",
              "name": "symbol",
              "type": "string"
            },
            {
              "internalType": "string",
              "name": "name",
              "type": "string"
            },
            {
              "internalType": "uint8",
              "name": "decimals",
              "type": "uint8"
            },
            {
              "internalType": "uint16",
              "name": "uniswapPoolFee",
              "type": "uint16"
            }
          ],
          "internalType": "struct Tokens.Token",
          "name": "",
          "type": "tuple"
        }
      ],
      "stateMutability": "view",
      "type": "function"
    },
    {
      "inputs": [
        {
          "internalType": "address",
          "name": "newOwner",
          "type": "address"
        }
      ],
      "name": "transferOwnership",
      "outputs": [],
      "stateMutability": "nonpayable",
      "type": "function"
    },
    {
      "inputs": [
        {
          "internalType": "address",
          "name": "newImplementation",
          "type": "address"
        },
        {
          "internalType": "bytes",
          "name": "data",
          "type": "bytes"
        }
      ],
      "name": "upgradeToAndCall",
      "outputs": [],
      "stateMutability": "payable",
      "type": "function"
    }
  ],
  "bytecode": "0x60a0806040523460295730608052613d4c908161002e82396080518181816119800152611a300152f35b5f80fdfe60806040526004361015610011575f80fd5b5f803560e01c806313c44c61146124b75780631e7f300f1461247857806323596d1f146122e757806329034a5c146122c15780632c3d6c7e146120f75780633364da6e14611ff05780633d0f34da14611f9357806341c2440a14611f2857806349e3ec5e14611ee95780634bc5722814611ca25780634f1ef286146119df57806352d1902d146119655780636aeb4594146117e15780636d0501f6146117ba578063715018a6146117215780638da5cb5b146116db57806392fd22b9146116b4578063946ad0e81461166357806399b72fd8146116295780639b610c21146115ea578063a553269b1461123f578063aa6ca808146110c5578063ad3cb1cc14611060578063c300db4714610fca578063c5034dd014610f33578063c5f2b41414610b45578063d248dcba1461071e578063dc2ac0ce14610668578063ec4e8956146105c6578063ecd7cf781461059f578063f2fde38b14610572578063f8c8765e146103075763fecc7aa414610185575f80fd5b346103045760803660031901126103045760043580151581036103005760243567ffffffffffffffff81116102fc576101c29036906004016126ef565b919060443567ffffffffffffffff81116102f8576101e49036906004016126ef565b909360643567ffffffffffffffff81116102f4576102069036906004016126ef565b9390945f146102ca579161023a95916020610234948260405193849283378101600b81520301902091613811565b91613811565b604051908160208254918281520190819285526020852090855b8181106102b4575050508261026a9103836125b6565b604051928392602084019060208552518091526040840192915b818110610292575050500390f35b82516001600160a01b0316845285945060209384019390920191600101610284565b8254845260209093019260019283019201610254565b916102ef95916020610234948260405193849283378101600c81520301902091613811565b61023a565b8680fd5b8480fd5b8280fd5b5080fd5b80fd5b503461030457608036600319011261030457610321612568565b6024356001600160a01b0381168091036102fc576044356001600160a01b03811680910361056e57606435916001600160a01b0383168093036102f8577ff0c57e16840df040f15088dc2f81fe391c3923bec73e23a9662efc9c229c6a00549360ff8560401c16159467ffffffffffffffff811680159081610566575b600114908161055c575b159081610553575b5061052b5767ffffffffffffffff1981166001177ff0c57e16840df040f15088dc2f81fe391c3923bec73e23a9662efc9c229c6a00556001600160a01b039190866104ec575b506103ff61382a565b61040761382a565b61041033613318565b336001600160a01b03196014541617601455166001600160a01b031960115416176011556001600160a01b031960105416176010556001600160a01b031960125416176012556001600160a01b0319601354161760135561046e5780f35b68ff0000000000000000197ff0c57e16840df040f15088dc2f81fe391c3923bec73e23a9662efc9c229c6a0054167ff0c57e16840df040f15088dc2f81fe391c3923bec73e23a9662efc9c229c6a00557fc7f505b2f371ae2175ee4913f4499e1f2633a7b5936321eed1cdaeb6115181d2602060405160018152a180f35b68ffffffffffffffffff191668010000000000000001177ff0c57e16840df040f15088dc2f81fe391c3923bec73e23a9662efc9c229c6a00555f6103f6565b6004877ff92ee8a9000000000000000000000000000000000000000000000000000000008152fd5b9050155f6103b0565b303b1591506103a8565b87915061039e565b8380fd5b50346103045760203660031901126103045761059c61058f612568565b6105976133d3565b613318565b80f35b503461030457806003193601126103045760206001600160a01b0360115416604051908152f35b5034610304576020366003190112610304576004359067ffffffffffffffff82116103045761065c61060c6105fe366004860161262a565b6106066127c6565b506135da565b6001600160a01b036001604051926106238461257e565b61062c81613177565b8452015416602082019081526001600160a01b036040519384936020855251604060208601526060850190612648565b91511660408301520390f35b503461030457806003193601126103045760405180602060035491828152018091600385527fc2575a0e9e593c00f959f8c92f12db2869c3395a3b0502d05e2516446f71f85b90855b81811061070857505050826106c79103836125b6565b604051928392602084019060208552518091526040840192915b8181106106ef575050500390f35b82518452859450602093840193909201916001016106e1565b82548452602090930192600192830192016106b1565b50346103045760403660031901126103045760043567ffffffffffffffff811161030057610750903690600401612537565b906024359061ffff821680920361056e576107696133d3565b835b8360ff82161015610b4157611fe08160051b168201356001600160a01b038116809103610b3d57604051907f95d89b410000000000000000000000000000000000000000000000000000000082528682600481845afa918215610b32578792610b16575b506107d982613432565b906107e382613bf1565b506040517f06fdde030000000000000000000000000000000000000000000000000000000081528881600481855afa908115610b0b578991610ae9575b50604051937f313ce567000000000000000000000000000000000000000000000000000000008552602085600481865afa948515610ade578a95610a9d575b506040519261086d8461259a565b8352602083019081526040830191825260ff606084019516855260808301938885528a5260026020526001600160a01b038060408c20945116166001600160a01b0319845416178355600183019051805167ffffffffffffffff8111610a89576108e1816108db855461313f565b856134b8565b60208c601f8311600114610a27579061090e938361099a575b50508160011b915f199060031b1c19161790565b90555b518051600283019167ffffffffffffffff8211610a1357610936826108db855461313f565b6020908b601f84116001146109a557836003946109959a9998979460ff9794610972949261099a5750508160011b915f199060031b1c19161790565b90555b0192511662ffff008354925160081b169162ffffff1916171790556127a1565b61076b565b015190505f806108fa565b50838c52818c209190601f1984168d5b8181106109fb575093610995999897969360ff969360019383600398106109e4575b505050811b019055610975565b01515f1983881b60f8161c191690555f80806109d7565b929360206001819287860151815501950193016109b5565b60248b634e487b7160e01b81526041600452fd5b9192601f198416858452828420935b818110610a715750908460019594939210610a59575b505050811b019055610911565b01515f1960f88460031b161c191690555f8080610a4c565b92936020600181928786015181550195019301610a36565b60248c634e487b7160e01b81526041600452fd5b9094506020813d8211610ad6575b81610ab8602093836125b6565b81010312610ad2575160ff81168103610ad257935f61085f565b8980fd5b3d9150610aab565b6040513d8c823e3d90fd5b610b0591503d808b833e610afd81836125b6565b810190613281565b5f610820565b6040513d8b823e3d90fd5b610b2b9192503d8089833e610afd81836125b6565b905f6107cf565b6040513d89823e3d90fd5b8580fd5b8480f35b5034610304578060031936011261030457338152600e602052610b6f6040822054151533906130b7565b6040517fc19d93fb000000000000000000000000000000000000000000000000000000008152602081600481335afa908115610d9e578291610ef8575b506008811015610ee457600103610ea0576040516360146f8360e11b8152602081600481335afa8015610d9e576001600160a01b03918391610e81575b5016604051637e062a3560e11b81528281600481855afa908115610dd8576001600160a01b0391610c21918591610e67575b50613217565b51169060405163062b864360e11b8152602081600481855afa908115610e5c578491610e2d575b5015610de357602060049160405192838092638da5cb5b60e01b82525afa908115610dd8578391610da9575b505b82604051917feec7faa1000000000000000000000000000000000000000000000000000000008352602083600481335afa8015610d9e578290610d6b575b60209350604051906001600160a01b03858301937f23b872dd000000000000000000000000000000000000000000000000000000008552166024830152336044830152606482015260648152610d0b6084826125b6565b519082855af115610d5e5781513d610d555750803b155b610d2a575080f35b7f5274afe7000000000000000000000000000000000000000000000000000000008252600452602490fd5b60011415610d22565b50604051903d90823e3d90fd5b506020833d602011610d96575b81610d85602093836125b6565b810103126103005760209251610cb4565b3d9150610d78565b6040513d84823e3d90fd5b610dcb915060203d602011610dd1575b610dc381836125b6565b8101906130f4565b5f610c74565b503d610db9565b6040513d85823e3d90fd5b50604051633c159b0160e11b8152602081600481335afa908115610dd8578391610e0e575b50610c76565b610e27915060203d602011610dd157610dc381836125b6565b5f610e08565b610e4f915060203d602011610e55575b610e4781836125b6565b810190613300565b5f610c48565b503d610e3d565b6040513d86823e3d90fd5b610e7b91503d8087833e610afd81836125b6565b5f610c1b565b610e9a915060203d602011610dd157610dc381836125b6565b5f610be9565b606460405162461bcd60e51b815260206004820152600c60248201527f6e6f7420616363657074656400000000000000000000000000000000000000006044820152fd5b602482634e487b7160e01b81526021600452fd5b90506020813d602011610f2b575b81610f13602093836125b6565b8101031261030057516008811015610300575f610bac565b3d9150610f06565b50346103045760203660031901126103045760043567ffffffffffffffff811161030057610f65903690600401612537565b90610f6e6133d3565b825b60ff81169083821015610b4157610f9d610f98610f91610fc5948787612750565b36916125f4565b613432565b610fa681613a01565b508552600560205284600160408220610fbe8161346a565b01556127a1565b610f70565b50346103045760203660031901126103045760043567ffffffffffffffff811161030057610ffc903690600401612537565b906110056133d3565b825b60ff81169083821015610b4157611028610f98610f9161105b948787612750565b6110318161395c565b50855260026020528460036040822082815561104f6001820161346a565b610fbe6002820161346a565b611007565b5034610304578060031936011261030457506110c16040516110836040826125b6565b600581527f352e302e300000000000000000000000000000000000000000000000000000006020820152604051918291602083526020830190612648565b0390f35b503461030457806003193601126103045780546110e181613591565b906110ef60405192836125b6565b8082526110fe601f1991613591565b01825b818110611228575050815490825b81518110156111c157828110156111ad57600190848052806020862001548560031b1c855260026020526040852061ffff60036040519261114f8461259a565b6001600160a01b038154168452611167868201613177565b602085015261117860028201613177565b6040850152015460ff8116606084015260081c16608082015261119b82856135c6565b526111a681846135c6565b500161110f565b602484634e487b7160e01b81526032600452fd5b81846040519182916020830160208452825180915260408401602060408360051b870101940192905b8282106111f957505050500390f35b919360019193955060206112188192603f198a82030186528851612696565b96019201920185949391926111ea565b602090611233613113565b82828601015201611101565b5034610304576020366003190112610304576004356001600160a01b0381168091036103005761127c336001600160a01b036011541633146130b7565b61128581613ba1565b156115a657604051637e062a3560e11b81528281600481855afa908115610dd857839161158c575b506040519063052876e560e51b82528382600481865afa918215610e5c578492611570575b50604051917f2c383a9f0000000000000000000000000000000000000000000000000000000083528483600481875afa9283156114b5578593611554575b506040519163062b864360e11b8352602083600481885afa8015611549578593879161152a575b50156114fd579261139c6113a29261139c8661139687602361136461135e6113a79c6137d3565b876137f2565b604051907f414e5900000000000000000000000000000000000000000000000000000000008252600382015220613c3d565b506137d3565b906137f2565b613c3d565b505b60405190638da5cb5b60e01b8252602082600481845afa918215610dd85783926114dc575b5060405190637e062a3560e11b82528382600481845afa918215610e5c5784926114c0575b506040519163052876e560e51b83528483600481855afa9283156114b5578593611463575b5060206001600160a01b036114566114507f82ae0d3670d19cfeac878346ea2a629534d5670adada464dbf5427fdcd4f94d9946132e4565b956132e4565b956040519485521692a480f35b7f82ae0d3670d19cfeac878346ea2a629534d5670adada464dbf5427fdcd4f94d99193506001600160a01b036114566114506114aa6020943d808c833e610afd81836125b6565b969450505050611418565b6040513d87823e3d90fd5b6114d59192503d8086833e610afd81836125b6565b905f6113f3565b6114f691925060203d602011610dd157610dc381836125b6565b905f6113ce565b9261139c6113a29261139c8661151e87602361136461135e6115249c6137b4565b506137b4565b506113a9565b611543915060203d602011610e5557610e4781836125b6565b5f611337565b6040513d88823e3d90fd5b6115699193503d8087833e610afd81836125b6565b915f611310565b6115859192503d8086833e610afd81836125b6565b905f6112d2565b6115a091503d8085833e610afd81836125b6565b5f6112ad565b606460405162461bcd60e51b815260206004820152600660248201527f65786973747300000000000000000000000000000000000000000000000000006044820152fd5b5034610304576020366003190112610304576001600160a01b0361160c612568565b6116146133d3565b166001600160a01b0319601154161760115580f35b50346103045760203660031901126103045760406020916001600160a01b03611650612568565b168152600a835220541515604051908152f35b5034610304576020366003190112610304576004359067ffffffffffffffff8211610304576110c16116a061169b366004860161262a565b613217565b604051918291602083526020830190612696565b503461030457806003193601126103045760206001600160a01b0360105416604051908152f35b503461030457806003193601126103045760206001600160a01b037f9016d09d72d40fdae2fd8ceac6b6234c7706214fd39c1cd1e609a0528c1993005416604051908152f35b503461030457806003193601126103045761173a6133d3565b806001600160a01b037f9016d09d72d40fdae2fd8ceac6b6234c7706214fd39c1cd1e609a0528c199300546001600160a01b031981167f9016d09d72d40fdae2fd8ceac6b6234c7706214fd39c1cd1e609a0528c19930055167f8be0079c531659141344cd1fd0a4f28419497f9722a3daafe3b4186f6b6457e08280a380f35b503461030457806003193601126103045760206001600160a01b0360145416604051908152f35b50346103045780600319360112610304576006546117fe81613591565b9061180c60405192836125b6565b808252601f1961181b82613591565b01835b81811061194e575050600654835b82811061189a5783856040519182916020830160208452825180915260408401602060408360051b870101940192905b82821061186b57505050500390f35b9193600191939550602061188a8192603f198a8203018652885161266c565b960192019201859493919261185c565b8181101561193a577ff652222313e28459528d920b65115c16c04f3efc82aaedc97be59f3f377c0d3f810154600386901b1c85526008602052604080862090519060ff906001906118ea8461257e565b6118f381613177565b845201541660048110156119265760208201526001919061191482876135c6565b5261191f81866135c6565b500161182c565b602487634e487b7160e01b81526021600452fd5b602485634e487b7160e01b81526032600452fd5b6020906119596127c6565b8282870101520161181e565b50346103045780600319360112610304576001600160a01b037f00000000000000000000000000000000000000000000000000000000000000001630036119d05760206040517f360894a13ba1a3210667c828492db98dca3e2076cc3735a920a3ca505d382bbc8152f35b8063703e46dd60e11b60049252fd5b506040366003190112610304576119f4612568565b9060243567ffffffffffffffff8111610300573660238201121561030057611a269036906024816004013591016125f4565b6001600160a01b037f000000000000000000000000000000000000000000000000000000000000000016803014908115611c6d575b50611c5e57611a686133d3565b6001600160a01b03831690604051937f52d1902d000000000000000000000000000000000000000000000000000000008552602085600481865afa80958596611c2a575b50611ac45760248484634c9c8ce360e01b8252600452fd5b9091847f360894a13ba1a3210667c828492db98dca3e2076cc3735a920a3ca505d382bbc8103611bff5750813b15611bed57806001600160a01b03197f360894a13ba1a3210667c828492db98dca3e2076cc3735a920a3ca505d382bbc5416177f360894a13ba1a3210667c828492db98dca3e2076cc3735a920a3ca505d382bbc557fbc7cd75a20ee27fd9adebab32041f755214dbc6bffa90cc0225b39da2e5c2d3b8480a28151839015611bba5780836020611bae95519101845af43d15611bb2573d91611b92836125d8565b92611ba060405194856125b6565b83523d85602085013e613c8a565b5080f35b606091613c8a565b50505034611bc55780f35b807fb398979f0000000000000000000000000000000000000000000000000000000060049252fd5b634c9c8ce360e01b8452600452602483fd5b7faa1d49a4000000000000000000000000000000000000000000000000000000008552600452602484fd5b9095506020813d602011611c56575b81611c46602093836125b6565b810103126102f85751945f611aac565b3d9150611c39565b60048263703e46dd60e11b8152fd5b90506001600160a01b037f360894a13ba1a3210667c828492db98dca3e2076cc3735a920a3ca505d382bbc541614155f611a5b565b5034611e74576020366003190112611e74576004356001600160a01b038116809103611e7457611cdf336001600160a01b036010541633146130b7565b6040516360146f8360e11b8152602081600481855afa8015611e69576001600160a01b03915f91611eca575b5016611d1682613b51565b50805f52600f60205260405f208054600160401b811015611eb657611d409160018201815561379f565b81549060031b906001600160a01b0385831b921b1916179055604051638da5cb5b60e01b8152602081600481855afa908115611e69575f91611e97575b50604051633c159b0160e11b8152602081600481875afa908115611e69575f91611e78575b507f9e3ad268d37e8f67f13b2f7520dd416a4803c19e866fc335b606f6b401af6b4a60206001600160a01b03806040519488865216941692a46001600160a01b036012541690813b15611e74575f916044839260405194859384927f2f2ff15d0000000000000000000000000000000000000000000000000000000084527f4445414c5f524f4c450000000000000000000000000000000000000000000000600485015260248401525af18015611e6957611e5b575080f35b611e6791505f906125b6565b005b6040513d5f823e3d90fd5b5f80fd5b611e91915060203d602011610dd157610dc381836125b6565b5f611da2565b611eb0915060203d602011610dd157610dc381836125b6565b5f611d7d565b634e487b7160e01b5f52604160045260245ffd5b611ee3915060203d602011610dd157610dc381836125b6565b5f611d0b565b34611e74576020366003190112611e74576001600160a01b03611f0a612568565b611f126133d3565b166001600160a01b031960145416176014555f80f35b34611e74576080366003190112611e745760243567ffffffffffffffff8111611e7457611f5990369060040161262a565b60443567ffffffffffffffff8111611e7457602091611f7f611f8b92369060040161262a565b6064359160043561303e565b604051908152f35b34611e74576040366003190112611e745760043567ffffffffffffffff8111611e7457611fc490369060040161262a565b60243567ffffffffffffffff8111611e7457602091611fea611f8b92369060040161262a565b9061286c565b34611e74576020366003190112611e745760043567ffffffffffffffff8111611e745761202190369060040161262a565b6120296127c6565b506120326127c6565b5061203c81613432565b90815f52600760205260405f2054156120b557505f52600860205260405f2060ff60016040519261206c8461257e565b61207581613177565b84520154169060048210156120a1576110c191602082015260405191829160208352602083019061266c565b634e487b7160e01b5f52602160045260245ffd5b6120f3906040519182917f43ee2e92000000000000000000000000000000000000000000000000000000008352602060048401526024830190612648565b0390fd5b34611e74576020366003190112611e745760043567ffffffffffffffff8111611e7457612128903690600401612537565b6121306133d3565b5f915b60ff831682811015611e675761214a90838361277f565b92604084360312611e74576040516121618161257e565b843567ffffffffffffffff8111611e74576121816020913690880161262a565b958683520135946001600160a01b0386168603611e74576121a89060208301968752613432565b6121b181613b01565b505f52600560205260405f20905194855167ffffffffffffffff8111611eb6576121df816108db855461313f565b6020601f821160011461224d576001600160a01b039261221e83600194869461223b9a9b9c5f926122425750508160011b915f199060031b1c19161790565b85555b5116920191166001600160a01b03198254161790556127a1565b9190612133565b015190508c806108fa565b96601f19821690845f52885f20915f5b8181106122a95750836001600160a01b0395929361223b999a9b8795600197889510612291575b505050811b018555612221565b01515f1960f88460031b161c191690558b8080612284565b828b0151845560209a8b019a6001909401930161225d565b34611e74575f366003190112611e745760206001600160a01b0360125416604051908152f35b34611e74576020366003190112611e745760043567ffffffffffffffff8111611e7457612318903690600401612537565b6123206133d3565b5f5b81811061232b57005b61233681838561277f565b90612341828061271d565b90359060208110612467575b5061235781613aac565b612367575b506001915001612322565b5f52600860205260405f2061237c838061271d565b9067ffffffffffffffff8211611eb65761239a826108db855461313f565b5f90601f83116001146123fe5782600193602095936123cd935f926123f35750508160011b915f199060031b1c19161790565b81555b01920135916004831015611e745760019260ff801983541691161790558461235c565b013590508a806108fa565b601f19831691845f5260205f20925f5b81811061244f57509260019491928593836020989610612436575b505050811b0181556123d0565b01355f19600384901b60f8161c19169055898080612429565b9193602060018192878701358155019501920161240e565b5f199060200360031b1b168561234d565b34611e74576020366003190112611e74576001600160a01b03612499612568565b6124a16133d3565b166001600160a01b031960105416176010555f80f35b34611e74576020366003190112611e745760043567ffffffffffffffff8111611e74576124e8903690600401612537565b6124f06133d3565b5f5b8181106124fb57005b8061250f610f98610f916001948688612750565b61251881613881565b505f5260086020525f826040822061252f8161346a565b0155016124f2565b9181601f84011215611e745782359167ffffffffffffffff8311611e74576020808501948460051b010111611e7457565b600435906001600160a01b0382168203611e7457565b6040810190811067ffffffffffffffff821117611eb657604052565b60a0810190811067ffffffffffffffff821117611eb657604052565b90601f8019910116810190811067ffffffffffffffff821117611eb657604052565b67ffffffffffffffff8111611eb657601f01601f191660200190565b929192612600826125d8565b9161260e60405193846125b6565b829481845281830111611e74578281602093845f960137010152565b9080601f83011215611e7457816020612645933591016125f4565b90565b805180835260209291819084018484015e5f828201840152601f01601f1916010190565b9060206126828351604084526040840190612648565b9201519060048210156120a1576020015290565b906001600160a01b038251168152608061ffff816126d86126c6602087015160a0602088015260a0870190612648565b60408701518682036040880152612648565b9460ff606082015116606086015201511691015290565b9181601f84011215611e745782359167ffffffffffffffff8311611e745760208381860195010111611e7457565b903590601e1981360301821215611e74570180359067ffffffffffffffff8211611e7457602001918136038313611e7457565b9082101561276b576127679160051b81019061271d565b9091565b634e487b7160e01b5f52603260045260245ffd5b919081101561276b5760051b81013590603e1981360301821215611e74570190565b60ff1660ff81146127b25760010190565b634e487b7160e01b5f52601160045260245ffd5b604051906127d38261257e565b5f602083606081520152565b604051906127ee6040836125b6565b600482527f55534454000000000000000000000000000000000000000000000000000000006020830152565b604051906128296040836125b6565b600382527f55534400000000000000000000000000000000000000000000000000000000006020830152565b519069ffffffffffffffffffff82168203611e7457565b91909161288061287a6127df565b826134fb565b6130335761288d90613528565b6001600160a01b036013541660206001600160a01b0383541692606460036001600160a01b036128c36128be6127df565b613528565b54169201549460405194859384927f1698ee820000000000000000000000000000000000000000000000000000000084526004840152602483015261ffff8760081c1660448301525afa908115611e69575f91613014575b506040519061292b6060836125b6565b600282526020820191604036843761012c612945826135a9565b525f612950826135b6565b526040519283917f883bdbfd000000000000000000000000000000000000000000000000000000008352602483019060206004850152518091526044830191905f5b818110612ff55750505091816001600160a01b03815f950392165afa908115611e69575f91612edb575b506129d36129c9826135b6565b5160060b916135a9565b5160060b9003667fffffffffffff198112667fffffffffffff8213176127b25761012c9060060b0560020b5f81125f14612ed557805f03905b620d89e88211612e91576001821615612e685770ffffffffffffffffffffffffffffffffff6ffffcb933bd6fad37aa2d162d1a5940015b169160028116612e4c575b60048116612e30575b60088116612e14575b60108116612df8575b60208116612ddc575b60408116612dc0575b60808116612da4575b6101008116612d88575b6102008116612d6c575b6104008116612d50575b6108008116612d34575b6110008116612d18575b6120008116612cfc575b6140008116612ce0575b6180008116612cc4575b620100008116612ca8575b620200008116612c8d575b620400008116612c72575b6208000016612c59575b5f12612c4b575b6001600160a01b039063ffffffff8116612c425760ff5f5b169060201c011690818002918083048114901517156127b25760ff1690604d82116127b257612b5091600a0a90613643565b915b612b5d61287a61281a565b15612b655750565b9160a06001600160a01b036001612b7e600495966135da565b015416604051938480927ffeaf968c0000000000000000000000000000000000000000000000000000000082525afa918215611e69575f92612bf3575b506305f5e1008102908082046305f5e10014901517156127b2578115612bdf570490565b634e487b7160e01b5f52601260045260245ffd5b90915060a0813d60a011612c3a575b81612c0f60a093836125b6565b81010312611e7457612c2081612855565b50612c32608060208301519201612855565b50905f612bbb565b3d9150612c02565b60ff6001612b1e565b8015612bdf575f1904612b06565b6b048a170391f7dc42444e8fa290910260801c90612aff565b6d2216e584f5fa1ea926041bedfe9890920260801c91612af5565b916e5d6af8dedb81196699c329225ee6040260801c91612aea565b916f09aa508b5b7a84e1c677de54f3e99bc90260801c91612adf565b916f31be135f97d08fd981231505542fcfa60260801c91612ad4565b916f70d869a156d2a1b890bb3df62baf32f70260801c91612aca565b916fa9f746462d870fdf8a65dc1f90e061e50260801c91612ac0565b916fd097f3bdfd2022b8845ad8f792aa58250260801c91612ab6565b916fe7159475a2c29b7443b29c7fa6e889d90260801c91612aac565b916ff3392b0822b70005940c7a398e4b70f30260801c91612aa2565b916ff987a7253ac413176f2b074cf7815e540260801c91612a98565b916ffcbe86c7900a88aedcffc83b479aa3a40260801c91612a8e565b916ffe5dee046a99a2a811c461f1969c30530260801c91612a84565b916fff2ea16466c96a3843ec78b326b9753a0260801c91612a7b565b916fff973b41fa98c081472e6896dfb254c00260801c91612a72565b916fffcb9843d60f6159c9db58835c9266440260801c91612a69565b916fffe5caca7e10e4e61c3624eaa0941cd00260801c91612a60565b916ffff2e50f5f656932ef12357cf3c7fdcc0260801c91612a57565b916ffff97272373d413259a46990580e213a0260801c91612a4e565b70ffffffffffffffffffffffffffffffffff700100000000000000000000000000000000612a43565b606460405162461bcd60e51b815260206004820152600160248201527f54000000000000000000000000000000000000000000000000000000000000006044820152fd5b80612a0c565b90503d805f833e612eec81836125b6565b8101604082820312611e7457815167ffffffffffffffff8111611e745782019181601f84011215611e74578251612f2281613591565b93612f3060405195866125b6565b81855260208086019260051b82010190848211611e7457602001915b818310612fdb5750505060208101519067ffffffffffffffff8211611e7457019080601f83011215611e7457815191602080612f8785613591565b612f9460405191826125b6565b858152019360051b820101918211611e7457602001915b818310612fbb575050505f6129bc565b82516001600160a01b0381168103611e7457815260209283019201612fab565b82518060060b8103611e7457815260209283019201612f4c565b825163ffffffff16845286945060209384019390920191600101612992565b61302d915060203d602011610dd157610dc381836125b6565b5f61291b565b50620f424091612b52565b92919261305261304c61281a565b836134fb565b806130a0575b6130945760ff600361306986613528565b01541690604d82116127b25761308561308f936126459661286c565b91600a0a9061371a565b613690565b90506126459250613690565b506130b26130ac6127df565b856134fb565b613058565b156130bf5750565b6001600160a01b03907f32b2baa3000000000000000000000000000000000000000000000000000000005f521660045260245ffd5b90816020910312611e7457516001600160a01b0381168103611e745790565b604051906131208261259a565b5f60808382815260606020820152606060408201528260608201520152565b90600182811c9216801561316d575b602083101461315957565b634e487b7160e01b5f52602260045260245ffd5b91607f169161314e565b9060405191825f82549261318a8461313f565b80845293600181169081156131f557506001146131b1575b506131af925003836125b6565b565b90505f9291925260205f20905f915b8183106131d95750509060206131af928201015f6131a2565b60209193508060019154838589010152019101909184926131c0565b9050602092506131af94915060ff191682840152151560051b8201015f6131a2565b61322990613223613113565b50613528565b61ffff60036040519261323b8461259a565b6001600160a01b03815416845261325460018201613177565b602085015261326560028201613177565b6040850152015460ff8116606084015260081c16608082015290565b602081830312611e745780519067ffffffffffffffff8211611e74570181601f82011215611e74578051906132b5826125d8565b926132c360405194856125b6565b82845260208383010111611e7457815f9260208093018386015e8301015290565b602090604051918183925191829101835e81015f815203902090565b90816020910312611e7457518015158103611e745790565b6001600160a01b031680156133a7576001600160a01b037f9016d09d72d40fdae2fd8ceac6b6234c7706214fd39c1cd1e609a0528c19930054826001600160a01b03198216177f9016d09d72d40fdae2fd8ceac6b6234c7706214fd39c1cd1e609a0528c19930055167f8be0079c531659141344cd1fd0a4f28419497f9722a3daafe3b4186f6b6457e05f80a3565b7f1e4fbdf7000000000000000000000000000000000000000000000000000000005f525f60045260245ffd5b6001600160a01b037f9016d09d72d40fdae2fd8ceac6b6234c7706214fd39c1cd1e609a0528c1993005416330361340657565b7f118cdaa7000000000000000000000000000000000000000000000000000000005f523360045260245ffd5b602081519101519060208110613446575090565b5f199060200360031b1b1690565b81811061345f575050565b5f8155600101613454565b613474815461313f565b908161347e575050565b81601f5f931160011461348f575055565b818352602083206134ab91601f0160051c810190600101613454565b8082528160208120915555565b9190601f81116134c757505050565b6131af925f5260205f20906020601f840160051c830193106134f1575b601f0160051c0190613454565b90915081906134e4565b9081518151908181149384613512575b5050505090565b602092939450820120920120145f80808061350b565b61353181613432565b90815f52600160205260405f20541561355357505f52600260205260405f2090565b6120f3906040519182917fcfd0127e000000000000000000000000000000000000000000000000000000008352602060048401526024830190612648565b67ffffffffffffffff8111611eb65760051b60200190565b80511561276b5760200190565b80516001101561276b5760400190565b805182101561276b5760209160051b010190565b6135e381613432565b90815f52600460205260405f20541561360557505f52600560205260405f2090565b6120f3906040519182917f5e9cc8f6000000000000000000000000000000000000000000000000000000008352602060048401526024830190612648565b5f915f1981830991818102938480851094039380850394146136865783600160c01b1115610304575090600160c01b910990828211900360401b910360c01c1790565b5050505060c01c90565b5f1961271082099161271082029182808510940393808503941461370d5783821115611e745761271082910981805f03168092046002816003021880820260020302808202600203028082026002030280820260020302808202600203028091026002030293600183805f03040190848311900302920304170290565b5080925015611e74570490565b915f1982840992828102928380861095039480860395146137915784831115611e745782910981805f03168092046002816003021880820260020302808202600203028082026002030280820260020302808202600203028091026002030293600183805f03040190848311900302920304170290565b505080925015611e74570490565b805482101561276b575f5260205f2001905f90565b60208091604051928184925191829101835e8101600c81520301902090565b60208091604051928184925191829101835e8101600b81520301902090565b6040518151909260209284929081908501845e82019081520301902090565b6020919283604051948593843782019081520301902090565b60ff7ff0c57e16840df040f15088dc2f81fe391c3923bec73e23a9662efc9c229c6a005460401c161561385957565b7fd7e6bcf8000000000000000000000000000000000000000000000000000000005f5260045ffd5b5f818152600760205260409020548015613956575f1981018181116127b2576006545f198101919082116127b257818103613908575b50505060065480156138f4575f19016138d181600661379f565b8154905f199060031b1b191690556006555f5260076020525f6040812055600190565b634e487b7160e01b5f52603160045260245ffd5b61394061391961392a93600661379f565b90549060031b1c928392600661379f565b819391549060031b91821b915f19901b19161790565b90555f52600760205260405f20555f80806138b7565b50505f90565b5f818152600160205260409020548015613956575f1981018181116127b2575f545f198101919082116127b2578181036139cb575b5050505f5480156138f4575f19016139a9815f61379f565b8154905f199060031b1b191690555f555f5260016020525f6040812055600190565b6139eb6139db61392a935f61379f565b90549060031b1c9283925f61379f565b90555f52600160205260405f20555f8080613991565b5f818152600460205260409020548015613956575f1981018181116127b2576003545f198101919082116127b257818103613a74575b50505060035480156138f4575f1901613a5181600361379f565b8154905f199060031b1b191690556003555f5260046020525f6040812055600190565b613a96613a8561392a93600361379f565b90549060031b1c928392600361379f565b90555f52600460205260405f20555f8080613a37565b805f52600760205260405f2054155f14613afc57600654600160401b811015611eb657613ae561392a826001859401600655600661379f565b9055600654905f52600760205260405f2055600190565b505f90565b805f52600460205260405f2054155f14613afc57600354600160401b811015611eb657613b3a61392a826001859401600355600361379f565b9055600354905f52600460205260405f2055600190565b805f52600e60205260405f2054155f14613afc57600d54600160401b811015611eb657613b8a61392a826001859401600d55600d61379f565b9055600d54905f52600e60205260405f2055600190565b805f52600a60205260405f2054155f14613afc57600954600160401b811015611eb657613bda61392a826001859401600955600961379f565b9055600954905f52600a60205260405f2055600190565b805f52600160205260405f2054155f14613afc575f54600160401b811015611eb657613c2761392a8260018594015f555f61379f565b90555f54905f52600160205260405f2055600190565b5f82815260018201602052604090205461395657805490600160401b821015611eb65782613c7561392a84600180960185558461379f565b90558054925f520160205260405f2055600190565b90613cc75750805115613c9f57602081519101fd5b7fd6bda275000000000000000000000000000000000000000000000000000000005f5260045ffd5b81511580613d0d575b613cd8575090565b6001600160a01b03907f9996b315000000000000000000000000000000000000000000000000000000005f521660045260245ffd5b50803b15613cd056fea26469706673582212201243ab07731c8cf8b47e5bc332b9c431e3bdf12bf8351913030f2b3e77a7a07564736f6c634300081a0033",
  "linkReferences": {},
  "deployedLinkReferences": {},
  "immutableReferences": {
    "847": [
      {
        "length": 32,
        "start": 6528
      },
      {
        "length": 32,
        "start": 6704
      }
    ]
  },
  "inputSourceName": "project/evm/protocol/Market.sol",
  "buildInfoId": "solc-0_8_26-e850d4970f624858f3ada7ad97df25025039950b"
}