{
  "_format": "hh3-artifact-1",
  "contractName": "Deal",
  "sourceName": "evm/protocol/Deal.sol",
  "abi": [
    {
      "inputs": [],
      "stateMutability": "nonpayable",
      "type": "constructor"
    },
    {
      "inputs": [
        {
          "internalType": "enum IDeal.State",
          "name": "state",
          "type": "uint8"
        }
      ],
      "name": "ActionNotAllowedInThisState",
      "type": "error"
    },
    {
      "inputs": [],
      "name": "FeedbackAlreadyGiven",
      "type": "error"
    },
    {
      "inputs": [],
      "name": "InvalidInitialization",
      "type": "error"
    },
    {
      "inputs": [
        {
          "internalType": "bool",
          "name": "resolvedPaid",
          "type": "bool"
        }
      ],
      "name": "InvalidResolution",
      "type": "error"
    },
    {
      "inputs": [],
      "name": "NotInitializing",
      "type": "error"
    },
    {
      "inputs": [
        {
          "internalType": "address",
          "name": "token",
          "type": "address"
        }
      ],
      "name": "SafeERC20FailedOperation",
      "type": "error"
    },
    {
      "inputs": [
        {
          "internalType": "address",
          "name": "account",
          "type": "address"
        }
      ],
      "name": "UnauthorizedAccount",
      "type": "error"
    },
    {
      "anonymous": false,
      "inputs": [
        {
          "indexed": false,
          "internalType": "enum IDeal.State",
          "name": "state",
          "type": "uint8"
        },
        {
          "indexed": false,
          "internalType": "address",
          "name": "sender",
          "type": "address"
        }
      ],
      "name": "DealState",
      "type": "event"
    },
    {
      "anonymous": false,
      "inputs": [
        {
          "indexed": false,
          "internalType": "address",
          "name": "to",
          "type": "address"
        },
        {
          "indexed": false,
          "internalType": "bool",
          "name": "upvote",
          "type": "bool"
        },
        {
          "indexed": false,
          "internalType": "string",
          "name": "message",
          "type": "string"
        }
      ],
      "name": "FeedbackGiven",
      "type": "event"
    },
    {
      "anonymous": false,
      "inputs": [
        {
          "indexed": false,
          "internalType": "uint64",
          "name": "version",
          "type": "uint64"
        }
      ],
      "name": "Initialized",
      "type": "event"
    },
    {
      "anonymous": false,
      "inputs": [
        {
          "indexed": false,
          "internalType": "address",
          "name": "sender",
          "type": "address"
        },
        {
          "indexed": false,
          "internalType": "string",
          "name": "message",
          "type": "string"
        }
      ],
      "name": "Message",
      "type": "event"
    },
    {
      "inputs": [],
      "name": "accept",
      "outputs": [],
      "stateMutability": "nonpayable",
      "type": "function"
    },
    {
      "inputs": [],
      "name": "allowCancelUnacceptedAfter",
      "outputs": [
        {
          "internalType": "uint256",
          "name": "",
          "type": "uint256"
        }
      ],
      "stateMutability": "view",
      "type": "function"
    },
    {
      "inputs": [],
      "name": "allowCancelUnpaidAfter",
      "outputs": [
        {
          "internalType": "uint256",
          "name": "",
          "type": "uint256"
        }
      ],
      "stateMutability": "view",
      "type": "function"
    },
    {
      "inputs": [
        {
          "internalType": "bytes32",
          "name": "assertionId",
          "type": "bytes32"
        }
      ],
      "name": "assertionDisputedCallback",
      "outputs": [],
      "stateMutability": "nonpayable",
      "type": "function"
    },
    {
      "inputs": [
        {
          "internalType": "bytes32",
          "name": "assertionId",
          "type": "bytes32"
        },
        {
          "internalType": "bool",
          "name": "assertedTruthfully",
          "type": "bool"
        }
      ],
      "name": "assertionResolvedCallback",
      "outputs": [],
      "stateMutability": "nonpayable",
      "type": "function"
    },
    {
      "inputs": [],
      "name": "cancel",
      "outputs": [],
      "stateMutability": "nonpayable",
      "type": "function"
    },
    {
      "inputs": [],
      "name": "dispute",
      "outputs": [],
      "stateMutability": "nonpayable",
      "type": "function"
    },
    {
      "inputs": [
        {
          "internalType": "bool",
          "name": "upvote",
          "type": "bool"
        },
        {
          "internalType": "string",
          "name": "message_",
          "type": "string"
        }
      ],
      "name": "feedback",
      "outputs": [],
      "stateMutability": "nonpayable",
      "type": "function"
    },
    {
      "inputs": [],
      "name": "feedbackForOwner",
      "outputs": [
        {
          "internalType": "bool",
          "name": "given",
          "type": "bool"
        },
        {
          "internalType": "bool",
          "name": "upvote",
          "type": "bool"
        }
      ],
      "stateMutability": "view",
      "type": "function"
    },
    {
      "inputs": [],
      "name": "feedbackForTaker",
      "outputs": [
        {
          "internalType": "bool",
          "name": "given",
          "type": "bool"
        },
        {
          "internalType": "bool",
          "name": "upvote",
          "type": "bool"
        }
      ],
      "stateMutability": "view",
      "type": "function"
    },
    {
      "inputs": [],
      "name": "fiatAmount",
      "outputs": [
        {
          "internalType": "uint256",
          "name": "",
          "type": "uint256"
        }
      ],
      "stateMutability": "view",
      "type": "function"
    },
    {
      "inputs": [],
      "name": "fund",
      "outputs": [],
      "stateMutability": "nonpayable",
      "type": "function"
    },
    {
      "inputs": [
        {
          "components": [
            {
              "internalType": "address",
              "name": "finder",
              "type": "address"
            },
            {
              "internalType": "address",
              "name": "offer",
              "type": "address"
            },
            {
              "internalType": "address",
              "name": "taker",
              "type": "address"
            },
            {
              "internalType": "uint256",
              "name": "tokenAmount",
              "type": "uint256"
            },
            {
              "internalType": "uint256",
              "name": "fiatAmount",
              "type": "uint256"
            }
          ],
          "internalType": "struct IDeal.DealParams",
          "name": "params",
          "type": "tuple"
        }
      ],
      "name": "initialize",
      "outputs": [],
      "stateMutability": "nonpayable",
      "type": "function"
    },
    {
      "inputs": [],
      "name": "isPaid",
      "outputs": [
        {
          "internalType": "bool",
          "name": "",
          "type": "bool"
        }
      ],
      "stateMutability": "view",
      "type": "function"
    },
    {
      "inputs": [
        {
          "internalType": "string",
          "name": "message_",
          "type": "string"
        }
      ],
      "name": "message",
      "outputs": [],
      "stateMutability": "nonpayable",
      "type": "function"
    },
    {
      "inputs": [],
      "name": "offer",
      "outputs": [
        {
          "internalType": "contract IOffer",
          "name": "",
          "type": "address"
        }
      ],
      "stateMutability": "view",
      "type": "function"
    },
    {
      "inputs": [],
      "name": "paid",
      "outputs": [],
      "stateMutability": "nonpayable",
      "type": "function"
    },
    {
      "inputs": [],
      "name": "release",
      "outputs": [],
      "stateMutability": "nonpayable",
      "type": "function"
    },
    {
      "inputs": [],
      "name": "state",
      "outputs": [
        {
          "internalType": "enum IDeal.State",
          "name": "",
          "type": "uint8"
        }
      ],
      "stateMutability": "view",
      "type": "function"
    },
    {
      "inputs": [
        {
          "internalType": "bytes4",
          "name": "interfaceId",
          "type": "bytes4"
        }
      ],
      "name": "supportsInterface",
      "outputs": [
        {
          "internalType": "bool",
          "name": "",
          "type": "bool"
        }
      ],
      "stateMutability": "view",
      "type": "function"
    },
    {
      "inputs": [],
      "name": "taker",
      "outputs": [
        {
          "internalType": "address",
          "name": "",
          "type": "address"
        }
      ],
      "stateMutability": "view",
      "type": "function"
    },
    {
      "inputs": [],
      "name": "tokenAmount",
      "outputs": [
        {
          "internalType": "uint256",
          "name": "",
          "type": "uint256"
        }
      ],
      "stateMutability": "view",
      "type": "function"
    }
  ],
  "bytecode": "0x6080806040523460aa575f5160206125065f395f51905f525460ff8160401c16609b576002600160401b03196001600160401b038216016049575b60405161245790816100af8239f35b6001600160401b0319166001600160401b039081175f5160206125065f395f51905f525581527fc7f505b2f371ae2175ee4913f4499e1f2633a7b5936321eed1cdaeb6115181d290602090a15f80603a565b63f92ee8a960e01b5f5260045ffd5b5f80fdfe6080806040526004361015610012575f80fd5b5f905f3560e01c90816301ffc9a7146117e15750806305c766d1146116a1578063209ebc081461167c5780632852b71c14611567578063295b4e17146114cf57806363660a5c146114b257806370ea2dcd14610ec6578063782b360214610e9f57806385aa245214610e8157806386d1a69f1461083a578063a3a68fda14610807578063a4e097611461052f578063b60d4288146103ad578063b8efac3d1461038f578063c028df0614610368578063c19d93fb14610340578063d448a4ec1461032b578063de643c4a146102f7578063ea8a1af0146102c6578063eec7faa1146102a9578063f1b156b21461027c5763f240f7c314610110575f80fd5b34610279578060031936011261027957600460206001600160a01b036006541660405192838092638da5cb5b60e01b82525afa801561026e57829061022a575b6001600160a01b0391501633148015610211575b61016f903390611912565b60ff6005541660088110156101fd576001811080156101f3575b6101db5750600460ff1960055416176005557f483872b61d8baa4123ce48bdbfc11cc824c853d9848d59d558aa15304007491560405180604081016101cf8260046118bb565b3360208301520390a180f35b906101f1602492632aa0018f60e11b83526118ad565bfd5b5060038111610189565b602482634e487b7160e01b81526021600452fd5b5061016f6001600160a01b036001541633149050610164565b506020813d602011610266575b81610244602093836118c8565b810103126102625761025d6001600160a01b03916118fe565b610150565b5080fd5b3d9150610237565b6040513d84823e3d90fd5b80fd5b5034610279576040366003190112610279576024358015158103610262576102a690600435611d92565b80f35b503461027957806003193601126102795760209054604051908152f35b503461027957806003193601126102795760ff6005541660088110156101fd57600681116101db57506102a6611a06565b50346102795780600319360112610279576007546040805160ff8084161515825260089390931c9092161515602083015290f35b50346102795760203660031901126102795780f35b5034610279578060031936011261027957602060ff6005541661036660405180926118bb565bf35b503461027957806003193601126102795760206001600160a01b0360065416604051908152f35b50346102795780600319360112610279576020600454604051908152f35b50346102795780600319360112610279576103da336001600160a01b036103d26121e0565b163314611912565b6005549060ff821660088110156101fd57600181108015610525575b6101db57506001600160a01b03602082936024604051809481936302abf57960e61b83526513585c9ad95d60d21b600484015260081c165afa801561026e5782906104e5575b6001600160a01b03915016803b156104e2578180916004604051809481937fc5f2b4140000000000000000000000000000000000000000000000000000000083525af1801561026e576104cd575b5050600260ff1960055416176005557f483872b61d8baa4123ce48bdbfc11cc824c853d9848d59d558aa15304007491560405180604081016101cf8260026118bb565b816104d7916118c8565b61027957805f61048a565b50fd5b506020813d60201161051d575b816104ff602093836118c8565b810103126104e2576105186001600160a01b03916118fe565b61043c565b3d91506104f2565b50600181116103f6565b50346102795760a0366003190112610279577ff0c57e16840df040f15088dc2f81fe391c3923bec73e23a9662efc9c229c6a005460ff8160401c16159067ffffffffffffffff8116801590816107ff575b60011490816107f5575b1590816107ec575b506107c45767ffffffffffffffff1981166001177ff0c57e16840df040f15088dc2f81fe391c3923bec73e23a9662efc9c229c6a005581610785575b506004356001600160a01b03811681036107815774ffffffffffffffffffffffffffffffffffffffff006005549160081b167fffffffffffffffffffffff0000000000000000000000000000000000000000ff8216176005556024356001600160a01b0381169081810361077d575073ffffffffffffffffffffffffffffffffffffffff1960065416176006556001600160a01b0361066b6119ce565b1673ffffffffffffffffffffffffffffffffffffffff19600154161760015560643583556084356002556103844201804211610769577f483872b61d8baa4123ce48bdbfc11cc824c853d9848d59d558aa1530400749159160ff916003556106e16106d46119ce565b60405193849316836119e4565b0390a16106eb5780f35b68ff0000000000000000197ff0c57e16840df040f15088dc2f81fe391c3923bec73e23a9662efc9c229c6a0054167ff0c57e16840df040f15088dc2f81fe391c3923bec73e23a9662efc9c229c6a00557fc7f505b2f371ae2175ee4913f4499e1f2633a7b5936321eed1cdaeb6115181d2602060405160018152a180f35b602484634e487b7160e01b81526011600452fd5b8480fd5b8280fd5b68ffffffffffffffffff191668010000000000000001177ff0c57e16840df040f15088dc2f81fe391c3923bec73e23a9662efc9c229c6a00555f6105ce565b6004837ff92ee8a9000000000000000000000000000000000000000000000000000000008152fd5b9050155f610592565b303b15915061058a565b839150610580565b5034610279578060031936011261027957600880546040805160ff808416151582529290931c9091161515602083015290f35b503461027957806003193601126102795760055460ff8116600881101580610e6d57600282108015610e61575b610e4b57610e37576001600160a01b0391602091600603610e255761089460ff60065460a01c1680611999565b6024604051809481936302abf57960e61b83526513585c9ad95d60d21b600484015260081c165afa801561026e578290610deb575b6004915060206001600160a01b036006541660405193848092637e062a3560e11b82525afa918215610bf6578392610dba575b506001600160a01b0360208454926004604051809481937fddca3f43000000000000000000000000000000000000000000000000000000008352165afa8015610d32578490610d79575b60ff91501680820290828204148215171561076957612710610966612103565b9104820391821161076957829161097f91602494612369565b60206001600160a01b0360055460081c16604051938480926302abf57960e61b82527f466565436f6c6c6563746f72000000000000000000000000000000000000000060048301525afa918215610bf6578392610d3d575b50604051917f70a082310000000000000000000000000000000000000000000000000000000083523060048401526020836024816001600160a01b0386165afa918215610d32578492610cfc575b610a2f9350612369565b600760ff1960055416176005557f483872b61d8baa4123ce48bdbfc11cc824c853d9848d59d558aa1530400749156040518060408101610a708260076118bb565b3360208301520390a180602460206001600160a01b0360055460081c16604051928380926302abf57960e61b82526650726f66696c6560c81b60048301525afa801561026e578290610cbc575b6001600160a01b03915016600460206001600160a01b036006541660405192838092638da5cb5b60e01b82525afa908115610bf6578391610c82575b506001600160a01b0360405191634814f03560e01b8352166004820152602081602481855afa908115610bf6578391610c4d575b5080610c01575b506001600160a01b036001541660405190634814f03560e01b82526004820152602081602481855afa908115610bf6578391610bbd575b5080610b75575050f35b813b15610bb957829160248392604051948593849263b1241ce560e01b845260048401525af1801561026e57610ba85750f35b81610bb2916118c8565b6102795780f35b5050fd5b9250506020823d602011610bee575b81610bd9602093836118c8565b81010312610bea578291515f610b6b565b5f80fd5b3d9150610bcc565b6040513d85823e3d90fd5b813b15610bb9576040519063b1241ce560e01b82526004820152828160248183865af1908115610bf6578391610c38575b50610b34565b81610c42916118c8565b6104e257815f610c32565b9250506020823d602011610c7a575b81610c69602093836118c8565b81010312610bea578291515f610b2d565b3d9150610c5c565b90506020813d602011610cb4575b81610c9d602093836118c8565b81010312610bb957610cae906118fe565b5f610af9565b3d9150610c90565b506020813d602011610cf4575b81610cd6602093836118c8565b810103126104e257610cef6001600160a01b03916118fe565b610abd565b3d9150610cc9565b91506020833d602011610d2a575b81610d17602093836118c8565b81010312610bea57610a2f925191610a25565b3d9150610d0a565b6040513d86823e3d90fd5b9091506020813d602011610d71575b81610d59602093836118c8565b8101031261078157610d6a906118fe565b905f6109d7565b3d9150610d4c565b506020813d602011610db2575b81610d93602093836118c8565b81010312610dae575160ff81168103610dae5760ff90610946565b8380fd5b3d9150610d86565b610ddd91925060203d602011610de4575b610dd581836118c8565b810190612289565b905f6108fc565b503d610dcb565b506020813d602011610e1d575b81610e05602093836118c8565b8101031261026257610e186004916118fe565b6108c9565b3d9150610df8565b610e3233846103d26121e0565b610894565b602483634e487b7160e01b81526021600452fd5b6024846101f184632aa0018f60e11b83526118ad565b50508260068211610867565b602484634e487b7160e01b81526021600452fd5b50346102795780600319360112610279576020600254604051908152f35b503461027957806003193601126102795760206001600160a01b0360015416604051908152f35b5034610bea576040366003190112610bea5760043580151590818103610bea5760243567ffffffffffffffff8111610bea57610f0690369060040161187f565b926001600160a01b0360065416604051638da5cb5b60e01b8152602081600481855afa8015611319575f90611472575b6001600160a01b0391501633148015611459575b610f55903390611912565b60055460ff811660088110156114455760068110801561143b575b611423575060206001600160a01b03916024604051809481936302abf57960e61b83526650726f66696c6560c81b600484015260081c165afa8015611319575f906113e3575b6001600160a01b0391501690604051638da5cb5b60e01b8152602081600481855afa8015611319575f906113a3575b6001600160a01b0391501633145f146111405750906008549060ff82166111315786929161ff0060019260081b169061ffff191617176008556001600160a01b03600154169060405191634814f03560e01b83526004830152602082602481845afa918215610bf65783926110fa575b50816110a3575b50505061109d7f514f3189a205d863ff2592c318f6332fe754ed0f49672ec61ce3a48c3cc10dd6936001600160a01b0360015416926040519485948561196f565b0390a180f35b803b1561078157604051639a2edc4960e01b81526004810192909252841515602483015282908290604490829084905af1801561026e576110e5575b8061105c565b816110ef916118c8565b610dae57835f6110df565b925090506020823d602011611129575b81611117602093836118c8565b81010312610bea57859151905f611055565b3d915061110a565b60048763214230ff60e21b8152fd5b6001600160a01b0360015416331461115c575b50505050505080f35b6007549060ff821661139457600160209261ff0060049660081b169061ffff1916171760075560405193848092638da5cb5b60e01b82525afa918215611319575f92611358575b506001600160a01b0360405192634814f03560e01b8452166004830152602082602481845afa918215611319575f92611324575b50816112c1575b505060049060206001600160a01b036006541660405193848092638da5cb5b60e01b82525afa9182156112b6578592611253575b507f514f3189a205d863ff2592c318f6332fe754ed0f49672ec61ce3a48c3cc10dd693611245916040519485948561196f565b0390a15f8080808080611153565b9091506020813d6020116112ae575b8161126f602093836118c8565b8101031261077d577f514f3189a205d863ff2592c318f6332fe754ed0f49672ec61ce3a48c3cc10dd6936112a5611245926118fe565b92915093611212565b3d9150611262565b6040513d87823e3d90fd5b803b15610bea57604051639a2edc4960e01b8152600481019290925283151560248301525f908290604490829084905af1801561131957611303575b806111de565b6113109194505f906118c8565b5f9260046112fd565b6040513d5f823e3d90fd5b9091506020813d602011611350575b81611340602093836118c8565b81010312610bea5751905f6111d7565b3d9150611333565b9091506020813d60201161138c575b81611374602093836118c8565b81010312610bea57611385906118fe565b905f6111a3565b3d9150611367565b63214230ff60e21b5f5260045ffd5b506020813d6020116113db575b816113bd602093836118c8565b81010312610bea576113d66001600160a01b03916118fe565b610fe5565b3d91506113b0565b506020813d60201161141b575b816113fd602093836118c8565b81010312610bea576114166001600160a01b03916118fe565b610fb6565b3d91506113f0565b61143690632aa0018f60e11b5f526118ad565b60245ffd5b5060078111610f70565b634e487b7160e01b5f52602160045260245ffd5b50610f556001600160a01b036001541633149050610f4a565b506020813d6020116114aa575b8161148c602093836118c8565b81010312610bea576114a56001600160a01b03916118fe565b610f36565b3d915061147f565b34610bea575f366003190112610bea576020600354604051908152f35b34610bea575f366003190112610bea576114f3336001600160a01b036103d2612103565b60ff6005541660088110156114455760018110801561155d575b61142357600360ff1960055416176005557f483872b61d8baa4123ce48bdbfc11cc824c853d9848d59d558aa15304007491560405180604081016115528260036118bb565b3360208301520390a1005b506002811161150d565b34610bea575f366003190112610bea5760ff600554166008811015611445578061142357600460206001600160a01b036006541660405192838092638da5cb5b60e01b82525afa8015611319575f90611641575b6115d291506001600160a01b033391163314611912565b600160ff1960055416176005557f483872b61d8baa4123ce48bdbfc11cc824c853d9848d59d558aa15304007491560405180604081016116138260016118bb565b3360208301520390a1610e10420180421161162d57600455005b634e487b7160e01b5f52601160045260245ffd5b506020813d602011611674575b8161165b602093836118c8565b81010312610bea5761166f6115d2916118fe565b6115bb565b3d915061164e565b34610bea575f366003190112610bea57602060ff60065460a01c166040519015158152f35b34610bea576020366003190112610bea5760043567ffffffffffffffff8111610bea576116d36004913690830161187f565b60206001600160a01b036006541660405194858092638da5cb5b60e01b82525afa928315611319575f9361177d575b506001600160a01b037f811f7cff0a3374ff67cccc3726035d34ba70410e0256818a891e4d6acc01d88e931633148015611764575b611742903390611912565b61175f60405192839233845260406020850152604084019161194f565b0390a1005b506117426001600160a01b036001541633149050611737565b92506020833d6020116117d9575b81611798602093836118c8565b81010312610bea576001600160a01b036117d27f811f7cff0a3374ff67cccc3726035d34ba70410e0256818a891e4d6acc01d88e946118fe565b9350611702565b3d915061178b565b34610bea576020366003190112610bea57600435907fffffffff000000000000000000000000000000000000000000000000000000008216809203610bea57817f25f9f25e0000000000000000000000000000000000000000000000000000000060209314908115611855575b5015158152f35b7f01ffc9a7000000000000000000000000000000000000000000000000000000009150148361184e565b9181601f84011215610bea5782359167ffffffffffffffff8311610bea5760208381860195010111610bea57565b600881101561144557600452565b9060088210156114455752565b90601f8019910116810190811067ffffffffffffffff8211176118ea57604052565b634e487b7160e01b5f52604160045260245ffd5b51906001600160a01b0382168203610bea57565b1561191a5750565b6001600160a01b03907f32b2baa3000000000000000000000000000000000000000000000000000000005f521660045260245ffd5b908060209392818452848401375f828201840152601f01601f1916010190565b61199694926001600160a01b0360609316825215156020820152816040820152019161194f565b90565b156119a15750565b7fa054128c000000000000000000000000000000000000000000000000000000005f52151560045260245ffd5b6044356001600160a01b0381168103610bea5790565b9092916001600160a01b03602091611a008460408101976118bb565b16910152565b60ff60055416600881101561144557600614611d5d576001600160a01b0360065416604051638da5cb5b60e01b8152602081600481855afa8015611319575f90611d1d575b6001600160a01b0391501633148015611d04575b611a6a903390611912565b60055460ff811660088110156114455780611cd557604051638da5cb5b60e01b8152602081600481875afa8015611319575f90611c95575b6001600160a01b039150163303611ac2575b5050505b611ac06122a8565b565b600354421115611423575060206001600160a01b03916024604051809481936302abf57960e61b83526650726f66696c6560c81b600484015260081c165afa908115611319575f91611c4d575b5060206001600160a01b03600492169260405192838092638da5cb5b60e01b82525afa908115611319575f91611c13575b506001600160a01b0360405191634814f03560e01b8352166004820152602081602481855afa908115611319575f91611be1575b5080611b81575b80611ab4565b813b15610bea575f916024839260405194859384927fb58db50f00000000000000000000000000000000000000000000000000000000845260048401525af1801561131957611bd1575b80611b7b565b5f611bdb916118c8565b5f611bcb565b90506020813d602011611c0b575b81611bfc602093836118c8565b81010312610bea57515f611b74565b3d9150611bef565b90506020813d602011611c45575b81611c2e602093836118c8565b81010312610bea57611c3f906118fe565b5f611b40565b3d9150611c21565b90506020813d602011611c8d575b81611c68602093836118c8565b81010312610bea5760206001600160a01b03611c856004936118fe565b925050611b0f565b3d9150611c5b565b506020813d602011611ccd575b81611caf602093836118c8565b81010312610bea57611cc86001600160a01b03916118fe565b611aa2565b3d9150611ca2565b9150506001810361142357611cf4336001600160a01b036103d2612103565b6004544211156114235750611ab8565b50611a6a6001600160a01b036001541633149050611a5f565b506020813d602011611d55575b81611d37602093836118c8565b81010312610bea57611d506001600160a01b03916118fe565b611a4b565b3d9150611d2a565b611ab860ff60065460a01c161580611999565b51908115158203610bea57565b519067ffffffffffffffff82168203610bea57565b600554604051906302abf57960e61b82527f4f7261636c65000000000000000000000000000000000000000000000000000060048301526020826024816001600160a01b038560081c165afa918215611319575f926120c3575b50611e0560ff926001600160a01b033391163314611912565b166008811015611445576004036120bf57604051907f88302884000000000000000000000000000000000000000000000000000000008252600482015261020081602481335afa8015611319575f90611f3c575b60e0015190507f6a58fd32313d79a1021b3b09b8be5fc68037c5d69b07d5535c771b25ca9d770b8103611eef575060ff60a01b1960ff60a01b60065492151560a01b169116176006555b600660ff1960055416176005557f483872b61d8baa4123ce48bdbfc11cc824c853d9848d59d558aa1530400749156040518060408101611ee48260066118bb565b3360208301520390a1565b7fbbc4eebef1a3781f950b7caed20db914a831d2b8ad5d8aa7ff4089b8a0e00f9414611f1c575b50611ea3565b60ff60a01b1960ff60a01b600654921560a01b169116176006555f611f16565b50806102003d81116120b8575b611f5381836118c8565b8101036102008112610bea576040519061018082019082821067ffffffffffffffff8311176118ea5760a09160405212610bea5760405160a0810181811067ffffffffffffffff8211176118ea57604052611fad83611d70565b8152611fbb60208401611d70565b6020820152611fcc60408401611d70565b6040820152611fdd606084016118fe565b6060820152611fee608084016118fe565b6080820152815261200160a083016118fe565b602082015261201260c08301611d7d565b604082015261202360e08301611d70565b6060820152610100820151916001600160a01b0383168303610bea576101e06120ad9160e094608085015261205b6101208201611d7d565b60a085015261206d6101408201611d70565b60c0850152610160810151858501526101808101516101008501526101a08101516101208501526120a16101c082016118fe565b610140850152016118fe565b610160820152611e59565b503d611f49565b5050565b91506020823d6020116120fb575b816120de602093836118c8565b81010312610bea57611e056120f460ff936118fe565b9250611dec565b3d91506120d1565b6001600160a01b036006541660405163062b864360e11b8152602081600481855afa908115611319575f916121a6575b501561214957506001600160a01b036001541690565b602060049160405192838092638da5cb5b60e01b82525afa908115611319575f91612172575090565b90506020813d60201161219e575b8161218d602093836118c8565b81010312610bea57611996906118fe565b3d9150612180565b90506020813d6020116121d8575b816121c1602093836118c8565b81010312610bea576121d290611d70565b5f612133565b3d91506121b4565b6001600160a01b036006541660405163062b864360e11b8152602081600481855afa908115611319575f9161224f575b501561223f57602060049160405192838092638da5cb5b60e01b82525afa908115611319575f91612172575090565b506001600160a01b036001541690565b90506020813d602011612281575b8161226a602093836118c8565b81010312610bea5761227b90611d70565b5f612210565b3d915061225d565b90816020910312610bea57516001600160a01b0381168103610bea5790565b60ff6005541660088110156114455760021115612300575b600560ff19815416176005557f483872b61d8baa4123ce48bdbfc11cc824c853d9848d59d558aa1530400749156040518060408101611ee48260056118bb565b600460206001600160a01b036006541660405192838092637e062a3560e11b82525afa801561131957612345915f9161234a575b5061233d6121e0565b5f5491612369565b6122c0565b612363915060203d602011610de457610dd581836118c8565b5f612334565b916020915f91604051906001600160a01b03858301937fa9059cbb0000000000000000000000000000000000000000000000000000000085521660248301526044820152604481526123bc6064826118c8565b519082855af115611319575f513d61241857506001600160a01b0381163b155b6123e35750565b6001600160a01b03907f5274afe7000000000000000000000000000000000000000000000000000000005f521660045260245ffd5b600114156123dc56fea2646970667358221220df4048e1f199e5fbda0ee69656da7f1aa7d862e5879f3309689b71ec4ad73c6064736f6c63430008220033f0c57e16840df040f15088dc2f81fe391c3923bec73e23a9662efc9c229c6a00",
  "linkReferences": {},
  "deployedLinkReferences": {},
  "immutableReferences": {},
  "inputSourceName": "project/evm/protocol/Deal.sol",
  "buildInfoId": "solc-0_8_34-3ab5926e69baf6f5e0c1e8585304d8a4c7592dde"
}