{
  "_format": "hh3-artifact-1",
  "contractName": "Offer",
  "sourceName": "evm/protocol/Offer.sol",
  "abi": [
    {
      "inputs": [
        {
          "internalType": "address",
          "name": "market_",
          "type": "address"
        }
      ],
      "stateMutability": "nonpayable",
      "type": "constructor"
    },
    {
      "inputs": [],
      "name": "FailedDeployment",
      "type": "error"
    },
    {
      "inputs": [
        {
          "internalType": "uint256",
          "name": "balance",
          "type": "uint256"
        },
        {
          "internalType": "uint256",
          "name": "needed",
          "type": "uint256"
        }
      ],
      "name": "InsufficientBalance",
      "type": "error"
    },
    {
      "inputs": [],
      "name": "InvalidInitialization",
      "type": "error"
    },
    {
      "inputs": [],
      "name": "InvalidLimits",
      "type": "error"
    },
    {
      "inputs": [
        {
          "internalType": "uint256",
          "name": "method",
          "type": "uint256"
        }
      ],
      "name": "InvalidMethod",
      "type": "error"
    },
    {
      "inputs": [],
      "name": "InvalidRate",
      "type": "error"
    },
    {
      "inputs": [],
      "name": "NotInitializing",
      "type": "error"
    },
    {
      "inputs": [],
      "name": "OfferDisabled",
      "type": "error"
    },
    {
      "inputs": [
        {
          "internalType": "address",
          "name": "account",
          "type": "address"
        }
      ],
      "name": "UnauthorizedAccount",
      "type": "error"
    },
    {
      "anonymous": false,
      "inputs": [
        {
          "indexed": false,
          "internalType": "uint64",
          "name": "version",
          "type": "uint64"
        }
      ],
      "name": "Initialized",
      "type": "event"
    },
    {
      "anonymous": false,
      "inputs": [],
      "name": "OfferUpdated",
      "type": "event"
    },
    {
      "inputs": [
        {
          "components": [
            {
              "internalType": "uint256",
              "name": "fiatAmount",
              "type": "uint256"
            },
            {
              "internalType": "uint8",
              "name": "method",
              "type": "uint8"
            },
            {
              "internalType": "string",
              "name": "paymentInstructions",
              "type": "string"
            }
          ],
          "internalType": "struct IOffer.CreateDealParams",
          "name": "params",
          "type": "tuple"
        }
      ],
      "name": "createDeal",
      "outputs": [],
      "stateMutability": "nonpayable",
      "type": "function"
    },
    {
      "inputs": [],
      "name": "disabled",
      "outputs": [
        {
          "internalType": "bool",
          "name": "",
          "type": "bool"
        }
      ],
      "stateMutability": "view",
      "type": "function"
    },
    {
      "inputs": [],
      "name": "fiat",
      "outputs": [
        {
          "internalType": "bytes3",
          "name": "",
          "type": "bytes3"
        }
      ],
      "stateMutability": "view",
      "type": "function"
    },
    {
      "inputs": [
        {
          "internalType": "address",
          "name": "owner_",
          "type": "address"
        },
        {
          "components": [
            {
              "internalType": "bool",
              "name": "isSell",
              "type": "bool"
            },
            {
              "internalType": "uint16",
              "name": "rate",
              "type": "uint16"
            },
            {
              "components": [
                {
                  "internalType": "uint32",
                  "name": "min",
                  "type": "uint32"
                },
                {
                  "internalType": "uint32",
                  "name": "max",
                  "type": "uint32"
                }
              ],
              "internalType": "struct IOffer.Limits",
              "name": "limits",
              "type": "tuple"
            },
            {
              "internalType": "contract IERC20",
              "name": "token",
              "type": "address"
            },
            {
              "internalType": "bytes3",
              "name": "fiat",
              "type": "bytes3"
            },
            {
              "internalType": "uint256",
              "name": "methods",
              "type": "uint256"
            },
            {
              "internalType": "string",
              "name": "terms",
              "type": "string"
            }
          ],
          "internalType": "struct IOffer.OfferParams",
          "name": "params",
          "type": "tuple"
        }
      ],
      "name": "initialize",
      "outputs": [],
      "stateMutability": "nonpayable",
      "type": "function"
    },
    {
      "inputs": [],
      "name": "isSell",
      "outputs": [
        {
          "internalType": "bool",
          "name": "",
          "type": "bool"
        }
      ],
      "stateMutability": "view",
      "type": "function"
    },
    {
      "inputs": [],
      "name": "limits",
      "outputs": [
        {
          "internalType": "uint32",
          "name": "min",
          "type": "uint32"
        },
        {
          "internalType": "uint32",
          "name": "max",
          "type": "uint32"
        }
      ],
      "stateMutability": "view",
      "type": "function"
    },
    {
      "inputs": [],
      "name": "market",
      "outputs": [
        {
          "internalType": "contract IMarket",
          "name": "",
          "type": "address"
        }
      ],
      "stateMutability": "view",
      "type": "function"
    },
    {
      "inputs": [],
      "name": "methods",
      "outputs": [
        {
          "internalType": "uint256",
          "name": "",
          "type": "uint256"
        }
      ],
      "stateMutability": "view",
      "type": "function"
    },
    {
      "inputs": [],
      "name": "owner",
      "outputs": [
        {
          "internalType": "address",
          "name": "",
          "type": "address"
        }
      ],
      "stateMutability": "view",
      "type": "function"
    },
    {
      "inputs": [],
      "name": "rate",
      "outputs": [
        {
          "internalType": "uint16",
          "name": "",
          "type": "uint16"
        }
      ],
      "stateMutability": "view",
      "type": "function"
    },
    {
      "inputs": [
        {
          "internalType": "bool",
          "name": "disabled_",
          "type": "bool"
        }
      ],
      "name": "setDisabled",
      "outputs": [],
      "stateMutability": "nonpayable",
      "type": "function"
    },
    {
      "inputs": [
        {
          "components": [
            {
              "internalType": "uint32",
              "name": "min",
              "type": "uint32"
            },
            {
              "internalType": "uint32",
              "name": "max",
              "type": "uint32"
            }
          ],
          "internalType": "struct IOffer.Limits",
          "name": "limits_",
          "type": "tuple"
        }
      ],
      "name": "setLimits",
      "outputs": [],
      "stateMutability": "nonpayable",
      "type": "function"
    },
    {
      "inputs": [
        {
          "internalType": "uint16",
          "name": "rate_",
          "type": "uint16"
        }
      ],
      "name": "setRate",
      "outputs": [],
      "stateMutability": "nonpayable",
      "type": "function"
    },
    {
      "inputs": [
        {
          "internalType": "string",
          "name": "terms_",
          "type": "string"
        }
      ],
      "name": "setTerms",
      "outputs": [],
      "stateMutability": "nonpayable",
      "type": "function"
    },
    {
      "inputs": [],
      "name": "terms",
      "outputs": [
        {
          "internalType": "string",
          "name": "",
          "type": "string"
        }
      ],
      "stateMutability": "view",
      "type": "function"
    },
    {
      "inputs": [],
      "name": "token",
      "outputs": [
        {
          "internalType": "contract IERC20",
          "name": "",
          "type": "address"
        }
      ],
      "stateMutability": "view",
      "type": "function"
    }
  ],
  "bytecode": "0x60a03461010b57601f6114c038819003918201601f19168301916001600160401b0383118484101761010f5780849260209460405283398101031261010b57516001600160a01b0381169081900361010b576080525f5160206114a05f395f51905f525460ff8160401c166100fc576002600160401b03196001600160401b038216016100a6575b60405161137c908161012482396080518181816103dc0152610ae00152f35b6001600160401b0319166001600160401b039081175f5160206114a05f395f51905f52556040519081527fc7f505b2f371ae2175ee4913f4499e1f2633a7b5936321eed1cdaeb6115181d290602090a15f610087565b63f92ee8a960e01b5f5260045ffd5b5f80fd5b634e487b7160e01b5f52604160045260245ffdfe6080806040526004361015610012575f80fd5b5f905f3560e01c9081630c570c861461122f5750806329907a91146112125780632c4e722e146111ef5780634304db7b14610d685780636c5a7d1e14610cc657806378f86afc14610b0457806380f5560514610ac1578063860aefcf14610a945780638da5cb5b14610a6f578063a50edca014610a2e578063abc1224d1461037d578063bed315f8146102d4578063c7502c4814610206578063d50256251461011c578063ee070805146100f75763fc0c546a146100ce575f80fd5b346100f457806003193601126100f45760206001600160a01b0360025416604051908152f35b80fd5b50346100f457806003193601126100f45760ff6020915460d01c166040519015158152f35b50346100f457806003193601126100f45760405190809160045461013f81611250565b8083526020830191600181169081156101eb5750600114610195575b5061016b82604094950383611288565b8251938492602084525180928160208601528585015e828201840152601f01601f19168101030190f35b600484529350827f8a35acfbc15ff81a39ae7d344fd709f28e8600b4aa8c65c6b64bfe7fe36bd19b5b8582106101d557508201602001935061016b61015b565b60018160209254838588010152019101906101be565b60ff1916835250151560051b8201602001935061016b61015b565b50346100f45760403660031901126100f45761022e336001600160a01b038354163314611314565b6102366112aa565b63ffffffff806102446112bd565b16911610156102ac5763ffffffff61025a6112aa565b166003549067ffffffff000000006102706112bd565b60201b169167ffffffffffffffff191617176003557f4c720dcd587fe71ce2ffe44bdc46bd4c550e30dcd9967b1af0a41c95f45aeae48180a180f35b807fe773e0a90000000000000000000000000000000000000000000000000000000060049252fd5b50346100f45760203660031901126100f45760043561ffff8116908181036103795782549161030e336001600160a01b0385163314611314565b156103515761ffff60a81b61ffff60a81b199160a81b1691161781557f4c720dcd587fe71ce2ffe44bdc46bd4c550e30dcd9967b1af0a41c95f45aeae48180a180f35b6004837f6a43f8d1000000000000000000000000000000000000000000000000000000008152fd5b8280fd5b5034610822576020366003190112610822576004359067ffffffffffffffff8211610822578160040160606003198436030112610822575f54906001600160a01b0382163314610a1b5760ff8260d01c166109f3576001600160a01b037f00000000000000000000000000000000000000000000000000000000000000001690602485019061040b82611338565b9160ff604051937f887bf3ef000000000000000000000000000000000000000000000000000000008552166004840152602083602481875afa928315610817575f936109a5575b50600154600160ff61046384611338565b161b16156109845760ff610478600192611338565b161b604051906313eeb04960e31b8252602082600481885afa918215610817575f92610950575b50166108e75780359561ffff6001600160a01b036002541695604051967f832501d10000000000000000000000000000000000000000000000000000000088528960048901527fffffff00000000000000000000000000000000000000000000000000000000008260301b166024890152604488015260a81c166064860152602085608481875afa948515610817575f956108b3575b506040517faafd5e400000000000000000000000000000000000000000000000000000000081527f4465616c496d706c656d656e746174696f6e00000000000000000000000000006004820152602081602481885afa8015610817575f90610862575b6e5af43d82803e903d91602b57fd5bf39150763d602d80600a3d3981f3363d3d373d3d3d363d7300000062ffffff8260881c16175f5260781b176020526001600160a01b03603760095ff01694851561083a57604051906080820182811067ffffffffffffffff8211176108265760405230825260208201903382526040830190815260608301918a8352883b15610822576001600160a01b039081604051957f6c44ee2800000000000000000000000000000000000000000000000000000000875251166004860152511660248401525160448301525160648201525f81608481838a5af18015610817576107fa575b509060446106989201906112e1565b919095833b156107f657906fffffffffffffffffffffffffffffffff1991604051957fc2c634fd0000000000000000000000000000000000000000000000000000000087526004870152602486015216604484015260a06064840152839460045461070281611250565b908160a48701526001811690815f146107d4575060011461077d575b5091838560208282998682978599600319858503016084860152818452858401378181018401859052601f01601f1916010301925af18015610772576107615750f35b8161076b91611288565b6100f45780f35b6040513d84823e3d90fd5b6004865290955084907f8a35acfbc15ff81a39ae7d344fd709f28e8600b4aa8c65c6b64bfe7fe36bd19b5b8183106107bd575050830160c401948361071e565b805460c484880101526020909201916001016107a8565b60ff191660c48088019190915291151560051b8601909101965084905061071e565b8580fd5b610698929196505f61080b91611288565b60445f96919250610689565b6040513d5f823e3d90fd5b5f80fd5b634e487b7160e01b5f52604160045260245ffd5b7fb06ebf3d000000000000000000000000000000000000000000000000000000005f5260045ffd5b506020813d6020116108ab575b8161087c60209383611288565b8101031261082257516001600160a01b0381168103610822576e5af43d82803e903d91602b57fd5bf390610598565b3d915061086f565b9094506020813d6020116108df575b816108cf60209383611288565b810103126108225751935f610535565b3d91506108c2565b6040516313eeb04960e31b8152602081600481875afa908115610817575f9161091e575b50637339074360e11b5f5260045260245ffd5b90506020813d602011610948575b8161093960209383611288565b8101031261082257518161090b565b3d915061092c565b9091506020813d60201161097c575b8161096c60209383611288565b810103126108225751905f61049f565b3d915061095f565b60ff610991600192611338565b161b637339074360e11b5f5260045260245ffd5b9092506020813d6020116109eb575b816109c160209383611288565b8101031261082257516fffffffffffffffffffffffffffffffff198116810361082257915f610452565b3d91506109b4565b7f3815432d000000000000000000000000000000000000000000000000000000005f5260045ffd5b6332b2baa360e01b5f523360045260245ffd5b34610822575f3660031901126108225760207fffffff00000000000000000000000000000000000000000000000000000000005f5460301b16604051908152f35b34610822575f3660031901126108225760206001600160a01b035f5416604051908152f35b34610822575f36600319011261082257604060035463ffffffff825191818116835260201c166020820152f35b34610822575f3660031901126108225760206040516001600160a01b037f0000000000000000000000000000000000000000000000000000000000000000168152f35b346108225760203660031901126108225760043567ffffffffffffffff8111610822573660238201121561082257806004013567ffffffffffffffff811161082257366024828401011161082257610b68336001600160a01b035f54163314611314565b610b73600454611250565b601f8111610c5c575b505f601f8211600114610bdb5781925f92610bcd575b50508160011b915f199060031b1c1916176004555b7f4c720dcd587fe71ce2ffe44bdc46bd4c550e30dcd9967b1af0a41c95f45aeae45f80a1005b602492500101358280610b92565b601f198216927f8a35acfbc15ff81a39ae7d344fd709f28e8600b4aa8c65c6b64bfe7fe36bd19b915f5b858110610c4157508360019510610c25575b505050811b01600455610ba7565b01602401355f19600384901b60f8161c19169055828080610c17565b90926020600181926024878701013581550194019101610c05565b81811115610b7c57601f820160051c9060208310610cbe575b601f82910160051c03905f5b828110610c8f575050610b7c565b5f8282017f8a35acfbc15ff81a39ae7d344fd709f28e8600b4aa8c65c6b64bfe7fe36bd19b0155600101610c81565b5f9150610c75565b3461082257602036600319011261082257600435801515809103610822577fffffffffff00ffffffffffffffffffffffffffffffffffffffffffffffffffff7aff00000000000000000000000000000000000000000000000000005f5492610d39336001600160a01b0386163314611314565b60d01b169116175f557f4c720dcd587fe71ce2ffe44bdc46bd4c550e30dcd9967b1af0a41c95f45aeae45f80a1005b34610822576040366003190112610822576004356001600160a01b038116809103610822576024359067ffffffffffffffff821161082257816004016101006003198436030112610822577ff0c57e16840df040f15088dc2f81fe391c3923bec73e23a9662efc9c229c6a00549260ff8460401c16159367ffffffffffffffff8116801590816111e7575b60011490816111dd575b1590816111d4575b506111ac5767ffffffffffffffff1981166001177ff0c57e16840df040f15088dc2f81fe391c3923bec73e23a9662efc9c229c6a00558461116d575b505f54908235918215158093036108225760848201356001600160a01b038116809103610822577fffffffffffffffffffffffff0000000000000000000000000000000000000000600254161760025560a48201357fffffff0000000000000000000000000000000000000000000000000000000000811681036108225760c483013560015560248301359561ffff871687036108225779ffffff000000000000000000000000000000000000000000000060e49574ff000000000000000000000000000000000000000061ffff60a81b1983947fffffffffffff000000ffff00000000000000000000000000000000000000000061ffff60a81b610f9f9d60a81b16981617169160a01b16179260301c161617175f5563ffffffff610f69604483016112d0565b166003549067ffffffff00000000610f83606485016112d0565b60201b169167ffffffffffffffff1916171760035501906112e1565b67ffffffffffffffff819392931161082657610fbc600454611250565b601f81116110ff575b505f601f821160011461107f578192935f92611074575b50508160011b915f199060031b1c1916176004555b610ff757005b68ff0000000000000000197ff0c57e16840df040f15088dc2f81fe391c3923bec73e23a9662efc9c229c6a0054167ff0c57e16840df040f15088dc2f81fe391c3923bec73e23a9662efc9c229c6a00557fc7f505b2f371ae2175ee4913f4499e1f2633a7b5936321eed1cdaeb6115181d2602060405160018152a1005b013590508380610fdc565b601f1982169360045f527f8a35acfbc15ff81a39ae7d344fd709f28e8600b4aa8c65c6b64bfe7fe36bd19b915f5b8681106110e757508360019596106110ce575b505050811b01600455610ff1565b01355f19600384901b60f8161c191690558380806110c0565b909260206001819286860135815501940191016110ad565b81811115610fc55760045f52601f820160051c9060208310611165575b601f82910160051c03905f5b828110611136575050610fc5565b5f8282017f8a35acfbc15ff81a39ae7d344fd709f28e8600b4aa8c65c6b64bfe7fe36bd19b0155600101611128565b5f915061111c565b68ffffffffffffffffff191668010000000000000001177ff0c57e16840df040f15088dc2f81fe391c3923bec73e23a9662efc9c229c6a005584610e41565b7ff92ee8a9000000000000000000000000000000000000000000000000000000005f5260045ffd5b90501586610e05565b303b159150610dfd565b869150610df3565b34610822575f36600319011261082257602061ffff5f5460a81c16604051908152f35b34610822575f366003190112610822576020600154604051908152f35b34610822575f3660031901126108225760209060ff5f5460a01c1615158152f35b90600182811c9216801561127e575b602083101461126a57565b634e487b7160e01b5f52602260045260245ffd5b91607f169161125f565b90601f8019910116810190811067ffffffffffffffff82111761082657604052565b60043563ffffffff811681036108225790565b60243563ffffffff811681036108225790565b3563ffffffff811681036108225790565b903590601e1981360301821215610822570180359067ffffffffffffffff82116108225760200191813603831361082257565b1561131c5750565b6001600160a01b03906332b2baa360e01b5f521660045260245ffd5b3560ff81168103610822579056fea2646970667358221220ea24ff2fa4849d8d4488887e9da65949b1e0fa6a0ae1f2dde9677d17e8496f0564736f6c63430008220033f0c57e16840df040f15088dc2f81fe391c3923bec73e23a9662efc9c229c6a00",
  "linkReferences": {},
  "deployedLinkReferences": {},
  "immutableReferences": {
    "1598": [
      {
        "length": 32,
        "start": 988
      },
      {
        "length": 32,
        "start": 2784
      }
    ]
  },
  "inputSourceName": "project/evm/protocol/Offer.sol",
  "buildInfoId": "solc-0_8_34-4f6583e5e5a3e854e3dc0bbee05655de1f0081f5"
}