{
  "_format": "hh3-artifact-1",
  "contractName": "Market",
  "sourceName": "evm/protocol/Market.sol",
  "abi": [
    {
      "inputs": [
        {
          "internalType": "address",
          "name": "usdc_",
          "type": "address"
        }
      ],
      "stateMutability": "nonpayable",
      "type": "constructor"
    },
    {
      "inputs": [
        {
          "internalType": "enum IDeal.State",
          "name": "state",
          "type": "uint8"
        }
      ],
      "name": "ActionNotAllowedInThisState",
      "type": "error"
    },
    {
      "inputs": [
        {
          "internalType": "address",
          "name": "target",
          "type": "address"
        }
      ],
      "name": "AddressEmptyCode",
      "type": "error"
    },
    {
      "inputs": [
        {
          "internalType": "address",
          "name": "implementation",
          "type": "address"
        }
      ],
      "name": "ERC1967InvalidImplementation",
      "type": "error"
    },
    {
      "inputs": [],
      "name": "ERC1967NonPayable",
      "type": "error"
    },
    {
      "inputs": [],
      "name": "FailedCall",
      "type": "error"
    },
    {
      "inputs": [],
      "name": "FailedDeployment",
      "type": "error"
    },
    {
      "inputs": [
        {
          "internalType": "uint256",
          "name": "balance",
          "type": "uint256"
        },
        {
          "internalType": "uint256",
          "name": "needed",
          "type": "uint256"
        }
      ],
      "name": "InsufficientBalance",
      "type": "error"
    },
    {
      "inputs": [],
      "name": "InvalidArgument",
      "type": "error"
    },
    {
      "inputs": [
        {
          "internalType": "bytes32",
          "name": "fiat",
          "type": "bytes32"
        }
      ],
      "name": "InvalidFiat",
      "type": "error"
    },
    {
      "inputs": [],
      "name": "InvalidInitialization",
      "type": "error"
    },
    {
      "inputs": [],
      "name": "InvalidLimits",
      "type": "error"
    },
    {
      "inputs": [
        {
          "internalType": "uint256",
          "name": "method",
          "type": "uint256"
        }
      ],
      "name": "InvalidMethod",
      "type": "error"
    },
    {
      "inputs": [],
      "name": "InvalidRate",
      "type": "error"
    },
    {
      "inputs": [
        {
          "internalType": "contract IERC20",
          "name": "token",
          "type": "address"
        }
      ],
      "name": "InvalidToken",
      "type": "error"
    },
    {
      "inputs": [],
      "name": "NotInitializing",
      "type": "error"
    },
    {
      "inputs": [
        {
          "internalType": "address",
          "name": "owner",
          "type": "address"
        }
      ],
      "name": "OwnableInvalidOwner",
      "type": "error"
    },
    {
      "inputs": [
        {
          "internalType": "address",
          "name": "account",
          "type": "address"
        }
      ],
      "name": "OwnableUnauthorizedAccount",
      "type": "error"
    },
    {
      "inputs": [
        {
          "internalType": "address",
          "name": "token",
          "type": "address"
        }
      ],
      "name": "SafeERC20FailedOperation",
      "type": "error"
    },
    {
      "inputs": [],
      "name": "UUPSUnauthorizedCallContext",
      "type": "error"
    },
    {
      "inputs": [
        {
          "internalType": "bytes32",
          "name": "slot",
          "type": "bytes32"
        }
      ],
      "name": "UUPSUnsupportedProxiableUUID",
      "type": "error"
    },
    {
      "inputs": [
        {
          "internalType": "address",
          "name": "account",
          "type": "address"
        }
      ],
      "name": "UnauthorizedAccount",
      "type": "error"
    },
    {
      "inputs": [],
      "name": "UnknownOffer",
      "type": "error"
    },
    {
      "anonymous": false,
      "inputs": [
        {
          "indexed": true,
          "internalType": "address",
          "name": "offerOwner",
          "type": "address"
        },
        {
          "indexed": false,
          "internalType": "address",
          "name": "taker",
          "type": "address"
        },
        {
          "indexed": false,
          "internalType": "address",
          "name": "offer",
          "type": "address"
        },
        {
          "indexed": false,
          "internalType": "address",
          "name": "deal",
          "type": "address"
        },
        {
          "indexed": false,
          "internalType": "uint256",
          "name": "fiatAmount",
          "type": "uint256"
        },
        {
          "indexed": false,
          "internalType": "bytes16",
          "name": "method",
          "type": "bytes16"
        },
        {
          "indexed": false,
          "internalType": "string",
          "name": "terms",
          "type": "string"
        },
        {
          "indexed": false,
          "internalType": "string",
          "name": "paymentInstructions",
          "type": "string"
        }
      ],
      "name": "DealCreated",
      "type": "event"
    },
    {
      "anonymous": false,
      "inputs": [
        {
          "indexed": false,
          "internalType": "bytes32",
          "name": "symbol",
          "type": "bytes32"
        },
        {
          "indexed": false,
          "internalType": "contract IChainlink",
          "name": "feed",
          "type": "address"
        }
      ],
      "name": "FiatAdded",
      "type": "event"
    },
    {
      "anonymous": false,
      "inputs": [
        {
          "indexed": false,
          "internalType": "bytes32",
          "name": "symbol",
          "type": "bytes32"
        }
      ],
      "name": "FiatRemoved",
      "type": "event"
    },
    {
      "anonymous": false,
      "inputs": [
        {
          "indexed": false,
          "internalType": "uint64",
          "name": "version",
          "type": "uint64"
        }
      ],
      "name": "Initialized",
      "type": "event"
    },
    {
      "anonymous": false,
      "inputs": [
        {
          "indexed": true,
          "internalType": "bytes32",
          "name": "interfaceName",
          "type": "bytes32"
        },
        {
          "indexed": true,
          "internalType": "address",
          "name": "newImplementationAddress",
          "type": "address"
        }
      ],
      "name": "InterfaceImplementationChanged",
      "type": "event"
    },
    {
      "anonymous": false,
      "inputs": [
        {
          "indexed": false,
          "internalType": "bytes16",
          "name": "name",
          "type": "bytes16"
        },
        {
          "indexed": false,
          "internalType": "uint256",
          "name": "index",
          "type": "uint256"
        }
      ],
      "name": "MethodAdded",
      "type": "event"
    },
    {
      "anonymous": false,
      "inputs": [
        {
          "indexed": false,
          "internalType": "uint256",
          "name": "mask",
          "type": "uint256"
        }
      ],
      "name": "MethodsDisabledMask",
      "type": "event"
    },
    {
      "anonymous": false,
      "inputs": [
        {
          "indexed": false,
          "internalType": "address",
          "name": "owner",
          "type": "address"
        },
        {
          "indexed": false,
          "internalType": "contract IERC20",
          "name": "token",
          "type": "address"
        },
        {
          "indexed": false,
          "internalType": "bytes32",
          "name": "fiat",
          "type": "bytes32"
        },
        {
          "indexed": false,
          "internalType": "contract IOffer",
          "name": "offer",
          "type": "address"
        }
      ],
      "name": "OfferCreated",
      "type": "event"
    },
    {
      "anonymous": false,
      "inputs": [
        {
          "indexed": true,
          "internalType": "address",
          "name": "previousOwner",
          "type": "address"
        },
        {
          "indexed": true,
          "internalType": "address",
          "name": "newOwner",
          "type": "address"
        }
      ],
      "name": "OwnershipTransferred",
      "type": "event"
    },
    {
      "anonymous": false,
      "inputs": [
        {
          "indexed": false,
          "internalType": "contract IERC20",
          "name": "address_",
          "type": "address"
        }
      ],
      "name": "TokenAdded",
      "type": "event"
    },
    {
      "anonymous": false,
      "inputs": [
        {
          "indexed": false,
          "internalType": "contract IERC20",
          "name": "address_",
          "type": "address"
        }
      ],
      "name": "TokenRemoved",
      "type": "event"
    },
    {
      "anonymous": false,
      "inputs": [
        {
          "indexed": true,
          "internalType": "address",
          "name": "implementation",
          "type": "address"
        }
      ],
      "name": "Upgraded",
      "type": "event"
    },
    {
      "inputs": [],
      "name": "UPGRADE_INTERFACE_VERSION",
      "outputs": [
        {
          "internalType": "string",
          "name": "",
          "type": "string"
        }
      ],
      "stateMutability": "view",
      "type": "function"
    },
    {
      "inputs": [],
      "name": "USDC",
      "outputs": [
        {
          "internalType": "address",
          "name": "",
          "type": "address"
        }
      ],
      "stateMutability": "view",
      "type": "function"
    },
    {
      "inputs": [
        {
          "internalType": "contract IDeal",
          "name": "deal",
          "type": "address"
        },
        {
          "internalType": "uint256",
          "name": "fiatAmount",
          "type": "uint256"
        },
        {
          "internalType": "bytes16",
          "name": "method",
          "type": "bytes16"
        },
        {
          "internalType": "string",
          "name": "terms",
          "type": "string"
        },
        {
          "internalType": "string",
          "name": "paymentInstructions",
          "type": "string"
        }
      ],
      "name": "addDeal",
      "outputs": [],
      "stateMutability": "nonpayable",
      "type": "function"
    },
    {
      "inputs": [
        {
          "internalType": "bytes3",
          "name": "symbol_",
          "type": "bytes3"
        },
        {
          "internalType": "contract IChainlink",
          "name": "chainlink_",
          "type": "address"
        }
      ],
      "name": "addFiat",
      "outputs": [],
      "stateMutability": "nonpayable",
      "type": "function"
    },
    {
      "inputs": [
        {
          "internalType": "bytes16[]",
          "name": "names_",
          "type": "bytes16[]"
        }
      ],
      "name": "addMethods",
      "outputs": [],
      "stateMutability": "nonpayable",
      "type": "function"
    },
    {
      "inputs": [
        {
          "internalType": "contract IERC20",
          "name": "address_",
          "type": "address"
        },
        {
          "components": [
            {
              "internalType": "contract IUniswapV3Pool",
              "name": "pool",
              "type": "address"
            },
            {
              "internalType": "uint8",
              "name": "decimals",
              "type": "uint8"
            }
          ],
          "internalType": "struct IMarket.Token",
          "name": "token_",
          "type": "tuple"
        }
      ],
      "name": "addToken",
      "outputs": [],
      "stateMutability": "nonpayable",
      "type": "function"
    },
    {
      "inputs": [
        {
          "internalType": "bytes32",
          "name": "interfaceName",
          "type": "bytes32"
        },
        {
          "internalType": "address",
          "name": "implementationAddress",
          "type": "address"
        }
      ],
      "name": "changeImplementationAddress",
      "outputs": [],
      "stateMutability": "nonpayable",
      "type": "function"
    },
    {
      "inputs": [
        {
          "internalType": "uint256",
          "name": "amount_",
          "type": "uint256"
        },
        {
          "internalType": "bytes3",
          "name": "fromFiat_",
          "type": "bytes3"
        },
        {
          "internalType": "contract IERC20",
          "name": "toToken_",
          "type": "address"
        },
        {
          "internalType": "uint256",
          "name": "denominator",
          "type": "uint256"
        }
      ],
      "name": "convert",
      "outputs": [
        {
          "internalType": "uint256",
          "name": "amount",
          "type": "uint256"
        }
      ],
      "stateMutability": "view",
      "type": "function"
    },
    {
      "inputs": [
        {
          "components": [
            {
              "internalType": "bool",
              "name": "isSell",
              "type": "bool"
            },
            {
              "internalType": "uint16",
              "name": "rate",
              "type": "uint16"
            },
            {
              "components": [
                {
                  "internalType": "uint32",
                  "name": "min",
                  "type": "uint32"
                },
                {
                  "internalType": "uint32",
                  "name": "max",
                  "type": "uint32"
                }
              ],
              "internalType": "struct IOffer.Limits",
              "name": "limits",
              "type": "tuple"
            },
            {
              "internalType": "contract IERC20",
              "name": "token",
              "type": "address"
            },
            {
              "internalType": "bytes3",
              "name": "fiat",
              "type": "bytes3"
            },
            {
              "internalType": "uint256",
              "name": "methods",
              "type": "uint256"
            },
            {
              "internalType": "string",
              "name": "terms",
              "type": "string"
            }
          ],
          "internalType": "struct IOffer.OfferParams",
          "name": "params",
          "type": "tuple"
        }
      ],
      "name": "createOffer",
      "outputs": [],
      "stateMutability": "nonpayable",
      "type": "function"
    },
    {
      "inputs": [
        {
          "internalType": "address",
          "name": "",
          "type": "address"
        }
      ],
      "name": "deals",
      "outputs": [
        {
          "internalType": "bool",
          "name": "",
          "type": "bool"
        }
      ],
      "stateMutability": "view",
      "type": "function"
    },
    {
      "inputs": [
        {
          "internalType": "uint256",
          "name": "mask",
          "type": "uint256"
        }
      ],
      "name": "disableMethods",
      "outputs": [],
      "stateMutability": "nonpayable",
      "type": "function"
    },
    {
      "inputs": [],
      "name": "disabledMethodsMask",
      "outputs": [
        {
          "internalType": "uint256",
          "name": "",
          "type": "uint256"
        }
      ],
      "stateMutability": "view",
      "type": "function"
    },
    {
      "inputs": [
        {
          "internalType": "uint256",
          "name": "mask",
          "type": "uint256"
        }
      ],
      "name": "enableMethods",
      "outputs": [],
      "stateMutability": "nonpayable",
      "type": "function"
    },
    {
      "inputs": [],
      "name": "fee",
      "outputs": [
        {
          "internalType": "uint8",
          "name": "",
          "type": "uint8"
        }
      ],
      "stateMutability": "view",
      "type": "function"
    },
    {
      "inputs": [
        {
          "internalType": "bytes3",
          "name": "",
          "type": "bytes3"
        }
      ],
      "name": "fiats",
      "outputs": [
        {
          "internalType": "contract IChainlink",
          "name": "",
          "type": "address"
        }
      ],
      "stateMutability": "view",
      "type": "function"
    },
    {
      "inputs": [],
      "name": "fundDeal",
      "outputs": [],
      "stateMutability": "nonpayable",
      "type": "function"
    },
    {
      "inputs": [
        {
          "internalType": "bytes32",
          "name": "interfaceName",
          "type": "bytes32"
        }
      ],
      "name": "getImplementationAddress",
      "outputs": [
        {
          "internalType": "address",
          "name": "",
          "type": "address"
        }
      ],
      "stateMutability": "view",
      "type": "function"
    },
    {
      "inputs": [
        {
          "internalType": "contract IERC20",
          "name": "token_",
          "type": "address"
        },
        {
          "internalType": "bytes3",
          "name": "fiat_",
          "type": "bytes3"
        }
      ],
      "name": "getPrice",
      "outputs": [
        {
          "internalType": "uint256",
          "name": "price",
          "type": "uint256"
        }
      ],
      "stateMutability": "view",
      "type": "function"
    },
    {
      "inputs": [],
      "name": "initialize",
      "outputs": [],
      "stateMutability": "nonpayable",
      "type": "function"
    },
    {
      "inputs": [
        {
          "internalType": "bytes32",
          "name": "",
          "type": "bytes32"
        }
      ],
      "name": "interfacesImplemented",
      "outputs": [
        {
          "internalType": "address",
          "name": "",
          "type": "address"
        }
      ],
      "stateMutability": "view",
      "type": "function"
    },
    {
      "inputs": [
        {
          "internalType": "uint256",
          "name": "",
          "type": "uint256"
        }
      ],
      "name": "methods",
      "outputs": [
        {
          "internalType": "bytes16",
          "name": "",
          "type": "bytes16"
        }
      ],
      "stateMutability": "view",
      "type": "function"
    },
    {
      "inputs": [
        {
          "internalType": "address",
          "name": "",
          "type": "address"
        }
      ],
      "name": "offers",
      "outputs": [
        {
          "internalType": "bool",
          "name": "",
          "type": "bool"
        }
      ],
      "stateMutability": "view",
      "type": "function"
    },
    {
      "inputs": [],
      "name": "owner",
      "outputs": [
        {
          "internalType": "address",
          "name": "",
          "type": "address"
        }
      ],
      "stateMutability": "view",
      "type": "function"
    },
    {
      "inputs": [],
      "name": "proxiableUUID",
      "outputs": [
        {
          "internalType": "bytes32",
          "name": "",
          "type": "bytes32"
        }
      ],
      "stateMutability": "view",
      "type": "function"
    },
    {
      "inputs": [
        {
          "internalType": "bytes3",
          "name": "symbol_",
          "type": "bytes3"
        }
      ],
      "name": "removeFiat",
      "outputs": [],
      "stateMutability": "nonpayable",
      "type": "function"
    },
    {
      "inputs": [
        {
          "internalType": "contract IERC20",
          "name": "address_",
          "type": "address"
        }
      ],
      "name": "removeToken",
      "outputs": [],
      "stateMutability": "nonpayable",
      "type": "function"
    },
    {
      "inputs": [],
      "name": "renounceOwnership",
      "outputs": [],
      "stateMutability": "nonpayable",
      "type": "function"
    },
    {
      "inputs": [
        {
          "internalType": "uint8",
          "name": "fee_",
          "type": "uint8"
        }
      ],
      "name": "setFee",
      "outputs": [],
      "stateMutability": "nonpayable",
      "type": "function"
    },
    {
      "inputs": [
        {
          "internalType": "contract IERC20",
          "name": "",
          "type": "address"
        }
      ],
      "name": "tokens",
      "outputs": [
        {
          "internalType": "contract IUniswapV3Pool",
          "name": "pool",
          "type": "address"
        },
        {
          "internalType": "uint8",
          "name": "decimals",
          "type": "uint8"
        }
      ],
      "stateMutability": "view",
      "type": "function"
    },
    {
      "inputs": [
        {
          "internalType": "address",
          "name": "newOwner",
          "type": "address"
        }
      ],
      "name": "transferOwnership",
      "outputs": [],
      "stateMutability": "nonpayable",
      "type": "function"
    },
    {
      "inputs": [
        {
          "internalType": "address",
          "name": "newImplementation",
          "type": "address"
        },
        {
          "internalType": "bytes",
          "name": "data",
          "type": "bytes"
        }
      ],
      "name": "upgradeToAndCall",
      "outputs": [],
      "stateMutability": "payable",
      "type": "function"
    }
  ],
  "bytecode": "0x60c03461012457601f612b8338819003918201601f19168301916001600160401b038311848410176101285780849260209460405283398101031261012457516001600160a01b0381168103610124573060805260a0525f516020612b635f395f51905f525460ff8160401c16610115576002600160401b03196001600160401b038216016100bf575b604051612a26908161013d82396080518181816115350152611635015260a05181818161114401528181611c230152611ce00152f35b6001600160401b0319166001600160401b039081175f516020612b635f395f51905f52556040519081527fc7f505b2f371ae2175ee4913f4499e1f2633a7b5936321eed1cdaeb6115181d290602090a15f610089565b63f92ee8a960e01b5f5260045ffd5b5f80fd5b634e487b7160e01b5f52604160045260245ffdfe60806040526004361015610011575f80fd5b5f5f3560e01c8063128053e2146119cf57806331f9665e1461195d5780633227a3d4146119205780633766a74714611892578063413bf38f146118555780634f1ef286146115ad57806352d1902d1461151b5780635fa7b584146114b85780636a69b8a614611448578063715018a6146113b15780638129fc1c146111f5578063832501d1146111b6578063887bf3ef1461116857806389a30271146111255780638da5cb5b146110e05780639f758248146110c3578063a301d25114611081578063a3eab67f1461104d578063a7842b0514610ffc578063aafd5e4014610f7f578063ab6a3e6a14610e27578063ad3cb1cc14610db1578063aeb35ebe1461093f578063c2c634fd146106f5578063c5f2b414146102c9578063cb122a091461028f578063cc48f4db1461025d578063d81bffaa1461020b578063ddca3f43146101ea578063e48603391461019e5763f2fde38b1461016f575f80fd5b3461019b57602036600319011261019b5761019861018b611abd565b6101936126a4565b6125e9565b80f35b80fd5b503461019b57602036600319011261019b57604080916001600160a01b036101c4611abd565b1681526001602052205460ff8251916001600160a01b038116835260a01c166020820152f35b503461019b578060031936011261019b57602060ff60055416604051908152f35b503461019b57602036600319011261019b576102256126a4565b7f7e13308d621ccab0127012a309f9c2b5e0aaa7b20f923d0e7f3866967d7b054e60206004356004541780600455604051908152a180f35b503461019b57602036600319011261019b576001600160a01b0360406020926004358152808452205416604051908152f35b503461019b57602036600319011261019b5760043560ff81168091036102c5576102b76126a4565b60ff19600554161760055580f35b5080fd5b503461019b578060031936011261019b5733815260076020526102f33360ff6040842054166125ac565b6040517fc19d93fb000000000000000000000000000000000000000000000000000000008152602081600481335afa90811561066e5782916106ba575b5060088110156106a657600103610679576040516360146f8360e11b8152602081600481335afa801561066e576001600160a01b0391839161064f575b5016604051907ffc0c546a000000000000000000000000000000000000000000000000000000008252602082600481845afa918215610577578392610607575b506040517f0c570c86000000000000000000000000000000000000000000000000000000008152602081600481855afa90811561053d5784916105cc575b501561058257602060049160405192838092638da5cb5b60e01b82525afa908115610577578391610548575b505b6040517feec7faa1000000000000000000000000000000000000000000000000000000008152602081600481335afa90811561053d578491610507575b506001600160a01b03604051927f23b872dd000000000000000000000000000000000000000000000000000000008652166004523360245260445260208360648180865af19060018451148216156104e7575b50156104b3575080f35b7f5274afe70000000000000000000000000000000000000000000000000000000082526001600160a01b0316600452602490fd5b60018215166104ff5750813b15153d1516165f6104a9565b3d84823e3d90fd5b90506020813d602011610535575b8161052260209383611b01565b8101031261053157515f610456565b8380fd5b3d9150610515565b6040513d86823e3d90fd5b61056a915060203d602011610570575b6105628183611b01565b810190611c88565b5f610417565b503d610558565b6040513d85823e3d90fd5b50604051633c159b0160e11b8152602081600481335afa9081156105775783916105ad575b50610419565b6105c6915060203d602011610570576105628183611b01565b5f6105a7565b90506020813d6020116105ff575b816105e760209383611b01565b8101031261053157518015158103610531575f6103eb565b3d91506105da565b9091506020813d602011610647575b8161062360209383611b01565b8101031261064357516001600160a01b038116810361064357905f6103ad565b8280fd5b3d9150610616565b610668915060203d602011610570576105628183611b01565b5f61036d565b6040513d84823e3d90fd5b807f5540031e00000000000000000000000000000000000000000000000000000000602492526001600452fd5b602482634e487b7160e01b81526021600452fd5b90506020813d6020116106ed575b816106d560209383611b01565b810103126102c5575160088110156102c5575f610330565b3d91506106c8565b503461019b5760a036600319011261019b576004356001600160a01b0381168091036102c557604435906fffffffffffffffffffffffffffffffff1982168092036106435760643567ffffffffffffffff81116105315761075a903690600401611b77565b909260843567ffffffffffffffff811161093b5761077c903690600401611b77565b91909433875260066020526107983360ff60408a2054166125ac565b848752600760205260408720600160ff198254161790556040516360146f8360e11b8152602081600481895afa8015610930576001600160a01b03918991610911575b50169260405191638da5cb5b60e01b8352602083600481885afa9283156109065789936108e5575b5060405195633c159b0160e11b87526020876004818b5afa9485156108da577f09a48f731a0b69fa0a3b984704c715b45929704d4ed1dd23d1587f234f095dac986001600160a01b03988c976108a9575b5091889391610893936108a398996040519b8c9b168b5260208b015260408a015260243560608a0152608089015260e060a089015260e088019161258c565b9285840360c0870152169661258c565b0390a280f35b6108a397509161089393916108ce8b969460203d602011610570576105628183611b01565b98509193509193610854565b6040513d8c823e3d90fd5b6108ff91935060203d602011610570576105628183611b01565b915f610803565b6040513d8b823e3d90fd5b61092a915060203d602011610570576105628183611b01565b5f6107db565b6040513d8a823e3d90fd5b8580fd5b5034610c95576020366003190112610c955760043567ffffffffffffffff8111610c955780360390610100600319830112610c9557608481016001600160a01b0361098982612541565b165f5260016020526001600160a01b0360405f20541615610d745760a48201926001600160e81b03196109bb85612555565b165f5260026020526001600160a01b0360405f20541615610d365760c4830135928315610d2357600454841680610d11575060248101359161ffff8316809303610c95578215610ce9576044820194610a138661256a565b93606484019463ffffffff80610a288861256a565b1691161015610cc1577ff5561e0cbad0903730b96b7d39409fea2ace1e2bb612162069d5ca85ee19a27c54608881901c62ffffff16763d602d80600a3d3981f3363d3d373d3d3d363d73000000175f90815260789190911b6effffffffffffffffffffffffffffff19166e5af43d82803e903d91602b57fd5bf3176020526001600160a01b0390603790600990f016968715610c9957873b15610c9557604051957f4304db7b00000000000000000000000000000000000000000000000000000000875233600488015260406024880152856004013592831515809403610c9557610b28610b339363ffffffff9592869360448c015260648b015261257b565b16608488015261257b565b1660a485015284356001600160a01b038116809103610c955760c485015286356001600160e81b03198116809103610c955760e485015261010484015260e48201359060221901811215610c9557016024600482013591019067ffffffffffffffff8111610c95578036038213610c955782610bc05f93829361010061012485015261014484019161258c565b038183875af18015610c8a57610c4d575b5091816001600160e81b0319610c29610c237f34fb7d2d2b97e859ef855139984e45a69063e11e573e50eb2bc3b976facb8ba6966080968952600660205260408920600160ff19825416179055612541565b93612555565b6001600160a01b03604051943386521660208501521660408301526060820152a180f35b7f34fb7d2d2b97e859ef855139984e45a69063e11e573e50eb2bc3b976facb8ba69391945091610c7f5f608094611b01565b5f9491935091610bd1565b6040513d5f823e3d90fd5b5f80fd5b7fb06ebf3d000000000000000000000000000000000000000000000000000000005f5260045ffd5b7fe773e0a9000000000000000000000000000000000000000000000000000000005f5260045ffd5b7f6a43f8d1000000000000000000000000000000000000000000000000000000005f5260045ffd5b637339074360e11b5f5260045260245ffd5b83637339074360e11b5f5260045260245ffd5b6001600160e81b0319610d4885612555565b7fb9ebd422000000000000000000000000000000000000000000000000000000005f521660045260245ffd5b610d856001600160a01b0391612541565b7f961c9a4f000000000000000000000000000000000000000000000000000000005f521660045260245ffd5b34610c95575f366003190112610c95576040805190610dd08183611b01565b6005825260208201917f352e302e3000000000000000000000000000000000000000000000000000000083528151928391602083525180918160208501528484015e5f828201840152601f01601f19168101030190f35b34610c95576020366003190112610c955760043567ffffffffffffffff8111610c955736602382011215610c955780600401359067ffffffffffffffff8211610c95576024810190602436918460051b010111610c9557610e866126a4565b5f5b828110610e9157005b610ea4610e9f828585612513565b612523565b60035468010000000000000000811015610f6b57806001610ec89201600355611b23565b6fffffffffffffffffffffffffffffffff829392549160031b9260801c831b921b1916179055610efc610e9f828585612513565b6003545f1981019291908311610f575760407f6105d3dad2f4fd52dc8603dd2a345b9b12bc380aef73991496a237d26b3e0a74916001946fffffffffffffffffffffffffffffffff198351921682526020820152a101610e88565b634e487b7160e01b5f52601160045260245ffd5b634e487b7160e01b5f52604160045260245ffd5b34610c95576020366003190112610c95576004355f525f6020526001600160a01b0360405f2054168015610fb857602090604051908152f35b606460405162461bcd60e51b815260206004820152601860248201527f496d706c656d656e746174696f6e206e6f7420666f756e6400000000000000006044820152fd5b34610c95576020366003190112610c95576110156126a4565b7f7e13308d621ccab0127012a309f9c2b5e0aaa7b20f923d0e7f3866967d7b054e6020600435196004541680600455604051908152a1005b34610c95576040366003190112610c9557602061107961106b611abd565b611073611aea565b90611ccf565b604051908152f35b34610c95576020366003190112610c95576001600160e81b03196110a3611ad3565b165f52600260205260206001600160a01b0360405f205416604051908152f35b34610c95575f366003190112610c95576020600454604051908152f35b34610c95575f366003190112610c955760206001600160a01b037f9016d09d72d40fdae2fd8ceac6b6234c7706214fd39c1cd1e609a0528c1993005416604051908152f35b34610c95575f366003190112610c955760206040516001600160a01b037f0000000000000000000000000000000000000000000000000000000000000000168152f35b34610c95576020366003190112610c9557600435600354811015610c9557611191602091611b23565b90549060031b1c60801b6fffffffffffffffffffffffffffffffff1960405191168152f35b34610c95576080366003190112610c95576111cf611aea565b6044356001600160a01b0381168103610c95576020916110799160643591600435611ba5565b34610c95575f366003190112610c95577ff0c57e16840df040f15088dc2f81fe391c3923bec73e23a9662efc9c229c6a005460ff8160401c16159067ffffffffffffffff8116801590816113a9575b600114908161139f575b159081611396575b5061136e5767ffffffffffffffff1981166001177ff0c57e16840df040f15088dc2f81fe391c3923bec73e23a9662efc9c229c6a00558161132f575b5061129b6128df565b6112a36128df565b6112ac336125e9565b6112b257005b68ff0000000000000000197ff0c57e16840df040f15088dc2f81fe391c3923bec73e23a9662efc9c229c6a0054167ff0c57e16840df040f15088dc2f81fe391c3923bec73e23a9662efc9c229c6a00557fc7f505b2f371ae2175ee4913f4499e1f2633a7b5936321eed1cdaeb6115181d2602060405160018152a1005b68ffffffffffffffffff191668010000000000000001177ff0c57e16840df040f15088dc2f81fe391c3923bec73e23a9662efc9c229c6a005581611292565b7ff92ee8a9000000000000000000000000000000000000000000000000000000005f5260045ffd5b90501583611256565b303b15915061124e565b839150611244565b34610c95575f366003190112610c95576113c96126a4565b5f6001600160a01b037f9016d09d72d40fdae2fd8ceac6b6234c7706214fd39c1cd1e609a0528c199300546001600160a01b031981167f9016d09d72d40fdae2fd8ceac6b6234c7706214fd39c1cd1e609a0528c19930055167f8be0079c531659141344cd1fd0a4f28419497f9722a3daafe3b4186f6b6457e08280a3005b34610c95576020366003190112610c95577f3f6bfc4bba75804b105dc56b5d6a6239a3e3b6223c7c57926b316092c4d76a2560206001600160e81b031961148d611ad3565b6114956126a4565b16805f526002825260405f206001600160a01b03198154169055604051908152a1005b34610c95576020366003190112610c95577f4c910b69fe65a61f7531b9c5042b2329ca7179c77290aa7e2eb3afa3c8511fd360206001600160a01b036114fc611abd565b6115046126a4565b16805f52600182525f6040812055604051908152a1005b34610c95575f366003190112610c95576001600160a01b037f00000000000000000000000000000000000000000000000000000000000000001630036115855760206040517f360894a13ba1a3210667c828492db98dca3e2076cc3735a920a3ca505d382bbc8152f35b7fe07c8dba000000000000000000000000000000000000000000000000000000005f5260045ffd5b6040366003190112610c95576115c1611abd565b6024359067ffffffffffffffff8211610c955736602383011215610c9557816004013567ffffffffffffffff8111610f6b576040519261160b601f8301601f191660200185611b01565b8184523660248383010111610c9557815f9260246020930183870137840101526001600160a01b037f000000000000000000000000000000000000000000000000000000000000000016803014908115611820575b506115855761166d6126a4565b6001600160a01b038116916040517f52d1902d000000000000000000000000000000000000000000000000000000008152602081600481875afa5f91816117ec575b506116c75783634c9c8ce360e01b5f5260045260245ffd5b807f360894a13ba1a3210667c828492db98dca3e2076cc3735a920a3ca505d382bbc8592036117c15750823b156117af57806001600160a01b03197f360894a13ba1a3210667c828492db98dca3e2076cc3735a920a3ca505d382bbc5416177f360894a13ba1a3210667c828492db98dca3e2076cc3735a920a3ca505d382bbc557fbc7cd75a20ee27fd9adebab32041f755214dbc6bffa90cc0225b39da2e5c2d3b5f80a280511561177e5761177c91612936565b005b50503461178757005b7fb398979f000000000000000000000000000000000000000000000000000000005f5260045ffd5b634c9c8ce360e01b5f5260045260245ffd5b7faa1d49a4000000000000000000000000000000000000000000000000000000005f5260045260245ffd5b9091506020813d602011611818575b8161180860209383611b01565b81010312610c95575190856116af565b3d91506117fb565b90506001600160a01b037f360894a13ba1a3210667c828492db98dca3e2076cc3735a920a3ca505d382bbc5416141583611660565b34610c95576020366003190112610c95576001600160a01b03611876611abd565b165f526006602052602060ff60405f2054166040519015158152f35b34610c95576040366003190112610c95576118ab611ad3565b602435906001600160a01b038216809203610c95577fc0aea0cd1ef4482000074ee16c1410faa164f1adefc4aae1b1a68a2aa494facc916001600160e81b03196040926118f66126a4565b1690815f526002602052825f20816001600160a01b031982541617905582519182526020820152a1005b34610c95576020366003190112610c95576001600160a01b03611941611abd565b165f526007602052602060ff60405f2054166040519015158152f35b34610c95576040366003190112610c9557600435602435906001600160a01b038216809203610c955761198e6126a4565b805f525f60205260405f20826001600160a01b03198254161790557fb29aa13e555039289e0513962835b00fcc6e4a265ae8f99e68e5b90d5406fe485f80a3005b34610c95576060366003190112610c95576119e8611abd565b6040366023190112610c95576001600160a01b0390611a056126a4565b16805f52600160205260405f20906024356001600160a01b0381168103610c95576001600160a01b03166001600160a01b03198354161782556044359060ff82168203610c9557826020927fffffffffffffffffffffff00ffffffffffffffffffffffffffffffffffffffff74ff00000000000000000000000000000000000000007f784c8f4dbf0ffedd6e72c76501c545a70f8b203b30a26ce542bf92ba87c248a496549260a01b169116179055604051908152a1005b600435906001600160a01b0382168203610c9557565b600435906001600160e81b031982168203610c9557565b602435906001600160e81b031982168203610c9557565b90601f8019910116810190811067ffffffffffffffff821117610f6b57604052565b90600354821015611b635760035f52600182901c7fc2575a0e9e593c00f959f8c92f12db2869c3395a3b0502d05e2516446f71f85b019160041b60101690565b634e487b7160e01b5f52603260045260245ffd5b9181601f84011215610c955782359167ffffffffffffffff8311610c955760208381860195010111610c9557565b929192621554d160ea1b6001600160e81b031983161480611c18575b611c0c576001600160a01b0384165f52600160205260ff60405f205460a01c1690604d8211610f5757611bfa611c0493611c0996611ccf565b91600a0a9061285a565b612703565b90565b9050611c099250612703565b506001600160a01b037f0000000000000000000000000000000000000000000000000000000000000000166001600160a01b03851614611bc1565b67ffffffffffffffff8111610f6b5760051b60200190565b805115611b635760200190565b805160011015611b635760400190565b90816020910312610c9557516001600160a01b0381168103610c955790565b60ff16604d8111610f5757600a0a90565b519069ffffffffffffffffffff82168203610c9557565b9091906001600160a01b03908116907f00000000000000000000000000000000000000000000000000000000000000001681146124ff57805f52600160205260405f20604051906040820182811067ffffffffffffffff821117610f6b5760405254906001600160a01b038216815260ff602082019260a01c168252604051611d59606082611b01565b600281526020810190604036833761012c611d7382611c6b565b525f611d7e82611c78565b526001600160a01b03835116906040519283917f883bdbfd000000000000000000000000000000000000000000000000000000008352602483019060206004850152518091526044830191905f5b8181106124e0575050509181805f9403915afa908115610c8a575f916123c6575b50611e04611dfa82611c78565b5160060b91611c6b565b5160060b900360060b61012c810560020b905f811290816123b5575b506123aa575b60020b925f8412156123a457835f03935b620d89e885116123605760018516156123375770ffffffffffffffffffffffffffffffffff6ffffcb933bd6fad37aa2d162d1a5940015b16946002811661231b575b600481166122ff575b600881166122e3575b601081166122c7575b602081166122ab575b6040811661228f575b60808116612273575b6101008116612257575b610200811661223b575b610400811661221f575b6108008116612203575b61100081166121e7575b61200081166121cb575b61400081166121af575b6180008116612193575b620100008116612177575b62020000811661215c575b620400008116612141575b6208000016612128575b5f12612116575b60206001600160a01b038060049663ffffffff8116155f1461210d5760ff5f5b1690841c01168002935116604051958680927f0dfe16810000000000000000000000000000000000000000000000000000000082525afa938415610c8a576001600160e81b0319946001600160a01b03915f916120ee575b5016036120d357611fc060ff611fc6935116611ca7565b9061280d565b925b16621554d160ea1b8103611fd95750565b91600491925f52600260205260a06001600160a01b0360405f205416604051938480927ffeaf968c0000000000000000000000000000000000000000000000000000000082525afa918215610c8a575f92612084575b505f82131561205c578115612048576305f5e100020490565b634e487b7160e01b5f52601260045260245ffd5b7fa9cb9e0d000000000000000000000000000000000000000000000000000000005f5260045ffd5b90915060a0813d60a0116120cb575b816120a060a09383611b01565b81010312610c95576120b181611cb8565b506120c3608060208301519201611cb8565b50905f61202f565b3d9150612093565b6120e360ff6120e8935116611ca7565b61278d565b92611fc8565b612107915060203d602011610570576105628183611b01565b5f611fa9565b60ff6001611f51565b8315612048575f199390930492611f31565b6b048a170391f7dc42444e8fa290940260801c93611f2a565b6d2216e584f5fa1ea926041bedfe9890950260801c94611f20565b946e5d6af8dedb81196699c329225ee6040260801c94611f15565b946f09aa508b5b7a84e1c677de54f3e99bc90260801c94611f0a565b946f31be135f97d08fd981231505542fcfa60260801c94611eff565b946f70d869a156d2a1b890bb3df62baf32f70260801c94611ef5565b946fa9f746462d870fdf8a65dc1f90e061e50260801c94611eeb565b946fd097f3bdfd2022b8845ad8f792aa58250260801c94611ee1565b946fe7159475a2c29b7443b29c7fa6e889d90260801c94611ed7565b946ff3392b0822b70005940c7a398e4b70f30260801c94611ecd565b946ff987a7253ac413176f2b074cf7815e540260801c94611ec3565b946ffcbe86c7900a88aedcffc83b479aa3a40260801c94611eb9565b946ffe5dee046a99a2a811c461f1969c30530260801c94611eaf565b946fff2ea16466c96a3843ec78b326b9753a0260801c94611ea6565b946fff973b41fa98c081472e6896dfb254c00260801c94611e9d565b946fffcb9843d60f6159c9db58835c9266440260801c94611e94565b946fffe5caca7e10e4e61c3624eaa0941cd00260801c94611e8b565b946ffff2e50f5f656932ef12357cf3c7fdcc0260801c94611e82565b946ffff97272373d413259a46990580e213a0260801c94611e79565b70ffffffffffffffffffffffffffffffffff700100000000000000000000000000000000611e6e565b606460405162461bcd60e51b815260206004820152600160248201527f54000000000000000000000000000000000000000000000000000000000000006044820152fd5b83611e37565b5f190160020b611e26565b61012c91500760060b15155f611e20565b90503d805f833e6123d78183611b01565b8101604082820312610c9557815167ffffffffffffffff8111610c955782019181601f84011215610c9557825161240d81611c53565b9361241b6040519586611b01565b81855260208086019260051b82010190848211610c9557602001915b8183106124c65750505060208101519067ffffffffffffffff8211610c9557019080601f83011215610c955781519160208061247285611c53565b61247f6040519182611b01565b858152019360051b820101918211610c9557602001915b8183106124a6575050505f611ded565b82516001600160a01b0381168103610c9557815260209283019201612496565b82518060060b8103610c9557815260209283019201612437565b825163ffffffff16845286945060209384019390920191600101611dcc565b506001600160e81b0319620f424092611fc8565b9190811015611b635760051b0190565b356fffffffffffffffffffffffffffffffff1981168103610c955790565b356001600160a01b0381168103610c955790565b356001600160e81b031981168103610c955790565b3563ffffffff81168103610c955790565b359063ffffffff82168203610c9557565b908060209392818452848401375f828201840152601f01601f1916010190565b156125b45750565b6001600160a01b03907f32b2baa3000000000000000000000000000000000000000000000000000000005f521660045260245ffd5b6001600160a01b03168015612678576001600160a01b037f9016d09d72d40fdae2fd8ceac6b6234c7706214fd39c1cd1e609a0528c19930054826001600160a01b03198216177f9016d09d72d40fdae2fd8ceac6b6234c7706214fd39c1cd1e609a0528c19930055167f8be0079c531659141344cd1fd0a4f28419497f9722a3daafe3b4186f6b6457e05f80a3565b7f1e4fbdf7000000000000000000000000000000000000000000000000000000005f525f60045260245ffd5b6001600160a01b037f9016d09d72d40fdae2fd8ceac6b6234c7706214fd39c1cd1e609a0528c199300541633036126d757565b7f118cdaa7000000000000000000000000000000000000000000000000000000005f523360045260245ffd5b5f196127108209916127108202918280851094039380850394146127805783821115610c955761271082910981805f03168092046002816003021880820260020302808202600203028082026002030280820260020302808202600203028091026002030293600183805f03040190848311900302920304170290565b5080925015610c95570490565b5f1981600160c01b09918160c01b918280851094039380850394146127805783821115610c95578190600160c01b0981805f03168092046002816003021880820260020302808202600203028082026002030280820260020302808202600203028091026002030293600183805f03040190848311900302920304170290565b5f915f1981830991818102938480851094039380850394146128505783600160c01b111561019b575090600160c01b910990828211900360401b910360c01c1790565b5050505060c01c90565b915f1982840992828102928380861095039480860395146128d15784831115610c955782910981805f03168092046002816003021880820260020302808202600203028082026002030280820260020302808202600203028091026002030293600183805f03040190848311900302920304170290565b505080925015610c95570490565b60ff7ff0c57e16840df040f15088dc2f81fe391c3923bec73e23a9662efc9c229c6a005460401c161561290e57565b7fd7e6bcf8000000000000000000000000000000000000000000000000000000005f5260045ffd5b905f8091602081519101845af480806129dd575b1561296a5750506040513d81523d5f602083013e60203d82010160405290565b156129a4576001600160a01b03907f9996b315000000000000000000000000000000000000000000000000000000005f521660045260245ffd5b3d156129b5576040513d5f823e3d90fd5b7fd6bda275000000000000000000000000000000000000000000000000000000005f5260045ffd5b503d15158061294a5750813b151561294a56fea2646970667358221220dc1866502a250196f7f885766dae29bfaaa01924d3e0a8f383892eeff3187e4864736f6c63430008220033f0c57e16840df040f15088dc2f81fe391c3923bec73e23a9662efc9c229c6a00",
  "linkReferences": {},
  "deployedLinkReferences": {},
  "immutableReferences": {
    "482": [
      {
        "length": 32,
        "start": 5429
      },
      {
        "length": 32,
        "start": 5685
      }
    ],
    "3603": [
      {
        "length": 32,
        "start": 4420
      },
      {
        "length": 32,
        "start": 7203
      },
      {
        "length": 32,
        "start": 7392
      }
    ]
  },
  "inputSourceName": "project/evm/protocol/Market.sol",
  "buildInfoId": "solc-0_8_34-636853aa6e20cf038867f74f952c40220acaba87"
}