{
  "_format": "hh3-artifact-1",
  "contractName": "Market",
  "sourceName": "evm/protocol/Market.sol",
  "abi": [
    {
      "inputs": [
        {
          "internalType": "address",
          "name": "usdc_",
          "type": "address"
        }
      ],
      "stateMutability": "nonpayable",
      "type": "constructor"
    },
    {
      "inputs": [
        {
          "internalType": "enum IDeal.State",
          "name": "state",
          "type": "uint8"
        }
      ],
      "name": "ActionNotAllowedInThisState",
      "type": "error"
    },
    {
      "inputs": [
        {
          "internalType": "address",
          "name": "target",
          "type": "address"
        }
      ],
      "name": "AddressEmptyCode",
      "type": "error"
    },
    {
      "inputs": [
        {
          "internalType": "address",
          "name": "implementation",
          "type": "address"
        }
      ],
      "name": "ERC1967InvalidImplementation",
      "type": "error"
    },
    {
      "inputs": [],
      "name": "ERC1967NonPayable",
      "type": "error"
    },
    {
      "inputs": [],
      "name": "FailedCall",
      "type": "error"
    },
    {
      "inputs": [],
      "name": "FailedDeployment",
      "type": "error"
    },
    {
      "inputs": [
        {
          "internalType": "uint256",
          "name": "balance",
          "type": "uint256"
        },
        {
          "internalType": "uint256",
          "name": "needed",
          "type": "uint256"
        }
      ],
      "name": "InsufficientBalance",
      "type": "error"
    },
    {
      "inputs": [],
      "name": "InvalidArgument",
      "type": "error"
    },
    {
      "inputs": [
        {
          "internalType": "bytes32",
          "name": "fiat",
          "type": "bytes32"
        }
      ],
      "name": "InvalidFiat",
      "type": "error"
    },
    {
      "inputs": [],
      "name": "InvalidInitialization",
      "type": "error"
    },
    {
      "inputs": [],
      "name": "InvalidLimits",
      "type": "error"
    },
    {
      "inputs": [
        {
          "internalType": "uint256",
          "name": "method",
          "type": "uint256"
        }
      ],
      "name": "InvalidMethod",
      "type": "error"
    },
    {
      "inputs": [],
      "name": "InvalidRate",
      "type": "error"
    },
    {
      "inputs": [
        {
          "internalType": "contract IERC20",
          "name": "token",
          "type": "address"
        }
      ],
      "name": "InvalidToken",
      "type": "error"
    },
    {
      "inputs": [],
      "name": "NotInitializing",
      "type": "error"
    },
    {
      "inputs": [
        {
          "internalType": "address",
          "name": "owner",
          "type": "address"
        }
      ],
      "name": "OwnableInvalidOwner",
      "type": "error"
    },
    {
      "inputs": [
        {
          "internalType": "address",
          "name": "account",
          "type": "address"
        }
      ],
      "name": "OwnableUnauthorizedAccount",
      "type": "error"
    },
    {
      "inputs": [
        {
          "internalType": "address",
          "name": "token",
          "type": "address"
        }
      ],
      "name": "SafeERC20FailedOperation",
      "type": "error"
    },
    {
      "inputs": [],
      "name": "UUPSUnauthorizedCallContext",
      "type": "error"
    },
    {
      "inputs": [
        {
          "internalType": "bytes32",
          "name": "slot",
          "type": "bytes32"
        }
      ],
      "name": "UUPSUnsupportedProxiableUUID",
      "type": "error"
    },
    {
      "inputs": [
        {
          "internalType": "address",
          "name": "account",
          "type": "address"
        }
      ],
      "name": "UnauthorizedAccount",
      "type": "error"
    },
    {
      "inputs": [],
      "name": "UnknownOffer",
      "type": "error"
    },
    {
      "anonymous": false,
      "inputs": [
        {
          "indexed": true,
          "internalType": "address",
          "name": "offerOwner",
          "type": "address"
        },
        {
          "indexed": false,
          "internalType": "address",
          "name": "taker",
          "type": "address"
        },
        {
          "indexed": false,
          "internalType": "address",
          "name": "offer",
          "type": "address"
        },
        {
          "indexed": false,
          "internalType": "address",
          "name": "deal",
          "type": "address"
        },
        {
          "indexed": false,
          "internalType": "bytes16",
          "name": "method",
          "type": "bytes16"
        },
        {
          "indexed": false,
          "internalType": "string",
          "name": "terms",
          "type": "string"
        },
        {
          "indexed": false,
          "internalType": "string",
          "name": "paymentInstructions",
          "type": "string"
        }
      ],
      "name": "DealCreated",
      "type": "event"
    },
    {
      "anonymous": false,
      "inputs": [
        {
          "indexed": false,
          "internalType": "bytes32",
          "name": "symbol",
          "type": "bytes32"
        },
        {
          "indexed": false,
          "internalType": "contract IChainlink",
          "name": "feed",
          "type": "address"
        }
      ],
      "name": "FiatAdded",
      "type": "event"
    },
    {
      "anonymous": false,
      "inputs": [
        {
          "indexed": false,
          "internalType": "bytes32",
          "name": "symbol",
          "type": "bytes32"
        }
      ],
      "name": "FiatRemoved",
      "type": "event"
    },
    {
      "anonymous": false,
      "inputs": [
        {
          "indexed": false,
          "internalType": "uint64",
          "name": "version",
          "type": "uint64"
        }
      ],
      "name": "Initialized",
      "type": "event"
    },
    {
      "anonymous": false,
      "inputs": [
        {
          "indexed": false,
          "internalType": "bytes16",
          "name": "name",
          "type": "bytes16"
        },
        {
          "indexed": false,
          "internalType": "uint256",
          "name": "index",
          "type": "uint256"
        }
      ],
      "name": "MethodAdded",
      "type": "event"
    },
    {
      "anonymous": false,
      "inputs": [
        {
          "indexed": false,
          "internalType": "uint256",
          "name": "mask",
          "type": "uint256"
        }
      ],
      "name": "MethodsDisabledMask",
      "type": "event"
    },
    {
      "anonymous": false,
      "inputs": [
        {
          "indexed": false,
          "internalType": "address",
          "name": "owner",
          "type": "address"
        },
        {
          "indexed": false,
          "internalType": "contract IERC20",
          "name": "token",
          "type": "address"
        },
        {
          "indexed": false,
          "internalType": "bytes32",
          "name": "fiat",
          "type": "bytes32"
        },
        {
          "indexed": false,
          "internalType": "contract IOffer",
          "name": "offer",
          "type": "address"
        }
      ],
      "name": "OfferCreated",
      "type": "event"
    },
    {
      "anonymous": false,
      "inputs": [
        {
          "indexed": true,
          "internalType": "address",
          "name": "previousOwner",
          "type": "address"
        },
        {
          "indexed": true,
          "internalType": "address",
          "name": "newOwner",
          "type": "address"
        }
      ],
      "name": "OwnershipTransferred",
      "type": "event"
    },
    {
      "anonymous": false,
      "inputs": [
        {
          "indexed": false,
          "internalType": "contract IERC20",
          "name": "address_",
          "type": "address"
        }
      ],
      "name": "TokenAdded",
      "type": "event"
    },
    {
      "anonymous": false,
      "inputs": [
        {
          "indexed": false,
          "internalType": "contract IERC20",
          "name": "address_",
          "type": "address"
        }
      ],
      "name": "TokenRemoved",
      "type": "event"
    },
    {
      "anonymous": false,
      "inputs": [
        {
          "indexed": true,
          "internalType": "address",
          "name": "implementation",
          "type": "address"
        }
      ],
      "name": "Upgraded",
      "type": "event"
    },
    {
      "inputs": [],
      "name": "UPGRADE_INTERFACE_VERSION",
      "outputs": [
        {
          "internalType": "string",
          "name": "",
          "type": "string"
        }
      ],
      "stateMutability": "view",
      "type": "function"
    },
    {
      "inputs": [],
      "name": "USDC",
      "outputs": [
        {
          "internalType": "address",
          "name": "",
          "type": "address"
        }
      ],
      "stateMutability": "view",
      "type": "function"
    },
    {
      "inputs": [
        {
          "internalType": "contract IDeal",
          "name": "deal",
          "type": "address"
        },
        {
          "internalType": "bytes16",
          "name": "method",
          "type": "bytes16"
        },
        {
          "internalType": "string",
          "name": "terms",
          "type": "string"
        },
        {
          "internalType": "string",
          "name": "paymentInstructions",
          "type": "string"
        }
      ],
      "name": "addDeal",
      "outputs": [],
      "stateMutability": "nonpayable",
      "type": "function"
    },
    {
      "inputs": [
        {
          "internalType": "bytes3",
          "name": "symbol_",
          "type": "bytes3"
        },
        {
          "internalType": "contract IChainlink",
          "name": "chainlink_",
          "type": "address"
        }
      ],
      "name": "addFiat",
      "outputs": [],
      "stateMutability": "nonpayable",
      "type": "function"
    },
    {
      "inputs": [
        {
          "internalType": "bytes16[]",
          "name": "names_",
          "type": "bytes16[]"
        }
      ],
      "name": "addMethods",
      "outputs": [],
      "stateMutability": "nonpayable",
      "type": "function"
    },
    {
      "inputs": [
        {
          "internalType": "contract IERC20",
          "name": "address_",
          "type": "address"
        },
        {
          "components": [
            {
              "internalType": "contract IUniswapV3Pool",
              "name": "pool",
              "type": "address"
            },
            {
              "internalType": "uint8",
              "name": "decimals",
              "type": "uint8"
            }
          ],
          "internalType": "struct IMarket.Token",
          "name": "token_",
          "type": "tuple"
        }
      ],
      "name": "addToken",
      "outputs": [],
      "stateMutability": "nonpayable",
      "type": "function"
    },
    {
      "inputs": [
        {
          "internalType": "uint256",
          "name": "amount_",
          "type": "uint256"
        },
        {
          "internalType": "bytes3",
          "name": "fromFiat_",
          "type": "bytes3"
        },
        {
          "internalType": "contract IERC20",
          "name": "toToken_",
          "type": "address"
        },
        {
          "internalType": "uint256",
          "name": "denominator",
          "type": "uint256"
        }
      ],
      "name": "convert",
      "outputs": [
        {
          "internalType": "uint256",
          "name": "amount",
          "type": "uint256"
        }
      ],
      "stateMutability": "view",
      "type": "function"
    },
    {
      "inputs": [
        {
          "components": [
            {
              "internalType": "bool",
              "name": "isSell",
              "type": "bool"
            },
            {
              "internalType": "uint16",
              "name": "rate",
              "type": "uint16"
            },
            {
              "components": [
                {
                  "internalType": "uint32",
                  "name": "min",
                  "type": "uint32"
                },
                {
                  "internalType": "uint32",
                  "name": "max",
                  "type": "uint32"
                }
              ],
              "internalType": "struct IOffer.Limits",
              "name": "limits",
              "type": "tuple"
            },
            {
              "internalType": "contract IERC20",
              "name": "token",
              "type": "address"
            },
            {
              "internalType": "bytes3",
              "name": "fiat",
              "type": "bytes3"
            },
            {
              "internalType": "uint256",
              "name": "methods",
              "type": "uint256"
            },
            {
              "internalType": "string",
              "name": "terms",
              "type": "string"
            }
          ],
          "internalType": "struct IOffer.OfferParams",
          "name": "params",
          "type": "tuple"
        }
      ],
      "name": "createOffer",
      "outputs": [],
      "stateMutability": "nonpayable",
      "type": "function"
    },
    {
      "inputs": [
        {
          "internalType": "address",
          "name": "",
          "type": "address"
        }
      ],
      "name": "deals",
      "outputs": [
        {
          "internalType": "bool",
          "name": "",
          "type": "bool"
        }
      ],
      "stateMutability": "view",
      "type": "function"
    },
    {
      "inputs": [
        {
          "internalType": "uint256",
          "name": "mask",
          "type": "uint256"
        }
      ],
      "name": "disableMethods",
      "outputs": [],
      "stateMutability": "nonpayable",
      "type": "function"
    },
    {
      "inputs": [],
      "name": "disabledMethodsMask",
      "outputs": [
        {
          "internalType": "uint256",
          "name": "",
          "type": "uint256"
        }
      ],
      "stateMutability": "view",
      "type": "function"
    },
    {
      "inputs": [
        {
          "internalType": "uint256",
          "name": "mask",
          "type": "uint256"
        }
      ],
      "name": "enableMethods",
      "outputs": [],
      "stateMutability": "nonpayable",
      "type": "function"
    },
    {
      "inputs": [],
      "name": "fee",
      "outputs": [
        {
          "internalType": "uint8",
          "name": "",
          "type": "uint8"
        }
      ],
      "stateMutability": "view",
      "type": "function"
    },
    {
      "inputs": [
        {
          "internalType": "bytes3",
          "name": "",
          "type": "bytes3"
        }
      ],
      "name": "fiats",
      "outputs": [
        {
          "internalType": "contract IChainlink",
          "name": "",
          "type": "address"
        }
      ],
      "stateMutability": "view",
      "type": "function"
    },
    {
      "inputs": [],
      "name": "finder",
      "outputs": [
        {
          "internalType": "contract FinderInterface",
          "name": "",
          "type": "address"
        }
      ],
      "stateMutability": "view",
      "type": "function"
    },
    {
      "inputs": [],
      "name": "fundDeal",
      "outputs": [],
      "stateMutability": "nonpayable",
      "type": "function"
    },
    {
      "inputs": [
        {
          "internalType": "contract IERC20",
          "name": "token_",
          "type": "address"
        },
        {
          "internalType": "bytes3",
          "name": "fiat_",
          "type": "bytes3"
        }
      ],
      "name": "getPrice",
      "outputs": [
        {
          "internalType": "uint256",
          "name": "price",
          "type": "uint256"
        }
      ],
      "stateMutability": "view",
      "type": "function"
    },
    {
      "inputs": [
        {
          "internalType": "address",
          "name": "finder_",
          "type": "address"
        }
      ],
      "name": "initialize",
      "outputs": [],
      "stateMutability": "nonpayable",
      "type": "function"
    },
    {
      "inputs": [
        {
          "internalType": "uint256",
          "name": "",
          "type": "uint256"
        }
      ],
      "name": "methods",
      "outputs": [
        {
          "internalType": "bytes16",
          "name": "",
          "type": "bytes16"
        }
      ],
      "stateMutability": "view",
      "type": "function"
    },
    {
      "inputs": [
        {
          "internalType": "address",
          "name": "",
          "type": "address"
        }
      ],
      "name": "offers",
      "outputs": [
        {
          "internalType": "bool",
          "name": "",
          "type": "bool"
        }
      ],
      "stateMutability": "view",
      "type": "function"
    },
    {
      "inputs": [],
      "name": "owner",
      "outputs": [
        {
          "internalType": "address",
          "name": "",
          "type": "address"
        }
      ],
      "stateMutability": "view",
      "type": "function"
    },
    {
      "inputs": [],
      "name": "proxiableUUID",
      "outputs": [
        {
          "internalType": "bytes32",
          "name": "",
          "type": "bytes32"
        }
      ],
      "stateMutability": "view",
      "type": "function"
    },
    {
      "inputs": [
        {
          "internalType": "bytes3",
          "name": "symbol_",
          "type": "bytes3"
        }
      ],
      "name": "removeFiat",
      "outputs": [],
      "stateMutability": "nonpayable",
      "type": "function"
    },
    {
      "inputs": [
        {
          "internalType": "contract IERC20",
          "name": "address_",
          "type": "address"
        }
      ],
      "name": "removeToken",
      "outputs": [],
      "stateMutability": "nonpayable",
      "type": "function"
    },
    {
      "inputs": [],
      "name": "renounceOwnership",
      "outputs": [],
      "stateMutability": "nonpayable",
      "type": "function"
    },
    {
      "inputs": [
        {
          "internalType": "uint8",
          "name": "fee_",
          "type": "uint8"
        }
      ],
      "name": "setFee",
      "outputs": [],
      "stateMutability": "nonpayable",
      "type": "function"
    },
    {
      "inputs": [
        {
          "internalType": "contract IERC20",
          "name": "",
          "type": "address"
        }
      ],
      "name": "tokens",
      "outputs": [
        {
          "internalType": "contract IUniswapV3Pool",
          "name": "pool",
          "type": "address"
        },
        {
          "internalType": "uint8",
          "name": "decimals",
          "type": "uint8"
        }
      ],
      "stateMutability": "view",
      "type": "function"
    },
    {
      "inputs": [
        {
          "internalType": "address",
          "name": "newOwner",
          "type": "address"
        }
      ],
      "name": "transferOwnership",
      "outputs": [],
      "stateMutability": "nonpayable",
      "type": "function"
    },
    {
      "inputs": [
        {
          "internalType": "address",
          "name": "newImplementation",
          "type": "address"
        },
        {
          "internalType": "bytes",
          "name": "data",
          "type": "bytes"
        }
      ],
      "name": "upgradeToAndCall",
      "outputs": [],
      "stateMutability": "payable",
      "type": "function"
    }
  ],
  "bytecode": "0x60c03461012457601f612c4938819003918201601f19168301916001600160401b038311848410176101285780849260209460405283398101031261012457516001600160a01b0381168103610124573060805260a0525f516020612c295f395f51905f525460ff8160401c16610115576002600160401b03196001600160401b038216016100bf575b604051612aec908161013d82396080518181816112a70152611390015260a05181818161106701528181611d050152611da30152f35b6001600160401b0319166001600160401b039081175f516020612c295f395f51905f52556040519081527fc7f505b2f371ae2175ee4913f4499e1f2633a7b5936321eed1cdaeb6115181d290602090a15f610089565b63f92ee8a960e01b5f5260045ffd5b5f80fd5b634e487b7160e01b5f52604160045260245ffdfe60806040526004361015610011575f80fd5b5f5f3560e01c8063128053e214611a0d57806322face8a146116e75780633227a3d4146116aa5780633766a7471461161a578063413bf38f146115dd5780634f1ef2861461130657806352d1902d1461128c5780635fa7b584146112275780636a69b8a6146111b5578063715018a61461111c578063832501d1146110db578063887bf3ef1461108b57806389a30271146110475780638da5cb5b146110015780639f75824814610fe3578063a301d25114610fa1578063a3eab67f14610f6c578063a7842b0514610f19578063ab6a3e6a14610dc0578063ad3cb1cc14610d4c578063aeb35ebe146108b6578063b9a3c84c14610890578063c4d66de8146106ad578063c5f2b41414610281578063cb122a0914610247578063d81bffaa146101f5578063ddca3f43146101d4578063e4860339146101885763f2fde38b14610159575f80fd5b3461018557602036600319011261018557610182610175611afb565b61017d61276a565b6126af565b80f35b80fd5b503461018557602036600319011261018557604080916001600160a01b036101ae611afb565b1681526001602052205460ff8251916001600160a01b038116835260a01c166020820152f35b5034610185578060031936011261018557602060ff60055416604051908152f35b50346101855760203660031901126101855761020f61276a565b7f7e13308d621ccab0127012a309f9c2b5e0aaa7b20f923d0e7f3866967d7b054e60206004356004541780600455604051908152a180f35b50346101855760203660031901126101855760043560ff811680910361027d5761026f61276a565b60ff19600554161760055580f35b5080fd5b503461018557806003193601126101855733815260076020526102ab3360ff604084205416611bf7565b6040517fc19d93fb000000000000000000000000000000000000000000000000000000008152602081600481335afa908115610626578291610672575b50600881101561065e57600103610631576040516360146f8360e11b8152602081600481335afa8015610626576001600160a01b03918391610607575b5016604051907ffc0c546a000000000000000000000000000000000000000000000000000000008252602082600481845afa91821561052f5783926105bf575b506040517f0c570c86000000000000000000000000000000000000000000000000000000008152602081600481855afa9081156104f5578491610584575b501561053a57602060049160405192838092638da5cb5b60e01b82525afa90811561052f578391610500575b505b6040517feec7faa1000000000000000000000000000000000000000000000000000000008152602081600481335afa9081156104f55784916104bf575b506001600160a01b03604051927f23b872dd000000000000000000000000000000000000000000000000000000008652166004523360245260445260208360648180865af190600184511482161561049f575b501561046b575080f35b7f5274afe70000000000000000000000000000000000000000000000000000000082526001600160a01b0316600452602490fd5b60018215166104b75750813b15153d1516165f610461565b3d84823e3d90fd5b90506020813d6020116104ed575b816104da60209383611b6d565b810103126104e957515f61040e565b8380fd5b3d91506104cd565b6040513d86823e3d90fd5b610522915060203d602011610528575b61051a8183611b6d565b810190611c34565b5f6103cf565b503d610510565b6040513d85823e3d90fd5b50604051633c159b0160e11b8152602081600481335afa90811561052f578391610565575b506103d1565b61057e915060203d6020116105285761051a8183611b6d565b5f61055f565b90506020813d6020116105b7575b8161059f60209383611b6d565b810103126104e9575180151581036104e9575f6103a3565b3d9150610592565b9091506020813d6020116105ff575b816105db60209383611b6d565b810103126105fb57516001600160a01b03811681036105fb57905f610365565b8280fd5b3d91506105ce565b610620915060203d6020116105285761051a8183611b6d565b5f610325565b6040513d84823e3d90fd5b807f5540031e00000000000000000000000000000000000000000000000000000000602492526001600452fd5b602482634e487b7160e01b81526021600452fd5b90506020813d6020116106a5575b8161068d60209383611b6d565b8101031261027d5751600881101561027d575f6102e8565b3d9150610680565b5034610185576020366003190112610185576106c7611afb565b7ff0c57e16840df040f15088dc2f81fe391c3923bec73e23a9662efc9c229c6a00549060ff8260401c16159167ffffffffffffffff811680159081610888575b600114908161087e575b159081610875575b5061084d5767ffffffffffffffff1981166001177ff0c57e16840df040f15088dc2f81fe391c3923bec73e23a9662efc9c229c6a00556001600160a01b0391908361080e575b506107686129a5565b6107706129a5565b610779336126af565b166001600160a01b03198354161782556107905780f35b68ff0000000000000000197ff0c57e16840df040f15088dc2f81fe391c3923bec73e23a9662efc9c229c6a0054167ff0c57e16840df040f15088dc2f81fe391c3923bec73e23a9662efc9c229c6a00557fc7f505b2f371ae2175ee4913f4499e1f2633a7b5936321eed1cdaeb6115181d2602060405160018152a180f35b68ffffffffffffffffff191668010000000000000001177ff0c57e16840df040f15088dc2f81fe391c3923bec73e23a9662efc9c229c6a00555f61075f565b6004847ff92ee8a9000000000000000000000000000000000000000000000000000000008152fd5b9050155f610719565b303b159150610711565b849150610707565b50346101855780600319360112610185576001600160a01b036020915416604051908152f35b50346101855760203660031901126101855760043567ffffffffffffffff811161027d578036036101006003198201126105fb57608482016001600160a01b036108ff82612664565b16845260016020526001600160a01b0360408520541615610d0f5760a48301916001600160e81b031961093184612678565b16855260026020526001600160a01b0360408620541615610cd15760c4840135938415610cbe57600454851680610cac575060248101359161ffff8316809303610c06578215610c845760448201956109898761268d565b93606484019463ffffffff8061099e8861268d565b1691161015610c5c57602460206001600160a01b038b5416604051928380926302abf57960e61b82527f4f66666572496d706c656d656e746174696f6e0000000000000000000000000060048301525afa8015610c51576e5af43d82803e903d91602b57fd5bf3918b91610c32575b50763d602d80600a3d3981f3363d3d373d3d3d363d7300000062ffffff8260881c16178b5260781b176020526001600160a01b03603760098bf016978815610c0a5790899594939291893b15610c0657604051957f4304db7b00000000000000000000000000000000000000000000000000000000875233600488015260406024880152856004013592831515809403610c0257610ac0610acb9363ffffffff9592869360448c015260648b015261269e565b16608488015261269e565b1660a485015285356001600160a01b038116809103610bfe5760c485015286356001600160e81b03198116809103610bfe5760e485015261010484015260e482013590602219018112156104e957016024600482013591019067ffffffffffffffff81116104e95780360382136104e95782610b5885938293610100610124850152610144840191611c53565b038183895af1801561062657610be5575b50926001600160e81b0319610bc1610bbb60809594847f34fb7d2d2b97e859ef855139984e45a69063e11e573e50eb2bc3b976facb8ba69852600660205260408920600160ff19825416179055612664565b93612678565b6001600160a01b03604051943386521660208501521660408301526060820152a180f35b81610bf291949394611b6d565b6104e95790835f610b69565b8580fd5b8880fd5b8680fd5b60048a7fb06ebf3d000000000000000000000000000000000000000000000000000000008152fd5b610c4b915060203d6020116105285761051a8183611b6d565b5f610a0d565b6040513d8c823e3d90fd5b6004897fe773e0a9000000000000000000000000000000000000000000000000000000008152fd5b6004877f6a43f8d1000000000000000000000000000000000000000000000000000000008152fd5b637339074360e11b8752600452602486fd5b60248686637339074360e11b8252600452fd5b6024856001600160e81b0319610ce686612678565b7fb9ebd42200000000000000000000000000000000000000000000000000000000835216600452fd5b836001600160a01b03610d23602493612664565b7f961c9a4f00000000000000000000000000000000000000000000000000000000835216600452fd5b503461018557806003193601126101855760408051610d6b8282611b6d565b60058152602081017f352e302e3000000000000000000000000000000000000000000000000000000081528251938492602084525180928160208601528585015e828201840152601f01601f19168101030190f35b50346101855760203660031901126101855760043567ffffffffffffffff811161027d573660238201121561027d57806004013567ffffffffffffffff81116105fb576024820191602436918360051b0101116105fb57610e1f61276a565b825b818110610e2c578380f35b610e3f610e3a828486612636565b612646565b60035468010000000000000000811015610f0557806001610e639201600355611ba3565b6fffffffffffffffffffffffffffffffff829392549160031b9260801c831b921b1916179055610e97610e3a828486612636565b6003545f198101908111610ef1576040600193927f6105d3dad2f4fd52dc8603dd2a345b9b12bc380aef73991496a237d26b3e0a74926fffffffffffffffffffffffffffffffff198351921682526020820152a101610e21565b602486634e487b7160e01b81526011600452fd5b602486634e487b7160e01b81526041600452fd5b503461018557602036600319011261018557610f3361276a565b7f7e13308d621ccab0127012a309f9c2b5e0aaa7b20f923d0e7f3866967d7b054e6020600435196004541680600455604051908152a180f35b5034610185576040366003190112610185576020610f99610f8b611afb565b610f93611b56565b90611d92565b604051908152f35b5034610185576020366003190112610185576001600160a01b0360406020926001600160e81b0319610fd1611b3f565b16815260028452205416604051908152f35b50346101855780600319360112610185576020600454604051908152f35b503461018557806003193601126101855760206001600160a01b037f9016d09d72d40fdae2fd8ceac6b6234c7706214fd39c1cd1e609a0528c1993005416604051908152f35b503461018557806003193601126101855760206040516001600160a01b037f0000000000000000000000000000000000000000000000000000000000000000168152f35b503461018557602036600319011261018557600435906003548210156101855760206110b683611ba3565b90549060031b1c60801b6fffffffffffffffffffffffffffffffff1960405191168152f35b5034610185576080366003190112610185576110f5611b56565b90604435906001600160a01b0382168203610185576020610f996064358486600435611c73565b503461018557806003193601126101855761113561276a565b806001600160a01b037f9016d09d72d40fdae2fd8ceac6b6234c7706214fd39c1cd1e609a0528c199300546001600160a01b031981167f9016d09d72d40fdae2fd8ceac6b6234c7706214fd39c1cd1e609a0528c19930055167f8be0079c531659141344cd1fd0a4f28419497f9722a3daafe3b4186f6b6457e08280a380f35b5034610185576020366003190112610185577f3f6bfc4bba75804b105dc56b5d6a6239a3e3b6223c7c57926b316092c4d76a2560206001600160e81b03196111fb611b3f565b61120361276a565b1680845260028252604084206001600160a01b03198154169055604051908152a180f35b5034610185576020366003190112610185577f4c910b69fe65a61f7531b9c5042b2329ca7179c77290aa7e2eb3afa3c8511fd360206001600160a01b0361126c611afb565b61127461276a565b1680845260018252836040812055604051908152a180f35b50346101855780600319360112610185576001600160a01b037f00000000000000000000000000000000000000000000000000000000000000001630036112f75760206040517f360894a13ba1a3210667c828492db98dca3e2076cc3735a920a3ca505d382bbc8152f35b8063703e46dd60e11b60049252fd5b5060403660031901126101855761131b611afb565b906024359167ffffffffffffffff831161027d573660238401121561027d57826004013567ffffffffffffffff81116115c95760405193611366601f8301601f191660200186611b6d565b81855236602483830101116104e95781849260246020930183880137850101526001600160a01b037f000000000000000000000000000000000000000000000000000000000000000016803014908115611594575b50611585576113c861276a565b6001600160a01b03811690604051937f52d1902d000000000000000000000000000000000000000000000000000000008552602085600481865afa8095859661154d575b506114245760248484634c9c8ce360e01b8252600452fd5b9091847f360894a13ba1a3210667c828492db98dca3e2076cc3735a920a3ca505d382bbc81036115225750823b1561151057806001600160a01b03197f360894a13ba1a3210667c828492db98dca3e2076cc3735a920a3ca505d382bbc5416177f360894a13ba1a3210667c828492db98dca3e2076cc3735a920a3ca505d382bbc557fbc7cd75a20ee27fd9adebab32041f755214dbc6bffa90cc0225b39da2e5c2d3b8480a28051156114de576114da916129fc565b5080f35b5050346114e85780f35b807fb398979f0000000000000000000000000000000000000000000000000000000060049252fd5b634c9c8ce360e01b8452600452602483fd5b7faa1d49a4000000000000000000000000000000000000000000000000000000008552600452602484fd5b9095506020813d60201161157d575b8161156960209383611b6d565b810103126115795751945f61140c565b8480fd5b3d915061155c565b60048263703e46dd60e11b8152fd5b90506001600160a01b037f360894a13ba1a3210667c828492db98dca3e2076cc3735a920a3ca505d382bbc541614155f6113bb565b602483634e487b7160e01b81526041600452fd5b50346101855760203660031901126101855760ff60406020926001600160a01b03611606611afb565b168152600684522054166040519015158152f35b503461018557604036600319011261018557611634611b3f565b602435906001600160a01b0382168092036105fb577fc0aea0cd1ef4482000074ee16c1410faa164f1adefc4aae1b1a68a2aa494facc916001600160e81b031960409261167f61276a565b16908185526002602052828520816001600160a01b031982541617905582519182526020820152a180f35b50346101855760203660031901126101855760ff60406020926001600160a01b036116d3611afb565b168152600784522054166040519015158152f35b503461197b57608036600319011261197b576004356001600160a01b03811680910361197b576024356fffffffffffffffffffffffffffffffff19811680910361197b5760443567ffffffffffffffff811161197b5761174b903690600401611b11565b919060643567ffffffffffffffff811161197b5761176d903690600401611b11565b9093335f5260066020526117883360ff60405f205416611bf7565b855f52600760205260405f20600160ff198254161790556040516360146f8360e11b81526020816004818a5afa8015611970576001600160a01b03915f916119ee575b50169160405190638da5cb5b60e01b8252602082600481875afa918215611970575f926119cd575b5060405194633c159b0160e11b86526020866004818c5afa938415611970577fbd43e77a98ce81df51d35e3461f709f06e1f125f646944182923e9238b14c91d976001600160a01b03975f9661199e575b509161187b91889361188b97986040519a8b9a168a5260208a01528c60408a0152606089015260c0608089015260c0880191611c53565b9285840360a08701521696611c53565b0390a2602460206001600160a01b035f5416604051928380926302abf57960e61b82527f50726f66696c650000000000000000000000000000000000000000000000000060048301525afa8015611970576001600160a01b03915f9161197f575b501690813b1561197b575f916044839260405194859384927f2f2ff15d0000000000000000000000000000000000000000000000000000000084527f4445414c5f524f4c450000000000000000000000000000000000000000000000600485015260248401525af1801561197057611962575080f35b61196e91505f90611b6d565b005b6040513d5f823e3d90fd5b5f80fd5b611998915060203d6020116105285761051a8183611b6d565b5f6118ec565b61188b9650918893916119c261187b9460203d6020116105285761051a8183611b6d565b975091935091611844565b6119e791925060203d6020116105285761051a8183611b6d565b905f6117f3565b611a07915060203d6020116105285761051a8183611b6d565b5f6117cb565b3461197b57606036600319011261197b57611a26611afb565b604036602319011261197b576001600160a01b0390611a4361276a565b16805f52600160205260405f20906024356001600160a01b038116810361197b576001600160a01b03166001600160a01b03198354161782556044359060ff8216820361197b57826020927fffffffffffffffffffffff00ffffffffffffffffffffffffffffffffffffffff74ff00000000000000000000000000000000000000007f784c8f4dbf0ffedd6e72c76501c545a70f8b203b30a26ce542bf92ba87c248a496549260a01b169116179055604051908152a1005b600435906001600160a01b038216820361197b57565b9181601f8401121561197b5782359167ffffffffffffffff831161197b576020838186019501011161197b57565b600435906001600160e81b03198216820361197b57565b602435906001600160e81b03198216820361197b57565b90601f8019910116810190811067ffffffffffffffff821117611b8f57604052565b634e487b7160e01b5f52604160045260245ffd5b90600354821015611be35760035f52600182901c7fc2575a0e9e593c00f959f8c92f12db2869c3395a3b0502d05e2516446f71f85b019160041b60101690565b634e487b7160e01b5f52603260045260245ffd5b15611bff5750565b6001600160a01b03907f32b2baa3000000000000000000000000000000000000000000000000000000005f521660045260245ffd5b9081602091031261197b57516001600160a01b038116810361197b5790565b908060209392818452848401375f828201840152601f01601f1916010190565b929192621554d160ea1b6001600160e81b031983161480611cfa575b611cee576001600160a01b0384165f52600160205260ff60405f205460a01c1690604d8211611cda57611cc8611cd293611cd796611d92565b91600a0a90612920565b6127c9565b90565b634e487b7160e01b5f52601160045260245ffd5b9050611cd792506127c9565b506001600160a01b037f0000000000000000000000000000000000000000000000000000000000000000166001600160a01b03851614611c8f565b67ffffffffffffffff8111611b8f5760051b60200190565b805115611be35760200190565b805160011015611be35760400190565b60ff16604d8111611cda57600a0a90565b519069ffffffffffffffffffff8216820361197b57565b9091906001600160a01b03908116907f000000000000000000000000000000000000000000000000000000000000000016811461262257805f52600160205260405f2090604051916040830183811067ffffffffffffffff821117611b8f5760405254906001600160a01b038216835260ff602084019260a01c168252604051611e1d606082611b6d565b600281526020810190604036833761012c611e3782611d4d565b525f611e4282611d5a565b526001600160a01b03855116906040519283917f883bdbfd000000000000000000000000000000000000000000000000000000008352602483019060206004850152518091526044830191905f5b818110612603575050509181805f9403915afa908115611970575f916124e9575b50611ec8611ebe82611d5a565b5160060b91611d4d565b5160060b9003667fffffffffffff198112667fffffffffffff821317611cda5760060b61012c810560020b905f811290816124d8575b506124c5575b60020b5f8112156124bf57805f03905b620d89e882116124615760018216156124385770ffffffffffffffffffffffffffffffffff6ffffcb933bd6fad37aa2d162d1a5940015b16916002811661241c575b60048116612400575b600881166123e4575b601081166123c8575b602081166123ac575b60408116612390575b60808116612374575b6101008116612358575b610200811661233c575b6104008116612320575b6108008116612304575b61100081166122e8575b61200081166122cc575b61400081166122b0575b6180008116612294575b620100008116612278575b62020000811661225d575b620400008116612242575b6208000016612229575b5f1261221b575b6001600160a01b039063ffffffff81166122125760ff5f5b169060201c01169081800291808304811490151715611cda5760206001600160a01b036004955116604051958680927f0dfe16810000000000000000000000000000000000000000000000000000000082525afa938415611970576001600160e81b0319946001600160a01b03915f916121f3575b5016036121d8576120b260ff6120b8935116611d6a565b906128d3565b925b16621554d160ea1b81036120cb5750565b91600491925f52600260205260a06001600160a01b0360405f205416604051938480927ffeaf968c0000000000000000000000000000000000000000000000000000000082525afa918215611970575f92612189575b505f821315612161576305f5e1008102908082046305f5e1001490151715611cda57811561214d570490565b634e487b7160e01b5f52601260045260245ffd5b7fa9cb9e0d000000000000000000000000000000000000000000000000000000005f5260045ffd5b90915060a0813d60a0116121d0575b816121a560a09383611b6d565b8101031261197b576121b681611d7b565b506121c8608060208301519201611d7b565b50905f612121565b3d9150612198565b6121e860ff6121ed935116611d6a565b612853565b926120ba565b61220c915060203d6020116105285761051a8183611b6d565b5f61209b565b60ff6001612026565b801561214d575f190461200e565b6b048a170391f7dc42444e8fa290910260801c90612007565b6d2216e584f5fa1ea926041bedfe9890920260801c91611ffd565b916e5d6af8dedb81196699c329225ee6040260801c91611ff2565b916f09aa508b5b7a84e1c677de54f3e99bc90260801c91611fe7565b916f31be135f97d08fd981231505542fcfa60260801c91611fdc565b916f70d869a156d2a1b890bb3df62baf32f70260801c91611fd2565b916fa9f746462d870fdf8a65dc1f90e061e50260801c91611fc8565b916fd097f3bdfd2022b8845ad8f792aa58250260801c91611fbe565b916fe7159475a2c29b7443b29c7fa6e889d90260801c91611fb4565b916ff3392b0822b70005940c7a398e4b70f30260801c91611faa565b916ff987a7253ac413176f2b074cf7815e540260801c91611fa0565b916ffcbe86c7900a88aedcffc83b479aa3a40260801c91611f96565b916ffe5dee046a99a2a811c461f1969c30530260801c91611f8c565b916fff2ea16466c96a3843ec78b326b9753a0260801c91611f83565b916fff973b41fa98c081472e6896dfb254c00260801c91611f7a565b916fffcb9843d60f6159c9db58835c9266440260801c91611f71565b916fffe5caca7e10e4e61c3624eaa0941cd00260801c91611f68565b916ffff2e50f5f656932ef12357cf3c7fdcc0260801c91611f5f565b916ffff97272373d413259a46990580e213a0260801c91611f56565b70ffffffffffffffffffffffffffffffffff700100000000000000000000000000000000611f4b565b60646040517f08c379a000000000000000000000000000000000000000000000000000000000815260206004820152600160248201527f54000000000000000000000000000000000000000000000000000000000000006044820152fd5b80611f14565b627fffff198114611cda575f1901611f04565b61012c91500760060b15155f611efe565b90503d805f833e6124fa8183611b6d565b810160408282031261197b57815167ffffffffffffffff811161197b5782019181601f8401121561197b57825161253081611d35565b9361253e6040519586611b6d565b81855260208086019260051b8201019084821161197b57602001915b8183106125e95750505060208101519067ffffffffffffffff821161197b57019080601f8301121561197b5781519160208061259585611d35565b6125a26040519182611b6d565b858152019360051b82010191821161197b57602001915b8183106125c9575050505f611eb1565b82516001600160a01b038116810361197b578152602092830192016125b9565b82518060060b810361197b5781526020928301920161255a565b825163ffffffff16845286945060209384019390920191600101611e90565b506001600160e81b0319620f4240926120ba565b9190811015611be35760051b0190565b356fffffffffffffffffffffffffffffffff198116810361197b5790565b356001600160a01b038116810361197b5790565b356001600160e81b03198116810361197b5790565b3563ffffffff8116810361197b5790565b359063ffffffff8216820361197b57565b6001600160a01b0316801561273e576001600160a01b037f9016d09d72d40fdae2fd8ceac6b6234c7706214fd39c1cd1e609a0528c19930054826001600160a01b03198216177f9016d09d72d40fdae2fd8ceac6b6234c7706214fd39c1cd1e609a0528c19930055167f8be0079c531659141344cd1fd0a4f28419497f9722a3daafe3b4186f6b6457e05f80a3565b7f1e4fbdf7000000000000000000000000000000000000000000000000000000005f525f60045260245ffd5b6001600160a01b037f9016d09d72d40fdae2fd8ceac6b6234c7706214fd39c1cd1e609a0528c1993005416330361279d57565b7f118cdaa7000000000000000000000000000000000000000000000000000000005f523360045260245ffd5b5f19612710820991612710820291828085109403938085039414612846578382111561197b5761271082910981805f03168092046002816003021880820260020302808202600203028082026002030280820260020302808202600203028091026002030293600183805f03040190848311900302920304170290565b508092501561197b570490565b5f1981600160c01b09918160c01b91828085109403938085039414612846578382111561197b578190600160c01b0981805f03168092046002816003021880820260020302808202600203028082026002030280820260020302808202600203028091026002030293600183805f03040190848311900302920304170290565b5f915f1981830991818102938480851094039380850394146129165783600160c01b1115610185575090600160c01b910990828211900360401b910360c01c1790565b5050505060c01c90565b915f198284099282810292838086109503948086039514612997578483111561197b5782910981805f03168092046002816003021880820260020302808202600203028082026002030280820260020302808202600203028091026002030293600183805f03040190848311900302920304170290565b50508092501561197b570490565b60ff7ff0c57e16840df040f15088dc2f81fe391c3923bec73e23a9662efc9c229c6a005460401c16156129d457565b7fd7e6bcf8000000000000000000000000000000000000000000000000000000005f5260045ffd5b905f8091602081519101845af48080612aa3575b15612a305750506040513d81523d5f602083013e60203d82010160405290565b15612a6a576001600160a01b03907f9996b315000000000000000000000000000000000000000000000000000000005f521660045260245ffd5b3d15612a7b576040513d5f823e3d90fd5b7fd6bda275000000000000000000000000000000000000000000000000000000005f5260045ffd5b503d151580612a105750813b1515612a1056fea2646970667358221220b8bbdf01f4a9a816e20f8ebbeb5b19313d06b9bd1c24c6b72bd3301492f1338964736f6c63430008220033f0c57e16840df040f15088dc2f81fe391c3923bec73e23a9662efc9c229c6a00",
  "linkReferences": {},
  "deployedLinkReferences": {},
  "immutableReferences": {
    "482": [
      {
        "length": 32,
        "start": 4775
      },
      {
        "length": 32,
        "start": 5008
      }
    ],
    "3531": [
      {
        "length": 32,
        "start": 4199
      },
      {
        "length": 32,
        "start": 7429
      },
      {
        "length": 32,
        "start": 7587
      }
    ]
  },
  "inputSourceName": "project/evm/protocol/Market.sol",
  "buildInfoId": "solc-0_8_34-14cbb390b34e6c3c55d55daf3355d57ce9573d72"
}