{
  "_format": "hh3-artifact-1",
  "contractName": "OptimisticOracleV3",
  "sourceName": "@uma/core/contracts/optimistic-oracle-v3/implementation/OptimisticOracleV3.sol",
  "abi": [
    {
      "inputs": [
        {
          "internalType": "contract FinderInterface",
          "name": "_finder",
          "type": "address"
        },
        {
          "internalType": "contract IERC20",
          "name": "_defaultCurrency",
          "type": "address"
        },
        {
          "internalType": "uint64",
          "name": "_defaultLiveness",
          "type": "uint64"
        }
      ],
      "stateMutability": "nonpayable",
      "type": "constructor"
    },
    {
      "anonymous": false,
      "inputs": [
        {
          "indexed": false,
          "internalType": "contract IERC20",
          "name": "defaultCurrency",
          "type": "address"
        },
        {
          "indexed": false,
          "internalType": "uint64",
          "name": "defaultLiveness",
          "type": "uint64"
        },
        {
          "indexed": false,
          "internalType": "uint256",
          "name": "burnedBondPercentage",
          "type": "uint256"
        }
      ],
      "name": "AdminPropertiesSet",
      "type": "event"
    },
    {
      "anonymous": false,
      "inputs": [
        {
          "indexed": true,
          "internalType": "bytes32",
          "name": "assertionId",
          "type": "bytes32"
        },
        {
          "indexed": true,
          "internalType": "address",
          "name": "caller",
          "type": "address"
        },
        {
          "indexed": true,
          "internalType": "address",
          "name": "disputer",
          "type": "address"
        }
      ],
      "name": "AssertionDisputed",
      "type": "event"
    },
    {
      "anonymous": false,
      "inputs": [
        {
          "indexed": true,
          "internalType": "bytes32",
          "name": "assertionId",
          "type": "bytes32"
        },
        {
          "indexed": false,
          "internalType": "bytes32",
          "name": "domainId",
          "type": "bytes32"
        },
        {
          "indexed": false,
          "internalType": "bytes",
          "name": "claim",
          "type": "bytes"
        },
        {
          "indexed": true,
          "internalType": "address",
          "name": "asserter",
          "type": "address"
        },
        {
          "indexed": false,
          "internalType": "address",
          "name": "callbackRecipient",
          "type": "address"
        },
        {
          "indexed": false,
          "internalType": "address",
          "name": "escalationManager",
          "type": "address"
        },
        {
          "indexed": false,
          "internalType": "address",
          "name": "caller",
          "type": "address"
        },
        {
          "indexed": false,
          "internalType": "uint64",
          "name": "expirationTime",
          "type": "uint64"
        },
        {
          "indexed": false,
          "internalType": "contract IERC20",
          "name": "currency",
          "type": "address"
        },
        {
          "indexed": false,
          "internalType": "uint256",
          "name": "bond",
          "type": "uint256"
        },
        {
          "indexed": true,
          "internalType": "bytes32",
          "name": "identifier",
          "type": "bytes32"
        }
      ],
      "name": "AssertionMade",
      "type": "event"
    },
    {
      "anonymous": false,
      "inputs": [
        {
          "indexed": true,
          "internalType": "bytes32",
          "name": "assertionId",
          "type": "bytes32"
        },
        {
          "indexed": true,
          "internalType": "address",
          "name": "bondRecipient",
          "type": "address"
        },
        {
          "indexed": false,
          "internalType": "bool",
          "name": "disputed",
          "type": "bool"
        },
        {
          "indexed": false,
          "internalType": "bool",
          "name": "settlementResolution",
          "type": "bool"
        },
        {
          "indexed": false,
          "internalType": "address",
          "name": "settleCaller",
          "type": "address"
        }
      ],
      "name": "AssertionSettled",
      "type": "event"
    },
    {
      "anonymous": false,
      "inputs": [
        {
          "indexed": true,
          "internalType": "address",
          "name": "previousOwner",
          "type": "address"
        },
        {
          "indexed": true,
          "internalType": "address",
          "name": "newOwner",
          "type": "address"
        }
      ],
      "name": "OwnershipTransferred",
      "type": "event"
    },
    {
      "inputs": [
        {
          "internalType": "bytes",
          "name": "claim",
          "type": "bytes"
        },
        {
          "internalType": "address",
          "name": "asserter",
          "type": "address"
        },
        {
          "internalType": "address",
          "name": "callbackRecipient",
          "type": "address"
        },
        {
          "internalType": "address",
          "name": "escalationManager",
          "type": "address"
        },
        {
          "internalType": "uint64",
          "name": "liveness",
          "type": "uint64"
        },
        {
          "internalType": "contract IERC20",
          "name": "currency",
          "type": "address"
        },
        {
          "internalType": "uint256",
          "name": "bond",
          "type": "uint256"
        },
        {
          "internalType": "bytes32",
          "name": "identifier",
          "type": "bytes32"
        },
        {
          "internalType": "bytes32",
          "name": "domainId",
          "type": "bytes32"
        }
      ],
      "name": "assertTruth",
      "outputs": [
        {
          "internalType": "bytes32",
          "name": "assertionId",
          "type": "bytes32"
        }
      ],
      "stateMutability": "nonpayable",
      "type": "function"
    },
    {
      "inputs": [
        {
          "internalType": "bytes",
          "name": "claim",
          "type": "bytes"
        },
        {
          "internalType": "address",
          "name": "asserter",
          "type": "address"
        }
      ],
      "name": "assertTruthWithDefaults",
      "outputs": [
        {
          "internalType": "bytes32",
          "name": "",
          "type": "bytes32"
        }
      ],
      "stateMutability": "nonpayable",
      "type": "function"
    },
    {
      "inputs": [
        {
          "internalType": "bytes32",
          "name": "",
          "type": "bytes32"
        }
      ],
      "name": "assertions",
      "outputs": [
        {
          "components": [
            {
              "internalType": "bool",
              "name": "arbitrateViaEscalationManager",
              "type": "bool"
            },
            {
              "internalType": "bool",
              "name": "discardOracle",
              "type": "bool"
            },
            {
              "internalType": "bool",
              "name": "validateDisputers",
              "type": "bool"
            },
            {
              "internalType": "address",
              "name": "assertingCaller",
              "type": "address"
            },
            {
              "internalType": "address",
              "name": "escalationManager",
              "type": "address"
            }
          ],
          "internalType": "struct OptimisticOracleV3Interface.EscalationManagerSettings",
          "name": "escalationManagerSettings",
          "type": "tuple"
        },
        {
          "internalType": "address",
          "name": "asserter",
          "type": "address"
        },
        {
          "internalType": "uint64",
          "name": "assertionTime",
          "type": "uint64"
        },
        {
          "internalType": "bool",
          "name": "settled",
          "type": "bool"
        },
        {
          "internalType": "contract IERC20",
          "name": "currency",
          "type": "address"
        },
        {
          "internalType": "uint64",
          "name": "expirationTime",
          "type": "uint64"
        },
        {
          "internalType": "bool",
          "name": "settlementResolution",
          "type": "bool"
        },
        {
          "internalType": "bytes32",
          "name": "domainId",
          "type": "bytes32"
        },
        {
          "internalType": "bytes32",
          "name": "identifier",
          "type": "bytes32"
        },
        {
          "internalType": "uint256",
          "name": "bond",
          "type": "uint256"
        },
        {
          "internalType": "address",
          "name": "callbackRecipient",
          "type": "address"
        },
        {
          "internalType": "address",
          "name": "disputer",
          "type": "address"
        }
      ],
      "stateMutability": "view",
      "type": "function"
    },
    {
      "inputs": [],
      "name": "burnedBondPercentage",
      "outputs": [
        {
          "internalType": "uint256",
          "name": "",
          "type": "uint256"
        }
      ],
      "stateMutability": "view",
      "type": "function"
    },
    {
      "inputs": [
        {
          "internalType": "address",
          "name": "",
          "type": "address"
        }
      ],
      "name": "cachedCurrencies",
      "outputs": [
        {
          "internalType": "bool",
          "name": "isWhitelisted",
          "type": "bool"
        },
        {
          "internalType": "uint256",
          "name": "finalFee",
          "type": "uint256"
        }
      ],
      "stateMutability": "view",
      "type": "function"
    },
    {
      "inputs": [
        {
          "internalType": "bytes32",
          "name": "",
          "type": "bytes32"
        }
      ],
      "name": "cachedIdentifiers",
      "outputs": [
        {
          "internalType": "bool",
          "name": "",
          "type": "bool"
        }
      ],
      "stateMutability": "view",
      "type": "function"
    },
    {
      "inputs": [],
      "name": "cachedOracle",
      "outputs": [
        {
          "internalType": "address",
          "name": "",
          "type": "address"
        }
      ],
      "stateMutability": "view",
      "type": "function"
    },
    {
      "inputs": [],
      "name": "defaultCurrency",
      "outputs": [
        {
          "internalType": "contract IERC20",
          "name": "",
          "type": "address"
        }
      ],
      "stateMutability": "view",
      "type": "function"
    },
    {
      "inputs": [],
      "name": "defaultIdentifier",
      "outputs": [
        {
          "internalType": "bytes32",
          "name": "",
          "type": "bytes32"
        }
      ],
      "stateMutability": "view",
      "type": "function"
    },
    {
      "inputs": [],
      "name": "defaultLiveness",
      "outputs": [
        {
          "internalType": "uint64",
          "name": "",
          "type": "uint64"
        }
      ],
      "stateMutability": "view",
      "type": "function"
    },
    {
      "inputs": [
        {
          "internalType": "bytes32",
          "name": "assertionId",
          "type": "bytes32"
        },
        {
          "internalType": "address",
          "name": "disputer",
          "type": "address"
        }
      ],
      "name": "disputeAssertion",
      "outputs": [],
      "stateMutability": "nonpayable",
      "type": "function"
    },
    {
      "inputs": [],
      "name": "finder",
      "outputs": [
        {
          "internalType": "contract FinderInterface",
          "name": "",
          "type": "address"
        }
      ],
      "stateMutability": "view",
      "type": "function"
    },
    {
      "inputs": [
        {
          "internalType": "bytes32",
          "name": "assertionId",
          "type": "bytes32"
        }
      ],
      "name": "getAssertion",
      "outputs": [
        {
          "components": [
            {
              "components": [
                {
                  "internalType": "bool",
                  "name": "arbitrateViaEscalationManager",
                  "type": "bool"
                },
                {
                  "internalType": "bool",
                  "name": "discardOracle",
                  "type": "bool"
                },
                {
                  "internalType": "bool",
                  "name": "validateDisputers",
                  "type": "bool"
                },
                {
                  "internalType": "address",
                  "name": "assertingCaller",
                  "type": "address"
                },
                {
                  "internalType": "address",
                  "name": "escalationManager",
                  "type": "address"
                }
              ],
              "internalType": "struct OptimisticOracleV3Interface.EscalationManagerSettings",
              "name": "escalationManagerSettings",
              "type": "tuple"
            },
            {
              "internalType": "address",
              "name": "asserter",
              "type": "address"
            },
            {
              "internalType": "uint64",
              "name": "assertionTime",
              "type": "uint64"
            },
            {
              "internalType": "bool",
              "name": "settled",
              "type": "bool"
            },
            {
              "internalType": "contract IERC20",
              "name": "currency",
              "type": "address"
            },
            {
              "internalType": "uint64",
              "name": "expirationTime",
              "type": "uint64"
            },
            {
              "internalType": "bool",
              "name": "settlementResolution",
              "type": "bool"
            },
            {
              "internalType": "bytes32",
              "name": "domainId",
              "type": "bytes32"
            },
            {
              "internalType": "bytes32",
              "name": "identifier",
              "type": "bytes32"
            },
            {
              "internalType": "uint256",
              "name": "bond",
              "type": "uint256"
            },
            {
              "internalType": "address",
              "name": "callbackRecipient",
              "type": "address"
            },
            {
              "internalType": "address",
              "name": "disputer",
              "type": "address"
            }
          ],
          "internalType": "struct OptimisticOracleV3Interface.Assertion",
          "name": "",
          "type": "tuple"
        }
      ],
      "stateMutability": "view",
      "type": "function"
    },
    {
      "inputs": [
        {
          "internalType": "bytes32",
          "name": "assertionId",
          "type": "bytes32"
        }
      ],
      "name": "getAssertionResult",
      "outputs": [
        {
          "internalType": "bool",
          "name": "",
          "type": "bool"
        }
      ],
      "stateMutability": "view",
      "type": "function"
    },
    {
      "inputs": [],
      "name": "getCurrentTime",
      "outputs": [
        {
          "internalType": "uint256",
          "name": "",
          "type": "uint256"
        }
      ],
      "stateMutability": "view",
      "type": "function"
    },
    {
      "inputs": [
        {
          "internalType": "address",
          "name": "currency",
          "type": "address"
        }
      ],
      "name": "getMinimumBond",
      "outputs": [
        {
          "internalType": "uint256",
          "name": "",
          "type": "uint256"
        }
      ],
      "stateMutability": "view",
      "type": "function"
    },
    {
      "inputs": [
        {
          "internalType": "bytes[]",
          "name": "data",
          "type": "bytes[]"
        }
      ],
      "name": "multicall",
      "outputs": [
        {
          "internalType": "bytes[]",
          "name": "results",
          "type": "bytes[]"
        }
      ],
      "stateMutability": "nonpayable",
      "type": "function"
    },
    {
      "inputs": [],
      "name": "numericalTrue",
      "outputs": [
        {
          "internalType": "int256",
          "name": "",
          "type": "int256"
        }
      ],
      "stateMutability": "view",
      "type": "function"
    },
    {
      "inputs": [],
      "name": "owner",
      "outputs": [
        {
          "internalType": "address",
          "name": "",
          "type": "address"
        }
      ],
      "stateMutability": "view",
      "type": "function"
    },
    {
      "inputs": [],
      "name": "renounceOwnership",
      "outputs": [],
      "stateMutability": "nonpayable",
      "type": "function"
    },
    {
      "inputs": [
        {
          "internalType": "contract IERC20",
          "name": "_defaultCurrency",
          "type": "address"
        },
        {
          "internalType": "uint64",
          "name": "_defaultLiveness",
          "type": "uint64"
        },
        {
          "internalType": "uint256",
          "name": "_burnedBondPercentage",
          "type": "uint256"
        }
      ],
      "name": "setAdminProperties",
      "outputs": [],
      "stateMutability": "nonpayable",
      "type": "function"
    },
    {
      "inputs": [
        {
          "internalType": "bytes32",
          "name": "assertionId",
          "type": "bytes32"
        }
      ],
      "name": "settleAndGetAssertionResult",
      "outputs": [
        {
          "internalType": "bool",
          "name": "",
          "type": "bool"
        }
      ],
      "stateMutability": "nonpayable",
      "type": "function"
    },
    {
      "inputs": [
        {
          "internalType": "bytes32",
          "name": "assertionId",
          "type": "bytes32"
        }
      ],
      "name": "settleAssertion",
      "outputs": [],
      "stateMutability": "nonpayable",
      "type": "function"
    },
    {
      "inputs": [
        {
          "internalType": "bytes32",
          "name": "assertionId",
          "type": "bytes32"
        }
      ],
      "name": "stampAssertion",
      "outputs": [
        {
          "internalType": "bytes",
          "name": "",
          "type": "bytes"
        }
      ],
      "stateMutability": "view",
      "type": "function"
    },
    {
      "inputs": [
        {
          "internalType": "bytes32",
          "name": "identifier",
          "type": "bytes32"
        },
        {
          "internalType": "address",
          "name": "currency",
          "type": "address"
        }
      ],
      "name": "syncUmaParams",
      "outputs": [],
      "stateMutability": "nonpayable",
      "type": "function"
    },
    {
      "inputs": [
        {
          "internalType": "address",
          "name": "newOwner",
          "type": "address"
        }
      ],
      "name": "transferOwnership",
      "outputs": [],
      "stateMutability": "nonpayable",
      "type": "function"
    }
  ],
  "bytecode": "0x60a06040523480156200001157600080fd5b5060405162003f3c38038062003f3c833981016040819052620000349162000640565b6000805460ff19166001179055620000536200004d3390565b6200007e565b6001600160a01b0383166080526200007582826706f05b59d3b20000620000d7565b5050506200073b565b600080546001600160a01b03838116610100818102610100600160a81b0319851617855560405193049190911692909183917f8be0079c531659141344cd1fd0a4f28419497f9722a3daafe3b4186f6b6457e091a35050565b620000e162000236565b670de0b6b3a76400008111156200013f5760405162461bcd60e51b815260206004820152601c60248201527f4275726e656420626f6e642070657263656e74616765203e203130300000000060448201526064015b60405180910390fd5b60008111620001915760405162461bcd60e51b815260206004820152601b60248201527f4275726e656420626f6e642070657263656e7461676520697320300000000000604482015260640162000136565b6005819055600680546001600160401b038416600160a01b026001600160e01b03199091166001600160a01b03861617179055620001df6b082a6a68aa4a8bea8a4aaa8960a31b846200029a565b604080516001600160a01b03851681526001600160401b03841660208201529081018290527fd0f09246d369018534c67fec6a6c3259c6f962ef82c5521c337ae0ccc104e4bd9060600160405180910390a1505050565b6000546001600160a01b03610100909104163314620002985760405162461bcd60e51b815260206004820181905260248201527f4f776e61626c653a2063616c6c6572206973206e6f7420746865206f776e6572604482015260640162000136565b565b6080516040516302abf57960e61b8152654f7261636c6560d01b60048201526001600160a01b039091169063aafd5e4090602401602060405180830381865afa158015620002ec573d6000803e3d6000fd5b505050506040513d601f19601f820116820180604052508101906200031291906200069f565b600180546001600160a01b0319166001600160a01b03929092169190911790556200033c62000505565b6001600160a01b03166390978d1b836040518263ffffffff1660e01b81526004016200036a91815260200190565b602060405180830381865afa15801562000388573d6000803e3d6000fd5b505050506040513d601f19601f82011682018060405250810190620003ae9190620006c6565b6000838152600360205260409020805460ff1916911515919091179055620003d56200059b565b604051631d1d5b3960e11b81526001600160a01b0383811660048301529190911690633a3ab67290602401602060405180830381865afa1580156200041e573d6000803e3d6000fd5b505050506040513d601f19601f82011682018060405250810190620004449190620006c6565b6001600160a01b0382166000908152600260205260409020805460ff191691151591909117905562000475620005ed565b604051635b97aadd60e01b81526001600160a01b0383811660048301529190911690635b97aadd90602401602060405180830381865afa158015620004be573d6000803e3d6000fd5b505050506040513d601f19601f82011682018060405250810190620004e49190620006ea565b516001600160a01b0390911660009081526002602052604090206001015550565b6080516040516302abf57960e61b81527f4964656e74696669657257686974656c6973740000000000000000000000000060048201526000916001600160a01b03169063aafd5e40906024015b602060405180830381865afa15801562000570573d6000803e3d6000fd5b505050506040513d601f19601f820116820180604052508101906200059691906200069f565b905090565b6080516040516302abf57960e61b81527f436f6c6c61746572616c57686974656c6973740000000000000000000000000060048201526000916001600160a01b03169063aafd5e409060240162000552565b6080516040516302abf57960e61b81526453746f726560d81b60048201526000916001600160a01b03169063aafd5e409060240162000552565b6001600160a01b03811681146200063d57600080fd5b50565b6000806000606084860312156200065657600080fd5b8351620006638162000627565b6020850151909350620006768162000627565b60408501519092506001600160401b03811681146200069457600080fd5b809150509250925092565b600060208284031215620006b257600080fd5b8151620006bf8162000627565b9392505050565b600060208284031215620006d957600080fd5b81518015158114620006bf57600080fd5b600060208284031215620006fd57600080fd5b604051602081016001600160401b03811182821017156200072e57634e487b7160e01b600052604160045260246000fd5b6040529151825250919050565b6080516137c9620007736000396000818161053b0152818161166201528181611efe0152818161262f015261269e01526137c96000f3fe608060405234801561001057600080fd5b50600436106101ae5760003560e01c80638ea2f2ab116100ee578063b9a3c84c11610097578063da03b36e11610071578063da03b36e14610668578063e39dfd7f14610677578063f2fde38b1461068a578063fe4e19831461069d57600080fd5b8063b9a3c84c14610536578063d509b0171461055d578063d60715b51461057357600080fd5b8063a8655785116100c8578063a8655785146104e3578063ac9650d8146104f6578063afedba4f1461051657600080fd5b80638ea2f2ab146104aa578063a6a22b43146104bd578063a7af2d0f146104d057600080fd5b8063530dd3921161015b578063715018a611610135578063715018a6146102c557806382762520146102cd57806388302884146102e05780638da5cb5b1461049457600080fd5b8063530dd3921461023b5780636457c9791461026e578063707621571461028157600080fd5b806336b13af41161018c57806336b13af4146102005780634124beef146102135780634360af3d1461022857600080fd5b806308e7c3e6146101b357806320402e1d146101cf57806329cb924d146101fa575b600080fd5b6101bc60055481565b6040519081526020015b60405180910390f35b6006546101e2906001600160a01b031681565b6040516001600160a01b0390911681526020016101c6565b426101bc565b6101bc61020e366004612d72565b6106d1565b610226610221366004612df5565b610757565b005b6101bc610236366004612e0e565b610b29565b61025e610249366004612df5565b60036020526000908152604090205460ff1681565b60405190151581526020016101c6565b6101bc61027c366004612eb2565b610b6b565b6102ae61028f366004612e0e565b6002602052600090815260409020805460019091015460ff9091169082565b6040805192151583526020830191909152016101c6565b6102266111ab565b6102266102db366004612fa3565b6111bf565b6104876102ee366004612df5565b6040805161022081018252600061018082018181526101a083018290526101c083018290526101e083018290526102008301829052825260208201819052918101829052606081018290526080810182905260a0810182905260c0810182905260e0810182905261010081018290526101208101829052610140810182905261016081019190915250600090815260046020818152604092839020835161022081018552815460ff80821615156101808401908152610100808404831615156101a0860152620100008404831615156101c08601526001600160a01b03630100000090940484166101e08601526001860154841661020086015290845260028501548084169685019690965267ffffffffffffffff600160a01b808804821699860199909952600160e01b96879004831615156060860152600386015480851660808701529889041660a085015294909604909516151560c08201529281015460e08401526005810154918301919091526006810154610120830152600781015483166101408301526008015490911661016082015290565b6040516101c69190612fe1565b60005461010090046001600160a01b03166101e2565b61025e6104b8366004612df5565b61132c565b6102266104cb3660046130e3565b611364565b6001546101e2906001600160a01b031681565b6102266104f13660046130e3565b61162d565b610509610504366004613113565b6118c5565b6040516101c691906131d8565b610529610524366004612df5565b611a1d565b6040516101c6919061323a565b6101e27f000000000000000000000000000000000000000000000000000000000000000081565b6101bc6b082a6a68aa4a8bea8a4aaa8960a31b81565b610650610581366004612df5565b600460208181526000928352604092839020835160a081018552815460ff808216151583526101008204811615159483019490945262010000810484161515958201959095526001600160a01b03630100000090950485166060820152600182015485166080820152600282015460038301549483015460058401546006850154600786015460089096015494988481169867ffffffffffffffff600160a01b80880482169a600160e01b9889900481169a8486169a928504909316989093049092169594939290811691168c565b6040516101c69c9b9a9998979695949392919061324d565b6101bc670de0b6b3a764000081565b61025e610685366004612df5565b611a28565b610226610698366004612e0e565b611baf565b6006546106b890600160a01b900467ffffffffffffffff1681565b60405167ffffffffffffffff90911681526020016101c6565b600061074f84848080601f016020809104026020016040519081016040528093929190818152602001838380828437600092018290525060065488945090925082915067ffffffffffffffff600160a01b820416906001600160a01b031661073881610b29565b6b082a6a68aa4a8bea8a4aaa8960a31b6000610b6b565b949350505050565b61075f611c3c565b61076e6000805460ff19169055565b600081815260046020526040902060028101546001600160a01b03166107db5760405162461bcd60e51b815260206004820152601860248201527f417373657274696f6e20646f6573206e6f74206578697374000000000000000060448201526064015b60405180910390fd5b6002810154600160e01b900460ff16156108375760405162461bcd60e51b815260206004820152601960248201527f417373657274696f6e20616c726561647920736574746c65640000000000000060448201526064016107d2565b60028101805460ff60e01b1916600160e01b17905560088101546001600160a01b031661095f57426003820154600160a01b900467ffffffffffffffff1611156108c35760405162461bcd60e51b815260206004820152601560248201527f417373657274696f6e206e6f742065787069726564000000000000000000000060448201526064016107d2565b60038101805460ff60e01b198116600160e01b17909155600282015460068301546108fb926001600160a01b03908116921690611c8e565b610906826001611d3c565b6002810154604080516000815260016020820152338183015290516001600160a01b039092169184917ff4fa324b13daeb4e1aae736c2553632ae0fb16fb31f2d4da8ac99fd056313a13919081900360600190a3610b13565b6005810154600282015460009161098991859190600160a01b900467ffffffffffffffff16611e43565b8254909150610100900460ff16156109af5760038201805460ff60e01b191690556109d1565b60038201805460ff60e01b1916670de0b6b3a76400008314600160e01b021790555b6000670de0b6b3a764000082146109f55760088301546001600160a01b0316610a04565b60028301546001600160a01b03165b90506000670de0b6b3a76400008460060154600554610a239190613325565b610a2d919061335a565b905060008185600601546002610a439190613325565b610a4d919061337c565b9050610a6f610a5a611ec6565b60038701546001600160a01b03169084611c8e565b6003850154610a88906001600160a01b03168483611c8e565b8454610100900460ff16610ab0576003850154610ab0908790600160e01b900460ff16611d3c565b60038501546040805160018152600160e01b90920460ff161515602083015233908201526001600160a01b0384169087907ff4fa324b13daeb4e1aae736c2553632ae0fb16fb31f2d4da8ac99fd056313a139060600160405180910390a3505050505b50610b266000805460ff19166001179055565b50565b6001600160a01b038116600090815260026020526040812060010154600554610b5a82670de0b6b3a7640000613325565b610b64919061335a565b9392505050565b6000610b75611c3c565b610b846000805460ff19169055565b42610b9f8b8667ffffffffffffffff84168a8a8e8e8b611f77565b91506001600160a01b038a16610bf75760405162461bcd60e51b815260206004820152601260248201527f41737365727465722063616e742062652030000000000000000000000000000060448201526064016107d2565b6000828152600460205260409020600201546001600160a01b031615610c5f5760405162461bcd60e51b815260206004820152601860248201527f417373657274696f6e20616c726561647920657869737473000000000000000060448201526064016107d2565b610c6884611fbe565b610cb45760405162461bcd60e51b815260206004820152601660248201527f556e737570706f72746564206964656e7469666965720000000000000000000060448201526064016107d2565b610cbd86612077565b610d095760405162461bcd60e51b815260206004820152601460248201527f556e737570706f727465642063757272656e637900000000000000000000000060448201526064016107d2565b610d1286610b29565b851015610d615760405162461bcd60e51b815260206004820152601360248201527f426f6e6420616d6f756e7420746f6f206c6f770000000000000000000000000060448201526064016107d2565b6040805161022081018252600061018082018181526101a083018290526101c08301829052336101e08401526001600160a01b038c81166102008501529083528d8116602084015267ffffffffffffffff8516938301939093526060820152908716608082015260a08101610dd6898461338f565b67ffffffffffffffff1681526020016000151581526020018481526020018581526020018681526020018a6001600160a01b0316815260200160006001600160a01b03168152506004600084815260200190815260200160002060008201518160000160008201518160000160006101000a81548160ff02191690831515021790555060208201518160000160016101000a81548160ff02191690831515021790555060408201518160000160026101000a81548160ff02191690831515021790555060608201518160000160036101000a8154816001600160a01b0302191690836001600160a01b0316021790555060808201518160010160006101000a8154816001600160a01b0302191690836001600160a01b03160217905550505060208201518160020160006101000a8154816001600160a01b0302191690836001600160a01b0316021790555060408201518160020160146101000a81548167ffffffffffffffff021916908367ffffffffffffffff160217905550606082015181600201601c6101000a81548160ff02191690831515021790555060808201518160030160006101000a8154816001600160a01b0302191690836001600160a01b0316021790555060a08201518160030160146101000a81548167ffffffffffffffff021916908367ffffffffffffffff16021790555060c082015181600301601c6101000a81548160ff02191690831515021790555060e08201518160040155610100820151816005015561012082015181600601556101408201518160070160006101000a8154816001600160a01b0302191690836001600160a01b031602179055506101608201518160080160006101000a8154816001600160a01b0302191690836001600160a01b031602179055509050506000611077836121d9565b8051909150156110c95760405162461bcd60e51b815260206004820152601560248201527f417373657274696f6e206e6f7420616c6c6f776564000000000000000000000060448201526064016107d2565b6000838152600460209081526040918290209083015191830151606090930151815462ffff001916620100009115159190910261ff00191617610100931515939093029290921760ff191690151517905561112f6001600160a01b0387163330886122c7565b838a6001600160a01b0316837fdb1513f0abeb57a364db56aa3eb52015cca5268f00fd67bc73aaf22bccab02b7868f8e8e338f8a61116d919061338f565b8f8f6040516111839897969594939291906133b0565b60405180910390a45061119e6000805460ff19166001179055565b9998505050505050505050565b6111b3612318565b6111bd6000612378565b565b6111c7612318565b670de0b6b3a764000081111561121f5760405162461bcd60e51b815260206004820152601c60248201527f4275726e656420626f6e642070657263656e74616765203e203130300000000060448201526064016107d2565b6000811161126f5760405162461bcd60e51b815260206004820152601b60248201527f4275726e656420626f6e642070657263656e746167652069732030000000000060448201526064016107d2565b60058190556006805467ffffffffffffffff8416600160a01b027fffffffff000000000000000000000000000000000000000000000000000000009091166001600160a01b038616171790556112d46b082a6a68aa4a8bea8a4aaa8960a31b8461162d565b604080516001600160a01b038516815267ffffffffffffffff841660208201529081018290527fd0f09246d369018534c67fec6a6c3259c6f962ef82c5521c337ae0ccc104e4bd9060600160405180910390a1505050565b600081815260046020526040812060020154600160e01b900460ff166113555761135582610757565b61135e82611a28565b92915050565b61136c611c3c565b61137b6000805460ff19169055565b6001600160a01b0381166113d15760405162461bcd60e51b815260206004820152601360248201527f44697370757465722063616e277420626520300000000000000000000000000060448201526064016107d2565b600082815260046020526040902060028101546001600160a01b03166114395760405162461bcd60e51b815260206004820152601860248201527f417373657274696f6e20646f6573206e6f74206578697374000000000000000060448201526064016107d2565b60088101546001600160a01b0316156114945760405162461bcd60e51b815260206004820152601a60248201527f417373657274696f6e20616c726561647920646973707574656400000000000060448201526064016107d2565b426003820154600160a01b900467ffffffffffffffff16116114f85760405162461bcd60e51b815260206004820152601460248201527f417373657274696f6e206973206578706972656400000000000000000000000060448201526064016107d2565b611501836123e8565b61154d5760405162461bcd60e51b815260206004820152601360248201527f44697370757465206e6f7420616c6c6f7765640000000000000000000000000060448201526064016107d2565b60088101805473ffffffffffffffffffffffffffffffffffffffff19166001600160a01b038481169190911790915560068201546003830154611595921690339030906122c7565b600581015460028201546115bb918591600160a01b900467ffffffffffffffff166124bd565b6115c483612534565b8054610100900460ff16156115de576115de836000611d3c565b6040516001600160a01b03831690339085907f60133788b013c89f2a3756dbc47e3484997b87bd7e0af98a7d70232032c1ce2b90600090a4506116296000805460ff19166001179055565b5050565b6040516302abf57960e61b81527f4f7261636c65000000000000000000000000000000000000000000000000000060048201527f00000000000000000000000000000000000000000000000000000000000000006001600160a01b03169063aafd5e4090602401602060405180830381865afa1580156116b1573d6000803e3d6000fd5b505050506040513d601f19601f820116820180604052508101906116d59190613413565b6001805473ffffffffffffffffffffffffffffffffffffffff19166001600160a01b039290921691909117905561170a6125f7565b6001600160a01b03166390978d1b836040518263ffffffff1660e01b815260040161173791815260200190565b602060405180830381865afa158015611754573d6000803e3d6000fd5b505050506040513d601f19601f820116820180604052508101906117789190613440565b6000838152600360205260409020805460ff191691151591909117905561179d612666565b604051631d1d5b3960e11b81526001600160a01b0383811660048301529190911690633a3ab67290602401602060405180830381865afa1580156117e5573d6000803e3d6000fd5b505050506040513d601f19601f820116820180604052508101906118099190613440565b6001600160a01b0382166000908152600260205260409020805460ff1916911515919091179055611838611ec6565b604051635b97aadd60e01b81526001600160a01b0383811660048301529190911690635b97aadd90602401602060405180830381865afa158015611880573d6000803e3d6000fd5b505050506040513d601f19601f820116820180604052508101906118a4919061345b565b516001600160a01b0390911660009081526002602052604090206001015550565b60608167ffffffffffffffff8111156118e0576118e0612e2b565b60405190808252806020026020018201604052801561191357816020015b60608152602001906001900390816118fe5790505b50905060005b82811015611a1657600080308686858181106119375761193761349d565b905060200281019061194991906134b3565b604051611957929190613501565b600060405180830381855af49150503d8060008114611992576040519150601f19603f3d011682016040523d82523d6000602084013e611997565b606091505b5091509150816119e3576044815110156119b057600080fd5b600481019050808060200190518101906119ca9190613511565b60405162461bcd60e51b81526004016107d2919061323a565b808484815181106119f6576119f661349d565b602002602001018190525050508080611a0e90613588565b915050611919565b5092915050565b606061135e826126d5565b6000818152600460208181526040808420815161022081018352815460ff80821615156101808401908152610100808404831615156101a0860152620100008404831615156101c08601526001600160a01b03630100000090940484166101e08601526001860154841661020086015290845260028501548084169785019790975267ffffffffffffffff600160a01b808904821697860197909752600160e01b97889004831615156060860152600386015480851660808701529687041660a085015295909404909316151560c08201529381015460e085015260058101549284019290925260068201546101208401526007820154811661014084015260089091015416610160820181905215801590611b4657508051602001515b15611b545750600092915050565b8060600151611ba55760405162461bcd60e51b815260206004820152601560248201527f417373657274696f6e206e6f7420736574746c6564000000000000000000000060448201526064016107d2565b60c0015192915050565b611bb7612318565b6001600160a01b038116611c335760405162461bcd60e51b815260206004820152602660248201527f4f776e61626c653a206e6577206f776e657220697320746865207a65726f206160448201527f646472657373000000000000000000000000000000000000000000000000000060648201526084016107d2565b610b2681612378565b60005460ff166111bd5760405162461bcd60e51b815260206004820152601f60248201527f5265656e7472616e637947756172643a207265656e7472616e742063616c6c0060448201526064016107d2565b6040516001600160a01b038316602482015260448101829052611d379084907fa9059cbb00000000000000000000000000000000000000000000000000000000906064015b60408051601f198184030181529190526020810180517bffffffffffffffffffffffffffffffffffffffffffffffffffffffff167fffffffff0000000000000000000000000000000000000000000000000000000090931692909217909152612780565b505050565b600082815260046020526040902060078101546001909101546001600160a01b0391821691168115611dcb576040516378d8ab5960e11b81526004810185905283151560248201526001600160a01b0383169063f1b156b290604401600060405180830381600087803b158015611db257600080fd5b505af1158015611dc6573d6000803e3d6000fd5b505050505b6001600160a01b03811615611e3d576040516378d8ab5960e11b81526004810185905283151560248201526001600160a01b0382169063f1b156b290604401600060405180830381600087803b158015611e2457600080fd5b505af1158015611e38573d6000803e3d6000fd5b505050505b50505050565b6000611e4e84612868565b6001600160a01b031663719c6d568484611e67886126d5565b6040518463ffffffff1660e01b8152600401611e85939291906135a1565b602060405180830381865afa158015611ea2573d6000803e3d6000fd5b505050506040513d601f19601f8201168201806040525081019061074f91906135c0565b6040516302abf57960e61b81527f53746f726500000000000000000000000000000000000000000000000000000060048201526000907f00000000000000000000000000000000000000000000000000000000000000006001600160a01b03169063aafd5e40906024015b602060405180830381865afa158015611f4e573d6000803e3d6000fd5b505050506040513d601f19601f82011682018060405250810190611f729190613413565b905090565b6000888888888888888833604051602001611f9a999897969594939291906135d9565b60405160208183030381529060405280519060200120905098975050505050505050565b60008181526003602052604081205460ff1615611fdd57506001919050565b611fe56125f7565b6001600160a01b03166390978d1b836040518263ffffffff1660e01b815260040161201291815260200190565b602060405180830381865afa15801561202f573d6000803e3d6000fd5b505050506040513d601f19601f820116820180604052508101906120539190613440565b600092835260036020526040909220805460ff191692151592831790555060ff1690565b6001600160a01b03811660009081526002602052604081205460ff16156120a057506001919050565b6120a8612666565b604051631d1d5b3960e11b81526001600160a01b0384811660048301529190911690633a3ab67290602401602060405180830381865afa1580156120f0573d6000803e3d6000fd5b505050506040513d601f19601f820116820180604052508101906121149190613440565b6001600160a01b0383166000908152600260205260409020805460ff1916911515919091179055612143611ec6565b604051635b97aadd60e01b81526001600160a01b0384811660048301529190911690635b97aadd90602401602060405180830381865afa15801561218b573d6000803e3d6000fd5b505050506040513d601f19601f820116820180604052508101906121af919061345b565b516001600160a01b0390921660009081526002602052604090206001810192909255505460ff1690565b6040805160808101825260008082526020808301829052828401829052606083018290528482526004905291909120600101546001600160a01b031680612245575050604080516080810182526000808252602082018190529181018290526060810191909152919050565b6040517fa6b011a7000000000000000000000000000000000000000000000000000000008152600481018490526001600160a01b0382169063a6b011a790602401608060405180830381865afa1580156122a3573d6000803e3d6000fd5b505050506040513d601f19601f82011682018060405250810190610b649190613642565b6040516001600160a01b0380851660248301528316604482015260648101829052611e3d9085907f23b872dd0000000000000000000000000000000000000000000000000000000090608401611cd3565b6000546001600160a01b036101009091041633146111bd5760405162461bcd60e51b815260206004820181905260248201527f4f776e61626c653a2063616c6c6572206973206e6f7420746865206f776e657260448201526064016107d2565b600080546001600160a01b038381166101008181027fffffffffffffffffffffff0000000000000000000000000000000000000000ff851617855560405193049190911692909183917f8be0079c531659141344cd1fd0a4f28419497f9722a3daafe3b4186f6b6457e091a35050565b60008181526004602052604081205462010000900460ff1661240c57506001919050565b6000828152600460205260409020600101546001600160a01b0316806124355750600192915050565b6040517f6b915d91000000000000000000000000000000000000000000000000000000008152600481018490523360248201526001600160a01b03821690636b915d9190604401602060405180830381865afa158015612499573d6000803e3d6000fd5b505050506040513d601f19601f82011682018060405250810190610b649190613440565b6124c683612868565b6001600160a01b031663216666a483836124df876126d5565b6040518463ffffffff1660e01b81526004016124fd939291906135a1565b600060405180830381600087803b15801561251757600080fd5b505af115801561252b573d6000803e3d6000fd5b50505050505050565b600081815260046020526040902060078101546001909101546001600160a01b03918216911681156125bb57604051633512293b60e21b8152600481018490526001600160a01b0383169063d448a4ec90602401600060405180830381600087803b1580156125a257600080fd5b505af11580156125b6573d6000803e3d6000fd5b505050505b6001600160a01b03811615611d3757604051633512293b60e21b8152600481018490526001600160a01b0382169063d448a4ec906024016124fd565b6040516302abf57960e61b81527f4964656e74696669657257686974656c6973740000000000000000000000000060048201526000907f00000000000000000000000000000000000000000000000000000000000000006001600160a01b03169063aafd5e4090602401611f31565b6040516302abf57960e61b81527f436f6c6c61746572616c57686974656c6973740000000000000000000000000060048201526000907f00000000000000000000000000000000000000000000000000000000000000006001600160a01b03169063aafd5e4090602401611f31565b606061135e612729604051806020016040528060008152506040518060400160405280600b81526020017f617373657274696f6e4964000000000000000000000000000000000000000000815250856128b0565b604080518082018252600a81527f6f6f4173736572746572000000000000000000000000000000000000000000006020808301919091526000878152600490915291909120600201546001600160a01b03166128f6565b60006127d5826040518060400160405280602081526020017f5361666545524332303a206c6f772d6c6576656c2063616c6c206661696c6564815250856001600160a01b03166129119092919063ffffffff16565b90508051600014806127f65750808060200190518101906127f69190613440565b611d375760405162461bcd60e51b815260206004820152602a60248201527f5361666545524332303a204552433230206f7065726174696f6e20646964206e60448201527f6f7420737563636565640000000000000000000000000000000000000000000060648201526084016107d2565b60008181526004602052604081205460ff161561289f576000828152600460205260409020600101546001600160a01b031661135e565b50506001546001600160a01b031690565b606060006128be8585612920565b905084816128cb85612962565b6040516020016128dd939291906136bf565b6040516020818303038152906040529150509392505050565b606060006129048585612920565b905084816128cb856129a3565b606061074f8484600085612a1b565b815160609015612951578160405160200161293b9190613702565b604051602081830303815290604052905061135e565b8160405160200161293b9190613752565b6060612971608083901c612b0d565b61297a83612b0d565b6040805160208101939093528201526060015b6040516020818303038152906040529050919050565b60606129c46fffffffffffffffffffffffffffffffff602084901c16612b0d565b6129df8360601b6bffffffffffffffffffffffff1916612b0d565b60405160200161298d9291909182527fffffffffffffffff00000000000000000000000000000000000000000000000016602082015260280190565b606082471015612a935760405162461bcd60e51b815260206004820152602660248201527f416464726573733a20696e73756666696369656e742062616c616e636520666f60448201527f722063616c6c000000000000000000000000000000000000000000000000000060648201526084016107d2565b600080866001600160a01b03168587604051612aaf9190613777565b60006040518083038185875af1925050503d8060008114612aec576040519150601f19603f3d011682016040523d82523d6000602084013e612af1565b606091505b5091509150612b0287838387612caf565b979650505050505050565b6000808260001c9050806fffffffffffffffffffffffffffffffff169050806801000000000000000002811777ffffffffffffffff0000000000000000ffffffffffffffff169050806401000000000281177bffffffff00000000ffffffff00000000ffffffff00000000ffffffff16905080620100000281177dffff0000ffff0000ffff0000ffff0000ffff0000ffff0000ffff0000ffff169050806101000281177eff00ff00ff00ff00ff00ff00ff00ff00ff00ff00ff00ff00ff00ff00ff00ff1690508060100281177f0f0f0f0f0f0f0f0f0f0f0f0f0f0f0f0f0f0f0f0f0f0f0f0f0f0f0f0f0f0f0f0f16905060006008827f08080808080808080808080808080808080808080808080808080808080808081681612c3157612c31613344565b0460047f040404040404040404040404040404040404040404040404040404040404040484160460027f020202020202020202020202020202020202020202020202020202020202020285160417166027029091017f3030303030303030303030303030303030303030303030303030303030303030019392505050565b60608315612d1e578251600003612d17576001600160a01b0385163b612d175760405162461bcd60e51b815260206004820152601d60248201527f416464726573733a2063616c6c20746f206e6f6e2d636f6e747261637400000060448201526064016107d2565b508161074f565b61074f8383815115612d335781518083602001fd5b8060405162461bcd60e51b81526004016107d2919061323a565b6001600160a01b0381168114610b2657600080fd5b8035612d6d81612d4d565b919050565b600080600060408486031215612d8757600080fd5b833567ffffffffffffffff80821115612d9f57600080fd5b818601915086601f830112612db357600080fd5b813581811115612dc257600080fd5b876020828501011115612dd457600080fd5b60209283019550935050840135612dea81612d4d565b809150509250925092565b600060208284031215612e0757600080fd5b5035919050565b600060208284031215612e2057600080fd5b8135610b6481612d4d565b634e487b7160e01b600052604160045260246000fd5b604051601f8201601f1916810167ffffffffffffffff81118282101715612e6a57612e6a612e2b565b604052919050565b600067ffffffffffffffff821115612e8c57612e8c612e2b565b50601f01601f191660200190565b803567ffffffffffffffff81168114612d6d57600080fd5b60008060008060008060008060006101208a8c031215612ed157600080fd5b893567ffffffffffffffff811115612ee857600080fd5b8a01601f81018c13612ef957600080fd5b8035612f0c612f0782612e72565b612e41565b8181528d6020838501011115612f2157600080fd5b81602084016020830137600060208383010152809b50505050612f4660208b01612d62565b9750612f5460408b01612d62565b9650612f6260608b01612d62565b9550612f7060808b01612e9a565b9450612f7e60a08b01612d62565b935060c08a0135925060e08a013591506101008a013590509295985092959850929598565b600080600060608486031215612fb857600080fd5b8335612fc381612d4d565b9250612fd160208501612e9a565b9150604084013590509250925092565b81518051151582526020808201511515818401526040808301511515818501526060808401516001600160a01b039081168287015260809485015181168587015292860151831660a08601529085015167ffffffffffffffff1660c0850152840151151560e084015290830151908116610100808401919091526102008301919060a085015191506101206130818186018467ffffffffffffffff169052565b60c086015192506101406130988187018515159052565b60e08701516101608781019190915292870151610180870152908601516101a08601528501516001600160a01b039081166101c0860152908501519081166101e08501529050611a16565b600080604083850312156130f657600080fd5b82359150602083013561310881612d4d565b809150509250929050565b6000806020838503121561312657600080fd5b823567ffffffffffffffff8082111561313e57600080fd5b818501915085601f83011261315257600080fd5b81358181111561316157600080fd5b8660208260051b850101111561317657600080fd5b60209290920196919550909350505050565b60005b838110156131a357818101518382015260200161318b565b50506000910152565b600081518084526131c4816020860160208601613188565b601f01601f19169290920160200192915050565b6000602080830181845280855180835260408601915060408160051b870101925083870160005b8281101561322d57603f1988860301845261321b8583516131ac565b945092850192908501906001016131ff565b5092979650505050505050565b602081526000610b6460208301846131ac565b610200810161329c828f80511515825260208101511515602083015260408101511515604083015260608101516001600160a01b03808216606085015280608084015116608085015250505050565b6001600160a01b039c8d1660a083015267ffffffffffffffff9b8c1660c083015299151560e0820152978b16610100890152959098166101208701529215156101408601526101608501919091526101808401526101a08301529284166101c0820152919092166101e090910152919050565b634e487b7160e01b600052601160045260246000fd5b600081600019048311821515161561333f5761333f61330f565b500290565b634e487b7160e01b600052601260045260246000fd5b60008261337757634e487b7160e01b600052601260045260246000fd5b500490565b8181038181111561135e5761135e61330f565b67ffffffffffffffff818116838216019080821115611a1657611a1661330f565b60006101008a83528060208401526133ca8184018b6131ac565b6001600160a01b03998a16604085015297891660608401525050938616608085015267ffffffffffffffff9290921660a084015290931660c082015260e0019190915292915050565b60006020828403121561342557600080fd5b8151610b6481612d4d565b80518015158114612d6d57600080fd5b60006020828403121561345257600080fd5b610b6482613430565b60006020828403121561346d57600080fd5b6040516020810181811067ffffffffffffffff8211171561349057613490612e2b565b6040529151825250919050565b634e487b7160e01b600052603260045260246000fd5b6000808335601e198436030181126134ca57600080fd5b83018035915067ffffffffffffffff8211156134e557600080fd5b6020019150368190038213156134fa57600080fd5b9250929050565b8183823760009101908152919050565b60006020828403121561352357600080fd5b815167ffffffffffffffff81111561353a57600080fd5b8201601f8101841361354b57600080fd5b8051613559612f0782612e72565b81815285602083850101111561356e57600080fd5b61357f826020830160208601613188565b95945050505050565b60006001820161359a5761359a61330f565b5060010190565b83815282602082015260606040820152600061357f60608301846131ac565b6000602082840312156135d257600080fd5b5051919050565b60006101208083526135ed8184018d6131ac565b602084019b909b525050604081019790975267ffffffffffffffff9590951660608701526001600160a01b03938416608087015291831660a0860152821660c085015260e08401521661010090910152919050565b60006080828403121561365457600080fd5b6040516080810181811067ffffffffffffffff8211171561367757613677612e2b565b60405261368383613430565b815261369160208401613430565b60208201526136a260408401613430565b60408201526136b360608401613430565b60608201529392505050565b600084516136d1818460208901613188565b8451908301906136e5818360208901613188565b84519101906136f8818360208801613188565b0195945050505050565b7f2c0000000000000000000000000000000000000000000000000000000000000081526000825161373a816001850160208701613188565b601d60f91b6001939091019283015250600201919050565b60008251613764818460208701613188565b601d60f91b920191825250600101919050565b60008251613789818460208701613188565b919091019291505056fea2646970667358221220a0c16ffd91ff24503a7ee5a3e24051578474d4d2ce5df0732d086de9813875ef64736f6c63430008100033",
  "linkReferences": {},
  "deployedLinkReferences": {},
  "immutableReferences": {
    "3992": [
      {
        "length": 32,
        "start": 1339
      },
      {
        "length": 32,
        "start": 5730
      },
      {
        "length": 32,
        "start": 7934
      },
      {
        "length": 32,
        "start": 9775
      },
      {
        "length": 32,
        "start": 9886
      }
    ]
  },
  "inputSourceName": "npm/@uma/core@2.62.2/contracts/optimistic-oracle-v3/implementation/OptimisticOracleV3.sol",
  "buildInfoId": "solc-0_8_16-6a95f13fca0360b426dd907216abf214b4865baf"
}