{
  "_format": "hh3-artifact-1",
  "contractName": "Store",
  "sourceName": "@uma/core/contracts/data-verification-mechanism/implementation/Store.sol",
  "abi": [
    {
      "inputs": [
        {
          "components": [
            {
              "internalType": "uint256",
              "name": "rawValue",
              "type": "uint256"
            }
          ],
          "internalType": "struct FixedPoint.Unsigned",
          "name": "_fixedOracleFeePerSecondPerPfc",
          "type": "tuple"
        },
        {
          "components": [
            {
              "internalType": "uint256",
              "name": "rawValue",
              "type": "uint256"
            }
          ],
          "internalType": "struct FixedPoint.Unsigned",
          "name": "_weeklyDelayFeePerSecondPerPfc",
          "type": "tuple"
        },
        {
          "internalType": "address",
          "name": "_timerAddress",
          "type": "address"
        }
      ],
      "stateMutability": "nonpayable",
      "type": "constructor"
    },
    {
      "anonymous": false,
      "inputs": [
        {
          "indexed": true,
          "internalType": "uint256",
          "name": "roleId",
          "type": "uint256"
        },
        {
          "indexed": true,
          "internalType": "address",
          "name": "newMember",
          "type": "address"
        },
        {
          "indexed": true,
          "internalType": "address",
          "name": "manager",
          "type": "address"
        }
      ],
      "name": "AddedSharedMember",
      "type": "event"
    },
    {
      "anonymous": false,
      "inputs": [
        {
          "components": [
            {
              "internalType": "uint256",
              "name": "rawValue",
              "type": "uint256"
            }
          ],
          "indexed": false,
          "internalType": "struct FixedPoint.Unsigned",
          "name": "newFinalFee",
          "type": "tuple"
        }
      ],
      "name": "NewFinalFee",
      "type": "event"
    },
    {
      "anonymous": false,
      "inputs": [
        {
          "components": [
            {
              "internalType": "uint256",
              "name": "rawValue",
              "type": "uint256"
            }
          ],
          "indexed": false,
          "internalType": "struct FixedPoint.Unsigned",
          "name": "newOracleFee",
          "type": "tuple"
        }
      ],
      "name": "NewFixedOracleFeePerSecondPerPfc",
      "type": "event"
    },
    {
      "anonymous": false,
      "inputs": [
        {
          "components": [
            {
              "internalType": "uint256",
              "name": "rawValue",
              "type": "uint256"
            }
          ],
          "indexed": false,
          "internalType": "struct FixedPoint.Unsigned",
          "name": "newWeeklyDelayFeePerSecondPerPfc",
          "type": "tuple"
        }
      ],
      "name": "NewWeeklyDelayFeePerSecondPerPfc",
      "type": "event"
    },
    {
      "anonymous": false,
      "inputs": [
        {
          "indexed": true,
          "internalType": "uint256",
          "name": "roleId",
          "type": "uint256"
        },
        {
          "indexed": true,
          "internalType": "address",
          "name": "oldMember",
          "type": "address"
        },
        {
          "indexed": true,
          "internalType": "address",
          "name": "manager",
          "type": "address"
        }
      ],
      "name": "RemovedSharedMember",
      "type": "event"
    },
    {
      "anonymous": false,
      "inputs": [
        {
          "indexed": true,
          "internalType": "uint256",
          "name": "roleId",
          "type": "uint256"
        },
        {
          "indexed": true,
          "internalType": "address",
          "name": "newMember",
          "type": "address"
        },
        {
          "indexed": true,
          "internalType": "address",
          "name": "manager",
          "type": "address"
        }
      ],
      "name": "ResetExclusiveMember",
      "type": "event"
    },
    {
      "inputs": [],
      "name": "SECONDS_PER_WEEK",
      "outputs": [
        {
          "internalType": "uint256",
          "name": "",
          "type": "uint256"
        }
      ],
      "stateMutability": "view",
      "type": "function"
    },
    {
      "inputs": [
        {
          "internalType": "uint256",
          "name": "roleId",
          "type": "uint256"
        },
        {
          "internalType": "address",
          "name": "newMember",
          "type": "address"
        }
      ],
      "name": "addMember",
      "outputs": [],
      "stateMutability": "nonpayable",
      "type": "function"
    },
    {
      "inputs": [
        {
          "internalType": "address",
          "name": "currency",
          "type": "address"
        }
      ],
      "name": "computeFinalFee",
      "outputs": [
        {
          "components": [
            {
              "internalType": "uint256",
              "name": "rawValue",
              "type": "uint256"
            }
          ],
          "internalType": "struct FixedPoint.Unsigned",
          "name": "",
          "type": "tuple"
        }
      ],
      "stateMutability": "view",
      "type": "function"
    },
    {
      "inputs": [
        {
          "internalType": "uint256",
          "name": "startTime",
          "type": "uint256"
        },
        {
          "internalType": "uint256",
          "name": "endTime",
          "type": "uint256"
        },
        {
          "components": [
            {
              "internalType": "uint256",
              "name": "rawValue",
              "type": "uint256"
            }
          ],
          "internalType": "struct FixedPoint.Unsigned",
          "name": "pfc",
          "type": "tuple"
        }
      ],
      "name": "computeRegularFee",
      "outputs": [
        {
          "components": [
            {
              "internalType": "uint256",
              "name": "rawValue",
              "type": "uint256"
            }
          ],
          "internalType": "struct FixedPoint.Unsigned",
          "name": "regularFee",
          "type": "tuple"
        },
        {
          "components": [
            {
              "internalType": "uint256",
              "name": "rawValue",
              "type": "uint256"
            }
          ],
          "internalType": "struct FixedPoint.Unsigned",
          "name": "latePenalty",
          "type": "tuple"
        }
      ],
      "stateMutability": "view",
      "type": "function"
    },
    {
      "inputs": [
        {
          "internalType": "address",
          "name": "",
          "type": "address"
        }
      ],
      "name": "finalFees",
      "outputs": [
        {
          "internalType": "uint256",
          "name": "rawValue",
          "type": "uint256"
        }
      ],
      "stateMutability": "view",
      "type": "function"
    },
    {
      "inputs": [],
      "name": "fixedOracleFeePerSecondPerPfc",
      "outputs": [
        {
          "internalType": "uint256",
          "name": "rawValue",
          "type": "uint256"
        }
      ],
      "stateMutability": "view",
      "type": "function"
    },
    {
      "inputs": [],
      "name": "getCurrentTime",
      "outputs": [
        {
          "internalType": "uint256",
          "name": "",
          "type": "uint256"
        }
      ],
      "stateMutability": "view",
      "type": "function"
    },
    {
      "inputs": [
        {
          "internalType": "uint256",
          "name": "roleId",
          "type": "uint256"
        }
      ],
      "name": "getMember",
      "outputs": [
        {
          "internalType": "address",
          "name": "",
          "type": "address"
        }
      ],
      "stateMutability": "view",
      "type": "function"
    },
    {
      "inputs": [
        {
          "internalType": "uint256",
          "name": "roleId",
          "type": "uint256"
        },
        {
          "internalType": "address",
          "name": "memberToCheck",
          "type": "address"
        }
      ],
      "name": "holdsRole",
      "outputs": [
        {
          "internalType": "bool",
          "name": "",
          "type": "bool"
        }
      ],
      "stateMutability": "view",
      "type": "function"
    },
    {
      "inputs": [],
      "name": "payOracleFees",
      "outputs": [],
      "stateMutability": "payable",
      "type": "function"
    },
    {
      "inputs": [
        {
          "internalType": "address",
          "name": "erc20Address",
          "type": "address"
        },
        {
          "components": [
            {
              "internalType": "uint256",
              "name": "rawValue",
              "type": "uint256"
            }
          ],
          "internalType": "struct FixedPoint.Unsigned",
          "name": "amount",
          "type": "tuple"
        }
      ],
      "name": "payOracleFeesErc20",
      "outputs": [],
      "stateMutability": "nonpayable",
      "type": "function"
    },
    {
      "inputs": [
        {
          "internalType": "uint256",
          "name": "roleId",
          "type": "uint256"
        },
        {
          "internalType": "address",
          "name": "memberToRemove",
          "type": "address"
        }
      ],
      "name": "removeMember",
      "outputs": [],
      "stateMutability": "nonpayable",
      "type": "function"
    },
    {
      "inputs": [
        {
          "internalType": "uint256",
          "name": "roleId",
          "type": "uint256"
        }
      ],
      "name": "renounceMembership",
      "outputs": [],
      "stateMutability": "nonpayable",
      "type": "function"
    },
    {
      "inputs": [
        {
          "internalType": "uint256",
          "name": "roleId",
          "type": "uint256"
        },
        {
          "internalType": "address",
          "name": "newMember",
          "type": "address"
        }
      ],
      "name": "resetMember",
      "outputs": [],
      "stateMutability": "nonpayable",
      "type": "function"
    },
    {
      "inputs": [
        {
          "internalType": "uint256",
          "name": "time",
          "type": "uint256"
        }
      ],
      "name": "setCurrentTime",
      "outputs": [],
      "stateMutability": "nonpayable",
      "type": "function"
    },
    {
      "inputs": [
        {
          "internalType": "address",
          "name": "currency",
          "type": "address"
        },
        {
          "components": [
            {
              "internalType": "uint256",
              "name": "rawValue",
              "type": "uint256"
            }
          ],
          "internalType": "struct FixedPoint.Unsigned",
          "name": "newFinalFee",
          "type": "tuple"
        }
      ],
      "name": "setFinalFee",
      "outputs": [],
      "stateMutability": "nonpayable",
      "type": "function"
    },
    {
      "inputs": [
        {
          "components": [
            {
              "internalType": "uint256",
              "name": "rawValue",
              "type": "uint256"
            }
          ],
          "internalType": "struct FixedPoint.Unsigned",
          "name": "newFixedOracleFeePerSecondPerPfc",
          "type": "tuple"
        }
      ],
      "name": "setFixedOracleFeePerSecondPerPfc",
      "outputs": [],
      "stateMutability": "nonpayable",
      "type": "function"
    },
    {
      "inputs": [
        {
          "components": [
            {
              "internalType": "uint256",
              "name": "rawValue",
              "type": "uint256"
            }
          ],
          "internalType": "struct FixedPoint.Unsigned",
          "name": "newWeeklyDelayFeePerSecondPerPfc",
          "type": "tuple"
        }
      ],
      "name": "setWeeklyDelayFeePerSecondPerPfc",
      "outputs": [],
      "stateMutability": "nonpayable",
      "type": "function"
    },
    {
      "inputs": [],
      "name": "timerAddress",
      "outputs": [
        {
          "internalType": "address",
          "name": "",
          "type": "address"
        }
      ],
      "stateMutability": "view",
      "type": "function"
    },
    {
      "inputs": [],
      "name": "weeklyDelayFeePerSecondPerPfc",
      "outputs": [
        {
          "internalType": "uint256",
          "name": "rawValue",
          "type": "uint256"
        }
      ],
      "stateMutability": "view",
      "type": "function"
    },
    {
      "inputs": [
        {
          "internalType": "uint256",
          "name": "amount",
          "type": "uint256"
        }
      ],
      "name": "withdraw",
      "outputs": [],
      "stateMutability": "nonpayable",
      "type": "function"
    },
    {
      "inputs": [
        {
          "internalType": "address",
          "name": "erc20Address",
          "type": "address"
        },
        {
          "internalType": "uint256",
          "name": "amount",
          "type": "uint256"
        }
      ],
      "name": "withdrawErc20",
      "outputs": [],
      "stateMutability": "nonpayable",
      "type": "function"
    }
  ],
  "bytecode": "0x608060405234610426576040516119ac3881900390601f8201601f19168301906001600160401b0382118483101761042a5782916040528339810160608282031261042657604061005d610053838561045d565b926020850161045d565b9201516001600160a01b0381169081900361042657600280546001600160a01b0319169190911790555f8080526020525f51602061198c5f395f51905f525460ff16600381101561037c57610390575f80805260208190525f51602061198c5f395f51905f52805460ff191660011790555f51602061196c5f395f51905f5290815533156103d55760020180546001600160a01b031916331790555f8080526020525f51602061198c5f395f51905f525460ff16600381101561037c57156103115760018080555f9081526020525f51602061194c5f395f51905f525460ff16600381101561037c57610390575f60208190525f51602061194c5f395f51905f52805460ff191660011790557fada5013122d395ba3c54772283fb069b10426056ef8ca54750cb9bb552a59e7d8190557fada5013122d395ba3c54772283fb069b10426056ef8ca54750cb9bb552a59e7f80546001600160a01b0319163317905580525f51602061198c5f395f51905f525460ff16600381101561037c5715610311576101f16101ec336104ce565b610477565b6101fa81610576565b156102cc5760207e41cf46cedaae9927def5c0647b190fd958c8ab8cde4219dad74319bc05d3d9915180600355604051908152a161023a6101ec336104ce565b61024381610576565b156102875760207f2e6cd3e6f7808568620c647ac0e652b0e95bef2494692adbc118fbbd02a8e82e915180600455604051908152a16040516113b2908161059a8239f35b60405162461bcd60e51b815260206004820152601f60248201527f7765656b6c792064656c617920666565206d757374206265203c2031303025006044820152606490fd5b60405162461bcd60e51b815260206004820152601e60248201527f466565206d757374206265203c203130302520706572207365636f6e642e00006044820152606490fd5b60405162461bcd60e51b815260206004820152603c60248201527f417474656d7074656420746f2075736520616e20696e76616c696420726f6c6560448201527f20746f206d616e61676520616e206578636c757369766520726f6c65000000006064820152608490fd5b634e487b7160e01b5f52602160045260245ffd5b60405162461bcd60e51b815260206004820152601e60248201527f43616e6e6f74207573652061207072652d6578697374696e6720726f6c6500006044820152606490fd5b60405162461bcd60e51b815260206004820152602360248201527f43616e6e6f742073657420616e206578636c757369766520726f6c6520746f2060448201526203078360ec1b6064820152608490fd5b5f80fd5b634e487b7160e01b5f52604160045260245ffd5b60405190602082016001600160401b0381118382101761042a57604052565b91908260209103126104265761047161043e565b91518252565b1561047e57565b60405162461bcd60e51b815260206004820152602260248201527f53656e64657220646f6573206e6f7420686f6c6420726571756972656420726f6044820152616c6560f01b6064820152608490fd5b5f8080526020525f51602061198c5f395f51905f52545f51602061196c5f395f51905f529060ff16600381101561037c576001810361051d5750600201546001600160a01b0391821691161490565b60021461055a5760405162461bcd60e51b815260206004820152600e60248201526d125b9d985b1a59081c9bdb19525960921b6044820152606490fd5b60039160018060a01b03165f520160205260ff60405f20541690565b670de0b6b3a764000090515f61058a61043e565b528161059461043e565b52109056fe6080806040526004361015610012575f80fd5b5f905f3560e01c9081631c39c38d14610c565750806322f8e56614610bc757806329cb924d14610ba45780632e1a7d4d14610ab15780632fee209814610a935780635b97aadd14610a3e5780636be7658b146109845780636f356f4a1461094c57806374201feb1461088557806374d0a676146107875780637cdc1cb9146107565780637d69dfdb146107385780637e7e591d146106c357806384ae2a74146106a55780638659d232146105b0578063aaa14ca314610513578063ab3545e5146104a2578063acb6f6cb146103f4578063b187487d14610345578063bd1f4b52146102bb578063cd3a9b24146102625763d97c05be14610110575f80fd5b3461025f57604036600319011261025f5760043561012c610c8f565b8183528260205260ff600160408520015416600381101561024b576001610153911461105b565b8183528260205261017161016c60408520543390611022565b610ec1565b818352826020526001600160a01b036002604085200191169081156101e157817fffffffffffffffffffffffff000000000000000000000000000000000000000082541617905533917f3b855c56b409b671c7112789d022675eb639d0bcb8896f1b6197c132f799e7468480a480f35b608460405162461bcd60e51b815260206004820152602360248201527f43616e6e6f742073657420616e206578636c757369766520726f6c6520746f2060448201527f30783000000000000000000000000000000000000000000000000000000000006064820152fd5b602484634e487b7160e01b81526021600452fd5b80fd5b508060031936011261025f5734156102775780f35b606460405162461bcd60e51b815260206004820152601860248201527f56616c75652073656e742063616e2774206265207a65726f00000000000000006044820152fd5b503461025f57604036600319011261025f576103426102d8610c79565b6102ed6102e86001543390611022565b610ddf565b6001600160a01b03604051917fa9059cbb00000000000000000000000000000000000000000000000000000000602084015233602484015260243560448401526044835261033c606484610cd5565b166111c5565b80f35b503461025f57602036600319011261025f5761036036610d37565b61036c6102e833610f31565b805161037661119d565b5111156103b05760207f2e6cd3e6f7808568620c647ac0e652b0e95bef2494692adbc118fbbd02a8e82e915180600455604051908152a180f35b606460405162461bcd60e51b815260206004820152601f60248201527f7765656b6c792064656c617920666565206d757374206265203c2031303025006044820152fd5b503461025f57602036600319011261025f5761040f36610d37565b61041b6102e833610f31565b805161042561119d565b51111561045e5760207e41cf46cedaae9927def5c0647b190fd958c8ab8cde4219dad74319bc05d3d9915180600355604051908152a180f35b606460405162461bcd60e51b815260206004820152601e60248201527f466565206d757374206265203c203130302520706572207365636f6e642e00006044820152fd5b503461025f57602036600319011261025f576004358082528160205260ff60016040842001541660038110156104ff5760406020936001600160a01b03936104ee60016002951461105b565b815280855220015416604051908152f35b602483634e487b7160e01b81526021600452fd5b503461025f57602036600319011261025f576004358082528160205260ff60016040842001541660038110156104ff57600261054f9114610e50565b61055c6102e83383611022565b80825281602052600360408320016001600160a01b0333165f5260205260405f2060ff198154169055339033907feb3e33034c392e69263b04ec0fa376dc12784a41b6676c7f31b936cbc0fbb5af8480a480f35b503461025f57604036600319011261025f576105ca610c79565b60203660231901126106a1576105df36610d17565b51826040516105ed81610ca5565b526040516105fa81610ca5565b83815251101561065d57610342906001600160a01b03604051917f23b872dd00000000000000000000000000000000000000000000000000000000602084015233602484015230604484015260243560648401526064835261033c608484610cd5565b606460405162461bcd60e51b815260206004820152601960248201527f416d6f756e742073656e742063616e2774206265207a65726f000000000000006044820152fd5b5080fd5b503461025f578060031936011261025f57602060405162093a808152f35b503461025f57604036600319011261025f577f98c807f575ae6584ff8200eaf3205f3f20abf9c954fff030c152f5e7c5446d6e6020610700610c79565b6001600160a01b0361071136610d17565b9161071e6102e833610f31565b16845260058252604084209051809155604051908152a180f35b503461025f578060031936011261025f576020600454604051908152f35b503461025f57604036600319011261025f57602061077d610775610c8f565b600435611022565b6040519015158152f35b503461025f57604036600319011261025f576004356107a4610c8f565b8183528260205260ff600160408520015416600381101561024b5760026107cb9114610e50565b818352826020526107e461016c60408520543390611022565b818352826020526001600160a01b0360036040852001911690811561084157815f5260205260405f20600160ff1982541617905533917f63502af7324ff6db91ab38f8236a648727d9385ea6c782073dd4882d8a61a48f8480a480f35b606460405162461bcd60e51b815260206004820152601f60248201527f43616e6e6f74206164642030783020746f20612073686172656420726f6c65006044820152fd5b503461025f57606036600319011261025f5760043560203660431901126106a1578160409283516108b581610ca5565b5282516108c181610ca5565b5261093e6108d18260243561110b565b61093961092f6109136109056108ef856108ea36610cf7565b61112c565b8851906108fb82610ca5565b6003548252611157565b9561090e610d57565b61110b565b62093a8087519161092383610ca5565b6004548352049061112c565b916108ea36610cf7565b611157565b825191518252516020820152f35b503461025f57602036600319011261025f5760406020916001600160a01b03610973610c79565b168152600583522054604051908152f35b503461025f57604036600319011261025f576004356109a1610c8f565b908083528260205260ff600160408520015416600381101561024b5760026109c99114610e50565b808352826020526109e261016c60408520543390611022565b80835282602052600360408420016001600160a01b0383165f5260205260405f2060ff1981541690556001600160a01b03339216907feb3e33034c392e69263b04ec0fa376dc12784a41b6676c7f31b936cbc0fbb5af8480a480f35b503461025f57602036600319011261025f5760406020916001600160a01b03610a65610c79565b828451610a7181610ca5565b52168152600583522060405190610a8782610ca5565b54809152604051908152f35b503461025f578060031936011261025f576020600354604051908152f35b503461025f57602036600319011261025f57600435610ad66102e86001543390611022565b804710610b60578180808093335af1610aed6110cc565b5015610af65780f35b608460405162461bcd60e51b815260206004820152603a60248201527f416464726573733a20756e61626c6520746f2073656e642076616c75652c207260448201527f6563697069656e74206d617920686176652072657665727465640000000000006064820152fd5b606460405162461bcd60e51b815260206004820152601d60248201527f416464726573733a20696e73756666696369656e742062616c616e63650000006044820152fd5b503461025f578060031936011261025f576020610bbf610d57565b604051908152f35b5034610c52576020366003190112610c52576001600160a01b03600254168015610c5257803b15610c52575f80916024604051809481937f22f8e56600000000000000000000000000000000000000000000000000000000835260043560048401525af18015610c4757610c39575080f35b610c4591505f90610cd5565b005b6040513d5f823e3d90fd5b5f80fd5b34610c52575f366003190112610c52576020906001600160a01b03600254168152f35b600435906001600160a01b0382168203610c5257565b602435906001600160a01b0382168203610c5257565b6020810190811067ffffffffffffffff821117610cc157604052565b634e487b7160e01b5f52604160045260245ffd5b90601f8019910116810190811067ffffffffffffffff821117610cc157604052565b6020906043190112610c525760405190610d1082610ca5565b6044358252565b6020906023190112610c525760405190610d3082610ca5565b6024358252565b6020906003190112610c525760405190610d5082610ca5565b6004358252565b6002546001600160a01b03168015610dda576020600491604051928380927f29cb924d0000000000000000000000000000000000000000000000000000000082525afa908115610c47575f91610dab575090565b90506020813d602011610dd2575b81610dc660209383610cd5565b81010312610c52575190565b3d9150610db9565b504290565b15610de657565b608460405162461bcd60e51b815260206004820152602260248201527f53656e64657220646f6573206e6f7420686f6c6420726571756972656420726f60448201527f6c650000000000000000000000000000000000000000000000000000000000006064820152fd5b15610e5757565b608460405162461bcd60e51b815260206004820152602c60248201527f4d7573742062652063616c6c6564206f6e20616e20696e697469616c697a656460448201527f2053686172656420726f6c6500000000000000000000000000000000000000006064820152fd5b15610ec857565b608460405162461bcd60e51b8152602060048201526024808201527f43616e206f6e6c792062652063616c6c6564206279206120726f6c65206d616e60448201527f61676572000000000000000000000000000000000000000000000000000000006064820152fd5b5f8080526020527fad3228b676f7d3cd4284a5443f17f1962b36e491b30a40b2405849e597ba5fb6547fad3228b676f7d3cd4284a5443f17f1962b36e491b30a40b2405849e597ba5fb59060ff16600381101561100e5760018103610fa657506001600160a01b036002819201541691161490565b600214610ff157606460405162461bcd60e51b815260206004820152600e60248201527f496e76616c696420726f6c6549640000000000000000000000000000000000006044820152fd5b6001600160a01b03600392165f520160205260ff60405f20541690565b634e487b7160e01b5f52602160045260245ffd5b5f525f60205260405f2060ff600182015416600381101561100e5760018103610fa657506001600160a01b036002819201541691161490565b1561106257565b608460405162461bcd60e51b815260206004820152602f60248201527f4d7573742062652063616c6c6564206f6e20616e20696e697469616c697a656460448201527f204578636c757369766520726f6c6500000000000000000000000000000000006064820152fd5b3d15611106573d9067ffffffffffffffff8211610cc157604051916110fb601f8201601f191660200184610cd5565b82523d5f602084013e565b606090565b9190820391821161111857565b634e487b7160e01b5f52601160045260245ffd5b90611145915f60405161113e81610ca5565b525161118a565b6040519061115282610ca5565b815290565b670de0b6b3a76400009161117c915f60405161117281610ca5565b525190519061118a565b046040519061115282610ca5565b8181029291811591840414171561111857565b5f6040516111aa81610ca5565b526040516111b781610ca5565b670de0b6b3a7640000815290565b906001600160a01b0361122692165f80604051936111e4604086610cd5565b602085527f5361666545524332303a206c6f772d6c6576656c2063616c6c206661696c6564602086015260208151910182855af16112206110cc565b916112c9565b80519081159182156112a6575b50501561123c57565b608460405162461bcd60e51b815260206004820152602a60248201527f5361666545524332303a204552433230206f7065726174696f6e20646964206e60448201527f6f742073756363656564000000000000000000000000000000000000000000006064820152fd5b8192509060209181010312610c5257602001518015158103610c52575f80611233565b9192901561132a57508151156112dd575090565b3b156112e65790565b606460405162461bcd60e51b815260206004820152601d60248201527f416464726573733a2063616c6c20746f206e6f6e2d636f6e74726163740000006044820152fd5b82519091501561133d5750805190602001fd5b604460209160405192839162461bcd60e51b83528160048401528051918291826024860152018484015e5f828201840152601f01601f19168101030190fdfea26469706673582212209a7201f27e4c558645d5c6411645fb433cb6531a3a28846ce8d50cd98ce91c8564736f6c63430008220033ada5013122d395ba3c54772283fb069b10426056ef8ca54750cb9bb552a59e7ead3228b676f7d3cd4284a5443f17f1962b36e491b30a40b2405849e597ba5fb5ad3228b676f7d3cd4284a5443f17f1962b36e491b30a40b2405849e597ba5fb6",
  "linkReferences": {},
  "deployedLinkReferences": {},
  "immutableReferences": {},
  "inputSourceName": "npm/@uma/core@2.62.2/contracts/data-verification-mechanism/implementation/Store.sol",
  "buildInfoId": "solc-0_8_34-0b33b6b3fc7ab0ce3916648b2f4db0f191b7f3e5"
}