{
  "_format": "hh3-artifact-1",
  "contractName": "Profile",
  "sourceName": "evm/protocol/Profile.sol",
  "abi": [
    {
      "inputs": [],
      "name": "AccessControlBadConfirmation",
      "type": "error"
    },
    {
      "inputs": [
        {
          "internalType": "address",
          "name": "account",
          "type": "address"
        },
        {
          "internalType": "bytes32",
          "name": "neededRole",
          "type": "bytes32"
        }
      ],
      "name": "AccessControlUnauthorizedAccount",
      "type": "error"
    },
    {
      "inputs": [
        {
          "internalType": "address",
          "name": "target",
          "type": "address"
        }
      ],
      "name": "AddressEmptyCode",
      "type": "error"
    },
    {
      "inputs": [
        {
          "internalType": "address",
          "name": "implementation",
          "type": "address"
        }
      ],
      "name": "ERC1967InvalidImplementation",
      "type": "error"
    },
    {
      "inputs": [],
      "name": "ERC1967NonPayable",
      "type": "error"
    },
    {
      "inputs": [
        {
          "internalType": "address",
          "name": "sender",
          "type": "address"
        },
        {
          "internalType": "uint256",
          "name": "tokenId",
          "type": "uint256"
        },
        {
          "internalType": "address",
          "name": "owner",
          "type": "address"
        }
      ],
      "name": "ERC721IncorrectOwner",
      "type": "error"
    },
    {
      "inputs": [
        {
          "internalType": "address",
          "name": "operator",
          "type": "address"
        },
        {
          "internalType": "uint256",
          "name": "tokenId",
          "type": "uint256"
        }
      ],
      "name": "ERC721InsufficientApproval",
      "type": "error"
    },
    {
      "inputs": [
        {
          "internalType": "address",
          "name": "approver",
          "type": "address"
        }
      ],
      "name": "ERC721InvalidApprover",
      "type": "error"
    },
    {
      "inputs": [
        {
          "internalType": "address",
          "name": "operator",
          "type": "address"
        }
      ],
      "name": "ERC721InvalidOperator",
      "type": "error"
    },
    {
      "inputs": [
        {
          "internalType": "address",
          "name": "owner",
          "type": "address"
        }
      ],
      "name": "ERC721InvalidOwner",
      "type": "error"
    },
    {
      "inputs": [
        {
          "internalType": "address",
          "name": "receiver",
          "type": "address"
        }
      ],
      "name": "ERC721InvalidReceiver",
      "type": "error"
    },
    {
      "inputs": [
        {
          "internalType": "address",
          "name": "sender",
          "type": "address"
        }
      ],
      "name": "ERC721InvalidSender",
      "type": "error"
    },
    {
      "inputs": [
        {
          "internalType": "uint256",
          "name": "tokenId",
          "type": "uint256"
        }
      ],
      "name": "ERC721NonexistentToken",
      "type": "error"
    },
    {
      "inputs": [],
      "name": "FailedCall",
      "type": "error"
    },
    {
      "inputs": [],
      "name": "FeedbackAlreadyGiven",
      "type": "error"
    },
    {
      "inputs": [],
      "name": "InvalidInitialization",
      "type": "error"
    },
    {
      "inputs": [],
      "name": "NotInitializing",
      "type": "error"
    },
    {
      "inputs": [],
      "name": "ProfileAlreadyExists",
      "type": "error"
    },
    {
      "inputs": [],
      "name": "UUPSUnauthorizedCallContext",
      "type": "error"
    },
    {
      "inputs": [
        {
          "internalType": "bytes32",
          "name": "slot",
          "type": "bytes32"
        }
      ],
      "name": "UUPSUnsupportedProxiableUUID",
      "type": "error"
    },
    {
      "anonymous": false,
      "inputs": [
        {
          "indexed": true,
          "internalType": "address",
          "name": "owner",
          "type": "address"
        },
        {
          "indexed": true,
          "internalType": "address",
          "name": "approved",
          "type": "address"
        },
        {
          "indexed": true,
          "internalType": "uint256",
          "name": "tokenId",
          "type": "uint256"
        }
      ],
      "name": "Approval",
      "type": "event"
    },
    {
      "anonymous": false,
      "inputs": [
        {
          "indexed": true,
          "internalType": "address",
          "name": "owner",
          "type": "address"
        },
        {
          "indexed": true,
          "internalType": "address",
          "name": "operator",
          "type": "address"
        },
        {
          "indexed": false,
          "internalType": "bool",
          "name": "approved",
          "type": "bool"
        }
      ],
      "name": "ApprovalForAll",
      "type": "event"
    },
    {
      "anonymous": false,
      "inputs": [
        {
          "indexed": false,
          "internalType": "uint64",
          "name": "version",
          "type": "uint64"
        }
      ],
      "name": "Initialized",
      "type": "event"
    },
    {
      "anonymous": false,
      "inputs": [
        {
          "indexed": true,
          "internalType": "bytes32",
          "name": "role",
          "type": "bytes32"
        },
        {
          "indexed": true,
          "internalType": "bytes32",
          "name": "previousAdminRole",
          "type": "bytes32"
        },
        {
          "indexed": true,
          "internalType": "bytes32",
          "name": "newAdminRole",
          "type": "bytes32"
        }
      ],
      "name": "RoleAdminChanged",
      "type": "event"
    },
    {
      "anonymous": false,
      "inputs": [
        {
          "indexed": true,
          "internalType": "bytes32",
          "name": "role",
          "type": "bytes32"
        },
        {
          "indexed": true,
          "internalType": "address",
          "name": "account",
          "type": "address"
        },
        {
          "indexed": true,
          "internalType": "address",
          "name": "sender",
          "type": "address"
        }
      ],
      "name": "RoleGranted",
      "type": "event"
    },
    {
      "anonymous": false,
      "inputs": [
        {
          "indexed": true,
          "internalType": "bytes32",
          "name": "role",
          "type": "bytes32"
        },
        {
          "indexed": true,
          "internalType": "address",
          "name": "account",
          "type": "address"
        },
        {
          "indexed": true,
          "internalType": "address",
          "name": "sender",
          "type": "address"
        }
      ],
      "name": "RoleRevoked",
      "type": "event"
    },
    {
      "anonymous": false,
      "inputs": [
        {
          "indexed": true,
          "internalType": "address",
          "name": "from",
          "type": "address"
        },
        {
          "indexed": true,
          "internalType": "address",
          "name": "to",
          "type": "address"
        },
        {
          "indexed": true,
          "internalType": "uint256",
          "name": "tokenId",
          "type": "uint256"
        }
      ],
      "name": "Transfer",
      "type": "event"
    },
    {
      "anonymous": false,
      "inputs": [
        {
          "indexed": true,
          "internalType": "address",
          "name": "implementation",
          "type": "address"
        }
      ],
      "name": "Upgraded",
      "type": "event"
    },
    {
      "inputs": [],
      "name": "DEFAULT_ADMIN_ROLE",
      "outputs": [
        {
          "internalType": "bytes32",
          "name": "",
          "type": "bytes32"
        }
      ],
      "stateMutability": "view",
      "type": "function"
    },
    {
      "inputs": [],
      "name": "UPGRADE_INTERFACE_VERSION",
      "outputs": [
        {
          "internalType": "string",
          "name": "",
          "type": "string"
        }
      ],
      "stateMutability": "view",
      "type": "function"
    },
    {
      "inputs": [
        {
          "internalType": "address",
          "name": "to",
          "type": "address"
        },
        {
          "internalType": "uint256",
          "name": "tokenId",
          "type": "uint256"
        }
      ],
      "name": "approve",
      "outputs": [],
      "stateMutability": "nonpayable",
      "type": "function"
    },
    {
      "inputs": [
        {
          "internalType": "address",
          "name": "owner",
          "type": "address"
        }
      ],
      "name": "balanceOf",
      "outputs": [
        {
          "internalType": "uint256",
          "name": "",
          "type": "uint256"
        }
      ],
      "stateMutability": "view",
      "type": "function"
    },
    {
      "inputs": [
        {
          "internalType": "uint256",
          "name": "tokenId",
          "type": "uint256"
        }
      ],
      "name": "getApproved",
      "outputs": [
        {
          "internalType": "address",
          "name": "",
          "type": "address"
        }
      ],
      "stateMutability": "view",
      "type": "function"
    },
    {
      "inputs": [
        {
          "internalType": "bytes32",
          "name": "role",
          "type": "bytes32"
        }
      ],
      "name": "getRoleAdmin",
      "outputs": [
        {
          "internalType": "bytes32",
          "name": "",
          "type": "bytes32"
        }
      ],
      "stateMutability": "view",
      "type": "function"
    },
    {
      "inputs": [
        {
          "internalType": "bytes32",
          "name": "role",
          "type": "bytes32"
        },
        {
          "internalType": "address",
          "name": "account",
          "type": "address"
        }
      ],
      "name": "grantRole",
      "outputs": [],
      "stateMutability": "nonpayable",
      "type": "function"
    },
    {
      "inputs": [
        {
          "internalType": "bytes32",
          "name": "role",
          "type": "bytes32"
        },
        {
          "internalType": "address",
          "name": "account",
          "type": "address"
        }
      ],
      "name": "hasRole",
      "outputs": [
        {
          "internalType": "bool",
          "name": "",
          "type": "bool"
        }
      ],
      "stateMutability": "view",
      "type": "function"
    },
    {
      "inputs": [],
      "name": "initialize",
      "outputs": [],
      "stateMutability": "nonpayable",
      "type": "function"
    },
    {
      "inputs": [
        {
          "internalType": "address",
          "name": "owner",
          "type": "address"
        },
        {
          "internalType": "address",
          "name": "operator",
          "type": "address"
        }
      ],
      "name": "isApprovedForAll",
      "outputs": [
        {
          "internalType": "bool",
          "name": "",
          "type": "bool"
        }
      ],
      "stateMutability": "view",
      "type": "function"
    },
    {
      "inputs": [],
      "name": "name",
      "outputs": [
        {
          "internalType": "string",
          "name": "",
          "type": "string"
        }
      ],
      "stateMutability": "view",
      "type": "function"
    },
    {
      "inputs": [
        {
          "internalType": "uint256",
          "name": "tokenId",
          "type": "uint256"
        }
      ],
      "name": "ownerOf",
      "outputs": [
        {
          "internalType": "address",
          "name": "",
          "type": "address"
        }
      ],
      "stateMutability": "view",
      "type": "function"
    },
    {
      "inputs": [
        {
          "internalType": "address",
          "name": "owner",
          "type": "address"
        }
      ],
      "name": "ownerToTokenId",
      "outputs": [
        {
          "internalType": "uint256",
          "name": "",
          "type": "uint256"
        }
      ],
      "stateMutability": "view",
      "type": "function"
    },
    {
      "inputs": [],
      "name": "proxiableUUID",
      "outputs": [
        {
          "internalType": "bytes32",
          "name": "",
          "type": "bytes32"
        }
      ],
      "stateMutability": "view",
      "type": "function"
    },
    {
      "inputs": [],
      "name": "register",
      "outputs": [
        {
          "internalType": "uint256",
          "name": "tokenId",
          "type": "uint256"
        }
      ],
      "stateMutability": "nonpayable",
      "type": "function"
    },
    {
      "inputs": [
        {
          "internalType": "bytes32",
          "name": "role",
          "type": "bytes32"
        },
        {
          "internalType": "address",
          "name": "callerConfirmation",
          "type": "address"
        }
      ],
      "name": "renounceRole",
      "outputs": [],
      "stateMutability": "nonpayable",
      "type": "function"
    },
    {
      "inputs": [
        {
          "internalType": "bytes32",
          "name": "role",
          "type": "bytes32"
        },
        {
          "internalType": "address",
          "name": "account",
          "type": "address"
        }
      ],
      "name": "revokeRole",
      "outputs": [],
      "stateMutability": "nonpayable",
      "type": "function"
    },
    {
      "inputs": [
        {
          "internalType": "address",
          "name": "from",
          "type": "address"
        },
        {
          "internalType": "address",
          "name": "to",
          "type": "address"
        },
        {
          "internalType": "uint256",
          "name": "tokenId",
          "type": "uint256"
        }
      ],
      "name": "safeTransferFrom",
      "outputs": [],
      "stateMutability": "nonpayable",
      "type": "function"
    },
    {
      "inputs": [
        {
          "internalType": "address",
          "name": "from",
          "type": "address"
        },
        {
          "internalType": "address",
          "name": "to",
          "type": "address"
        },
        {
          "internalType": "uint256",
          "name": "tokenId",
          "type": "uint256"
        },
        {
          "internalType": "bytes",
          "name": "data",
          "type": "bytes"
        }
      ],
      "name": "safeTransferFrom",
      "outputs": [],
      "stateMutability": "nonpayable",
      "type": "function"
    },
    {
      "inputs": [
        {
          "internalType": "address",
          "name": "operator",
          "type": "address"
        },
        {
          "internalType": "bool",
          "name": "approved",
          "type": "bool"
        }
      ],
      "name": "setApprovalForAll",
      "outputs": [],
      "stateMutability": "nonpayable",
      "type": "function"
    },
    {
      "inputs": [
        {
          "internalType": "uint256",
          "name": "tokenId_",
          "type": "uint256"
        }
      ],
      "name": "stats",
      "outputs": [
        {
          "components": [
            {
              "internalType": "uint32",
              "name": "createdAt",
              "type": "uint32"
            },
            {
              "internalType": "uint32",
              "name": "upvotes",
              "type": "uint32"
            },
            {
              "internalType": "uint32",
              "name": "downvotes",
              "type": "uint32"
            },
            {
              "internalType": "uint32",
              "name": "volumeUSD",
              "type": "uint32"
            },
            {
              "internalType": "uint32",
              "name": "avgPaymentTime",
              "type": "uint32"
            },
            {
              "internalType": "uint32",
              "name": "avgReleaseTime",
              "type": "uint32"
            },
            {
              "internalType": "uint32",
              "name": "dealsCompleted",
              "type": "uint32"
            },
            {
              "internalType": "uint32",
              "name": "dealsExpired",
              "type": "uint32"
            },
            {
              "internalType": "uint32",
              "name": "disputesLost",
              "type": "uint32"
            }
          ],
          "internalType": "struct IProfile.Stats",
          "name": "",
          "type": "tuple"
        }
      ],
      "stateMutability": "view",
      "type": "function"
    },
    {
      "inputs": [
        {
          "internalType": "uint256",
          "name": "tokenId_",
          "type": "uint256"
        },
        {
          "internalType": "uint32",
          "name": "_dealTime",
          "type": "uint32"
        }
      ],
      "name": "statsAvgPaymentTime",
      "outputs": [],
      "stateMutability": "nonpayable",
      "type": "function"
    },
    {
      "inputs": [
        {
          "internalType": "uint256",
          "name": "tokenId_",
          "type": "uint256"
        },
        {
          "internalType": "uint32",
          "name": "_dealTime",
          "type": "uint32"
        }
      ],
      "name": "statsAvgReleaseTime",
      "outputs": [],
      "stateMutability": "nonpayable",
      "type": "function"
    },
    {
      "inputs": [
        {
          "internalType": "uint256",
          "name": "tokenId_",
          "type": "uint256"
        }
      ],
      "name": "statsDealCompleted",
      "outputs": [],
      "stateMutability": "nonpayable",
      "type": "function"
    },
    {
      "inputs": [
        {
          "internalType": "uint256",
          "name": "tokenId_",
          "type": "uint256"
        }
      ],
      "name": "statsDealExpired",
      "outputs": [],
      "stateMutability": "nonpayable",
      "type": "function"
    },
    {
      "inputs": [
        {
          "internalType": "uint256",
          "name": "tokenId_",
          "type": "uint256"
        }
      ],
      "name": "statsDisputeLost",
      "outputs": [],
      "stateMutability": "nonpayable",
      "type": "function"
    },
    {
      "inputs": [
        {
          "internalType": "uint256",
          "name": "tokenId_",
          "type": "uint256"
        },
        {
          "internalType": "uint32",
          "name": "_volumeUSD",
          "type": "uint32"
        }
      ],
      "name": "statsVolumeUSD",
      "outputs": [],
      "stateMutability": "nonpayable",
      "type": "function"
    },
    {
      "inputs": [
        {
          "internalType": "uint256",
          "name": "tokenId_",
          "type": "uint256"
        },
        {
          "internalType": "bool",
          "name": "up_",
          "type": "bool"
        }
      ],
      "name": "statsVote",
      "outputs": [],
      "stateMutability": "nonpayable",
      "type": "function"
    },
    {
      "inputs": [
        {
          "internalType": "bytes4",
          "name": "interfaceId",
          "type": "bytes4"
        }
      ],
      "name": "supportsInterface",
      "outputs": [
        {
          "internalType": "bool",
          "name": "",
          "type": "bool"
        }
      ],
      "stateMutability": "view",
      "type": "function"
    },
    {
      "inputs": [],
      "name": "symbol",
      "outputs": [
        {
          "internalType": "string",
          "name": "",
          "type": "string"
        }
      ],
      "stateMutability": "view",
      "type": "function"
    },
    {
      "inputs": [
        {
          "internalType": "uint256",
          "name": "tokenId",
          "type": "uint256"
        }
      ],
      "name": "tokenURI",
      "outputs": [
        {
          "internalType": "string",
          "name": "",
          "type": "string"
        }
      ],
      "stateMutability": "view",
      "type": "function"
    },
    {
      "inputs": [
        {
          "internalType": "address",
          "name": "from",
          "type": "address"
        },
        {
          "internalType": "address",
          "name": "to",
          "type": "address"
        },
        {
          "internalType": "uint256",
          "name": "tokenId",
          "type": "uint256"
        }
      ],
      "name": "transferFrom",
      "outputs": [],
      "stateMutability": "nonpayable",
      "type": "function"
    },
    {
      "inputs": [
        {
          "internalType": "address",
          "name": "newImplementation",
          "type": "address"
        },
        {
          "internalType": "bytes",
          "name": "data",
          "type": "bytes"
        }
      ],
      "name": "upgradeToAndCall",
      "outputs": [],
      "stateMutability": "payable",
      "type": "function"
    }
  ],
  "bytecode": "0x60a080604052346029573060805261281a908161002e82396080518181816110aa01526111600152f35b5f80fdfe6080806040526004361015610012575f80fd5b5f905f3560e01c90816301ffc9a714611cd157508063030b151614611c4f57806306fdde0314611b6c578063081812fc14611b12578063095ea7b3146119c95780631a1f8c5e146119615780631aa3a0081461153557806323b872dd1461151e578063248a9ca3146114df5780632f2ff15d1461149557806336568abe1461143857806342842e0e1461140f5780634814f035146113d75780634f1ef2861461112257806352d1902d146110905780636352211e1461106157806370a0823114610fc85780638129fc1c1461095557806391d14854146108ff57806395d89b41146107e35780639a2edc4914610736578063a217fddf1461071c578063a22cb46514610648578063ad217ae5146104de578063ad3cb1cc1461047f578063b1241ce514610427578063b4357020146103df578063b58db50f14610374578063b88d4fde14610323578063c87b56dd146102c6578063d547741f14610272578063e985e9c5146101f35763ebadd89614610189575f80fd5b346101f0576101ed61019a36611d87565b906101a36123b6565b83528260205263ffffffff604084209181835460601c1601166fffffffff000000000000000000000000196fffffffff00000000000000000000000083549260601b169116179055565b80f35b80fd5b50346101f05760403660031901126101f05761020d611dce565b6001600160a01b03610257610220611de4565b926001600160a01b03165f527f80bb2b638cc20bc4d0a60d66940f3ab4a00c1d7b313497ca82fb0b4ab007930560205260405f2090565b91165f52602052602060ff60405f2054166040519015158152f35b50346101f05760403660031901126101f0576102c2600435610292611de4565b906102bd6102b8825f525f5160206127c55f395f51905f52602052600160405f20015490565b612411565b6124bf565b5080f35b3461031f57602036600319011261031f576102e260043561245e565b505f6040516102f2602082611e51565b5261031b604051610304602082611e51565b5f8152604051918291602083526020830190611daa565b0390f35b5f80fd5b3461031f57608036600319011261031f5761033c611dce565b610344611de4565b6064359167ffffffffffffffff831161031f57610368610372933690600401611e8f565b9160443591612243565b005b3461031f57602036600319011261031f5761038d6123b6565b6004355f525f60205261037260405f2063ffffffff6001825460e01c01167bffffffffffffffffffffffffffffffffffffffffffffffffffffffff6001600160e01b031983549260e01b169116179055565b3461031f57602036600319011261031f576103f86123b6565b6004355f525f602052600160405f200163ffffffff8060018184541601161663ffffffff198254161790555f80f35b3461031f57602036600319011261031f576104406123b6565b6004355f525f60205261037260405f2063ffffffff600181835460c01c16011663ffffffff60c01b1963ffffffff60c01b83549260c01b169116179055565b3461031f575f36600319011261031f5761031b6040516104a0604082611e51565b600581527f352e302e300000000000000000000000000000000000000000000000000000006020820152604051918291602083526020830190611daa565b3461031f57602036600319011261031f576040516104fb81611e34565b5f8152602081015f9052604081015f9052606081015f9052608081015f905260a081015f905260c081015f905260e081015f9052610100015f90526004355f525f60205260405f2060405161054f81611e34565b815463ffffffff811692838352602083018260201c63ffffffff168152604084018360401c63ffffffff168152606085018460601c63ffffffff16815260808601918560801c63ffffffff16835260a08701938660a01c63ffffffff16855260c08801958760c01c63ffffffff16875260e089019760e01c88526001015463ffffffff1697610100019788526040519889525163ffffffff1660208901525163ffffffff1660408801525163ffffffff1660608701525163ffffffff1660808601525163ffffffff1660a08501525163ffffffff1660c08401525163ffffffff1660e08301525163ffffffff1661010082015261012090f35b3461031f57604036600319011261031f57610661611dce565b6001600160a01b03610671611ed5565b91169081156106f057335f9081527f80bb2b638cc20bc4d0a60d66940f3ab4a00c1d7b313497ca82fb0b4ab007930560205260409020825f5260205260405f209015159060ff1981541660ff83161790556040519081527f17307eab39ab6107e8899845ad3d59bd9653f200f220920489ca2b5937696c3160203392a3005b507f5b08ba18000000000000000000000000000000000000000000000000000000005f5260045260245ffd5b3461031f575f36600319011261031f5760206040515f8152f35b3461031f57604036600319011261031f57600435610752611ed5565b61075a6123b6565b1561079d575f525f60205261037260405f2063ffffffff600181835460201c16011667ffffffff0000000082549160201b169067ffffffff000000001916179055565b5f525f60205261037260405f2063ffffffff600181835460401c1601166bffffffff000000000000000082549160401b16906bffffffff00000000000000001916179055565b3461031f575f36600319011261031f576040515f7f80bb2b638cc20bc4d0a60d66940f3ab4a00c1d7b313497ca82fb0b4ab00793015461082281611ee4565b80845290600181169081156108db575060011461085e575b61031b8361084a81850382611e51565b604051918291602083526020830190611daa565b7f80bb2b638cc20bc4d0a60d66940f3ab4a00c1d7b313497ca82fb0b4ab00793015f9081527ff4bad0a69248f59680a4f2b3000328cec71a413447c96781cfe5996daa8c456e939250905b8082106108c15750909150810160200161084a61083a565b9192600181602092548385880101520191019092916108a9565b60ff191660208086019190915291151560051b8401909101915061084a905061083a565b3461031f57604036600319011261031f57610918611de4565b6004355f525f5160206127c55f395f51905f526020526001600160a01b0360405f2091165f52602052602060ff60405f2054166040519015158152f35b3461031f575f36600319011261031f577ff0c57e16840df040f15088dc2f81fe391c3923bec73e23a9662efc9c229c6a005460ff8160401c16159067ffffffffffffffff811680159081610fc0575b6001149081610fb6575b159081610fad575b50610f855767ffffffffffffffff1981166001177ff0c57e16840df040f15088dc2f81fe391c3923bec73e23a9662efc9c229c6a005581610f46575b50604090815191610a038184611e51565b601083527f52657075746174696f6e20546f6b656e000000000000000000000000000000006020840152805191610a3a8284611e51565b600383527f52455000000000000000000000000000000000000000000000000000000000006020840152610a6c6126e1565b610a746126e1565b835167ffffffffffffffff8111610ddb57610aaf7f80bb2b638cc20bc4d0a60d66940f3ab4a00c1d7b313497ca82fb0b4ab007930054611ee4565b601f8111610eb9575b50602094601f8211600114610dfa579481929394955f92610def575b50508160011b915f199060031b1c1916177f80bb2b638cc20bc4d0a60d66940f3ab4a00c1d7b313497ca82fb0b4ab0079300555b825167ffffffffffffffff8111610ddb57610b437f80bb2b638cc20bc4d0a60d66940f3ab4a00c1d7b313497ca82fb0b4ab007930154611ee4565b601f8111610d4e575b506020601f8211600114610cad57819293945f92610ca2575b50508160011b915f199060031b1c1916177f80bb2b638cc20bc4d0a60d66940f3ab4a00c1d7b313497ca82fb0b4ab0079301555b610ba233612562565b50684445414c5f524f4c4560b81b5f8181525f5160206127c55f395f51905f5260205283812060010180547f4d41524b45545f524f4c4500000000000000000000000000000000000000000091829055945194909290917fbd79b86ffe0ab8e8776151514217cd7cacd52c909f66475c3af44e129f0b00ff9080a460018055610c2757005b60207fc7f505b2f371ae2175ee4913f4499e1f2633a7b5936321eed1cdaeb6115181d29168ff0000000000000000197ff0c57e16840df040f15088dc2f81fe391c3923bec73e23a9662efc9c229c6a0054167ff0c57e16840df040f15088dc2f81fe391c3923bec73e23a9662efc9c229c6a005560018152a1005b015190508480610b65565b601f198216907f80bb2b638cc20bc4d0a60d66940f3ab4a00c1d7b313497ca82fb0b4ab00793015f52805f20915f5b818110610d3657509583600195969710610d1e575b505050811b017f80bb2b638cc20bc4d0a60d66940f3ab4a00c1d7b313497ca82fb0b4ab007930155610b99565b01515f1960f88460031b161c19169055848080610cf1565b9192602060018192868b015181550194019201610cdc565b81811115610b4c577f80bb2b638cc20bc4d0a60d66940f3ab4a00c1d7b313497ca82fb0b4ab00793015f52601f820160051c7ff4bad0a69248f59680a4f2b3000328cec71a413447c96781cfe5996daa8c456e60208410610dd3575b81601f9101920160051c03905f5b828110610dc6575050610b4c565b5f82820155600101610db8565b5f9150610daa565b634e487b7160e01b5f52604160045260245ffd5b015190508580610ad4565b601f198216957f80bb2b638cc20bc4d0a60d66940f3ab4a00c1d7b313497ca82fb0b4ab00793005f527f37c58c799b6609234b945e882912ee9ad34948a1dfaa20a97485e1a7752bbf81915f5b888110610ea157508360019596979810610e89575b505050811b017f80bb2b638cc20bc4d0a60d66940f3ab4a00c1d7b313497ca82fb0b4ab007930055610b08565b01515f1960f88460031b161c19169055858080610e5c565b91926020600181928685015181550194019201610e47565b81811115610ab8577f80bb2b638cc20bc4d0a60d66940f3ab4a00c1d7b313497ca82fb0b4ab00793005f52601f820160051c9060208310610f3e575b601f82910160051c03905f5b828110610f0f575050610ab8565b5f8282017f37c58c799b6609234b945e882912ee9ad34948a1dfaa20a97485e1a7752bbf810155600101610f01565b5f9150610ef5565b68ffffffffffffffffff191668010000000000000001177ff0c57e16840df040f15088dc2f81fe391c3923bec73e23a9662efc9c229c6a0055816109f2565b7ff92ee8a9000000000000000000000000000000000000000000000000000000005f5260045ffd5b905015836109b6565b303b1591506109ae565b8391506109a4565b3461031f57602036600319011261031f57610fe1611dce565b6001600160a01b038116156110355761102c6020916001600160a01b03165f527f80bb2b638cc20bc4d0a60d66940f3ab4a00c1d7b313497ca82fb0b4ab007930360205260405f2090565b54604051908152f35b7f89c62b64000000000000000000000000000000000000000000000000000000005f525f60045260245ffd5b3461031f57602036600319011261031f57602061107f60043561245e565b6001600160a01b0360405191168152f35b3461031f575f36600319011261031f576001600160a01b037f00000000000000000000000000000000000000000000000000000000000000001630036110fa5760206040517f360894a13ba1a3210667c828492db98dca3e2076cc3735a920a3ca505d382bbc8152f35b7fe07c8dba000000000000000000000000000000000000000000000000000000005f5260045ffd5b604036600319011261031f57611136611dce565b60243567ffffffffffffffff811161031f57611156903690600401611e8f565b6001600160a01b037f0000000000000000000000000000000000000000000000000000000000000000168030149081156113a2575b506110fa57335f9081527fb7db2dd08fcb62d0c9e08c51941cae53c267786a0b75803fb7960902fc8ef97d602052604090205460ff161561138b576001600160a01b038216916040517f52d1902d000000000000000000000000000000000000000000000000000000008152602081600481875afa5f9181611357575b506112205783634c9c8ce360e01b5f5260045260245ffd5b807f360894a13ba1a3210667c828492db98dca3e2076cc3735a920a3ca505d382bbc85920361132c5750813b1561131a57806001600160a01b03197f360894a13ba1a3210667c828492db98dca3e2076cc3735a920a3ca505d382bbc5416177f360894a13ba1a3210667c828492db98dca3e2076cc3735a920a3ca505d382bbc557fbc7cd75a20ee27fd9adebab32041f755214dbc6bffa90cc0225b39da2e5c2d3b5f80a28151156112e9575f8083602061037295519101845af46112e36126b2565b91612738565b5050346112f257005b7fb398979f000000000000000000000000000000000000000000000000000000005f5260045ffd5b634c9c8ce360e01b5f5260045260245ffd5b7faa1d49a4000000000000000000000000000000000000000000000000000000005f5260045260245ffd5b9091506020813d602011611383575b8161137360209383611e51565b8101031261031f57519085611208565b3d9150611366565b63e2517d3f60e01b5f52336004525f60245260445ffd5b90506001600160a01b037f360894a13ba1a3210667c828492db98dca3e2076cc3735a920a3ca505d382bbc541614158361118b565b3461031f57602036600319011261031f576001600160a01b036113f8611dce565b165f526002602052602060405f2054604051908152f35b3461031f5761037261142036611dfa565b9060405192611430602085611e51565b5f8452612243565b3461031f57604036600319011261031f57611451611de4565b336001600160a01b0382160361146d57610372906004356124bf565b7f6697b232000000000000000000000000000000000000000000000000000000005f5260045ffd5b3461031f57604036600319011261031f576103726004356114b4611de4565b906114da6102b8825f525f5160206127c55f395f51905f52602052600160405f20015490565b612611565b3461031f57602036600319011261031f5760206115166004355f525f5160206127c55f395f51905f52602052600160405f20015490565b604051908152f35b3461031f5761037261152f36611dfa565b91611f1c565b3461031f575f36600319011261031f57335f52600260205260405f20546119395760015433156119265761159a815f527f80bb2b638cc20bc4d0a60d66940f3ab4a00c1d7b313497ca82fb0b4ab00793026020526001600160a01b0360405f20541690565b6001600160a01b038116908282151592836118a2575b335f9081527f80bb2b638cc20bc4d0a60d66940f3ab4a00c1d7b313497ca82fb0b4ab00793036020526040902060018154019055815f527f80bb2b638cc20bc4d0a60d66940f3ab4a00c1d7b313497ca82fb0b4ab007930260205260405f206001600160a01b0333166001600160a01b031982541617905533907fddf252ad1be2c89b69c2b068fc378daa952ba7f163c4a11628f55a4df523b3ef5f80a45061187657805f525f60205260405f205463ffffffff166040519061167282611e34565b81525f60208083018281526040808501848152606086018581526080870186815260a0880187815260c0890188815260e08a018981526101008b018a81528c8b528a8a529690992099518a54975167ffffffffffffffff1990981663ffffffff909116179690971b67ffffffff00000000169590951788559295949392915187546bffffffff0000000000000000191660409190911b6bffffffff0000000000000000161787555186546fffffffff000000000000000000000000191660609190911b6fffffffff0000000000000000000000001617865551855473ffffffff00000000000000000000000000000000191660809190911b73ffffffff000000000000000000000000000000001617855551845463ffffffff60a01b191660a09190911b63ffffffff60a01b1617845551835463ffffffff60c01b191660c09190911b63ffffffff60c01b161783555182547bffffffffffffffffffffffffffffffffffffffffffffffffffffffff1660e09190911b6001600160e01b0319161782555163ffffffff16906001019063ffffffff1663ffffffff19825416179055805f525f60205260405f204263ffffffff1663ffffffff1663ffffffff19825416179055335f5260026020528060405f2055600154905f19821461186257600160209201600155604051908152f35b634e487b7160e01b5f52601160045260245ffd5b7f73c6ac6e000000000000000000000000000000000000000000000000000000005f525f60045260245ffd5b6118e0825f527f80bb2b638cc20bc4d0a60d66940f3ab4a00c1d7b313497ca82fb0b4ab007930460205260405f206001600160a01b03198154169055565b61191a836001600160a01b03165f527f80bb2b638cc20bc4d0a60d66940f3ab4a00c1d7b313497ca82fb0b4ab007930360205260405f2090565b80545f190190556115b0565b633250574960e11b5f525f60045260245ffd5b7f6e8a1b0a000000000000000000000000000000000000000000000000000000005f5260045ffd5b3461031f5761037263ffffffff637fffffff61197c36611d87565b6119879391936123b6565b835f525f6020528160405f205460a01c16011660011c16905f525f60205260405f209063ffffffff60a01b1963ffffffff60a01b83549260a01b169116179055565b3461031f57604036600319011261031f576119e2611dce565b6024356119ee8161245e565b33151580611aff575b80611aa7575b611a7b5781906001600160a01b0380851691167f8c5be1e5ebec7d5bd14f71427d1e84f3dd0314c0f7b2291e5b200ac8c7c3b9255f80a45f527f80bb2b638cc20bc4d0a60d66940f3ab4a00c1d7b313497ca82fb0b4ab00793046020526001600160a01b0360405f2091166001600160a01b03198254161790555f80f35b7fa9fbf51f000000000000000000000000000000000000000000000000000000005f523360045260245ffd5b50611ae2816001600160a01b03165f527f80bb2b638cc20bc4d0a60d66940f3ab4a00c1d7b313497ca82fb0b4ab007930560205260405f2090565b6001600160a01b0333165f5260205260ff60405f205416156119fd565b50336001600160a01b03821614156119f7565b3461031f57602036600319011261031f57602061107f600435611b348161245e565b505f527f80bb2b638cc20bc4d0a60d66940f3ab4a00c1d7b313497ca82fb0b4ab00793046020526001600160a01b0360405f20541690565b3461031f575f36600319011261031f576040515f7f80bb2b638cc20bc4d0a60d66940f3ab4a00c1d7b313497ca82fb0b4ab007930054611bab81611ee4565b80845290600181169081156108db5750600114611bd25761031b8361084a81850382611e51565b7f80bb2b638cc20bc4d0a60d66940f3ab4a00c1d7b313497ca82fb0b4ab00793005f9081527f37c58c799b6609234b945e882912ee9ad34948a1dfaa20a97485e1a7752bbf81939250905b808210611c355750909150810160200161084a61083a565b919260018160209254838588010152019101909291611c1d565b3461031f5761037263ffffffff637fffffff611c6a36611d87565b611c759391936123b6565b835f525f6020528160405f205460801c16011660011c16905f525f60205260405f209073ffffffff000000000000000000000000000000001973ffffffff0000000000000000000000000000000083549260801b169116179055565b3461031f57602036600319011261031f57600435906001600160e01b0319821680830361031f576020927f80ac58cd000000000000000000000000000000000000000000000000000000008214918215611d5d575b508115611d4c575b8115611d3c575b5015158152f35b611d469150612357565b83611d35565b9050611d5781612357565b90611d2e565b7f5b5e139f0000000000000000000000000000000000000000000000000000000014915084611d26565b604090600319011261031f576004359060243563ffffffff8116810361031f5790565b805180835260209291819084018484015e5f828201840152601f01601f1916010190565b600435906001600160a01b038216820361031f57565b602435906001600160a01b038216820361031f57565b606090600319011261031f576004356001600160a01b038116810361031f57906024356001600160a01b038116810361031f579060443590565b610120810190811067ffffffffffffffff821117610ddb57604052565b90601f8019910116810190811067ffffffffffffffff821117610ddb57604052565b67ffffffffffffffff8111610ddb57601f01601f191660200190565b81601f8201121561031f57803590611ea682611e73565b92611eb46040519485611e51565b8284526020838301011161031f57815f926020809301838601378301015290565b60243590811515820361031f57565b90600182811c92168015611f12575b6020831014611efe57565b634e487b7160e01b5f52602260045260245ffd5b91607f1691611ef3565b9190916001600160a01b03831690811561192657611f6b835f527f80bb2b638cc20bc4d0a60d66940f3ab4a00c1d7b313497ca82fb0b4ab00793026020526001600160a01b0360405f20541690565b83331515938461211d575b6001600160a01b039450611fc28584169788612068576001600160a01b03165f527f80bb2b638cc20bc4d0a60d66940f3ab4a00c1d7b313497ca82fb0b4ab007930360205260405f2090565b60018154019055815f527f80bb2b638cc20bc4d0a60d66940f3ab4a00c1d7b313497ca82fb0b4ab007930260205260405f20816001600160a01b0319825416179055867fddf252ad1be2c89b69c2b068fc378daa952ba7f163c4a11628f55a4df523b3ef5f80a4501680830361203757505050565b7f64283d7b000000000000000000000000000000000000000000000000000000005f5260045260245260445260645ffd5b6120a6845f527f80bb2b638cc20bc4d0a60d66940f3ab4a00c1d7b313497ca82fb0b4ab007930460205260405f206001600160a01b03198154169055565b6120e0856001600160a01b03165f527f80bb2b638cc20bc4d0a60d66940f3ab4a00c1d7b313497ca82fb0b4ab007930360205260405f2090565b80545f190190556001600160a01b03165f527f80bb2b638cc20bc4d0a60d66940f3ab4a00c1d7b313497ca82fb0b4ab007930360205260405f2090565b91929380915090612187575b156121375790838392611f76565b836001600160a01b03831661215857637e27328960e01b5f5260045260245ffd5b7f177e802f000000000000000000000000000000000000000000000000000000005f523360045260245260445ffd5b50336001600160a01b0383161480156121ec575b806121295750336001600160a01b036121e5865f527f80bb2b638cc20bc4d0a60d66940f3ab4a00c1d7b313497ca82fb0b4ab00793046020526001600160a01b0360405f20541690565b1614612129565b50612227826001600160a01b03165f527f80bb2b638cc20bc4d0a60d66940f3ab4a00c1d7b313497ca82fb0b4ab007930560205260405f2090565b6001600160a01b0333165f5260205260ff60405f20541661219b565b9061224f838284611f1c565b803b61225c575b50505050565b6020916122a26001600160a01b03809316956040519586948594630a85bd0160e11b86523360048701521660248501526044840152608060648401526084830190611daa565b03815f865af15f9181612312575b506122de57506122be6126b2565b805190816122d95782633250574960e11b5f5260045260245ffd5b602001fd5b6001600160e01b0319630a85bd0160e11b91160361230057505f808080612256565b633250574960e11b5f5260045260245ffd5b9091506020813d60201161234f575b8161232e60209383611e51565b8101031261031f57516001600160e01b03198116810361031f57905f6122b0565b3d9150612321565b6001600160e01b0319167f7965db0b00000000000000000000000000000000000000000000000000000000811490811561238f575090565b7f01ffc9a70000000000000000000000000000000000000000000000000000000091501490565b335f9081527f016eb059e9c793735a2503f97f90d6deeb7a67739000c45e8a0feaf950573468602052604090205460ff16156123ee57565b63e2517d3f60e01b5f5233600452684445414c5f524f4c4560b81b60245260445ffd5b805f525f5160206127c55f395f51905f5260205260405f206001600160a01b0333165f5260205260ff60405f205416156124485750565b63e2517d3f60e01b5f523360045260245260445ffd5b612499815f527f80bb2b638cc20bc4d0a60d66940f3ab4a00c1d7b313497ca82fb0b4ab00793026020526001600160a01b0360405f20541690565b906001600160a01b038216156124ad575090565b637e27328960e01b5f5260045260245ffd5b805f525f5160206127c55f395f51905f5260205260405f206001600160a01b0383165f5260205260ff60405f2054165f1461255c57805f525f5160206127c55f395f51905f5260205260405f206001600160a01b0383165f5260205260405f2060ff1981541690556001600160a01b03339216907ff6391f5c32d9c69d2a47ea670b442974b53935d1edc7fd64eb21e047a839171b5f80a4600190565b50505f90565b6001600160a01b0381165f9081527fb7db2dd08fcb62d0c9e08c51941cae53c267786a0b75803fb7960902fc8ef97d602052604090205460ff1661260c576001600160a01b03165f8181527fb7db2dd08fcb62d0c9e08c51941cae53c267786a0b75803fb7960902fc8ef97d60205260408120805460ff191660011790553391907f2f8788117e7eff1d82e926ec794901d17c78024a50270940304540a733656f0d8180a4600190565b505f90565b805f525f5160206127c55f395f51905f5260205260405f206001600160a01b0383165f5260205260ff60405f205416155f1461255c57805f525f5160206127c55f395f51905f5260205260405f206001600160a01b0383165f5260205260405f20600160ff198254161790556001600160a01b03339216907f2f8788117e7eff1d82e926ec794901d17c78024a50270940304540a733656f0d5f80a4600190565b3d156126dc573d906126c382611e73565b916126d16040519384611e51565b82523d5f602084013e565b606090565b60ff7ff0c57e16840df040f15088dc2f81fe391c3923bec73e23a9662efc9c229c6a005460401c161561271057565b7fd7e6bcf8000000000000000000000000000000000000000000000000000000005f5260045ffd5b90612775575080511561274d57602081519101fd5b7fd6bda275000000000000000000000000000000000000000000000000000000005f5260045ffd5b815115806127bb575b612786575090565b6001600160a01b03907f9996b315000000000000000000000000000000000000000000000000000000005f521660045260245ffd5b50803b1561277e56fe02dd7bc7dec4dceedda775e58dd541e08a116c6c53815c0bd028192f7b626800a26469706673582212205cb407a5faf3b9f26e0d6ac331bfdd5a213578d77686f42d6b193e0de020d74264736f6c63430008220033",
  "linkReferences": {},
  "deployedLinkReferences": {},
  "immutableReferences": {
    "652": [
      {
        "length": 32,
        "start": 4266
      },
      {
        "length": 32,
        "start": 4448
      }
    ]
  },
  "inputSourceName": "project/evm/protocol/Profile.sol",
  "buildInfoId": "solc-0_8_34-03dbd258ee5a8e94a8579669c36974f719440f8a"
}