{
  "_format": "hh3-artifact-1",
  "contractName": "Offer",
  "sourceName": "evm/protocol/Offer.sol",
  "abi": [
    {
      "inputs": [],
      "stateMutability": "nonpayable",
      "type": "constructor"
    },
    {
      "inputs": [],
      "name": "FailedDeployment",
      "type": "error"
    },
    {
      "inputs": [
        {
          "internalType": "uint256",
          "name": "balance",
          "type": "uint256"
        },
        {
          "internalType": "uint256",
          "name": "needed",
          "type": "uint256"
        }
      ],
      "name": "InsufficientBalance",
      "type": "error"
    },
    {
      "inputs": [],
      "name": "InvalidInitialization",
      "type": "error"
    },
    {
      "inputs": [],
      "name": "InvalidLimits",
      "type": "error"
    },
    {
      "inputs": [
        {
          "internalType": "uint256",
          "name": "method",
          "type": "uint256"
        }
      ],
      "name": "InvalidMethod",
      "type": "error"
    },
    {
      "inputs": [],
      "name": "InvalidRate",
      "type": "error"
    },
    {
      "inputs": [],
      "name": "NotInitializing",
      "type": "error"
    },
    {
      "inputs": [],
      "name": "OfferDisabled",
      "type": "error"
    },
    {
      "inputs": [
        {
          "internalType": "address",
          "name": "account",
          "type": "address"
        }
      ],
      "name": "UnauthorizedAccount",
      "type": "error"
    },
    {
      "anonymous": false,
      "inputs": [
        {
          "indexed": false,
          "internalType": "uint64",
          "name": "version",
          "type": "uint64"
        }
      ],
      "name": "Initialized",
      "type": "event"
    },
    {
      "anonymous": false,
      "inputs": [],
      "name": "OfferUpdated",
      "type": "event"
    },
    {
      "inputs": [
        {
          "internalType": "contract IMarket",
          "name": "market",
          "type": "address"
        },
        {
          "components": [
            {
              "internalType": "uint256",
              "name": "fiatAmount",
              "type": "uint256"
            },
            {
              "internalType": "uint8",
              "name": "method",
              "type": "uint8"
            },
            {
              "internalType": "string",
              "name": "paymentInstructions",
              "type": "string"
            }
          ],
          "internalType": "struct IOffer.CreateDealParams",
          "name": "params",
          "type": "tuple"
        }
      ],
      "name": "createDeal",
      "outputs": [],
      "stateMutability": "nonpayable",
      "type": "function"
    },
    {
      "inputs": [],
      "name": "disabled",
      "outputs": [
        {
          "internalType": "bool",
          "name": "",
          "type": "bool"
        }
      ],
      "stateMutability": "view",
      "type": "function"
    },
    {
      "inputs": [],
      "name": "fiat",
      "outputs": [
        {
          "internalType": "bytes3",
          "name": "",
          "type": "bytes3"
        }
      ],
      "stateMutability": "view",
      "type": "function"
    },
    {
      "inputs": [
        {
          "internalType": "address",
          "name": "owner_",
          "type": "address"
        },
        {
          "components": [
            {
              "internalType": "bool",
              "name": "isSell",
              "type": "bool"
            },
            {
              "internalType": "uint16",
              "name": "rate",
              "type": "uint16"
            },
            {
              "components": [
                {
                  "internalType": "uint32",
                  "name": "min",
                  "type": "uint32"
                },
                {
                  "internalType": "uint32",
                  "name": "max",
                  "type": "uint32"
                }
              ],
              "internalType": "struct IOffer.Limits",
              "name": "limits",
              "type": "tuple"
            },
            {
              "internalType": "contract IERC20",
              "name": "token",
              "type": "address"
            },
            {
              "internalType": "bytes3",
              "name": "fiat",
              "type": "bytes3"
            },
            {
              "internalType": "uint256",
              "name": "methods",
              "type": "uint256"
            },
            {
              "internalType": "string",
              "name": "terms",
              "type": "string"
            }
          ],
          "internalType": "struct IOffer.OfferParams",
          "name": "params",
          "type": "tuple"
        }
      ],
      "name": "initialize",
      "outputs": [],
      "stateMutability": "nonpayable",
      "type": "function"
    },
    {
      "inputs": [],
      "name": "isSell",
      "outputs": [
        {
          "internalType": "bool",
          "name": "",
          "type": "bool"
        }
      ],
      "stateMutability": "view",
      "type": "function"
    },
    {
      "inputs": [],
      "name": "limits",
      "outputs": [
        {
          "internalType": "uint32",
          "name": "min",
          "type": "uint32"
        },
        {
          "internalType": "uint32",
          "name": "max",
          "type": "uint32"
        }
      ],
      "stateMutability": "view",
      "type": "function"
    },
    {
      "inputs": [],
      "name": "methods",
      "outputs": [
        {
          "internalType": "uint256",
          "name": "",
          "type": "uint256"
        }
      ],
      "stateMutability": "view",
      "type": "function"
    },
    {
      "inputs": [],
      "name": "owner",
      "outputs": [
        {
          "internalType": "address",
          "name": "",
          "type": "address"
        }
      ],
      "stateMutability": "view",
      "type": "function"
    },
    {
      "inputs": [],
      "name": "rate",
      "outputs": [
        {
          "internalType": "uint16",
          "name": "",
          "type": "uint16"
        }
      ],
      "stateMutability": "view",
      "type": "function"
    },
    {
      "inputs": [
        {
          "internalType": "bool",
          "name": "disabled_",
          "type": "bool"
        }
      ],
      "name": "setDisabled",
      "outputs": [],
      "stateMutability": "nonpayable",
      "type": "function"
    },
    {
      "inputs": [
        {
          "components": [
            {
              "internalType": "uint32",
              "name": "min",
              "type": "uint32"
            },
            {
              "internalType": "uint32",
              "name": "max",
              "type": "uint32"
            }
          ],
          "internalType": "struct IOffer.Limits",
          "name": "limits_",
          "type": "tuple"
        }
      ],
      "name": "setLimits",
      "outputs": [],
      "stateMutability": "nonpayable",
      "type": "function"
    },
    {
      "inputs": [
        {
          "internalType": "uint16",
          "name": "rate_",
          "type": "uint16"
        }
      ],
      "name": "setRate",
      "outputs": [],
      "stateMutability": "nonpayable",
      "type": "function"
    },
    {
      "inputs": [
        {
          "internalType": "string",
          "name": "terms_",
          "type": "string"
        }
      ],
      "name": "setTerms",
      "outputs": [],
      "stateMutability": "nonpayable",
      "type": "function"
    },
    {
      "inputs": [],
      "name": "terms",
      "outputs": [
        {
          "internalType": "string",
          "name": "",
          "type": "string"
        }
      ],
      "stateMutability": "view",
      "type": "function"
    },
    {
      "inputs": [],
      "name": "token",
      "outputs": [
        {
          "internalType": "contract IERC20",
          "name": "",
          "type": "address"
        }
      ],
      "stateMutability": "view",
      "type": "function"
    }
  ],
  "bytecode": "0x6080806040523460aa575f5160206114925f395f51905f525460ff8160401c16609b576002600160401b03196001600160401b038216016049575b6040516113e390816100af8239f35b6001600160401b0319166001600160401b039081175f5160206114925f395f51905f525581527fc7f505b2f371ae2175ee4913f4499e1f2633a7b5936321eed1cdaeb6115181d290602090a15f80603a565b63f92ee8a960e01b5f5260045ffd5b5f80fdfe6080806040526004361015610012575f80fd5b5f905f3560e01c9081630c570c86146112775750806329907a911461125a5780632c4e722e146112375780634304db7b14610db05780636c5a7d1e14610d0e57806378f86afc14610b4c578063860aefcf14610b1f5780638da5cb5b14610afa578063a50edca014610ab9578063bed315f814610a16578063c7502c481461094a578063c895a485146101fb578063d502562514610111578063ee070805146100ec5763fc0c546a146100c3575f80fd5b346100e957806003193601126100e95760206001600160a01b0360025416604051908152f35b80fd5b50346100e957806003193601126100e95760ff6020915460d01c166040519015158152f35b50346100e957806003193601126100e95760405190809160045461013481611298565b8083526020830191600181169081156101e0575060011461018a575b50610160826040949503836112d0565b8251938492602084525180928160208601528585015e828201840152601f01601f19168101030190f35b600484529350827f8a35acfbc15ff81a39ae7d344fd709f28e8600b4aa8c65c6b64bfe7fe36bd19b5b8582106101ca575082016020019350610160610150565b60018160209254838588010152019101906101b3565b60ff1916835250151560051b82016020019350610160610150565b50346106f25760403660031901126106f257600435906001600160a01b0382168092036106f2576024359167ffffffffffffffff83116106f2578260040190606060031985360301126106f2575f54916001600160a01b03831633146109375760ff8360d01c1661090f57602485019461027486611380565b9560ff604051977f887bf3ef000000000000000000000000000000000000000000000000000000008952166004880152602087602481875afa9687156106e7575f976108c1575b50600154600160ff6102cc84611380565b161b16156108a05760ff6102e1600192611380565b161b604051906313eeb04960e31b8252602082600481885afa9182156106e7575f9261086c575b50166108035781359361ffff6001600160a01b036002541691604051927f832501d10000000000000000000000000000000000000000000000000000000084528760048501527fffffff00000000000000000000000000000000000000000000000000000000008260301b166024850152604484015260a81c166064820152602081608481875afa9081156106e7575f916107d1575b50604051632e68f21360e21b8152602081600481885afa9081156106e7576001600160a01b03916020915f916107b4575b506024604051809481937faafd5e400000000000000000000000000000000000000000000000000000000083527f4465616c496d706c656d656e746174696f6e00000000000000000000000000006004840152165afa80156106e7575f90610763575b6e5af43d82803e903d91602b57fd5bf39150763d602d80600a3d3981f3363d3d373d3d3d363d7300000062ffffff8260881c16175f5260781b176020526001600160a01b03603760095ff01694851561073b5760405191632e68f21360e21b8352602083600481895afa9283156106e7575f9361070a575b506040519260a084019084821067ffffffffffffffff8311176106f6576001600160a01b039160405216835260208301308152604084013381526060850192835260808501938452883b156106f2576001600160a01b03809281604051977fa4e097610000000000000000000000000000000000000000000000000000000089525116600488015251166024860152511660448401525160648301525160848201525f8160a48183895af180156106e7576106ca575b5090604461056f920190611329565b9094823b156106c6576fffffffffffffffffffffffffffffffff1990604051947f22face8a00000000000000000000000000000000000000000000000000000000865260048601521660248401526080604484015283946004546105d281611298565b908160848701526001811690815f146106a4575060011461064d575b5091838560208282998682978599600319858503016064860152818452858401378181018401859052601f01601f1916010301925af18015610642576106315750f35b8161063b916112d0565b6100e95780f35b6040513d84823e3d90fd5b6004865290955084907f8a35acfbc15ff81a39ae7d344fd709f28e8600b4aa8c65c6b64bfe7fe36bd19b5b81831061068d575050830160a40194836105ee565b805460a48488010152602090920191600101610678565b60ff191660a48088019190915291151560051b860190910196508490506105ee565b8480fd5b61056f929195505f6106db916112d0565b60445f95919250610560565b6040513d5f823e3d90fd5b5f80fd5b634e487b7160e01b5f52604160045260245ffd5b61072d91935060203d602011610734575b61072581836112d0565b81019061138e565b915f6104aa565b503d61071b565b7fb06ebf3d000000000000000000000000000000000000000000000000000000005f5260045ffd5b506020813d6020116107ac575b8161077d602093836112d0565b810103126106f257516001600160a01b03811681036106f2576e5af43d82803e903d91602b57fd5bf390610432565b3d9150610770565b6107cb9150823d84116107345761072581836112d0565b5f6103cf565b90506020813d6020116107fb575b816107ec602093836112d0565b810103126106f257515f61039e565b3d91506107df565b6040516313eeb04960e31b8152602081600481875afa9081156106e7575f9161083a575b50637339074360e11b5f5260045260245ffd5b90506020813d602011610864575b81610855602093836112d0565b810103126106f2575181610827565b3d9150610848565b9091506020813d602011610898575b81610888602093836112d0565b810103126106f25751905f610308565b3d915061087b565b60ff6108ad600192611380565b161b637339074360e11b5f5260045260245ffd5b9096506020813d602011610907575b816108dd602093836112d0565b810103126106f257516fffffffffffffffffffffffffffffffff19811681036106f257955f6102bb565b3d91506108d0565b7f3815432d000000000000000000000000000000000000000000000000000000005f5260045ffd5b6332b2baa360e01b5f523360045260245ffd5b346106f25760403660031901126106f257610971336001600160a01b035f5416331461135c565b6109796112f2565b63ffffffff80610987611305565b16911610156109ee5763ffffffff61099d6112f2565b166003549067ffffffff000000006109b3611305565b60201b169167ffffffffffffffff191617176003557f4c720dcd587fe71ce2ffe44bdc46bd4c550e30dcd9967b1af0a41c95f45aeae45f80a1005b7fe773e0a9000000000000000000000000000000000000000000000000000000005f5260045ffd5b346106f25760203660031901126106f25760043561ffff8116908181036106f2575f5491610a4f336001600160a01b038516331461135c565b15610a915761ffff60a81b61ffff60a81b199160a81b169116175f557f4c720dcd587fe71ce2ffe44bdc46bd4c550e30dcd9967b1af0a41c95f45aeae45f80a1005b7f6a43f8d1000000000000000000000000000000000000000000000000000000005f5260045ffd5b346106f2575f3660031901126106f25760207fffffff00000000000000000000000000000000000000000000000000000000005f5460301b16604051908152f35b346106f2575f3660031901126106f25760206001600160a01b035f5416604051908152f35b346106f2575f3660031901126106f257604060035463ffffffff825191818116835260201c166020820152f35b346106f25760203660031901126106f25760043567ffffffffffffffff81116106f257366023820112156106f257806004013567ffffffffffffffff81116106f25736602482840101116106f257610bb0336001600160a01b035f5416331461135c565b610bbb600454611298565b601f8111610ca4575b505f601f8211600114610c235781925f92610c15575b50508160011b915f199060031b1c1916176004555b7f4c720dcd587fe71ce2ffe44bdc46bd4c550e30dcd9967b1af0a41c95f45aeae45f80a1005b602492500101358280610bda565b601f198216927f8a35acfbc15ff81a39ae7d344fd709f28e8600b4aa8c65c6b64bfe7fe36bd19b915f5b858110610c8957508360019510610c6d575b505050811b01600455610bef565b01602401355f19600384901b60f8161c19169055828080610c5f565b90926020600181926024878701013581550194019101610c4d565b81811115610bc457601f820160051c9060208310610d06575b601f82910160051c03905f5b828110610cd7575050610bc4565b5f8282017f8a35acfbc15ff81a39ae7d344fd709f28e8600b4aa8c65c6b64bfe7fe36bd19b0155600101610cc9565b5f9150610cbd565b346106f25760203660031901126106f2576004358015158091036106f2577fffffffffff00ffffffffffffffffffffffffffffffffffffffffffffffffffff7aff00000000000000000000000000000000000000000000000000005f5492610d81336001600160a01b038616331461135c565b60d01b169116175f557f4c720dcd587fe71ce2ffe44bdc46bd4c550e30dcd9967b1af0a41c95f45aeae45f80a1005b346106f25760403660031901126106f2576004356001600160a01b0381168091036106f2576024359067ffffffffffffffff82116106f2578160040161010060031984360301126106f2577ff0c57e16840df040f15088dc2f81fe391c3923bec73e23a9662efc9c229c6a00549260ff8460401c16159367ffffffffffffffff81168015908161122f575b6001149081611225575b15908161121c575b506111f45767ffffffffffffffff1981166001177ff0c57e16840df040f15088dc2f81fe391c3923bec73e23a9662efc9c229c6a0055846111b5575b505f54908235918215158093036106f25760848201356001600160a01b0381168091036106f2577fffffffffffffffffffffffff0000000000000000000000000000000000000000600254161760025560a48201357fffffff0000000000000000000000000000000000000000000000000000000000811681036106f25760c483013560015560248301359561ffff871687036106f25779ffffff000000000000000000000000000000000000000000000060e49574ff000000000000000000000000000000000000000061ffff60a81b1983947fffffffffffff000000ffff00000000000000000000000000000000000000000061ffff60a81b610fe79d60a81b16981617169160a01b16179260301c161617175f5563ffffffff610fb160448301611318565b166003549067ffffffff00000000610fcb60648501611318565b60201b169167ffffffffffffffff191617176003550190611329565b67ffffffffffffffff81939293116106f657611004600454611298565b601f8111611147575b505f601f82116001146110c7578192935f926110bc575b50508160011b915f199060031b1c1916176004555b61103f57005b68ff0000000000000000197ff0c57e16840df040f15088dc2f81fe391c3923bec73e23a9662efc9c229c6a0054167ff0c57e16840df040f15088dc2f81fe391c3923bec73e23a9662efc9c229c6a00557fc7f505b2f371ae2175ee4913f4499e1f2633a7b5936321eed1cdaeb6115181d2602060405160018152a1005b013590508380611024565b601f1982169360045f527f8a35acfbc15ff81a39ae7d344fd709f28e8600b4aa8c65c6b64bfe7fe36bd19b915f5b86811061112f5750836001959610611116575b505050811b01600455611039565b01355f19600384901b60f8161c19169055838080611108565b909260206001819286860135815501940191016110f5565b8181111561100d5760045f52601f820160051c90602083106111ad575b601f82910160051c03905f5b82811061117e57505061100d565b5f8282017f8a35acfbc15ff81a39ae7d344fd709f28e8600b4aa8c65c6b64bfe7fe36bd19b0155600101611170565b5f9150611164565b68ffffffffffffffffff191668010000000000000001177ff0c57e16840df040f15088dc2f81fe391c3923bec73e23a9662efc9c229c6a005584610e89565b7ff92ee8a9000000000000000000000000000000000000000000000000000000005f5260045ffd5b90501586610e4d565b303b159150610e45565b869150610e3b565b346106f2575f3660031901126106f257602061ffff5f5460a81c16604051908152f35b346106f2575f3660031901126106f2576020600154604051908152f35b346106f2575f3660031901126106f25760209060ff5f5460a01c1615158152f35b90600182811c921680156112c6575b60208310146112b257565b634e487b7160e01b5f52602260045260245ffd5b91607f16916112a7565b90601f8019910116810190811067ffffffffffffffff8211176106f657604052565b60043563ffffffff811681036106f25790565b60243563ffffffff811681036106f25790565b3563ffffffff811681036106f25790565b903590601e19813603018212156106f2570180359067ffffffffffffffff82116106f2576020019181360383136106f257565b156113645750565b6001600160a01b03906332b2baa360e01b5f521660045260245ffd5b3560ff811681036106f25790565b908160209103126106f257516001600160a01b03811681036106f2579056fea2646970667358221220feb4a26b0897cd1b99c4b409012c7fad03e4d82d4b3a5f2b02d023a2d86c910664736f6c63430008220033f0c57e16840df040f15088dc2f81fe391c3923bec73e23a9662efc9c229c6a00",
  "linkReferences": {},
  "deployedLinkReferences": {},
  "immutableReferences": {},
  "inputSourceName": "project/evm/protocol/Offer.sol",
  "buildInfoId": "solc-0_8_34-09d6920bace1bd0945cfeadf4f4a4675b041ceba"
}