{
  "_format": "hh3-artifact-1",
  "contractName": "FeeCollector",
  "sourceName": "evm/protocol/FeeCollector.sol",
  "abi": [
    {
      "inputs": [
        {
          "internalType": "address",
          "name": "_vault",
          "type": "address"
        },
        {
          "internalType": "address",
          "name": "_pexfi",
          "type": "address"
        },
        {
          "internalType": "address",
          "name": "_universalRouter",
          "type": "address"
        },
        {
          "internalType": "address",
          "name": "_weth",
          "type": "address"
        },
        {
          "components": [
            {
              "internalType": "Currency",
              "name": "currency0",
              "type": "address"
            },
            {
              "internalType": "Currency",
              "name": "currency1",
              "type": "address"
            },
            {
              "internalType": "uint24",
              "name": "fee",
              "type": "uint24"
            },
            {
              "internalType": "int24",
              "name": "tickSpacing",
              "type": "int24"
            },
            {
              "internalType": "contract IHooks",
              "name": "hooks",
              "type": "address"
            }
          ],
          "internalType": "struct PoolKey",
          "name": "_pexfiPoolKey",
          "type": "tuple"
        }
      ],
      "stateMutability": "nonpayable",
      "type": "constructor"
    },
    {
      "inputs": [],
      "name": "InvalidArgument",
      "type": "error"
    },
    {
      "inputs": [
        {
          "internalType": "address",
          "name": "token",
          "type": "address"
        }
      ],
      "name": "SafeERC20FailedOperation",
      "type": "error"
    },
    {
      "anonymous": false,
      "inputs": [
        {
          "indexed": true,
          "internalType": "address",
          "name": "token",
          "type": "address"
        },
        {
          "indexed": false,
          "internalType": "uint256",
          "name": "amountIn",
          "type": "uint256"
        },
        {
          "indexed": false,
          "internalType": "uint256",
          "name": "amountPexfiOut",
          "type": "uint256"
        }
      ],
      "name": "Buyback",
      "type": "event"
    },
    {
      "inputs": [
        {
          "internalType": "address",
          "name": "token",
          "type": "address"
        },
        {
          "internalType": "uint24",
          "name": "fee",
          "type": "uint24"
        }
      ],
      "name": "buyback",
      "outputs": [],
      "stateMutability": "payable",
      "type": "function"
    },
    {
      "inputs": [],
      "name": "pexfi",
      "outputs": [
        {
          "internalType": "Currency",
          "name": "",
          "type": "address"
        }
      ],
      "stateMutability": "view",
      "type": "function"
    },
    {
      "inputs": [],
      "name": "pexfiPoolKey",
      "outputs": [
        {
          "components": [
            {
              "internalType": "Currency",
              "name": "currency0",
              "type": "address"
            },
            {
              "internalType": "Currency",
              "name": "currency1",
              "type": "address"
            },
            {
              "internalType": "uint24",
              "name": "fee",
              "type": "uint24"
            },
            {
              "internalType": "int24",
              "name": "tickSpacing",
              "type": "int24"
            },
            {
              "internalType": "contract IHooks",
              "name": "hooks",
              "type": "address"
            }
          ],
          "internalType": "struct PoolKey",
          "name": "",
          "type": "tuple"
        }
      ],
      "stateMutability": "view",
      "type": "function"
    },
    {
      "inputs": [],
      "name": "universalRouter",
      "outputs": [
        {
          "internalType": "contract IUniversalRouter",
          "name": "",
          "type": "address"
        }
      ],
      "stateMutability": "view",
      "type": "function"
    },
    {
      "inputs": [],
      "name": "vault",
      "outputs": [
        {
          "internalType": "address",
          "name": "",
          "type": "address"
        }
      ],
      "stateMutability": "view",
      "type": "function"
    },
    {
      "inputs": [],
      "name": "weth",
      "outputs": [
        {
          "internalType": "address",
          "name": "",
          "type": "address"
        }
      ],
      "stateMutability": "view",
      "type": "function"
    },
    {
      "stateMutability": "payable",
      "type": "receive"
    }
  ],
  "bytecode": "0x6101a0604052346102a1576040516111ae38819003601f8101601f191683016001600160401b038111848210176102a5578392829160405283398101039061012082126102a15761004f816102b9565b61005b602083016102b9565b92610068604084016102b9565b9060a0610077606086016102b9565b91607f1901126102a15760405160a081016001600160401b038111828210176102a5576040526100a9608086016102b9565b81526100b760a086016102b9565b916020820192835260c08601519362ffffff851685036102a1576040830194855260e0870151968760020b88036102a157606084019788526101000151976001600160a01b03891689036102a157608084019889526001600160a01b03871615158061028f575b8061027d575b8061026b575b156102375783516001600160a01b03918216911681148015610258575b156102375783516001600160a01b0316158015610246575b156102375760809690965260a0959095526001600160a01b0394851660c05260e05251831661010052518216610120525162ffffff1661014052905160020b6101605290511661018052604051610ee090816102ce823960805181818160890152610402015260a051818181610107015281816103840152610cfc015260c0518181816101f1015281816108b10152610dd4015260e0518181816101b00152610469015261010051816102a3015261012051816102cf015261014051816102fa01526101605181610321015261018051816103520152f35b63a9cb9e0d60e01b5f5260045ffd5b5084516001600160a01b03161561015f565b5084516001600160a01b03168114610147565b506001600160a01b038316151561012a565b506001600160a01b0382161515610124565b506001600160a01b038116151561011e565b5f80fd5b634e487b7160e01b5f52604160045260245ffd5b51906001600160a01b03821682036102a15756fe608080604052600436101561001c575b50361561001a575f80fd5b005b5f3560e01c90816335a9e4df146101d4575080633fc8cef3146101915780637d27fe451461012b578063a4f5d03d146100e8578063dfe4d45b146100b15763fbfa77cf1461006a575f61000f565b346100ad575f3660031901126100ad5760206040516001600160a01b037f0000000000000000000000000000000000000000000000000000000000000000168152f35b5f80fd5b60403660031901126100ad576004356001600160a01b03811681036100ad5760243562ffffff811681036100ad5761001a9161037a565b346100ad575f3660031901126100ad5760206040516001600160a01b037f0000000000000000000000000000000000000000000000000000000000000000168152f35b346100ad575f3660031901126100ad5760a0610145610267565b61018f60405180926001600160a01b036080809282815116855282602082015116602086015262ffffff6040820151166040860152606081015160020b6060860152015116910152565bf35b346100ad575f3660031901126100ad5760206040516001600160a01b037f0000000000000000000000000000000000000000000000000000000000000000168152f35b346100ad575f3660031901126100ad576020906001600160a01b037f0000000000000000000000000000000000000000000000000000000000000000168152f35b60a0810190811067ffffffffffffffff82111761023157604052565b634e487b7160e01b5f52604160045260245ffd5b90601f8019910116810190811067ffffffffffffffff82111761023157604052565b5f608060405161027681610215565b828152826020820152826040820152826060820152015260405161029981610215565b6001600160a01b037f00000000000000000000000000000000000000000000000000000000000000001681526001600160a01b037f000000000000000000000000000000000000000000000000000000000000000016602082015262ffffff7f00000000000000000000000000000000000000000000000000000000000000001660408201527f000000000000000000000000000000000000000000000000000000000000000060020b60608201526001600160a01b037f000000000000000000000000000000000000000000000000000000000000000016608082015290565b6001600160a01b037f000000000000000000000000000000000000000000000000000000000000000016916001600160a01b0382169083821461058b575f9282610467575050506103c9610c21565b6040516370a0823160e01b8152306004820152602081602481865afa91821561045b5791610429575b50806103fc575050565b610427917f0000000000000000000000000000000000000000000000000000000000000000906105c2565b565b90506020813d602011610453575b8161044460209383610245565b810103126100ad57515f6103f2565b3d9150610437565b604051903d90823e3d90fd5b7f00000000000000000000000000000000000000000000000000000000000000006001600160a01b031692830361057c5750506040516370a0823160e01b8152306004820152602081602481855afa90811561053f575f9161054a575b50806104d2575b50506103c9565b813b156100ad575f916024839260405194859384927f2e1a7d4d00000000000000000000000000000000000000000000000000000000845260048401525af1801561053f5761052c575b50610525610c21565b5f806104cb565b61053891505f90610245565b5f5f61051c565b6040513d5f823e3d90fd5b90506020813d602011610574575b8161056560209383610245565b810103126100ad57515f6104c4565b3d9150610558565b6105869250610858565b6103c9565b509150506040516370a0823160e01b8152306004820152602081602481855afa90811561053f575f916104295750806103fc575050565b6040517fa9059cbb0000000000000000000000000000000000000000000000000000000060208201526001600160a01b03909216602483015260448201929092526104279161061e82606481015b03601f198101845283610245565b610e3d565b604051608091906106348382610245565b6003815291601f1901825f5b82811061064c57505050565b806060602080938501015201610640565b6040805190919061066e8382610245565b6001815291601f1901825f5b82811061068657505050565b80606060208093850101520161067a565b805180835260209291819084018484015e5f828201840152601f01601f1916010190565b610140608061076993602084526107136020850182516001600160a01b036080809282815116855282602082015116602086015262ffffff6040820151166040860152606081015160020b6060860152015116910152565b6020810151151560c08501526fffffffffffffffffffffffffffffffff60408201511660e08501526fffffffffffffffffffffffffffffffff606082015116610100850152015191610120808201520190610697565b90565b8051156107795760200190565b634e487b7160e01b5f52603260045260245ffd5b8051600110156107795760400190565b8051600210156107795760600190565b9080602083519182815201916020808360051b8301019401925f915b8383106107d857505050505090565b90919293946020806107f6600193601f198682030187528951610697565b970193019301919392906107c9565b909161081c61076993604084526040840190610697565b9160208184039101526107ad565b93929161085390610845604093606088526060880190610697565b9086820360208801526107ad565b930152565b6001600160a01b031690604051916370a0823160e01b8352306004840152602083602481845afa92831561053f575f93610bed575b508215610be85760405163095ea7b360e01b60208083019182526001600160a01b037f00000000000000000000000000000000000000000000000000000000000000001660248401819052604480850188905284529592915f906108f2606485610245565b83519082875af15f513d82610bcc575b505015610b88575b5081925f9083610b7d575b62ffffff16603c60648203610b2757506001600160a01b036002925b816040519761093f89610215565b168752166020860152604085015260020b60608401525f60808401526109c26109d0610969610623565b946040519061097782610215565b81525f60208201526fffffffffffffffffffffffffffffffff841660408201525f60608201526040516109ab602082610245565b5f81526080820152604051928391602083016106bb565b03601f198101835282610245565b6109d98461076c565b526109e38361076c565b5060405191602083015260408201526001606082015260608152610a08608082610245565b610a118261078d565b52610a1b8161078d565b506040515f60208201525f604082015260408152610a3a606082610245565b610a438261079d565b52610a4d8161079d565b50604051600360f91b6020820152600b60f81b6021820152600f60f81b602282015290610a7d8260238101610610565b60405190600160fc1b602083015260018252610a9a602183610245565b610ab8610aa561065d565b936109c260405193849260208401610805565b610ac18361076c565b52610acb8261076c565b50823b156100ad57610af8925f9283604051809681958294630d64d59360e21b845242916004850161082a565b03925af1801561053f57610b17575b5047610b0f57565b610427610c21565b5f610b2191610245565b5f610b07565b6101f48203610b4157506001600160a01b03600a92610931565b610bb88203610b5b57506001600160a01b03603c92610931565b916127108214610b74575b6001600160a01b0390610931565b60c89250610b66565b935050815f93610915565b610bc690610bc060405163095ea7b360e01b60208201528760248201525f604482015260448152610bba606482610245565b85610e3d565b83610e3d565b5f61090a565b909150610be05750823b15155b5f80610902565b600114610bd9565b505050565b9092506020813d602011610c19575b81610c0960209383610245565b810103126100ad5751915f61088d565b3d9150610bfc565b478015610e3a57610c30610267565b906001600160a01b038251161560405192610c4a84610215565b835260208301526fffffffffffffffffffffffffffffffff811660408301525f6060830152604051610c7d602082610245565b5f815260808301526109c2610ca3610c93610623565b93604051928391602083016106bb565b610cac8361076c565b52610cb68261076c565b506040515f60208201528160408201525f606082015260608152610cdb608082610245565b610ce48361078d565b52610cee8261078d565b506040516001600160a01b037f00000000000000000000000000000000000000000000000000000000000000001660208201525f604082015260408152610d36606082610245565b610d3f8361079d565b52610d498261079d565b50604051600360f91b6020820152600b60f81b6021820152600f60f81b60228201526003815291610d7b602384610245565b60405190600160fc1b602083015260018252610d98602183610245565b610db6610da361065d565b946109c260405193849260208401610805565b610dbf8461076c565b52610dc98361076c565b506001600160a01b037f000000000000000000000000000000000000000000000000000000000000000016803b156100ad57610e1f935f93604051809681958294630d64d59360e21b845242916004850161082a565b03925af1801561053f57610e305750565b5f61042791610245565b50565b905f602091828151910182855af11561053f575f513d610ea157506001600160a01b0381163b155b610e6c5750565b6001600160a01b03907f5274afe7000000000000000000000000000000000000000000000000000000005f521660045260245ffd5b60011415610e6556fea26469706673582212207a3eeb9a95165fd5ca908bd6dad5394aaa52eb830cde70264ebb7b5c43af3cc564736f6c63430008220033",
  "linkReferences": {},
  "deployedLinkReferences": {},
  "immutableReferences": {
    "2576": [
      {
        "length": 32,
        "start": 137
      },
      {
        "length": 32,
        "start": 1026
      }
    ],
    "2579": [
      {
        "length": 32,
        "start": 263
      },
      {
        "length": 32,
        "start": 900
      },
      {
        "length": 32,
        "start": 3324
      }
    ],
    "2582": [
      {
        "length": 32,
        "start": 497
      },
      {
        "length": 32,
        "start": 2225
      },
      {
        "length": 32,
        "start": 3540
      }
    ],
    "2584": [
      {
        "length": 32,
        "start": 432
      },
      {
        "length": 32,
        "start": 1129
      }
    ],
    "2587": [
      {
        "length": 32,
        "start": 675
      }
    ],
    "2590": [
      {
        "length": 32,
        "start": 719
      }
    ],
    "2592": [
      {
        "length": 32,
        "start": 762
      }
    ],
    "2594": [
      {
        "length": 32,
        "start": 801
      }
    ],
    "2597": [
      {
        "length": 32,
        "start": 850
      }
    ]
  },
  "inputSourceName": "project/evm/protocol/FeeCollector.sol",
  "buildInfoId": "solc-0_8_34-3d7ae62329417a207a3d9cceedde775e851702a3"
}