{
  "_format": "hh3-artifact-1",
  "contractName": "PexfiVesting",
  "sourceName": "evm/protocol/PexfiVesting.sol",
  "abi": [
    {
      "inputs": [
        {
          "internalType": "address",
          "name": "beneficiary",
          "type": "address"
        },
        {
          "internalType": "uint64",
          "name": "startTimestamp",
          "type": "uint64"
        },
        {
          "internalType": "uint64",
          "name": "durationSeconds",
          "type": "uint64"
        },
        {
          "internalType": "uint64",
          "name": "cliffSeconds",
          "type": "uint64"
        },
        {
          "internalType": "address",
          "name": "finder_",
          "type": "address"
        }
      ],
      "stateMutability": "nonpayable",
      "type": "constructor"
    },
    {
      "inputs": [],
      "name": "FailedCall",
      "type": "error"
    },
    {
      "inputs": [
        {
          "internalType": "uint256",
          "name": "balance",
          "type": "uint256"
        },
        {
          "internalType": "uint256",
          "name": "needed",
          "type": "uint256"
        }
      ],
      "name": "InsufficientBalance",
      "type": "error"
    },
    {
      "inputs": [],
      "name": "InvalidArgument",
      "type": "error"
    },
    {
      "inputs": [
        {
          "internalType": "uint64",
          "name": "cliffSeconds",
          "type": "uint64"
        },
        {
          "internalType": "uint64",
          "name": "durationSeconds",
          "type": "uint64"
        }
      ],
      "name": "InvalidCliffDuration",
      "type": "error"
    },
    {
      "inputs": [],
      "name": "InvlalidClaim",
      "type": "error"
    },
    {
      "inputs": [
        {
          "internalType": "address",
          "name": "owner",
          "type": "address"
        }
      ],
      "name": "OwnableInvalidOwner",
      "type": "error"
    },
    {
      "inputs": [
        {
          "internalType": "address",
          "name": "account",
          "type": "address"
        }
      ],
      "name": "OwnableUnauthorizedAccount",
      "type": "error"
    },
    {
      "inputs": [
        {
          "internalType": "uint8",
          "name": "bits",
          "type": "uint8"
        },
        {
          "internalType": "uint256",
          "name": "value",
          "type": "uint256"
        }
      ],
      "name": "SafeCastOverflowedUintDowncast",
      "type": "error"
    },
    {
      "inputs": [
        {
          "internalType": "address",
          "name": "token",
          "type": "address"
        }
      ],
      "name": "SafeERC20FailedOperation",
      "type": "error"
    },
    {
      "anonymous": false,
      "inputs": [
        {
          "indexed": true,
          "internalType": "address",
          "name": "token",
          "type": "address"
        },
        {
          "indexed": false,
          "internalType": "uint256",
          "name": "amount",
          "type": "uint256"
        }
      ],
      "name": "ERC20Released",
      "type": "event"
    },
    {
      "anonymous": false,
      "inputs": [
        {
          "indexed": false,
          "internalType": "uint256",
          "name": "amount",
          "type": "uint256"
        }
      ],
      "name": "EtherReleased",
      "type": "event"
    },
    {
      "anonymous": false,
      "inputs": [
        {
          "indexed": true,
          "internalType": "address",
          "name": "previousOwner",
          "type": "address"
        },
        {
          "indexed": true,
          "internalType": "address",
          "name": "newOwner",
          "type": "address"
        }
      ],
      "name": "OwnershipTransferred",
      "type": "event"
    },
    {
      "inputs": [
        {
          "internalType": "address",
          "name": "deal",
          "type": "address"
        },
        {
          "internalType": "bytes",
          "name": "claim",
          "type": "bytes"
        }
      ],
      "name": "bond",
      "outputs": [],
      "stateMutability": "nonpayable",
      "type": "function"
    },
    {
      "inputs": [],
      "name": "cliff",
      "outputs": [
        {
          "internalType": "uint256",
          "name": "",
          "type": "uint256"
        }
      ],
      "stateMutability": "view",
      "type": "function"
    },
    {
      "inputs": [],
      "name": "duration",
      "outputs": [
        {
          "internalType": "uint256",
          "name": "",
          "type": "uint256"
        }
      ],
      "stateMutability": "view",
      "type": "function"
    },
    {
      "inputs": [],
      "name": "end",
      "outputs": [
        {
          "internalType": "uint256",
          "name": "",
          "type": "uint256"
        }
      ],
      "stateMutability": "view",
      "type": "function"
    },
    {
      "inputs": [],
      "name": "finder",
      "outputs": [
        {
          "internalType": "contract FinderInterface",
          "name": "",
          "type": "address"
        }
      ],
      "stateMutability": "view",
      "type": "function"
    },
    {
      "inputs": [],
      "name": "owner",
      "outputs": [
        {
          "internalType": "address",
          "name": "",
          "type": "address"
        }
      ],
      "stateMutability": "view",
      "type": "function"
    },
    {
      "inputs": [
        {
          "internalType": "address",
          "name": "token",
          "type": "address"
        }
      ],
      "name": "releasable",
      "outputs": [
        {
          "internalType": "uint256",
          "name": "",
          "type": "uint256"
        }
      ],
      "stateMutability": "view",
      "type": "function"
    },
    {
      "inputs": [],
      "name": "releasable",
      "outputs": [
        {
          "internalType": "uint256",
          "name": "",
          "type": "uint256"
        }
      ],
      "stateMutability": "view",
      "type": "function"
    },
    {
      "inputs": [
        {
          "internalType": "address",
          "name": "token",
          "type": "address"
        }
      ],
      "name": "release",
      "outputs": [],
      "stateMutability": "nonpayable",
      "type": "function"
    },
    {
      "inputs": [],
      "name": "release",
      "outputs": [],
      "stateMutability": "nonpayable",
      "type": "function"
    },
    {
      "inputs": [],
      "name": "released",
      "outputs": [
        {
          "internalType": "uint256",
          "name": "",
          "type": "uint256"
        }
      ],
      "stateMutability": "view",
      "type": "function"
    },
    {
      "inputs": [
        {
          "internalType": "address",
          "name": "token",
          "type": "address"
        }
      ],
      "name": "released",
      "outputs": [
        {
          "internalType": "uint256",
          "name": "",
          "type": "uint256"
        }
      ],
      "stateMutability": "view",
      "type": "function"
    },
    {
      "inputs": [],
      "name": "renounceOwnership",
      "outputs": [],
      "stateMutability": "nonpayable",
      "type": "function"
    },
    {
      "inputs": [],
      "name": "start",
      "outputs": [
        {
          "internalType": "uint256",
          "name": "",
          "type": "uint256"
        }
      ],
      "stateMutability": "view",
      "type": "function"
    },
    {
      "inputs": [],
      "name": "token",
      "outputs": [
        {
          "internalType": "contract IERC20",
          "name": "",
          "type": "address"
        }
      ],
      "stateMutability": "view",
      "type": "function"
    },
    {
      "inputs": [
        {
          "internalType": "address",
          "name": "newOwner",
          "type": "address"
        }
      ],
      "name": "transferOwnership",
      "outputs": [],
      "stateMutability": "nonpayable",
      "type": "function"
    },
    {
      "inputs": [
        {
          "internalType": "uint64",
          "name": "timestamp",
          "type": "uint64"
        }
      ],
      "name": "vestedAmount",
      "outputs": [
        {
          "internalType": "uint256",
          "name": "",
          "type": "uint256"
        }
      ],
      "stateMutability": "view",
      "type": "function"
    },
    {
      "inputs": [
        {
          "internalType": "address",
          "name": "token",
          "type": "address"
        },
        {
          "internalType": "uint64",
          "name": "timestamp",
          "type": "uint64"
        }
      ],
      "name": "vestedAmount",
      "outputs": [
        {
          "internalType": "uint256",
          "name": "",
          "type": "uint256"
        }
      ],
      "stateMutability": "view",
      "type": "function"
    },
    {
      "stateMutability": "payable",
      "type": "receive"
    }
  ],
  "bytecode": "0x61012080604052346101f35760a0816112528038038091610020828561025d565b8339810103126101f35761003381610294565b90610040602082016102a8565b61004c604083016102a8565b90610065608061005e606086016102a8565b9401610294565b936001600160a01b0316801561024a575f80546001600160a01b03198116831782556001600160a01b0316907f8be0079c531659141344cd1fd0a4f28419497f9722a3daafe3b4186f6b6457e09080a360805260a08190526001600160401b03918216911680821161021e57506080516001600160401b03906100e99082166102bc565b16016001600160401b03811161020a5760c0526001600160a01b031660e08190526040516302abf57960e61b81526914195e199a55985d5b1d60b21b600482015290602090829060249082905afa9081156101ff575f916101c1575b506001600160a01b031661010052604051610f6490816102ee823960805181818161025501528181610d2f0152610e88015260a051818181610b3501528181610d040152610eef015260c051818181610af10152610d60015260e051818181610298015261072401526101005181818161010301526107690152f35b90506020813d6020116101f7575b816101dc6020938361025d565b810103126101f3576101ed90610294565b5f610145565b5f80fd5b3d91506101cf565b6040513d5f823e3d90fd5b634e487b7160e01b5f52601160045260245ffd5b610227906102bc565b6303be3ef560e41b5f9081526004929092526001600160401b0316602452604490fd5b631e4fbdf760e01b5f525f60045260245ffd5b601f909101601f19168101906001600160401b0382119082101761028057604052565b634e487b7160e01b5f52604160045260245ffd5b51906001600160a01b03821682036101f357565b51906001600160401b03821682036101f357565b6001600160401b0381116102d6576001600160401b031690565b6306dfcc6560e41b5f52604060045260245260445ffdfe6080604052600436101561001a575b3615610018575f80fd5b005b5f3560e01c80630a17b06b14610b595780630fb5a6b414610b1557806313d033c014610ad15780631475722d1461058f578063191655871461047a578063715018a614610416578063810ec23b146103dc57806386d1a69f146103595780638da5cb5b1461033457806396132521146103175780639852595c146102df578063a3f8eace146102bc578063b9a3c84c14610279578063be9a655514610235578063efbe1c1c1461021b578063f2fde38b14610172578063fbccedae1461012b5763fc0c546a0361000e5734610127575f3660031901126101275760206040516001600160a01b037f0000000000000000000000000000000000000000000000000000000000000000168152f35b5f80fd5b34610127575f36600319011261012757602061016a6101614761015c67ffffffffffffffff42169160015490610ba7565b610d54565b60015490610cb5565b604051908152f35b34610127576020366003190112610127576001600160a01b03610193610b91565b61019b610da1565b1680156101ef576001600160a01b035f548273ffffffffffffffffffffffffffffffffffffffff198216175f55167f8be0079c531659141344cd1fd0a4f28419497f9722a3daafe3b4186f6b6457e05f80a3005b7f1e4fbdf7000000000000000000000000000000000000000000000000000000005f525f60045260245ffd5b34610127575f36600319011261012757602061016a610cf6565b34610127575f36600319011261012757602060405167ffffffffffffffff7f0000000000000000000000000000000000000000000000000000000000000000168152f35b34610127575f3660031901126101275760206040516001600160a01b037f0000000000000000000000000000000000000000000000000000000000000000168152f35b3461012757602036600319011261012757602061016a6102da610b91565b610cc2565b34610127576020366003190112610127576001600160a01b03610300610b91565b165f526002602052602060405f2054604051908152f35b34610127575f366003190112610127576020600154604051908152f35b34610127575f3660031901126101275760206001600160a01b035f5416604051908152f35b34610127575f366003190112610127576100186103884761015c67ffffffffffffffff42169160015490610ba7565b61039f6103986001548093610cb5565b8092610ba7565b6001557fda9d4e5f101b8b9b1c5b76d0c5a9f7923571acfc02376aa076b75a8c080c956b6020604051838152a16001600160a01b035f5416610de0565b34610127576040366003190112610127576103f5610b91565b6024359067ffffffffffffffff821682036101275760209161016a91610c16565b34610127575f3660031901126101275761042e610da1565b5f6001600160a01b03815473ffffffffffffffffffffffffffffffffffffffff1981168355167f8be0079c531659141344cd1fd0a4f28419497f9722a3daafe3b4186f6b6457e08280a3005b3461012757602036600319011261012757610493610b91565b6001600160a01b036104a482610cc2565b911690815f52600260205260405f206104be828254610ba7565b9055817fc0e523490dd523c33b1878c9eb14ff46991e3f5b2cd33710918618f2a39cba1b6020604051848152a26001600160a01b035f541690604051917fa9059cbb000000000000000000000000000000000000000000000000000000005f5260045260245260205f60448180865af19060015f511482161561056f575b501561054457005b7f5274afe7000000000000000000000000000000000000000000000000000000005f5260045260245ffd5b60018215166105875750813b15153d1516168261053c565b3d5f823e3d90fd5b34610127576040366003190112610127576105a8610b91565b6024359067ffffffffffffffff821161012757366023830112156101275781600401359167ffffffffffffffff83116101275760248101906024843692010111610127576105f4610da1565b604051601f8401601f1916919061060e6020840182610bc8565b8481526020810190858383375f60208783010152519020927f6a58fd32313d79a1021b3b09b8be5fc68037c5d69b07d5535c771b25ca9d770b84148015610aa8575b15610a80576001600160a01b0316916040517f01ffc9a70000000000000000000000000000000000000000000000000000000081527f25f9f25e000000000000000000000000000000000000000000000000000000006004820152602081602481875afa90811561093b575f91610a61575b5015610a39576040517faafd5e400000000000000000000000000000000000000000000000000000000081527f4f7261636c65000000000000000000000000000000000000000000000000000060048201526020816024816001600160a01b037f0000000000000000000000000000000000000000000000000000000000000000165afa801561093b575f906109f0575b6001600160a01b03915016936001600160a01b037f000000000000000000000000000000000000000000000000000000000000000016604051907f4360af3d0000000000000000000000000000000000000000000000000000000082528060048301526020826024818a5afa91821561093b575f926109bc575b506040517f095ea7b30000000000000000000000000000000000000000000000000000000081528760048201528260248201526020816044815f865af1801561093b5761098f575b50604051957ffe4e19830000000000000000000000000000000000000000000000000000000087526020876004818b5afa90811561093b5789975f92610946575b50604051998a9889987f6457c979000000000000000000000000000000000000000000000000000000008a5260048a016101209052816101248b01526101448a01378701610144015f90523060248801526044870152606486015f905267ffffffffffffffff16608486015260a485015260c484015260e483017f4153534552545f54525554480000000000000000000000000000000000000000905261010483015281010361014401815a6020945f91f1801561093b5761091457005b602090813d8311610934575b61092a8183610bc8565b8101031261012757005b503d610920565b6040513d5f823e3d90fd5b915096506020813d602011610987575b8161096360209383610bc8565b8101031261012757519567ffffffffffffffff87168703610127578896908a610856565b3d9150610956565b6109b09060203d6020116109b5575b6109a88183610bc8565b810190610bfe565b610815565b503d61099e565b9091506020813d6020116109e8575b816109d860209383610bc8565b81010312610127575190886107cd565b3d91506109cb565b506020813d602011610a31575b81610a0a60209383610bc8565b8101031261012757516001600160a01b0381168103610127576001600160a01b0390610753565b3d91506109fd565b7fa9cb9e0d000000000000000000000000000000000000000000000000000000005f5260045ffd5b610a7a915060203d6020116109b5576109a88183610bc8565b866106c2565b7f0d0eb420000000000000000000000000000000000000000000000000000000005f5260045ffd5b507fbbc4eebef1a3781f950b7caed20db914a831d2b8ad5d8aa7ff4089b8a0e00f948414610650565b34610127575f36600319011261012757602060405167ffffffffffffffff7f0000000000000000000000000000000000000000000000000000000000000000168152f35b34610127575f36600319011261012757602060405167ffffffffffffffff7f0000000000000000000000000000000000000000000000000000000000000000168152f35b346101275760203660031901126101275760043567ffffffffffffffff811681036101275761016a60209161015c4760015490610ba7565b600435906001600160a01b038216820361012757565b91908201809211610bb457565b634e487b7160e01b5f52601160045260245ffd5b90601f8019910116810190811067ffffffffffffffff821117610bea57604052565b634e487b7160e01b5f52604160045260245ffd5b90816020910312610127575180151581036101275790565b6001600160a01b0316906040517f70a08231000000000000000000000000000000000000000000000000000000008152306004820152602081602481865afa90811561093b575f91610c81575b5061015c90610c7e935f52600260205260405f205490610ba7565b90565b90506020813d602011610cad575b81610c9c60209383610bc8565b810103126101275751610c7e610c63565b3d9150610c8f565b91908203918211610bb457565b610c7e906001600160a01b03610ce267ffffffffffffffff421683610c16565b91165f52600260205260405f205490610cb5565b610c7e67ffffffffffffffff7f00000000000000000000000000000000000000000000000000000000000000001667ffffffffffffffff7f000000000000000000000000000000000000000000000000000000000000000016610ba7565b9067ffffffffffffffff7f00000000000000000000000000000000000000000000000000000000000000001667ffffffffffffffff8216105f14610d985750505f90565b610c7e91610e78565b6001600160a01b035f54163303610db457565b7f118cdaa7000000000000000000000000000000000000000000000000000000005f523360045260245ffd5b814710610e48575f8080936001600160a01b03829483604051610e04602082610bc8565b52165af115610e0f57565b3d15610e20576040513d5f823e3d90fd5b7fd6bda275000000000000000000000000000000000000000000000000000000005f5260045ffd5b50477fcf479181000000000000000000000000000000000000000000000000000000005f5260045260245260445ffd5b9067ffffffffffffffff908116907f00000000000000000000000000000000000000000000000000000000000000001680821015610eb7575050505f90565b610ebf610cf6565b8210610eca57505090565b610ed391610cb5565b90818102918183041490151715610bb45767ffffffffffffffff7f000000000000000000000000000000000000000000000000000000000000000016908115610f1a570490565b634e487b7160e01b5f52601260045260245ffdfea2646970667358221220aed6e98ef41acdb3066ff8ee089cd633e6fb4ba1e3bfa98d57f09834ea1a9b4e64736f6c63430008220033",
  "linkReferences": {},
  "deployedLinkReferences": {},
  "immutableReferences": {
    "260": [
      {
        "length": 32,
        "start": 597
      },
      {
        "length": 32,
        "start": 3375
      },
      {
        "length": 32,
        "start": 3720
      }
    ],
    "262": [
      {
        "length": 32,
        "start": 2869
      },
      {
        "length": 32,
        "start": 3332
      },
      {
        "length": 32,
        "start": 3823
      }
    ],
    "549": [
      {
        "length": 32,
        "start": 2801
      },
      {
        "length": 32,
        "start": 3424
      }
    ],
    "4394": [
      {
        "length": 32,
        "start": 664
      },
      {
        "length": 32,
        "start": 1828
      }
    ],
    "4397": [
      {
        "length": 32,
        "start": 259
      },
      {
        "length": 32,
        "start": 1897
      }
    ]
  },
  "inputSourceName": "project/evm/protocol/PexfiVesting.sol",
  "buildInfoId": "solc-0_8_34-27a74b681e5776e8fc6015db5c2fbb79560cb6c9"
}