{
  "_format": "hh3-artifact-1",
  "contractName": "Finder",
  "sourceName": "@uma/core/contracts/data-verification-mechanism/implementation/Finder.sol",
  "abi": [
    {
      "anonymous": false,
      "inputs": [
        {
          "indexed": true,
          "internalType": "bytes32",
          "name": "interfaceName",
          "type": "bytes32"
        },
        {
          "indexed": true,
          "internalType": "address",
          "name": "newImplementationAddress",
          "type": "address"
        }
      ],
      "name": "InterfaceImplementationChanged",
      "type": "event"
    },
    {
      "anonymous": false,
      "inputs": [
        {
          "indexed": true,
          "internalType": "address",
          "name": "previousOwner",
          "type": "address"
        },
        {
          "indexed": true,
          "internalType": "address",
          "name": "newOwner",
          "type": "address"
        }
      ],
      "name": "OwnershipTransferred",
      "type": "event"
    },
    {
      "inputs": [
        {
          "internalType": "bytes32",
          "name": "interfaceName",
          "type": "bytes32"
        },
        {
          "internalType": "address",
          "name": "implementationAddress",
          "type": "address"
        }
      ],
      "name": "changeImplementationAddress",
      "outputs": [],
      "stateMutability": "nonpayable",
      "type": "function"
    },
    {
      "inputs": [
        {
          "internalType": "bytes32",
          "name": "interfaceName",
          "type": "bytes32"
        }
      ],
      "name": "getImplementationAddress",
      "outputs": [
        {
          "internalType": "address",
          "name": "",
          "type": "address"
        }
      ],
      "stateMutability": "view",
      "type": "function"
    },
    {
      "inputs": [
        {
          "internalType": "bytes32",
          "name": "",
          "type": "bytes32"
        }
      ],
      "name": "interfacesImplemented",
      "outputs": [
        {
          "internalType": "address",
          "name": "",
          "type": "address"
        }
      ],
      "stateMutability": "view",
      "type": "function"
    },
    {
      "inputs": [],
      "name": "owner",
      "outputs": [
        {
          "internalType": "address",
          "name": "",
          "type": "address"
        }
      ],
      "stateMutability": "view",
      "type": "function"
    },
    {
      "inputs": [],
      "name": "renounceOwnership",
      "outputs": [],
      "stateMutability": "nonpayable",
      "type": "function"
    },
    {
      "inputs": [
        {
          "internalType": "address",
          "name": "newOwner",
          "type": "address"
        }
      ],
      "name": "transferOwnership",
      "outputs": [],
      "stateMutability": "nonpayable",
      "type": "function"
    }
  ],
  "bytecode": "0x608080604052346059575f8054336001600160a01b0319821681178355916001600160a01b03909116907f8be0079c531659141344cd1fd0a4f28419497f9722a3daafe3b4186f6b6457e09080a3610390908161005e8239f35b5f80fdfe60806040526004361015610011575f80fd5b5f3560e01c806331f9665e14610283578063715018a61461021f5780638da5cb5b146101fa578063aafd5e401461017c578063cc48f4db146101495763f2fde38b1461005b575f80fd5b34610145576020366003190112610145576004356001600160a01b03811680910361014557610088610303565b80156100db576001600160a01b035f548273ffffffffffffffffffffffffffffffffffffffff198216175f55167f8be0079c531659141344cd1fd0a4f28419497f9722a3daafe3b4186f6b6457e05f80a3005b608460405162461bcd60e51b815260206004820152602660248201527f4f776e61626c653a206e6577206f776e657220697320746865207a65726f206160448201527f64647265737300000000000000000000000000000000000000000000000000006064820152fd5b5f80fd5b34610145576020366003190112610145576004355f52600160205260206001600160a01b0360405f205416604051908152f35b34610145576020366003190112610145576004355f5260016020526001600160a01b0360405f20541680156101b657602090604051908152f35b606460405162461bcd60e51b815260206004820152601860248201527f496d706c656d656e746174696f6e206e6f7420666f756e6400000000000000006044820152fd5b34610145575f3660031901126101455760206001600160a01b035f5416604051908152f35b34610145575f36600319011261014557610237610303565b5f6001600160a01b03815473ffffffffffffffffffffffffffffffffffffffff1981168355167f8be0079c531659141344cd1fd0a4f28419497f9722a3daafe3b4186f6b6457e08280a3005b3461014557604036600319011261014557600435602435906001600160a01b038216809203610145576102b4610303565b805f52600160205260405f208273ffffffffffffffffffffffffffffffffffffffff198254161790557fb29aa13e555039289e0513962835b00fcc6e4a265ae8f99e68e5b90d5406fe485f80a3005b6001600160a01b035f5416330361031657565b606460405162461bcd60e51b815260206004820152602060248201527f4f776e61626c653a2063616c6c6572206973206e6f7420746865206f776e65726044820152fdfea2646970667358221220961ffd15d9c7d119676a4712ea0f3898eb21645561bb19e340fc9bd93f8b708b64736f6c63430008220033",
  "linkReferences": {},
  "deployedLinkReferences": {},
  "immutableReferences": {},
  "inputSourceName": "npm/@uma/core@2.62.2/contracts/data-verification-mechanism/implementation/Finder.sol",
  "buildInfoId": "solc-0_8_34-114d95509a9911bdd9d1e5ad9448e1e062e71d71"
}