{
  "_format": "hh3-artifact-1",
  "contractName": "PexfiVesting",
  "sourceName": "evm/protocol/PexfiVesting.sol",
  "abi": [
    {
      "inputs": [
        {
          "internalType": "address",
          "name": "beneficiary",
          "type": "address"
        },
        {
          "internalType": "uint64",
          "name": "startTimestamp",
          "type": "uint64"
        },
        {
          "internalType": "uint64",
          "name": "durationSeconds",
          "type": "uint64"
        },
        {
          "internalType": "uint64",
          "name": "cliffSeconds",
          "type": "uint64"
        },
        {
          "internalType": "address",
          "name": "finder_",
          "type": "address"
        }
      ],
      "stateMutability": "nonpayable",
      "type": "constructor"
    },
    {
      "inputs": [],
      "name": "FailedCall",
      "type": "error"
    },
    {
      "inputs": [
        {
          "internalType": "uint256",
          "name": "balance",
          "type": "uint256"
        },
        {
          "internalType": "uint256",
          "name": "needed",
          "type": "uint256"
        }
      ],
      "name": "InsufficientBalance",
      "type": "error"
    },
    {
      "inputs": [],
      "name": "InvalidArgument",
      "type": "error"
    },
    {
      "inputs": [
        {
          "internalType": "uint64",
          "name": "cliffSeconds",
          "type": "uint64"
        },
        {
          "internalType": "uint64",
          "name": "durationSeconds",
          "type": "uint64"
        }
      ],
      "name": "InvalidCliffDuration",
      "type": "error"
    },
    {
      "inputs": [],
      "name": "InvlalidClaim",
      "type": "error"
    },
    {
      "inputs": [
        {
          "internalType": "address",
          "name": "owner",
          "type": "address"
        }
      ],
      "name": "OwnableInvalidOwner",
      "type": "error"
    },
    {
      "inputs": [
        {
          "internalType": "address",
          "name": "account",
          "type": "address"
        }
      ],
      "name": "OwnableUnauthorizedAccount",
      "type": "error"
    },
    {
      "inputs": [
        {
          "internalType": "uint8",
          "name": "bits",
          "type": "uint8"
        },
        {
          "internalType": "uint256",
          "name": "value",
          "type": "uint256"
        }
      ],
      "name": "SafeCastOverflowedUintDowncast",
      "type": "error"
    },
    {
      "inputs": [
        {
          "internalType": "address",
          "name": "token",
          "type": "address"
        }
      ],
      "name": "SafeERC20FailedOperation",
      "type": "error"
    },
    {
      "anonymous": false,
      "inputs": [
        {
          "indexed": true,
          "internalType": "address",
          "name": "token",
          "type": "address"
        },
        {
          "indexed": false,
          "internalType": "uint256",
          "name": "amount",
          "type": "uint256"
        }
      ],
      "name": "ERC20Released",
      "type": "event"
    },
    {
      "anonymous": false,
      "inputs": [
        {
          "indexed": false,
          "internalType": "uint256",
          "name": "amount",
          "type": "uint256"
        }
      ],
      "name": "EtherReleased",
      "type": "event"
    },
    {
      "anonymous": false,
      "inputs": [
        {
          "indexed": true,
          "internalType": "address",
          "name": "previousOwner",
          "type": "address"
        },
        {
          "indexed": true,
          "internalType": "address",
          "name": "newOwner",
          "type": "address"
        }
      ],
      "name": "OwnershipTransferred",
      "type": "event"
    },
    {
      "inputs": [
        {
          "internalType": "address",
          "name": "deal",
          "type": "address"
        },
        {
          "internalType": "bytes",
          "name": "claim",
          "type": "bytes"
        }
      ],
      "name": "bond",
      "outputs": [],
      "stateMutability": "nonpayable",
      "type": "function"
    },
    {
      "inputs": [],
      "name": "cliff",
      "outputs": [
        {
          "internalType": "uint256",
          "name": "",
          "type": "uint256"
        }
      ],
      "stateMutability": "view",
      "type": "function"
    },
    {
      "inputs": [],
      "name": "duration",
      "outputs": [
        {
          "internalType": "uint256",
          "name": "",
          "type": "uint256"
        }
      ],
      "stateMutability": "view",
      "type": "function"
    },
    {
      "inputs": [],
      "name": "end",
      "outputs": [
        {
          "internalType": "uint256",
          "name": "",
          "type": "uint256"
        }
      ],
      "stateMutability": "view",
      "type": "function"
    },
    {
      "inputs": [],
      "name": "finder",
      "outputs": [
        {
          "internalType": "contract FinderInterface",
          "name": "",
          "type": "address"
        }
      ],
      "stateMutability": "view",
      "type": "function"
    },
    {
      "inputs": [],
      "name": "owner",
      "outputs": [
        {
          "internalType": "address",
          "name": "",
          "type": "address"
        }
      ],
      "stateMutability": "view",
      "type": "function"
    },
    {
      "inputs": [
        {
          "internalType": "address",
          "name": "token",
          "type": "address"
        }
      ],
      "name": "releasable",
      "outputs": [
        {
          "internalType": "uint256",
          "name": "",
          "type": "uint256"
        }
      ],
      "stateMutability": "view",
      "type": "function"
    },
    {
      "inputs": [],
      "name": "releasable",
      "outputs": [
        {
          "internalType": "uint256",
          "name": "",
          "type": "uint256"
        }
      ],
      "stateMutability": "view",
      "type": "function"
    },
    {
      "inputs": [
        {
          "internalType": "address",
          "name": "token",
          "type": "address"
        }
      ],
      "name": "release",
      "outputs": [],
      "stateMutability": "nonpayable",
      "type": "function"
    },
    {
      "inputs": [],
      "name": "release",
      "outputs": [],
      "stateMutability": "nonpayable",
      "type": "function"
    },
    {
      "inputs": [],
      "name": "released",
      "outputs": [
        {
          "internalType": "uint256",
          "name": "",
          "type": "uint256"
        }
      ],
      "stateMutability": "view",
      "type": "function"
    },
    {
      "inputs": [
        {
          "internalType": "address",
          "name": "token",
          "type": "address"
        }
      ],
      "name": "released",
      "outputs": [
        {
          "internalType": "uint256",
          "name": "",
          "type": "uint256"
        }
      ],
      "stateMutability": "view",
      "type": "function"
    },
    {
      "inputs": [],
      "name": "renounceOwnership",
      "outputs": [],
      "stateMutability": "nonpayable",
      "type": "function"
    },
    {
      "inputs": [],
      "name": "start",
      "outputs": [
        {
          "internalType": "uint256",
          "name": "",
          "type": "uint256"
        }
      ],
      "stateMutability": "view",
      "type": "function"
    },
    {
      "inputs": [],
      "name": "token",
      "outputs": [
        {
          "internalType": "contract IERC20",
          "name": "",
          "type": "address"
        }
      ],
      "stateMutability": "view",
      "type": "function"
    },
    {
      "inputs": [
        {
          "internalType": "address",
          "name": "newOwner",
          "type": "address"
        }
      ],
      "name": "transferOwnership",
      "outputs": [],
      "stateMutability": "nonpayable",
      "type": "function"
    },
    {
      "inputs": [
        {
          "internalType": "uint64",
          "name": "timestamp",
          "type": "uint64"
        }
      ],
      "name": "vestedAmount",
      "outputs": [
        {
          "internalType": "uint256",
          "name": "",
          "type": "uint256"
        }
      ],
      "stateMutability": "view",
      "type": "function"
    },
    {
      "inputs": [
        {
          "internalType": "address",
          "name": "token",
          "type": "address"
        },
        {
          "internalType": "uint64",
          "name": "timestamp",
          "type": "uint64"
        }
      ],
      "name": "vestedAmount",
      "outputs": [
        {
          "internalType": "uint256",
          "name": "",
          "type": "uint256"
        }
      ],
      "stateMutability": "view",
      "type": "function"
    },
    {
      "stateMutability": "payable",
      "type": "receive"
    }
  ],
  "bytecode": "0x61012080604052346101f35760a0816112878038038091610020828561025d565b8339810103126101f35761003381610294565b90610040602082016102a8565b61004c604083016102a8565b90610065608061005e606086016102a8565b9401610294565b936001600160a01b0316801561024a575f80546001600160a01b03198116831782556001600160a01b0316907f8be0079c531659141344cd1fd0a4f28419497f9722a3daafe3b4186f6b6457e09080a360805260a08190526001600160401b03918216911680821161021e57506080516001600160401b03906100e99082166102bc565b16016001600160401b03811161020a5760c0526001600160a01b031660e08190526040516302abf57960e61b81526914195e199a55985d5b1d60b21b600482015290602090829060249082905afa9081156101ff575f916101c1575b506001600160a01b031661010052604051610f9990816102ee823960805181818161025501528181610dfc0152610ebd015260a051818181610be601528181610dd10152610f24015260c051818181610ba20152610e2d015260e05181818161029801526107d4015261010051818181610103015261081a0152f35b90506020813d6020116101f7575b816101dc6020938361025d565b810103126101f3576101ed90610294565b5f610145565b5f80fd5b3d91506101cf565b6040513d5f823e3d90fd5b634e487b7160e01b5f52601160045260245ffd5b610227906102bc565b6303be3ef560e41b5f9081526004929092526001600160401b0316602452604490fd5b631e4fbdf760e01b5f525f60045260245ffd5b601f909101601f19168101906001600160401b0382119082101761028057604052565b634e487b7160e01b5f52604160045260245ffd5b51906001600160a01b03821682036101f357565b51906001600160401b03821682036101f357565b6001600160401b0381116102d6576001600160401b031690565b6306dfcc6560e41b5f52604060045260245260445ffdfe6080604052600436101561001a575b3615610018575f80fd5b005b5f3560e01c80630a17b06b14610c0a5780630fb5a6b414610bc657806313d033c014610b825780631475722d146106425780631916558714610520578063715018a6146104bc578063810ec23b1461048257806386d1a69f146103595780638da5cb5b1461033457806396132521146103175780639852595c146102df578063a3f8eace146102bc578063b9a3c84c14610279578063be9a655514610235578063efbe1c1c1461021b578063f2fde38b14610172578063fbccedae1461012b5763fc0c546a0361000e5734610127575f3660031901126101275760206040516001600160a01b037f0000000000000000000000000000000000000000000000000000000000000000168152f35b5f80fd5b34610127575f36600319011261012757602061016a6101614761015c67ffffffffffffffff42169160015490610c58565b610e21565b60015490610d82565b604051908152f35b34610127576020366003190112610127576001600160a01b03610193610c42565b61019b610e6e565b1680156101ef576001600160a01b035f548273ffffffffffffffffffffffffffffffffffffffff198216175f55167f8be0079c531659141344cd1fd0a4f28419497f9722a3daafe3b4186f6b6457e05f80a3005b7f1e4fbdf7000000000000000000000000000000000000000000000000000000005f525f60045260245ffd5b34610127575f36600319011261012757602061016a610dc3565b34610127575f36600319011261012757602060405167ffffffffffffffff7f0000000000000000000000000000000000000000000000000000000000000000168152f35b34610127575f3660031901126101275760206040516001600160a01b037f0000000000000000000000000000000000000000000000000000000000000000168152f35b3461012757602036600319011261012757602061016a6102da610c42565b610d8f565b34610127576020366003190112610127576001600160a01b03610300610c42565b165f526002602052602060405f2054604051908152f35b34610127575f366003190112610127576020600154604051908152f35b34610127575f3660031901126101275760206001600160a01b035f5416604051908152f35b34610127575f366003190112610127576103854761015c67ffffffffffffffff42169160015490610c58565b61039c6103956001548093610d82565b8092610c58565b6001557fda9d4e5f101b8b9b1c5b76d0c5a9f7923571acfc02376aa076b75a8c080c956b6020604051838152a16001600160a01b035f5416814710610452575f80809381935af13d1561044a573d906103f482610caf565b916104026040519384610c79565b82523d5f602084013e5b1561041357005b80511561042257602081519101fd5b7fd6bda275000000000000000000000000000000000000000000000000000000005f5260045ffd5b60609061040c565b50477fcf479181000000000000000000000000000000000000000000000000000000005f5260045260245260445ffd5b346101275760403660031901126101275761049b610c42565b6024359067ffffffffffffffff821682036101275760209161016a91610ce3565b34610127575f366003190112610127576104d4610e6e565b5f6001600160a01b03815473ffffffffffffffffffffffffffffffffffffffff1981168355167f8be0079c531659141344cd1fd0a4f28419497f9722a3daafe3b4186f6b6457e08280a3005b3461012757602036600319011261012757610539610c42565b60205f6001600160a01b0361054d84610d8f565b9316928382526002835260408220610566828254610c58565b9055837fc0e523490dd523c33b1878c9eb14ff46991e3f5b2cd33710918618f2a39cba1b84604051848152a281546040517fa9059cbb000000000000000000000000000000000000000000000000000000008582019081526001600160a01b039092166024820152604480820193909352918252906105e6606482610c79565b519082855af115610637575f513d61062e5750803b155b61060357005b7f5274afe7000000000000000000000000000000000000000000000000000000005f5260045260245ffd5b600114156105fd565b6040513d5f823e3d90fd5b346101275760403660031901126101275761065b610c42565b6024359067ffffffffffffffff821161012757366023830112156101275781600401359067ffffffffffffffff82116101275760248301926024833692010111610127576106a7610e6e565b6106b082610caf565b6106bd6040519182610c79565b8281526020810190838583375f60208583010152519020907f6a58fd32313d79a1021b3b09b8be5fc68037c5d69b07d5535c771b25ca9d770b82148015610b59575b15610b31576001600160a01b0316906040517f01ffc9a70000000000000000000000000000000000000000000000000000000081527f25f9f25e000000000000000000000000000000000000000000000000000000006004820152602081602481865afa908115610637575f91610b12575b5015610aea57604051927faafd5e400000000000000000000000000000000000000000000000000000000084527f4f7261636c65000000000000000000000000000000000000000000000000000060048501526020846024816001600160a01b037f0000000000000000000000000000000000000000000000000000000000000000165afa938415610637575f94610aa6575b506001600160a01b038416916001600160a01b037f00000000000000000000000000000000000000000000000000000000000000001694604051907f4360af3d000000000000000000000000000000000000000000000000000000008252866004830152602082602481885afa918215610637575f92610a71575b506040517f095ea7b30000000000000000000000000000000000000000000000000000000081526001600160a01b03919091166004820152602481018290526020816044815f8b5af1801561063757610a44575b50604051957ffe4e1983000000000000000000000000000000000000000000000000000000008752602087600481885afa968715610637575f976109fd575b5096835f93610144936020999a67ffffffffffffffff6040519c8d9b8c9a8b987f6457c979000000000000000000000000000000000000000000000000000000008a5261012060048b0152816101248b01528a8a01378989888a010152306024890152604488015288606488015216608486015260a485015260c48401527f4153534552545f5452555448000000000000000000000000000000000000000060e4840152610104830152601f801991011681010301925af18015610637576109d657005b602090813d83116109f6575b6109ec8183610c79565b8101031261012757005b503d6109e2565b909796506020813d602011610a3c575b81610a1a60209383610c79565b8101031261012757519567ffffffffffffffff87168703610127579683610912565b3d9150610a0d565b610a659060203d602011610a6a575b610a5d8183610c79565b810190610ccb565b6108d3565b503d610a53565b9091506020813d602011610a9e575b81610a8d60209383610c79565b81010312610127575190602061087f565b3d9150610a80565b9093506020813d602011610ae2575b81610ac260209383610c79565b8101031261012757516001600160a01b0381168103610127579285610804565b3d9150610ab5565b7fa9cb9e0d000000000000000000000000000000000000000000000000000000005f5260045ffd5b610b2b915060203d602011610a6a57610a5d8183610c79565b85610771565b7f0d0eb420000000000000000000000000000000000000000000000000000000005f5260045ffd5b507fbbc4eebef1a3781f950b7caed20db914a831d2b8ad5d8aa7ff4089b8a0e00f9482146106ff565b34610127575f36600319011261012757602060405167ffffffffffffffff7f0000000000000000000000000000000000000000000000000000000000000000168152f35b34610127575f36600319011261012757602060405167ffffffffffffffff7f0000000000000000000000000000000000000000000000000000000000000000168152f35b346101275760203660031901126101275760043567ffffffffffffffff811681036101275761016a60209161015c4760015490610c58565b600435906001600160a01b038216820361012757565b91908201809211610c6557565b634e487b7160e01b5f52601160045260245ffd5b90601f8019910116810190811067ffffffffffffffff821117610c9b57604052565b634e487b7160e01b5f52604160045260245ffd5b67ffffffffffffffff8111610c9b57601f01601f191660200190565b90816020910312610127575180151581036101275790565b6001600160a01b0316906040517f70a08231000000000000000000000000000000000000000000000000000000008152306004820152602081602481865afa908115610637575f91610d4e575b5061015c90610d4b935f52600260205260405f205490610c58565b90565b90506020813d602011610d7a575b81610d6960209383610c79565b810103126101275751610d4b610d30565b3d9150610d5c565b91908203918211610c6557565b610d4b906001600160a01b03610daf67ffffffffffffffff421683610ce3565b91165f52600260205260405f205490610d82565b610d4b67ffffffffffffffff7f00000000000000000000000000000000000000000000000000000000000000001667ffffffffffffffff7f000000000000000000000000000000000000000000000000000000000000000016610c58565b9067ffffffffffffffff7f00000000000000000000000000000000000000000000000000000000000000001667ffffffffffffffff8216105f14610e655750505f90565b610d4b91610ead565b6001600160a01b035f54163303610e8157565b7f118cdaa7000000000000000000000000000000000000000000000000000000005f523360045260245ffd5b9067ffffffffffffffff908116907f00000000000000000000000000000000000000000000000000000000000000001680821015610eec575050505f90565b610ef4610dc3565b8210610eff57505090565b610f0891610d82565b90818102918183041490151715610c655767ffffffffffffffff7f000000000000000000000000000000000000000000000000000000000000000016908115610f4f570490565b634e487b7160e01b5f52601260045260245ffdfea2646970667358221220119a913828c2e11887f56070ffb026849c860b4d2962aa0e2ae2f7851502d48364736f6c63430008220033",
  "linkReferences": {},
  "deployedLinkReferences": {},
  "immutableReferences": {
    "260": [
      {
        "length": 32,
        "start": 597
      },
      {
        "length": 32,
        "start": 3580
      },
      {
        "length": 32,
        "start": 3773
      }
    ],
    "262": [
      {
        "length": 32,
        "start": 3046
      },
      {
        "length": 32,
        "start": 3537
      },
      {
        "length": 32,
        "start": 3876
      }
    ],
    "549": [
      {
        "length": 32,
        "start": 2978
      },
      {
        "length": 32,
        "start": 3629
      }
    ],
    "4114": [
      {
        "length": 32,
        "start": 664
      },
      {
        "length": 32,
        "start": 2004
      }
    ],
    "4117": [
      {
        "length": 32,
        "start": 259
      },
      {
        "length": 32,
        "start": 2074
      }
    ]
  },
  "inputSourceName": "project/evm/protocol/PexfiVesting.sol",
  "buildInfoId": "solc-0_8_34-219283a774449bf9b150e45080c92976737c1021"
}