{
  "_format": "hh3-artifact-1",
  "contractName": "PexfiAntiRugpull",
  "sourceName": "evm/protocol/PexfiAntiRugpull.sol",
  "abi": [
    {
      "inputs": [
        {
          "internalType": "address",
          "name": "_posm",
          "type": "address"
        },
        {
          "internalType": "address",
          "name": "_owner",
          "type": "address"
        }
      ],
      "stateMutability": "nonpayable",
      "type": "constructor"
    },
    {
      "inputs": [],
      "name": "LiquidityDecreased",
      "type": "error"
    },
    {
      "inputs": [
        {
          "internalType": "address",
          "name": "owner",
          "type": "address"
        }
      ],
      "name": "OwnableInvalidOwner",
      "type": "error"
    },
    {
      "inputs": [
        {
          "internalType": "address",
          "name": "account",
          "type": "address"
        }
      ],
      "name": "OwnableUnauthorizedAccount",
      "type": "error"
    },
    {
      "anonymous": false,
      "inputs": [
        {
          "indexed": true,
          "internalType": "address",
          "name": "previousOwner",
          "type": "address"
        },
        {
          "indexed": true,
          "internalType": "address",
          "name": "newOwner",
          "type": "address"
        }
      ],
      "name": "OwnershipTransferred",
      "type": "event"
    },
    {
      "inputs": [
        {
          "internalType": "uint256",
          "name": "tokenId",
          "type": "uint256"
        }
      ],
      "name": "claimFees",
      "outputs": [],
      "stateMutability": "nonpayable",
      "type": "function"
    },
    {
      "inputs": [
        {
          "internalType": "address",
          "name": "",
          "type": "address"
        },
        {
          "internalType": "address",
          "name": "",
          "type": "address"
        },
        {
          "internalType": "uint256",
          "name": "",
          "type": "uint256"
        },
        {
          "internalType": "bytes",
          "name": "",
          "type": "bytes"
        }
      ],
      "name": "onERC721Received",
      "outputs": [
        {
          "internalType": "bytes4",
          "name": "",
          "type": "bytes4"
        }
      ],
      "stateMutability": "pure",
      "type": "function"
    },
    {
      "inputs": [],
      "name": "owner",
      "outputs": [
        {
          "internalType": "address",
          "name": "",
          "type": "address"
        }
      ],
      "stateMutability": "view",
      "type": "function"
    },
    {
      "inputs": [],
      "name": "posm",
      "outputs": [
        {
          "internalType": "contract IPositionManager",
          "name": "",
          "type": "address"
        }
      ],
      "stateMutability": "view",
      "type": "function"
    },
    {
      "inputs": [],
      "name": "renounceOwnership",
      "outputs": [],
      "stateMutability": "nonpayable",
      "type": "function"
    },
    {
      "inputs": [
        {
          "internalType": "address",
          "name": "newOwner",
          "type": "address"
        }
      ],
      "name": "transferOwnership",
      "outputs": [],
      "stateMutability": "nonpayable",
      "type": "function"
    },
    {
      "stateMutability": "payable",
      "type": "receive"
    }
  ],
  "bytecode": "0x60a0346100e657601f610a2538819003918201601f19168301916001600160401b038311848410176100ea5780849260409485528339810103126100e657610046816100fe565b906001600160a01b039061005c906020016100fe565b169081156100d3575f80546001600160a01b031981168417825560405193916001600160a01b03909116907f8be0079c531659141344cd1fd0a4f28419497f9722a3daafe3b4186f6b6457e09080a36001600160a01b03166080526109129081610113823960805181818161013a01526107030152f35b631e4fbdf760e01b5f525f60045260245ffd5b5f80fd5b634e487b7160e01b5f52604160045260245ffd5b51906001600160a01b03821682036100e65756fe608080604052600436101561001c575b50361561001a575f80fd5b005b5f905f3560e01c908163150b7a0214610727575080636f70a7fa146106e4578063715018a6146106805780638da5cb5b1461065b578063ac68a748146101135763f2fde38b0361000f5734610110576020366003190112610110576001600160a01b036100876107ae565b61008f61089d565b1680156100e4576001600160a01b0382548273ffffffffffffffffffffffffffffffffffffffff198216178455167f8be0079c531659141344cd1fd0a4f28419497f9722a3daafe3b4186f6b6457e08380a380f35b6024827f1e4fbdf700000000000000000000000000000000000000000000000000000000815280600452fd5b80fd5b50346104fa5760203660031901126104fa5760043561013061089d565b6001600160a01b037f00000000000000000000000000000000000000000000000000000000000000001690604051907f89097a6a000000000000000000000000000000000000000000000000000000008252806004830152602082602481865afa9182156104ef575f92610627575b50604051917f86b6be7d00000000000000000000000000000000000000000000000000000000835266ffffffffffffff1916600483015260a082602481865afa9182156104ef575f92610561575b506040519160806101fe81856107da565b60038452601f1981015f5b818110610550575050906102d061034794926040518560208201525f60408201525f60608201525f8282015260a0808201525f60c082015260c0815261025060e0826107da565b61025985610810565b5261026384610810565b506001600160a01b0360208185511694825f54169560405190838201528660408201525f60608201526060815261029a85826107da565b6102a388610831565b526102ad87610831565b500151169260405193602085015260408401525f606084015260608352826107da565b6102d982610841565b526102e381610841565b506040517f01000000000000000000000000000000000000000000000000000000000000006020820152600760f91b6021820152600760f91b6022820152600381526103306023826107da565b604051938491604060208401526060830190610851565b91601f19828403016040830152805180845260208401936020808360051b8301019301945f915b83831061051f575050505061038c925003601f1981018452836107da565b60405191631efeed3360e01b8352816004840152602083602481875afa9283156104ef575f936104fe575b50833b156104fa575f6103ff91604051809381927fdd46508f000000000000000000000000000000000000000000000000000000008352604060048401526044830190610851565b426024830152038183885af180156104ef576104d9575b50602090602460405180958193631efeed3360e01b835260048301525afa9182156104ce578392610489575b506fffffffffffffffffffffffffffffffff8091169116106104615780f35b807fe3f3884d0000000000000000000000000000000000000000000000000000000060049252fd5b6fffffffffffffffffffffffffffffffff9192506104bf829160203d6020116104c7575b6104b781836107da565b810190610875565b929150610442565b503d6104ad565b6040513d85823e3d90fd5b6104e69194505f906107da565b5f926020610416565b6040513d5f823e3d90fd5b5f80fd5b61051891935060203d6020116104c7576104b781836107da565b915f6103b7565b9193600191939550602061053e8192601f198682030187528951610851565b9701930193019092879492959361036e565b806060602080938901015201610209565b90915060a0813d60a01161061f575b8161057d60a093836107da565b810103126104fa576040519060a0820182811067ffffffffffffffff82111761060b576040526105ac816107fc565b82526105ba602082016107fc565b6020830152604081015162ffffff811681036104fa5760408301526060810151908160020b82036104fa57608091606084015201516001600160a01b03811681036104fa576080820152905f6101ed565b634e487b7160e01b5f52604160045260245ffd5b3d9150610570565b9091506020813d602011610653575b81610643602093836107da565b810103126104fa5751905f61019f565b3d9150610636565b346104fa575f3660031901126104fa5760206001600160a01b035f5416604051908152f35b346104fa575f3660031901126104fa5761069861089d565b5f6001600160a01b03815473ffffffffffffffffffffffffffffffffffffffff1981168355167f8be0079c531659141344cd1fd0a4f28419497f9722a3daafe3b4186f6b6457e08280a3005b346104fa575f3660031901126104fa5760206040516001600160a01b037f0000000000000000000000000000000000000000000000000000000000000000168152f35b346104fa5760803660031901126104fa576107406107ae565b506107496107c4565b5060643567ffffffffffffffff81116104fa57366023820112156104fa57806004013567ffffffffffffffff81116104fa57369101602401116104fa57807f150b7a020000000000000000000000000000000000000000000000000000000060209252f35b600435906001600160a01b03821682036104fa57565b602435906001600160a01b03821682036104fa57565b90601f8019910116810190811067ffffffffffffffff82111761060b57604052565b51906001600160a01b03821682036104fa57565b80511561081d5760200190565b634e487b7160e01b5f52603260045260245ffd5b80516001101561081d5760400190565b80516002101561081d5760600190565b805180835260209291819084018484015e5f828201840152601f01601f1916010190565b908160209103126104fa57516fffffffffffffffffffffffffffffffff811681036104fa5790565b6001600160a01b035f541633036108b057565b7f118cdaa7000000000000000000000000000000000000000000000000000000005f523360045260245ffdfea26469706673582212201c82ce8de67aa6ad598d3d7ec6fc105a1d25916ad2ae19fa1ee5480c97f967b264736f6c63430008220033",
  "linkReferences": {},
  "deployedLinkReferences": {},
  "immutableReferences": {
    "2889": [
      {
        "length": 32,
        "start": 314
      },
      {
        "length": 32,
        "start": 1795
      }
    ]
  },
  "inputSourceName": "project/evm/protocol/PexfiAntiRugpull.sol",
  "buildInfoId": "solc-0_8_34-34a941192ff7196b4b020fe4afce8a6c7c8fa7ff"
}