{
  "_format": "hh3-artifact-1",
  "contractName": "PexfiVault",
  "sourceName": "evm/protocol/PexfiVault.sol",
  "abi": [
    {
      "inputs": [
        {
          "internalType": "contract PexfiToken",
          "name": "asset_",
          "type": "address"
        }
      ],
      "stateMutability": "nonpayable",
      "type": "constructor"
    },
    {
      "inputs": [],
      "name": "ECDSAInvalidSignature",
      "type": "error"
    },
    {
      "inputs": [
        {
          "internalType": "uint256",
          "name": "length",
          "type": "uint256"
        }
      ],
      "name": "ECDSAInvalidSignatureLength",
      "type": "error"
    },
    {
      "inputs": [
        {
          "internalType": "bytes32",
          "name": "s",
          "type": "bytes32"
        }
      ],
      "name": "ECDSAInvalidSignatureS",
      "type": "error"
    },
    {
      "inputs": [
        {
          "internalType": "address",
          "name": "spender",
          "type": "address"
        },
        {
          "internalType": "uint256",
          "name": "allowance",
          "type": "uint256"
        },
        {
          "internalType": "uint256",
          "name": "needed",
          "type": "uint256"
        }
      ],
      "name": "ERC20InsufficientAllowance",
      "type": "error"
    },
    {
      "inputs": [
        {
          "internalType": "address",
          "name": "sender",
          "type": "address"
        },
        {
          "internalType": "uint256",
          "name": "balance",
          "type": "uint256"
        },
        {
          "internalType": "uint256",
          "name": "needed",
          "type": "uint256"
        }
      ],
      "name": "ERC20InsufficientBalance",
      "type": "error"
    },
    {
      "inputs": [
        {
          "internalType": "address",
          "name": "approver",
          "type": "address"
        }
      ],
      "name": "ERC20InvalidApprover",
      "type": "error"
    },
    {
      "inputs": [
        {
          "internalType": "address",
          "name": "receiver",
          "type": "address"
        }
      ],
      "name": "ERC20InvalidReceiver",
      "type": "error"
    },
    {
      "inputs": [
        {
          "internalType": "address",
          "name": "sender",
          "type": "address"
        }
      ],
      "name": "ERC20InvalidSender",
      "type": "error"
    },
    {
      "inputs": [
        {
          "internalType": "address",
          "name": "spender",
          "type": "address"
        }
      ],
      "name": "ERC20InvalidSpender",
      "type": "error"
    },
    {
      "inputs": [
        {
          "internalType": "uint256",
          "name": "deadline",
          "type": "uint256"
        }
      ],
      "name": "ERC2612ExpiredSignature",
      "type": "error"
    },
    {
      "inputs": [
        {
          "internalType": "address",
          "name": "signer",
          "type": "address"
        },
        {
          "internalType": "address",
          "name": "owner",
          "type": "address"
        }
      ],
      "name": "ERC2612InvalidSigner",
      "type": "error"
    },
    {
      "inputs": [
        {
          "internalType": "address",
          "name": "receiver",
          "type": "address"
        },
        {
          "internalType": "uint256",
          "name": "assets",
          "type": "uint256"
        },
        {
          "internalType": "uint256",
          "name": "max",
          "type": "uint256"
        }
      ],
      "name": "ERC4626ExceededMaxDeposit",
      "type": "error"
    },
    {
      "inputs": [
        {
          "internalType": "address",
          "name": "receiver",
          "type": "address"
        },
        {
          "internalType": "uint256",
          "name": "shares",
          "type": "uint256"
        },
        {
          "internalType": "uint256",
          "name": "max",
          "type": "uint256"
        }
      ],
      "name": "ERC4626ExceededMaxMint",
      "type": "error"
    },
    {
      "inputs": [
        {
          "internalType": "address",
          "name": "owner",
          "type": "address"
        },
        {
          "internalType": "uint256",
          "name": "shares",
          "type": "uint256"
        },
        {
          "internalType": "uint256",
          "name": "max",
          "type": "uint256"
        }
      ],
      "name": "ERC4626ExceededMaxRedeem",
      "type": "error"
    },
    {
      "inputs": [
        {
          "internalType": "address",
          "name": "owner",
          "type": "address"
        },
        {
          "internalType": "uint256",
          "name": "assets",
          "type": "uint256"
        },
        {
          "internalType": "uint256",
          "name": "max",
          "type": "uint256"
        }
      ],
      "name": "ERC4626ExceededMaxWithdraw",
      "type": "error"
    },
    {
      "inputs": [
        {
          "internalType": "address",
          "name": "account",
          "type": "address"
        },
        {
          "internalType": "uint256",
          "name": "currentNonce",
          "type": "uint256"
        }
      ],
      "name": "InvalidAccountNonce",
      "type": "error"
    },
    {
      "inputs": [],
      "name": "InvalidShortString",
      "type": "error"
    },
    {
      "inputs": [
        {
          "internalType": "address",
          "name": "owner",
          "type": "address"
        }
      ],
      "name": "OwnableInvalidOwner",
      "type": "error"
    },
    {
      "inputs": [
        {
          "internalType": "address",
          "name": "account",
          "type": "address"
        }
      ],
      "name": "OwnableUnauthorizedAccount",
      "type": "error"
    },
    {
      "inputs": [
        {
          "internalType": "address",
          "name": "token",
          "type": "address"
        }
      ],
      "name": "SafeERC20FailedOperation",
      "type": "error"
    },
    {
      "inputs": [
        {
          "internalType": "string",
          "name": "str",
          "type": "string"
        }
      ],
      "name": "StringTooLong",
      "type": "error"
    },
    {
      "anonymous": false,
      "inputs": [
        {
          "indexed": true,
          "internalType": "address",
          "name": "owner",
          "type": "address"
        },
        {
          "indexed": true,
          "internalType": "address",
          "name": "spender",
          "type": "address"
        },
        {
          "indexed": false,
          "internalType": "uint256",
          "name": "value",
          "type": "uint256"
        }
      ],
      "name": "Approval",
      "type": "event"
    },
    {
      "anonymous": false,
      "inputs": [
        {
          "indexed": true,
          "internalType": "address",
          "name": "sender",
          "type": "address"
        },
        {
          "indexed": true,
          "internalType": "address",
          "name": "owner",
          "type": "address"
        },
        {
          "indexed": false,
          "internalType": "uint256",
          "name": "assets",
          "type": "uint256"
        },
        {
          "indexed": false,
          "internalType": "uint256",
          "name": "shares",
          "type": "uint256"
        }
      ],
      "name": "Deposit",
      "type": "event"
    },
    {
      "anonymous": false,
      "inputs": [],
      "name": "EIP712DomainChanged",
      "type": "event"
    },
    {
      "anonymous": false,
      "inputs": [
        {
          "indexed": true,
          "internalType": "address",
          "name": "previousOwner",
          "type": "address"
        },
        {
          "indexed": true,
          "internalType": "address",
          "name": "newOwner",
          "type": "address"
        }
      ],
      "name": "OwnershipTransferred",
      "type": "event"
    },
    {
      "anonymous": false,
      "inputs": [
        {
          "indexed": true,
          "internalType": "address",
          "name": "from",
          "type": "address"
        },
        {
          "indexed": true,
          "internalType": "address",
          "name": "to",
          "type": "address"
        },
        {
          "indexed": false,
          "internalType": "uint256",
          "name": "value",
          "type": "uint256"
        }
      ],
      "name": "Transfer",
      "type": "event"
    },
    {
      "anonymous": false,
      "inputs": [
        {
          "indexed": true,
          "internalType": "address",
          "name": "sender",
          "type": "address"
        },
        {
          "indexed": true,
          "internalType": "address",
          "name": "receiver",
          "type": "address"
        },
        {
          "indexed": true,
          "internalType": "address",
          "name": "owner",
          "type": "address"
        },
        {
          "indexed": false,
          "internalType": "uint256",
          "name": "assets",
          "type": "uint256"
        },
        {
          "indexed": false,
          "internalType": "uint256",
          "name": "shares",
          "type": "uint256"
        }
      ],
      "name": "Withdraw",
      "type": "event"
    },
    {
      "inputs": [],
      "name": "DOMAIN_SEPARATOR",
      "outputs": [
        {
          "internalType": "bytes32",
          "name": "",
          "type": "bytes32"
        }
      ],
      "stateMutability": "view",
      "type": "function"
    },
    {
      "inputs": [
        {
          "internalType": "address",
          "name": "owner",
          "type": "address"
        },
        {
          "internalType": "address",
          "name": "spender",
          "type": "address"
        }
      ],
      "name": "allowance",
      "outputs": [
        {
          "internalType": "uint256",
          "name": "",
          "type": "uint256"
        }
      ],
      "stateMutability": "view",
      "type": "function"
    },
    {
      "inputs": [
        {
          "internalType": "address",
          "name": "spender",
          "type": "address"
        },
        {
          "internalType": "uint256",
          "name": "value",
          "type": "uint256"
        }
      ],
      "name": "approve",
      "outputs": [
        {
          "internalType": "bool",
          "name": "",
          "type": "bool"
        }
      ],
      "stateMutability": "nonpayable",
      "type": "function"
    },
    {
      "inputs": [],
      "name": "asset",
      "outputs": [
        {
          "internalType": "address",
          "name": "",
          "type": "address"
        }
      ],
      "stateMutability": "view",
      "type": "function"
    },
    {
      "inputs": [
        {
          "internalType": "address",
          "name": "account",
          "type": "address"
        }
      ],
      "name": "balanceOf",
      "outputs": [
        {
          "internalType": "uint256",
          "name": "",
          "type": "uint256"
        }
      ],
      "stateMutability": "view",
      "type": "function"
    },
    {
      "inputs": [
        {
          "internalType": "uint256",
          "name": "shares",
          "type": "uint256"
        }
      ],
      "name": "convertToAssets",
      "outputs": [
        {
          "internalType": "uint256",
          "name": "",
          "type": "uint256"
        }
      ],
      "stateMutability": "view",
      "type": "function"
    },
    {
      "inputs": [
        {
          "internalType": "uint256",
          "name": "assets",
          "type": "uint256"
        }
      ],
      "name": "convertToShares",
      "outputs": [
        {
          "internalType": "uint256",
          "name": "",
          "type": "uint256"
        }
      ],
      "stateMutability": "view",
      "type": "function"
    },
    {
      "inputs": [],
      "name": "decimals",
      "outputs": [
        {
          "internalType": "uint8",
          "name": "",
          "type": "uint8"
        }
      ],
      "stateMutability": "view",
      "type": "function"
    },
    {
      "inputs": [
        {
          "internalType": "uint256",
          "name": "assets",
          "type": "uint256"
        },
        {
          "internalType": "address",
          "name": "receiver",
          "type": "address"
        }
      ],
      "name": "deposit",
      "outputs": [
        {
          "internalType": "uint256",
          "name": "",
          "type": "uint256"
        }
      ],
      "stateMutability": "nonpayable",
      "type": "function"
    },
    {
      "inputs": [],
      "name": "eip712Domain",
      "outputs": [
        {
          "internalType": "bytes1",
          "name": "fields",
          "type": "bytes1"
        },
        {
          "internalType": "string",
          "name": "name",
          "type": "string"
        },
        {
          "internalType": "string",
          "name": "version",
          "type": "string"
        },
        {
          "internalType": "uint256",
          "name": "chainId",
          "type": "uint256"
        },
        {
          "internalType": "address",
          "name": "verifyingContract",
          "type": "address"
        },
        {
          "internalType": "bytes32",
          "name": "salt",
          "type": "bytes32"
        },
        {
          "internalType": "uint256[]",
          "name": "extensions",
          "type": "uint256[]"
        }
      ],
      "stateMutability": "view",
      "type": "function"
    },
    {
      "inputs": [
        {
          "internalType": "address",
          "name": "",
          "type": "address"
        }
      ],
      "name": "maxDeposit",
      "outputs": [
        {
          "internalType": "uint256",
          "name": "",
          "type": "uint256"
        }
      ],
      "stateMutability": "view",
      "type": "function"
    },
    {
      "inputs": [
        {
          "internalType": "address",
          "name": "",
          "type": "address"
        }
      ],
      "name": "maxMint",
      "outputs": [
        {
          "internalType": "uint256",
          "name": "",
          "type": "uint256"
        }
      ],
      "stateMutability": "view",
      "type": "function"
    },
    {
      "inputs": [
        {
          "internalType": "address",
          "name": "owner",
          "type": "address"
        }
      ],
      "name": "maxRedeem",
      "outputs": [
        {
          "internalType": "uint256",
          "name": "",
          "type": "uint256"
        }
      ],
      "stateMutability": "view",
      "type": "function"
    },
    {
      "inputs": [
        {
          "internalType": "address",
          "name": "owner",
          "type": "address"
        }
      ],
      "name": "maxWithdraw",
      "outputs": [
        {
          "internalType": "uint256",
          "name": "",
          "type": "uint256"
        }
      ],
      "stateMutability": "view",
      "type": "function"
    },
    {
      "inputs": [
        {
          "internalType": "uint256",
          "name": "shares",
          "type": "uint256"
        },
        {
          "internalType": "address",
          "name": "receiver",
          "type": "address"
        }
      ],
      "name": "mint",
      "outputs": [
        {
          "internalType": "uint256",
          "name": "",
          "type": "uint256"
        }
      ],
      "stateMutability": "nonpayable",
      "type": "function"
    },
    {
      "inputs": [],
      "name": "name",
      "outputs": [
        {
          "internalType": "string",
          "name": "",
          "type": "string"
        }
      ],
      "stateMutability": "view",
      "type": "function"
    },
    {
      "inputs": [
        {
          "internalType": "address",
          "name": "owner",
          "type": "address"
        }
      ],
      "name": "nonces",
      "outputs": [
        {
          "internalType": "uint256",
          "name": "",
          "type": "uint256"
        }
      ],
      "stateMutability": "view",
      "type": "function"
    },
    {
      "inputs": [],
      "name": "owner",
      "outputs": [
        {
          "internalType": "address",
          "name": "",
          "type": "address"
        }
      ],
      "stateMutability": "view",
      "type": "function"
    },
    {
      "inputs": [
        {
          "internalType": "address",
          "name": "owner",
          "type": "address"
        },
        {
          "internalType": "address",
          "name": "spender",
          "type": "address"
        },
        {
          "internalType": "uint256",
          "name": "value",
          "type": "uint256"
        },
        {
          "internalType": "uint256",
          "name": "deadline",
          "type": "uint256"
        },
        {
          "internalType": "uint8",
          "name": "v",
          "type": "uint8"
        },
        {
          "internalType": "bytes32",
          "name": "r",
          "type": "bytes32"
        },
        {
          "internalType": "bytes32",
          "name": "s",
          "type": "bytes32"
        }
      ],
      "name": "permit",
      "outputs": [],
      "stateMutability": "nonpayable",
      "type": "function"
    },
    {
      "inputs": [
        {
          "internalType": "uint256",
          "name": "assets",
          "type": "uint256"
        }
      ],
      "name": "previewDeposit",
      "outputs": [
        {
          "internalType": "uint256",
          "name": "",
          "type": "uint256"
        }
      ],
      "stateMutability": "view",
      "type": "function"
    },
    {
      "inputs": [
        {
          "internalType": "uint256",
          "name": "shares",
          "type": "uint256"
        }
      ],
      "name": "previewMint",
      "outputs": [
        {
          "internalType": "uint256",
          "name": "",
          "type": "uint256"
        }
      ],
      "stateMutability": "view",
      "type": "function"
    },
    {
      "inputs": [
        {
          "internalType": "uint256",
          "name": "shares",
          "type": "uint256"
        }
      ],
      "name": "previewRedeem",
      "outputs": [
        {
          "internalType": "uint256",
          "name": "",
          "type": "uint256"
        }
      ],
      "stateMutability": "view",
      "type": "function"
    },
    {
      "inputs": [
        {
          "internalType": "uint256",
          "name": "assets",
          "type": "uint256"
        }
      ],
      "name": "previewWithdraw",
      "outputs": [
        {
          "internalType": "uint256",
          "name": "",
          "type": "uint256"
        }
      ],
      "stateMutability": "view",
      "type": "function"
    },
    {
      "inputs": [
        {
          "internalType": "uint256",
          "name": "shares",
          "type": "uint256"
        },
        {
          "internalType": "address",
          "name": "receiver",
          "type": "address"
        },
        {
          "internalType": "address",
          "name": "owner",
          "type": "address"
        }
      ],
      "name": "redeem",
      "outputs": [
        {
          "internalType": "uint256",
          "name": "",
          "type": "uint256"
        }
      ],
      "stateMutability": "nonpayable",
      "type": "function"
    },
    {
      "inputs": [],
      "name": "renounceOwnership",
      "outputs": [],
      "stateMutability": "nonpayable",
      "type": "function"
    },
    {
      "inputs": [],
      "name": "symbol",
      "outputs": [
        {
          "internalType": "string",
          "name": "",
          "type": "string"
        }
      ],
      "stateMutability": "view",
      "type": "function"
    },
    {
      "inputs": [],
      "name": "totalAssets",
      "outputs": [
        {
          "internalType": "uint256",
          "name": "",
          "type": "uint256"
        }
      ],
      "stateMutability": "view",
      "type": "function"
    },
    {
      "inputs": [],
      "name": "totalSupply",
      "outputs": [
        {
          "internalType": "uint256",
          "name": "",
          "type": "uint256"
        }
      ],
      "stateMutability": "view",
      "type": "function"
    },
    {
      "inputs": [
        {
          "internalType": "address",
          "name": "to",
          "type": "address"
        },
        {
          "internalType": "uint256",
          "name": "value",
          "type": "uint256"
        }
      ],
      "name": "transfer",
      "outputs": [
        {
          "internalType": "bool",
          "name": "",
          "type": "bool"
        }
      ],
      "stateMutability": "nonpayable",
      "type": "function"
    },
    {
      "inputs": [
        {
          "internalType": "address",
          "name": "from",
          "type": "address"
        },
        {
          "internalType": "address",
          "name": "to",
          "type": "address"
        },
        {
          "internalType": "uint256",
          "name": "value",
          "type": "uint256"
        }
      ],
      "name": "transferFrom",
      "outputs": [
        {
          "internalType": "bool",
          "name": "",
          "type": "bool"
        }
      ],
      "stateMutability": "nonpayable",
      "type": "function"
    },
    {
      "inputs": [
        {
          "internalType": "address",
          "name": "newOwner",
          "type": "address"
        }
      ],
      "name": "transferOwnership",
      "outputs": [],
      "stateMutability": "nonpayable",
      "type": "function"
    },
    {
      "inputs": [
        {
          "internalType": "uint256",
          "name": "assets",
          "type": "uint256"
        },
        {
          "internalType": "address",
          "name": "receiver",
          "type": "address"
        },
        {
          "internalType": "address",
          "name": "owner",
          "type": "address"
        }
      ],
      "name": "withdraw",
      "outputs": [
        {
          "internalType": "uint256",
          "name": "",
          "type": "uint256"
        }
      ],
      "stateMutability": "nonpayable",
      "type": "function"
    }
  ],
  "bytecode": "0x6101a0806040523461057f576020816120c180380380916100208285610583565b83398101031261057f57516001600160a01b0381169081900361057f5760405161004b604082610583565b60108152602081016f05374616b6564205065786669205032560841b815260405191610078604084610583565b601083526f05374616b6564205065786669205032560841b6020840152604051936100a4604086610583565b600685526573504558464960d01b6020860152604051946100c6604087610583565b60018652603160f81b60208701908152855190956001600160401b03821161047a5760035490600182811c92168015610575575b602083101461045c5781601f8493116104ff575b50602090601f8311600114610499575f9261048e575b50508160011b915f199060031b1c1916176003555b8051906001600160401b03821161047a5760045490600182811c92168015610470575b602083101461045c5781601f8493116103e6575b50602090601f8311600114610380575f92610375575b50508160011b915f199060031b1c1916176004555b60405160405f6020830163313ce56760e01b8152600484526101be602485610583565b835190855afa5f51916040528061036a575b8061035f575b156103575760ff1660015b1561034f575b60a0526080526101f6816105a6565b6101605261020384610739565b6101805251902091826101205251902080610140524660e0526040519060208201927f8b73c3c69bb8fe3d512ecc4cf759cc79239f7b179b0ffacaa9a75d522b39400f8452604083015260608201524660808201523060a082015260a0815261026d60c082610583565b51902060c0523061010052331561033c5760088054336001600160a01b03198216811790925560405191906001600160a01b03167f8be0079c531659141344cd1fd0a4f28419497f9722a3daafe3b4186f6b6457e05f80a3611843908161087e823960805181818161091501528181610c630152818161118001526113a4015260a05181610967015260c05181611091015260e0518161114e01526101005181611062015261012051816110e001526101405181611106015261016051816107240152610180518161074d0152f35b631e4fbdf760e01b5f525f60045260245ffd5b5060126101e7565b505f806101e1565b5060ff8111156101d6565b5060203d10156101d0565b015190505f80610186565b60045f9081528281209350601f198516905b8181106103ce57509084600195949392106103b6575b505050811b0160045561019b565b01515f1960f88460031b161c191690555f80806103a8565b92936020600181928786015181550195019301610392565b828111156101705760045f52909150601f830160051c7f8a35acfbc15ff81a39ae7d344fd709f28e8600b4aa8c65c6b64bfe7fe36bd19b60208510610454575b849392601f0160051c82900391015f5b828110610444575050610170565b5f81830155859450600101610436565b5f9150610426565b634e487b7160e01b5f52602260045260245ffd5b91607f169161015c565b634e487b7160e01b5f52604160045260245ffd5b015190505f80610124565b60035f9081528281209350601f198516905b8181106104e757509084600195949392106104cf575b505050811b01600355610139565b01515f1960f88460031b161c191690555f80806104c1565b929360206001819287860151815501950193016104ab565b8281111561010e5760035f52909150601f830160051c7fc2575a0e9e593c00f959f8c92f12db2869c3395a3b0502d05e2516446f71f85b6020851061056d575b849392601f0160051c82900391015f5b82811061055d57505061010e565b5f8183015585945060010161054f565b5f915061053f565b91607f16916100fa565b5f80fd5b601f909101601f19168101906001600160401b0382119082101761047a57604052565b908151602081105f14610620575090601f8151116105e05760208151910151602082106105d1571790565b5f198260200360031b1b161790565b604460209160405192839163305a27a960e01b83528160048401528051918291826024860152018484015e5f828201840152601f01601f19168101030190fd5b6001600160401b03811161047a57600554600181811c9116801561072f575b602082101461045c57601f81116106f0575b50602092601f821160011461068f57928192935f92610684575b50508160011b915f199060031b1c19161760055560ff90565b015190505f8061066b565b601f1982169360055f52805f20915f5b8681106106d857508360019596106106c0575b505050811b0160055560ff90565b01515f1960f88460031b161c191690555f80806106b2565b9192602060018192868501518155019401920161069f565b818111156106515760055f5260205f20601f80840160051c809201920160051c03905f5b828110610722575050610651565b5f82820155600101610714565b90607f169061063f565b908151602081105f14610764575090601f8151116105e05760208151910151602082106105d1571790565b6001600160401b03811161047a57600654600181811c91168015610873575b602082101461045c57601f8111610834575b50602092601f82116001146107d357928192935f926107c8575b50508160011b915f199060031b1c19161760065560ff90565b015190505f806107af565b601f1982169360065f52805f20915f5b86811061081c5750836001959610610804575b505050811b0160065560ff90565b01515f1960f88460031b161c191690555f80806107f6565b919260206001819286850151815501940192016107e3565b818111156107955760065f5260205f20601f80840160051c809201920160051c03905f5b828110610866575050610795565b5f82820155600101610858565b90607f169061078356fe60806040526004361015610011575f80fd5b5f3560e01c806301e1d11414610aec57806306fdde0314610a4757806307a2d13a146108f1578063095ea7b314610a215780630a28a47714610a0357806318160ddd146109e657806323b872dd146109ae578063313ce567146109535780633644e5151461093957806338d52e0f146108f6578063402d267d1461046a5780634cdad506146108f15780636e553f65146108be57806370a0823114610281578063715018a6146108585780637ecebe001461082057806384b0196e1461070c5780638da5cb5b146106e657806394bf804d146106b357806395d89b41146105d1578063a9059cbb146105a0578063b3d7f6b914610582578063b460af94146104f7578063ba0876521461046f578063c63d75b61461046a578063c6e6f59214610228578063ce96cb7714610444578063d505accf146102be578063d905777e14610281578063dd62ed3e1461022d578063ef8b30f7146102285763f2fde38b14610179575f80fd5b34610224576020366003190112610224576001600160a01b0361019a610b48565b6101a26112da565b1680156101f8576001600160a01b036008548273ffffffffffffffffffffffffffffffffffffffff19821617600855167f8be0079c531659141344cd1fd0a4f28419497f9722a3daafe3b4186f6b6457e05f80a3005b7f1e4fbdf7000000000000000000000000000000000000000000000000000000005f525f60045260245ffd5b5f80fd5b610bd3565b3461022457604036600319011261022457610246610b48565b6001600160a01b03610256610b5e565b91165f5260016020526001600160a01b0360405f2091165f52602052602060405f2054604051908152f35b346102245760203660031901126102245760206102b661029f610b48565b6001600160a01b03165f525f60205260405f205490565b604051908152f35b346102245760e0366003190112610224576102d7610b48565b6102df610b5e565b604435906064359260843560ff8116810361022457844211610418576103d36103ca6001600160a01b039283851697885f52600760205260405f20908154916001830190556040519060208201927f6e71edae12b1b97f4d1f60370fef10105fa2faae0126114a169c64845d6126c984528b6040840152878a1660608401528a608084015260a083015260c082015260c0815261037d60e082610bf1565b519020610388611058565b90604051917f190100000000000000000000000000000000000000000000000000000000000083526002830152602282015260c43591604260a4359220611607565b909291926116a7565b168481036103e857506103e693506114f4565b005b84907f4b800e46000000000000000000000000000000000000000000000000000000005f5260045260245260445ffd5b847f62791302000000000000000000000000000000000000000000000000000000005f5260045260245ffd5b346102245760203660031901126102245760206102b661046561029f610b48565b610dc7565b610b74565b346102245761047d36610b99565b919061049a836001600160a01b03165f525f60205260405f205490565b8083116104bb576020846102b685856104b282610dc7565b9384913361131a565b826001600160a01b03857fb94abeec000000000000000000000000000000000000000000000000000000005f521660045260245260445260645ffd5b346102245761050536610b99565b9091610525610465836001600160a01b03165f525f60205260405f205490565b80821161054657506020928161053d6102b693610df4565b9384923361131a565b916001600160a01b03907ffe9cceec000000000000000000000000000000000000000000000000000000005f521660045260245260445260645ffd5b346102245760203660031901126102245760206102b6600435610d96565b34610224576040366003190112610224576105c66105bc610b48565b6024359033610f69565b602060405160018152f35b34610224575f366003190112610224576040515f6004546105f181610cd0565b808452906001811690811561068f5750600114610631575b61062d8361061981850382610bf1565b604051918291602083526020830190610b06565b0390f35b60045f9081527f8a35acfbc15ff81a39ae7d344fd709f28e8600b4aa8c65c6b64bfe7fe36bd19b939250905b80821061067557509091508101602001610619610609565b91926001816020925483858801015201910190929161065d565b60ff191660208086019190915291151560051b840190910191506106199050610609565b346102245760403660031901126102245760206004356102b66106d4610b5e565b916106de81610d96565b809333611174565b34610224575f3660031901126102245760206001600160a01b0360085416604051908152f35b34610224575f366003190112610224576107c46107487f0000000000000000000000000000000000000000000000000000000000000000611557565b6107717f00000000000000000000000000000000000000000000000000000000000000006115d0565b60206107d2604051926107848385610bf1565b5f84525f3681376040519586957f0f00000000000000000000000000000000000000000000000000000000000000875260e08588015260e0870190610b06565b908582036040870152610b06565b4660608501523060808501525f60a085015283810360c08501528180845192838152019301915f5b82811061080957505050500390f35b8351855286955093810193928101926001016107fa565b34610224576020366003190112610224576001600160a01b03610841610b48565b165f526007602052602060405f2054604051908152f35b34610224575f366003190112610224576108706112da565b5f6001600160a01b0360085473ffffffffffffffffffffffffffffffffffffffff198116600855167f8be0079c531659141344cd1fd0a4f28419497f9722a3daafe3b4186f6b6457e08280a3005b346102245760403660031901126102245760206004356102b66108df610b5e565b6108e883610e22565b92839133611174565b610b2a565b34610224575f3660031901126102245760206040516001600160a01b037f0000000000000000000000000000000000000000000000000000000000000000168152f35b34610224575f3660031901126102245760206102b6611058565b34610224575f3660031901126102245760ff7f00000000000000000000000000000000000000000000000000000000000000001660ff811161099a57602090604051908152f35b634e487b7160e01b5f52601160045260245ffd5b34610224576060366003190112610224576105c66109ca610b48565b6109d2610b5e565b604435916109e1833383610e4f565b610f69565b34610224575f366003190112610224576020600254604051908152f35b346102245760203660031901126102245760206102b6600435610df4565b34610224576040366003190112610224576105c6610a3d610b48565b60243590336114f4565b34610224575f366003190112610224576040515f600354610a6781610cd0565b808452906001811690811561068f5750600114610a8e5761062d8361061981850382610bf1565b60035f9081527fc2575a0e9e593c00f959f8c92f12db2869c3395a3b0502d05e2516446f71f85b939250905b808210610ad257509091508101602001610619610609565b919260018160209254838588010152019101909291610aba565b34610224575f3660031901126102245760206102b6610c27565b805180835260209291819084018484015e5f828201840152601f01601f1916010190565b346102245760203660031901126102245760206102b6600435610dc7565b600435906001600160a01b038216820361022457565b602435906001600160a01b038216820361022457565b3461022457602036600319011261022457610b8d610b48565b5060206040515f198152f35b606090600319011261022457600435906024356001600160a01b038116810361022457906044356001600160a01b03811681036102245790565b346102245760203660031901126102245760206102b6600435610e22565b90601f8019910116810190811067ffffffffffffffff821117610c1357604052565b634e487b7160e01b5f52604160045260245ffd5b6040517f70a082310000000000000000000000000000000000000000000000000000000081523060048201526020816024816001600160a01b037f0000000000000000000000000000000000000000000000000000000000000000165afa908115610cc5575f91610c96575090565b90506020813d602011610cbd575b81610cb160209383610bf1565b81010312610224575190565b3d9150610ca4565b6040513d5f823e3d90fd5b90600182811c92168015610cfe575b6020831014610cea57565b634e487b7160e01b5f52602260045260245ffd5b91607f1691610cdf565b5f9291815491610d1783610cd0565b8083529260018116908115610d6c5750600114610d3357505050565b5f9081526020812093945091925b838310610d52575060209250010190565b600181602092949394548385870101520191019190610d41565b915050602093945060ff929192191683830152151560051b010190565b9190820180921161099a57565b610d9e610c27565b906001820180921161099a576002546001810180911161099a57610dc492600192611497565b90565b610dcf610c27565b906001820180921161099a576002546001810180911161099a57610dc4925f92611497565b600254906001820180921161099a57610e0b610c27565b6001810180911161099a57610dc492600192611497565b600254906001820180921161099a57610e39610c27565b6001810180911161099a57610dc4925f92611497565b6001600160a01b03909291921691825f52600160205260405f206001600160a01b0382165f5260205260405f2054925f198410610e8d575b50505050565b828410610f2c578015610f00576001600160a01b03821615610ed4575f5260016020526001600160a01b0360405f2091165f5260205260405f20910390555f808080610e87565b7f94280d62000000000000000000000000000000000000000000000000000000005f525f60045260245ffd5b7fe602df05000000000000000000000000000000000000000000000000000000005f525f60045260245ffd5b506001600160a01b0383917ffb8f41b2000000000000000000000000000000000000000000000000000000005f521660045260245260445260645ffd5b6001600160a01b031690811561102c576001600160a01b031691821561100057815f525f60205260405f2054818110610fe757817fddf252ad1be2c89b69c2b068fc378daa952ba7f163c4a11628f55a4df523b3ef92602092855f525f84520360405f2055845f525f825260405f20818154019055604051908152a3565b8263391434e360e21b5f5260045260245260445260645ffd5b7fec442f05000000000000000000000000000000000000000000000000000000005f525f60045260245ffd5b7f96c6fd1e000000000000000000000000000000000000000000000000000000005f525f60045260245ffd5b6001600160a01b037f00000000000000000000000000000000000000000000000000000000000000001630148061114b575b156110b3577f000000000000000000000000000000000000000000000000000000000000000090565b60405160208101907f8b73c3c69bb8fe3d512ecc4cf759cc79239f7b179b0ffacaa9a75d522b39400f82527f000000000000000000000000000000000000000000000000000000000000000060408201527f000000000000000000000000000000000000000000000000000000000000000060608201524660808201523060a082015260a0815261114560c082610bf1565b51902090565b507f0000000000000000000000000000000000000000000000000000000000000000461461108a565b91906001600160a01b037f0000000000000000000000000000000000000000000000000000000000000000166001600160a01b03604051947f23b872dd000000000000000000000000000000000000000000000000000000005f52169384600452306024528360445260205f60648180865af19060015f51148216156112b9575b6040525f6060521561128e57506001600160a01b0316928315611000577fdcbc1c05240f31ff3ad067ef1ee35ce4997762752e3a095284754544f4c709d79181611243604093600254610d89565b600255855f525f602052825f20818154019055855f7fddf252ad1be2c89b69c2b068fc378daa952ba7f163c4a11628f55a4df523b3ef60208651858152a382519182526020820152a3565b7f5274afe7000000000000000000000000000000000000000000000000000000005f5260045260245ffd5b9060018115166112d157823b15153d151616906111f5565b503d5f823e3d90fd5b6001600160a01b036008541633036112ee57565b7f118cdaa7000000000000000000000000000000000000000000000000000000005f523360045260245ffd5b91936001600160a01b03851694816001600160a01b03851694878603611486575b505050841561102c57845f525f60205260405f205481811061146d578190865f525f6020520360405f205580600254036002555f857fddf252ad1be2c89b69c2b068fc378daa952ba7f163c4a11628f55a4df523b3ef6020604051858152a36001600160a01b037f000000000000000000000000000000000000000000000000000000000000000016936001600160a01b03604051937fa9059cbb000000000000000000000000000000000000000000000000000000005f521694856004528160245260205f60448180855af160015f511481161561144e575b846040521561128e5750825260208201527ffbde797d201c681b91056529119e0b02407c7bb96a4a2c75c01fc9667232c8db90604090a4565b600181151661146457813b15153d151616611415565b843d5f823e3d90fd5b8563391434e360e21b5f5260045260245260445260645ffd5b61148f92610e4f565b5f818161133b565b92916001806114a783858861176e565b946114b181611689565b161491826114c9575b5050610dc49250151590610d89565b90809250156114e057610dc4930915155f806114ba565b634e487b7160e01b5f52601260045260245ffd5b6001600160a01b0316908115610f00576001600160a01b0316918215610ed45760207f8c5be1e5ebec7d5bd14f71427d1e84f3dd0314c0f7b2291e5b200ac8c7c3b92591835f526001825260405f20855f5282528060405f2055604051908152a3565b60ff81146115b65760ff811690601f821161158e576040519161157b604084610bf1565b6020808452838101919036833783525290565b7fb3512b0c000000000000000000000000000000000000000000000000000000005f5260045ffd5b50604051610dc4816115c9816005610d08565b0382610bf1565b60ff81146115f45760ff811690601f821161158e576040519161157b604084610bf1565b50604051610dc4816115c9816006610d08565b91907f7fffffffffffffffffffffffffffffff5d576e7357a4501ddfe92f46681b20a0841161167e579160209360809260ff5f9560405194855216868401526040830152606082015282805260015afa15610cc5575f516001600160a01b0381161561167457905f905f90565b505f906001905f90565b5050505f9160039190565b6004111561169357565b634e487b7160e01b5f52602160045260245ffd5b6116b081611689565b806116b9575050565b6116c281611689565b600181036116f2577ff645eedf000000000000000000000000000000000000000000000000000000005f5260045ffd5b6116fb81611689565b6002810361172f57507ffce698f7000000000000000000000000000000000000000000000000000000005f5260045260245ffd5b60039061173b81611689565b146117435750565b7fd78bce0c000000000000000000000000000000000000000000000000000000005f5260045260245ffd5b90915f1983830992808302928380861095039480860395146117ff57848311156117e75790829109815f0382168092046002816003021880820260020302808202600203028082026002030280820260020302808202600203028091026002030293600183805f03040190848311900302920304170290565b82634e487b715f52156003026011186020526024601cfd5b5050809250156114e057049056fea2646970667358221220409c4af780bd239934b2805bb363ff12cbdbd992ed42fb35d6f9a829025d247764736f6c63430008220033",
  "linkReferences": {},
  "deployedLinkReferences": {},
  "immutableReferences": {
    "1389": [
      {
        "length": 32,
        "start": 2325
      },
      {
        "length": 32,
        "start": 3171
      },
      {
        "length": 32,
        "start": 4480
      },
      {
        "length": 32,
        "start": 5028
      }
    ],
    "1391": [
      {
        "length": 32,
        "start": 2407
      }
    ],
    "6403": [
      {
        "length": 32,
        "start": 4241
      }
    ],
    "6405": [
      {
        "length": 32,
        "start": 4430
      }
    ],
    "6407": [
      {
        "length": 32,
        "start": 4194
      }
    ],
    "6409": [
      {
        "length": 32,
        "start": 4320
      }
    ],
    "6411": [
      {
        "length": 32,
        "start": 4358
      }
    ],
    "6414": [
      {
        "length": 32,
        "start": 1828
      }
    ],
    "6417": [
      {
        "length": 32,
        "start": 1869
      }
    ]
  },
  "inputSourceName": "project/evm/protocol/PexfiVault.sol",
  "buildInfoId": "solc-0_8_34-3b0b45132be1be6d36637889cd7fd9fc561d131c"
}