{
  "_format": "hh3-artifact-1",
  "contractName": "Deal",
  "sourceName": "evm/protocol/Deal.sol",
  "abi": [
    {
      "inputs": [
        {
          "internalType": "address",
          "name": "market_",
          "type": "address"
        }
      ],
      "stateMutability": "nonpayable",
      "type": "constructor"
    },
    {
      "inputs": [
        {
          "internalType": "enum IDeal.State",
          "name": "state",
          "type": "uint8"
        }
      ],
      "name": "ActionNotAllowedInThisState",
      "type": "error"
    },
    {
      "inputs": [],
      "name": "InvalidInitialization",
      "type": "error"
    },
    {
      "inputs": [
        {
          "internalType": "bool",
          "name": "resolvedPaid",
          "type": "bool"
        }
      ],
      "name": "InvalidResolution",
      "type": "error"
    },
    {
      "inputs": [],
      "name": "NotInitializing",
      "type": "error"
    },
    {
      "inputs": [
        {
          "internalType": "address",
          "name": "token",
          "type": "address"
        }
      ],
      "name": "SafeERC20FailedOperation",
      "type": "error"
    },
    {
      "inputs": [
        {
          "internalType": "address",
          "name": "account",
          "type": "address"
        }
      ],
      "name": "UnauthorizedAccount",
      "type": "error"
    },
    {
      "anonymous": false,
      "inputs": [
        {
          "indexed": false,
          "internalType": "enum IDeal.State",
          "name": "state",
          "type": "uint8"
        },
        {
          "indexed": false,
          "internalType": "address",
          "name": "sender",
          "type": "address"
        }
      ],
      "name": "DealState",
      "type": "event"
    },
    {
      "anonymous": false,
      "inputs": [
        {
          "indexed": false,
          "internalType": "bytes32",
          "name": "domainId",
          "type": "bytes32"
        }
      ],
      "name": "DisputeResolved",
      "type": "event"
    },
    {
      "anonymous": false,
      "inputs": [
        {
          "indexed": false,
          "internalType": "address",
          "name": "to",
          "type": "address"
        },
        {
          "indexed": false,
          "internalType": "bool",
          "name": "upvote",
          "type": "bool"
        },
        {
          "indexed": false,
          "internalType": "string",
          "name": "message",
          "type": "string"
        }
      ],
      "name": "FeedbackGiven",
      "type": "event"
    },
    {
      "anonymous": false,
      "inputs": [
        {
          "indexed": false,
          "internalType": "uint64",
          "name": "version",
          "type": "uint64"
        }
      ],
      "name": "Initialized",
      "type": "event"
    },
    {
      "anonymous": false,
      "inputs": [
        {
          "indexed": false,
          "internalType": "address",
          "name": "sender",
          "type": "address"
        },
        {
          "indexed": false,
          "internalType": "string",
          "name": "message",
          "type": "string"
        }
      ],
      "name": "Message",
      "type": "event"
    },
    {
      "inputs": [],
      "name": "accept",
      "outputs": [],
      "stateMutability": "nonpayable",
      "type": "function"
    },
    {
      "inputs": [],
      "name": "allowCancelUnacceptedAfter",
      "outputs": [
        {
          "internalType": "uint32",
          "name": "",
          "type": "uint32"
        }
      ],
      "stateMutability": "view",
      "type": "function"
    },
    {
      "inputs": [],
      "name": "allowCancelUnpaidAfter",
      "outputs": [
        {
          "internalType": "uint32",
          "name": "",
          "type": "uint32"
        }
      ],
      "stateMutability": "view",
      "type": "function"
    },
    {
      "inputs": [
        {
          "internalType": "bytes32",
          "name": "assertionId",
          "type": "bytes32"
        }
      ],
      "name": "assertionDisputedCallback",
      "outputs": [],
      "stateMutability": "nonpayable",
      "type": "function"
    },
    {
      "inputs": [
        {
          "internalType": "bytes32",
          "name": "assertionId",
          "type": "bytes32"
        },
        {
          "internalType": "bool",
          "name": "assertedTruthfully",
          "type": "bool"
        }
      ],
      "name": "assertionResolvedCallback",
      "outputs": [],
      "stateMutability": "nonpayable",
      "type": "function"
    },
    {
      "inputs": [],
      "name": "cancel",
      "outputs": [],
      "stateMutability": "nonpayable",
      "type": "function"
    },
    {
      "inputs": [],
      "name": "dispute",
      "outputs": [],
      "stateMutability": "nonpayable",
      "type": "function"
    },
    {
      "inputs": [
        {
          "internalType": "bool",
          "name": "upvote",
          "type": "bool"
        },
        {
          "internalType": "string",
          "name": "message_",
          "type": "string"
        }
      ],
      "name": "feedback",
      "outputs": [],
      "stateMutability": "nonpayable",
      "type": "function"
    },
    {
      "inputs": [],
      "name": "fund",
      "outputs": [],
      "stateMutability": "nonpayable",
      "type": "function"
    },
    {
      "inputs": [
        {
          "components": [
            {
              "internalType": "address",
              "name": "offer",
              "type": "address"
            },
            {
              "internalType": "address",
              "name": "taker",
              "type": "address"
            },
            {
              "internalType": "uint256",
              "name": "tokenAmount",
              "type": "uint256"
            },
            {
              "internalType": "uint256",
              "name": "fiatAmount",
              "type": "uint256"
            }
          ],
          "internalType": "struct IDeal.DealParams",
          "name": "params",
          "type": "tuple"
        }
      ],
      "name": "initialize",
      "outputs": [],
      "stateMutability": "nonpayable",
      "type": "function"
    },
    {
      "inputs": [],
      "name": "market",
      "outputs": [
        {
          "internalType": "contract IMarket",
          "name": "",
          "type": "address"
        }
      ],
      "stateMutability": "view",
      "type": "function"
    },
    {
      "inputs": [
        {
          "internalType": "string",
          "name": "message_",
          "type": "string"
        }
      ],
      "name": "message",
      "outputs": [],
      "stateMutability": "nonpayable",
      "type": "function"
    },
    {
      "inputs": [],
      "name": "offer",
      "outputs": [
        {
          "internalType": "contract IOffer",
          "name": "",
          "type": "address"
        }
      ],
      "stateMutability": "view",
      "type": "function"
    },
    {
      "inputs": [],
      "name": "paid",
      "outputs": [],
      "stateMutability": "nonpayable",
      "type": "function"
    },
    {
      "inputs": [],
      "name": "release",
      "outputs": [],
      "stateMutability": "nonpayable",
      "type": "function"
    },
    {
      "inputs": [],
      "name": "resolvedPaid",
      "outputs": [
        {
          "internalType": "bool",
          "name": "",
          "type": "bool"
        }
      ],
      "stateMutability": "view",
      "type": "function"
    },
    {
      "inputs": [],
      "name": "state",
      "outputs": [
        {
          "internalType": "enum IDeal.State",
          "name": "",
          "type": "uint8"
        }
      ],
      "stateMutability": "view",
      "type": "function"
    },
    {
      "inputs": [
        {
          "internalType": "bytes4",
          "name": "interfaceId",
          "type": "bytes4"
        }
      ],
      "name": "supportsInterface",
      "outputs": [
        {
          "internalType": "bool",
          "name": "",
          "type": "bool"
        }
      ],
      "stateMutability": "view",
      "type": "function"
    },
    {
      "inputs": [],
      "name": "taker",
      "outputs": [
        {
          "internalType": "address",
          "name": "",
          "type": "address"
        }
      ],
      "stateMutability": "view",
      "type": "function"
    },
    {
      "inputs": [],
      "name": "tokenAmount",
      "outputs": [
        {
          "internalType": "uint256",
          "name": "",
          "type": "uint256"
        }
      ],
      "stateMutability": "view",
      "type": "function"
    }
  ],
  "bytecode": "0x60a03461011957601f611f3138819003918201601f19168301916001600160401b0383118484101761011d5780849260209460405283398101031261011957516001600160a01b03811690819003610119576080525f516020611f115f395f51905f525460ff8160401c1661010a576002600160401b03196001600160401b038216016100b4575b604051611ddf908161013282396080518181816103e4015281816105ab0152818161088401526115b00152f35b6001600160401b0319166001600160401b039081175f516020611f115f395f51905f52556040519081527fc7f505b2f371ae2175ee4913f4499e1f2633a7b5936321eed1cdaeb6115181d290602090a15f610087565b63f92ee8a960e01b5f5260045ffd5b5f80fd5b634e487b7160e01b5f52604160045260245ffdfe6080806040526004361015610012575f80fd5b5f905f3560e01c90816301ffc9a7146111625750806305c766d1146110285780632852b71c14610ecd578063295b4e1714610e2457806363660a5c14610dfe5780636c44ee2814610b6b57806370ea2dcd146108ce578063782b3602146108a857806380f556051461086557806386d1a69f1461051f578063a895f790146104fb578063b60d42881461038c578063b8efac3d14610366578063c028df0614610340578063c19d93fb14610316578063d448a4ec14610301578063ea8a1af0146102ce578063eec7faa1146102b0578063f1b156b21461027f5763f240f7c3146100fa575f80fd5b3461027c578060031936011261027c57805460405190638da5cb5b60e01b82526020826004816001600160a01b0385165afa918215610271578392610228575b506001600160a01b0360ff92163314801561020f575b61015b903390611293565b60a01c1660088110156101fb576001811080156101f1575b6101d957507f483872b61d8baa4123ce48bdbfc11cc824c853d9848d59d558aa1530400749156101d37404000000000000000000000000000000000000000060ff60a01b198454161780845560405191829160ff339160a01c1683611306565b0390a180f35b906101ef602492632aa0018f60e11b835261122e565bfd5b5060038111610173565b602482634e487b7160e01b81526021600452fd5b5061015b6001600160a01b036001541633149050610150565b91506020823d602011610269575b8161024360209383611249565b81010312610265576001600160a01b0361025e60ff9361127f565b925061013a565b8280fd5b3d9150610236565b6040513d85823e3d90fd5b80fd5b503461027c57604036600319011261027c5760243580151581036102ac576102a99060043561156c565b80f35b5080fd5b503461027c578060031936011261027c576020600254604051908152f35b503461027c578060031936011261027c5760ff815460a01c1660088110156101fb57600681116101d957506102a9611387565b503461027c57602036600319011261027c5780f35b503461027c578060031936011261027c5760ff6020915460a01c1661033e604051809261123c565bf35b503461027c578060031936011261027c576001600160a01b036020915416604051908152f35b503461027c578060031936011261027c5763ffffffff6020915460b01c16604051908152f35b50346104c1575f3660031901126104c1576103b9336001600160a01b036103b1611b52565b163314611293565b60ff5f5460a01c1660088110156104e7576001811080156104dd575b6104c557506001600160a01b037f000000000000000000000000000000000000000000000000000000000000000016803b156104c1575f80916004604051809481937fc5f2b4140000000000000000000000000000000000000000000000000000000083525af180156104b6576104a3575b507f483872b61d8baa4123ce48bdbfc11cc824c853d9848d59d558aa1530400749156101d37402000000000000000000000000000000000000000060ff60a01b198454161780845560405191829160ff339160a01c1683611306565b6104af91505f90611249565b5f5f610447565b6040513d5f823e3d90fd5b5f80fd5b6104d890632aa0018f60e11b5f5261122e565b60245ffd5b50600181116103d5565b634e487b7160e01b5f52602160045260245ffd5b346104c1575f3660031901126104c157602060ff5f5460a81c166040519015158152f35b346104c1575f3660031901126104c1575f5460ff8160a01c166008811015806104e757600282108015610859575b610846576104e7576001600160a01b03916020916006036108345761057860ff8260a81c1680611352565b600460405180948193637e062a3560e11b8352165afa9081156104b6575f91610805575b50600254906001600160a01b037f000000000000000000000000000000000000000000000000000000000000000016916040517fddca3f43000000000000000000000000000000000000000000000000000000008152602081600481875afa80156104b6575f906107c8575b60ff915016928382029382850414821517156107b457612710610629611a76565b940482039182116107b45761064360209260249585611cf9565b604051938480926302abf57960e61b82527f466565436f6c6c6563746f72000000000000000000000000000000000000000060048301525afa9182156104b6575f92610778575b50604051917f70a082310000000000000000000000000000000000000000000000000000000083523060048401526020836024816001600160a01b0386165afa9182156104b6575f92610742575b6106e29350611cf9565b7f483872b61d8baa4123ce48bdbfc11cc824c853d9848d59d558aa15304007491561073d7407000000000000000000000000000000000000000060ff60a01b195f541617805f5560405191829160ff339160a01c1683611306565b0390a1005b91506020833d602011610770575b8161075d60209383611249565b810103126104c1576106e29251916106d8565b3d9150610750565b9091506020813d6020116107ac575b8161079460209383611249565b810103126104c1576107a59061127f565b908261068a565b3d9150610787565b634e487b7160e01b5f52601160045260245ffd5b506020813d6020116107fd575b816107e260209383611249565b810103126104c1575160ff811681036104c15760ff90610608565b3d91506107d5565b610827915060203d60201161082d575b61081f8183611249565b810190611bfa565b8161059c565b503d610815565b61084133846103b1611b52565b610578565b6104d882632aa0018f60e11b5f5261122e565b50505f6006821161054d565b346104c1575f3660031901126104c15760206040516001600160a01b037f0000000000000000000000000000000000000000000000000000000000000000168152f35b346104c1575f3660031901126104c15760206001600160a01b0360015416604051908152f35b346104c15760403660031901126104c15760043580151581036104c15760243567ffffffffffffffff81116104c15761090b903690600401611200565b91905f546001600160a01b0381169060405190638da5cb5b60e01b8252602082600481865afa9182156104b6575f92610b26575b506001600160a01b0360ff921633148015610b0d575b610960903390611293565b60a01c1660088110156104e757600681108015610b03575b6104c55750604051638da5cb5b60e01b8152602081600481855afa80156104b6575f90610ac3575b6001600160a01b0391501633145f146109f2575061073d7f514f3189a205d863ff2592c318f6332fe754ed0f49672ec61ce3a48c3cc10dd6936001600160a01b03600154169260405194859485611328565b906001600160a01b03600154163314610a0757005b602060049260405193848092638da5cb5b60e01b82525afa9182156104b6575f92610a60575b507f514f3189a205d863ff2592c318f6332fe754ed0f49672ec61ce3a48c3cc10dd69361073d9160405194859485611328565b9091506020813d602011610abb575b81610a7c60209383611249565b810103126104c1577f514f3189a205d863ff2592c318f6332fe754ed0f49672ec61ce3a48c3cc10dd693610ab261073d9261127f565b92915093610a2d565b3d9150610a6f565b506020813d602011610afb575b81610add60209383611249565b810103126104c157610af66001600160a01b039161127f565b6109a0565b3d9150610ad0565b5060078111610978565b506109606001600160a01b036001541633149050610955565b91506020823d602011610b63575b81610b4160209383611249565b810103126104c1576001600160a01b03610b5c60ff9361127f565b925061093f565b3d9150610b34565b346104c15760803660031901126104c1577ff0c57e16840df040f15088dc2f81fe391c3923bec73e23a9662efc9c229c6a005460ff8160401c16159067ffffffffffffffff811680159081610df6575b6001149081610dec575b159081610de3575b50610dbb5767ffffffffffffffff1981166001177ff0c57e16840df040f15088dc2f81fe391c3923bec73e23a9662efc9c229c6a005581610d7c575b506004356001600160a01b038116908181036104c157507fffffffffffffffffffffffff00000000000000000000000000000000000000005f541617805f556001600160a01b03610c586112f0565b1690600154906044356002556103844201918242116107b4577f483872b61d8baa4123ce48bdbfc11cc824c853d9848d59d558aa153040074915937fffffffffffffffff00000000000000000000000000000000000000000000000077ffffffff000000000000000000000000000000000000000060ff9560a01b1692161717600155610cf6610ce66112f0565b60405193849360a01c1683611306565b0390a1610cff57005b68ff0000000000000000197ff0c57e16840df040f15088dc2f81fe391c3923bec73e23a9662efc9c229c6a0054167ff0c57e16840df040f15088dc2f81fe391c3923bec73e23a9662efc9c229c6a00557fc7f505b2f371ae2175ee4913f4499e1f2633a7b5936321eed1cdaeb6115181d2602060405160018152a1005b68ffffffffffffffffff191668010000000000000001177ff0c57e16840df040f15088dc2f81fe391c3923bec73e23a9662efc9c229c6a005581610c09565b7ff92ee8a9000000000000000000000000000000000000000000000000000000005f5260045ffd5b90501583610bcd565b303b159150610bc5565b839150610bbb565b346104c1575f3660031901126104c157602063ffffffff60015460a01c16604051908152f35b346104c1575f3660031901126104c157610e48336001600160a01b036103b1611a76565b60ff5f5460a01c1660088110156104e757600181108015610ec3575b6104c5577f483872b61d8baa4123ce48bdbfc11cc824c853d9848d59d558aa15304007491561073d7403000000000000000000000000000000000000000060ff60a01b195f541617805f5560405191829160ff339160a01c1683611306565b5060028111610e64565b346104c1575f3660031901126104c1575f5460ff8160a01c1660088110156104e757806104c557604051638da5cb5b60e01b81526020816004816001600160a01b0387165afa80156104b6575f90610fed575b610f3791506001600160a01b033391163314611293565b7f483872b61d8baa4123ce48bdbfc11cc824c853d9848d59d558aa153040074915610f927401000000000000000000000000000000000000000060ff60a01b195f541617805f5560405191829160ff339160a01c1683611306565b0390a1610e1042018042116107b4577fffffffffffff00000000ffffffffffffffffffffffffffffffffffffffffffff79ffffffff000000000000000000000000000000000000000000005f549260b01b169116175f555f80f35b506020813d602011611020575b8161100760209383611249565b810103126104c15761101b610f379161127f565b610f20565b3d9150610ffa565b346104c15760203660031901126104c15760043567ffffffffffffffff81116104c15761105a60049136908301611200565b60206001600160a01b035f541660405194858092638da5cb5b60e01b82525afa9283156104b6575f936110fe575b506001600160a01b037f811f7cff0a3374ff67cccc3726035d34ba70410e0256818a891e4d6acc01d88e9316331480156110e5575b6110c8903390611293565b61073d6040519283923384526040602085015260408401916112d0565b506110c86001600160a01b0360015416331490506110bd565b92506020833d60201161115a575b8161111960209383611249565b810103126104c1576001600160a01b036111537f811f7cff0a3374ff67cccc3726035d34ba70410e0256818a891e4d6acc01d88e9461127f565b9350611088565b3d915061110c565b346104c15760203660031901126104c157600435907fffffffff0000000000000000000000000000000000000000000000000000000082168092036104c157817f25f9f25e00000000000000000000000000000000000000000000000000000000602093149081156111d6575b5015158152f35b7f01ffc9a700000000000000000000000000000000000000000000000000000000915014836111cf565b9181601f840112156104c15782359167ffffffffffffffff83116104c157602083818601950101116104c157565b60088110156104e757600452565b9060088210156104e75752565b90601f8019910116810190811067ffffffffffffffff82111761126b57604052565b634e487b7160e01b5f52604160045260245ffd5b51906001600160a01b03821682036104c157565b1561129b5750565b6001600160a01b03907f32b2baa3000000000000000000000000000000000000000000000000000000005f521660045260245ffd5b908060209392818452848401375f828201840152601f01601f1916010190565b6024356001600160a01b03811681036104c15790565b9092916001600160a01b0360209161132284604081019761123c565b16910152565b61134f94926001600160a01b036060931682521515602082015281604082015201916112d0565b90565b1561135a5750565b7fa054128c000000000000000000000000000000000000000000000000000000005f52151560045260245ffd5b5f5460ff8160a01c1660088110156104e75760061461153957505f546001600160a01b038116604051638da5cb5b60e01b8152602081600481855afa80156104b6575f906114f9575b6001600160a01b03915016331480156114e0575b6113ef903390611293565b60ff8260a01c169160088310156104e757826114ae5750602060049160405192838092638da5cb5b60e01b82525afa80156104b6575f9061146e575b6001600160a01b039150163303611449575b505b611447611c19565b565b63ffffffff60015460a01c16421161143d576104d890632aa0018f60e11b5f5261122e565b506020813d6020116114a6575b8161148860209383611249565b810103126104c1576114a16001600160a01b039161127f565b61142b565b3d915061147b565b90506001821480156114d6575b156108465760b01c63ffffffff164211156104c5575061143f565b50600282146114bb565b506113ef6001600160a01b0360015416331490506113e4565b506020813d602011611531575b8161151360209383611249565b810103126104c15761152c6001600160a01b039161127f565b6113d0565b3d9150611506565b60ff61143f9160a81c161580611352565b519081151582036104c157565b519067ffffffffffffffff821682036104c157565b906040516302abf57960e61b81527f4f7261636c65000000000000000000000000000000000000000000000000000060048201526020816024816001600160a01b037f0000000000000000000000000000000000000000000000000000000000000000165afa80156104b6575f90611a3b575b6115f691506001600160a01b033391163314611293565b5f5460ff8160a01c1660088110156104e757600403611a3657604051927f88302884000000000000000000000000000000000000000000000000000000008452600484015261020083602481335afa9283156104b6575f936118b0575b5060e05f9301517f6a58fd32313d79a1021b3b09b8be5fc68037c5d69b07d5535c771b25ca9d770b81145f146117a257505060ff915060ff60a81b1960ff60a81b5f5492151560a81b16911617805f5560a81c165f14611759577f65e0c7182ce84cd9087c1b07dc4b65875578877b885848e4be19ee312f2c3d3160207f6a58fd32313d79a1021b3b09b8be5fc68037c5d69b07d5535c771b25ca9d770b5b604051908152a17f483872b61d8baa4123ce48bdbfc11cc824c853d9848d59d558aa1530400749156117547406000000000000000000000000000000000000000060ff60a01b195f541617805f5560405191829160ff339160a01c1683611306565b0390a1565b7f65e0c7182ce84cd9087c1b07dc4b65875578877b885848e4be19ee312f2c3d3160207fbbc4eebef1a3781f950b7caed20db914a831d2b8ad5d8aa7ff4089b8a0e00f946116f2565b9091907fbbc4eebef1a3781f950b7caed20db914a831d2b8ad5d8aa7ff4089b8a0e00f94146117f7575b505060207f65e0c7182ce84cd9087c1b07dc4b65875578877b885848e4be19ee312f2c3d31916116f2565b60ff925060ff60a81b60ff60a81b19911560a81b16911617805f5560a81c165f14611867577f65e0c7182ce84cd9087c1b07dc4b65875578877b885848e4be19ee312f2c3d3160207f6a58fd32313d79a1021b3b09b8be5fc68037c5d69b07d5535c771b25ca9d770b5b916117cc565b7f65e0c7182ce84cd9087c1b07dc4b65875578877b885848e4be19ee312f2c3d3160207fbbc4eebef1a3781f950b7caed20db914a831d2b8ad5d8aa7ff4089b8a0e00f94611861565b809193506102003d8111611a2f575b6118c98183611249565b8101039061020082126104c1576040519161018083019083821067ffffffffffffffff83111761126b5760a091604052126104c15760405160a0810181811067ffffffffffffffff82111761126b576040526119248261154a565b81526119326020830161154a565b60208201526119436040830161154a565b60408201526119546060830161127f565b60608201526119656080830161127f565b6080820152825261197860a0820161127f565b602083015261198960c08201611557565b604083015261199a60e0820161154a565b60608301526101008101516001600160a01b03811681036104c157611a22916101e09160808501526119cf6101208201611557565b60a08501526119e1610140820161154a565b60c085015261016081015160e08501526101808101516101008501526101a0810151610120850152611a166101c0820161127f565b6101408501520161127f565b610160820152915f611653565b503d6118bf565b505050565b506020813d602011611a6e575b81611a5560209383611249565b810103126104c157611a696115f69161127f565b6115df565b3d9150611a48565b6001600160a01b035f541660405163062b864360e11b8152602081600481855afa9081156104b6575f91611b18575b5015611abb57506001600160a01b036001541690565b602060049160405192838092638da5cb5b60e01b82525afa9081156104b6575f91611ae4575090565b90506020813d602011611b10575b81611aff60209383611249565b810103126104c15761134f9061127f565b3d9150611af2565b90506020813d602011611b4a575b81611b3360209383611249565b810103126104c157611b449061154a565b5f611aa5565b3d9150611b26565b6001600160a01b035f541660405163062b864360e11b8152602081600481855afa9081156104b6575f91611bc0575b5015611bb057602060049160405192838092638da5cb5b60e01b82525afa9081156104b6575f91611ae4575090565b506001600160a01b036001541690565b90506020813d602011611bf2575b81611bdb60209383611249565b810103126104c157611bec9061154a565b5f611b81565b3d9150611bce565b908160209103126104c157516001600160a01b03811681036104c15790565b5f5460ff8160a01c1660088110156104e75760021115611c90575b507f483872b61d8baa4123ce48bdbfc11cc824c853d9848d59d558aa1530400749156117547405000000000000000000000000000000000000000060ff60a01b195f541617805f5560405191829160ff339160a01c1683611306565b60206001600160a01b0391600460405180948193637e062a3560e11b8352165afa80156104b657611cd4915f91611cda575b50611ccb611b52565b60025491611cf9565b5f611c34565b611cf3915060203d60201161082d5761081f8183611249565b5f611cc2565b916001600160a01b03604051927fa9059cbb000000000000000000000000000000000000000000000000000000005f521660045260245260205f60448180865af19060015f5114821615611d88575b60405215611d535750565b6001600160a01b03907f5274afe7000000000000000000000000000000000000000000000000000000005f521660045260245ffd5b906001811516611da057823b15153d15161690611d48565b503d5f823e3d90fdfea26469706673582212209e07dd142560d01f7293e000e055fcac763e09acf3c3a4933fd55e1909decb3c64736f6c63430008220033f0c57e16840df040f15088dc2f81fe391c3923bec73e23a9662efc9c229c6a00",
  "linkReferences": {},
  "deployedLinkReferences": {},
  "immutableReferences": {
    "1735": [
      {
        "length": 32,
        "start": 996
      },
      {
        "length": 32,
        "start": 1451
      },
      {
        "length": 32,
        "start": 2180
      },
      {
        "length": 32,
        "start": 5552
      }
    ]
  },
  "inputSourceName": "project/evm/protocol/Deal.sol",
  "buildInfoId": "solc-0_8_34-15d1eeb96f46e4df59f01893bb8316c6492d103b"
}