{
  "_format": "hh3-artifact-1",
  "contractName": "PexfiVault",
  "sourceName": "evm/protocol/PexfiVault.sol",
  "abi": [
    {
      "inputs": [
        {
          "internalType": "contract PexfiToken",
          "name": "asset_",
          "type": "address"
        }
      ],
      "stateMutability": "nonpayable",
      "type": "constructor"
    },
    {
      "inputs": [],
      "name": "ECDSAInvalidSignature",
      "type": "error"
    },
    {
      "inputs": [
        {
          "internalType": "uint256",
          "name": "length",
          "type": "uint256"
        }
      ],
      "name": "ECDSAInvalidSignatureLength",
      "type": "error"
    },
    {
      "inputs": [
        {
          "internalType": "bytes32",
          "name": "s",
          "type": "bytes32"
        }
      ],
      "name": "ECDSAInvalidSignatureS",
      "type": "error"
    },
    {
      "inputs": [
        {
          "internalType": "address",
          "name": "spender",
          "type": "address"
        },
        {
          "internalType": "uint256",
          "name": "allowance",
          "type": "uint256"
        },
        {
          "internalType": "uint256",
          "name": "needed",
          "type": "uint256"
        }
      ],
      "name": "ERC20InsufficientAllowance",
      "type": "error"
    },
    {
      "inputs": [
        {
          "internalType": "address",
          "name": "sender",
          "type": "address"
        },
        {
          "internalType": "uint256",
          "name": "balance",
          "type": "uint256"
        },
        {
          "internalType": "uint256",
          "name": "needed",
          "type": "uint256"
        }
      ],
      "name": "ERC20InsufficientBalance",
      "type": "error"
    },
    {
      "inputs": [
        {
          "internalType": "address",
          "name": "approver",
          "type": "address"
        }
      ],
      "name": "ERC20InvalidApprover",
      "type": "error"
    },
    {
      "inputs": [
        {
          "internalType": "address",
          "name": "receiver",
          "type": "address"
        }
      ],
      "name": "ERC20InvalidReceiver",
      "type": "error"
    },
    {
      "inputs": [
        {
          "internalType": "address",
          "name": "sender",
          "type": "address"
        }
      ],
      "name": "ERC20InvalidSender",
      "type": "error"
    },
    {
      "inputs": [
        {
          "internalType": "address",
          "name": "spender",
          "type": "address"
        }
      ],
      "name": "ERC20InvalidSpender",
      "type": "error"
    },
    {
      "inputs": [
        {
          "internalType": "uint256",
          "name": "deadline",
          "type": "uint256"
        }
      ],
      "name": "ERC2612ExpiredSignature",
      "type": "error"
    },
    {
      "inputs": [
        {
          "internalType": "address",
          "name": "signer",
          "type": "address"
        },
        {
          "internalType": "address",
          "name": "owner",
          "type": "address"
        }
      ],
      "name": "ERC2612InvalidSigner",
      "type": "error"
    },
    {
      "inputs": [
        {
          "internalType": "address",
          "name": "receiver",
          "type": "address"
        },
        {
          "internalType": "uint256",
          "name": "assets",
          "type": "uint256"
        },
        {
          "internalType": "uint256",
          "name": "max",
          "type": "uint256"
        }
      ],
      "name": "ERC4626ExceededMaxDeposit",
      "type": "error"
    },
    {
      "inputs": [
        {
          "internalType": "address",
          "name": "receiver",
          "type": "address"
        },
        {
          "internalType": "uint256",
          "name": "shares",
          "type": "uint256"
        },
        {
          "internalType": "uint256",
          "name": "max",
          "type": "uint256"
        }
      ],
      "name": "ERC4626ExceededMaxMint",
      "type": "error"
    },
    {
      "inputs": [
        {
          "internalType": "address",
          "name": "owner",
          "type": "address"
        },
        {
          "internalType": "uint256",
          "name": "shares",
          "type": "uint256"
        },
        {
          "internalType": "uint256",
          "name": "max",
          "type": "uint256"
        }
      ],
      "name": "ERC4626ExceededMaxRedeem",
      "type": "error"
    },
    {
      "inputs": [
        {
          "internalType": "address",
          "name": "owner",
          "type": "address"
        },
        {
          "internalType": "uint256",
          "name": "assets",
          "type": "uint256"
        },
        {
          "internalType": "uint256",
          "name": "max",
          "type": "uint256"
        }
      ],
      "name": "ERC4626ExceededMaxWithdraw",
      "type": "error"
    },
    {
      "inputs": [
        {
          "internalType": "address",
          "name": "account",
          "type": "address"
        },
        {
          "internalType": "uint256",
          "name": "currentNonce",
          "type": "uint256"
        }
      ],
      "name": "InvalidAccountNonce",
      "type": "error"
    },
    {
      "inputs": [],
      "name": "InvalidShortString",
      "type": "error"
    },
    {
      "inputs": [
        {
          "internalType": "address",
          "name": "owner",
          "type": "address"
        }
      ],
      "name": "OwnableInvalidOwner",
      "type": "error"
    },
    {
      "inputs": [
        {
          "internalType": "address",
          "name": "account",
          "type": "address"
        }
      ],
      "name": "OwnableUnauthorizedAccount",
      "type": "error"
    },
    {
      "inputs": [
        {
          "internalType": "address",
          "name": "token",
          "type": "address"
        }
      ],
      "name": "SafeERC20FailedOperation",
      "type": "error"
    },
    {
      "inputs": [
        {
          "internalType": "string",
          "name": "str",
          "type": "string"
        }
      ],
      "name": "StringTooLong",
      "type": "error"
    },
    {
      "anonymous": false,
      "inputs": [
        {
          "indexed": true,
          "internalType": "address",
          "name": "owner",
          "type": "address"
        },
        {
          "indexed": true,
          "internalType": "address",
          "name": "spender",
          "type": "address"
        },
        {
          "indexed": false,
          "internalType": "uint256",
          "name": "value",
          "type": "uint256"
        }
      ],
      "name": "Approval",
      "type": "event"
    },
    {
      "anonymous": false,
      "inputs": [
        {
          "indexed": true,
          "internalType": "address",
          "name": "sender",
          "type": "address"
        },
        {
          "indexed": true,
          "internalType": "address",
          "name": "owner",
          "type": "address"
        },
        {
          "indexed": false,
          "internalType": "uint256",
          "name": "assets",
          "type": "uint256"
        },
        {
          "indexed": false,
          "internalType": "uint256",
          "name": "shares",
          "type": "uint256"
        }
      ],
      "name": "Deposit",
      "type": "event"
    },
    {
      "anonymous": false,
      "inputs": [],
      "name": "EIP712DomainChanged",
      "type": "event"
    },
    {
      "anonymous": false,
      "inputs": [
        {
          "indexed": true,
          "internalType": "address",
          "name": "previousOwner",
          "type": "address"
        },
        {
          "indexed": true,
          "internalType": "address",
          "name": "newOwner",
          "type": "address"
        }
      ],
      "name": "OwnershipTransferred",
      "type": "event"
    },
    {
      "anonymous": false,
      "inputs": [
        {
          "indexed": true,
          "internalType": "address",
          "name": "from",
          "type": "address"
        },
        {
          "indexed": true,
          "internalType": "address",
          "name": "to",
          "type": "address"
        },
        {
          "indexed": false,
          "internalType": "uint256",
          "name": "value",
          "type": "uint256"
        }
      ],
      "name": "Transfer",
      "type": "event"
    },
    {
      "anonymous": false,
      "inputs": [
        {
          "indexed": true,
          "internalType": "address",
          "name": "sender",
          "type": "address"
        },
        {
          "indexed": true,
          "internalType": "address",
          "name": "receiver",
          "type": "address"
        },
        {
          "indexed": true,
          "internalType": "address",
          "name": "owner",
          "type": "address"
        },
        {
          "indexed": false,
          "internalType": "uint256",
          "name": "assets",
          "type": "uint256"
        },
        {
          "indexed": false,
          "internalType": "uint256",
          "name": "shares",
          "type": "uint256"
        }
      ],
      "name": "Withdraw",
      "type": "event"
    },
    {
      "inputs": [],
      "name": "DOMAIN_SEPARATOR",
      "outputs": [
        {
          "internalType": "bytes32",
          "name": "",
          "type": "bytes32"
        }
      ],
      "stateMutability": "view",
      "type": "function"
    },
    {
      "inputs": [
        {
          "internalType": "address",
          "name": "owner",
          "type": "address"
        },
        {
          "internalType": "address",
          "name": "spender",
          "type": "address"
        }
      ],
      "name": "allowance",
      "outputs": [
        {
          "internalType": "uint256",
          "name": "",
          "type": "uint256"
        }
      ],
      "stateMutability": "view",
      "type": "function"
    },
    {
      "inputs": [
        {
          "internalType": "address",
          "name": "spender",
          "type": "address"
        },
        {
          "internalType": "uint256",
          "name": "value",
          "type": "uint256"
        }
      ],
      "name": "approve",
      "outputs": [
        {
          "internalType": "bool",
          "name": "",
          "type": "bool"
        }
      ],
      "stateMutability": "nonpayable",
      "type": "function"
    },
    {
      "inputs": [],
      "name": "asset",
      "outputs": [
        {
          "internalType": "address",
          "name": "",
          "type": "address"
        }
      ],
      "stateMutability": "view",
      "type": "function"
    },
    {
      "inputs": [
        {
          "internalType": "address",
          "name": "account",
          "type": "address"
        }
      ],
      "name": "balanceOf",
      "outputs": [
        {
          "internalType": "uint256",
          "name": "",
          "type": "uint256"
        }
      ],
      "stateMutability": "view",
      "type": "function"
    },
    {
      "inputs": [
        {
          "internalType": "uint256",
          "name": "shares",
          "type": "uint256"
        }
      ],
      "name": "convertToAssets",
      "outputs": [
        {
          "internalType": "uint256",
          "name": "",
          "type": "uint256"
        }
      ],
      "stateMutability": "view",
      "type": "function"
    },
    {
      "inputs": [
        {
          "internalType": "uint256",
          "name": "assets",
          "type": "uint256"
        }
      ],
      "name": "convertToShares",
      "outputs": [
        {
          "internalType": "uint256",
          "name": "",
          "type": "uint256"
        }
      ],
      "stateMutability": "view",
      "type": "function"
    },
    {
      "inputs": [],
      "name": "decimals",
      "outputs": [
        {
          "internalType": "uint8",
          "name": "",
          "type": "uint8"
        }
      ],
      "stateMutability": "view",
      "type": "function"
    },
    {
      "inputs": [
        {
          "internalType": "uint256",
          "name": "assets",
          "type": "uint256"
        },
        {
          "internalType": "address",
          "name": "receiver",
          "type": "address"
        }
      ],
      "name": "deposit",
      "outputs": [
        {
          "internalType": "uint256",
          "name": "",
          "type": "uint256"
        }
      ],
      "stateMutability": "nonpayable",
      "type": "function"
    },
    {
      "inputs": [],
      "name": "eip712Domain",
      "outputs": [
        {
          "internalType": "bytes1",
          "name": "fields",
          "type": "bytes1"
        },
        {
          "internalType": "string",
          "name": "name",
          "type": "string"
        },
        {
          "internalType": "string",
          "name": "version",
          "type": "string"
        },
        {
          "internalType": "uint256",
          "name": "chainId",
          "type": "uint256"
        },
        {
          "internalType": "address",
          "name": "verifyingContract",
          "type": "address"
        },
        {
          "internalType": "bytes32",
          "name": "salt",
          "type": "bytes32"
        },
        {
          "internalType": "uint256[]",
          "name": "extensions",
          "type": "uint256[]"
        }
      ],
      "stateMutability": "view",
      "type": "function"
    },
    {
      "inputs": [
        {
          "internalType": "address",
          "name": "",
          "type": "address"
        }
      ],
      "name": "maxDeposit",
      "outputs": [
        {
          "internalType": "uint256",
          "name": "",
          "type": "uint256"
        }
      ],
      "stateMutability": "view",
      "type": "function"
    },
    {
      "inputs": [
        {
          "internalType": "address",
          "name": "",
          "type": "address"
        }
      ],
      "name": "maxMint",
      "outputs": [
        {
          "internalType": "uint256",
          "name": "",
          "type": "uint256"
        }
      ],
      "stateMutability": "view",
      "type": "function"
    },
    {
      "inputs": [
        {
          "internalType": "address",
          "name": "owner",
          "type": "address"
        }
      ],
      "name": "maxRedeem",
      "outputs": [
        {
          "internalType": "uint256",
          "name": "",
          "type": "uint256"
        }
      ],
      "stateMutability": "view",
      "type": "function"
    },
    {
      "inputs": [
        {
          "internalType": "address",
          "name": "owner",
          "type": "address"
        }
      ],
      "name": "maxWithdraw",
      "outputs": [
        {
          "internalType": "uint256",
          "name": "",
          "type": "uint256"
        }
      ],
      "stateMutability": "view",
      "type": "function"
    },
    {
      "inputs": [
        {
          "internalType": "uint256",
          "name": "shares",
          "type": "uint256"
        },
        {
          "internalType": "address",
          "name": "receiver",
          "type": "address"
        }
      ],
      "name": "mint",
      "outputs": [
        {
          "internalType": "uint256",
          "name": "",
          "type": "uint256"
        }
      ],
      "stateMutability": "nonpayable",
      "type": "function"
    },
    {
      "inputs": [],
      "name": "name",
      "outputs": [
        {
          "internalType": "string",
          "name": "",
          "type": "string"
        }
      ],
      "stateMutability": "view",
      "type": "function"
    },
    {
      "inputs": [
        {
          "internalType": "address",
          "name": "owner",
          "type": "address"
        }
      ],
      "name": "nonces",
      "outputs": [
        {
          "internalType": "uint256",
          "name": "",
          "type": "uint256"
        }
      ],
      "stateMutability": "view",
      "type": "function"
    },
    {
      "inputs": [],
      "name": "owner",
      "outputs": [
        {
          "internalType": "address",
          "name": "",
          "type": "address"
        }
      ],
      "stateMutability": "view",
      "type": "function"
    },
    {
      "inputs": [
        {
          "internalType": "address",
          "name": "owner",
          "type": "address"
        },
        {
          "internalType": "address",
          "name": "spender",
          "type": "address"
        },
        {
          "internalType": "uint256",
          "name": "value",
          "type": "uint256"
        },
        {
          "internalType": "uint256",
          "name": "deadline",
          "type": "uint256"
        },
        {
          "internalType": "uint8",
          "name": "v",
          "type": "uint8"
        },
        {
          "internalType": "bytes32",
          "name": "r",
          "type": "bytes32"
        },
        {
          "internalType": "bytes32",
          "name": "s",
          "type": "bytes32"
        }
      ],
      "name": "permit",
      "outputs": [],
      "stateMutability": "nonpayable",
      "type": "function"
    },
    {
      "inputs": [
        {
          "internalType": "uint256",
          "name": "assets",
          "type": "uint256"
        }
      ],
      "name": "previewDeposit",
      "outputs": [
        {
          "internalType": "uint256",
          "name": "",
          "type": "uint256"
        }
      ],
      "stateMutability": "view",
      "type": "function"
    },
    {
      "inputs": [
        {
          "internalType": "uint256",
          "name": "shares",
          "type": "uint256"
        }
      ],
      "name": "previewMint",
      "outputs": [
        {
          "internalType": "uint256",
          "name": "",
          "type": "uint256"
        }
      ],
      "stateMutability": "view",
      "type": "function"
    },
    {
      "inputs": [
        {
          "internalType": "uint256",
          "name": "shares",
          "type": "uint256"
        }
      ],
      "name": "previewRedeem",
      "outputs": [
        {
          "internalType": "uint256",
          "name": "",
          "type": "uint256"
        }
      ],
      "stateMutability": "view",
      "type": "function"
    },
    {
      "inputs": [
        {
          "internalType": "uint256",
          "name": "assets",
          "type": "uint256"
        }
      ],
      "name": "previewWithdraw",
      "outputs": [
        {
          "internalType": "uint256",
          "name": "",
          "type": "uint256"
        }
      ],
      "stateMutability": "view",
      "type": "function"
    },
    {
      "inputs": [
        {
          "internalType": "uint256",
          "name": "shares",
          "type": "uint256"
        },
        {
          "internalType": "address",
          "name": "receiver",
          "type": "address"
        },
        {
          "internalType": "address",
          "name": "owner",
          "type": "address"
        }
      ],
      "name": "redeem",
      "outputs": [
        {
          "internalType": "uint256",
          "name": "",
          "type": "uint256"
        }
      ],
      "stateMutability": "nonpayable",
      "type": "function"
    },
    {
      "inputs": [],
      "name": "renounceOwnership",
      "outputs": [],
      "stateMutability": "nonpayable",
      "type": "function"
    },
    {
      "inputs": [],
      "name": "symbol",
      "outputs": [
        {
          "internalType": "string",
          "name": "",
          "type": "string"
        }
      ],
      "stateMutability": "view",
      "type": "function"
    },
    {
      "inputs": [],
      "name": "totalAssets",
      "outputs": [
        {
          "internalType": "uint256",
          "name": "",
          "type": "uint256"
        }
      ],
      "stateMutability": "view",
      "type": "function"
    },
    {
      "inputs": [],
      "name": "totalSupply",
      "outputs": [
        {
          "internalType": "uint256",
          "name": "",
          "type": "uint256"
        }
      ],
      "stateMutability": "view",
      "type": "function"
    },
    {
      "inputs": [
        {
          "internalType": "address",
          "name": "to",
          "type": "address"
        },
        {
          "internalType": "uint256",
          "name": "value",
          "type": "uint256"
        }
      ],
      "name": "transfer",
      "outputs": [
        {
          "internalType": "bool",
          "name": "",
          "type": "bool"
        }
      ],
      "stateMutability": "nonpayable",
      "type": "function"
    },
    {
      "inputs": [
        {
          "internalType": "address",
          "name": "from",
          "type": "address"
        },
        {
          "internalType": "address",
          "name": "to",
          "type": "address"
        },
        {
          "internalType": "uint256",
          "name": "value",
          "type": "uint256"
        }
      ],
      "name": "transferFrom",
      "outputs": [
        {
          "internalType": "bool",
          "name": "",
          "type": "bool"
        }
      ],
      "stateMutability": "nonpayable",
      "type": "function"
    },
    {
      "inputs": [
        {
          "internalType": "address",
          "name": "newOwner",
          "type": "address"
        }
      ],
      "name": "transferOwnership",
      "outputs": [],
      "stateMutability": "nonpayable",
      "type": "function"
    },
    {
      "inputs": [
        {
          "internalType": "uint256",
          "name": "assets",
          "type": "uint256"
        },
        {
          "internalType": "address",
          "name": "receiver",
          "type": "address"
        },
        {
          "internalType": "address",
          "name": "owner",
          "type": "address"
        }
      ],
      "name": "withdraw",
      "outputs": [
        {
          "internalType": "uint256",
          "name": "",
          "type": "uint256"
        }
      ],
      "stateMutability": "nonpayable",
      "type": "function"
    }
  ],
  "bytecode": "0x6101a080604052346104dd576020816120f2803803809161002082856104e1565b8339810103126104dd57516001600160a01b038116908190036104dd57610045610504565b9061004e610504565b60409283519261005e85856104e1565b600684526573504558464960d01b602085015284519361007e86866104e1565b60018552603160f81b60208601908152845190946001600160401b0382116103d85760035490600182811c921680156104d3575b60208310146103ba5781601f84931161045d575b50602090601f83116001146103f7575f926103ec575b50508160011b915f199060031b1c1916176003555b8051906001600160401b0382116103d85760045490600182811c921680156103ce575b60208310146103ba5781601f849311610344575b50602090601f83116001146102de575f926102d3575b50508160011b915f199060031b1c1916176004555b61015c81610809565b90156102cb575b60a05260805261017281610532565b6101605261017f836106c5565b610180526020815191012091826101205251902080610140524660e05282519060208201927f8b73c3c69bb8fe3d512ecc4cf759cc79239f7b179b0ffacaa9a75d522b39400f84528483015260608201524660808201523060a082015260a081526101eb60c0826104e1565b51902060c052306101005233156102b85760088054336001600160a01b0319821681179092559151916001600160a01b03167f8be0079c531659141344cd1fd0a4f28419497f9722a3daafe3b4186f6b6457e05f80a361183690816108bc82396080518181816108fd01528181610c4b015281816111d701526113c1015260a0518161094f015260c05181611095015260e0518161115201526101005181611066015261012051816110e40152610140518161110a0152610160518161070c015261018051816107350152f35b631e4fbdf760e01b5f525f60045260245ffd5b506012610163565b015190505f8061013e565b60045f9081528281209350601f198516905b81811061032c5750908460019594939210610314575b505050811b01600455610153565b01515f1960f88460031b161c191690555f8080610306565b929360206001819287860151815501950193016102f0565b828111156101285760045f52909150601f830160051c7f8a35acfbc15ff81a39ae7d344fd709f28e8600b4aa8c65c6b64bfe7fe36bd19b602085106103b2575b849392601f0160051c82900391015f5b8281106103a2575050610128565b5f81830155859450600101610394565b5f9150610384565b634e487b7160e01b5f52602260045260245ffd5b91607f1691610114565b634e487b7160e01b5f52604160045260245ffd5b015190505f806100dc565b60035f9081528281209350601f198516905b818110610445575090846001959493921061042d575b505050811b016003556100f1565b01515f1960f88460031b161c191690555f808061041f565b92936020600181928786015181550195019301610409565b828111156100c65760035f52909150601f830160051c7fc2575a0e9e593c00f959f8c92f12db2869c3395a3b0502d05e2516446f71f85b602085106104cb575b849392601f0160051c82900391015f5b8281106104bb5750506100c6565b5f818301558594506001016104ad565b5f915061049d565b91607f16916100b2565b5f80fd5b601f909101601f19168101906001600160401b038211908210176103d857604052565b604051906105136040836104e1565b601082526f05374616b6564205065786669205032560841b6020830152565b908151602081105f146105ac575090601f81511161056c57602081519101516020821061055d571790565b5f198260200360031b1b161790565b604460209160405192839163305a27a960e01b83528160048401528051918291826024860152018484015e5f828201840152601f01601f19168101030190fd5b6001600160401b0381116103d857600554600181811c911680156106bb575b60208210146103ba57601f811161067c575b50602092601f821160011461061b57928192935f92610610575b50508160011b915f199060031b1c19161760055560ff90565b015190505f806105f7565b601f1982169360055f52805f20915f5b868110610664575083600195961061064c575b505050811b0160055560ff90565b01515f1960f88460031b161c191690555f808061063e565b9192602060018192868501518155019401920161062b565b818111156105dd5760055f5260205f20601f80840160051c809201920160051c03905f5b8281106106ae5750506105dd565b5f828201556001016106a0565b90607f16906105cb565b908151602081105f146106f0575090601f81511161056c57602081519101516020821061055d571790565b6001600160401b0381116103d857600654600181811c911680156107ff575b60208210146103ba57601f81116107c0575b50602092601f821160011461075f57928192935f92610754575b50508160011b915f199060031b1c19161760065560ff90565b015190505f8061073b565b601f1982169360065f52805f20915f5b8681106107a85750836001959610610790575b505050811b0160065560ff90565b01515f1960f88460031b161c191690555f8080610782565b9192602060018192868501518155019401920161076f565b818111156107215760065f5260205f20601f80840160051c809201920160051c03905f5b8281106107f2575050610721565b5f828201556001016107e4565b90607f169061070f565b5f8091604051602081019063313ce56760e01b82526004815261082d6024826104e1565b51916001600160a01b03165afa3d156108b3573d906001600160401b0382116103d85760405191610868601f8201601f1916602001846104e1565b82523d5f602084013e5b806108a7575b610884575b505f905f90565b6020818051810103126104dd576020015160ff811161087d579060ff6001921690565b50602081511015610878565b60609061087256fe60806040526004361015610011575f80fd5b5f3560e01c806301e1d11414610ad457806306fdde0314610a2f57806307a2d13a146108d9578063095ea7b314610a095780630a28a477146109eb57806318160ddd146109ce57806323b872dd14610996578063313ce5671461093b5780633644e5151461092157806338d52e0f146108de578063402d267d146104675780634cdad506146108d95780636e553f65146108a657806370a0823114610281578063715018a6146108405780637ecebe001461080857806384b0196e146106f45780638da5cb5b146106ce57806394bf804d1461069b57806395d89b41146105b9578063a9059cbb14610588578063b3d7f6b91461056a578063b460af94146104f4578063ba0876521461046c578063c63d75b614610467578063c6e6f59214610228578063ce96cb7714610444578063d505accf146102be578063d905777e14610281578063dd62ed3e1461022d578063ef8b30f7146102285763f2fde38b14610179575f80fd5b34610224576020366003190112610224576001600160a01b0361019a610b30565b6101a2611280565b1680156101f8576001600160a01b036008548273ffffffffffffffffffffffffffffffffffffffff19821617600855167f8be0079c531659141344cd1fd0a4f28419497f9722a3daafe3b4186f6b6457e05f80a3005b7f1e4fbdf7000000000000000000000000000000000000000000000000000000005f525f60045260245ffd5b5f80fd5b610bbb565b3461022457604036600319011261022457610246610b30565b6001600160a01b03610256610b46565b91165f5260016020526001600160a01b0360405f2091165f52602052602060405f2054604051908152f35b346102245760203660031901126102245760206102b661029f610b30565b6001600160a01b03165f525f60205260405f205490565b604051908152f35b346102245760e0366003190112610224576102d7610b30565b6102df610b46565b604435906064359260843560ff8116810361022457844211610418576103d36103ca6001600160a01b039283851697885f52600760205260405f20908154916001830190556040519060208201927f6e71edae12b1b97f4d1f60370fef10105fa2faae0126114a169c64845d6126c984528b6040840152878a1660608401528a608084015260a083015260c082015260c0815261037d60e082610bd9565b51902061038861105c565b90604051917f190100000000000000000000000000000000000000000000000000000000000083526002830152602282015260c43591604260a435922061158d565b9092919261162d565b168481036103e857506103e6935061147a565b005b84907f4b800e46000000000000000000000000000000000000000000000000000000005f5260045260245260445ffd5b847f62791302000000000000000000000000000000000000000000000000000000005f5260045260245ffd5b346102245760203660031901126102245760206102b6610462610b30565b610d71565b610b5c565b346102245761047a36610b81565b9190610497836001600160a01b03165f525f60205260405f205490565b8083116104b8576020846102b685856104af82610dcb565b938491336112c0565b826001600160a01b03857fb94abeec000000000000000000000000000000000000000000000000000000005f521660045260245260445260645ffd5b346102245761050236610b81565b909161050d82610d71565b80821161052e5750602092816105256102b693610df8565b938492336112c0565b916001600160a01b03907ffe9cceec000000000000000000000000000000000000000000000000000000005f521660045260245260445260645ffd5b346102245760203660031901126102245760206102b6600435610d9d565b34610224576040366003190112610224576105ae6105a4610b30565b6024359033610f6d565b602060405160018152f35b34610224575f366003190112610224576040515f6004546105d981610cb8565b80845290600181169081156106775750600114610619575b6106158361060181850382610bd9565b604051918291602083526020830190610aee565b0390f35b60045f9081527f8a35acfbc15ff81a39ae7d344fd709f28e8600b4aa8c65c6b64bfe7fe36bd19b939250905b80821061065d575090915081016020016106016105f1565b919260018160209254838588010152019101909291610645565b60ff191660208086019190915291151560051b8401909101915061060190506105f1565b346102245760403660031901126102245760206004356102b66106bc610b46565b916106c681610d9d565b809333611178565b34610224575f3660031901126102245760206001600160a01b0360085416604051908152f35b34610224575f366003190112610224576107ac6107307f00000000000000000000000000000000000000000000000000000000000000006114dd565b6107597f0000000000000000000000000000000000000000000000000000000000000000611556565b60206107ba6040519261076c8385610bd9565b5f84525f3681376040519586957f0f00000000000000000000000000000000000000000000000000000000000000875260e08588015260e0870190610aee565b908582036040870152610aee565b4660608501523060808501525f60a085015283810360c08501528180845192838152019301915f5b8281106107f157505050500390f35b8351855286955093810193928101926001016107e2565b34610224576020366003190112610224576001600160a01b03610829610b30565b165f526007602052602060405f2054604051908152f35b34610224575f36600319011261022457610858611280565b5f6001600160a01b0360085473ffffffffffffffffffffffffffffffffffffffff198116600855167f8be0079c531659141344cd1fd0a4f28419497f9722a3daafe3b4186f6b6457e08280a3005b346102245760403660031901126102245760206004356102b66108c7610b46565b6108d083610e26565b92839133611178565b610b12565b34610224575f3660031901126102245760206040516001600160a01b037f0000000000000000000000000000000000000000000000000000000000000000168152f35b34610224575f3660031901126102245760206102b661105c565b34610224575f3660031901126102245760ff7f00000000000000000000000000000000000000000000000000000000000000001660ff811161098257602090604051908152f35b634e487b7160e01b5f52601160045260245ffd5b34610224576060366003190112610224576105ae6109b2610b30565b6109ba610b46565b604435916109c9833383610e53565b610f6d565b34610224575f366003190112610224576020600254604051908152f35b346102245760203660031901126102245760206102b6600435610df8565b34610224576040366003190112610224576105ae610a25610b30565b602435903361147a565b34610224575f366003190112610224576040515f600354610a4f81610cb8565b80845290600181169081156106775750600114610a76576106158361060181850382610bd9565b60035f9081527fc2575a0e9e593c00f959f8c92f12db2869c3395a3b0502d05e2516446f71f85b939250905b808210610aba575090915081016020016106016105f1565b919260018160209254838588010152019101909291610aa2565b34610224575f3660031901126102245760206102b6610c0f565b805180835260209291819084018484015e5f828201840152601f01601f1916010190565b346102245760203660031901126102245760206102b6600435610dcb565b600435906001600160a01b038216820361022457565b602435906001600160a01b038216820361022457565b3461022457602036600319011261022457610b75610b30565b5060206040515f198152f35b606090600319011261022457600435906024356001600160a01b038116810361022457906044356001600160a01b03811681036102245790565b346102245760203660031901126102245760206102b6600435610e26565b90601f8019910116810190811067ffffffffffffffff821117610bfb57604052565b634e487b7160e01b5f52604160045260245ffd5b6040517f70a082310000000000000000000000000000000000000000000000000000000081523060048201526020816024816001600160a01b037f0000000000000000000000000000000000000000000000000000000000000000165afa908115610cad575f91610c7e575090565b90506020813d602011610ca5575b81610c9960209383610bd9565b81010312610224575190565b3d9150610c8c565b6040513d5f823e3d90fd5b90600182811c92168015610ce6575b6020831014610cd257565b634e487b7160e01b5f52602260045260245ffd5b91607f1691610cc7565b5f9291815491610cff83610cb8565b8083529260018116908115610d545750600114610d1b57505050565b5f9081526020812093945091925b838310610d3a575060209250010190565b600181602092949394548385870101520191019190610d29565b915050602093945060ff929192191683830152151560051b010190565b6001600160a01b03165f525f602052610d8d60405f2054610dcb565b90565b9190820180921161098257565b610da5610c0f565b9060018201809211610982576002546001810180911161098257610d8d9260019261141d565b610dd3610c0f565b9060018201809211610982576002546001810180911161098257610d8d925f9261141d565b600254906001820180921161098257610e0f610c0f565b6001810180911161098257610d8d9260019261141d565b600254906001820180921161098257610e3d610c0f565b6001810180911161098257610d8d925f9261141d565b6001600160a01b03909291921691825f52600160205260405f206001600160a01b0382165f5260205260405f2054925f198410610e91575b50505050565b828410610f30578015610f04576001600160a01b03821615610ed8575f5260016020526001600160a01b0360405f2091165f5260205260405f20910390555f808080610e8b565b7f94280d62000000000000000000000000000000000000000000000000000000005f525f60045260245ffd5b7fe602df05000000000000000000000000000000000000000000000000000000005f525f60045260245ffd5b506001600160a01b0383917ffb8f41b2000000000000000000000000000000000000000000000000000000005f521660045260245260445260645ffd5b6001600160a01b0316908115611030576001600160a01b031691821561100457815f525f60205260405f2054818110610feb57817fddf252ad1be2c89b69c2b068fc378daa952ba7f163c4a11628f55a4df523b3ef92602092855f525f84520360405f2055845f525f825260405f20818154019055604051908152a3565b8263391434e360e21b5f5260045260245260445260645ffd5b7fec442f05000000000000000000000000000000000000000000000000000000005f525f60045260245ffd5b7f96c6fd1e000000000000000000000000000000000000000000000000000000005f525f60045260245ffd5b6001600160a01b037f00000000000000000000000000000000000000000000000000000000000000001630148061114f575b156110b7577f000000000000000000000000000000000000000000000000000000000000000090565b60405160208101907f8b73c3c69bb8fe3d512ecc4cf759cc79239f7b179b0ffacaa9a75d522b39400f82527f000000000000000000000000000000000000000000000000000000000000000060408201527f000000000000000000000000000000000000000000000000000000000000000060608201524660808201523060a082015260a0815261114960c082610bd9565b51902090565b507f0000000000000000000000000000000000000000000000000000000000000000461461108e565b91906001600160a01b03906111fc82604051957f23b872dd0000000000000000000000000000000000000000000000000000000060208801521694856024820152306044820152846064820152606481526111d4608482610bd9565b837f000000000000000000000000000000000000000000000000000000000000000016611793565b16928315611004577fdcbc1c05240f31ff3ad067ef1ee35ce4997762752e3a095284754544f4c709d79181611235604093600254610d90565b600255855f525f602052825f20818154019055855f7fddf252ad1be2c89b69c2b068fc378daa952ba7f163c4a11628f55a4df523b3ef60208651858152a382519182526020820152a3565b6001600160a01b0360085416330361129457565b7f118cdaa7000000000000000000000000000000000000000000000000000000005f523360045260245ffd5b91939290926001600160a01b03851694816001600160a01b0385169487860361140c575b505050841561103057845f525f60205260405f20548181106113f35791816040927ffbde797d201c681b91056529119e0b02407c7bb96a4a2c75c01fc9667232c8db94885f525f60205203835f205580600254036002555f877fddf252ad1be2c89b69c2b068fc378daa952ba7f163c4a11628f55a4df523b3ef60208651858152a36113e66001600160a01b038451977fa9059cbb0000000000000000000000000000000000000000000000000000000060208a01521696876024820152836044820152604481526113b7606482610bd9565b6001600160a01b037f000000000000000000000000000000000000000000000000000000000000000016611793565b82519182526020820152a4565b8563391434e360e21b5f5260045260245260445260645ffd5b61141592610e53565b5f81816112e4565b929160018061142d8385886116f4565b946114378161160f565b1614918261144f575b5050610d8d9250151590610d90565b908092501561146657610d8d930915155f80611440565b634e487b7160e01b5f52601260045260245ffd5b6001600160a01b0316908115610f04576001600160a01b0316918215610ed85760207f8c5be1e5ebec7d5bd14f71427d1e84f3dd0314c0f7b2291e5b200ac8c7c3b92591835f526001825260405f20855f5282528060405f2055604051908152a3565b60ff811461153c5760ff811690601f82116115145760405191611501604084610bd9565b6020808452838101919036833783525290565b7fb3512b0c000000000000000000000000000000000000000000000000000000005f5260045ffd5b50604051610d8d8161154f816005610cf0565b0382610bd9565b60ff811461157a5760ff811690601f82116115145760405191611501604084610bd9565b50604051610d8d8161154f816006610cf0565b91907f7fffffffffffffffffffffffffffffff5d576e7357a4501ddfe92f46681b20a08411611604579160209360809260ff5f9560405194855216868401526040830152606082015282805260015afa15610cad575f516001600160a01b038116156115fa57905f905f90565b505f906001905f90565b5050505f9160039190565b6004111561161957565b634e487b7160e01b5f52602160045260245ffd5b6116368161160f565b8061163f575050565b6116488161160f565b60018103611678577ff645eedf000000000000000000000000000000000000000000000000000000005f5260045ffd5b6116818161160f565b600281036116b557507ffce698f7000000000000000000000000000000000000000000000000000000005f5260045260245ffd5b6003906116c18161160f565b146116c95750565b7fd78bce0c000000000000000000000000000000000000000000000000000000005f5260045260245ffd5b90915f198383099280830292838086109503948086039514611785578483111561176d5790829109815f0382168092046002816003021880820260020302808202600203028082026002030280820260020302808202600203028091026002030293600183805f03040190848311900302920304170290565b82634e487b715f52156003026011186020526024601cfd5b505080925015611466570490565b905f602091828151910182855af115610cad575f513d6117f757506001600160a01b0381163b155b6117c25750565b6001600160a01b03907f5274afe7000000000000000000000000000000000000000000000000000000005f521660045260245ffd5b600114156117bb56fea264697066735822122083a4a875ee8bb4a7d95231d3ef654cffdccf88fb6c514097143f9ab9ba2e2ce564736f6c63430008220033",
  "linkReferences": {},
  "deployedLinkReferences": {},
  "immutableReferences": {
    "1385": [
      {
        "length": 32,
        "start": 2301
      },
      {
        "length": 32,
        "start": 3147
      },
      {
        "length": 32,
        "start": 4567
      },
      {
        "length": 32,
        "start": 5057
      }
    ],
    "1387": [
      {
        "length": 32,
        "start": 2383
      }
    ],
    "4844": [
      {
        "length": 32,
        "start": 4245
      }
    ],
    "4846": [
      {
        "length": 32,
        "start": 4434
      }
    ],
    "4848": [
      {
        "length": 32,
        "start": 4198
      }
    ],
    "4850": [
      {
        "length": 32,
        "start": 4324
      }
    ],
    "4852": [
      {
        "length": 32,
        "start": 4362
      }
    ],
    "4855": [
      {
        "length": 32,
        "start": 1804
      }
    ],
    "4858": [
      {
        "length": 32,
        "start": 1845
      }
    ]
  },
  "inputSourceName": "project/evm/protocol/PexfiVault.sol",
  "buildInfoId": "solc-0_8_34-6ec14da92174af5ee8c45652f31a97bdca881028"
}