{
  "_format": "hh3-artifact-1",
  "contractName": "Market",
  "sourceName": "evm/protocol/Market.sol",
  "abi": [
    {
      "inputs": [
        {
          "internalType": "address",
          "name": "usdc_",
          "type": "address"
        }
      ],
      "stateMutability": "nonpayable",
      "type": "constructor"
    },
    {
      "inputs": [
        {
          "internalType": "enum IDeal.State",
          "name": "state",
          "type": "uint8"
        }
      ],
      "name": "ActionNotAllowedInThisState",
      "type": "error"
    },
    {
      "inputs": [
        {
          "internalType": "address",
          "name": "target",
          "type": "address"
        }
      ],
      "name": "AddressEmptyCode",
      "type": "error"
    },
    {
      "inputs": [
        {
          "internalType": "address",
          "name": "implementation",
          "type": "address"
        }
      ],
      "name": "ERC1967InvalidImplementation",
      "type": "error"
    },
    {
      "inputs": [],
      "name": "ERC1967NonPayable",
      "type": "error"
    },
    {
      "inputs": [],
      "name": "FailedCall",
      "type": "error"
    },
    {
      "inputs": [],
      "name": "FailedDeployment",
      "type": "error"
    },
    {
      "inputs": [
        {
          "internalType": "uint256",
          "name": "balance",
          "type": "uint256"
        },
        {
          "internalType": "uint256",
          "name": "needed",
          "type": "uint256"
        }
      ],
      "name": "InsufficientBalance",
      "type": "error"
    },
    {
      "inputs": [],
      "name": "InvalidArgument",
      "type": "error"
    },
    {
      "inputs": [
        {
          "internalType": "bytes32",
          "name": "fiat",
          "type": "bytes32"
        }
      ],
      "name": "InvalidFiat",
      "type": "error"
    },
    {
      "inputs": [],
      "name": "InvalidInitialization",
      "type": "error"
    },
    {
      "inputs": [],
      "name": "InvalidLimits",
      "type": "error"
    },
    {
      "inputs": [
        {
          "internalType": "uint256",
          "name": "method",
          "type": "uint256"
        }
      ],
      "name": "InvalidMethod",
      "type": "error"
    },
    {
      "inputs": [],
      "name": "InvalidRate",
      "type": "error"
    },
    {
      "inputs": [
        {
          "internalType": "contract IERC20",
          "name": "token",
          "type": "address"
        }
      ],
      "name": "InvalidToken",
      "type": "error"
    },
    {
      "inputs": [],
      "name": "NotInitializing",
      "type": "error"
    },
    {
      "inputs": [
        {
          "internalType": "address",
          "name": "owner",
          "type": "address"
        }
      ],
      "name": "OwnableInvalidOwner",
      "type": "error"
    },
    {
      "inputs": [
        {
          "internalType": "address",
          "name": "account",
          "type": "address"
        }
      ],
      "name": "OwnableUnauthorizedAccount",
      "type": "error"
    },
    {
      "inputs": [
        {
          "internalType": "address",
          "name": "token",
          "type": "address"
        }
      ],
      "name": "SafeERC20FailedOperation",
      "type": "error"
    },
    {
      "inputs": [],
      "name": "UUPSUnauthorizedCallContext",
      "type": "error"
    },
    {
      "inputs": [
        {
          "internalType": "bytes32",
          "name": "slot",
          "type": "bytes32"
        }
      ],
      "name": "UUPSUnsupportedProxiableUUID",
      "type": "error"
    },
    {
      "inputs": [
        {
          "internalType": "address",
          "name": "account",
          "type": "address"
        }
      ],
      "name": "UnauthorizedAccount",
      "type": "error"
    },
    {
      "inputs": [],
      "name": "UnknownOffer",
      "type": "error"
    },
    {
      "anonymous": false,
      "inputs": [
        {
          "indexed": true,
          "internalType": "address",
          "name": "offerOwner",
          "type": "address"
        },
        {
          "indexed": false,
          "internalType": "address",
          "name": "taker",
          "type": "address"
        },
        {
          "indexed": false,
          "internalType": "address",
          "name": "offer",
          "type": "address"
        },
        {
          "indexed": false,
          "internalType": "address",
          "name": "deal",
          "type": "address"
        },
        {
          "indexed": false,
          "internalType": "bytes16",
          "name": "method",
          "type": "bytes16"
        },
        {
          "indexed": false,
          "internalType": "string",
          "name": "terms",
          "type": "string"
        },
        {
          "indexed": false,
          "internalType": "string",
          "name": "paymentInstructions",
          "type": "string"
        }
      ],
      "name": "DealCreated",
      "type": "event"
    },
    {
      "anonymous": false,
      "inputs": [
        {
          "indexed": false,
          "internalType": "bytes32",
          "name": "symbol",
          "type": "bytes32"
        },
        {
          "indexed": false,
          "internalType": "contract IChainlink",
          "name": "feed",
          "type": "address"
        }
      ],
      "name": "FiatAdded",
      "type": "event"
    },
    {
      "anonymous": false,
      "inputs": [
        {
          "indexed": false,
          "internalType": "bytes32",
          "name": "symbol",
          "type": "bytes32"
        }
      ],
      "name": "FiatRemoved",
      "type": "event"
    },
    {
      "anonymous": false,
      "inputs": [
        {
          "indexed": false,
          "internalType": "uint64",
          "name": "version",
          "type": "uint64"
        }
      ],
      "name": "Initialized",
      "type": "event"
    },
    {
      "anonymous": false,
      "inputs": [
        {
          "indexed": false,
          "internalType": "bytes16",
          "name": "name",
          "type": "bytes16"
        },
        {
          "indexed": false,
          "internalType": "uint256",
          "name": "index",
          "type": "uint256"
        }
      ],
      "name": "MethodAdded",
      "type": "event"
    },
    {
      "anonymous": false,
      "inputs": [
        {
          "indexed": false,
          "internalType": "uint256",
          "name": "mask",
          "type": "uint256"
        }
      ],
      "name": "MethodsDisabledMask",
      "type": "event"
    },
    {
      "anonymous": false,
      "inputs": [
        {
          "indexed": false,
          "internalType": "address",
          "name": "owner",
          "type": "address"
        },
        {
          "indexed": false,
          "internalType": "contract IERC20",
          "name": "token",
          "type": "address"
        },
        {
          "indexed": false,
          "internalType": "bytes32",
          "name": "fiat",
          "type": "bytes32"
        },
        {
          "indexed": false,
          "internalType": "contract IOffer",
          "name": "offer",
          "type": "address"
        }
      ],
      "name": "OfferCreated",
      "type": "event"
    },
    {
      "anonymous": false,
      "inputs": [
        {
          "indexed": true,
          "internalType": "address",
          "name": "previousOwner",
          "type": "address"
        },
        {
          "indexed": true,
          "internalType": "address",
          "name": "newOwner",
          "type": "address"
        }
      ],
      "name": "OwnershipTransferred",
      "type": "event"
    },
    {
      "anonymous": false,
      "inputs": [
        {
          "indexed": false,
          "internalType": "contract IERC20",
          "name": "address_",
          "type": "address"
        }
      ],
      "name": "TokenAdded",
      "type": "event"
    },
    {
      "anonymous": false,
      "inputs": [
        {
          "indexed": false,
          "internalType": "contract IERC20",
          "name": "address_",
          "type": "address"
        }
      ],
      "name": "TokenRemoved",
      "type": "event"
    },
    {
      "anonymous": false,
      "inputs": [
        {
          "indexed": true,
          "internalType": "address",
          "name": "implementation",
          "type": "address"
        }
      ],
      "name": "Upgraded",
      "type": "event"
    },
    {
      "inputs": [],
      "name": "UPGRADE_INTERFACE_VERSION",
      "outputs": [
        {
          "internalType": "string",
          "name": "",
          "type": "string"
        }
      ],
      "stateMutability": "view",
      "type": "function"
    },
    {
      "inputs": [],
      "name": "USDC",
      "outputs": [
        {
          "internalType": "address",
          "name": "",
          "type": "address"
        }
      ],
      "stateMutability": "view",
      "type": "function"
    },
    {
      "inputs": [
        {
          "internalType": "contract IDeal",
          "name": "deal",
          "type": "address"
        },
        {
          "internalType": "bytes16",
          "name": "method",
          "type": "bytes16"
        },
        {
          "internalType": "string",
          "name": "terms",
          "type": "string"
        },
        {
          "internalType": "string",
          "name": "paymentInstructions",
          "type": "string"
        }
      ],
      "name": "addDeal",
      "outputs": [],
      "stateMutability": "nonpayable",
      "type": "function"
    },
    {
      "inputs": [
        {
          "internalType": "bytes3",
          "name": "symbol_",
          "type": "bytes3"
        },
        {
          "internalType": "contract IChainlink",
          "name": "chainlink_",
          "type": "address"
        }
      ],
      "name": "addFiat",
      "outputs": [],
      "stateMutability": "nonpayable",
      "type": "function"
    },
    {
      "inputs": [
        {
          "internalType": "bytes16[]",
          "name": "names_",
          "type": "bytes16[]"
        }
      ],
      "name": "addMethods",
      "outputs": [],
      "stateMutability": "nonpayable",
      "type": "function"
    },
    {
      "inputs": [
        {
          "internalType": "contract IERC20",
          "name": "address_",
          "type": "address"
        },
        {
          "components": [
            {
              "internalType": "contract IUniswapV3Pool",
              "name": "pool",
              "type": "address"
            },
            {
              "internalType": "uint8",
              "name": "decimals",
              "type": "uint8"
            }
          ],
          "internalType": "struct IMarket.Token",
          "name": "token_",
          "type": "tuple"
        }
      ],
      "name": "addToken",
      "outputs": [],
      "stateMutability": "nonpayable",
      "type": "function"
    },
    {
      "inputs": [
        {
          "internalType": "uint256",
          "name": "amount_",
          "type": "uint256"
        },
        {
          "internalType": "bytes3",
          "name": "fromFiat_",
          "type": "bytes3"
        },
        {
          "internalType": "contract IERC20",
          "name": "toToken_",
          "type": "address"
        },
        {
          "internalType": "uint256",
          "name": "denominator",
          "type": "uint256"
        }
      ],
      "name": "convert",
      "outputs": [
        {
          "internalType": "uint256",
          "name": "amount",
          "type": "uint256"
        }
      ],
      "stateMutability": "view",
      "type": "function"
    },
    {
      "inputs": [
        {
          "components": [
            {
              "internalType": "bool",
              "name": "isSell",
              "type": "bool"
            },
            {
              "internalType": "uint16",
              "name": "rate",
              "type": "uint16"
            },
            {
              "components": [
                {
                  "internalType": "uint32",
                  "name": "min",
                  "type": "uint32"
                },
                {
                  "internalType": "uint32",
                  "name": "max",
                  "type": "uint32"
                }
              ],
              "internalType": "struct IOffer.Limits",
              "name": "limits",
              "type": "tuple"
            },
            {
              "internalType": "contract IERC20",
              "name": "token",
              "type": "address"
            },
            {
              "internalType": "bytes3",
              "name": "fiat",
              "type": "bytes3"
            },
            {
              "internalType": "uint256",
              "name": "methods",
              "type": "uint256"
            },
            {
              "internalType": "string",
              "name": "terms",
              "type": "string"
            }
          ],
          "internalType": "struct IOffer.OfferParams",
          "name": "params",
          "type": "tuple"
        }
      ],
      "name": "createOffer",
      "outputs": [],
      "stateMutability": "nonpayable",
      "type": "function"
    },
    {
      "inputs": [
        {
          "internalType": "address",
          "name": "",
          "type": "address"
        }
      ],
      "name": "deals",
      "outputs": [
        {
          "internalType": "bool",
          "name": "",
          "type": "bool"
        }
      ],
      "stateMutability": "view",
      "type": "function"
    },
    {
      "inputs": [
        {
          "internalType": "uint256",
          "name": "mask",
          "type": "uint256"
        }
      ],
      "name": "disableMethods",
      "outputs": [],
      "stateMutability": "nonpayable",
      "type": "function"
    },
    {
      "inputs": [],
      "name": "disabledMethodsMask",
      "outputs": [
        {
          "internalType": "uint256",
          "name": "",
          "type": "uint256"
        }
      ],
      "stateMutability": "view",
      "type": "function"
    },
    {
      "inputs": [
        {
          "internalType": "uint256",
          "name": "mask",
          "type": "uint256"
        }
      ],
      "name": "enableMethods",
      "outputs": [],
      "stateMutability": "nonpayable",
      "type": "function"
    },
    {
      "inputs": [],
      "name": "fee",
      "outputs": [
        {
          "internalType": "uint8",
          "name": "",
          "type": "uint8"
        }
      ],
      "stateMutability": "view",
      "type": "function"
    },
    {
      "inputs": [
        {
          "internalType": "bytes3",
          "name": "",
          "type": "bytes3"
        }
      ],
      "name": "fiats",
      "outputs": [
        {
          "internalType": "contract IChainlink",
          "name": "",
          "type": "address"
        }
      ],
      "stateMutability": "view",
      "type": "function"
    },
    {
      "inputs": [],
      "name": "finder",
      "outputs": [
        {
          "internalType": "contract FinderInterface",
          "name": "",
          "type": "address"
        }
      ],
      "stateMutability": "view",
      "type": "function"
    },
    {
      "inputs": [],
      "name": "fundDeal",
      "outputs": [],
      "stateMutability": "nonpayable",
      "type": "function"
    },
    {
      "inputs": [
        {
          "internalType": "contract IERC20",
          "name": "token_",
          "type": "address"
        },
        {
          "internalType": "bytes3",
          "name": "fiat_",
          "type": "bytes3"
        }
      ],
      "name": "getPrice",
      "outputs": [
        {
          "internalType": "uint256",
          "name": "price",
          "type": "uint256"
        }
      ],
      "stateMutability": "view",
      "type": "function"
    },
    {
      "inputs": [
        {
          "internalType": "address",
          "name": "finder_",
          "type": "address"
        }
      ],
      "name": "initialize",
      "outputs": [],
      "stateMutability": "nonpayable",
      "type": "function"
    },
    {
      "inputs": [
        {
          "internalType": "uint256",
          "name": "",
          "type": "uint256"
        }
      ],
      "name": "methods",
      "outputs": [
        {
          "internalType": "bytes16",
          "name": "",
          "type": "bytes16"
        }
      ],
      "stateMutability": "view",
      "type": "function"
    },
    {
      "inputs": [
        {
          "internalType": "address",
          "name": "",
          "type": "address"
        }
      ],
      "name": "offers",
      "outputs": [
        {
          "internalType": "bool",
          "name": "",
          "type": "bool"
        }
      ],
      "stateMutability": "view",
      "type": "function"
    },
    {
      "inputs": [],
      "name": "owner",
      "outputs": [
        {
          "internalType": "address",
          "name": "",
          "type": "address"
        }
      ],
      "stateMutability": "view",
      "type": "function"
    },
    {
      "inputs": [],
      "name": "proxiableUUID",
      "outputs": [
        {
          "internalType": "bytes32",
          "name": "",
          "type": "bytes32"
        }
      ],
      "stateMutability": "view",
      "type": "function"
    },
    {
      "inputs": [
        {
          "internalType": "bytes3",
          "name": "symbol_",
          "type": "bytes3"
        }
      ],
      "name": "removeFiat",
      "outputs": [],
      "stateMutability": "nonpayable",
      "type": "function"
    },
    {
      "inputs": [
        {
          "internalType": "contract IERC20",
          "name": "address_",
          "type": "address"
        }
      ],
      "name": "removeToken",
      "outputs": [],
      "stateMutability": "nonpayable",
      "type": "function"
    },
    {
      "inputs": [],
      "name": "renounceOwnership",
      "outputs": [],
      "stateMutability": "nonpayable",
      "type": "function"
    },
    {
      "inputs": [
        {
          "internalType": "uint8",
          "name": "fee_",
          "type": "uint8"
        }
      ],
      "name": "setFee",
      "outputs": [],
      "stateMutability": "nonpayable",
      "type": "function"
    },
    {
      "inputs": [
        {
          "internalType": "contract IERC20",
          "name": "",
          "type": "address"
        }
      ],
      "name": "tokens",
      "outputs": [
        {
          "internalType": "contract IUniswapV3Pool",
          "name": "pool",
          "type": "address"
        },
        {
          "internalType": "uint8",
          "name": "decimals",
          "type": "uint8"
        }
      ],
      "stateMutability": "view",
      "type": "function"
    },
    {
      "inputs": [
        {
          "internalType": "address",
          "name": "newOwner",
          "type": "address"
        }
      ],
      "name": "transferOwnership",
      "outputs": [],
      "stateMutability": "nonpayable",
      "type": "function"
    },
    {
      "inputs": [
        {
          "internalType": "address",
          "name": "newImplementation",
          "type": "address"
        },
        {
          "internalType": "bytes",
          "name": "data",
          "type": "bytes"
        }
      ],
      "name": "upgradeToAndCall",
      "outputs": [],
      "stateMutability": "payable",
      "type": "function"
    }
  ],
  "bytecode": "0x60c03461012457601f612c6538819003918201601f19168301916001600160401b038311848410176101285780849260209460405283398101031261012457516001600160a01b0381168103610124573060805260a0525f516020612c455f395f51905f525460ff8160401c16610115576002600160401b03196001600160401b038216016100bf575b604051612b08908161013d82396080518181816112c1015261139c015260a05181818161108101528181611d4f0152611ded0152f35b6001600160401b0319166001600160401b039081175f516020612c455f395f51905f52556040519081527fc7f505b2f371ae2175ee4913f4499e1f2633a7b5936321eed1cdaeb6115181d290602090a15f610089565b63f92ee8a960e01b5f5260045ffd5b5f80fd5b634e487b7160e01b5f52604160045260245ffdfe60806040526004361015610011575f80fd5b5f5f3560e01c8063128053e214611a3b57806322face8a146117155780633227a3d4146116d85780633766a74714611648578063413bf38f1461160b5780634f1ef2861461132057806352d1902d146112a65780635fa7b584146112415780636a69b8a6146111cf578063715018a614611136578063832501d1146110f5578063887bf3ef146110a557806389a30271146110615780638da5cb5b1461101b5780639f75824814610ffd578063a301d25114610fbb578063a3eab67f14610f86578063a7842b0514610f33578063ab6a3e6a14610dda578063ad3cb1cc14610d66578063aeb35ebe146108d0578063b9a3c84c146108aa578063c4d66de8146106c7578063c5f2b41414610281578063cb122a0914610247578063d81bffaa146101f5578063ddca3f43146101d4578063e4860339146101885763f2fde38b14610159575f80fd5b3461018557602036600319011261018557610182610175611b29565b61017d6127b4565b6126f9565b80f35b80fd5b503461018557602036600319011261018557604080916001600160a01b036101ae611b29565b1681526001602052205460ff8251916001600160a01b038116835260a01c166020820152f35b5034610185578060031936011261018557602060ff60055416604051908152f35b50346101855760203660031901126101855761020f6127b4565b7f7e13308d621ccab0127012a309f9c2b5e0aaa7b20f923d0e7f3866967d7b054e60206004356004541780600455604051908152a180f35b50346101855760203660031901126101855760043560ff811680910361027d5761026f6127b4565b60ff19600554161760055580f35b5080fd5b503461018557806003193601126101855733815260076020526102ab3360ff604084205416611c41565b6040517fc19d93fb000000000000000000000000000000000000000000000000000000008152602081600481335afa90811561050b57829161068c575b5060088110156106785760010361064b576040516360146f8360e11b8152602081600481335afa801561050b576001600160a01b0391839161062c575b5016604051907ffc0c546a000000000000000000000000000000000000000000000000000000008252602082600481845afa9182156105455783926105e4575b506040517f0c570c86000000000000000000000000000000000000000000000000000000008152602081600481855afa9081156105d957849161059a575b501561055057602060049160405192838092638da5cb5b60e01b82525afa908115610545578391610516575b505b82604051917feec7faa1000000000000000000000000000000000000000000000000000000008352602083600481335afa801561050b5782906104d8575b60209350604051906001600160a01b03858301937f23b872dd000000000000000000000000000000000000000000000000000000008552166024830152336044830152606482015260648152610466608482611b9b565b519082855af1156104cb5781513d6104c257506001600160a01b0381163b155b61048e575080f35b7f5274afe70000000000000000000000000000000000000000000000000000000082526001600160a01b0316600452602490fd5b60011415610486565b50604051903d90823e3d90fd5b506020833d602011610503575b816104f260209383611b9b565b8101031261027d576020925161040f565b3d91506104e5565b6040513d84823e3d90fd5b610538915060203d60201161053e575b6105308183611b9b565b810190611c7e565b5f6103cf565b503d610526565b6040513d85823e3d90fd5b50604051633c159b0160e11b8152602081600481335afa90811561054557839161057b575b506103d1565b610594915060203d60201161053e576105308183611b9b565b5f610575565b90506020813d6020116105d1575b816105b560209383611b9b565b810103126105cd575180151581036105cd575f6103a3565b8380fd5b3d91506105a8565b6040513d86823e3d90fd5b9091506020813d602011610624575b8161060060209383611b9b565b8101031261062057516001600160a01b038116810361062057905f610365565b8280fd5b3d91506105f3565b610645915060203d60201161053e576105308183611b9b565b5f610325565b807f5540031e00000000000000000000000000000000000000000000000000000000602492526001600452fd5b602482634e487b7160e01b81526021600452fd5b90506020813d6020116106bf575b816106a760209383611b9b565b8101031261027d5751600881101561027d575f6102e8565b3d915061069a565b5034610185576020366003190112610185576106e1611b29565b7ff0c57e16840df040f15088dc2f81fe391c3923bec73e23a9662efc9c229c6a00549060ff8260401c16159167ffffffffffffffff8116801590816108a2575b6001149081610898575b15908161088f575b506108675767ffffffffffffffff1981166001177ff0c57e16840df040f15088dc2f81fe391c3923bec73e23a9662efc9c229c6a00556001600160a01b03919083610828575b506107826129ef565b61078a6129ef565b610793336126f9565b166001600160a01b03198354161782556107aa5780f35b68ff0000000000000000197ff0c57e16840df040f15088dc2f81fe391c3923bec73e23a9662efc9c229c6a0054167ff0c57e16840df040f15088dc2f81fe391c3923bec73e23a9662efc9c229c6a00557fc7f505b2f371ae2175ee4913f4499e1f2633a7b5936321eed1cdaeb6115181d2602060405160018152a180f35b68ffffffffffffffffff191668010000000000000001177ff0c57e16840df040f15088dc2f81fe391c3923bec73e23a9662efc9c229c6a00555f610779565b6004847ff92ee8a9000000000000000000000000000000000000000000000000000000008152fd5b9050155f610733565b303b15915061072b565b849150610721565b50346101855780600319360112610185576001600160a01b036020915416604051908152f35b50346101855760203660031901126101855760043567ffffffffffffffff811161027d5780360361010060031982011261062057608482016001600160a01b03610919826126ae565b16845260016020526001600160a01b0360408520541615610d295760a48301916001600160e81b031961094b846126c2565b16855260026020526001600160a01b0360408620541615610ceb5760c4840135938415610cd857600454851680610cc6575060248101359161ffff8316809303610c20578215610c9e5760448201956109a3876126d7565b93606484019463ffffffff806109b8886126d7565b1691161015610c7657602460206001600160a01b038b5416604051928380926302abf57960e61b82527f4f66666572496d706c656d656e746174696f6e0000000000000000000000000060048301525afa8015610c6b576e5af43d82803e903d91602b57fd5bf3918b91610c4c575b50763d602d80600a3d3981f3363d3d373d3d3d363d7300000062ffffff8260881c16178b5260781b176020526001600160a01b03603760098bf016978815610c245790899594939291893b15610c2057604051957f4304db7b00000000000000000000000000000000000000000000000000000000875233600488015260406024880152856004013592831515809403610c1c57610ada610ae59363ffffffff9592869360448c015260648b01526126e8565b1660848801526126e8565b1660a485015285356001600160a01b038116809103610c185760c485015286356001600160e81b03198116809103610c185760e485015261010484015260e482013590602219018112156105cd57016024600482013591019067ffffffffffffffff81116105cd5780360382136105cd5782610b7285938293610100610124850152610144840191611c9d565b038183895af1801561050b57610bff575b50926001600160e81b0319610bdb610bd560809594847f34fb7d2d2b97e859ef855139984e45a69063e11e573e50eb2bc3b976facb8ba69852600660205260408920600160ff198254161790556126ae565b936126c2565b6001600160a01b03604051943386521660208501521660408301526060820152a180f35b81610c0c91949394611b9b565b6105cd5790835f610b83565b8580fd5b8880fd5b8680fd5b60048a7fb06ebf3d000000000000000000000000000000000000000000000000000000008152fd5b610c65915060203d60201161053e576105308183611b9b565b5f610a27565b6040513d8c823e3d90fd5b6004897fe773e0a9000000000000000000000000000000000000000000000000000000008152fd5b6004877f6a43f8d1000000000000000000000000000000000000000000000000000000008152fd5b637339074360e11b8752600452602486fd5b60248686637339074360e11b8252600452fd5b6024856001600160e81b0319610d00866126c2565b7fb9ebd42200000000000000000000000000000000000000000000000000000000835216600452fd5b836001600160a01b03610d3d6024936126ae565b7f961c9a4f00000000000000000000000000000000000000000000000000000000835216600452fd5b503461018557806003193601126101855760408051610d858282611b9b565b60058152602081017f352e302e3000000000000000000000000000000000000000000000000000000081528251938492602084525180928160208601528585015e828201840152601f01601f19168101030190f35b50346101855760203660031901126101855760043567ffffffffffffffff811161027d573660238201121561027d57806004013567ffffffffffffffff8111610620576024820191602436918360051b01011161062057610e396127b4565b825b818110610e46578380f35b610e59610e54828486612680565b612690565b60035468010000000000000000811015610f1f57806001610e7d9201600355611bed565b6fffffffffffffffffffffffffffffffff829392549160031b9260801c831b921b1916179055610eb1610e54828486612680565b6003545f198101908111610f0b576040600193927f6105d3dad2f4fd52dc8603dd2a345b9b12bc380aef73991496a237d26b3e0a74926fffffffffffffffffffffffffffffffff198351921682526020820152a101610e3b565b602486634e487b7160e01b81526011600452fd5b602486634e487b7160e01b81526041600452fd5b503461018557602036600319011261018557610f4d6127b4565b7f7e13308d621ccab0127012a309f9c2b5e0aaa7b20f923d0e7f3866967d7b054e6020600435196004541680600455604051908152a180f35b5034610185576040366003190112610185576020610fb3610fa5611b29565b610fad611b84565b90611ddc565b604051908152f35b5034610185576020366003190112610185576001600160a01b0360406020926001600160e81b0319610feb611b6d565b16815260028452205416604051908152f35b50346101855780600319360112610185576020600454604051908152f35b503461018557806003193601126101855760206001600160a01b037f9016d09d72d40fdae2fd8ceac6b6234c7706214fd39c1cd1e609a0528c1993005416604051908152f35b503461018557806003193601126101855760206040516001600160a01b037f0000000000000000000000000000000000000000000000000000000000000000168152f35b503461018557602036600319011261018557600435906003548210156101855760206110d083611bed565b90549060031b1c60801b6fffffffffffffffffffffffffffffffff1960405191168152f35b50346101855760803660031901126101855761110f611b84565b90604435906001600160a01b0382168203610185576020610fb36064358486600435611cbd565b503461018557806003193601126101855761114f6127b4565b806001600160a01b037f9016d09d72d40fdae2fd8ceac6b6234c7706214fd39c1cd1e609a0528c199300546001600160a01b031981167f9016d09d72d40fdae2fd8ceac6b6234c7706214fd39c1cd1e609a0528c19930055167f8be0079c531659141344cd1fd0a4f28419497f9722a3daafe3b4186f6b6457e08280a380f35b5034610185576020366003190112610185577f3f6bfc4bba75804b105dc56b5d6a6239a3e3b6223c7c57926b316092c4d76a2560206001600160e81b0319611215611b6d565b61121d6127b4565b1680845260028252604084206001600160a01b03198154169055604051908152a180f35b5034610185576020366003190112610185577f4c910b69fe65a61f7531b9c5042b2329ca7179c77290aa7e2eb3afa3c8511fd360206001600160a01b03611286611b29565b61128e6127b4565b1680845260018252836040812055604051908152a180f35b50346101855780600319360112610185576001600160a01b037f00000000000000000000000000000000000000000000000000000000000000001630036113115760206040517f360894a13ba1a3210667c828492db98dca3e2076cc3735a920a3ca505d382bbc8152f35b8063703e46dd60e11b60049252fd5b50604036600319011261018557611335611b29565b6024359067ffffffffffffffff82116106205736602383011215610620578160040135908361136383611bd1565b936113716040519586611b9b565b8385526020850193366024828401011161062057806024602093018637850101526001600160a01b037f0000000000000000000000000000000000000000000000000000000000000000168030149081156115d6575b506115c7576113d46127b4565b6001600160a01b038116926040517f52d1902d000000000000000000000000000000000000000000000000000000008152602081600481885afa869181611593575b5061142e5760248686634c9c8ce360e01b8252600452fd5b93847f360894a13ba1a3210667c828492db98dca3e2076cc3735a920a3ca505d382bbc8796036115685750823b1561155657908185926001600160a01b03197f360894a13ba1a3210667c828492db98dca3e2076cc3735a920a3ca505d382bbc5416177f360894a13ba1a3210667c828492db98dca3e2076cc3735a920a3ca505d382bbc557fbc7cd75a20ee27fd9adebab32041f755214dbc6bffa90cc0225b39da2e5c2d3b8380a2805115611522576115169382915190845af43d1561151a573d916114fa83611bd1565b926115086040519485611b9b565b83523d85602085013e612a46565b5080f35b606091612a46565b505050503461152e5780f35b807fb398979f0000000000000000000000000000000000000000000000000000000060049252fd5b634c9c8ce360e01b8552600452602484fd5b7faa1d49a4000000000000000000000000000000000000000000000000000000008652600452602485fd5b9091506020813d6020116115bf575b816115af60209383611b9b565b81010312610c205751905f611416565b3d91506115a2565b60048463703e46dd60e11b8152fd5b90506001600160a01b037f360894a13ba1a3210667c828492db98dca3e2076cc3735a920a3ca505d382bbc541614155f6113c7565b50346101855760203660031901126101855760ff60406020926001600160a01b03611634611b29565b168152600684522054166040519015158152f35b503461018557604036600319011261018557611662611b6d565b602435906001600160a01b038216809203610620577fc0aea0cd1ef4482000074ee16c1410faa164f1adefc4aae1b1a68a2aa494facc916001600160e81b03196040926116ad6127b4565b16908185526002602052828520816001600160a01b031982541617905582519182526020820152a180f35b50346101855760203660031901126101855760ff60406020926001600160a01b03611701611b29565b168152600784522054166040519015158152f35b50346119a95760803660031901126119a9576004356001600160a01b0381168091036119a9576024356fffffffffffffffffffffffffffffffff1981168091036119a95760443567ffffffffffffffff81116119a957611779903690600401611b3f565b919060643567ffffffffffffffff81116119a95761179b903690600401611b3f565b9093335f5260066020526117b63360ff60405f205416611c41565b855f52600760205260405f20600160ff198254161790556040516360146f8360e11b81526020816004818a5afa801561199e576001600160a01b03915f91611a1c575b50169160405190638da5cb5b60e01b8252602082600481875afa91821561199e575f926119fb575b5060405194633c159b0160e11b86526020866004818c5afa93841561199e577fbd43e77a98ce81df51d35e3461f709f06e1f125f646944182923e9238b14c91d976001600160a01b03975f966119cc575b50916118a99188936118b997986040519a8b9a168a5260208a01528c60408a0152606089015260c0608089015260c0880191611c9d565b9285840360a08701521696611c9d565b0390a2602460206001600160a01b035f5416604051928380926302abf57960e61b82527f50726f66696c650000000000000000000000000000000000000000000000000060048301525afa801561199e576001600160a01b03915f916119ad575b501690813b156119a9575f916044839260405194859384927f2f2ff15d0000000000000000000000000000000000000000000000000000000084527f4445414c5f524f4c450000000000000000000000000000000000000000000000600485015260248401525af1801561199e57611990575080f35b61199c91505f90611b9b565b005b6040513d5f823e3d90fd5b5f80fd5b6119c6915060203d60201161053e576105308183611b9b565b5f61191a565b6118b99650918893916119f06118a99460203d60201161053e576105308183611b9b565b975091935091611872565b611a1591925060203d60201161053e576105308183611b9b565b905f611821565b611a35915060203d60201161053e576105308183611b9b565b5f6117f9565b346119a95760603660031901126119a957611a54611b29565b60403660231901126119a9576001600160a01b0390611a716127b4565b16805f52600160205260405f20906024356001600160a01b03811681036119a9576001600160a01b03166001600160a01b03198354161782556044359060ff821682036119a957826020927fffffffffffffffffffffff00ffffffffffffffffffffffffffffffffffffffff74ff00000000000000000000000000000000000000007f784c8f4dbf0ffedd6e72c76501c545a70f8b203b30a26ce542bf92ba87c248a496549260a01b169116179055604051908152a1005b600435906001600160a01b03821682036119a957565b9181601f840112156119a95782359167ffffffffffffffff83116119a957602083818601950101116119a957565b600435906001600160e81b0319821682036119a957565b602435906001600160e81b0319821682036119a957565b90601f8019910116810190811067ffffffffffffffff821117611bbd57604052565b634e487b7160e01b5f52604160045260245ffd5b67ffffffffffffffff8111611bbd57601f01601f191660200190565b90600354821015611c2d5760035f52600182901c7fc2575a0e9e593c00f959f8c92f12db2869c3395a3b0502d05e2516446f71f85b019160041b60101690565b634e487b7160e01b5f52603260045260245ffd5b15611c495750565b6001600160a01b03907f32b2baa3000000000000000000000000000000000000000000000000000000005f521660045260245ffd5b908160209103126119a957516001600160a01b03811681036119a95790565b908060209392818452848401375f828201840152601f01601f1916010190565b929192621554d160ea1b6001600160e81b031983161480611d44575b611d38576001600160a01b0384165f52600160205260ff60405f205460a01c1690604d8211611d2457611d12611d1c93611d2196611ddc565b91600a0a9061296a565b612813565b90565b634e487b7160e01b5f52601160045260245ffd5b9050611d219250612813565b506001600160a01b037f0000000000000000000000000000000000000000000000000000000000000000166001600160a01b03851614611cd9565b67ffffffffffffffff8111611bbd5760051b60200190565b805115611c2d5760200190565b805160011015611c2d5760400190565b60ff16604d8111611d2457600a0a90565b519069ffffffffffffffffffff821682036119a957565b9091906001600160a01b03908116907f000000000000000000000000000000000000000000000000000000000000000016811461266c57805f52600160205260405f2090604051916040830183811067ffffffffffffffff821117611bbd5760405254906001600160a01b038216835260ff602084019260a01c168252604051611e67606082611b9b565b600281526020810190604036833761012c611e8182611d97565b525f611e8c82611da4565b526001600160a01b03855116906040519283917f883bdbfd000000000000000000000000000000000000000000000000000000008352602483019060206004850152518091526044830191905f5b81811061264d575050509181805f9403915afa90811561199e575f91612533575b50611f12611f0882611da4565b5160060b91611d97565b5160060b9003667fffffffffffff198112667fffffffffffff821317611d245760060b61012c810560020b905f81129081612522575b5061250f575b60020b5f81121561250957805f03905b620d89e882116124ab5760018216156124825770ffffffffffffffffffffffffffffffffff6ffffcb933bd6fad37aa2d162d1a5940015b169160028116612466575b6004811661244a575b6008811661242e575b60108116612412575b602081166123f6575b604081166123da575b608081166123be575b61010081166123a2575b6102008116612386575b610400811661236a575b610800811661234e575b6110008116612332575b6120008116612316575b61400081166122fa575b61800081166122de575b6201000081166122c2575b6202000081166122a7575b62040000811661228c575b6208000016612273575b5f12612265575b6001600160a01b039063ffffffff811661225c5760ff5f5b169060201c01169081800291808304811490151715611d245760206001600160a01b036004955116604051958680927f0dfe16810000000000000000000000000000000000000000000000000000000082525afa93841561199e576001600160e81b0319946001600160a01b03915f9161223d575b501603612222576120fc60ff612102935116611db4565b9061291d565b925b16621554d160ea1b81036121155750565b91600491925f52600260205260a06001600160a01b0360405f205416604051938480927ffeaf968c0000000000000000000000000000000000000000000000000000000082525afa91821561199e575f926121d3575b505f8213156121ab576305f5e1008102908082046305f5e1001490151715611d24578115612197570490565b634e487b7160e01b5f52601260045260245ffd5b7fa9cb9e0d000000000000000000000000000000000000000000000000000000005f5260045ffd5b90915060a0813d60a01161221a575b816121ef60a09383611b9b565b810103126119a95761220081611dc5565b50612212608060208301519201611dc5565b50905f61216b565b3d91506121e2565b61223260ff612237935116611db4565b61289d565b92612104565b612256915060203d60201161053e576105308183611b9b565b5f6120e5565b60ff6001612070565b8015612197575f1904612058565b6b048a170391f7dc42444e8fa290910260801c90612051565b6d2216e584f5fa1ea926041bedfe9890920260801c91612047565b916e5d6af8dedb81196699c329225ee6040260801c9161203c565b916f09aa508b5b7a84e1c677de54f3e99bc90260801c91612031565b916f31be135f97d08fd981231505542fcfa60260801c91612026565b916f70d869a156d2a1b890bb3df62baf32f70260801c9161201c565b916fa9f746462d870fdf8a65dc1f90e061e50260801c91612012565b916fd097f3bdfd2022b8845ad8f792aa58250260801c91612008565b916fe7159475a2c29b7443b29c7fa6e889d90260801c91611ffe565b916ff3392b0822b70005940c7a398e4b70f30260801c91611ff4565b916ff987a7253ac413176f2b074cf7815e540260801c91611fea565b916ffcbe86c7900a88aedcffc83b479aa3a40260801c91611fe0565b916ffe5dee046a99a2a811c461f1969c30530260801c91611fd6565b916fff2ea16466c96a3843ec78b326b9753a0260801c91611fcd565b916fff973b41fa98c081472e6896dfb254c00260801c91611fc4565b916fffcb9843d60f6159c9db58835c9266440260801c91611fbb565b916fffe5caca7e10e4e61c3624eaa0941cd00260801c91611fb2565b916ffff2e50f5f656932ef12357cf3c7fdcc0260801c91611fa9565b916ffff97272373d413259a46990580e213a0260801c91611fa0565b70ffffffffffffffffffffffffffffffffff700100000000000000000000000000000000611f95565b60646040517f08c379a000000000000000000000000000000000000000000000000000000000815260206004820152600160248201527f54000000000000000000000000000000000000000000000000000000000000006044820152fd5b80611f5e565b627fffff198114611d24575f1901611f4e565b61012c91500760060b15155f611f48565b90503d805f833e6125448183611b9b565b81016040828203126119a957815167ffffffffffffffff81116119a95782019181601f840112156119a957825161257a81611d7f565b936125886040519586611b9b565b81855260208086019260051b820101908482116119a957602001915b8183106126335750505060208101519067ffffffffffffffff82116119a957019080601f830112156119a9578151916020806125df85611d7f565b6125ec6040519182611b9b565b858152019360051b8201019182116119a957602001915b818310612613575050505f611efb565b82516001600160a01b03811681036119a957815260209283019201612603565b82518060060b81036119a9578152602092830192016125a4565b825163ffffffff16845286945060209384019390920191600101611eda565b506001600160e81b0319620f424092612104565b9190811015611c2d5760051b0190565b356fffffffffffffffffffffffffffffffff19811681036119a95790565b356001600160a01b03811681036119a95790565b356001600160e81b0319811681036119a95790565b3563ffffffff811681036119a95790565b359063ffffffff821682036119a957565b6001600160a01b03168015612788576001600160a01b037f9016d09d72d40fdae2fd8ceac6b6234c7706214fd39c1cd1e609a0528c19930054826001600160a01b03198216177f9016d09d72d40fdae2fd8ceac6b6234c7706214fd39c1cd1e609a0528c19930055167f8be0079c531659141344cd1fd0a4f28419497f9722a3daafe3b4186f6b6457e05f80a3565b7f1e4fbdf7000000000000000000000000000000000000000000000000000000005f525f60045260245ffd5b6001600160a01b037f9016d09d72d40fdae2fd8ceac6b6234c7706214fd39c1cd1e609a0528c199300541633036127e757565b7f118cdaa7000000000000000000000000000000000000000000000000000000005f523360045260245ffd5b5f1961271082099161271082029182808510940393808503941461289057838211156119a95761271082910981805f03168092046002816003021880820260020302808202600203028082026002030280820260020302808202600203028091026002030293600183805f03040190848311900302920304170290565b50809250156119a9570490565b5f1981600160c01b09918160c01b9182808510940393808503941461289057838211156119a9578190600160c01b0981805f03168092046002816003021880820260020302808202600203028082026002030280820260020302808202600203028091026002030293600183805f03040190848311900302920304170290565b5f915f1981830991818102938480851094039380850394146129605783600160c01b1115610185575090600160c01b910990828211900360401b910360c01c1790565b5050505060c01c90565b915f1982840992828102928380861095039480860395146129e157848311156119a95782910981805f03168092046002816003021880820260020302808202600203028082026002030280820260020302808202600203028091026002030293600183805f03040190848311900302920304170290565b5050809250156119a9570490565b60ff7ff0c57e16840df040f15088dc2f81fe391c3923bec73e23a9662efc9c229c6a005460401c1615612a1e57565b7fd7e6bcf8000000000000000000000000000000000000000000000000000000005f5260045ffd5b90612a835750805115612a5b57602081519101fd5b7fd6bda275000000000000000000000000000000000000000000000000000000005f5260045ffd5b81511580612ac9575b612a94575090565b6001600160a01b03907f9996b315000000000000000000000000000000000000000000000000000000005f521660045260245ffd5b50803b15612a8c56fea2646970667358221220fd9f482587859a77949c1c7c1f98500ed75e48aace0d702c0dc12d3d1615f20964736f6c63430008220033f0c57e16840df040f15088dc2f81fe391c3923bec73e23a9662efc9c229c6a00",
  "linkReferences": {},
  "deployedLinkReferences": {},
  "immutableReferences": {
    "482": [
      {
        "length": 32,
        "start": 4801
      },
      {
        "length": 32,
        "start": 5020
      }
    ],
    "3236": [
      {
        "length": 32,
        "start": 4225
      },
      {
        "length": 32,
        "start": 7503
      },
      {
        "length": 32,
        "start": 7661
      }
    ]
  },
  "inputSourceName": "project/evm/protocol/Market.sol",
  "buildInfoId": "solc-0_8_34-2f447a3522a8e13fd462132739611f19ae08425a"
}