{
  "_format": "hh-sol-artifact-1",
  "contractName": "MockERC20",
  "sourceName": "evm/protocol/mocks/MockERC20.sol",
  "abi": [
    {
      "inputs": [
        {
          "internalType": "string",
          "name": "$symbol",
          "type": "string"
        },
        {
          "internalType": "uint8",
          "name": "$decimals",
          "type": "uint8"
        }
      ],
      "stateMutability": "nonpayable",
      "type": "constructor"
    },
    {
      "inputs": [
        {
          "internalType": "address",
          "name": "spender",
          "type": "address"
        },
        {
          "internalType": "uint256",
          "name": "allowance",
          "type": "uint256"
        },
        {
          "internalType": "uint256",
          "name": "needed",
          "type": "uint256"
        }
      ],
      "name": "ERC20InsufficientAllowance",
      "type": "error"
    },
    {
      "inputs": [
        {
          "internalType": "address",
          "name": "sender",
          "type": "address"
        },
        {
          "internalType": "uint256",
          "name": "balance",
          "type": "uint256"
        },
        {
          "internalType": "uint256",
          "name": "needed",
          "type": "uint256"
        }
      ],
      "name": "ERC20InsufficientBalance",
      "type": "error"
    },
    {
      "inputs": [
        {
          "internalType": "address",
          "name": "approver",
          "type": "address"
        }
      ],
      "name": "ERC20InvalidApprover",
      "type": "error"
    },
    {
      "inputs": [
        {
          "internalType": "address",
          "name": "receiver",
          "type": "address"
        }
      ],
      "name": "ERC20InvalidReceiver",
      "type": "error"
    },
    {
      "inputs": [
        {
          "internalType": "address",
          "name": "sender",
          "type": "address"
        }
      ],
      "name": "ERC20InvalidSender",
      "type": "error"
    },
    {
      "inputs": [
        {
          "internalType": "address",
          "name": "spender",
          "type": "address"
        }
      ],
      "name": "ERC20InvalidSpender",
      "type": "error"
    },
    {
      "anonymous": false,
      "inputs": [
        {
          "indexed": true,
          "internalType": "address",
          "name": "owner",
          "type": "address"
        },
        {
          "indexed": true,
          "internalType": "address",
          "name": "spender",
          "type": "address"
        },
        {
          "indexed": false,
          "internalType": "uint256",
          "name": "value",
          "type": "uint256"
        }
      ],
      "name": "Approval",
      "type": "event"
    },
    {
      "anonymous": false,
      "inputs": [
        {
          "indexed": true,
          "internalType": "address",
          "name": "from",
          "type": "address"
        },
        {
          "indexed": true,
          "internalType": "address",
          "name": "to",
          "type": "address"
        },
        {
          "indexed": false,
          "internalType": "uint256",
          "name": "value",
          "type": "uint256"
        }
      ],
      "name": "Transfer",
      "type": "event"
    },
    {
      "inputs": [
        {
          "internalType": "address",
          "name": "owner",
          "type": "address"
        },
        {
          "internalType": "address",
          "name": "spender",
          "type": "address"
        }
      ],
      "name": "allowance",
      "outputs": [
        {
          "internalType": "uint256",
          "name": "",
          "type": "uint256"
        }
      ],
      "stateMutability": "view",
      "type": "function"
    },
    {
      "inputs": [
        {
          "internalType": "address",
          "name": "spender",
          "type": "address"
        },
        {
          "internalType": "uint256",
          "name": "value",
          "type": "uint256"
        }
      ],
      "name": "approve",
      "outputs": [
        {
          "internalType": "bool",
          "name": "",
          "type": "bool"
        }
      ],
      "stateMutability": "nonpayable",
      "type": "function"
    },
    {
      "inputs": [
        {
          "internalType": "address",
          "name": "account",
          "type": "address"
        }
      ],
      "name": "balanceOf",
      "outputs": [
        {
          "internalType": "uint256",
          "name": "",
          "type": "uint256"
        }
      ],
      "stateMutability": "view",
      "type": "function"
    },
    {
      "inputs": [],
      "name": "decimals",
      "outputs": [
        {
          "internalType": "uint8",
          "name": "",
          "type": "uint8"
        }
      ],
      "stateMutability": "view",
      "type": "function"
    },
    {
      "inputs": [
        {
          "internalType": "uint256",
          "name": "amount",
          "type": "uint256"
        }
      ],
      "name": "giveme",
      "outputs": [],
      "stateMutability": "nonpayable",
      "type": "function"
    },
    {
      "inputs": [],
      "name": "name",
      "outputs": [
        {
          "internalType": "string",
          "name": "",
          "type": "string"
        }
      ],
      "stateMutability": "view",
      "type": "function"
    },
    {
      "inputs": [],
      "name": "symbol",
      "outputs": [
        {
          "internalType": "string",
          "name": "",
          "type": "string"
        }
      ],
      "stateMutability": "view",
      "type": "function"
    },
    {
      "inputs": [],
      "name": "totalSupply",
      "outputs": [
        {
          "internalType": "uint256",
          "name": "",
          "type": "uint256"
        }
      ],
      "stateMutability": "view",
      "type": "function"
    },
    {
      "inputs": [
        {
          "internalType": "address",
          "name": "to",
          "type": "address"
        },
        {
          "internalType": "uint256",
          "name": "value",
          "type": "uint256"
        }
      ],
      "name": "transfer",
      "outputs": [
        {
          "internalType": "bool",
          "name": "",
          "type": "bool"
        }
      ],
      "stateMutability": "nonpayable",
      "type": "function"
    },
    {
      "inputs": [
        {
          "internalType": "address",
          "name": "from",
          "type": "address"
        },
        {
          "internalType": "address",
          "name": "to",
          "type": "address"
        },
        {
          "internalType": "uint256",
          "name": "value",
          "type": "uint256"
        }
      ],
      "name": "transferFrom",
      "outputs": [
        {
          "internalType": "bool",
          "name": "",
          "type": "bool"
        }
      ],
      "stateMutability": "nonpayable",
      "type": "function"
    }
  ],
  "bytecode": "0x6080806040523461042e57610b62803803809161001c8285610433565b833981019060408183031261042e5780516001600160401b03811161042e5781019082601f8301121561042e578151906001600160401b0382116103375760405192610072601f8401601f191660200185610433565b82845260208401946020848301011161042e5760209285846100949301610456565b015160ff811680910361042e576100d960246040518095634d6f636b60e01b60208301526100c88651809285850190610456565b81010301601f198101855284610433565b82516001600160401b03811161033757600354600181811c91168015610424575b602082101461031757601f81116103bf575b506020601f8211600114610358578192939460009261034d575b50508160011b916000199060031b1c1916176003555b81516001600160401b03811161033757600454600181811c9116801561032d575b602082101461031757601f81116102b2575b50602092601f821160011461024d5792819293600092610242575b50508160011b916000199060031b1c1916176004555b60ff196005541617600555331561022c576002546000198101809111610216576002556000338152806020526040812060001981540190556040519060001982527fddf252ad1be2c89b69c2b068fc378daa952ba7f163c4a11628f55a4df523b3ef60203393a36040516106e8908161047a8239f35b634e487b7160e01b600052601160045260246000fd5b63ec442f0560e01b600052600060045260246000fd5b01519050388061018a565b601f198216936004600052806000209160005b86811061029a5750836001959610610281575b505050811b016004556101a0565b015160001960f88460031b161c19169055388080610273565b91926020600181928685015181550194019201610260565b60046000527f8a35acfbc15ff81a39ae7d344fd709f28e8600b4aa8c65c6b64bfe7fe36bd19b601f830160051c8101916020841061030d575b601f0160051c01905b818110610301575061016f565b600081556001016102f4565b90915081906102eb565b634e487b7160e01b600052602260045260246000fd5b90607f169061015d565b634e487b7160e01b600052604160045260246000fd5b015190503880610126565b601f198216906003600052806000209160005b8181106103a75750958360019596971061038e575b505050811b0160035561013c565b015160001960f88460031b161c19169055388080610380565b9192602060018192868b01518155019401920161036b565b60036000527fc2575a0e9e593c00f959f8c92f12db2869c3395a3b0502d05e2516446f71f85b601f830160051c8101916020841061041a575b601f0160051c01905b81811061040e575061010c565b60008155600101610401565b90915081906103f8565b90607f16906100fa565b600080fd5b601f909101601f19168101906001600160401b0382119082101761033757604052565b60005b8381106104695750506000910152565b818101518382015260200161045956fe608080604052600436101561001357600080fd5b60003560e01c90816306fdde03146104bb57508063095ea7b31461043557806318160ddd1461041757806323b872dd1461032a578063313ce567146103095780635bd2485b1461026f57806370a082311461023557806395d89b4114610114578063a9059cbb146100e35763dd62ed3e1461008d57600080fd5b346100de5760403660031901126100de576100a66105d7565b6100ae6105ed565b6001600160a01b039182166000908152600160209081526040808320949093168252928352819020549051908152f35b600080fd5b346100de5760403660031901126100de576101096100ff6105d7565b6024359033610603565b602060405160018152f35b346100de5760003660031901126100de5760405160006004548060011c9060018116801561022b575b602083108114610217578285529081156101fb57506001146101a4575b50819003601f01601f191681019067ffffffffffffffff82118183101761018e5761018a8291826040528261058e565b0390f35b634e487b7160e01b600052604160045260246000fd5b905060046000527f8a35acfbc15ff81a39ae7d344fd709f28e8600b4aa8c65c6b64bfe7fe36bd19b6000905b8282106101e55750602091508201018261015a565b60018160209254838588010152019101906101d0565b90506020925060ff191682840152151560051b8201018261015a565b634e487b7160e01b84526022600452602484fd5b91607f169161013d565b346100de5760203660031901126100de576001600160a01b036102566105d7565b1660005260006020526020604060002054604051908152f35b346100de5760203660031901126100de5760043533156102f3576002548181018091116102dd576002556000903382528160205260408220818154019055604051908152817fddf252ad1be2c89b69c2b068fc378daa952ba7f163c4a11628f55a4df523b3ef60203393a380f35b634e487b7160e01b600052601160045260246000fd5b63ec442f0560e01b600052600060045260246000fd5b346100de5760003660031901126100de57602060ff60055416604051908152f35b346100de5760603660031901126100de576103436105d7565b61034b6105ed565b6001600160a01b038216600081815260016020908152604080832033845290915290205490926044359291600019811061038b575b506101099350610603565b8381106103fa5784156103e45733156103ce57610109946000526001602052604060002060018060a01b0333166000526020528360406000209103905584610380565b634a1406b160e11b600052600060045260246000fd5b63e602df0560e01b600052600060045260246000fd5b8390637dc7a0d960e11b6000523360045260245260445260646000fd5b346100de5760003660031901126100de576020600254604051908152f35b346100de5760403660031901126100de5761044e6105d7565b6024359033156103e4576001600160a01b03169081156103ce57336000526001602052604060002082600052602052806040600020556040519081527f8c5be1e5ebec7d5bd14f71427d1e84f3dd0314c0f7b2291e5b200ac8c7c3b92560203392a3602060405160018152f35b346100de5760003660031901126100de5760006003548060011c90600181168015610584575b602083108114610217578285529081156101fb575060011461052d5750819003601f01601f191681019067ffffffffffffffff82118183101761018e5761018a8291826040528261058e565b905060036000527fc2575a0e9e593c00f959f8c92f12db2869c3395a3b0502d05e2516446f71f85b6000905b82821061056e5750602091508201018261015a565b6001816020925483858801015201910190610559565b91607f16916104e1565b91909160208152825180602083015260005b8181106105c1575060409293506000838284010152601f8019910116010190565b80602080928701015160408286010152016105a0565b600435906001600160a01b03821682036100de57565b602435906001600160a01b03821682036100de57565b6001600160a01b031690811561069c576001600160a01b03169182156102f35760008281528060205260408120548281106106825791604082827fddf252ad1be2c89b69c2b068fc378daa952ba7f163c4a11628f55a4df523b3ef958760209652828652038282205586815280845220818154019055604051908152a3565b916064928463391434e360e21b8452600452602452604452fd5b634b637e8f60e11b600052600060045260246000fdfea2646970667358221220c4d0574aa51cea7b29d4a5eeb75db7c2c74c2e64dc153ef9b953ac2a660a4c0064736f6c634300081a0033",
  "linkReferences": {},
  "deployedLinkReferences": {}
}